{
	"contract/wtf/CallData.sol": {
		"CallDateDemo": {
			"abi": [
				{
					"anonymous": false,
					"inputs": [
						{
							"indexed": false,
							"internalType": "string",
							"name": "",
							"type": "string"
						}
					],
					"name": "LOG",
					"type": "event"
				},
				{
					"inputs": [],
					"name": "callByAbi",
					"outputs": [
						{
							"internalType": "bool",
							"name": "success1",
							"type": "bool"
						},
						{
							"internalType": "bytes",
							"name": "data1",
							"type": "bytes"
						}
					],
					"stateMutability": "nonpayable",
					"type": "function"
				},
				{
					"inputs": [
						{
							"internalType": "string",
							"name": "_x",
							"type": "string"
						}
					],
					"name": "callDataDdemo",
					"outputs": [
						{
							"internalType": "bytes",
							"name": "",
							"type": "bytes"
						}
					],
					"stateMutability": "nonpayable",
					"type": "function"
				},
				{
					"inputs": [
						{
							"internalType": "string",
							"name": "_x",
							"type": "string"
						}
					],
					"name": "look",
					"outputs": [
						{
							"internalType": "bytes4",
							"name": "",
							"type": "bytes4"
						}
					],
					"stateMutability": "nonpayable",
					"type": "function"
				}
			],
			"devdoc": {
				"kind": "dev",
				"methods": {},
				"version": 1
			},
			"evm": {
				"assembly": "    /* \"contract/wtf/CallData.sol\":62:673  contract CallDateDemo {... */\n  mstore(0x40, 0x80)\n  callvalue\n  dup1\n  iszero\n  tag_1\n  jumpi\n  0x00\n  dup1\n  revert\ntag_1:\n  pop\n  dataSize(sub_0)\n  dup1\n  dataOffset(sub_0)\n  0x00\n  codecopy\n  0x00\n  return\nstop\n\nsub_0: assembly {\n        /* \"contract/wtf/CallData.sol\":62:673  contract CallDateDemo {... */\n      mstore(0x40, 0x80)\n      callvalue\n      dup1\n      iszero\n      tag_1\n      jumpi\n      0x00\n      dup1\n      revert\n    tag_1:\n      pop\n      jumpi(tag_2, lt(calldatasize, 0x04))\n      shr(0xe0, calldataload(0x00))\n      dup1\n      0x3ebce91e\n      eq\n      tag_3\n      jumpi\n      dup1\n      0x46bc8173\n      eq\n      tag_4\n      jumpi\n      dup1\n      0xca3f7d22\n      eq\n      tag_5\n      jumpi\n    tag_2:\n      0x00\n      dup1\n      revert\n        /* \"contract/wtf/CallData.sol\":459:671  function callByAbi() external returns (bool success1, bytes memory data1) {... */\n    tag_3:\n      tag_6\n      tag_7\n      jump\t// in\n    tag_6:\n      mload(0x40)\n      tag_8\n      swap3\n      swap2\n      swap1\n      tag_9\n      jump\t// in\n    tag_8:\n      mload(0x40)\n      dup1\n      swap2\n      sub\n      swap1\n      return\n        /* \"contract/wtf/CallData.sol\":114:260  function callDataDdemo(string calldata _x) external returns (bytes memory) {... */\n    tag_4:\n      tag_10\n      0x04\n      dup1\n      calldatasize\n      sub\n      dup2\n      add\n      swap1\n      tag_11\n      swap2\n      swap1\n      tag_12\n      jump\t// in\n    tag_11:\n      tag_13\n      jump\t// in\n    tag_10:\n      mload(0x40)\n      tag_14\n      swap2\n      swap1\n      tag_15\n      jump\t// in\n    tag_14:\n      mload(0x40)\n      dup1\n      swap2\n      sub\n      swap1\n      return\n        /* \"contract/wtf/CallData.sol\":284:440  function look(string calldata _x) external returns (bytes4) {... */\n    tag_5:\n      tag_16\n      0x04\n      dup1\n      calldatasize\n      sub\n      dup2\n      add\n      swap1\n      tag_17\n      swap2\n      swap1\n      tag_12\n      jump\t// in\n    tag_17:\n      tag_18\n      jump\t// in\n    tag_16:\n      mload(0x40)\n      tag_19\n      swap2\n      swap1\n      tag_20\n      jump\t// in\n    tag_19:\n      mload(0x40)\n      dup1\n      swap2\n      sub\n      swap1\n      return\n        /* \"contract/wtf/CallData.sol\":459:671  function callByAbi() external returns (bool success1, bytes memory data1) {... */\n    tag_7:\n        /* \"contract/wtf/CallData.sol\":498:511  bool success1 */\n      0x00\n        /* \"contract/wtf/CallData.sol\":513:531  bytes memory data1 */\n      0x60\n        /* \"contract/wtf/CallData.sol\":544:557  bool success1 */\n      0x00\n        /* \"contract/wtf/CallData.sol\":559:577  bytes memory data1 */\n      dup1\n        /* \"contract/wtf/CallData.sol\":589:593  this */\n      address\n        /* \"contract/wtf/CallData.sol\":581:599  address(this).call */\n      0xffffffffffffffffffffffffffffffffffffffff\n      and\n        /* \"contract/wtf/CallData.sol\":636:646  0x46bc8173 */\n      0x46bc8173\n        /* \"contract/wtf/CallData.sol\":613:654  abi.encodeWithSelector(0x46bc8173, \"abc\") */\n      add(0x24, mload(0x40))\n      tag_22\n      swap1\n      tag_23\n      jump\t// in\n    tag_22:\n      mload(0x40)\n      0x20\n      dup2\n      dup4\n      sub\n      sub\n      dup2\n      mstore\n      swap1\n      0x40\n      mstore\n      swap1\n      0xe0\n      shl\n      0x20\n      dup3\n      add\n      dup1\n      mload\n      0xffffffffffffffffffffffffffffffffffffffffffffffffffffffff\n      dup4\n      dup2\n      dup4\n      and\n      or\n      dup4\n      mstore\n      pop\n      pop\n      pop\n      pop\n        /* \"contract/wtf/CallData.sol\":581:664  address(this).call(... */\n      mload(0x40)\n      tag_24\n      swap2\n      swap1\n      tag_25\n      jump\t// in\n    tag_24:\n      0x00\n      mload(0x40)\n      dup1\n      dup4\n      sub\n      dup2\n      0x00\n      dup7\n      gas\n      call\n      swap2\n      pop\n      pop\n      returndatasize\n      dup1\n      0x00\n      dup2\n      eq\n      tag_28\n      jumpi\n      mload(0x40)\n      swap2\n      pop\n      and(add(returndatasize, 0x3f), not(0x1f))\n      dup3\n      add\n      0x40\n      mstore\n      returndatasize\n      dup3\n      mstore\n      returndatasize\n      0x00\n      0x20\n      dup5\n      add\n      returndatacopy\n      jump(tag_27)\n    tag_28:\n      0x60\n      swap2\n      pop\n    tag_27:\n      pop\n        /* \"contract/wtf/CallData.sol\":543:664  (bool success1, bytes memory data1) = address(this).call(... */\n      swap2\n      pop\n      swap2\n      pop\n        /* \"contract/wtf/CallData.sol\":533:671  {... */\n      pop\n      pop\n        /* \"contract/wtf/CallData.sol\":459:671  function callByAbi() external returns (bool success1, bytes memory data1) {... */\n      swap1\n      swap2\n      jump\t// out\n        /* \"contract/wtf/CallData.sol\":114:260  function callDataDdemo(string calldata _x) external returns (bytes memory) {... */\n    tag_13:\n        /* \"contract/wtf/CallData.sol\":175:187  bytes memory */\n      0x60\n        /* \"contract/wtf/CallData.sol\":204:228  LOG(\"callDataDdemo log\") */\n      0xd2f6c0020d30a86146de6300741f2bd90869bddf3818f8d3294ae782f6216176\n      mload(0x40)\n      tag_30\n      swap1\n      tag_31\n      jump\t// in\n    tag_30:\n      mload(0x40)\n      dup1\n      swap2\n      sub\n      swap1\n      log1\n        /* \"contract/wtf/CallData.sol\":245:253  msg.data */\n      0x00\n      calldatasize\n        /* \"contract/wtf/CallData.sol\":238:253  return msg.data */\n      dup1\n      dup1\n      0x1f\n      add\n      0x20\n      dup1\n      swap2\n      div\n      mul\n      0x20\n      add\n      mload(0x40)\n      swap1\n      dup2\n      add\n      0x40\n      mstore\n      dup1\n      swap4\n      swap3\n      swap2\n      swap1\n      dup2\n      dup2\n      mstore\n      0x20\n      add\n      dup4\n      dup4\n      dup1\n      dup3\n      dup5\n      calldatacopy\n      0x00\n      dup2\n      dup5\n      add\n      mstore\n      not(0x1f)\n      0x1f\n      dup3\n      add\n      and\n      swap1\n      pop\n      dup1\n      dup4\n      add\n      swap3\n      pop\n      pop\n      pop\n      pop\n      pop\n      pop\n      pop\n      swap1\n      pop\n        /* \"contract/wtf/CallData.sol\":114:260  function callDataDdemo(string calldata _x) external returns (bytes memory) {... */\n      swap3\n      swap2\n      pop\n      pop\n      jump\t// out\n        /* \"contract/wtf/CallData.sol\":284:440  function look(string calldata _x) external returns (bytes4) {... */\n    tag_18:\n        /* \"contract/wtf/CallData.sol\":336:342  bytes4 */\n      0x00\n        /* \"contract/wtf/CallData.sol\":359:374  LOG(\"look log\") */\n      0xd2f6c0020d30a86146de6300741f2bd90869bddf3818f8d3294ae782f6216176\n      mload(0x40)\n      tag_33\n      swap1\n      tag_34\n      jump\t// in\n    tag_33:\n      mload(0x40)\n      dup1\n      swap2\n      sub\n      swap1\n      log1\n        /* \"contract/wtf/CallData.sol\":398:432  keccak256(\"callDataDdemo(string)\") */\n      0x46bc8173ffbb28915a7aaf86bf99fb2619929a01b70ef0adac0096241f054678\n        /* \"contract/wtf/CallData.sol\":384:433  return bytes4(keccak256(\"callDataDdemo(string)\")) */\n      swap1\n      pop\n        /* \"contract/wtf/CallData.sol\":284:440  function look(string calldata _x) external returns (bytes4) {... */\n      swap3\n      swap2\n      pop\n      pop\n      jump\t// out\n        /* \"#utility.yul\":7:97   */\n    tag_35:\n        /* \"#utility.yul\":41:48   */\n      0x00\n        /* \"#utility.yul\":84:89   */\n      dup2\n        /* \"#utility.yul\":77:90   */\n      iszero\n        /* \"#utility.yul\":70:91   */\n      iszero\n        /* \"#utility.yul\":59:91   */\n      swap1\n      pop\n        /* \"#utility.yul\":7:97   */\n      swap2\n      swap1\n      pop\n      jump\t// out\n        /* \"#utility.yul\":103:212   */\n    tag_36:\n        /* \"#utility.yul\":184:205   */\n      tag_63\n        /* \"#utility.yul\":199:204   */\n      dup2\n        /* \"#utility.yul\":184:205   */\n      tag_35\n      jump\t// in\n    tag_63:\n        /* \"#utility.yul\":179:182   */\n      dup3\n        /* \"#utility.yul\":172:206   */\n      mstore\n        /* \"#utility.yul\":103:212   */\n      pop\n      pop\n      jump\t// out\n        /* \"#utility.yul\":218:316   */\n    tag_37:\n        /* \"#utility.yul\":269:275   */\n      0x00\n        /* \"#utility.yul\":303:308   */\n      dup2\n        /* \"#utility.yul\":297:309   */\n      mload\n        /* \"#utility.yul\":287:309   */\n      swap1\n      pop\n        /* \"#utility.yul\":218:316   */\n      swap2\n      swap1\n      pop\n      jump\t// out\n        /* \"#utility.yul\":322:490   */\n    tag_38:\n        /* \"#utility.yul\":405:416   */\n      0x00\n        /* \"#utility.yul\":439:445   */\n      dup3\n        /* \"#utility.yul\":434:437   */\n      dup3\n        /* \"#utility.yul\":427:446   */\n      mstore\n        /* \"#utility.yul\":479:483   */\n      0x20\n        /* \"#utility.yul\":474:477   */\n      dup3\n        /* \"#utility.yul\":470:484   */\n      add\n        /* \"#utility.yul\":455:484   */\n      swap1\n      pop\n        /* \"#utility.yul\":322:490   */\n      swap3\n      swap2\n      pop\n      pop\n      jump\t// out\n        /* \"#utility.yul\":496:635   */\n    tag_39:\n        /* \"#utility.yul\":585:591   */\n      dup3\n        /* \"#utility.yul\":580:583   */\n      dup2\n        /* \"#utility.yul\":575:578   */\n      dup4\n        /* \"#utility.yul\":569:592   */\n      mcopy\n        /* \"#utility.yul\":626:627   */\n      0x00\n        /* \"#utility.yul\":617:623   */\n      dup4\n        /* \"#utility.yul\":612:615   */\n      dup4\n        /* \"#utility.yul\":608:624   */\n      add\n        /* \"#utility.yul\":601:628   */\n      mstore\n        /* \"#utility.yul\":496:635   */\n      pop\n      pop\n      pop\n      jump\t// out\n        /* \"#utility.yul\":641:743   */\n    tag_40:\n        /* \"#utility.yul\":682:688   */\n      0x00\n        /* \"#utility.yul\":733:735   */\n      0x1f\n        /* \"#utility.yul\":729:736   */\n      not\n        /* \"#utility.yul\":724:726   */\n      0x1f\n        /* \"#utility.yul\":717:722   */\n      dup4\n        /* \"#utility.yul\":713:727   */\n      add\n        /* \"#utility.yul\":709:737   */\n      and\n        /* \"#utility.yul\":699:737   */\n      swap1\n      pop\n        /* \"#utility.yul\":641:743   */\n      swap2\n      swap1\n      pop\n      jump\t// out\n        /* \"#utility.yul\":749:1122   */\n    tag_41:\n        /* \"#utility.yul\":835:838   */\n      0x00\n        /* \"#utility.yul\":863:901   */\n      tag_69\n        /* \"#utility.yul\":895:900   */\n      dup3\n        /* \"#utility.yul\":863:901   */\n      tag_37\n      jump\t// in\n    tag_69:\n        /* \"#utility.yul\":917:987   */\n      tag_70\n        /* \"#utility.yul\":980:986   */\n      dup2\n        /* \"#utility.yul\":975:978   */\n      dup6\n        /* \"#utility.yul\":917:987   */\n      tag_38\n      jump\t// in\n    tag_70:\n        /* \"#utility.yul\":910:987   */\n      swap4\n      pop\n        /* \"#utility.yul\":996:1061   */\n      tag_71\n        /* \"#utility.yul\":1054:1060   */\n      dup2\n        /* \"#utility.yul\":1049:1052   */\n      dup6\n        /* \"#utility.yul\":1042:1046   */\n      0x20\n        /* \"#utility.yul\":1035:1040   */\n      dup7\n        /* \"#utility.yul\":1031:1047   */\n      add\n        /* \"#utility.yul\":996:1061   */\n      tag_39\n      jump\t// in\n    tag_71:\n        /* \"#utility.yul\":1086:1115   */\n      tag_72\n        /* \"#utility.yul\":1108:1114   */\n      dup2\n        /* \"#utility.yul\":1086:1115   */\n      tag_40\n      jump\t// in\n    tag_72:\n        /* \"#utility.yul\":1081:1084   */\n      dup5\n        /* \"#utility.yul\":1077:1116   */\n      add\n        /* \"#utility.yul\":1070:1116   */\n      swap2\n      pop\n        /* \"#utility.yul\":839:1122   */\n      pop\n        /* \"#utility.yul\":749:1122   */\n      swap3\n      swap2\n      pop\n      pop\n      jump\t// out\n        /* \"#utility.yul\":1128:1535   */\n    tag_9:\n        /* \"#utility.yul\":1261:1265   */\n      0x00\n        /* \"#utility.yul\":1299:1301   */\n      0x40\n        /* \"#utility.yul\":1288:1297   */\n      dup3\n        /* \"#utility.yul\":1284:1302   */\n      add\n        /* \"#utility.yul\":1276:1302   */\n      swap1\n      pop\n        /* \"#utility.yul\":1312:1377   */\n      tag_74\n        /* \"#utility.yul\":1374:1375   */\n      0x00\n        /* \"#utility.yul\":1363:1372   */\n      dup4\n        /* \"#utility.yul\":1359:1376   */\n      add\n        /* \"#utility.yul\":1350:1356   */\n      dup6\n        /* \"#utility.yul\":1312:1377   */\n      tag_36\n      jump\t// in\n    tag_74:\n        /* \"#utility.yul\":1424:1433   */\n      dup2\n        /* \"#utility.yul\":1418:1422   */\n      dup2\n        /* \"#utility.yul\":1414:1434   */\n      sub\n        /* \"#utility.yul\":1409:1411   */\n      0x20\n        /* \"#utility.yul\":1398:1407   */\n      dup4\n        /* \"#utility.yul\":1394:1412   */\n      add\n        /* \"#utility.yul\":1387:1435   */\n      mstore\n        /* \"#utility.yul\":1452:1528   */\n      tag_75\n        /* \"#utility.yul\":1523:1527   */\n      dup2\n        /* \"#utility.yul\":1514:1520   */\n      dup5\n        /* \"#utility.yul\":1452:1528   */\n      tag_41\n      jump\t// in\n    tag_75:\n        /* \"#utility.yul\":1444:1528   */\n      swap1\n      pop\n        /* \"#utility.yul\":1128:1535   */\n      swap4\n      swap3\n      pop\n      pop\n      pop\n      jump\t// out\n        /* \"#utility.yul\":1622:1739   */\n    tag_43:\n        /* \"#utility.yul\":1731:1732   */\n      0x00\n        /* \"#utility.yul\":1728:1729   */\n      dup1\n        /* \"#utility.yul\":1721:1733   */\n      revert\n        /* \"#utility.yul\":1745:1862   */\n    tag_44:\n        /* \"#utility.yul\":1854:1855   */\n      0x00\n        /* \"#utility.yul\":1851:1852   */\n      dup1\n        /* \"#utility.yul\":1844:1856   */\n      revert\n        /* \"#utility.yul\":1868:1985   */\n    tag_45:\n        /* \"#utility.yul\":1977:1978   */\n      0x00\n        /* \"#utility.yul\":1974:1975   */\n      dup1\n        /* \"#utility.yul\":1967:1979   */\n      revert\n        /* \"#utility.yul\":1991:2108   */\n    tag_46:\n        /* \"#utility.yul\":2100:2101   */\n      0x00\n        /* \"#utility.yul\":2097:2098   */\n      dup1\n        /* \"#utility.yul\":2090:2102   */\n      revert\n        /* \"#utility.yul\":2114:2231   */\n    tag_47:\n        /* \"#utility.yul\":2223:2224   */\n      0x00\n        /* \"#utility.yul\":2220:2221   */\n      dup1\n        /* \"#utility.yul\":2213:2225   */\n      revert\n        /* \"#utility.yul\":2251:2804   */\n    tag_48:\n        /* \"#utility.yul\":2309:2317   */\n      0x00\n        /* \"#utility.yul\":2319:2325   */\n      dup1\n        /* \"#utility.yul\":2369:2372   */\n      dup4\n        /* \"#utility.yul\":2362:2366   */\n      0x1f\n        /* \"#utility.yul\":2354:2360   */\n      dup5\n        /* \"#utility.yul\":2350:2367   */\n      add\n        /* \"#utility.yul\":2346:2373   */\n      slt\n        /* \"#utility.yul\":2336:2458   */\n      tag_83\n      jumpi\n        /* \"#utility.yul\":2377:2456   */\n      tag_84\n      tag_45\n      jump\t// in\n    tag_84:\n        /* \"#utility.yul\":2336:2458   */\n    tag_83:\n        /* \"#utility.yul\":2490:2496   */\n      dup3\n        /* \"#utility.yul\":2477:2497   */\n      calldataload\n        /* \"#utility.yul\":2467:2497   */\n      swap1\n      pop\n        /* \"#utility.yul\":2520:2538   */\n      0xffffffffffffffff\n        /* \"#utility.yul\":2512:2518   */\n      dup2\n        /* \"#utility.yul\":2509:2539   */\n      gt\n        /* \"#utility.yul\":2506:2623   */\n      iszero\n      tag_85\n      jumpi\n        /* \"#utility.yul\":2542:2621   */\n      tag_86\n      tag_46\n      jump\t// in\n    tag_86:\n        /* \"#utility.yul\":2506:2623   */\n    tag_85:\n        /* \"#utility.yul\":2656:2660   */\n      0x20\n        /* \"#utility.yul\":2648:2654   */\n      dup4\n        /* \"#utility.yul\":2644:2661   */\n      add\n        /* \"#utility.yul\":2632:2661   */\n      swap2\n      pop\n        /* \"#utility.yul\":2710:2713   */\n      dup4\n        /* \"#utility.yul\":2702:2706   */\n      0x01\n        /* \"#utility.yul\":2694:2700   */\n      dup3\n        /* \"#utility.yul\":2690:2707   */\n      mul\n        /* \"#utility.yul\":2680:2688   */\n      dup4\n        /* \"#utility.yul\":2676:2708   */\n      add\n        /* \"#utility.yul\":2673:2714   */\n      gt\n        /* \"#utility.yul\":2670:2798   */\n      iszero\n      tag_87\n      jumpi\n        /* \"#utility.yul\":2717:2796   */\n      tag_88\n      tag_47\n      jump\t// in\n    tag_88:\n        /* \"#utility.yul\":2670:2798   */\n    tag_87:\n        /* \"#utility.yul\":2251:2804   */\n      swap3\n      pop\n      swap3\n      swap1\n      pop\n      jump\t// out\n        /* \"#utility.yul\":2810:3339   */\n    tag_12:\n        /* \"#utility.yul\":2881:2887   */\n      0x00\n        /* \"#utility.yul\":2889:2895   */\n      dup1\n        /* \"#utility.yul\":2938:2940   */\n      0x20\n        /* \"#utility.yul\":2926:2935   */\n      dup4\n        /* \"#utility.yul\":2917:2924   */\n      dup6\n        /* \"#utility.yul\":2913:2936   */\n      sub\n        /* \"#utility.yul\":2909:2941   */\n      slt\n        /* \"#utility.yul\":2906:3025   */\n      iszero\n      tag_90\n      jumpi\n        /* \"#utility.yul\":2944:3023   */\n      tag_91\n      tag_43\n      jump\t// in\n    tag_91:\n        /* \"#utility.yul\":2906:3025   */\n    tag_90:\n        /* \"#utility.yul\":3092:3093   */\n      0x00\n        /* \"#utility.yul\":3081:3090   */\n      dup4\n        /* \"#utility.yul\":3077:3094   */\n      add\n        /* \"#utility.yul\":3064:3095   */\n      calldataload\n        /* \"#utility.yul\":3122:3140   */\n      0xffffffffffffffff\n        /* \"#utility.yul\":3114:3120   */\n      dup2\n        /* \"#utility.yul\":3111:3141   */\n      gt\n        /* \"#utility.yul\":3108:3225   */\n      iszero\n      tag_92\n      jumpi\n        /* \"#utility.yul\":3144:3223   */\n      tag_93\n      tag_44\n      jump\t// in\n    tag_93:\n        /* \"#utility.yul\":3108:3225   */\n    tag_92:\n        /* \"#utility.yul\":3257:3322   */\n      tag_94\n        /* \"#utility.yul\":3314:3321   */\n      dup6\n        /* \"#utility.yul\":3305:3311   */\n      dup3\n        /* \"#utility.yul\":3294:3303   */\n      dup7\n        /* \"#utility.yul\":3290:3312   */\n      add\n        /* \"#utility.yul\":3257:3322   */\n      tag_48\n      jump\t// in\n    tag_94:\n        /* \"#utility.yul\":3239:3322   */\n      swap3\n      pop\n      swap3\n      pop\n        /* \"#utility.yul\":3035:3332   */\n      pop\n        /* \"#utility.yul\":2810:3339   */\n      swap3\n      pop\n      swap3\n      swap1\n      pop\n      jump\t// out\n        /* \"#utility.yul\":3345:3654   */\n    tag_15:\n        /* \"#utility.yul\":3456:3460   */\n      0x00\n        /* \"#utility.yul\":3494:3496   */\n      0x20\n        /* \"#utility.yul\":3483:3492   */\n      dup3\n        /* \"#utility.yul\":3479:3497   */\n      add\n        /* \"#utility.yul\":3471:3497   */\n      swap1\n      pop\n        /* \"#utility.yul\":3543:3552   */\n      dup2\n        /* \"#utility.yul\":3537:3541   */\n      dup2\n        /* \"#utility.yul\":3533:3553   */\n      sub\n        /* \"#utility.yul\":3529:3530   */\n      0x00\n        /* \"#utility.yul\":3518:3527   */\n      dup4\n        /* \"#utility.yul\":3514:3531   */\n      add\n        /* \"#utility.yul\":3507:3554   */\n      mstore\n        /* \"#utility.yul\":3571:3647   */\n      tag_96\n        /* \"#utility.yul\":3642:3646   */\n      dup2\n        /* \"#utility.yul\":3633:3639   */\n      dup5\n        /* \"#utility.yul\":3571:3647   */\n      tag_41\n      jump\t// in\n    tag_96:\n        /* \"#utility.yul\":3563:3647   */\n      swap1\n      pop\n        /* \"#utility.yul\":3345:3654   */\n      swap3\n      swap2\n      pop\n      pop\n      jump\t// out\n        /* \"#utility.yul\":3660:3809   */\n    tag_49:\n        /* \"#utility.yul\":3696:3703   */\n      0x00\n        /* \"#utility.yul\":3736:3802   */\n      0xffffffff00000000000000000000000000000000000000000000000000000000\n        /* \"#utility.yul\":3729:3734   */\n      dup3\n        /* \"#utility.yul\":3725:3803   */\n      and\n        /* \"#utility.yul\":3714:3803   */\n      swap1\n      pop\n        /* \"#utility.yul\":3660:3809   */\n      swap2\n      swap1\n      pop\n      jump\t// out\n        /* \"#utility.yul\":3815:3930   */\n    tag_50:\n        /* \"#utility.yul\":3900:3923   */\n      tag_99\n        /* \"#utility.yul\":3917:3922   */\n      dup2\n        /* \"#utility.yul\":3900:3923   */\n      tag_49\n      jump\t// in\n    tag_99:\n        /* \"#utility.yul\":3895:3898   */\n      dup3\n        /* \"#utility.yul\":3888:3924   */\n      mstore\n        /* \"#utility.yul\":3815:3930   */\n      pop\n      pop\n      jump\t// out\n        /* \"#utility.yul\":3936:4154   */\n    tag_20:\n        /* \"#utility.yul\":4027:4031   */\n      0x00\n        /* \"#utility.yul\":4065:4067   */\n      0x20\n        /* \"#utility.yul\":4054:4063   */\n      dup3\n        /* \"#utility.yul\":4050:4068   */\n      add\n        /* \"#utility.yul\":4042:4068   */\n      swap1\n      pop\n        /* \"#utility.yul\":4078:4147   */\n      tag_101\n        /* \"#utility.yul\":4144:4145   */\n      0x00\n        /* \"#utility.yul\":4133:4142   */\n      dup4\n        /* \"#utility.yul\":4129:4146   */\n      add\n        /* \"#utility.yul\":4120:4126   */\n      dup5\n        /* \"#utility.yul\":4078:4147   */\n      tag_50\n      jump\t// in\n    tag_101:\n        /* \"#utility.yul\":3936:4154   */\n      swap3\n      swap2\n      pop\n      pop\n      jump\t// out\n        /* \"#utility.yul\":4160:4329   */\n    tag_51:\n        /* \"#utility.yul\":4244:4255   */\n      0x00\n        /* \"#utility.yul\":4278:4284   */\n      dup3\n        /* \"#utility.yul\":4273:4276   */\n      dup3\n        /* \"#utility.yul\":4266:4285   */\n      mstore\n        /* \"#utility.yul\":4318:4322   */\n      0x20\n        /* \"#utility.yul\":4313:4316   */\n      dup3\n        /* \"#utility.yul\":4309:4323   */\n      add\n        /* \"#utility.yul\":4294:4323   */\n      swap1\n      pop\n        /* \"#utility.yul\":4160:4329   */\n      swap3\n      swap2\n      pop\n      pop\n      jump\t// out\n        /* \"#utility.yul\":4335:4488   */\n    tag_52:\n        /* \"#utility.yul\":4475:4480   */\n      0x6162630000000000000000000000000000000000000000000000000000000000\n        /* \"#utility.yul\":4471:4472   */\n      0x00\n        /* \"#utility.yul\":4463:4469   */\n      dup3\n        /* \"#utility.yul\":4459:4473   */\n      add\n        /* \"#utility.yul\":4452:4481   */\n      mstore\n        /* \"#utility.yul\":4335:4488   */\n      pop\n      jump\t// out\n        /* \"#utility.yul\":4494:4859   */\n    tag_53:\n        /* \"#utility.yul\":4636:4639   */\n      0x00\n        /* \"#utility.yul\":4657:4723   */\n      tag_105\n        /* \"#utility.yul\":4721:4722   */\n      0x03\n        /* \"#utility.yul\":4716:4719   */\n      dup4\n        /* \"#utility.yul\":4657:4723   */\n      tag_51\n      jump\t// in\n    tag_105:\n        /* \"#utility.yul\":4650:4723   */\n      swap2\n      pop\n        /* \"#utility.yul\":4732:4825   */\n      tag_106\n        /* \"#utility.yul\":4821:4824   */\n      dup3\n        /* \"#utility.yul\":4732:4825   */\n      tag_52\n      jump\t// in\n    tag_106:\n        /* \"#utility.yul\":4850:4852   */\n      0x20\n        /* \"#utility.yul\":4845:4848   */\n      dup3\n        /* \"#utility.yul\":4841:4853   */\n      add\n        /* \"#utility.yul\":4834:4853   */\n      swap1\n      pop\n        /* \"#utility.yul\":4494:4859   */\n      swap2\n      swap1\n      pop\n      jump\t// out\n        /* \"#utility.yul\":4865:5284   */\n    tag_23:\n        /* \"#utility.yul\":5031:5035   */\n      0x00\n        /* \"#utility.yul\":5069:5071   */\n      0x20\n        /* \"#utility.yul\":5058:5067   */\n      dup3\n        /* \"#utility.yul\":5054:5072   */\n      add\n        /* \"#utility.yul\":5046:5072   */\n      swap1\n      pop\n        /* \"#utility.yul\":5118:5127   */\n      dup2\n        /* \"#utility.yul\":5112:5116   */\n      dup2\n        /* \"#utility.yul\":5108:5128   */\n      sub\n        /* \"#utility.yul\":5104:5105   */\n      0x00\n        /* \"#utility.yul\":5093:5102   */\n      dup4\n        /* \"#utility.yul\":5089:5106   */\n      add\n        /* \"#utility.yul\":5082:5129   */\n      mstore\n        /* \"#utility.yul\":5146:5277   */\n      tag_108\n        /* \"#utility.yul\":5272:5276   */\n      dup2\n        /* \"#utility.yul\":5146:5277   */\n      tag_53\n      jump\t// in\n    tag_108:\n        /* \"#utility.yul\":5138:5277   */\n      swap1\n      pop\n        /* \"#utility.yul\":4865:5284   */\n      swap2\n      swap1\n      pop\n      jump\t// out\n        /* \"#utility.yul\":5290:5437   */\n    tag_54:\n        /* \"#utility.yul\":5391:5402   */\n      0x00\n        /* \"#utility.yul\":5428:5431   */\n      dup2\n        /* \"#utility.yul\":5413:5431   */\n      swap1\n      pop\n        /* \"#utility.yul\":5290:5437   */\n      swap3\n      swap2\n      pop\n      pop\n      jump\t// out\n        /* \"#utility.yul\":5443:5829   */\n    tag_55:\n        /* \"#utility.yul\":5547:5550   */\n      0x00\n        /* \"#utility.yul\":5575:5613   */\n      tag_111\n        /* \"#utility.yul\":5607:5612   */\n      dup3\n        /* \"#utility.yul\":5575:5613   */\n      tag_37\n      jump\t// in\n    tag_111:\n        /* \"#utility.yul\":5629:5717   */\n      tag_112\n        /* \"#utility.yul\":5710:5716   */\n      dup2\n        /* \"#utility.yul\":5705:5708   */\n      dup6\n        /* \"#utility.yul\":5629:5717   */\n      tag_54\n      jump\t// in\n    tag_112:\n        /* \"#utility.yul\":5622:5717   */\n      swap4\n      pop\n        /* \"#utility.yul\":5726:5791   */\n      tag_113\n        /* \"#utility.yul\":5784:5790   */\n      dup2\n        /* \"#utility.yul\":5779:5782   */\n      dup6\n        /* \"#utility.yul\":5772:5776   */\n      0x20\n        /* \"#utility.yul\":5765:5770   */\n      dup7\n        /* \"#utility.yul\":5761:5777   */\n      add\n        /* \"#utility.yul\":5726:5791   */\n      tag_39\n      jump\t// in\n    tag_113:\n        /* \"#utility.yul\":5816:5822   */\n      dup1\n        /* \"#utility.yul\":5811:5814   */\n      dup5\n        /* \"#utility.yul\":5807:5823   */\n      add\n        /* \"#utility.yul\":5800:5823   */\n      swap2\n      pop\n        /* \"#utility.yul\":5551:5829   */\n      pop\n        /* \"#utility.yul\":5443:5829   */\n      swap3\n      swap2\n      pop\n      pop\n      jump\t// out\n        /* \"#utility.yul\":5835:6106   */\n    tag_25:\n        /* \"#utility.yul\":5965:5968   */\n      0x00\n        /* \"#utility.yul\":5987:6080   */\n      tag_115\n        /* \"#utility.yul\":6076:6079   */\n      dup3\n        /* \"#utility.yul\":6067:6073   */\n      dup5\n        /* \"#utility.yul\":5987:6080   */\n      tag_55\n      jump\t// in\n    tag_115:\n        /* \"#utility.yul\":5980:6080   */\n      swap2\n      pop\n        /* \"#utility.yul\":6097:6100   */\n      dup2\n        /* \"#utility.yul\":6090:6100   */\n      swap1\n      pop\n        /* \"#utility.yul\":5835:6106   */\n      swap3\n      swap2\n      pop\n      pop\n      jump\t// out\n        /* \"#utility.yul\":6112:6279   */\n    tag_56:\n        /* \"#utility.yul\":6252:6271   */\n      0x63616c6c446174614464656d6f206c6f67000000000000000000000000000000\n        /* \"#utility.yul\":6248:6249   */\n      0x00\n        /* \"#utility.yul\":6240:6246   */\n      dup3\n        /* \"#utility.yul\":6236:6250   */\n      add\n        /* \"#utility.yul\":6229:6272   */\n      mstore\n        /* \"#utility.yul\":6112:6279   */\n      pop\n      jump\t// out\n        /* \"#utility.yul\":6285:6651   */\n    tag_57:\n        /* \"#utility.yul\":6427:6430   */\n      0x00\n        /* \"#utility.yul\":6448:6515   */\n      tag_118\n        /* \"#utility.yul\":6512:6514   */\n      0x11\n        /* \"#utility.yul\":6507:6510   */\n      dup4\n        /* \"#utility.yul\":6448:6515   */\n      tag_51\n      jump\t// in\n    tag_118:\n        /* \"#utility.yul\":6441:6515   */\n      swap2\n      pop\n        /* \"#utility.yul\":6524:6617   */\n      tag_119\n        /* \"#utility.yul\":6613:6616   */\n      dup3\n        /* \"#utility.yul\":6524:6617   */\n      tag_56\n      jump\t// in\n    tag_119:\n        /* \"#utility.yul\":6642:6644   */\n      0x20\n        /* \"#utility.yul\":6637:6640   */\n      dup3\n        /* \"#utility.yul\":6633:6645   */\n      add\n        /* \"#utility.yul\":6626:6645   */\n      swap1\n      pop\n        /* \"#utility.yul\":6285:6651   */\n      swap2\n      swap1\n      pop\n      jump\t// out\n        /* \"#utility.yul\":6657:7076   */\n    tag_31:\n        /* \"#utility.yul\":6823:6827   */\n      0x00\n        /* \"#utility.yul\":6861:6863   */\n      0x20\n        /* \"#utility.yul\":6850:6859   */\n      dup3\n        /* \"#utility.yul\":6846:6864   */\n      add\n        /* \"#utility.yul\":6838:6864   */\n      swap1\n      pop\n        /* \"#utility.yul\":6910:6919   */\n      dup2\n        /* \"#utility.yul\":6904:6908   */\n      dup2\n        /* \"#utility.yul\":6900:6920   */\n      sub\n        /* \"#utility.yul\":6896:6897   */\n      0x00\n        /* \"#utility.yul\":6885:6894   */\n      dup4\n        /* \"#utility.yul\":6881:6898   */\n      add\n        /* \"#utility.yul\":6874:6921   */\n      mstore\n        /* \"#utility.yul\":6938:7069   */\n      tag_121\n        /* \"#utility.yul\":7064:7068   */\n      dup2\n        /* \"#utility.yul\":6938:7069   */\n      tag_57\n      jump\t// in\n    tag_121:\n        /* \"#utility.yul\":6930:7069   */\n      swap1\n      pop\n        /* \"#utility.yul\":6657:7076   */\n      swap2\n      swap1\n      pop\n      jump\t// out\n        /* \"#utility.yul\":7082:7240   */\n    tag_58:\n        /* \"#utility.yul\":7222:7232   */\n      0x6c6f6f6b206c6f67000000000000000000000000000000000000000000000000\n        /* \"#utility.yul\":7218:7219   */\n      0x00\n        /* \"#utility.yul\":7210:7216   */\n      dup3\n        /* \"#utility.yul\":7206:7220   */\n      add\n        /* \"#utility.yul\":7199:7233   */\n      mstore\n        /* \"#utility.yul\":7082:7240   */\n      pop\n      jump\t// out\n        /* \"#utility.yul\":7246:7611   */\n    tag_59:\n        /* \"#utility.yul\":7388:7391   */\n      0x00\n        /* \"#utility.yul\":7409:7475   */\n      tag_124\n        /* \"#utility.yul\":7473:7474   */\n      0x08\n        /* \"#utility.yul\":7468:7471   */\n      dup4\n        /* \"#utility.yul\":7409:7475   */\n      tag_51\n      jump\t// in\n    tag_124:\n        /* \"#utility.yul\":7402:7475   */\n      swap2\n      pop\n        /* \"#utility.yul\":7484:7577   */\n      tag_125\n        /* \"#utility.yul\":7573:7576   */\n      dup3\n        /* \"#utility.yul\":7484:7577   */\n      tag_58\n      jump\t// in\n    tag_125:\n        /* \"#utility.yul\":7602:7604   */\n      0x20\n        /* \"#utility.yul\":7597:7600   */\n      dup3\n        /* \"#utility.yul\":7593:7605   */\n      add\n        /* \"#utility.yul\":7586:7605   */\n      swap1\n      pop\n        /* \"#utility.yul\":7246:7611   */\n      swap2\n      swap1\n      pop\n      jump\t// out\n        /* \"#utility.yul\":7617:8036   */\n    tag_34:\n        /* \"#utility.yul\":7783:7787   */\n      0x00\n        /* \"#utility.yul\":7821:7823   */\n      0x20\n        /* \"#utility.yul\":7810:7819   */\n      dup3\n        /* \"#utility.yul\":7806:7824   */\n      add\n        /* \"#utility.yul\":7798:7824   */\n      swap1\n      pop\n        /* \"#utility.yul\":7870:7879   */\n      dup2\n        /* \"#utility.yul\":7864:7868   */\n      dup2\n        /* \"#utility.yul\":7860:7880   */\n      sub\n        /* \"#utility.yul\":7856:7857   */\n      0x00\n        /* \"#utility.yul\":7845:7854   */\n      dup4\n        /* \"#utility.yul\":7841:7858   */\n      add\n        /* \"#utility.yul\":7834:7881   */\n      mstore\n        /* \"#utility.yul\":7898:8029   */\n      tag_127\n        /* \"#utility.yul\":8024:8028   */\n      dup2\n        /* \"#utility.yul\":7898:8029   */\n      tag_59\n      jump\t// in\n    tag_127:\n        /* \"#utility.yul\":7890:8029   */\n      swap1\n      pop\n        /* \"#utility.yul\":7617:8036   */\n      swap2\n      swap1\n      pop\n      jump\t// out\n\n    auxdata: 0xa2646970667358221220efbe0442f9003d563375d74cccd62be659b2bc55f9b1e6e8ef37ba91b4525dfc64736f6c634300081a0033\n}\n",
				"bytecode": {
					"linkReferences": {},
					"object": "6080604052348015600e575f80fd5b506106188061001c5f395ff3fe608060405234801561000f575f80fd5b506004361061003f575f3560e01c80633ebce91e1461004357806346bc817314610062578063ca3f7d2214610092575b5f80fd5b61004b6100c2565b6040516100599291906102f5565b60405180910390f35b61007c6004803603810190610077919061038c565b610189565b60405161008991906103d7565b60405180910390f35b6100ac60048036038101906100a7919061038c565b61020c565b6040516100b99190610431565b60405180910390f35b5f60605f803073ffffffffffffffffffffffffffffffffffffffff166346bc81736040516024016100f2906104a4565b6040516020818303038152906040529060e01b6020820180517bffffffffffffffffffffffffffffffffffffffffffffffffffffffff838183161783525050505060405161014091906104fc565b5f604051808303815f865af19150503d805f8114610179576040519150601f19603f3d011682016040523d82523d5f602084013e61017e565b606091505b509150915050509091565b60607fd2f6c0020d30a86146de6300741f2bd90869bddf3818f8d3294ae782f62161766040516101b89061055c565b60405180910390a15f368080601f0160208091040260200160405190810160405280939291908181526020018383808284375f81840152601f19601f82011690508083019250505050505050905092915050565b5f7fd2f6c0020d30a86146de6300741f2bd90869bddf3818f8d3294ae782f621617660405161023a906105c4565b60405180910390a17f46bc8173ffbb28915a7aaf86bf99fb2619929a01b70ef0adac0096241f054678905092915050565b5f8115159050919050565b61027f8161026b565b82525050565b5f81519050919050565b5f82825260208201905092915050565b8281835e5f83830152505050565b5f601f19601f8301169050919050565b5f6102c782610285565b6102d1818561028f565b93506102e181856020860161029f565b6102ea816102ad565b840191505092915050565b5f6040820190506103085f830185610276565b818103602083015261031a81846102bd565b90509392505050565b5f80fd5b5f80fd5b5f80fd5b5f80fd5b5f80fd5b5f8083601f84011261034c5761034b61032b565b5b8235905067ffffffffffffffff8111156103695761036861032f565b5b60208301915083600182028301111561038557610384610333565b5b9250929050565b5f80602083850312156103a2576103a1610323565b5b5f83013567ffffffffffffffff8111156103bf576103be610327565b5b6103cb85828601610337565b92509250509250929050565b5f6020820190508181035f8301526103ef81846102bd565b905092915050565b5f7fffffffff0000000000000000000000000000000000000000000000000000000082169050919050565b61042b816103f7565b82525050565b5f6020820190506104445f830184610422565b92915050565b5f82825260208201905092915050565b7f61626300000000000000000000000000000000000000000000000000000000005f82015250565b5f61048e60038361044a565b91506104998261045a565b602082019050919050565b5f6020820190508181035f8301526104bb81610482565b9050919050565b5f81905092915050565b5f6104d682610285565b6104e081856104c2565b93506104f081856020860161029f565b80840191505092915050565b5f61050782846104cc565b915081905092915050565b7f63616c6c446174614464656d6f206c6f670000000000000000000000000000005f82015250565b5f61054660118361044a565b915061055182610512565b602082019050919050565b5f6020820190508181035f8301526105738161053a565b9050919050565b7f6c6f6f6b206c6f670000000000000000000000000000000000000000000000005f82015250565b5f6105ae60088361044a565b91506105b98261057a565b602082019050919050565b5f6020820190508181035f8301526105db816105a2565b905091905056fea2646970667358221220efbe0442f9003d563375d74cccd62be659b2bc55f9b1e6e8ef37ba91b4525dfc64736f6c634300081a0033",
					"opcodes": "PUSH1 0x80 PUSH1 0x40 MSTORE CALLVALUE DUP1 ISZERO PUSH1 0xE JUMPI PUSH0 DUP1 REVERT JUMPDEST POP PUSH2 0x618 DUP1 PUSH2 0x1C PUSH0 CODECOPY PUSH0 RETURN INVALID PUSH1 0x80 PUSH1 0x40 MSTORE CALLVALUE DUP1 ISZERO PUSH2 0xF JUMPI PUSH0 DUP1 REVERT JUMPDEST POP PUSH1 0x4 CALLDATASIZE LT PUSH2 0x3F JUMPI PUSH0 CALLDATALOAD PUSH1 0xE0 SHR DUP1 PUSH4 0x3EBCE91E EQ PUSH2 0x43 JUMPI DUP1 PUSH4 0x46BC8173 EQ PUSH2 0x62 JUMPI DUP1 PUSH4 0xCA3F7D22 EQ PUSH2 0x92 JUMPI JUMPDEST PUSH0 DUP1 REVERT JUMPDEST PUSH2 0x4B PUSH2 0xC2 JUMP JUMPDEST PUSH1 0x40 MLOAD PUSH2 0x59 SWAP3 SWAP2 SWAP1 PUSH2 0x2F5 JUMP JUMPDEST PUSH1 0x40 MLOAD DUP1 SWAP2 SUB SWAP1 RETURN JUMPDEST PUSH2 0x7C PUSH1 0x4 DUP1 CALLDATASIZE SUB DUP2 ADD SWAP1 PUSH2 0x77 SWAP2 SWAP1 PUSH2 0x38C JUMP JUMPDEST PUSH2 0x189 JUMP JUMPDEST PUSH1 0x40 MLOAD PUSH2 0x89 SWAP2 SWAP1 PUSH2 0x3D7 JUMP JUMPDEST PUSH1 0x40 MLOAD DUP1 SWAP2 SUB SWAP1 RETURN JUMPDEST PUSH2 0xAC PUSH1 0x4 DUP1 CALLDATASIZE SUB DUP2 ADD SWAP1 PUSH2 0xA7 SWAP2 SWAP1 PUSH2 0x38C JUMP JUMPDEST PUSH2 0x20C JUMP JUMPDEST PUSH1 0x40 MLOAD PUSH2 0xB9 SWAP2 SWAP1 PUSH2 0x431 JUMP JUMPDEST PUSH1 0x40 MLOAD DUP1 SWAP2 SUB SWAP1 RETURN JUMPDEST PUSH0 PUSH1 0x60 PUSH0 DUP1 ADDRESS PUSH20 0xFFFFFFFFFFFFFFFFFFFFFFFFFFFFFFFFFFFFFFFF AND PUSH4 0x46BC8173 PUSH1 0x40 MLOAD PUSH1 0x24 ADD PUSH2 0xF2 SWAP1 PUSH2 0x4A4 JUMP JUMPDEST PUSH1 0x40 MLOAD PUSH1 0x20 DUP2 DUP4 SUB SUB DUP2 MSTORE SWAP1 PUSH1 0x40 MSTORE SWAP1 PUSH1 0xE0 SHL PUSH1 0x20 DUP3 ADD DUP1 MLOAD PUSH28 0xFFFFFFFFFFFFFFFFFFFFFFFFFFFFFFFFFFFFFFFFFFFFFFFFFFFFFFFF DUP4 DUP2 DUP4 AND OR DUP4 MSTORE POP POP POP POP PUSH1 0x40 MLOAD PUSH2 0x140 SWAP2 SWAP1 PUSH2 0x4FC JUMP JUMPDEST PUSH0 PUSH1 0x40 MLOAD DUP1 DUP4 SUB DUP2 PUSH0 DUP7 GAS CALL SWAP2 POP POP RETURNDATASIZE DUP1 PUSH0 DUP2 EQ PUSH2 0x179 JUMPI PUSH1 0x40 MLOAD SWAP2 POP PUSH1 0x1F NOT PUSH1 0x3F RETURNDATASIZE ADD AND DUP3 ADD PUSH1 0x40 MSTORE RETURNDATASIZE DUP3 MSTORE RETURNDATASIZE PUSH0 PUSH1 0x20 DUP5 ADD RETURNDATACOPY PUSH2 0x17E JUMP JUMPDEST PUSH1 0x60 SWAP2 POP JUMPDEST POP SWAP2 POP SWAP2 POP POP POP SWAP1 SWAP2 JUMP JUMPDEST PUSH1 0x60 PUSH32 0xD2F6C0020D30A86146DE6300741F2BD90869BDDF3818F8D3294AE782F6216176 PUSH1 0x40 MLOAD PUSH2 0x1B8 SWAP1 PUSH2 0x55C JUMP JUMPDEST PUSH1 0x40 MLOAD DUP1 SWAP2 SUB SWAP1 LOG1 PUSH0 CALLDATASIZE DUP1 DUP1 PUSH1 0x1F ADD PUSH1 0x20 DUP1 SWAP2 DIV MUL PUSH1 0x20 ADD PUSH1 0x40 MLOAD SWAP1 DUP2 ADD PUSH1 0x40 MSTORE DUP1 SWAP4 SWAP3 SWAP2 SWAP1 DUP2 DUP2 MSTORE PUSH1 0x20 ADD DUP4 DUP4 DUP1 DUP3 DUP5 CALLDATACOPY PUSH0 DUP2 DUP5 ADD MSTORE PUSH1 0x1F NOT PUSH1 0x1F DUP3 ADD AND SWAP1 POP DUP1 DUP4 ADD SWAP3 POP POP POP POP POP POP POP SWAP1 POP SWAP3 SWAP2 POP POP JUMP JUMPDEST PUSH0 PUSH32 0xD2F6C0020D30A86146DE6300741F2BD90869BDDF3818F8D3294AE782F6216176 PUSH1 0x40 MLOAD PUSH2 0x23A SWAP1 PUSH2 0x5C4 JUMP JUMPDEST PUSH1 0x40 MLOAD DUP1 SWAP2 SUB SWAP1 LOG1 PUSH32 0x46BC8173FFBB28915A7AAF86BF99FB2619929A01B70EF0ADAC0096241F054678 SWAP1 POP SWAP3 SWAP2 POP POP JUMP JUMPDEST PUSH0 DUP2 ISZERO ISZERO SWAP1 POP SWAP2 SWAP1 POP JUMP JUMPDEST PUSH2 0x27F DUP2 PUSH2 0x26B JUMP JUMPDEST DUP3 MSTORE POP POP JUMP JUMPDEST PUSH0 DUP2 MLOAD SWAP1 POP SWAP2 SWAP1 POP JUMP JUMPDEST PUSH0 DUP3 DUP3 MSTORE PUSH1 0x20 DUP3 ADD SWAP1 POP SWAP3 SWAP2 POP POP JUMP JUMPDEST DUP3 DUP2 DUP4 MCOPY PUSH0 DUP4 DUP4 ADD MSTORE POP POP POP JUMP JUMPDEST PUSH0 PUSH1 0x1F NOT PUSH1 0x1F DUP4 ADD AND SWAP1 POP SWAP2 SWAP1 POP JUMP JUMPDEST PUSH0 PUSH2 0x2C7 DUP3 PUSH2 0x285 JUMP JUMPDEST PUSH2 0x2D1 DUP2 DUP6 PUSH2 0x28F JUMP JUMPDEST SWAP4 POP PUSH2 0x2E1 DUP2 DUP6 PUSH1 0x20 DUP7 ADD PUSH2 0x29F JUMP JUMPDEST PUSH2 0x2EA DUP2 PUSH2 0x2AD JUMP JUMPDEST DUP5 ADD SWAP2 POP POP SWAP3 SWAP2 POP POP JUMP JUMPDEST PUSH0 PUSH1 0x40 DUP3 ADD SWAP1 POP PUSH2 0x308 PUSH0 DUP4 ADD DUP6 PUSH2 0x276 JUMP JUMPDEST DUP2 DUP2 SUB PUSH1 0x20 DUP4 ADD MSTORE PUSH2 0x31A DUP2 DUP5 PUSH2 0x2BD JUMP JUMPDEST SWAP1 POP SWAP4 SWAP3 POP POP POP JUMP JUMPDEST PUSH0 DUP1 REVERT JUMPDEST PUSH0 DUP1 REVERT JUMPDEST PUSH0 DUP1 REVERT JUMPDEST PUSH0 DUP1 REVERT JUMPDEST PUSH0 DUP1 REVERT JUMPDEST PUSH0 DUP1 DUP4 PUSH1 0x1F DUP5 ADD SLT PUSH2 0x34C JUMPI PUSH2 0x34B PUSH2 0x32B JUMP JUMPDEST JUMPDEST DUP3 CALLDATALOAD SWAP1 POP PUSH8 0xFFFFFFFFFFFFFFFF DUP2 GT ISZERO PUSH2 0x369 JUMPI PUSH2 0x368 PUSH2 0x32F JUMP JUMPDEST JUMPDEST PUSH1 0x20 DUP4 ADD SWAP2 POP DUP4 PUSH1 0x1 DUP3 MUL DUP4 ADD GT ISZERO PUSH2 0x385 JUMPI PUSH2 0x384 PUSH2 0x333 JUMP JUMPDEST JUMPDEST SWAP3 POP SWAP3 SWAP1 POP JUMP JUMPDEST PUSH0 DUP1 PUSH1 0x20 DUP4 DUP6 SUB SLT ISZERO PUSH2 0x3A2 JUMPI PUSH2 0x3A1 PUSH2 0x323 JUMP JUMPDEST JUMPDEST PUSH0 DUP4 ADD CALLDATALOAD PUSH8 0xFFFFFFFFFFFFFFFF DUP2 GT ISZERO PUSH2 0x3BF JUMPI PUSH2 0x3BE PUSH2 0x327 JUMP JUMPDEST JUMPDEST PUSH2 0x3CB DUP6 DUP3 DUP7 ADD PUSH2 0x337 JUMP JUMPDEST SWAP3 POP SWAP3 POP POP SWAP3 POP SWAP3 SWAP1 POP JUMP JUMPDEST PUSH0 PUSH1 0x20 DUP3 ADD SWAP1 POP DUP2 DUP2 SUB PUSH0 DUP4 ADD MSTORE PUSH2 0x3EF DUP2 DUP5 PUSH2 0x2BD JUMP JUMPDEST SWAP1 POP SWAP3 SWAP2 POP POP JUMP JUMPDEST PUSH0 PUSH32 0xFFFFFFFF00000000000000000000000000000000000000000000000000000000 DUP3 AND SWAP1 POP SWAP2 SWAP1 POP JUMP JUMPDEST PUSH2 0x42B DUP2 PUSH2 0x3F7 JUMP JUMPDEST DUP3 MSTORE POP POP JUMP JUMPDEST PUSH0 PUSH1 0x20 DUP3 ADD SWAP1 POP PUSH2 0x444 PUSH0 DUP4 ADD DUP5 PUSH2 0x422 JUMP JUMPDEST SWAP3 SWAP2 POP POP JUMP JUMPDEST PUSH0 DUP3 DUP3 MSTORE PUSH1 0x20 DUP3 ADD SWAP1 POP SWAP3 SWAP2 POP POP JUMP JUMPDEST PUSH32 0x6162630000000000000000000000000000000000000000000000000000000000 PUSH0 DUP3 ADD MSTORE POP JUMP JUMPDEST PUSH0 PUSH2 0x48E PUSH1 0x3 DUP4 PUSH2 0x44A JUMP JUMPDEST SWAP2 POP PUSH2 0x499 DUP3 PUSH2 0x45A JUMP JUMPDEST PUSH1 0x20 DUP3 ADD SWAP1 POP SWAP2 SWAP1 POP JUMP JUMPDEST PUSH0 PUSH1 0x20 DUP3 ADD SWAP1 POP DUP2 DUP2 SUB PUSH0 DUP4 ADD MSTORE PUSH2 0x4BB DUP2 PUSH2 0x482 JUMP JUMPDEST SWAP1 POP SWAP2 SWAP1 POP JUMP JUMPDEST PUSH0 DUP2 SWAP1 POP SWAP3 SWAP2 POP POP JUMP JUMPDEST PUSH0 PUSH2 0x4D6 DUP3 PUSH2 0x285 JUMP JUMPDEST PUSH2 0x4E0 DUP2 DUP6 PUSH2 0x4C2 JUMP JUMPDEST SWAP4 POP PUSH2 0x4F0 DUP2 DUP6 PUSH1 0x20 DUP7 ADD PUSH2 0x29F JUMP JUMPDEST DUP1 DUP5 ADD SWAP2 POP POP SWAP3 SWAP2 POP POP JUMP JUMPDEST PUSH0 PUSH2 0x507 DUP3 DUP5 PUSH2 0x4CC JUMP JUMPDEST SWAP2 POP DUP2 SWAP1 POP SWAP3 SWAP2 POP POP JUMP JUMPDEST PUSH32 0x63616C6C446174614464656D6F206C6F67000000000000000000000000000000 PUSH0 DUP3 ADD MSTORE POP JUMP JUMPDEST PUSH0 PUSH2 0x546 PUSH1 0x11 DUP4 PUSH2 0x44A JUMP JUMPDEST SWAP2 POP PUSH2 0x551 DUP3 PUSH2 0x512 JUMP JUMPDEST PUSH1 0x20 DUP3 ADD SWAP1 POP SWAP2 SWAP1 POP JUMP JUMPDEST PUSH0 PUSH1 0x20 DUP3 ADD SWAP1 POP DUP2 DUP2 SUB PUSH0 DUP4 ADD MSTORE PUSH2 0x573 DUP2 PUSH2 0x53A JUMP JUMPDEST SWAP1 POP SWAP2 SWAP1 POP JUMP JUMPDEST PUSH32 0x6C6F6F6B206C6F67000000000000000000000000000000000000000000000000 PUSH0 DUP3 ADD MSTORE POP JUMP JUMPDEST PUSH0 PUSH2 0x5AE PUSH1 0x8 DUP4 PUSH2 0x44A JUMP JUMPDEST SWAP2 POP PUSH2 0x5B9 DUP3 PUSH2 0x57A JUMP JUMPDEST PUSH1 0x20 DUP3 ADD SWAP1 POP SWAP2 SWAP1 POP JUMP JUMPDEST PUSH0 PUSH1 0x20 DUP3 ADD SWAP1 POP DUP2 DUP2 SUB PUSH0 DUP4 ADD MSTORE PUSH2 0x5DB DUP2 PUSH2 0x5A2 JUMP JUMPDEST SWAP1 POP SWAP2 SWAP1 POP JUMP INVALID LOG2 PUSH5 0x6970667358 0x22 SLT KECCAK256 0xEF 0xBE DIV TIMESTAMP 0xF9 STOP RETURNDATASIZE JUMP CALLER PUSH22 0xD74CCCD62BE659B2BC55F9B1E6E8EF37BA91B4525DFC PUSH5 0x736F6C6343 STOP ADDMOD BYTE STOP CALLER "
				},
				"gasEstimates": {
					"creation": {
						"codeDepositCost": "312000",
						"executionCost": "347",
						"totalCost": "312347"
					},
					"external": {
						"callByAbi()": "infinite",
						"callDataDdemo(string)": "infinite",
						"look(string)": "2481"
					}
				},
				"methodIdentifiers": {
					"callByAbi()": "3ebce91e",
					"callDataDdemo(string)": "46bc8173",
					"look(string)": "ca3f7d22"
				}
			},
			"storageLayout": {
				"storage": [],
				"types": null
			},
			"userdoc": {
				"kind": "user",
				"methods": {},
				"version": 1
			}
		}
	}
}