{
	"contract/wtf/继承的调用.sol": {
		"Yeye": {
			"abi": [
				{
					"anonymous": false,
					"inputs": [
						{
							"indexed": false,
							"internalType": "string",
							"name": "",
							"type": "string"
						}
					],
					"name": "Log",
					"type": "event"
				},
				{
					"inputs": [],
					"name": "hip",
					"outputs": [],
					"stateMutability": "nonpayable",
					"type": "function"
				},
				{
					"inputs": [],
					"name": "pop",
					"outputs": [],
					"stateMutability": "nonpayable",
					"type": "function"
				},
				{
					"inputs": [],
					"name": "yeye",
					"outputs": [],
					"stateMutability": "nonpayable",
					"type": "function"
				}
			],
			"devdoc": {
				"kind": "dev",
				"methods": {},
				"version": 1
			},
			"evm": {
				"assembly": "    /* \"contract/wtf/\\xe7\\xbb\\xa7\\xe6\\x89\\xbf\\xe7\\x9a\\x84\\xe8\\xb0\\x83\\xe7\\x94\\xa8.sol\":62:423  contract Yeye {... */\n  mstore(0x40, 0x80)\n  callvalue\n  dup1\n  iszero\n  tag_1\n  jumpi\n  0x00\n  dup1\n  revert\ntag_1:\n  pop\n  dataSize(sub_0)\n  dup1\n  dataOffset(sub_0)\n  0x00\n  codecopy\n  0x00\n  return\nstop\n\nsub_0: assembly {\n        /* \"contract/wtf/\\xe7\\xbb\\xa7\\xe6\\x89\\xbf\\xe7\\x9a\\x84\\xe8\\xb0\\x83\\xe7\\x94\\xa8.sol\":62:423  contract Yeye {... */\n      mstore(0x40, 0x80)\n      callvalue\n      dup1\n      iszero\n      tag_1\n      jumpi\n      0x00\n      dup1\n      revert\n    tag_1:\n      pop\n      jumpi(tag_2, lt(calldatasize, 0x04))\n      shr(0xe0, calldataload(0x00))\n      dup1\n      0x0ca21e9c\n      eq\n      tag_3\n      jumpi\n      dup1\n      0x370ea142\n      eq\n      tag_4\n      jumpi\n      dup1\n      0xa4ece52c\n      eq\n      tag_5\n      jumpi\n    tag_2:\n      0x00\n      dup1\n      revert\n        /* \"contract/wtf/\\xe7\\xbb\\xa7\\xe6\\x89\\xbf\\xe7\\x9a\\x84\\xe8\\xb0\\x83\\xe7\\x94\\xa8.sol\":266:333  function yeye() public myModifier {... */\n    tag_3:\n      tag_6\n      tag_7\n      jump\t// in\n    tag_6:\n      stop\n        /* \"contract/wtf/\\xe7\\xbb\\xa7\\xe6\\x89\\xbf\\xe7\\x9a\\x84\\xe8\\xb0\\x83\\xe7\\x94\\xa8.sol\":106:180  function hip() public virtual myModifier {... */\n    tag_4:\n      tag_8\n      tag_9\n      jump\t// in\n    tag_8:\n      stop\n        /* \"contract/wtf/\\xe7\\xbb\\xa7\\xe6\\x89\\xbf\\xe7\\x9a\\x84\\xe8\\xb0\\x83\\xe7\\x94\\xa8.sol\":186:260  function pop() public virtual myModifier {... */\n    tag_5:\n      tag_10\n      tag_11\n      jump\t// in\n    tag_10:\n      stop\n        /* \"contract/wtf/\\xe7\\xbb\\xa7\\xe6\\x89\\xbf\\xe7\\x9a\\x84\\xe8\\xb0\\x83\\xe7\\x94\\xa8.sol\":266:333  function yeye() public myModifier {... */\n    tag_7:\n        /* \"contract/wtf/\\xe7\\xbb\\xa7\\xe6\\x89\\xbf\\xe7\\x9a\\x84\\xe8\\xb0\\x83\\xe7\\x94\\xa8.sol\":384:403  Log(\"modifierYeye\") */\n      0xcf34ef537ac33ee1ac626ca1587a0a7e8e51561e5514f8cb36afa1c5102b3bab\n      mload(0x40)\n      tag_13\n      swap1\n      tag_14\n      jump\t// in\n    tag_13:\n      mload(0x40)\n      dup1\n      swap2\n      sub\n      swap1\n      log1\n        /* \"contract/wtf/\\xe7\\xbb\\xa7\\xe6\\x89\\xbf\\xe7\\x9a\\x84\\xe8\\xb0\\x83\\xe7\\x94\\xa8.sol\":315:326  Log(\"yeye\") */\n      0xcf34ef537ac33ee1ac626ca1587a0a7e8e51561e5514f8cb36afa1c5102b3bab\n      mload(0x40)\n      tag_16\n      swap1\n      tag_17\n      jump\t// in\n    tag_16:\n      mload(0x40)\n      dup1\n      swap2\n      sub\n      swap1\n      log1\n        /* \"contract/wtf/\\xe7\\xbb\\xa7\\xe6\\x89\\xbf\\xe7\\x9a\\x84\\xe8\\xb0\\x83\\xe7\\x94\\xa8.sol\":266:333  function yeye() public myModifier {... */\n      jump\t// out\n        /* \"contract/wtf/\\xe7\\xbb\\xa7\\xe6\\x89\\xbf\\xe7\\x9a\\x84\\xe8\\xb0\\x83\\xe7\\x94\\xa8.sol\":106:180  function hip() public virtual myModifier {... */\n    tag_9:\n        /* \"contract/wtf/\\xe7\\xbb\\xa7\\xe6\\x89\\xbf\\xe7\\x9a\\x84\\xe8\\xb0\\x83\\xe7\\x94\\xa8.sol\":384:403  Log(\"modifierYeye\") */\n      0xcf34ef537ac33ee1ac626ca1587a0a7e8e51561e5514f8cb36afa1c5102b3bab\n      mload(0x40)\n      tag_19\n      swap1\n      tag_14\n      jump\t// in\n    tag_19:\n      mload(0x40)\n      dup1\n      swap2\n      sub\n      swap1\n      log1\n        /* \"contract/wtf/\\xe7\\xbb\\xa7\\xe6\\x89\\xbf\\xe7\\x9a\\x84\\xe8\\xb0\\x83\\xe7\\x94\\xa8.sol\":162:173  Log(\"yeye\") */\n      0xcf34ef537ac33ee1ac626ca1587a0a7e8e51561e5514f8cb36afa1c5102b3bab\n      mload(0x40)\n      tag_21\n      swap1\n      tag_17\n      jump\t// in\n    tag_21:\n      mload(0x40)\n      dup1\n      swap2\n      sub\n      swap1\n      log1\n        /* \"contract/wtf/\\xe7\\xbb\\xa7\\xe6\\x89\\xbf\\xe7\\x9a\\x84\\xe8\\xb0\\x83\\xe7\\x94\\xa8.sol\":106:180  function hip() public virtual myModifier {... */\n      jump\t// out\n        /* \"contract/wtf/\\xe7\\xbb\\xa7\\xe6\\x89\\xbf\\xe7\\x9a\\x84\\xe8\\xb0\\x83\\xe7\\x94\\xa8.sol\":186:260  function pop() public virtual myModifier {... */\n    tag_11:\n        /* \"contract/wtf/\\xe7\\xbb\\xa7\\xe6\\x89\\xbf\\xe7\\x9a\\x84\\xe8\\xb0\\x83\\xe7\\x94\\xa8.sol\":384:403  Log(\"modifierYeye\") */\n      0xcf34ef537ac33ee1ac626ca1587a0a7e8e51561e5514f8cb36afa1c5102b3bab\n      mload(0x40)\n      tag_23\n      swap1\n      tag_14\n      jump\t// in\n    tag_23:\n      mload(0x40)\n      dup1\n      swap2\n      sub\n      swap1\n      log1\n        /* \"contract/wtf/\\xe7\\xbb\\xa7\\xe6\\x89\\xbf\\xe7\\x9a\\x84\\xe8\\xb0\\x83\\xe7\\x94\\xa8.sol\":242:253  Log(\"yeye\") */\n      0xcf34ef537ac33ee1ac626ca1587a0a7e8e51561e5514f8cb36afa1c5102b3bab\n      mload(0x40)\n      tag_25\n      swap1\n      tag_17\n      jump\t// in\n    tag_25:\n      mload(0x40)\n      dup1\n      swap2\n      sub\n      swap1\n      log1\n        /* \"contract/wtf/\\xe7\\xbb\\xa7\\xe6\\x89\\xbf\\xe7\\x9a\\x84\\xe8\\xb0\\x83\\xe7\\x94\\xa8.sol\":186:260  function pop() public virtual myModifier {... */\n      jump\t// out\n        /* \"#utility.yul\":7:373   */\n    tag_27:\n        /* \"#utility.yul\":149:152   */\n      0x00\n        /* \"#utility.yul\":170:237   */\n      tag_29\n        /* \"#utility.yul\":234:236   */\n      0x0c\n        /* \"#utility.yul\":229:232   */\n      dup4\n        /* \"#utility.yul\":170:237   */\n      tag_30\n      jump\t// in\n    tag_29:\n        /* \"#utility.yul\":163:237   */\n      swap2\n      pop\n        /* \"#utility.yul\":246:339   */\n      tag_31\n        /* \"#utility.yul\":335:338   */\n      dup3\n        /* \"#utility.yul\":246:339   */\n      tag_32\n      jump\t// in\n    tag_31:\n        /* \"#utility.yul\":364:366   */\n      0x20\n        /* \"#utility.yul\":359:362   */\n      dup3\n        /* \"#utility.yul\":355:367   */\n      add\n        /* \"#utility.yul\":348:367   */\n      swap1\n      pop\n        /* \"#utility.yul\":7:373   */\n      swap2\n      swap1\n      pop\n      jump\t// out\n        /* \"#utility.yul\":379:744   */\n    tag_33:\n        /* \"#utility.yul\":521:524   */\n      0x00\n        /* \"#utility.yul\":542:608   */\n      tag_35\n        /* \"#utility.yul\":606:607   */\n      0x04\n        /* \"#utility.yul\":601:604   */\n      dup4\n        /* \"#utility.yul\":542:608   */\n      tag_30\n      jump\t// in\n    tag_35:\n        /* \"#utility.yul\":535:608   */\n      swap2\n      pop\n        /* \"#utility.yul\":617:710   */\n      tag_36\n        /* \"#utility.yul\":706:709   */\n      dup3\n        /* \"#utility.yul\":617:710   */\n      tag_37\n      jump\t// in\n    tag_36:\n        /* \"#utility.yul\":735:737   */\n      0x20\n        /* \"#utility.yul\":730:733   */\n      dup3\n        /* \"#utility.yul\":726:738   */\n      add\n        /* \"#utility.yul\":719:738   */\n      swap1\n      pop\n        /* \"#utility.yul\":379:744   */\n      swap2\n      swap1\n      pop\n      jump\t// out\n        /* \"#utility.yul\":750:1169   */\n    tag_14:\n        /* \"#utility.yul\":916:920   */\n      0x00\n        /* \"#utility.yul\":954:956   */\n      0x20\n        /* \"#utility.yul\":943:952   */\n      dup3\n        /* \"#utility.yul\":939:957   */\n      add\n        /* \"#utility.yul\":931:957   */\n      swap1\n      pop\n        /* \"#utility.yul\":1003:1012   */\n      dup2\n        /* \"#utility.yul\":997:1001   */\n      dup2\n        /* \"#utility.yul\":993:1013   */\n      sub\n        /* \"#utility.yul\":989:990   */\n      0x00\n        /* \"#utility.yul\":978:987   */\n      dup4\n        /* \"#utility.yul\":974:991   */\n      add\n        /* \"#utility.yul\":967:1014   */\n      mstore\n        /* \"#utility.yul\":1031:1162   */\n      tag_39\n        /* \"#utility.yul\":1157:1161   */\n      dup2\n        /* \"#utility.yul\":1031:1162   */\n      tag_27\n      jump\t// in\n    tag_39:\n        /* \"#utility.yul\":1023:1162   */\n      swap1\n      pop\n        /* \"#utility.yul\":750:1169   */\n      swap2\n      swap1\n      pop\n      jump\t// out\n        /* \"#utility.yul\":1175:1594   */\n    tag_17:\n        /* \"#utility.yul\":1341:1345   */\n      0x00\n        /* \"#utility.yul\":1379:1381   */\n      0x20\n        /* \"#utility.yul\":1368:1377   */\n      dup3\n        /* \"#utility.yul\":1364:1382   */\n      add\n        /* \"#utility.yul\":1356:1382   */\n      swap1\n      pop\n        /* \"#utility.yul\":1428:1437   */\n      dup2\n        /* \"#utility.yul\":1422:1426   */\n      dup2\n        /* \"#utility.yul\":1418:1438   */\n      sub\n        /* \"#utility.yul\":1414:1415   */\n      0x00\n        /* \"#utility.yul\":1403:1412   */\n      dup4\n        /* \"#utility.yul\":1399:1416   */\n      add\n        /* \"#utility.yul\":1392:1439   */\n      mstore\n        /* \"#utility.yul\":1456:1587   */\n      tag_41\n        /* \"#utility.yul\":1582:1586   */\n      dup2\n        /* \"#utility.yul\":1456:1587   */\n      tag_33\n      jump\t// in\n    tag_41:\n        /* \"#utility.yul\":1448:1587   */\n      swap1\n      pop\n        /* \"#utility.yul\":1175:1594   */\n      swap2\n      swap1\n      pop\n      jump\t// out\n        /* \"#utility.yul\":1600:1769   */\n    tag_30:\n        /* \"#utility.yul\":1684:1695   */\n      0x00\n        /* \"#utility.yul\":1718:1724   */\n      dup3\n        /* \"#utility.yul\":1713:1716   */\n      dup3\n        /* \"#utility.yul\":1706:1725   */\n      mstore\n        /* \"#utility.yul\":1758:1762   */\n      0x20\n        /* \"#utility.yul\":1753:1756   */\n      dup3\n        /* \"#utility.yul\":1749:1763   */\n      add\n        /* \"#utility.yul\":1734:1763   */\n      swap1\n      pop\n        /* \"#utility.yul\":1600:1769   */\n      swap3\n      swap2\n      pop\n      pop\n      jump\t// out\n        /* \"#utility.yul\":1775:1937   */\n    tag_32:\n        /* \"#utility.yul\":1915:1929   */\n      0x6d6f646966696572596579650000000000000000000000000000000000000000\n        /* \"#utility.yul\":1911:1912   */\n      0x00\n        /* \"#utility.yul\":1903:1909   */\n      dup3\n        /* \"#utility.yul\":1899:1913   */\n      add\n        /* \"#utility.yul\":1892:1930   */\n      mstore\n        /* \"#utility.yul\":1775:1937   */\n      pop\n      jump\t// out\n        /* \"#utility.yul\":1943:2097   */\n    tag_37:\n        /* \"#utility.yul\":2083:2089   */\n      0x7965796500000000000000000000000000000000000000000000000000000000\n        /* \"#utility.yul\":2079:2080   */\n      0x00\n        /* \"#utility.yul\":2071:2077   */\n      dup3\n        /* \"#utility.yul\":2067:2081   */\n      add\n        /* \"#utility.yul\":2060:2090   */\n      mstore\n        /* \"#utility.yul\":1943:2097   */\n      pop\n      jump\t// out\n\n    auxdata: 0xa26469706673582212200f3fb9592fde97662a4ddc6f5197ac4e2ebc405c17acf10b03bd2b3d7534a88e64736f6c63430008070033\n}\n",
				"bytecode": {
					"linkReferences": {},
					"object": "608060405234801561001057600080fd5b506102c7806100206000396000f3fe608060405234801561001057600080fd5b50600436106100415760003560e01c80630ca21e9c14610046578063370ea14214610050578063a4ece52c1461005a575b600080fd5b61004e610064565b005b6100586100d0565b005b61006261013c565b005b7fcf34ef537ac33ee1ac626ca1587a0a7e8e51561e5514f8cb36afa1c5102b3bab604051610091906101ee565b60405180910390a17fcf34ef537ac33ee1ac626ca1587a0a7e8e51561e5514f8cb36afa1c5102b3bab6040516100c69061020e565b60405180910390a1565b7fcf34ef537ac33ee1ac626ca1587a0a7e8e51561e5514f8cb36afa1c5102b3bab6040516100fd906101ee565b60405180910390a17fcf34ef537ac33ee1ac626ca1587a0a7e8e51561e5514f8cb36afa1c5102b3bab6040516101329061020e565b60405180910390a1565b7fcf34ef537ac33ee1ac626ca1587a0a7e8e51561e5514f8cb36afa1c5102b3bab604051610169906101ee565b60405180910390a17fcf34ef537ac33ee1ac626ca1587a0a7e8e51561e5514f8cb36afa1c5102b3bab60405161019e9061020e565b60405180910390a1565b60006101b5600c8361022e565b91506101c08261023f565b602082019050919050565b60006101d860048361022e565b91506101e382610268565b602082019050919050565b60006020820190508181036000830152610207816101a8565b9050919050565b60006020820190508181036000830152610227816101cb565b9050919050565b600082825260208201905092915050565b7f6d6f646966696572596579650000000000000000000000000000000000000000600082015250565b7f796579650000000000000000000000000000000000000000000000000000000060008201525056fea26469706673582212200f3fb9592fde97662a4ddc6f5197ac4e2ebc405c17acf10b03bd2b3d7534a88e64736f6c63430008070033",
					"opcodes": "PUSH1 0x80 PUSH1 0x40 MSTORE CALLVALUE DUP1 ISZERO PUSH2 0x10 JUMPI PUSH1 0x0 DUP1 REVERT JUMPDEST POP PUSH2 0x2C7 DUP1 PUSH2 0x20 PUSH1 0x0 CODECOPY PUSH1 0x0 RETURN INVALID PUSH1 0x80 PUSH1 0x40 MSTORE CALLVALUE DUP1 ISZERO PUSH2 0x10 JUMPI PUSH1 0x0 DUP1 REVERT JUMPDEST POP PUSH1 0x4 CALLDATASIZE LT PUSH2 0x41 JUMPI PUSH1 0x0 CALLDATALOAD PUSH1 0xE0 SHR DUP1 PUSH4 0xCA21E9C EQ PUSH2 0x46 JUMPI DUP1 PUSH4 0x370EA142 EQ PUSH2 0x50 JUMPI DUP1 PUSH4 0xA4ECE52C EQ PUSH2 0x5A JUMPI JUMPDEST PUSH1 0x0 DUP1 REVERT JUMPDEST PUSH2 0x4E PUSH2 0x64 JUMP JUMPDEST STOP JUMPDEST PUSH2 0x58 PUSH2 0xD0 JUMP JUMPDEST STOP JUMPDEST PUSH2 0x62 PUSH2 0x13C JUMP JUMPDEST STOP JUMPDEST PUSH32 0xCF34EF537AC33EE1AC626CA1587A0A7E8E51561E5514F8CB36AFA1C5102B3BAB PUSH1 0x40 MLOAD PUSH2 0x91 SWAP1 PUSH2 0x1EE JUMP JUMPDEST PUSH1 0x40 MLOAD DUP1 SWAP2 SUB SWAP1 LOG1 PUSH32 0xCF34EF537AC33EE1AC626CA1587A0A7E8E51561E5514F8CB36AFA1C5102B3BAB PUSH1 0x40 MLOAD PUSH2 0xC6 SWAP1 PUSH2 0x20E JUMP JUMPDEST PUSH1 0x40 MLOAD DUP1 SWAP2 SUB SWAP1 LOG1 JUMP JUMPDEST PUSH32 0xCF34EF537AC33EE1AC626CA1587A0A7E8E51561E5514F8CB36AFA1C5102B3BAB PUSH1 0x40 MLOAD PUSH2 0xFD SWAP1 PUSH2 0x1EE JUMP JUMPDEST PUSH1 0x40 MLOAD DUP1 SWAP2 SUB SWAP1 LOG1 PUSH32 0xCF34EF537AC33EE1AC626CA1587A0A7E8E51561E5514F8CB36AFA1C5102B3BAB PUSH1 0x40 MLOAD PUSH2 0x132 SWAP1 PUSH2 0x20E JUMP JUMPDEST PUSH1 0x40 MLOAD DUP1 SWAP2 SUB SWAP1 LOG1 JUMP JUMPDEST PUSH32 0xCF34EF537AC33EE1AC626CA1587A0A7E8E51561E5514F8CB36AFA1C5102B3BAB PUSH1 0x40 MLOAD PUSH2 0x169 SWAP1 PUSH2 0x1EE JUMP JUMPDEST PUSH1 0x40 MLOAD DUP1 SWAP2 SUB SWAP1 LOG1 PUSH32 0xCF34EF537AC33EE1AC626CA1587A0A7E8E51561E5514F8CB36AFA1C5102B3BAB PUSH1 0x40 MLOAD PUSH2 0x19E SWAP1 PUSH2 0x20E JUMP JUMPDEST PUSH1 0x40 MLOAD DUP1 SWAP2 SUB SWAP1 LOG1 JUMP JUMPDEST PUSH1 0x0 PUSH2 0x1B5 PUSH1 0xC DUP4 PUSH2 0x22E JUMP JUMPDEST SWAP2 POP PUSH2 0x1C0 DUP3 PUSH2 0x23F JUMP JUMPDEST PUSH1 0x20 DUP3 ADD SWAP1 POP SWAP2 SWAP1 POP JUMP JUMPDEST PUSH1 0x0 PUSH2 0x1D8 PUSH1 0x4 DUP4 PUSH2 0x22E JUMP JUMPDEST SWAP2 POP PUSH2 0x1E3 DUP3 PUSH2 0x268 JUMP JUMPDEST PUSH1 0x20 DUP3 ADD SWAP1 POP SWAP2 SWAP1 POP JUMP JUMPDEST PUSH1 0x0 PUSH1 0x20 DUP3 ADD SWAP1 POP DUP2 DUP2 SUB PUSH1 0x0 DUP4 ADD MSTORE PUSH2 0x207 DUP2 PUSH2 0x1A8 JUMP JUMPDEST SWAP1 POP SWAP2 SWAP1 POP JUMP JUMPDEST PUSH1 0x0 PUSH1 0x20 DUP3 ADD SWAP1 POP DUP2 DUP2 SUB PUSH1 0x0 DUP4 ADD MSTORE PUSH2 0x227 DUP2 PUSH2 0x1CB JUMP JUMPDEST SWAP1 POP SWAP2 SWAP1 POP JUMP JUMPDEST PUSH1 0x0 DUP3 DUP3 MSTORE PUSH1 0x20 DUP3 ADD SWAP1 POP SWAP3 SWAP2 POP POP JUMP JUMPDEST PUSH32 0x6D6F646966696572596579650000000000000000000000000000000000000000 PUSH1 0x0 DUP3 ADD MSTORE POP JUMP JUMPDEST PUSH32 0x7965796500000000000000000000000000000000000000000000000000000000 PUSH1 0x0 DUP3 ADD MSTORE POP JUMP INVALID LOG2 PUSH5 0x6970667358 0x22 SLT KECCAK256 0xF EXTCODEHASH 0xB9 MSIZE 0x2F 0xDE SWAP8 PUSH7 0x2A4DDC6F5197AC 0x4E 0x2E 0xBC BLOCKHASH 0x5C OR 0xAC CALL SIGNEXTEND SUB 0xBD 0x2B RETURNDATASIZE PUSH22 0x34A88E64736F6C634300080700330000000000000000 "
				},
				"gasEstimates": {
					"creation": {
						"codeDepositCost": "142200",
						"executionCost": "190",
						"totalCost": "142390"
					},
					"external": {
						"hip()": "infinite",
						"pop()": "infinite",
						"yeye()": "infinite"
					}
				},
				"methodIdentifiers": {
					"hip()": "370ea142",
					"pop()": "a4ece52c",
					"yeye()": "0ca21e9c"
				}
			},
			"storageLayout": {
				"storage": [],
				"types": null
			},
			"userdoc": {
				"kind": "user",
				"methods": {},
				"version": 1
			}
		}
	}
}