{
	"contract/wtf/继承的调用.sol": {
		"Erzi": {
			"abi": [
				{
					"anonymous": false,
					"inputs": [
						{
							"indexed": false,
							"internalType": "string",
							"name": "",
							"type": "string"
						}
					],
					"name": "Log",
					"type": "event"
				},
				{
					"inputs": [],
					"name": "baba",
					"outputs": [],
					"stateMutability": "nonpayable",
					"type": "function"
				},
				{
					"inputs": [],
					"name": "callParent",
					"outputs": [],
					"stateMutability": "nonpayable",
					"type": "function"
				},
				{
					"inputs": [],
					"name": "callParentSuper",
					"outputs": [],
					"stateMutability": "nonpayable",
					"type": "function"
				},
				{
					"inputs": [],
					"name": "erzi",
					"outputs": [],
					"stateMutability": "nonpayable",
					"type": "function"
				},
				{
					"inputs": [],
					"name": "hip",
					"outputs": [],
					"stateMutability": "nonpayable",
					"type": "function"
				},
				{
					"inputs": [],
					"name": "pop",
					"outputs": [],
					"stateMutability": "nonpayable",
					"type": "function"
				},
				{
					"inputs": [],
					"name": "yeye",
					"outputs": [],
					"stateMutability": "nonpayable",
					"type": "function"
				}
			],
			"devdoc": {
				"kind": "dev",
				"methods": {},
				"version": 1
			},
			"evm": {
				"assembly": "    /* \"contract/wtf/\\xe7\\xbb\\xa7\\xe6\\x89\\xbf\\xe7\\x9a\\x84\\xe8\\xb0\\x83\\xe7\\x94\\xa8.sol\":888:1603  contract Erzi is Yeye, Baba {... */\n  mstore(0x40, 0x80)\n  callvalue\n  dup1\n  iszero\n  tag_1\n  jumpi\n  0x00\n  dup1\n  revert\ntag_1:\n  pop\n  dataSize(sub_0)\n  dup1\n  dataOffset(sub_0)\n  0x00\n  codecopy\n  0x00\n  return\nstop\n\nsub_0: assembly {\n        /* \"contract/wtf/\\xe7\\xbb\\xa7\\xe6\\x89\\xbf\\xe7\\x9a\\x84\\xe8\\xb0\\x83\\xe7\\x94\\xa8.sol\":888:1603  contract Erzi is Yeye, Baba {... */\n      mstore(0x40, 0x80)\n      callvalue\n      dup1\n      iszero\n      tag_1\n      jumpi\n      0x00\n      dup1\n      revert\n    tag_1:\n      pop\n      jumpi(tag_2, lt(calldatasize, 0x04))\n      shr(0xe0, calldataload(0x00))\n      dup1\n      0xa4ece52c\n      gt\n      tag_10\n      jumpi\n      dup1\n      0xa4ece52c\n      eq\n      tag_6\n      jumpi\n      dup1\n      0xb92a50e0\n      eq\n      tag_7\n      jumpi\n      dup1\n      0xf44cf061\n      eq\n      tag_8\n      jumpi\n      dup1\n      0xfa030ef1\n      eq\n      tag_9\n      jumpi\n      jump(tag_2)\n    tag_10:\n      dup1\n      0x0ca21e9c\n      eq\n      tag_3\n      jumpi\n      dup1\n      0x370ea142\n      eq\n      tag_4\n      jumpi\n      dup1\n      0x572e47ae\n      eq\n      tag_5\n      jumpi\n    tag_2:\n      0x00\n      dup1\n      revert\n        /* \"contract/wtf/\\xe7\\xbb\\xa7\\xe6\\x89\\xbf\\xe7\\x9a\\x84\\xe8\\xb0\\x83\\xe7\\x94\\xa8.sol\":266:333  function yeye() public myModifier {... */\n    tag_3:\n      tag_11\n      tag_12\n      jump\t// in\n    tag_11:\n      stop\n        /* \"contract/wtf/\\xe7\\xbb\\xa7\\xe6\\x89\\xbf\\xe7\\x9a\\x84\\xe8\\xb0\\x83\\xe7\\x94\\xa8.sol\":922:1009  function hip() public override(Yeye, Baba) myModifier {... */\n    tag_4:\n      tag_13\n      tag_14\n      jump\t// in\n    tag_13:\n      stop\n        /* \"contract/wtf/\\xe7\\xbb\\xa7\\xe6\\x89\\xbf\\xe7\\x9a\\x84\\xe8\\xb0\\x83\\xe7\\x94\\xa8.sol\":1355:1413  function callParent() external {... */\n    tag_5:\n      tag_15\n      tag_16\n      jump\t// in\n    tag_15:\n      stop\n        /* \"contract/wtf/\\xe7\\xbb\\xa7\\xe6\\x89\\xbf\\xe7\\x9a\\x84\\xe8\\xb0\\x83\\xe7\\x94\\xa8.sol\":1015:1102  function pop() public override(Baba, Yeye) myModifier {... */\n    tag_6:\n      tag_17\n      tag_18\n      jump\t// in\n    tag_17:\n      stop\n        /* \"contract/wtf/\\xe7\\xbb\\xa7\\xe6\\x89\\xbf\\xe7\\x9a\\x84\\xe8\\xb0\\x83\\xe7\\x94\\xa8.sol\":1537:1601  function callParentSuper() external {... */\n    tag_7:\n      tag_19\n      tag_20\n      jump\t// in\n    tag_19:\n      stop\n        /* \"contract/wtf/\\xe7\\xbb\\xa7\\xe6\\x89\\xbf\\xe7\\x9a\\x84\\xe8\\xb0\\x83\\xe7\\x94\\xa8.sol\":1108:1175  function erzi() public myModifier {... */\n    tag_8:\n      tag_21\n      tag_22\n      jump\t// in\n    tag_21:\n      stop\n        /* \"contract/wtf/\\xe7\\xbb\\xa7\\xe6\\x89\\xbf\\xe7\\x9a\\x84\\xe8\\xb0\\x83\\xe7\\x94\\xa8.sol\":631:698  function baba() public myModifier {... */\n    tag_9:\n      tag_23\n      tag_24\n      jump\t// in\n    tag_23:\n      stop\n        /* \"contract/wtf/\\xe7\\xbb\\xa7\\xe6\\x89\\xbf\\xe7\\x9a\\x84\\xe8\\xb0\\x83\\xe7\\x94\\xa8.sol\":266:333  function yeye() public myModifier {... */\n    tag_12:\n        /* \"contract/wtf/\\xe7\\xbb\\xa7\\xe6\\x89\\xbf\\xe7\\x9a\\x84\\xe8\\xb0\\x83\\xe7\\x94\\xa8.sol\":1239:1258  Log(\"modifierErzi\") */\n      0xcf34ef537ac33ee1ac626ca1587a0a7e8e51561e5514f8cb36afa1c5102b3bab\n      mload(0x40)\n      tag_26\n      swap1\n      tag_27\n      jump\t// in\n    tag_26:\n      mload(0x40)\n      dup1\n      swap2\n      sub\n      swap1\n      log1\n        /* \"contract/wtf/\\xe7\\xbb\\xa7\\xe6\\x89\\xbf\\xe7\\x9a\\x84\\xe8\\xb0\\x83\\xe7\\x94\\xa8.sol\":315:326  Log(\"yeye\") */\n      0xcf34ef537ac33ee1ac626ca1587a0a7e8e51561e5514f8cb36afa1c5102b3bab\n      mload(0x40)\n      tag_29\n      swap1\n      tag_30\n      jump\t// in\n    tag_29:\n      mload(0x40)\n      dup1\n      swap2\n      sub\n      swap1\n      log1\n        /* \"contract/wtf/\\xe7\\xbb\\xa7\\xe6\\x89\\xbf\\xe7\\x9a\\x84\\xe8\\xb0\\x83\\xe7\\x94\\xa8.sol\":266:333  function yeye() public myModifier {... */\n      jump\t// out\n        /* \"contract/wtf/\\xe7\\xbb\\xa7\\xe6\\x89\\xbf\\xe7\\x9a\\x84\\xe8\\xb0\\x83\\xe7\\x94\\xa8.sol\":922:1009  function hip() public override(Yeye, Baba) myModifier {... */\n    tag_14:\n        /* \"contract/wtf/\\xe7\\xbb\\xa7\\xe6\\x89\\xbf\\xe7\\x9a\\x84\\xe8\\xb0\\x83\\xe7\\x94\\xa8.sol\":1239:1258  Log(\"modifierErzi\") */\n      0xcf34ef537ac33ee1ac626ca1587a0a7e8e51561e5514f8cb36afa1c5102b3bab\n      mload(0x40)\n      tag_32\n      swap1\n      tag_27\n      jump\t// in\n    tag_32:\n      mload(0x40)\n      dup1\n      swap2\n      sub\n      swap1\n      log1\n        /* \"contract/wtf/\\xe7\\xbb\\xa7\\xe6\\x89\\xbf\\xe7\\x9a\\x84\\xe8\\xb0\\x83\\xe7\\x94\\xa8.sol\":991:1002  Log(\"erzi\") */\n      0xcf34ef537ac33ee1ac626ca1587a0a7e8e51561e5514f8cb36afa1c5102b3bab\n      mload(0x40)\n      tag_34\n      swap1\n      tag_35\n      jump\t// in\n    tag_34:\n      mload(0x40)\n      dup1\n      swap2\n      sub\n      swap1\n      log1\n        /* \"contract/wtf/\\xe7\\xbb\\xa7\\xe6\\x89\\xbf\\xe7\\x9a\\x84\\xe8\\xb0\\x83\\xe7\\x94\\xa8.sol\":922:1009  function hip() public override(Yeye, Baba) myModifier {... */\n      jump\t// out\n        /* \"contract/wtf/\\xe7\\xbb\\xa7\\xe6\\x89\\xbf\\xe7\\x9a\\x84\\xe8\\xb0\\x83\\xe7\\x94\\xa8.sol\":1355:1413  function callParent() external {... */\n    tag_16:\n        /* \"contract/wtf/\\xe7\\xbb\\xa7\\xe6\\x89\\xbf\\xe7\\x9a\\x84\\xe8\\xb0\\x83\\xe7\\x94\\xa8.sol\":1396:1406  Yeye.hip() */\n      tag_37\n        /* \"contract/wtf/\\xe7\\xbb\\xa7\\xe6\\x89\\xbf\\xe7\\x9a\\x84\\xe8\\xb0\\x83\\xe7\\x94\\xa8.sol\":1396:1404  Yeye.hip */\n      tag_38\n        /* \"contract/wtf/\\xe7\\xbb\\xa7\\xe6\\x89\\xbf\\xe7\\x9a\\x84\\xe8\\xb0\\x83\\xe7\\x94\\xa8.sol\":1396:1406  Yeye.hip() */\n      jump\t// in\n    tag_37:\n        /* \"contract/wtf/\\xe7\\xbb\\xa7\\xe6\\x89\\xbf\\xe7\\x9a\\x84\\xe8\\xb0\\x83\\xe7\\x94\\xa8.sol\":1355:1413  function callParent() external {... */\n      jump\t// out\n        /* \"contract/wtf/\\xe7\\xbb\\xa7\\xe6\\x89\\xbf\\xe7\\x9a\\x84\\xe8\\xb0\\x83\\xe7\\x94\\xa8.sol\":1015:1102  function pop() public override(Baba, Yeye) myModifier {... */\n    tag_18:\n        /* \"contract/wtf/\\xe7\\xbb\\xa7\\xe6\\x89\\xbf\\xe7\\x9a\\x84\\xe8\\xb0\\x83\\xe7\\x94\\xa8.sol\":1239:1258  Log(\"modifierErzi\") */\n      0xcf34ef537ac33ee1ac626ca1587a0a7e8e51561e5514f8cb36afa1c5102b3bab\n      mload(0x40)\n      tag_40\n      swap1\n      tag_27\n      jump\t// in\n    tag_40:\n      mload(0x40)\n      dup1\n      swap2\n      sub\n      swap1\n      log1\n        /* \"contract/wtf/\\xe7\\xbb\\xa7\\xe6\\x89\\xbf\\xe7\\x9a\\x84\\xe8\\xb0\\x83\\xe7\\x94\\xa8.sol\":1084:1095  Log(\"erzi\") */\n      0xcf34ef537ac33ee1ac626ca1587a0a7e8e51561e5514f8cb36afa1c5102b3bab\n      mload(0x40)\n      tag_42\n      swap1\n      tag_35\n      jump\t// in\n    tag_42:\n      mload(0x40)\n      dup1\n      swap2\n      sub\n      swap1\n      log1\n        /* \"contract/wtf/\\xe7\\xbb\\xa7\\xe6\\x89\\xbf\\xe7\\x9a\\x84\\xe8\\xb0\\x83\\xe7\\x94\\xa8.sol\":1015:1102  function pop() public override(Baba, Yeye) myModifier {... */\n      jump\t// out\n        /* \"contract/wtf/\\xe7\\xbb\\xa7\\xe6\\x89\\xbf\\xe7\\x9a\\x84\\xe8\\xb0\\x83\\xe7\\x94\\xa8.sol\":1537:1601  function callParentSuper() external {... */\n    tag_20:\n        /* \"contract/wtf/\\xe7\\xbb\\xa7\\xe6\\x89\\xbf\\xe7\\x9a\\x84\\xe8\\xb0\\x83\\xe7\\x94\\xa8.sol\":1583:1594  super.hip() */\n      tag_44\n        /* \"contract/wtf/\\xe7\\xbb\\xa7\\xe6\\x89\\xbf\\xe7\\x9a\\x84\\xe8\\xb0\\x83\\xe7\\x94\\xa8.sol\":1583:1592  super.hip */\n      tag_45\n        /* \"contract/wtf/\\xe7\\xbb\\xa7\\xe6\\x89\\xbf\\xe7\\x9a\\x84\\xe8\\xb0\\x83\\xe7\\x94\\xa8.sol\":1583:1594  super.hip() */\n      jump\t// in\n    tag_44:\n        /* \"contract/wtf/\\xe7\\xbb\\xa7\\xe6\\x89\\xbf\\xe7\\x9a\\x84\\xe8\\xb0\\x83\\xe7\\x94\\xa8.sol\":1537:1601  function callParentSuper() external {... */\n      jump\t// out\n        /* \"contract/wtf/\\xe7\\xbb\\xa7\\xe6\\x89\\xbf\\xe7\\x9a\\x84\\xe8\\xb0\\x83\\xe7\\x94\\xa8.sol\":1108:1175  function erzi() public myModifier {... */\n    tag_22:\n        /* \"contract/wtf/\\xe7\\xbb\\xa7\\xe6\\x89\\xbf\\xe7\\x9a\\x84\\xe8\\xb0\\x83\\xe7\\x94\\xa8.sol\":1239:1258  Log(\"modifierErzi\") */\n      0xcf34ef537ac33ee1ac626ca1587a0a7e8e51561e5514f8cb36afa1c5102b3bab\n      mload(0x40)\n      tag_47\n      swap1\n      tag_27\n      jump\t// in\n    tag_47:\n      mload(0x40)\n      dup1\n      swap2\n      sub\n      swap1\n      log1\n        /* \"contract/wtf/\\xe7\\xbb\\xa7\\xe6\\x89\\xbf\\xe7\\x9a\\x84\\xe8\\xb0\\x83\\xe7\\x94\\xa8.sol\":1157:1168  Log(\"erzi\") */\n      0xcf34ef537ac33ee1ac626ca1587a0a7e8e51561e5514f8cb36afa1c5102b3bab\n      mload(0x40)\n      tag_49\n      swap1\n      tag_35\n      jump\t// in\n    tag_49:\n      mload(0x40)\n      dup1\n      swap2\n      sub\n      swap1\n      log1\n        /* \"contract/wtf/\\xe7\\xbb\\xa7\\xe6\\x89\\xbf\\xe7\\x9a\\x84\\xe8\\xb0\\x83\\xe7\\x94\\xa8.sol\":1108:1175  function erzi() public myModifier {... */\n      jump\t// out\n        /* \"contract/wtf/\\xe7\\xbb\\xa7\\xe6\\x89\\xbf\\xe7\\x9a\\x84\\xe8\\xb0\\x83\\xe7\\x94\\xa8.sol\":631:698  function baba() public myModifier {... */\n    tag_24:\n        /* \"contract/wtf/\\xe7\\xbb\\xa7\\xe6\\x89\\xbf\\xe7\\x9a\\x84\\xe8\\xb0\\x83\\xe7\\x94\\xa8.sol\":1239:1258  Log(\"modifierErzi\") */\n      0xcf34ef537ac33ee1ac626ca1587a0a7e8e51561e5514f8cb36afa1c5102b3bab\n      mload(0x40)\n      tag_51\n      swap1\n      tag_27\n      jump\t// in\n    tag_51:\n      mload(0x40)\n      dup1\n      swap2\n      sub\n      swap1\n      log1\n        /* \"contract/wtf/\\xe7\\xbb\\xa7\\xe6\\x89\\xbf\\xe7\\x9a\\x84\\xe8\\xb0\\x83\\xe7\\x94\\xa8.sol\":680:691  Log(\"baba\") */\n      0xcf34ef537ac33ee1ac626ca1587a0a7e8e51561e5514f8cb36afa1c5102b3bab\n      mload(0x40)\n      tag_53\n      swap1\n      tag_54\n      jump\t// in\n    tag_53:\n      mload(0x40)\n      dup1\n      swap2\n      sub\n      swap1\n      log1\n        /* \"contract/wtf/\\xe7\\xbb\\xa7\\xe6\\x89\\xbf\\xe7\\x9a\\x84\\xe8\\xb0\\x83\\xe7\\x94\\xa8.sol\":631:698  function baba() public myModifier {... */\n      jump\t// out\n        /* \"contract/wtf/\\xe7\\xbb\\xa7\\xe6\\x89\\xbf\\xe7\\x9a\\x84\\xe8\\xb0\\x83\\xe7\\x94\\xa8.sol\":106:180  function hip() public virtual myModifier {... */\n    tag_38:\n        /* \"contract/wtf/\\xe7\\xbb\\xa7\\xe6\\x89\\xbf\\xe7\\x9a\\x84\\xe8\\xb0\\x83\\xe7\\x94\\xa8.sol\":1239:1258  Log(\"modifierErzi\") */\n      0xcf34ef537ac33ee1ac626ca1587a0a7e8e51561e5514f8cb36afa1c5102b3bab\n      mload(0x40)\n      tag_56\n      swap1\n      tag_27\n      jump\t// in\n    tag_56:\n      mload(0x40)\n      dup1\n      swap2\n      sub\n      swap1\n      log1\n        /* \"contract/wtf/\\xe7\\xbb\\xa7\\xe6\\x89\\xbf\\xe7\\x9a\\x84\\xe8\\xb0\\x83\\xe7\\x94\\xa8.sol\":162:173  Log(\"yeye\") */\n      0xcf34ef537ac33ee1ac626ca1587a0a7e8e51561e5514f8cb36afa1c5102b3bab\n      mload(0x40)\n      tag_58\n      swap1\n      tag_30\n      jump\t// in\n    tag_58:\n      mload(0x40)\n      dup1\n      swap2\n      sub\n      swap1\n      log1\n        /* \"contract/wtf/\\xe7\\xbb\\xa7\\xe6\\x89\\xbf\\xe7\\x9a\\x84\\xe8\\xb0\\x83\\xe7\\x94\\xa8.sol\":106:180  function hip() public virtual myModifier {... */\n      jump\t// out\n        /* \"contract/wtf/\\xe7\\xbb\\xa7\\xe6\\x89\\xbf\\xe7\\x9a\\x84\\xe8\\xb0\\x83\\xe7\\x94\\xa8.sol\":453:536  function hip() public virtual override myModifier {... */\n    tag_45:\n        /* \"contract/wtf/\\xe7\\xbb\\xa7\\xe6\\x89\\xbf\\xe7\\x9a\\x84\\xe8\\xb0\\x83\\xe7\\x94\\xa8.sol\":1239:1258  Log(\"modifierErzi\") */\n      0xcf34ef537ac33ee1ac626ca1587a0a7e8e51561e5514f8cb36afa1c5102b3bab\n      mload(0x40)\n      tag_60\n      swap1\n      tag_27\n      jump\t// in\n    tag_60:\n      mload(0x40)\n      dup1\n      swap2\n      sub\n      swap1\n      log1\n        /* \"contract/wtf/\\xe7\\xbb\\xa7\\xe6\\x89\\xbf\\xe7\\x9a\\x84\\xe8\\xb0\\x83\\xe7\\x94\\xa8.sol\":518:529  Log(\"baba\") */\n      0xcf34ef537ac33ee1ac626ca1587a0a7e8e51561e5514f8cb36afa1c5102b3bab\n      mload(0x40)\n      tag_62\n      swap1\n      tag_54\n      jump\t// in\n    tag_62:\n      mload(0x40)\n      dup1\n      swap2\n      sub\n      swap1\n      log1\n        /* \"contract/wtf/\\xe7\\xbb\\xa7\\xe6\\x89\\xbf\\xe7\\x9a\\x84\\xe8\\xb0\\x83\\xe7\\x94\\xa8.sol\":453:536  function hip() public virtual override myModifier {... */\n      jump\t// out\n        /* \"#utility.yul\":7:372   */\n    tag_64:\n        /* \"#utility.yul\":149:152   */\n      0x00\n        /* \"#utility.yul\":170:236   */\n      tag_66\n        /* \"#utility.yul\":234:235   */\n      0x04\n        /* \"#utility.yul\":229:232   */\n      dup4\n        /* \"#utility.yul\":170:236   */\n      tag_67\n      jump\t// in\n    tag_66:\n        /* \"#utility.yul\":163:236   */\n      swap2\n      pop\n        /* \"#utility.yul\":245:338   */\n      tag_68\n        /* \"#utility.yul\":334:337   */\n      dup3\n        /* \"#utility.yul\":245:338   */\n      tag_69\n      jump\t// in\n    tag_68:\n        /* \"#utility.yul\":363:365   */\n      0x20\n        /* \"#utility.yul\":358:361   */\n      dup3\n        /* \"#utility.yul\":354:366   */\n      add\n        /* \"#utility.yul\":347:366   */\n      swap1\n      pop\n        /* \"#utility.yul\":7:372   */\n      swap2\n      swap1\n      pop\n      jump\t// out\n        /* \"#utility.yul\":378:744   */\n    tag_70:\n        /* \"#utility.yul\":520:523   */\n      0x00\n        /* \"#utility.yul\":541:608   */\n      tag_72\n        /* \"#utility.yul\":605:607   */\n      0x0c\n        /* \"#utility.yul\":600:603   */\n      dup4\n        /* \"#utility.yul\":541:608   */\n      tag_67\n      jump\t// in\n    tag_72:\n        /* \"#utility.yul\":534:608   */\n      swap2\n      pop\n        /* \"#utility.yul\":617:710   */\n      tag_73\n        /* \"#utility.yul\":706:709   */\n      dup3\n        /* \"#utility.yul\":617:710   */\n      tag_74\n      jump\t// in\n    tag_73:\n        /* \"#utility.yul\":735:737   */\n      0x20\n        /* \"#utility.yul\":730:733   */\n      dup3\n        /* \"#utility.yul\":726:738   */\n      add\n        /* \"#utility.yul\":719:738   */\n      swap1\n      pop\n        /* \"#utility.yul\":378:744   */\n      swap2\n      swap1\n      pop\n      jump\t// out\n        /* \"#utility.yul\":750:1115   */\n    tag_75:\n        /* \"#utility.yul\":892:895   */\n      0x00\n        /* \"#utility.yul\":913:979   */\n      tag_77\n        /* \"#utility.yul\":977:978   */\n      0x04\n        /* \"#utility.yul\":972:975   */\n      dup4\n        /* \"#utility.yul\":913:979   */\n      tag_67\n      jump\t// in\n    tag_77:\n        /* \"#utility.yul\":906:979   */\n      swap2\n      pop\n        /* \"#utility.yul\":988:1081   */\n      tag_78\n        /* \"#utility.yul\":1077:1080   */\n      dup3\n        /* \"#utility.yul\":988:1081   */\n      tag_79\n      jump\t// in\n    tag_78:\n        /* \"#utility.yul\":1106:1108   */\n      0x20\n        /* \"#utility.yul\":1101:1104   */\n      dup3\n        /* \"#utility.yul\":1097:1109   */\n      add\n        /* \"#utility.yul\":1090:1109   */\n      swap1\n      pop\n        /* \"#utility.yul\":750:1115   */\n      swap2\n      swap1\n      pop\n      jump\t// out\n        /* \"#utility.yul\":1121:1486   */\n    tag_80:\n        /* \"#utility.yul\":1263:1266   */\n      0x00\n        /* \"#utility.yul\":1284:1350   */\n      tag_82\n        /* \"#utility.yul\":1348:1349   */\n      0x04\n        /* \"#utility.yul\":1343:1346   */\n      dup4\n        /* \"#utility.yul\":1284:1350   */\n      tag_67\n      jump\t// in\n    tag_82:\n        /* \"#utility.yul\":1277:1350   */\n      swap2\n      pop\n        /* \"#utility.yul\":1359:1452   */\n      tag_83\n        /* \"#utility.yul\":1448:1451   */\n      dup3\n        /* \"#utility.yul\":1359:1452   */\n      tag_84\n      jump\t// in\n    tag_83:\n        /* \"#utility.yul\":1477:1479   */\n      0x20\n        /* \"#utility.yul\":1472:1475   */\n      dup3\n        /* \"#utility.yul\":1468:1480   */\n      add\n        /* \"#utility.yul\":1461:1480   */\n      swap1\n      pop\n        /* \"#utility.yul\":1121:1486   */\n      swap2\n      swap1\n      pop\n      jump\t// out\n        /* \"#utility.yul\":1492:1911   */\n    tag_54:\n        /* \"#utility.yul\":1658:1662   */\n      0x00\n        /* \"#utility.yul\":1696:1698   */\n      0x20\n        /* \"#utility.yul\":1685:1694   */\n      dup3\n        /* \"#utility.yul\":1681:1699   */\n      add\n        /* \"#utility.yul\":1673:1699   */\n      swap1\n      pop\n        /* \"#utility.yul\":1745:1754   */\n      dup2\n        /* \"#utility.yul\":1739:1743   */\n      dup2\n        /* \"#utility.yul\":1735:1755   */\n      sub\n        /* \"#utility.yul\":1731:1732   */\n      0x00\n        /* \"#utility.yul\":1720:1729   */\n      dup4\n        /* \"#utility.yul\":1716:1733   */\n      add\n        /* \"#utility.yul\":1709:1756   */\n      mstore\n        /* \"#utility.yul\":1773:1904   */\n      tag_86\n        /* \"#utility.yul\":1899:1903   */\n      dup2\n        /* \"#utility.yul\":1773:1904   */\n      tag_64\n      jump\t// in\n    tag_86:\n        /* \"#utility.yul\":1765:1904   */\n      swap1\n      pop\n        /* \"#utility.yul\":1492:1911   */\n      swap2\n      swap1\n      pop\n      jump\t// out\n        /* \"#utility.yul\":1917:2336   */\n    tag_27:\n        /* \"#utility.yul\":2083:2087   */\n      0x00\n        /* \"#utility.yul\":2121:2123   */\n      0x20\n        /* \"#utility.yul\":2110:2119   */\n      dup3\n        /* \"#utility.yul\":2106:2124   */\n      add\n        /* \"#utility.yul\":2098:2124   */\n      swap1\n      pop\n        /* \"#utility.yul\":2170:2179   */\n      dup2\n        /* \"#utility.yul\":2164:2168   */\n      dup2\n        /* \"#utility.yul\":2160:2180   */\n      sub\n        /* \"#utility.yul\":2156:2157   */\n      0x00\n        /* \"#utility.yul\":2145:2154   */\n      dup4\n        /* \"#utility.yul\":2141:2158   */\n      add\n        /* \"#utility.yul\":2134:2181   */\n      mstore\n        /* \"#utility.yul\":2198:2329   */\n      tag_88\n        /* \"#utility.yul\":2324:2328   */\n      dup2\n        /* \"#utility.yul\":2198:2329   */\n      tag_70\n      jump\t// in\n    tag_88:\n        /* \"#utility.yul\":2190:2329   */\n      swap1\n      pop\n        /* \"#utility.yul\":1917:2336   */\n      swap2\n      swap1\n      pop\n      jump\t// out\n        /* \"#utility.yul\":2342:2761   */\n    tag_35:\n        /* \"#utility.yul\":2508:2512   */\n      0x00\n        /* \"#utility.yul\":2546:2548   */\n      0x20\n        /* \"#utility.yul\":2535:2544   */\n      dup3\n        /* \"#utility.yul\":2531:2549   */\n      add\n        /* \"#utility.yul\":2523:2549   */\n      swap1\n      pop\n        /* \"#utility.yul\":2595:2604   */\n      dup2\n        /* \"#utility.yul\":2589:2593   */\n      dup2\n        /* \"#utility.yul\":2585:2605   */\n      sub\n        /* \"#utility.yul\":2581:2582   */\n      0x00\n        /* \"#utility.yul\":2570:2579   */\n      dup4\n        /* \"#utility.yul\":2566:2583   */\n      add\n        /* \"#utility.yul\":2559:2606   */\n      mstore\n        /* \"#utility.yul\":2623:2754   */\n      tag_90\n        /* \"#utility.yul\":2749:2753   */\n      dup2\n        /* \"#utility.yul\":2623:2754   */\n      tag_75\n      jump\t// in\n    tag_90:\n        /* \"#utility.yul\":2615:2754   */\n      swap1\n      pop\n        /* \"#utility.yul\":2342:2761   */\n      swap2\n      swap1\n      pop\n      jump\t// out\n        /* \"#utility.yul\":2767:3186   */\n    tag_30:\n        /* \"#utility.yul\":2933:2937   */\n      0x00\n        /* \"#utility.yul\":2971:2973   */\n      0x20\n        /* \"#utility.yul\":2960:2969   */\n      dup3\n        /* \"#utility.yul\":2956:2974   */\n      add\n        /* \"#utility.yul\":2948:2974   */\n      swap1\n      pop\n        /* \"#utility.yul\":3020:3029   */\n      dup2\n        /* \"#utility.yul\":3014:3018   */\n      dup2\n        /* \"#utility.yul\":3010:3030   */\n      sub\n        /* \"#utility.yul\":3006:3007   */\n      0x00\n        /* \"#utility.yul\":2995:3004   */\n      dup4\n        /* \"#utility.yul\":2991:3008   */\n      add\n        /* \"#utility.yul\":2984:3031   */\n      mstore\n        /* \"#utility.yul\":3048:3179   */\n      tag_92\n        /* \"#utility.yul\":3174:3178   */\n      dup2\n        /* \"#utility.yul\":3048:3179   */\n      tag_80\n      jump\t// in\n    tag_92:\n        /* \"#utility.yul\":3040:3179   */\n      swap1\n      pop\n        /* \"#utility.yul\":2767:3186   */\n      swap2\n      swap1\n      pop\n      jump\t// out\n        /* \"#utility.yul\":3192:3361   */\n    tag_67:\n        /* \"#utility.yul\":3276:3287   */\n      0x00\n        /* \"#utility.yul\":3310:3316   */\n      dup3\n        /* \"#utility.yul\":3305:3308   */\n      dup3\n        /* \"#utility.yul\":3298:3317   */\n      mstore\n        /* \"#utility.yul\":3350:3354   */\n      0x20\n        /* \"#utility.yul\":3345:3348   */\n      dup3\n        /* \"#utility.yul\":3341:3355   */\n      add\n        /* \"#utility.yul\":3326:3355   */\n      swap1\n      pop\n        /* \"#utility.yul\":3192:3361   */\n      swap3\n      swap2\n      pop\n      pop\n      jump\t// out\n        /* \"#utility.yul\":3367:3521   */\n    tag_69:\n        /* \"#utility.yul\":3507:3513   */\n      0x6261626100000000000000000000000000000000000000000000000000000000\n        /* \"#utility.yul\":3503:3504   */\n      0x00\n        /* \"#utility.yul\":3495:3501   */\n      dup3\n        /* \"#utility.yul\":3491:3505   */\n      add\n        /* \"#utility.yul\":3484:3514   */\n      mstore\n        /* \"#utility.yul\":3367:3521   */\n      pop\n      jump\t// out\n        /* \"#utility.yul\":3527:3689   */\n    tag_74:\n        /* \"#utility.yul\":3667:3681   */\n      0x6d6f64696669657245727a690000000000000000000000000000000000000000\n        /* \"#utility.yul\":3663:3664   */\n      0x00\n        /* \"#utility.yul\":3655:3661   */\n      dup3\n        /* \"#utility.yul\":3651:3665   */\n      add\n        /* \"#utility.yul\":3644:3682   */\n      mstore\n        /* \"#utility.yul\":3527:3689   */\n      pop\n      jump\t// out\n        /* \"#utility.yul\":3695:3849   */\n    tag_79:\n        /* \"#utility.yul\":3835:3841   */\n      0x65727a6900000000000000000000000000000000000000000000000000000000\n        /* \"#utility.yul\":3831:3832   */\n      0x00\n        /* \"#utility.yul\":3823:3829   */\n      dup3\n        /* \"#utility.yul\":3819:3833   */\n      add\n        /* \"#utility.yul\":3812:3842   */\n      mstore\n        /* \"#utility.yul\":3695:3849   */\n      pop\n      jump\t// out\n        /* \"#utility.yul\":3855:4009   */\n    tag_84:\n        /* \"#utility.yul\":3995:4001   */\n      0x7965796500000000000000000000000000000000000000000000000000000000\n        /* \"#utility.yul\":3991:3992   */\n      0x00\n        /* \"#utility.yul\":3983:3989   */\n      dup3\n        /* \"#utility.yul\":3979:3993   */\n      add\n        /* \"#utility.yul\":3972:4002   */\n      mstore\n        /* \"#utility.yul\":3855:4009   */\n      pop\n      jump\t// out\n\n    auxdata: 0xa2646970667358221220d6322dab6b637d0a44eccf3ea783cc233899db0cc90e61911be6051f68385ad264736f6c63430008070033\n}\n",
				"bytecode": {
					"linkReferences": {},
					"object": "608060405234801561001057600080fd5b506105c7806100206000396000f3fe608060405234801561001057600080fd5b506004361061007d5760003560e01c8063a4ece52c1161005b578063a4ece52c146100a0578063b92a50e0146100aa578063f44cf061146100b4578063fa030ef1146100be5761007d565b80630ca21e9c14610082578063370ea1421461008c578063572e47ae14610096575b600080fd5b61008a6100c8565b005b610094610134565b005b61009e6101a0565b005b6100a86101aa565b005b6100b2610216565b005b6100bc610220565b005b6100c661028c565b005b7fcf34ef537ac33ee1ac626ca1587a0a7e8e51561e5514f8cb36afa1c5102b3bab6040516100f59061047c565b60405180910390a17fcf34ef537ac33ee1ac626ca1587a0a7e8e51561e5514f8cb36afa1c5102b3bab60405161012a906104bc565b60405180910390a1565b7fcf34ef537ac33ee1ac626ca1587a0a7e8e51561e5514f8cb36afa1c5102b3bab6040516101619061047c565b60405180910390a17fcf34ef537ac33ee1ac626ca1587a0a7e8e51561e5514f8cb36afa1c5102b3bab6040516101969061049c565b60405180910390a1565b6101a86102f8565b565b7fcf34ef537ac33ee1ac626ca1587a0a7e8e51561e5514f8cb36afa1c5102b3bab6040516101d79061047c565b60405180910390a17fcf34ef537ac33ee1ac626ca1587a0a7e8e51561e5514f8cb36afa1c5102b3bab60405161020c9061049c565b60405180910390a1565b61021e610364565b565b7fcf34ef537ac33ee1ac626ca1587a0a7e8e51561e5514f8cb36afa1c5102b3bab60405161024d9061047c565b60405180910390a17fcf34ef537ac33ee1ac626ca1587a0a7e8e51561e5514f8cb36afa1c5102b3bab6040516102829061049c565b60405180910390a1565b7fcf34ef537ac33ee1ac626ca1587a0a7e8e51561e5514f8cb36afa1c5102b3bab6040516102b99061047c565b60405180910390a17fcf34ef537ac33ee1ac626ca1587a0a7e8e51561e5514f8cb36afa1c5102b3bab6040516102ee9061045c565b60405180910390a1565b7fcf34ef537ac33ee1ac626ca1587a0a7e8e51561e5514f8cb36afa1c5102b3bab6040516103259061047c565b60405180910390a17fcf34ef537ac33ee1ac626ca1587a0a7e8e51561e5514f8cb36afa1c5102b3bab60405161035a906104bc565b60405180910390a1565b7fcf34ef537ac33ee1ac626ca1587a0a7e8e51561e5514f8cb36afa1c5102b3bab6040516103919061047c565b60405180910390a17fcf34ef537ac33ee1ac626ca1587a0a7e8e51561e5514f8cb36afa1c5102b3bab6040516103c69061045c565b60405180910390a1565b60006103dd6004836104dc565b91506103e8826104ed565b602082019050919050565b6000610400600c836104dc565b915061040b82610516565b602082019050919050565b60006104236004836104dc565b915061042e8261053f565b602082019050919050565b60006104466004836104dc565b915061045182610568565b602082019050919050565b60006020820190508181036000830152610475816103d0565b9050919050565b60006020820190508181036000830152610495816103f3565b9050919050565b600060208201905081810360008301526104b581610416565b9050919050565b600060208201905081810360008301526104d581610439565b9050919050565b600082825260208201905092915050565b7f6261626100000000000000000000000000000000000000000000000000000000600082015250565b7f6d6f64696669657245727a690000000000000000000000000000000000000000600082015250565b7f65727a6900000000000000000000000000000000000000000000000000000000600082015250565b7f796579650000000000000000000000000000000000000000000000000000000060008201525056fea2646970667358221220d6322dab6b637d0a44eccf3ea783cc233899db0cc90e61911be6051f68385ad264736f6c63430008070033",
					"opcodes": "PUSH1 0x80 PUSH1 0x40 MSTORE CALLVALUE DUP1 ISZERO PUSH2 0x10 JUMPI PUSH1 0x0 DUP1 REVERT JUMPDEST POP PUSH2 0x5C7 DUP1 PUSH2 0x20 PUSH1 0x0 CODECOPY PUSH1 0x0 RETURN INVALID PUSH1 0x80 PUSH1 0x40 MSTORE CALLVALUE DUP1 ISZERO PUSH2 0x10 JUMPI PUSH1 0x0 DUP1 REVERT JUMPDEST POP PUSH1 0x4 CALLDATASIZE LT PUSH2 0x7D JUMPI PUSH1 0x0 CALLDATALOAD PUSH1 0xE0 SHR DUP1 PUSH4 0xA4ECE52C GT PUSH2 0x5B JUMPI DUP1 PUSH4 0xA4ECE52C EQ PUSH2 0xA0 JUMPI DUP1 PUSH4 0xB92A50E0 EQ PUSH2 0xAA JUMPI DUP1 PUSH4 0xF44CF061 EQ PUSH2 0xB4 JUMPI DUP1 PUSH4 0xFA030EF1 EQ PUSH2 0xBE JUMPI PUSH2 0x7D JUMP JUMPDEST DUP1 PUSH4 0xCA21E9C EQ PUSH2 0x82 JUMPI DUP1 PUSH4 0x370EA142 EQ PUSH2 0x8C JUMPI DUP1 PUSH4 0x572E47AE EQ PUSH2 0x96 JUMPI JUMPDEST PUSH1 0x0 DUP1 REVERT JUMPDEST PUSH2 0x8A PUSH2 0xC8 JUMP JUMPDEST STOP JUMPDEST PUSH2 0x94 PUSH2 0x134 JUMP JUMPDEST STOP JUMPDEST PUSH2 0x9E PUSH2 0x1A0 JUMP JUMPDEST STOP JUMPDEST PUSH2 0xA8 PUSH2 0x1AA JUMP JUMPDEST STOP JUMPDEST PUSH2 0xB2 PUSH2 0x216 JUMP JUMPDEST STOP JUMPDEST PUSH2 0xBC PUSH2 0x220 JUMP JUMPDEST STOP JUMPDEST PUSH2 0xC6 PUSH2 0x28C JUMP JUMPDEST STOP JUMPDEST PUSH32 0xCF34EF537AC33EE1AC626CA1587A0A7E8E51561E5514F8CB36AFA1C5102B3BAB PUSH1 0x40 MLOAD PUSH2 0xF5 SWAP1 PUSH2 0x47C JUMP JUMPDEST PUSH1 0x40 MLOAD DUP1 SWAP2 SUB SWAP1 LOG1 PUSH32 0xCF34EF537AC33EE1AC626CA1587A0A7E8E51561E5514F8CB36AFA1C5102B3BAB PUSH1 0x40 MLOAD PUSH2 0x12A SWAP1 PUSH2 0x4BC JUMP JUMPDEST PUSH1 0x40 MLOAD DUP1 SWAP2 SUB SWAP1 LOG1 JUMP JUMPDEST PUSH32 0xCF34EF537AC33EE1AC626CA1587A0A7E8E51561E5514F8CB36AFA1C5102B3BAB PUSH1 0x40 MLOAD PUSH2 0x161 SWAP1 PUSH2 0x47C JUMP JUMPDEST PUSH1 0x40 MLOAD DUP1 SWAP2 SUB SWAP1 LOG1 PUSH32 0xCF34EF537AC33EE1AC626CA1587A0A7E8E51561E5514F8CB36AFA1C5102B3BAB PUSH1 0x40 MLOAD PUSH2 0x196 SWAP1 PUSH2 0x49C JUMP JUMPDEST PUSH1 0x40 MLOAD DUP1 SWAP2 SUB SWAP1 LOG1 JUMP JUMPDEST PUSH2 0x1A8 PUSH2 0x2F8 JUMP JUMPDEST JUMP JUMPDEST PUSH32 0xCF34EF537AC33EE1AC626CA1587A0A7E8E51561E5514F8CB36AFA1C5102B3BAB PUSH1 0x40 MLOAD PUSH2 0x1D7 SWAP1 PUSH2 0x47C JUMP JUMPDEST PUSH1 0x40 MLOAD DUP1 SWAP2 SUB SWAP1 LOG1 PUSH32 0xCF34EF537AC33EE1AC626CA1587A0A7E8E51561E5514F8CB36AFA1C5102B3BAB PUSH1 0x40 MLOAD PUSH2 0x20C SWAP1 PUSH2 0x49C JUMP JUMPDEST PUSH1 0x40 MLOAD DUP1 SWAP2 SUB SWAP1 LOG1 JUMP JUMPDEST PUSH2 0x21E PUSH2 0x364 JUMP JUMPDEST JUMP JUMPDEST PUSH32 0xCF34EF537AC33EE1AC626CA1587A0A7E8E51561E5514F8CB36AFA1C5102B3BAB PUSH1 0x40 MLOAD PUSH2 0x24D SWAP1 PUSH2 0x47C JUMP JUMPDEST PUSH1 0x40 MLOAD DUP1 SWAP2 SUB SWAP1 LOG1 PUSH32 0xCF34EF537AC33EE1AC626CA1587A0A7E8E51561E5514F8CB36AFA1C5102B3BAB PUSH1 0x40 MLOAD PUSH2 0x282 SWAP1 PUSH2 0x49C JUMP JUMPDEST PUSH1 0x40 MLOAD DUP1 SWAP2 SUB SWAP1 LOG1 JUMP JUMPDEST PUSH32 0xCF34EF537AC33EE1AC626CA1587A0A7E8E51561E5514F8CB36AFA1C5102B3BAB PUSH1 0x40 MLOAD PUSH2 0x2B9 SWAP1 PUSH2 0x47C JUMP JUMPDEST PUSH1 0x40 MLOAD DUP1 SWAP2 SUB SWAP1 LOG1 PUSH32 0xCF34EF537AC33EE1AC626CA1587A0A7E8E51561E5514F8CB36AFA1C5102B3BAB PUSH1 0x40 MLOAD PUSH2 0x2EE SWAP1 PUSH2 0x45C JUMP JUMPDEST PUSH1 0x40 MLOAD DUP1 SWAP2 SUB SWAP1 LOG1 JUMP JUMPDEST PUSH32 0xCF34EF537AC33EE1AC626CA1587A0A7E8E51561E5514F8CB36AFA1C5102B3BAB PUSH1 0x40 MLOAD PUSH2 0x325 SWAP1 PUSH2 0x47C JUMP JUMPDEST PUSH1 0x40 MLOAD DUP1 SWAP2 SUB SWAP1 LOG1 PUSH32 0xCF34EF537AC33EE1AC626CA1587A0A7E8E51561E5514F8CB36AFA1C5102B3BAB PUSH1 0x40 MLOAD PUSH2 0x35A SWAP1 PUSH2 0x4BC JUMP JUMPDEST PUSH1 0x40 MLOAD DUP1 SWAP2 SUB SWAP1 LOG1 JUMP JUMPDEST PUSH32 0xCF34EF537AC33EE1AC626CA1587A0A7E8E51561E5514F8CB36AFA1C5102B3BAB PUSH1 0x40 MLOAD PUSH2 0x391 SWAP1 PUSH2 0x47C JUMP JUMPDEST PUSH1 0x40 MLOAD DUP1 SWAP2 SUB SWAP1 LOG1 PUSH32 0xCF34EF537AC33EE1AC626CA1587A0A7E8E51561E5514F8CB36AFA1C5102B3BAB PUSH1 0x40 MLOAD PUSH2 0x3C6 SWAP1 PUSH2 0x45C JUMP JUMPDEST PUSH1 0x40 MLOAD DUP1 SWAP2 SUB SWAP1 LOG1 JUMP JUMPDEST PUSH1 0x0 PUSH2 0x3DD PUSH1 0x4 DUP4 PUSH2 0x4DC JUMP JUMPDEST SWAP2 POP PUSH2 0x3E8 DUP3 PUSH2 0x4ED JUMP JUMPDEST PUSH1 0x20 DUP3 ADD SWAP1 POP SWAP2 SWAP1 POP JUMP JUMPDEST PUSH1 0x0 PUSH2 0x400 PUSH1 0xC DUP4 PUSH2 0x4DC JUMP JUMPDEST SWAP2 POP PUSH2 0x40B DUP3 PUSH2 0x516 JUMP JUMPDEST PUSH1 0x20 DUP3 ADD SWAP1 POP SWAP2 SWAP1 POP JUMP JUMPDEST PUSH1 0x0 PUSH2 0x423 PUSH1 0x4 DUP4 PUSH2 0x4DC JUMP JUMPDEST SWAP2 POP PUSH2 0x42E DUP3 PUSH2 0x53F JUMP JUMPDEST PUSH1 0x20 DUP3 ADD SWAP1 POP SWAP2 SWAP1 POP JUMP JUMPDEST PUSH1 0x0 PUSH2 0x446 PUSH1 0x4 DUP4 PUSH2 0x4DC JUMP JUMPDEST SWAP2 POP PUSH2 0x451 DUP3 PUSH2 0x568 JUMP JUMPDEST PUSH1 0x20 DUP3 ADD SWAP1 POP SWAP2 SWAP1 POP JUMP JUMPDEST PUSH1 0x0 PUSH1 0x20 DUP3 ADD SWAP1 POP DUP2 DUP2 SUB PUSH1 0x0 DUP4 ADD MSTORE PUSH2 0x475 DUP2 PUSH2 0x3D0 JUMP JUMPDEST SWAP1 POP SWAP2 SWAP1 POP JUMP JUMPDEST PUSH1 0x0 PUSH1 0x20 DUP3 ADD SWAP1 POP DUP2 DUP2 SUB PUSH1 0x0 DUP4 ADD MSTORE PUSH2 0x495 DUP2 PUSH2 0x3F3 JUMP JUMPDEST SWAP1 POP SWAP2 SWAP1 POP JUMP JUMPDEST PUSH1 0x0 PUSH1 0x20 DUP3 ADD SWAP1 POP DUP2 DUP2 SUB PUSH1 0x0 DUP4 ADD MSTORE PUSH2 0x4B5 DUP2 PUSH2 0x416 JUMP JUMPDEST SWAP1 POP SWAP2 SWAP1 POP JUMP JUMPDEST PUSH1 0x0 PUSH1 0x20 DUP3 ADD SWAP1 POP DUP2 DUP2 SUB PUSH1 0x0 DUP4 ADD MSTORE PUSH2 0x4D5 DUP2 PUSH2 0x439 JUMP JUMPDEST SWAP1 POP SWAP2 SWAP1 POP JUMP JUMPDEST PUSH1 0x0 DUP3 DUP3 MSTORE PUSH1 0x20 DUP3 ADD SWAP1 POP SWAP3 SWAP2 POP POP JUMP JUMPDEST PUSH32 0x6261626100000000000000000000000000000000000000000000000000000000 PUSH1 0x0 DUP3 ADD MSTORE POP JUMP JUMPDEST PUSH32 0x6D6F64696669657245727A690000000000000000000000000000000000000000 PUSH1 0x0 DUP3 ADD MSTORE POP JUMP JUMPDEST PUSH32 0x65727A6900000000000000000000000000000000000000000000000000000000 PUSH1 0x0 DUP3 ADD MSTORE POP JUMP JUMPDEST PUSH32 0x7965796500000000000000000000000000000000000000000000000000000000 PUSH1 0x0 DUP3 ADD MSTORE POP JUMP INVALID LOG2 PUSH5 0x6970667358 0x22 SLT KECCAK256 0xD6 ORIGIN 0x2D 0xAB PUSH12 0x637D0A44ECCF3EA783CC2338 SWAP10 0xDB 0xC 0xC9 0xE PUSH2 0x911B 0xE6 SDIV 0x1F PUSH9 0x385AD264736F6C6343 STOP ADDMOD SMOD STOP CALLER "
				},
				"gasEstimates": {
					"creation": {
						"codeDepositCost": "295800",
						"executionCost": "337",
						"totalCost": "296137"
					},
					"external": {
						"baba()": "infinite",
						"callParent()": "infinite",
						"callParentSuper()": "infinite",
						"erzi()": "infinite",
						"hip()": "infinite",
						"pop()": "infinite",
						"yeye()": "infinite"
					}
				},
				"methodIdentifiers": {
					"baba()": "fa030ef1",
					"callParent()": "572e47ae",
					"callParentSuper()": "b92a50e0",
					"erzi()": "f44cf061",
					"hip()": "370ea142",
					"pop()": "a4ece52c",
					"yeye()": "0ca21e9c"
				}
			},
			"storageLayout": {
				"storage": [],
				"types": null
			},
			"userdoc": {
				"kind": "user",
				"methods": {},
				"version": 1
			}
		}
	}
}