{
	"contract/wtf/发送eth.sol": {
		"SendETH": {
			"abi": [
				{
					"inputs": [],
					"stateMutability": "payable",
					"type": "constructor"
				},
				{
					"inputs": [],
					"name": "callFailed",
					"type": "error"
				},
				{
					"inputs": [],
					"name": "sendFailed",
					"type": "error"
				},
				{
					"inputs": [
						{
							"internalType": "address payable",
							"name": "_to",
							"type": "address"
						},
						{
							"internalType": "uint256",
							"name": "amount",
							"type": "uint256"
						}
					],
					"name": "callDemo",
					"outputs": [],
					"stateMutability": "payable",
					"type": "function"
				},
				{
					"inputs": [
						{
							"internalType": "address payable",
							"name": "_to",
							"type": "address"
						},
						{
							"internalType": "uint256",
							"name": "amount",
							"type": "uint256"
						}
					],
					"name": "sendDemo",
					"outputs": [],
					"stateMutability": "payable",
					"type": "function"
				},
				{
					"inputs": [
						{
							"internalType": "address payable",
							"name": "_to",
							"type": "address"
						},
						{
							"internalType": "uint256",
							"name": "amount",
							"type": "uint256"
						}
					],
					"name": "transferDemo",
					"outputs": [],
					"stateMutability": "payable",
					"type": "function"
				},
				{
					"stateMutability": "payable",
					"type": "receive"
				}
			],
			"devdoc": {
				"kind": "dev",
				"methods": {},
				"version": 1
			},
			"evm": {
				"assembly": "    /* \"contract/wtf/\\xe5\\x8f\\x91\\xe9\\x80\\x81eth.sol\":444:1320  contract SendETH {... */\n  mstore(0x40, 0x80)\n  dataSize(sub_0)\n  dup1\n  dataOffset(sub_0)\n  0x00\n  codecopy\n  0x00\n  return\nstop\n\nsub_0: assembly {\n        /* \"contract/wtf/\\xe5\\x8f\\x91\\xe9\\x80\\x81eth.sol\":444:1320  contract SendETH {... */\n      mstore(0x40, 0x80)\n      jumpi(tag_1, lt(calldatasize, 0x04))\n      shr(0xe0, calldataload(0x00))\n      dup1\n      0x444c9f09\n      eq\n      tag_3\n      jumpi\n      dup1\n      0xabbe9042\n      eq\n      tag_4\n      jumpi\n      dup1\n      0xb4f8de4f\n      eq\n      tag_5\n      jumpi\n      jump(tag_2)\n    tag_1:\n      jumpi(tag_2, calldatasize)\n      stop\n    tag_2:\n      0x00\n      dup1\n      revert\n        /* \"contract/wtf/\\xe5\\x8f\\x91\\xe9\\x80\\x81eth.sol\":631:764  function transferDemo(address payable _to, uint256 amount)... */\n    tag_3:\n      tag_8\n      0x04\n      dup1\n      calldatasize\n      sub\n      dup2\n      add\n      swap1\n      tag_9\n      swap2\n      swap1\n      tag_10\n      jump\t// in\n    tag_9:\n      tag_11\n      jump\t// in\n    tag_8:\n      stop\n        /* \"contract/wtf/\\xe5\\x8f\\x91\\xe9\\x80\\x81eth.sol\":1116:1318  function callDemo(address payable _to, uint256 amount) external payable {... */\n    tag_4:\n      tag_12\n      0x04\n      dup1\n      calldatasize\n      sub\n      dup2\n      add\n      swap1\n      tag_13\n      swap2\n      swap1\n      tag_10\n      jump\t// in\n    tag_13:\n      tag_14\n      jump\t// in\n    tag_12:\n      stop\n        /* \"contract/wtf/\\xe5\\x8f\\x91\\xe9\\x80\\x81eth.sol\":857:1044  function sendDemo(address payable _to, uint256 amount) external payable {... */\n    tag_5:\n      tag_15\n      0x04\n      dup1\n      calldatasize\n      sub\n      dup2\n      add\n      swap1\n      tag_16\n      swap2\n      swap1\n      tag_10\n      jump\t// in\n    tag_16:\n      tag_17\n      jump\t// in\n    tag_15:\n      stop\n        /* \"contract/wtf/\\xe5\\x8f\\x91\\xe9\\x80\\x81eth.sol\":631:764  function transferDemo(address payable _to, uint256 amount)... */\n    tag_11:\n        /* \"contract/wtf/\\xe5\\x8f\\x91\\xe9\\x80\\x81eth.sol\":737:740  _to */\n      dup2\n        /* \"contract/wtf/\\xe5\\x8f\\x91\\xe9\\x80\\x81eth.sol\":737:749  _to.transfer */\n      0xffffffffffffffffffffffffffffffffffffffff\n      and\n        /* \"contract/wtf/\\xe5\\x8f\\x91\\xe9\\x80\\x81eth.sol\":737:757  _to.transfer(amount) */\n      0x08fc\n        /* \"contract/wtf/\\xe5\\x8f\\x91\\xe9\\x80\\x81eth.sol\":750:756  amount */\n      dup3\n        /* \"contract/wtf/\\xe5\\x8f\\x91\\xe9\\x80\\x81eth.sol\":737:757  _to.transfer(amount) */\n      swap1\n      dup2\n      iszero\n      mul\n      swap1\n      mload(0x40)\n      0x00\n      mload(0x40)\n      dup1\n      dup4\n      sub\n      dup2\n      dup6\n      dup9\n      dup9\n      call\n      swap4\n      pop\n      pop\n      pop\n      pop\n      iszero\n      dup1\n      iszero\n      tag_20\n      jumpi\n      returndatasize\n      0x00\n      dup1\n      returndatacopy\n      revert(0x00, returndatasize)\n    tag_20:\n      pop\n        /* \"contract/wtf/\\xe5\\x8f\\x91\\xe9\\x80\\x81eth.sol\":631:764  function transferDemo(address payable _to, uint256 amount)... */\n      pop\n      pop\n      jump\t// out\n        /* \"contract/wtf/\\xe5\\x8f\\x91\\xe9\\x80\\x81eth.sol\":1116:1318  function callDemo(address payable _to, uint256 amount) external payable {... */\n    tag_14:\n        /* \"contract/wtf/\\xe5\\x8f\\x91\\xe9\\x80\\x81eth.sol\":1199:1211  bool success */\n      0x00\n        /* \"contract/wtf/\\xe5\\x8f\\x91\\xe9\\x80\\x81eth.sol\":1217:1220  _to */\n      dup3\n        /* \"contract/wtf/\\xe5\\x8f\\x91\\xe9\\x80\\x81eth.sol\":1217:1225  _to.call */\n      0xffffffffffffffffffffffffffffffffffffffff\n      and\n        /* \"contract/wtf/\\xe5\\x8f\\x91\\xe9\\x80\\x81eth.sol\":1233:1239  amount */\n      dup3\n        /* \"contract/wtf/\\xe5\\x8f\\x91\\xe9\\x80\\x81eth.sol\":1217:1244  _to.call{value: amount}(\"\") */\n      mload(0x40)\n      tag_22\n      swap1\n      tag_23\n      jump\t// in\n    tag_22:\n      0x00\n      mload(0x40)\n      dup1\n      dup4\n      sub\n      dup2\n      dup6\n      dup8\n      gas\n      call\n      swap3\n      pop\n      pop\n      pop\n      returndatasize\n      dup1\n      0x00\n      dup2\n      eq\n      tag_26\n      jumpi\n      mload(0x40)\n      swap2\n      pop\n      and(add(returndatasize, 0x3f), not(0x1f))\n      dup3\n      add\n      0x40\n      mstore\n      returndatasize\n      dup3\n      mstore\n      returndatasize\n      0x00\n      0x20\n      dup5\n      add\n      returndatacopy\n      jump(tag_25)\n    tag_26:\n      0x60\n      swap2\n      pop\n    tag_25:\n      pop\n        /* \"contract/wtf/\\xe5\\x8f\\x91\\xe9\\x80\\x81eth.sol\":1198:1244  (bool success, ) = _to.call{value: amount}(\"\") */\n      pop\n      swap1\n      pop\n        /* \"contract/wtf/\\xe5\\x8f\\x91\\xe9\\x80\\x81eth.sol\":1259:1266  success */\n      dup1\n        /* \"contract/wtf/\\xe5\\x8f\\x91\\xe9\\x80\\x81eth.sol\":1254:1312  if (!success) {... */\n      tag_27\n      jumpi\n        /* \"contract/wtf/\\xe5\\x8f\\x91\\xe9\\x80\\x81eth.sol\":1289:1301  callFailed() */\n      mload(0x40)\n      0x2bfecd3900000000000000000000000000000000000000000000000000000000\n      dup2\n      mstore\n      0x04\n      add\n      mload(0x40)\n      dup1\n      swap2\n      sub\n      swap1\n      revert\n        /* \"contract/wtf/\\xe5\\x8f\\x91\\xe9\\x80\\x81eth.sol\":1254:1312  if (!success) {... */\n    tag_27:\n        /* \"contract/wtf/\\xe5\\x8f\\x91\\xe9\\x80\\x81eth.sol\":1188:1318  {... */\n      pop\n        /* \"contract/wtf/\\xe5\\x8f\\x91\\xe9\\x80\\x81eth.sol\":1116:1318  function callDemo(address payable _to, uint256 amount) external payable {... */\n      pop\n      pop\n      jump\t// out\n        /* \"contract/wtf/\\xe5\\x8f\\x91\\xe9\\x80\\x81eth.sol\":857:1044  function sendDemo(address payable _to, uint256 amount) external payable {... */\n    tag_17:\n        /* \"contract/wtf/\\xe5\\x8f\\x91\\xe9\\x80\\x81eth.sol\":939:951  bool success */\n      0x00\n        /* \"contract/wtf/\\xe5\\x8f\\x91\\xe9\\x80\\x81eth.sol\":954:957  _to */\n      dup3\n        /* \"contract/wtf/\\xe5\\x8f\\x91\\xe9\\x80\\x81eth.sol\":954:962  _to.send */\n      0xffffffffffffffffffffffffffffffffffffffff\n      and\n        /* \"contract/wtf/\\xe5\\x8f\\x91\\xe9\\x80\\x81eth.sol\":954:970  _to.send(amount) */\n      0x08fc\n        /* \"contract/wtf/\\xe5\\x8f\\x91\\xe9\\x80\\x81eth.sol\":963:969  amount */\n      dup4\n        /* \"contract/wtf/\\xe5\\x8f\\x91\\xe9\\x80\\x81eth.sol\":954:970  _to.send(amount) */\n      swap1\n      dup2\n      iszero\n      mul\n      swap1\n      mload(0x40)\n      0x00\n      mload(0x40)\n      dup1\n      dup4\n      sub\n      dup2\n      dup6\n      dup9\n      dup9\n      call\n      swap4\n      pop\n      pop\n      pop\n      pop\n        /* \"contract/wtf/\\xe5\\x8f\\x91\\xe9\\x80\\x81eth.sol\":939:970  bool success = _to.send(amount) */\n      swap1\n      pop\n        /* \"contract/wtf/\\xe5\\x8f\\x91\\xe9\\x80\\x81eth.sol\":985:992  success */\n      dup1\n        /* \"contract/wtf/\\xe5\\x8f\\x91\\xe9\\x80\\x81eth.sol\":980:1038  if (!success) {... */\n      tag_30\n      jumpi\n        /* \"contract/wtf/\\xe5\\x8f\\x91\\xe9\\x80\\x81eth.sol\":1015:1027  sendFailed() */\n      mload(0x40)\n      0x0b08eaa200000000000000000000000000000000000000000000000000000000\n      dup2\n      mstore\n      0x04\n      add\n      mload(0x40)\n      dup1\n      swap2\n      sub\n      swap1\n      revert\n        /* \"contract/wtf/\\xe5\\x8f\\x91\\xe9\\x80\\x81eth.sol\":980:1038  if (!success) {... */\n    tag_30:\n        /* \"contract/wtf/\\xe5\\x8f\\x91\\xe9\\x80\\x81eth.sol\":929:1044  {... */\n      pop\n        /* \"contract/wtf/\\xe5\\x8f\\x91\\xe9\\x80\\x81eth.sol\":857:1044  function sendDemo(address payable _to, uint256 amount) external payable {... */\n      pop\n      pop\n      jump\t// out\n        /* \"#utility.yul\":7:162   */\n    tag_32:\n        /* \"#utility.yul\":61:66   */\n      0x00\n        /* \"#utility.yul\":99:105   */\n      dup2\n        /* \"#utility.yul\":86:106   */\n      calldataload\n        /* \"#utility.yul\":77:106   */\n      swap1\n      pop\n        /* \"#utility.yul\":115:156   */\n      tag_34\n        /* \"#utility.yul\":150:155   */\n      dup2\n        /* \"#utility.yul\":115:156   */\n      tag_35\n      jump\t// in\n    tag_34:\n        /* \"#utility.yul\":7:162   */\n      swap3\n      swap2\n      pop\n      pop\n      jump\t// out\n        /* \"#utility.yul\":168:307   */\n    tag_36:\n        /* \"#utility.yul\":214:219   */\n      0x00\n        /* \"#utility.yul\":252:258   */\n      dup2\n        /* \"#utility.yul\":239:259   */\n      calldataload\n        /* \"#utility.yul\":230:259   */\n      swap1\n      pop\n        /* \"#utility.yul\":268:301   */\n      tag_38\n        /* \"#utility.yul\":295:300   */\n      dup2\n        /* \"#utility.yul\":268:301   */\n      tag_39\n      jump\t// in\n    tag_38:\n        /* \"#utility.yul\":168:307   */\n      swap3\n      swap2\n      pop\n      pop\n      jump\t// out\n        /* \"#utility.yul\":313:803   */\n    tag_10:\n        /* \"#utility.yul\":389:395   */\n      0x00\n        /* \"#utility.yul\":397:403   */\n      dup1\n        /* \"#utility.yul\":446:448   */\n      0x40\n        /* \"#utility.yul\":434:443   */\n      dup4\n        /* \"#utility.yul\":425:432   */\n      dup6\n        /* \"#utility.yul\":421:444   */\n      sub\n        /* \"#utility.yul\":417:449   */\n      slt\n        /* \"#utility.yul\":414:533   */\n      iszero\n      tag_41\n      jumpi\n        /* \"#utility.yul\":452:531   */\n      tag_42\n      tag_43\n      jump\t// in\n    tag_42:\n        /* \"#utility.yul\":414:533   */\n    tag_41:\n        /* \"#utility.yul\":572:573   */\n      0x00\n        /* \"#utility.yul\":597:658   */\n      tag_44\n        /* \"#utility.yul\":650:657   */\n      dup6\n        /* \"#utility.yul\":641:647   */\n      dup3\n        /* \"#utility.yul\":630:639   */\n      dup7\n        /* \"#utility.yul\":626:648   */\n      add\n        /* \"#utility.yul\":597:658   */\n      tag_32\n      jump\t// in\n    tag_44:\n        /* \"#utility.yul\":587:658   */\n      swap3\n      pop\n        /* \"#utility.yul\":543:668   */\n      pop\n        /* \"#utility.yul\":707:709   */\n      0x20\n        /* \"#utility.yul\":733:786   */\n      tag_45\n        /* \"#utility.yul\":778:785   */\n      dup6\n        /* \"#utility.yul\":769:775   */\n      dup3\n        /* \"#utility.yul\":758:767   */\n      dup7\n        /* \"#utility.yul\":754:776   */\n      add\n        /* \"#utility.yul\":733:786   */\n      tag_36\n      jump\t// in\n    tag_45:\n        /* \"#utility.yul\":723:786   */\n      swap2\n      pop\n        /* \"#utility.yul\":678:796   */\n      pop\n        /* \"#utility.yul\":313:803   */\n      swap3\n      pop\n      swap3\n      swap1\n      pop\n      jump\t// out\n        /* \"#utility.yul\":809:1207   */\n    tag_46:\n        /* \"#utility.yul\":968:971   */\n      0x00\n        /* \"#utility.yul\":989:1072   */\n      tag_48\n        /* \"#utility.yul\":1070:1071   */\n      0x00\n        /* \"#utility.yul\":1065:1068   */\n      dup4\n        /* \"#utility.yul\":989:1072   */\n      tag_49\n      jump\t// in\n    tag_48:\n        /* \"#utility.yul\":982:1072   */\n      swap2\n      pop\n        /* \"#utility.yul\":1081:1174   */\n      tag_50\n        /* \"#utility.yul\":1170:1173   */\n      dup3\n        /* \"#utility.yul\":1081:1174   */\n      tag_51\n      jump\t// in\n    tag_50:\n        /* \"#utility.yul\":1199:1200   */\n      0x00\n        /* \"#utility.yul\":1194:1197   */\n      dup3\n        /* \"#utility.yul\":1190:1201   */\n      add\n        /* \"#utility.yul\":1183:1201   */\n      swap1\n      pop\n        /* \"#utility.yul\":809:1207   */\n      swap2\n      swap1\n      pop\n      jump\t// out\n        /* \"#utility.yul\":1213:1592   */\n    tag_23:\n        /* \"#utility.yul\":1397:1400   */\n      0x00\n        /* \"#utility.yul\":1419:1566   */\n      tag_53\n        /* \"#utility.yul\":1562:1565   */\n      dup3\n        /* \"#utility.yul\":1419:1566   */\n      tag_46\n      jump\t// in\n    tag_53:\n        /* \"#utility.yul\":1412:1566   */\n      swap2\n      pop\n        /* \"#utility.yul\":1583:1586   */\n      dup2\n        /* \"#utility.yul\":1576:1586   */\n      swap1\n      pop\n        /* \"#utility.yul\":1213:1592   */\n      swap2\n      swap1\n      pop\n      jump\t// out\n        /* \"#utility.yul\":1679:1826   */\n    tag_49:\n        /* \"#utility.yul\":1780:1791   */\n      0x00\n        /* \"#utility.yul\":1817:1820   */\n      dup2\n        /* \"#utility.yul\":1802:1820   */\n      swap1\n      pop\n        /* \"#utility.yul\":1679:1826   */\n      swap3\n      swap2\n      pop\n      pop\n      jump\t// out\n        /* \"#utility.yul\":1832:1936   */\n    tag_57:\n        /* \"#utility.yul\":1877:1884   */\n      0x00\n        /* \"#utility.yul\":1906:1930   */\n      tag_59\n        /* \"#utility.yul\":1924:1929   */\n      dup3\n        /* \"#utility.yul\":1906:1930   */\n      tag_60\n      jump\t// in\n    tag_59:\n        /* \"#utility.yul\":1895:1930   */\n      swap1\n      pop\n        /* \"#utility.yul\":1832:1936   */\n      swap2\n      swap1\n      pop\n      jump\t// out\n        /* \"#utility.yul\":1942:2068   */\n    tag_60:\n        /* \"#utility.yul\":1979:1986   */\n      0x00\n        /* \"#utility.yul\":2019:2061   */\n      0xffffffffffffffffffffffffffffffffffffffff\n        /* \"#utility.yul\":2012:2017   */\n      dup3\n        /* \"#utility.yul\":2008:2062   */\n      and\n        /* \"#utility.yul\":1997:2062   */\n      swap1\n      pop\n        /* \"#utility.yul\":1942:2068   */\n      swap2\n      swap1\n      pop\n      jump\t// out\n        /* \"#utility.yul\":2074:2151   */\n    tag_62:\n        /* \"#utility.yul\":2111:2118   */\n      0x00\n        /* \"#utility.yul\":2140:2145   */\n      dup2\n        /* \"#utility.yul\":2129:2145   */\n      swap1\n      pop\n        /* \"#utility.yul\":2074:2151   */\n      swap2\n      swap1\n      pop\n      jump\t// out\n        /* \"#utility.yul\":2280:2397   */\n    tag_43:\n        /* \"#utility.yul\":2389:2390   */\n      0x00\n        /* \"#utility.yul\":2386:2387   */\n      dup1\n        /* \"#utility.yul\":2379:2391   */\n      revert\n        /* \"#utility.yul\":2403:2517   */\n    tag_51:\n      pop\n      jump\t// out\n        /* \"#utility.yul\":2523:2661   */\n    tag_35:\n        /* \"#utility.yul\":2604:2636   */\n      tag_69\n        /* \"#utility.yul\":2630:2635   */\n      dup2\n        /* \"#utility.yul\":2604:2636   */\n      tag_57\n      jump\t// in\n    tag_69:\n        /* \"#utility.yul\":2597:2602   */\n      dup2\n        /* \"#utility.yul\":2594:2637   */\n      eq\n        /* \"#utility.yul\":2584:2655   */\n      tag_70\n      jumpi\n        /* \"#utility.yul\":2651:2652   */\n      0x00\n        /* \"#utility.yul\":2648:2649   */\n      dup1\n        /* \"#utility.yul\":2641:2653   */\n      revert\n        /* \"#utility.yul\":2584:2655   */\n    tag_70:\n        /* \"#utility.yul\":2523:2661   */\n      pop\n      jump\t// out\n        /* \"#utility.yul\":2667:2789   */\n    tag_39:\n        /* \"#utility.yul\":2740:2764   */\n      tag_72\n        /* \"#utility.yul\":2758:2763   */\n      dup2\n        /* \"#utility.yul\":2740:2764   */\n      tag_62\n      jump\t// in\n    tag_72:\n        /* \"#utility.yul\":2733:2738   */\n      dup2\n        /* \"#utility.yul\":2730:2765   */\n      eq\n        /* \"#utility.yul\":2720:2783   */\n      tag_73\n      jumpi\n        /* \"#utility.yul\":2779:2780   */\n      0x00\n        /* \"#utility.yul\":2776:2777   */\n      dup1\n        /* \"#utility.yul\":2769:2781   */\n      revert\n        /* \"#utility.yul\":2720:2783   */\n    tag_73:\n        /* \"#utility.yul\":2667:2789   */\n      pop\n      jump\t// out\n\n    auxdata: 0xa2646970667358221220aa8ae1ef3f7f769bbe62add1a3b664c757ec3dd00ba1ae8bd8c0e53481352f8a64736f6c63430008070033\n}\n",
				"bytecode": {
					"linkReferences": {},
					"object": "6080604052610355806100136000396000f3fe6080604052600436106100385760003560e01c8063444c9f0914610044578063abbe904214610060578063b4f8de4f1461007c5761003f565b3661003f57005b600080fd5b61005e6004803603810190610059919061022a565b610098565b005b61007a6004803603810190610075919061022a565b6100e3565b005b6100966004803603810190610091919061022a565b61018b565b005b8173ffffffffffffffffffffffffffffffffffffffff166108fc829081150290604051600060405180830381858888f193505050501580156100de573d6000803e3d6000fd5b505050565b60008273ffffffffffffffffffffffffffffffffffffffff16826040516101099061028d565b60006040518083038185875af1925050503d8060008114610146576040519150601f19603f3d011682016040523d82523d6000602084013e61014b565b606091505b5050905080610186576040517f2bfecd3900000000000000000000000000000000000000000000000000000000815260040160405180910390fd5b505050565b60008273ffffffffffffffffffffffffffffffffffffffff166108fc839081150290604051600060405180830381858888f193505050509050806101fb576040517f0b08eaa200000000000000000000000000000000000000000000000000000000815260040160405180910390fd5b505050565b60008135905061020f816102f1565b92915050565b60008135905061022481610308565b92915050565b60008060408385031215610241576102406102e9565b5b600061024f85828601610200565b925050602061026085828601610215565b9150509250929050565b60006102776000836102a2565b9150610282826102ee565b600082019050919050565b60006102988261026a565b9150819050919050565b600081905092915050565b60006102b8826102bf565b9050919050565b600073ffffffffffffffffffffffffffffffffffffffff82169050919050565b6000819050919050565b600080fd5b50565b6102fa816102ad565b811461030557600080fd5b50565b610311816102df565b811461031c57600080fd5b5056fea2646970667358221220aa8ae1ef3f7f769bbe62add1a3b664c757ec3dd00ba1ae8bd8c0e53481352f8a64736f6c63430008070033",
					"opcodes": "PUSH1 0x80 PUSH1 0x40 MSTORE PUSH2 0x355 DUP1 PUSH2 0x13 PUSH1 0x0 CODECOPY PUSH1 0x0 RETURN INVALID PUSH1 0x80 PUSH1 0x40 MSTORE PUSH1 0x4 CALLDATASIZE LT PUSH2 0x38 JUMPI PUSH1 0x0 CALLDATALOAD PUSH1 0xE0 SHR DUP1 PUSH4 0x444C9F09 EQ PUSH2 0x44 JUMPI DUP1 PUSH4 0xABBE9042 EQ PUSH2 0x60 JUMPI DUP1 PUSH4 0xB4F8DE4F EQ PUSH2 0x7C JUMPI PUSH2 0x3F JUMP JUMPDEST CALLDATASIZE PUSH2 0x3F JUMPI STOP JUMPDEST PUSH1 0x0 DUP1 REVERT JUMPDEST PUSH2 0x5E PUSH1 0x4 DUP1 CALLDATASIZE SUB DUP2 ADD SWAP1 PUSH2 0x59 SWAP2 SWAP1 PUSH2 0x22A JUMP JUMPDEST PUSH2 0x98 JUMP JUMPDEST STOP JUMPDEST PUSH2 0x7A PUSH1 0x4 DUP1 CALLDATASIZE SUB DUP2 ADD SWAP1 PUSH2 0x75 SWAP2 SWAP1 PUSH2 0x22A JUMP JUMPDEST PUSH2 0xE3 JUMP JUMPDEST STOP JUMPDEST PUSH2 0x96 PUSH1 0x4 DUP1 CALLDATASIZE SUB DUP2 ADD SWAP1 PUSH2 0x91 SWAP2 SWAP1 PUSH2 0x22A JUMP JUMPDEST PUSH2 0x18B JUMP JUMPDEST STOP JUMPDEST DUP2 PUSH20 0xFFFFFFFFFFFFFFFFFFFFFFFFFFFFFFFFFFFFFFFF AND PUSH2 0x8FC DUP3 SWAP1 DUP2 ISZERO MUL SWAP1 PUSH1 0x40 MLOAD PUSH1 0x0 PUSH1 0x40 MLOAD DUP1 DUP4 SUB DUP2 DUP6 DUP9 DUP9 CALL SWAP4 POP POP POP POP ISZERO DUP1 ISZERO PUSH2 0xDE JUMPI RETURNDATASIZE PUSH1 0x0 DUP1 RETURNDATACOPY RETURNDATASIZE PUSH1 0x0 REVERT JUMPDEST POP POP POP JUMP JUMPDEST PUSH1 0x0 DUP3 PUSH20 0xFFFFFFFFFFFFFFFFFFFFFFFFFFFFFFFFFFFFFFFF AND DUP3 PUSH1 0x40 MLOAD PUSH2 0x109 SWAP1 PUSH2 0x28D JUMP JUMPDEST PUSH1 0x0 PUSH1 0x40 MLOAD DUP1 DUP4 SUB DUP2 DUP6 DUP8 GAS CALL SWAP3 POP POP POP RETURNDATASIZE DUP1 PUSH1 0x0 DUP2 EQ PUSH2 0x146 JUMPI PUSH1 0x40 MLOAD SWAP2 POP PUSH1 0x1F NOT PUSH1 0x3F RETURNDATASIZE ADD AND DUP3 ADD PUSH1 0x40 MSTORE RETURNDATASIZE DUP3 MSTORE RETURNDATASIZE PUSH1 0x0 PUSH1 0x20 DUP5 ADD RETURNDATACOPY PUSH2 0x14B JUMP JUMPDEST PUSH1 0x60 SWAP2 POP JUMPDEST POP POP SWAP1 POP DUP1 PUSH2 0x186 JUMPI PUSH1 0x40 MLOAD PUSH32 0x2BFECD3900000000000000000000000000000000000000000000000000000000 DUP2 MSTORE PUSH1 0x4 ADD PUSH1 0x40 MLOAD DUP1 SWAP2 SUB SWAP1 REVERT JUMPDEST POP POP POP JUMP JUMPDEST PUSH1 0x0 DUP3 PUSH20 0xFFFFFFFFFFFFFFFFFFFFFFFFFFFFFFFFFFFFFFFF AND PUSH2 0x8FC DUP4 SWAP1 DUP2 ISZERO MUL SWAP1 PUSH1 0x40 MLOAD PUSH1 0x0 PUSH1 0x40 MLOAD DUP1 DUP4 SUB DUP2 DUP6 DUP9 DUP9 CALL SWAP4 POP POP POP POP SWAP1 POP DUP1 PUSH2 0x1FB JUMPI PUSH1 0x40 MLOAD PUSH32 0xB08EAA200000000000000000000000000000000000000000000000000000000 DUP2 MSTORE PUSH1 0x4 ADD PUSH1 0x40 MLOAD DUP1 SWAP2 SUB SWAP1 REVERT JUMPDEST POP POP POP JUMP JUMPDEST PUSH1 0x0 DUP2 CALLDATALOAD SWAP1 POP PUSH2 0x20F DUP2 PUSH2 0x2F1 JUMP JUMPDEST SWAP3 SWAP2 POP POP JUMP JUMPDEST PUSH1 0x0 DUP2 CALLDATALOAD SWAP1 POP PUSH2 0x224 DUP2 PUSH2 0x308 JUMP JUMPDEST SWAP3 SWAP2 POP POP JUMP JUMPDEST PUSH1 0x0 DUP1 PUSH1 0x40 DUP4 DUP6 SUB SLT ISZERO PUSH2 0x241 JUMPI PUSH2 0x240 PUSH2 0x2E9 JUMP JUMPDEST JUMPDEST PUSH1 0x0 PUSH2 0x24F DUP6 DUP3 DUP7 ADD PUSH2 0x200 JUMP JUMPDEST SWAP3 POP POP PUSH1 0x20 PUSH2 0x260 DUP6 DUP3 DUP7 ADD PUSH2 0x215 JUMP JUMPDEST SWAP2 POP POP SWAP3 POP SWAP3 SWAP1 POP JUMP JUMPDEST PUSH1 0x0 PUSH2 0x277 PUSH1 0x0 DUP4 PUSH2 0x2A2 JUMP JUMPDEST SWAP2 POP PUSH2 0x282 DUP3 PUSH2 0x2EE JUMP JUMPDEST PUSH1 0x0 DUP3 ADD SWAP1 POP SWAP2 SWAP1 POP JUMP JUMPDEST PUSH1 0x0 PUSH2 0x298 DUP3 PUSH2 0x26A JUMP JUMPDEST SWAP2 POP DUP2 SWAP1 POP SWAP2 SWAP1 POP JUMP JUMPDEST PUSH1 0x0 DUP2 SWAP1 POP SWAP3 SWAP2 POP POP JUMP JUMPDEST PUSH1 0x0 PUSH2 0x2B8 DUP3 PUSH2 0x2BF JUMP JUMPDEST SWAP1 POP SWAP2 SWAP1 POP JUMP JUMPDEST PUSH1 0x0 PUSH20 0xFFFFFFFFFFFFFFFFFFFFFFFFFFFFFFFFFFFFFFFF DUP3 AND SWAP1 POP SWAP2 SWAP1 POP JUMP JUMPDEST PUSH1 0x0 DUP2 SWAP1 POP SWAP2 SWAP1 POP JUMP JUMPDEST PUSH1 0x0 DUP1 REVERT JUMPDEST POP JUMP JUMPDEST PUSH2 0x2FA DUP2 PUSH2 0x2AD JUMP JUMPDEST DUP2 EQ PUSH2 0x305 JUMPI PUSH1 0x0 DUP1 REVERT JUMPDEST POP JUMP JUMPDEST PUSH2 0x311 DUP2 PUSH2 0x2DF JUMP JUMPDEST DUP2 EQ PUSH2 0x31C JUMPI PUSH1 0x0 DUP1 REVERT JUMPDEST POP JUMP INVALID LOG2 PUSH5 0x6970667358 0x22 SLT KECCAK256 0xAA DUP11 0xE1 0xEF EXTCODEHASH PUSH32 0x769BBE62ADD1A3B664C757EC3DD00BA1AE8BD8C0E53481352F8A64736F6C6343 STOP ADDMOD SMOD STOP CALLER "
				},
				"gasEstimates": {
					"creation": {
						"codeDepositCost": "170600",
						"executionCost": "190",
						"totalCost": "170790"
					},
					"external": {
						"callDemo(address,uint256)": "infinite",
						"sendDemo(address,uint256)": "infinite",
						"transferDemo(address,uint256)": "infinite"
					}
				},
				"methodIdentifiers": {
					"callDemo(address,uint256)": "abbe9042",
					"sendDemo(address,uint256)": "b4f8de4f",
					"transferDemo(address,uint256)": "444c9f09"
				}
			},
			"storageLayout": {
				"storage": [],
				"types": null
			},
			"userdoc": {
				"kind": "user",
				"methods": {},
				"version": 1
			}
		}
	}
}