{
	"contract/wtf/继承.sol": {
		"Erzi": {
			"abi": [
				{
					"anonymous": false,
					"inputs": [
						{
							"indexed": false,
							"internalType": "string",
							"name": "",
							"type": "string"
						}
					],
					"name": "Log",
					"type": "event"
				},
				{
					"inputs": [],
					"name": "baba",
					"outputs": [],
					"stateMutability": "nonpayable",
					"type": "function"
				},
				{
					"inputs": [],
					"name": "erzi",
					"outputs": [],
					"stateMutability": "nonpayable",
					"type": "function"
				},
				{
					"inputs": [],
					"name": "hip",
					"outputs": [],
					"stateMutability": "nonpayable",
					"type": "function"
				},
				{
					"inputs": [],
					"name": "pop",
					"outputs": [],
					"stateMutability": "nonpayable",
					"type": "function"
				},
				{
					"inputs": [],
					"name": "yeye",
					"outputs": [],
					"stateMutability": "nonpayable",
					"type": "function"
				}
			],
			"devdoc": {
				"kind": "dev",
				"methods": {},
				"version": 1
			},
			"evm": {
				"assembly": "    /* \"contract/wtf/\\xe7\\xbb\\xa7\\xe6\\x89\\xbf.sol\":811:1207  contract Erzi is Yeye, Baba {... */\n  mstore(0x40, 0x80)\n  callvalue\n  dup1\n  iszero\n  tag_1\n  jumpi\n  0x00\n  dup1\n  revert\ntag_1:\n  pop\n  dataSize(sub_0)\n  dup1\n  dataOffset(sub_0)\n  0x00\n  codecopy\n  0x00\n  return\nstop\n\nsub_0: assembly {\n        /* \"contract/wtf/\\xe7\\xbb\\xa7\\xe6\\x89\\xbf.sol\":811:1207  contract Erzi is Yeye, Baba {... */\n      mstore(0x40, 0x80)\n      callvalue\n      dup1\n      iszero\n      tag_1\n      jumpi\n      0x00\n      dup1\n      revert\n    tag_1:\n      pop\n      jumpi(tag_2, lt(calldatasize, 0x04))\n      shr(0xe0, calldataload(0x00))\n      dup1\n      0x0ca21e9c\n      eq\n      tag_3\n      jumpi\n      dup1\n      0x370ea142\n      eq\n      tag_4\n      jumpi\n      dup1\n      0xa4ece52c\n      eq\n      tag_5\n      jumpi\n      dup1\n      0xf44cf061\n      eq\n      tag_6\n      jumpi\n      dup1\n      0xfa030ef1\n      eq\n      tag_7\n      jumpi\n    tag_2:\n      0x00\n      dup1\n      revert\n        /* \"contract/wtf/\\xe7\\xbb\\xa7\\xe6\\x89\\xbf.sol\":270:339  function yeye() external myModifier {... */\n    tag_3:\n      tag_8\n      tag_9\n      jump\t// in\n    tag_8:\n      stop\n        /* \"contract/wtf/\\xe7\\xbb\\xa7\\xe6\\x89\\xbf.sol\":845:934  function hip() external override(Yeye, Baba) myModifier {... */\n    tag_4:\n      tag_10\n      tag_11\n      jump\t// in\n    tag_10:\n      stop\n        /* \"contract/wtf/\\xe7\\xbb\\xa7\\xe6\\x89\\xbf.sol\":940:1029  function pop() external override(Baba, Yeye) myModifier {... */\n    tag_5:\n      tag_12\n      tag_13\n      jump\t// in\n    tag_12:\n      stop\n        /* \"contract/wtf/\\xe7\\xbb\\xa7\\xe6\\x89\\xbf.sol\":1035:1104  function erzi() external myModifier {... */\n    tag_6:\n      tag_14\n      tag_15\n      jump\t// in\n    tag_14:\n      stop\n        /* \"contract/wtf/\\xe7\\xbb\\xa7\\xe6\\x89\\xbf.sol\":641:710  function baba() external myModifier {... */\n    tag_7:\n      tag_16\n      tag_17\n      jump\t// in\n    tag_16:\n      stop\n        /* \"contract/wtf/\\xe7\\xbb\\xa7\\xe6\\x89\\xbf.sol\":270:339  function yeye() external myModifier {... */\n    tag_9:\n        /* \"contract/wtf/\\xe7\\xbb\\xa7\\xe6\\x89\\xbf.sol\":1168:1187  Log(\"modifierErzi\") */\n      0xcf34ef537ac33ee1ac626ca1587a0a7e8e51561e5514f8cb36afa1c5102b3bab\n      mload(0x40)\n      tag_19\n      swap1\n      tag_20\n      jump\t// in\n    tag_19:\n      mload(0x40)\n      dup1\n      swap2\n      sub\n      swap1\n      log1\n        /* \"contract/wtf/\\xe7\\xbb\\xa7\\xe6\\x89\\xbf.sol\":321:332  Log(\"yeye\") */\n      0xcf34ef537ac33ee1ac626ca1587a0a7e8e51561e5514f8cb36afa1c5102b3bab\n      mload(0x40)\n      tag_22\n      swap1\n      tag_23\n      jump\t// in\n    tag_22:\n      mload(0x40)\n      dup1\n      swap2\n      sub\n      swap1\n      log1\n        /* \"contract/wtf/\\xe7\\xbb\\xa7\\xe6\\x89\\xbf.sol\":270:339  function yeye() external myModifier {... */\n      jump\t// out\n        /* \"contract/wtf/\\xe7\\xbb\\xa7\\xe6\\x89\\xbf.sol\":845:934  function hip() external override(Yeye, Baba) myModifier {... */\n    tag_11:\n        /* \"contract/wtf/\\xe7\\xbb\\xa7\\xe6\\x89\\xbf.sol\":1168:1187  Log(\"modifierErzi\") */\n      0xcf34ef537ac33ee1ac626ca1587a0a7e8e51561e5514f8cb36afa1c5102b3bab\n      mload(0x40)\n      tag_25\n      swap1\n      tag_20\n      jump\t// in\n    tag_25:\n      mload(0x40)\n      dup1\n      swap2\n      sub\n      swap1\n      log1\n        /* \"contract/wtf/\\xe7\\xbb\\xa7\\xe6\\x89\\xbf.sol\":916:927  Log(\"erzi\") */\n      0xcf34ef537ac33ee1ac626ca1587a0a7e8e51561e5514f8cb36afa1c5102b3bab\n      mload(0x40)\n      tag_27\n      swap1\n      tag_28\n      jump\t// in\n    tag_27:\n      mload(0x40)\n      dup1\n      swap2\n      sub\n      swap1\n      log1\n        /* \"contract/wtf/\\xe7\\xbb\\xa7\\xe6\\x89\\xbf.sol\":845:934  function hip() external override(Yeye, Baba) myModifier {... */\n      jump\t// out\n        /* \"contract/wtf/\\xe7\\xbb\\xa7\\xe6\\x89\\xbf.sol\":940:1029  function pop() external override(Baba, Yeye) myModifier {... */\n    tag_13:\n        /* \"contract/wtf/\\xe7\\xbb\\xa7\\xe6\\x89\\xbf.sol\":1168:1187  Log(\"modifierErzi\") */\n      0xcf34ef537ac33ee1ac626ca1587a0a7e8e51561e5514f8cb36afa1c5102b3bab\n      mload(0x40)\n      tag_30\n      swap1\n      tag_20\n      jump\t// in\n    tag_30:\n      mload(0x40)\n      dup1\n      swap2\n      sub\n      swap1\n      log1\n        /* \"contract/wtf/\\xe7\\xbb\\xa7\\xe6\\x89\\xbf.sol\":1011:1022  Log(\"erzi\") */\n      0xcf34ef537ac33ee1ac626ca1587a0a7e8e51561e5514f8cb36afa1c5102b3bab\n      mload(0x40)\n      tag_32\n      swap1\n      tag_28\n      jump\t// in\n    tag_32:\n      mload(0x40)\n      dup1\n      swap2\n      sub\n      swap1\n      log1\n        /* \"contract/wtf/\\xe7\\xbb\\xa7\\xe6\\x89\\xbf.sol\":940:1029  function pop() external override(Baba, Yeye) myModifier {... */\n      jump\t// out\n        /* \"contract/wtf/\\xe7\\xbb\\xa7\\xe6\\x89\\xbf.sol\":1035:1104  function erzi() external myModifier {... */\n    tag_15:\n        /* \"contract/wtf/\\xe7\\xbb\\xa7\\xe6\\x89\\xbf.sol\":1168:1187  Log(\"modifierErzi\") */\n      0xcf34ef537ac33ee1ac626ca1587a0a7e8e51561e5514f8cb36afa1c5102b3bab\n      mload(0x40)\n      tag_34\n      swap1\n      tag_20\n      jump\t// in\n    tag_34:\n      mload(0x40)\n      dup1\n      swap2\n      sub\n      swap1\n      log1\n        /* \"contract/wtf/\\xe7\\xbb\\xa7\\xe6\\x89\\xbf.sol\":1086:1097  Log(\"erzi\") */\n      0xcf34ef537ac33ee1ac626ca1587a0a7e8e51561e5514f8cb36afa1c5102b3bab\n      mload(0x40)\n      tag_36\n      swap1\n      tag_28\n      jump\t// in\n    tag_36:\n      mload(0x40)\n      dup1\n      swap2\n      sub\n      swap1\n      log1\n        /* \"contract/wtf/\\xe7\\xbb\\xa7\\xe6\\x89\\xbf.sol\":1035:1104  function erzi() external myModifier {... */\n      jump\t// out\n        /* \"contract/wtf/\\xe7\\xbb\\xa7\\xe6\\x89\\xbf.sol\":641:710  function baba() external myModifier {... */\n    tag_17:\n        /* \"contract/wtf/\\xe7\\xbb\\xa7\\xe6\\x89\\xbf.sol\":1168:1187  Log(\"modifierErzi\") */\n      0xcf34ef537ac33ee1ac626ca1587a0a7e8e51561e5514f8cb36afa1c5102b3bab\n      mload(0x40)\n      tag_38\n      swap1\n      tag_20\n      jump\t// in\n    tag_38:\n      mload(0x40)\n      dup1\n      swap2\n      sub\n      swap1\n      log1\n        /* \"contract/wtf/\\xe7\\xbb\\xa7\\xe6\\x89\\xbf.sol\":692:703  Log(\"baba\") */\n      0xcf34ef537ac33ee1ac626ca1587a0a7e8e51561e5514f8cb36afa1c5102b3bab\n      mload(0x40)\n      tag_40\n      swap1\n      tag_41\n      jump\t// in\n    tag_40:\n      mload(0x40)\n      dup1\n      swap2\n      sub\n      swap1\n      log1\n        /* \"contract/wtf/\\xe7\\xbb\\xa7\\xe6\\x89\\xbf.sol\":641:710  function baba() external myModifier {... */\n      jump\t// out\n        /* \"#utility.yul\":7:372   */\n    tag_43:\n        /* \"#utility.yul\":149:152   */\n      0x00\n        /* \"#utility.yul\":170:236   */\n      tag_45\n        /* \"#utility.yul\":234:235   */\n      0x04\n        /* \"#utility.yul\":229:232   */\n      dup4\n        /* \"#utility.yul\":170:236   */\n      tag_46\n      jump\t// in\n    tag_45:\n        /* \"#utility.yul\":163:236   */\n      swap2\n      pop\n        /* \"#utility.yul\":245:338   */\n      tag_47\n        /* \"#utility.yul\":334:337   */\n      dup3\n        /* \"#utility.yul\":245:338   */\n      tag_48\n      jump\t// in\n    tag_47:\n        /* \"#utility.yul\":363:365   */\n      0x20\n        /* \"#utility.yul\":358:361   */\n      dup3\n        /* \"#utility.yul\":354:366   */\n      add\n        /* \"#utility.yul\":347:366   */\n      swap1\n      pop\n        /* \"#utility.yul\":7:372   */\n      swap2\n      swap1\n      pop\n      jump\t// out\n        /* \"#utility.yul\":378:744   */\n    tag_49:\n        /* \"#utility.yul\":520:523   */\n      0x00\n        /* \"#utility.yul\":541:608   */\n      tag_51\n        /* \"#utility.yul\":605:607   */\n      0x0c\n        /* \"#utility.yul\":600:603   */\n      dup4\n        /* \"#utility.yul\":541:608   */\n      tag_46\n      jump\t// in\n    tag_51:\n        /* \"#utility.yul\":534:608   */\n      swap2\n      pop\n        /* \"#utility.yul\":617:710   */\n      tag_52\n        /* \"#utility.yul\":706:709   */\n      dup3\n        /* \"#utility.yul\":617:710   */\n      tag_53\n      jump\t// in\n    tag_52:\n        /* \"#utility.yul\":735:737   */\n      0x20\n        /* \"#utility.yul\":730:733   */\n      dup3\n        /* \"#utility.yul\":726:738   */\n      add\n        /* \"#utility.yul\":719:738   */\n      swap1\n      pop\n        /* \"#utility.yul\":378:744   */\n      swap2\n      swap1\n      pop\n      jump\t// out\n        /* \"#utility.yul\":750:1115   */\n    tag_54:\n        /* \"#utility.yul\":892:895   */\n      0x00\n        /* \"#utility.yul\":913:979   */\n      tag_56\n        /* \"#utility.yul\":977:978   */\n      0x04\n        /* \"#utility.yul\":972:975   */\n      dup4\n        /* \"#utility.yul\":913:979   */\n      tag_46\n      jump\t// in\n    tag_56:\n        /* \"#utility.yul\":906:979   */\n      swap2\n      pop\n        /* \"#utility.yul\":988:1081   */\n      tag_57\n        /* \"#utility.yul\":1077:1080   */\n      dup3\n        /* \"#utility.yul\":988:1081   */\n      tag_58\n      jump\t// in\n    tag_57:\n        /* \"#utility.yul\":1106:1108   */\n      0x20\n        /* \"#utility.yul\":1101:1104   */\n      dup3\n        /* \"#utility.yul\":1097:1109   */\n      add\n        /* \"#utility.yul\":1090:1109   */\n      swap1\n      pop\n        /* \"#utility.yul\":750:1115   */\n      swap2\n      swap1\n      pop\n      jump\t// out\n        /* \"#utility.yul\":1121:1486   */\n    tag_59:\n        /* \"#utility.yul\":1263:1266   */\n      0x00\n        /* \"#utility.yul\":1284:1350   */\n      tag_61\n        /* \"#utility.yul\":1348:1349   */\n      0x04\n        /* \"#utility.yul\":1343:1346   */\n      dup4\n        /* \"#utility.yul\":1284:1350   */\n      tag_46\n      jump\t// in\n    tag_61:\n        /* \"#utility.yul\":1277:1350   */\n      swap2\n      pop\n        /* \"#utility.yul\":1359:1452   */\n      tag_62\n        /* \"#utility.yul\":1448:1451   */\n      dup3\n        /* \"#utility.yul\":1359:1452   */\n      tag_63\n      jump\t// in\n    tag_62:\n        /* \"#utility.yul\":1477:1479   */\n      0x20\n        /* \"#utility.yul\":1472:1475   */\n      dup3\n        /* \"#utility.yul\":1468:1480   */\n      add\n        /* \"#utility.yul\":1461:1480   */\n      swap1\n      pop\n        /* \"#utility.yul\":1121:1486   */\n      swap2\n      swap1\n      pop\n      jump\t// out\n        /* \"#utility.yul\":1492:1911   */\n    tag_41:\n        /* \"#utility.yul\":1658:1662   */\n      0x00\n        /* \"#utility.yul\":1696:1698   */\n      0x20\n        /* \"#utility.yul\":1685:1694   */\n      dup3\n        /* \"#utility.yul\":1681:1699   */\n      add\n        /* \"#utility.yul\":1673:1699   */\n      swap1\n      pop\n        /* \"#utility.yul\":1745:1754   */\n      dup2\n        /* \"#utility.yul\":1739:1743   */\n      dup2\n        /* \"#utility.yul\":1735:1755   */\n      sub\n        /* \"#utility.yul\":1731:1732   */\n      0x00\n        /* \"#utility.yul\":1720:1729   */\n      dup4\n        /* \"#utility.yul\":1716:1733   */\n      add\n        /* \"#utility.yul\":1709:1756   */\n      mstore\n        /* \"#utility.yul\":1773:1904   */\n      tag_65\n        /* \"#utility.yul\":1899:1903   */\n      dup2\n        /* \"#utility.yul\":1773:1904   */\n      tag_43\n      jump\t// in\n    tag_65:\n        /* \"#utility.yul\":1765:1904   */\n      swap1\n      pop\n        /* \"#utility.yul\":1492:1911   */\n      swap2\n      swap1\n      pop\n      jump\t// out\n        /* \"#utility.yul\":1917:2336   */\n    tag_20:\n        /* \"#utility.yul\":2083:2087   */\n      0x00\n        /* \"#utility.yul\":2121:2123   */\n      0x20\n        /* \"#utility.yul\":2110:2119   */\n      dup3\n        /* \"#utility.yul\":2106:2124   */\n      add\n        /* \"#utility.yul\":2098:2124   */\n      swap1\n      pop\n        /* \"#utility.yul\":2170:2179   */\n      dup2\n        /* \"#utility.yul\":2164:2168   */\n      dup2\n        /* \"#utility.yul\":2160:2180   */\n      sub\n        /* \"#utility.yul\":2156:2157   */\n      0x00\n        /* \"#utility.yul\":2145:2154   */\n      dup4\n        /* \"#utility.yul\":2141:2158   */\n      add\n        /* \"#utility.yul\":2134:2181   */\n      mstore\n        /* \"#utility.yul\":2198:2329   */\n      tag_67\n        /* \"#utility.yul\":2324:2328   */\n      dup2\n        /* \"#utility.yul\":2198:2329   */\n      tag_49\n      jump\t// in\n    tag_67:\n        /* \"#utility.yul\":2190:2329   */\n      swap1\n      pop\n        /* \"#utility.yul\":1917:2336   */\n      swap2\n      swap1\n      pop\n      jump\t// out\n        /* \"#utility.yul\":2342:2761   */\n    tag_28:\n        /* \"#utility.yul\":2508:2512   */\n      0x00\n        /* \"#utility.yul\":2546:2548   */\n      0x20\n        /* \"#utility.yul\":2535:2544   */\n      dup3\n        /* \"#utility.yul\":2531:2549   */\n      add\n        /* \"#utility.yul\":2523:2549   */\n      swap1\n      pop\n        /* \"#utility.yul\":2595:2604   */\n      dup2\n        /* \"#utility.yul\":2589:2593   */\n      dup2\n        /* \"#utility.yul\":2585:2605   */\n      sub\n        /* \"#utility.yul\":2581:2582   */\n      0x00\n        /* \"#utility.yul\":2570:2579   */\n      dup4\n        /* \"#utility.yul\":2566:2583   */\n      add\n        /* \"#utility.yul\":2559:2606   */\n      mstore\n        /* \"#utility.yul\":2623:2754   */\n      tag_69\n        /* \"#utility.yul\":2749:2753   */\n      dup2\n        /* \"#utility.yul\":2623:2754   */\n      tag_54\n      jump\t// in\n    tag_69:\n        /* \"#utility.yul\":2615:2754   */\n      swap1\n      pop\n        /* \"#utility.yul\":2342:2761   */\n      swap2\n      swap1\n      pop\n      jump\t// out\n        /* \"#utility.yul\":2767:3186   */\n    tag_23:\n        /* \"#utility.yul\":2933:2937   */\n      0x00\n        /* \"#utility.yul\":2971:2973   */\n      0x20\n        /* \"#utility.yul\":2960:2969   */\n      dup3\n        /* \"#utility.yul\":2956:2974   */\n      add\n        /* \"#utility.yul\":2948:2974   */\n      swap1\n      pop\n        /* \"#utility.yul\":3020:3029   */\n      dup2\n        /* \"#utility.yul\":3014:3018   */\n      dup2\n        /* \"#utility.yul\":3010:3030   */\n      sub\n        /* \"#utility.yul\":3006:3007   */\n      0x00\n        /* \"#utility.yul\":2995:3004   */\n      dup4\n        /* \"#utility.yul\":2991:3008   */\n      add\n        /* \"#utility.yul\":2984:3031   */\n      mstore\n        /* \"#utility.yul\":3048:3179   */\n      tag_71\n        /* \"#utility.yul\":3174:3178   */\n      dup2\n        /* \"#utility.yul\":3048:3179   */\n      tag_59\n      jump\t// in\n    tag_71:\n        /* \"#utility.yul\":3040:3179   */\n      swap1\n      pop\n        /* \"#utility.yul\":2767:3186   */\n      swap2\n      swap1\n      pop\n      jump\t// out\n        /* \"#utility.yul\":3192:3361   */\n    tag_46:\n        /* \"#utility.yul\":3276:3287   */\n      0x00\n        /* \"#utility.yul\":3310:3316   */\n      dup3\n        /* \"#utility.yul\":3305:3308   */\n      dup3\n        /* \"#utility.yul\":3298:3317   */\n      mstore\n        /* \"#utility.yul\":3350:3354   */\n      0x20\n        /* \"#utility.yul\":3345:3348   */\n      dup3\n        /* \"#utility.yul\":3341:3355   */\n      add\n        /* \"#utility.yul\":3326:3355   */\n      swap1\n      pop\n        /* \"#utility.yul\":3192:3361   */\n      swap3\n      swap2\n      pop\n      pop\n      jump\t// out\n        /* \"#utility.yul\":3367:3521   */\n    tag_48:\n        /* \"#utility.yul\":3507:3513   */\n      0x6261626100000000000000000000000000000000000000000000000000000000\n        /* \"#utility.yul\":3503:3504   */\n      0x00\n        /* \"#utility.yul\":3495:3501   */\n      dup3\n        /* \"#utility.yul\":3491:3505   */\n      add\n        /* \"#utility.yul\":3484:3514   */\n      mstore\n        /* \"#utility.yul\":3367:3521   */\n      pop\n      jump\t// out\n        /* \"#utility.yul\":3527:3689   */\n    tag_53:\n        /* \"#utility.yul\":3667:3681   */\n      0x6d6f64696669657245727a690000000000000000000000000000000000000000\n        /* \"#utility.yul\":3663:3664   */\n      0x00\n        /* \"#utility.yul\":3655:3661   */\n      dup3\n        /* \"#utility.yul\":3651:3665   */\n      add\n        /* \"#utility.yul\":3644:3682   */\n      mstore\n        /* \"#utility.yul\":3527:3689   */\n      pop\n      jump\t// out\n        /* \"#utility.yul\":3695:3849   */\n    tag_58:\n        /* \"#utility.yul\":3835:3841   */\n      0x65727a6900000000000000000000000000000000000000000000000000000000\n        /* \"#utility.yul\":3831:3832   */\n      0x00\n        /* \"#utility.yul\":3823:3829   */\n      dup3\n        /* \"#utility.yul\":3819:3833   */\n      add\n        /* \"#utility.yul\":3812:3842   */\n      mstore\n        /* \"#utility.yul\":3695:3849   */\n      pop\n      jump\t// out\n        /* \"#utility.yul\":3855:4009   */\n    tag_63:\n        /* \"#utility.yul\":3995:4001   */\n      0x7965796500000000000000000000000000000000000000000000000000000000\n        /* \"#utility.yul\":3991:3992   */\n      0x00\n        /* \"#utility.yul\":3983:3989   */\n      dup3\n        /* \"#utility.yul\":3979:3993   */\n      add\n        /* \"#utility.yul\":3972:4002   */\n      mstore\n        /* \"#utility.yul\":3855:4009   */\n      pop\n      jump\t// out\n\n    auxdata: 0xa2646970667358221220ad49f589e22a203a69e34607237866b42d877a70433487bf69a98ff07f005e3664736f6c63430008070033\n}\n",
				"bytecode": {
					"linkReferences": {},
					"object": "608060405234801561001057600080fd5b506104a1806100206000396000f3fe608060405234801561001057600080fd5b50600436106100575760003560e01c80630ca21e9c1461005c578063370ea14214610066578063a4ece52c14610070578063f44cf0611461007a578063fa030ef114610084575b600080fd5b61006461008e565b005b61006e6100fa565b005b610078610166565b005b6100826101d2565b005b61008c61023e565b005b7fcf34ef537ac33ee1ac626ca1587a0a7e8e51561e5514f8cb36afa1c5102b3bab6040516100bb90610356565b60405180910390a17fcf34ef537ac33ee1ac626ca1587a0a7e8e51561e5514f8cb36afa1c5102b3bab6040516100f090610396565b60405180910390a1565b7fcf34ef537ac33ee1ac626ca1587a0a7e8e51561e5514f8cb36afa1c5102b3bab60405161012790610356565b60405180910390a17fcf34ef537ac33ee1ac626ca1587a0a7e8e51561e5514f8cb36afa1c5102b3bab60405161015c90610376565b60405180910390a1565b7fcf34ef537ac33ee1ac626ca1587a0a7e8e51561e5514f8cb36afa1c5102b3bab60405161019390610356565b60405180910390a17fcf34ef537ac33ee1ac626ca1587a0a7e8e51561e5514f8cb36afa1c5102b3bab6040516101c890610376565b60405180910390a1565b7fcf34ef537ac33ee1ac626ca1587a0a7e8e51561e5514f8cb36afa1c5102b3bab6040516101ff90610356565b60405180910390a17fcf34ef537ac33ee1ac626ca1587a0a7e8e51561e5514f8cb36afa1c5102b3bab60405161023490610376565b60405180910390a1565b7fcf34ef537ac33ee1ac626ca1587a0a7e8e51561e5514f8cb36afa1c5102b3bab60405161026b90610356565b60405180910390a17fcf34ef537ac33ee1ac626ca1587a0a7e8e51561e5514f8cb36afa1c5102b3bab6040516102a090610336565b60405180910390a1565b60006102b76004836103b6565b91506102c2826103c7565b602082019050919050565b60006102da600c836103b6565b91506102e5826103f0565b602082019050919050565b60006102fd6004836103b6565b915061030882610419565b602082019050919050565b60006103206004836103b6565b915061032b82610442565b602082019050919050565b6000602082019050818103600083015261034f816102aa565b9050919050565b6000602082019050818103600083015261036f816102cd565b9050919050565b6000602082019050818103600083015261038f816102f0565b9050919050565b600060208201905081810360008301526103af81610313565b9050919050565b600082825260208201905092915050565b7f6261626100000000000000000000000000000000000000000000000000000000600082015250565b7f6d6f64696669657245727a690000000000000000000000000000000000000000600082015250565b7f65727a6900000000000000000000000000000000000000000000000000000000600082015250565b7f796579650000000000000000000000000000000000000000000000000000000060008201525056fea2646970667358221220ad49f589e22a203a69e34607237866b42d877a70433487bf69a98ff07f005e3664736f6c63430008070033",
					"opcodes": "PUSH1 0x80 PUSH1 0x40 MSTORE CALLVALUE DUP1 ISZERO PUSH2 0x10 JUMPI PUSH1 0x0 DUP1 REVERT JUMPDEST POP PUSH2 0x4A1 DUP1 PUSH2 0x20 PUSH1 0x0 CODECOPY PUSH1 0x0 RETURN INVALID PUSH1 0x80 PUSH1 0x40 MSTORE CALLVALUE DUP1 ISZERO PUSH2 0x10 JUMPI PUSH1 0x0 DUP1 REVERT JUMPDEST POP PUSH1 0x4 CALLDATASIZE LT PUSH2 0x57 JUMPI PUSH1 0x0 CALLDATALOAD PUSH1 0xE0 SHR DUP1 PUSH4 0xCA21E9C EQ PUSH2 0x5C JUMPI DUP1 PUSH4 0x370EA142 EQ PUSH2 0x66 JUMPI DUP1 PUSH4 0xA4ECE52C EQ PUSH2 0x70 JUMPI DUP1 PUSH4 0xF44CF061 EQ PUSH2 0x7A JUMPI DUP1 PUSH4 0xFA030EF1 EQ PUSH2 0x84 JUMPI JUMPDEST PUSH1 0x0 DUP1 REVERT JUMPDEST PUSH2 0x64 PUSH2 0x8E JUMP JUMPDEST STOP JUMPDEST PUSH2 0x6E PUSH2 0xFA JUMP JUMPDEST STOP JUMPDEST PUSH2 0x78 PUSH2 0x166 JUMP JUMPDEST STOP JUMPDEST PUSH2 0x82 PUSH2 0x1D2 JUMP JUMPDEST STOP JUMPDEST PUSH2 0x8C PUSH2 0x23E JUMP JUMPDEST STOP JUMPDEST PUSH32 0xCF34EF537AC33EE1AC626CA1587A0A7E8E51561E5514F8CB36AFA1C5102B3BAB PUSH1 0x40 MLOAD PUSH2 0xBB SWAP1 PUSH2 0x356 JUMP JUMPDEST PUSH1 0x40 MLOAD DUP1 SWAP2 SUB SWAP1 LOG1 PUSH32 0xCF34EF537AC33EE1AC626CA1587A0A7E8E51561E5514F8CB36AFA1C5102B3BAB PUSH1 0x40 MLOAD PUSH2 0xF0 SWAP1 PUSH2 0x396 JUMP JUMPDEST PUSH1 0x40 MLOAD DUP1 SWAP2 SUB SWAP1 LOG1 JUMP JUMPDEST PUSH32 0xCF34EF537AC33EE1AC626CA1587A0A7E8E51561E5514F8CB36AFA1C5102B3BAB PUSH1 0x40 MLOAD PUSH2 0x127 SWAP1 PUSH2 0x356 JUMP JUMPDEST PUSH1 0x40 MLOAD DUP1 SWAP2 SUB SWAP1 LOG1 PUSH32 0xCF34EF537AC33EE1AC626CA1587A0A7E8E51561E5514F8CB36AFA1C5102B3BAB PUSH1 0x40 MLOAD PUSH2 0x15C SWAP1 PUSH2 0x376 JUMP JUMPDEST PUSH1 0x40 MLOAD DUP1 SWAP2 SUB SWAP1 LOG1 JUMP JUMPDEST PUSH32 0xCF34EF537AC33EE1AC626CA1587A0A7E8E51561E5514F8CB36AFA1C5102B3BAB PUSH1 0x40 MLOAD PUSH2 0x193 SWAP1 PUSH2 0x356 JUMP JUMPDEST PUSH1 0x40 MLOAD DUP1 SWAP2 SUB SWAP1 LOG1 PUSH32 0xCF34EF537AC33EE1AC626CA1587A0A7E8E51561E5514F8CB36AFA1C5102B3BAB PUSH1 0x40 MLOAD PUSH2 0x1C8 SWAP1 PUSH2 0x376 JUMP JUMPDEST PUSH1 0x40 MLOAD DUP1 SWAP2 SUB SWAP1 LOG1 JUMP JUMPDEST PUSH32 0xCF34EF537AC33EE1AC626CA1587A0A7E8E51561E5514F8CB36AFA1C5102B3BAB PUSH1 0x40 MLOAD PUSH2 0x1FF SWAP1 PUSH2 0x356 JUMP JUMPDEST PUSH1 0x40 MLOAD DUP1 SWAP2 SUB SWAP1 LOG1 PUSH32 0xCF34EF537AC33EE1AC626CA1587A0A7E8E51561E5514F8CB36AFA1C5102B3BAB PUSH1 0x40 MLOAD PUSH2 0x234 SWAP1 PUSH2 0x376 JUMP JUMPDEST PUSH1 0x40 MLOAD DUP1 SWAP2 SUB SWAP1 LOG1 JUMP JUMPDEST PUSH32 0xCF34EF537AC33EE1AC626CA1587A0A7E8E51561E5514F8CB36AFA1C5102B3BAB PUSH1 0x40 MLOAD PUSH2 0x26B SWAP1 PUSH2 0x356 JUMP JUMPDEST PUSH1 0x40 MLOAD DUP1 SWAP2 SUB SWAP1 LOG1 PUSH32 0xCF34EF537AC33EE1AC626CA1587A0A7E8E51561E5514F8CB36AFA1C5102B3BAB PUSH1 0x40 MLOAD PUSH2 0x2A0 SWAP1 PUSH2 0x336 JUMP JUMPDEST PUSH1 0x40 MLOAD DUP1 SWAP2 SUB SWAP1 LOG1 JUMP JUMPDEST PUSH1 0x0 PUSH2 0x2B7 PUSH1 0x4 DUP4 PUSH2 0x3B6 JUMP JUMPDEST SWAP2 POP PUSH2 0x2C2 DUP3 PUSH2 0x3C7 JUMP JUMPDEST PUSH1 0x20 DUP3 ADD SWAP1 POP SWAP2 SWAP1 POP JUMP JUMPDEST PUSH1 0x0 PUSH2 0x2DA PUSH1 0xC DUP4 PUSH2 0x3B6 JUMP JUMPDEST SWAP2 POP PUSH2 0x2E5 DUP3 PUSH2 0x3F0 JUMP JUMPDEST PUSH1 0x20 DUP3 ADD SWAP1 POP SWAP2 SWAP1 POP JUMP JUMPDEST PUSH1 0x0 PUSH2 0x2FD PUSH1 0x4 DUP4 PUSH2 0x3B6 JUMP JUMPDEST SWAP2 POP PUSH2 0x308 DUP3 PUSH2 0x419 JUMP JUMPDEST PUSH1 0x20 DUP3 ADD SWAP1 POP SWAP2 SWAP1 POP JUMP JUMPDEST PUSH1 0x0 PUSH2 0x320 PUSH1 0x4 DUP4 PUSH2 0x3B6 JUMP JUMPDEST SWAP2 POP PUSH2 0x32B DUP3 PUSH2 0x442 JUMP JUMPDEST PUSH1 0x20 DUP3 ADD SWAP1 POP SWAP2 SWAP1 POP JUMP JUMPDEST PUSH1 0x0 PUSH1 0x20 DUP3 ADD SWAP1 POP DUP2 DUP2 SUB PUSH1 0x0 DUP4 ADD MSTORE PUSH2 0x34F DUP2 PUSH2 0x2AA JUMP JUMPDEST SWAP1 POP SWAP2 SWAP1 POP JUMP JUMPDEST PUSH1 0x0 PUSH1 0x20 DUP3 ADD SWAP1 POP DUP2 DUP2 SUB PUSH1 0x0 DUP4 ADD MSTORE PUSH2 0x36F DUP2 PUSH2 0x2CD JUMP JUMPDEST SWAP1 POP SWAP2 SWAP1 POP JUMP JUMPDEST PUSH1 0x0 PUSH1 0x20 DUP3 ADD SWAP1 POP DUP2 DUP2 SUB PUSH1 0x0 DUP4 ADD MSTORE PUSH2 0x38F DUP2 PUSH2 0x2F0 JUMP JUMPDEST SWAP1 POP SWAP2 SWAP1 POP JUMP JUMPDEST PUSH1 0x0 PUSH1 0x20 DUP3 ADD SWAP1 POP DUP2 DUP2 SUB PUSH1 0x0 DUP4 ADD MSTORE PUSH2 0x3AF DUP2 PUSH2 0x313 JUMP JUMPDEST SWAP1 POP SWAP2 SWAP1 POP JUMP JUMPDEST PUSH1 0x0 DUP3 DUP3 MSTORE PUSH1 0x20 DUP3 ADD SWAP1 POP SWAP3 SWAP2 POP POP JUMP JUMPDEST PUSH32 0x6261626100000000000000000000000000000000000000000000000000000000 PUSH1 0x0 DUP3 ADD MSTORE POP JUMP JUMPDEST PUSH32 0x6D6F64696669657245727A690000000000000000000000000000000000000000 PUSH1 0x0 DUP3 ADD MSTORE POP JUMP JUMPDEST PUSH32 0x65727A6900000000000000000000000000000000000000000000000000000000 PUSH1 0x0 DUP3 ADD MSTORE POP JUMP JUMPDEST PUSH32 0x7965796500000000000000000000000000000000000000000000000000000000 PUSH1 0x0 DUP3 ADD MSTORE POP JUMP INVALID LOG2 PUSH5 0x6970667358 0x22 SLT KECCAK256 0xAD 0x49 CREATE2 DUP10 0xE2 0x2A KECCAK256 GASPRICE PUSH10 0xE34607237866B42D877A PUSH17 0x433487BF69A98FF07F005E3664736F6C63 NUMBER STOP ADDMOD SMOD STOP CALLER "
				},
				"gasEstimates": {
					"creation": {
						"codeDepositCost": "237000",
						"executionCost": "281",
						"totalCost": "237281"
					},
					"external": {
						"baba()": "infinite",
						"erzi()": "infinite",
						"hip()": "infinite",
						"pop()": "infinite",
						"yeye()": "infinite"
					}
				},
				"methodIdentifiers": {
					"baba()": "fa030ef1",
					"erzi()": "f44cf061",
					"hip()": "370ea142",
					"pop()": "a4ece52c",
					"yeye()": "0ca21e9c"
				}
			},
			"storageLayout": {
				"storage": [],
				"types": null
			},
			"userdoc": {
				"kind": "user",
				"methods": {},
				"version": 1
			}
		}
	}
}