{
	"contract/wtf/继承.sol": {
		"Baba": {
			"abi": [
				{
					"anonymous": false,
					"inputs": [
						{
							"indexed": false,
							"internalType": "string",
							"name": "",
							"type": "string"
						}
					],
					"name": "Log",
					"type": "event"
				},
				{
					"inputs": [],
					"name": "baba",
					"outputs": [],
					"stateMutability": "nonpayable",
					"type": "function"
				},
				{
					"inputs": [],
					"name": "hip",
					"outputs": [],
					"stateMutability": "nonpayable",
					"type": "function"
				},
				{
					"inputs": [],
					"name": "pop",
					"outputs": [],
					"stateMutability": "nonpayable",
					"type": "function"
				},
				{
					"inputs": [],
					"name": "yeye",
					"outputs": [],
					"stateMutability": "nonpayable",
					"type": "function"
				}
			],
			"devdoc": {
				"kind": "dev",
				"methods": {},
				"version": 1
			},
			"evm": {
				"assembly": "    /* \"contract/wtf/\\xe7\\xbb\\xa7\\xe6\\x89\\xbf.sol\":431:809  contract Baba is Yeye {... */\n  mstore(0x40, 0x80)\n  callvalue\n  dup1\n  iszero\n  tag_1\n  jumpi\n  0x00\n  dup1\n  revert\ntag_1:\n  pop\n  dataSize(sub_0)\n  dup1\n  dataOffset(sub_0)\n  0x00\n  codecopy\n  0x00\n  return\nstop\n\nsub_0: assembly {\n        /* \"contract/wtf/\\xe7\\xbb\\xa7\\xe6\\x89\\xbf.sol\":431:809  contract Baba is Yeye {... */\n      mstore(0x40, 0x80)\n      callvalue\n      dup1\n      iszero\n      tag_1\n      jumpi\n      0x00\n      dup1\n      revert\n    tag_1:\n      pop\n      jumpi(tag_2, lt(calldatasize, 0x04))\n      shr(0xe0, calldataload(0x00))\n      dup1\n      0x0ca21e9c\n      eq\n      tag_3\n      jumpi\n      dup1\n      0x370ea142\n      eq\n      tag_4\n      jumpi\n      dup1\n      0xa4ece52c\n      eq\n      tag_5\n      jumpi\n      dup1\n      0xfa030ef1\n      eq\n      tag_6\n      jumpi\n    tag_2:\n      0x00\n      dup1\n      revert\n        /* \"contract/wtf/\\xe7\\xbb\\xa7\\xe6\\x89\\xbf.sol\":270:339  function yeye() external myModifier {... */\n    tag_3:\n      tag_7\n      tag_8\n      jump\t// in\n    tag_7:\n      stop\n        /* \"contract/wtf/\\xe7\\xbb\\xa7\\xe6\\x89\\xbf.sol\":459:544  function hip() external virtual override myModifier {... */\n    tag_4:\n      tag_9\n      tag_10\n      jump\t// in\n    tag_9:\n      stop\n        /* \"contract/wtf/\\xe7\\xbb\\xa7\\xe6\\x89\\xbf.sol\":550:635  function pop() external virtual override myModifier {... */\n    tag_5:\n      tag_11\n      tag_12\n      jump\t// in\n    tag_11:\n      stop\n        /* \"contract/wtf/\\xe7\\xbb\\xa7\\xe6\\x89\\xbf.sol\":641:710  function baba() external myModifier {... */\n    tag_6:\n      tag_13\n      tag_14\n      jump\t// in\n    tag_13:\n      stop\n        /* \"contract/wtf/\\xe7\\xbb\\xa7\\xe6\\x89\\xbf.sol\":270:339  function yeye() external myModifier {... */\n    tag_8:\n        /* \"contract/wtf/\\xe7\\xbb\\xa7\\xe6\\x89\\xbf.sol\":770:789  Log(\"modifierBaba\") */\n      0xcf34ef537ac33ee1ac626ca1587a0a7e8e51561e5514f8cb36afa1c5102b3bab\n      mload(0x40)\n      tag_16\n      swap1\n      tag_17\n      jump\t// in\n    tag_16:\n      mload(0x40)\n      dup1\n      swap2\n      sub\n      swap1\n      log1\n        /* \"contract/wtf/\\xe7\\xbb\\xa7\\xe6\\x89\\xbf.sol\":321:332  Log(\"yeye\") */\n      0xcf34ef537ac33ee1ac626ca1587a0a7e8e51561e5514f8cb36afa1c5102b3bab\n      mload(0x40)\n      tag_19\n      swap1\n      tag_20\n      jump\t// in\n    tag_19:\n      mload(0x40)\n      dup1\n      swap2\n      sub\n      swap1\n      log1\n        /* \"contract/wtf/\\xe7\\xbb\\xa7\\xe6\\x89\\xbf.sol\":270:339  function yeye() external myModifier {... */\n      jump\t// out\n        /* \"contract/wtf/\\xe7\\xbb\\xa7\\xe6\\x89\\xbf.sol\":459:544  function hip() external virtual override myModifier {... */\n    tag_10:\n        /* \"contract/wtf/\\xe7\\xbb\\xa7\\xe6\\x89\\xbf.sol\":770:789  Log(\"modifierBaba\") */\n      0xcf34ef537ac33ee1ac626ca1587a0a7e8e51561e5514f8cb36afa1c5102b3bab\n      mload(0x40)\n      tag_22\n      swap1\n      tag_17\n      jump\t// in\n    tag_22:\n      mload(0x40)\n      dup1\n      swap2\n      sub\n      swap1\n      log1\n        /* \"contract/wtf/\\xe7\\xbb\\xa7\\xe6\\x89\\xbf.sol\":526:537  Log(\"baba\") */\n      0xcf34ef537ac33ee1ac626ca1587a0a7e8e51561e5514f8cb36afa1c5102b3bab\n      mload(0x40)\n      tag_24\n      swap1\n      tag_25\n      jump\t// in\n    tag_24:\n      mload(0x40)\n      dup1\n      swap2\n      sub\n      swap1\n      log1\n        /* \"contract/wtf/\\xe7\\xbb\\xa7\\xe6\\x89\\xbf.sol\":459:544  function hip() external virtual override myModifier {... */\n      jump\t// out\n        /* \"contract/wtf/\\xe7\\xbb\\xa7\\xe6\\x89\\xbf.sol\":550:635  function pop() external virtual override myModifier {... */\n    tag_12:\n        /* \"contract/wtf/\\xe7\\xbb\\xa7\\xe6\\x89\\xbf.sol\":770:789  Log(\"modifierBaba\") */\n      0xcf34ef537ac33ee1ac626ca1587a0a7e8e51561e5514f8cb36afa1c5102b3bab\n      mload(0x40)\n      tag_27\n      swap1\n      tag_17\n      jump\t// in\n    tag_27:\n      mload(0x40)\n      dup1\n      swap2\n      sub\n      swap1\n      log1\n        /* \"contract/wtf/\\xe7\\xbb\\xa7\\xe6\\x89\\xbf.sol\":617:628  Log(\"baba\") */\n      0xcf34ef537ac33ee1ac626ca1587a0a7e8e51561e5514f8cb36afa1c5102b3bab\n      mload(0x40)\n      tag_29\n      swap1\n      tag_25\n      jump\t// in\n    tag_29:\n      mload(0x40)\n      dup1\n      swap2\n      sub\n      swap1\n      log1\n        /* \"contract/wtf/\\xe7\\xbb\\xa7\\xe6\\x89\\xbf.sol\":550:635  function pop() external virtual override myModifier {... */\n      jump\t// out\n        /* \"contract/wtf/\\xe7\\xbb\\xa7\\xe6\\x89\\xbf.sol\":641:710  function baba() external myModifier {... */\n    tag_14:\n        /* \"contract/wtf/\\xe7\\xbb\\xa7\\xe6\\x89\\xbf.sol\":770:789  Log(\"modifierBaba\") */\n      0xcf34ef537ac33ee1ac626ca1587a0a7e8e51561e5514f8cb36afa1c5102b3bab\n      mload(0x40)\n      tag_31\n      swap1\n      tag_17\n      jump\t// in\n    tag_31:\n      mload(0x40)\n      dup1\n      swap2\n      sub\n      swap1\n      log1\n        /* \"contract/wtf/\\xe7\\xbb\\xa7\\xe6\\x89\\xbf.sol\":692:703  Log(\"baba\") */\n      0xcf34ef537ac33ee1ac626ca1587a0a7e8e51561e5514f8cb36afa1c5102b3bab\n      mload(0x40)\n      tag_33\n      swap1\n      tag_25\n      jump\t// in\n    tag_33:\n      mload(0x40)\n      dup1\n      swap2\n      sub\n      swap1\n      log1\n        /* \"contract/wtf/\\xe7\\xbb\\xa7\\xe6\\x89\\xbf.sol\":641:710  function baba() external myModifier {... */\n      jump\t// out\n        /* \"#utility.yul\":7:372   */\n    tag_35:\n        /* \"#utility.yul\":149:152   */\n      0x00\n        /* \"#utility.yul\":170:236   */\n      tag_37\n        /* \"#utility.yul\":234:235   */\n      0x04\n        /* \"#utility.yul\":229:232   */\n      dup4\n        /* \"#utility.yul\":170:236   */\n      tag_38\n      jump\t// in\n    tag_37:\n        /* \"#utility.yul\":163:236   */\n      swap2\n      pop\n        /* \"#utility.yul\":245:338   */\n      tag_39\n        /* \"#utility.yul\":334:337   */\n      dup3\n        /* \"#utility.yul\":245:338   */\n      tag_40\n      jump\t// in\n    tag_39:\n        /* \"#utility.yul\":363:365   */\n      0x20\n        /* \"#utility.yul\":358:361   */\n      dup3\n        /* \"#utility.yul\":354:366   */\n      add\n        /* \"#utility.yul\":347:366   */\n      swap1\n      pop\n        /* \"#utility.yul\":7:372   */\n      swap2\n      swap1\n      pop\n      jump\t// out\n        /* \"#utility.yul\":378:744   */\n    tag_41:\n        /* \"#utility.yul\":520:523   */\n      0x00\n        /* \"#utility.yul\":541:608   */\n      tag_43\n        /* \"#utility.yul\":605:607   */\n      0x0c\n        /* \"#utility.yul\":600:603   */\n      dup4\n        /* \"#utility.yul\":541:608   */\n      tag_38\n      jump\t// in\n    tag_43:\n        /* \"#utility.yul\":534:608   */\n      swap2\n      pop\n        /* \"#utility.yul\":617:710   */\n      tag_44\n        /* \"#utility.yul\":706:709   */\n      dup3\n        /* \"#utility.yul\":617:710   */\n      tag_45\n      jump\t// in\n    tag_44:\n        /* \"#utility.yul\":735:737   */\n      0x20\n        /* \"#utility.yul\":730:733   */\n      dup3\n        /* \"#utility.yul\":726:738   */\n      add\n        /* \"#utility.yul\":719:738   */\n      swap1\n      pop\n        /* \"#utility.yul\":378:744   */\n      swap2\n      swap1\n      pop\n      jump\t// out\n        /* \"#utility.yul\":750:1115   */\n    tag_46:\n        /* \"#utility.yul\":892:895   */\n      0x00\n        /* \"#utility.yul\":913:979   */\n      tag_48\n        /* \"#utility.yul\":977:978   */\n      0x04\n        /* \"#utility.yul\":972:975   */\n      dup4\n        /* \"#utility.yul\":913:979   */\n      tag_38\n      jump\t// in\n    tag_48:\n        /* \"#utility.yul\":906:979   */\n      swap2\n      pop\n        /* \"#utility.yul\":988:1081   */\n      tag_49\n        /* \"#utility.yul\":1077:1080   */\n      dup3\n        /* \"#utility.yul\":988:1081   */\n      tag_50\n      jump\t// in\n    tag_49:\n        /* \"#utility.yul\":1106:1108   */\n      0x20\n        /* \"#utility.yul\":1101:1104   */\n      dup3\n        /* \"#utility.yul\":1097:1109   */\n      add\n        /* \"#utility.yul\":1090:1109   */\n      swap1\n      pop\n        /* \"#utility.yul\":750:1115   */\n      swap2\n      swap1\n      pop\n      jump\t// out\n        /* \"#utility.yul\":1121:1540   */\n    tag_25:\n        /* \"#utility.yul\":1287:1291   */\n      0x00\n        /* \"#utility.yul\":1325:1327   */\n      0x20\n        /* \"#utility.yul\":1314:1323   */\n      dup3\n        /* \"#utility.yul\":1310:1328   */\n      add\n        /* \"#utility.yul\":1302:1328   */\n      swap1\n      pop\n        /* \"#utility.yul\":1374:1383   */\n      dup2\n        /* \"#utility.yul\":1368:1372   */\n      dup2\n        /* \"#utility.yul\":1364:1384   */\n      sub\n        /* \"#utility.yul\":1360:1361   */\n      0x00\n        /* \"#utility.yul\":1349:1358   */\n      dup4\n        /* \"#utility.yul\":1345:1362   */\n      add\n        /* \"#utility.yul\":1338:1385   */\n      mstore\n        /* \"#utility.yul\":1402:1533   */\n      tag_52\n        /* \"#utility.yul\":1528:1532   */\n      dup2\n        /* \"#utility.yul\":1402:1533   */\n      tag_35\n      jump\t// in\n    tag_52:\n        /* \"#utility.yul\":1394:1533   */\n      swap1\n      pop\n        /* \"#utility.yul\":1121:1540   */\n      swap2\n      swap1\n      pop\n      jump\t// out\n        /* \"#utility.yul\":1546:1965   */\n    tag_17:\n        /* \"#utility.yul\":1712:1716   */\n      0x00\n        /* \"#utility.yul\":1750:1752   */\n      0x20\n        /* \"#utility.yul\":1739:1748   */\n      dup3\n        /* \"#utility.yul\":1735:1753   */\n      add\n        /* \"#utility.yul\":1727:1753   */\n      swap1\n      pop\n        /* \"#utility.yul\":1799:1808   */\n      dup2\n        /* \"#utility.yul\":1793:1797   */\n      dup2\n        /* \"#utility.yul\":1789:1809   */\n      sub\n        /* \"#utility.yul\":1785:1786   */\n      0x00\n        /* \"#utility.yul\":1774:1783   */\n      dup4\n        /* \"#utility.yul\":1770:1787   */\n      add\n        /* \"#utility.yul\":1763:1810   */\n      mstore\n        /* \"#utility.yul\":1827:1958   */\n      tag_54\n        /* \"#utility.yul\":1953:1957   */\n      dup2\n        /* \"#utility.yul\":1827:1958   */\n      tag_41\n      jump\t// in\n    tag_54:\n        /* \"#utility.yul\":1819:1958   */\n      swap1\n      pop\n        /* \"#utility.yul\":1546:1965   */\n      swap2\n      swap1\n      pop\n      jump\t// out\n        /* \"#utility.yul\":1971:2390   */\n    tag_20:\n        /* \"#utility.yul\":2137:2141   */\n      0x00\n        /* \"#utility.yul\":2175:2177   */\n      0x20\n        /* \"#utility.yul\":2164:2173   */\n      dup3\n        /* \"#utility.yul\":2160:2178   */\n      add\n        /* \"#utility.yul\":2152:2178   */\n      swap1\n      pop\n        /* \"#utility.yul\":2224:2233   */\n      dup2\n        /* \"#utility.yul\":2218:2222   */\n      dup2\n        /* \"#utility.yul\":2214:2234   */\n      sub\n        /* \"#utility.yul\":2210:2211   */\n      0x00\n        /* \"#utility.yul\":2199:2208   */\n      dup4\n        /* \"#utility.yul\":2195:2212   */\n      add\n        /* \"#utility.yul\":2188:2235   */\n      mstore\n        /* \"#utility.yul\":2252:2383   */\n      tag_56\n        /* \"#utility.yul\":2378:2382   */\n      dup2\n        /* \"#utility.yul\":2252:2383   */\n      tag_46\n      jump\t// in\n    tag_56:\n        /* \"#utility.yul\":2244:2383   */\n      swap1\n      pop\n        /* \"#utility.yul\":1971:2390   */\n      swap2\n      swap1\n      pop\n      jump\t// out\n        /* \"#utility.yul\":2396:2565   */\n    tag_38:\n        /* \"#utility.yul\":2480:2491   */\n      0x00\n        /* \"#utility.yul\":2514:2520   */\n      dup3\n        /* \"#utility.yul\":2509:2512   */\n      dup3\n        /* \"#utility.yul\":2502:2521   */\n      mstore\n        /* \"#utility.yul\":2554:2558   */\n      0x20\n        /* \"#utility.yul\":2549:2552   */\n      dup3\n        /* \"#utility.yul\":2545:2559   */\n      add\n        /* \"#utility.yul\":2530:2559   */\n      swap1\n      pop\n        /* \"#utility.yul\":2396:2565   */\n      swap3\n      swap2\n      pop\n      pop\n      jump\t// out\n        /* \"#utility.yul\":2571:2725   */\n    tag_40:\n        /* \"#utility.yul\":2711:2717   */\n      0x6261626100000000000000000000000000000000000000000000000000000000\n        /* \"#utility.yul\":2707:2708   */\n      0x00\n        /* \"#utility.yul\":2699:2705   */\n      dup3\n        /* \"#utility.yul\":2695:2709   */\n      add\n        /* \"#utility.yul\":2688:2718   */\n      mstore\n        /* \"#utility.yul\":2571:2725   */\n      pop\n      jump\t// out\n        /* \"#utility.yul\":2731:2893   */\n    tag_45:\n        /* \"#utility.yul\":2871:2885   */\n      0x6d6f646966696572426162610000000000000000000000000000000000000000\n        /* \"#utility.yul\":2867:2868   */\n      0x00\n        /* \"#utility.yul\":2859:2865   */\n      dup3\n        /* \"#utility.yul\":2855:2869   */\n      add\n        /* \"#utility.yul\":2848:2886   */\n      mstore\n        /* \"#utility.yul\":2731:2893   */\n      pop\n      jump\t// out\n        /* \"#utility.yul\":2899:3053   */\n    tag_50:\n        /* \"#utility.yul\":3039:3045   */\n      0x7965796500000000000000000000000000000000000000000000000000000000\n        /* \"#utility.yul\":3035:3036   */\n      0x00\n        /* \"#utility.yul\":3027:3033   */\n      dup3\n        /* \"#utility.yul\":3023:3037   */\n      add\n        /* \"#utility.yul\":3016:3046   */\n      mstore\n        /* \"#utility.yul\":2899:3053   */\n      pop\n      jump\t// out\n\n    auxdata: 0xa264697066735822122042764c2832f2229606fb60723099815ab95e12b556235329b656a0ec16cff32d64736f6c63430008070033\n}\n",
				"bytecode": {
					"linkReferences": {},
					"object": "608060405234801561001057600080fd5b506103b4806100206000396000f3fe608060405234801561001057600080fd5b506004361061004c5760003560e01c80630ca21e9c14610051578063370ea1421461005b578063a4ece52c14610065578063fa030ef11461006f575b600080fd5b610059610079565b005b6100636100e5565b005b61006d610151565b005b6100776101bd565b005b7fcf34ef537ac33ee1ac626ca1587a0a7e8e51561e5514f8cb36afa1c5102b3bab6040516100a6906102b2565b60405180910390a17fcf34ef537ac33ee1ac626ca1587a0a7e8e51561e5514f8cb36afa1c5102b3bab6040516100db906102d2565b60405180910390a1565b7fcf34ef537ac33ee1ac626ca1587a0a7e8e51561e5514f8cb36afa1c5102b3bab604051610112906102b2565b60405180910390a17fcf34ef537ac33ee1ac626ca1587a0a7e8e51561e5514f8cb36afa1c5102b3bab60405161014790610292565b60405180910390a1565b7fcf34ef537ac33ee1ac626ca1587a0a7e8e51561e5514f8cb36afa1c5102b3bab60405161017e906102b2565b60405180910390a17fcf34ef537ac33ee1ac626ca1587a0a7e8e51561e5514f8cb36afa1c5102b3bab6040516101b390610292565b60405180910390a1565b7fcf34ef537ac33ee1ac626ca1587a0a7e8e51561e5514f8cb36afa1c5102b3bab6040516101ea906102b2565b60405180910390a17fcf34ef537ac33ee1ac626ca1587a0a7e8e51561e5514f8cb36afa1c5102b3bab60405161021f90610292565b60405180910390a1565b60006102366004836102f2565b915061024182610303565b602082019050919050565b6000610259600c836102f2565b91506102648261032c565b602082019050919050565b600061027c6004836102f2565b915061028782610355565b602082019050919050565b600060208201905081810360008301526102ab81610229565b9050919050565b600060208201905081810360008301526102cb8161024c565b9050919050565b600060208201905081810360008301526102eb8161026f565b9050919050565b600082825260208201905092915050565b7f6261626100000000000000000000000000000000000000000000000000000000600082015250565b7f6d6f646966696572426162610000000000000000000000000000000000000000600082015250565b7f796579650000000000000000000000000000000000000000000000000000000060008201525056fea264697066735822122042764c2832f2229606fb60723099815ab95e12b556235329b656a0ec16cff32d64736f6c63430008070033",
					"opcodes": "PUSH1 0x80 PUSH1 0x40 MSTORE CALLVALUE DUP1 ISZERO PUSH2 0x10 JUMPI PUSH1 0x0 DUP1 REVERT JUMPDEST POP PUSH2 0x3B4 DUP1 PUSH2 0x20 PUSH1 0x0 CODECOPY PUSH1 0x0 RETURN INVALID PUSH1 0x80 PUSH1 0x40 MSTORE CALLVALUE DUP1 ISZERO PUSH2 0x10 JUMPI PUSH1 0x0 DUP1 REVERT JUMPDEST POP PUSH1 0x4 CALLDATASIZE LT PUSH2 0x4C JUMPI PUSH1 0x0 CALLDATALOAD PUSH1 0xE0 SHR DUP1 PUSH4 0xCA21E9C EQ PUSH2 0x51 JUMPI DUP1 PUSH4 0x370EA142 EQ PUSH2 0x5B JUMPI DUP1 PUSH4 0xA4ECE52C EQ PUSH2 0x65 JUMPI DUP1 PUSH4 0xFA030EF1 EQ PUSH2 0x6F JUMPI JUMPDEST PUSH1 0x0 DUP1 REVERT JUMPDEST PUSH2 0x59 PUSH2 0x79 JUMP JUMPDEST STOP JUMPDEST PUSH2 0x63 PUSH2 0xE5 JUMP JUMPDEST STOP JUMPDEST PUSH2 0x6D PUSH2 0x151 JUMP JUMPDEST STOP JUMPDEST PUSH2 0x77 PUSH2 0x1BD JUMP JUMPDEST STOP JUMPDEST PUSH32 0xCF34EF537AC33EE1AC626CA1587A0A7E8E51561E5514F8CB36AFA1C5102B3BAB PUSH1 0x40 MLOAD PUSH2 0xA6 SWAP1 PUSH2 0x2B2 JUMP JUMPDEST PUSH1 0x40 MLOAD DUP1 SWAP2 SUB SWAP1 LOG1 PUSH32 0xCF34EF537AC33EE1AC626CA1587A0A7E8E51561E5514F8CB36AFA1C5102B3BAB PUSH1 0x40 MLOAD PUSH2 0xDB SWAP1 PUSH2 0x2D2 JUMP JUMPDEST PUSH1 0x40 MLOAD DUP1 SWAP2 SUB SWAP1 LOG1 JUMP JUMPDEST PUSH32 0xCF34EF537AC33EE1AC626CA1587A0A7E8E51561E5514F8CB36AFA1C5102B3BAB PUSH1 0x40 MLOAD PUSH2 0x112 SWAP1 PUSH2 0x2B2 JUMP JUMPDEST PUSH1 0x40 MLOAD DUP1 SWAP2 SUB SWAP1 LOG1 PUSH32 0xCF34EF537AC33EE1AC626CA1587A0A7E8E51561E5514F8CB36AFA1C5102B3BAB PUSH1 0x40 MLOAD PUSH2 0x147 SWAP1 PUSH2 0x292 JUMP JUMPDEST PUSH1 0x40 MLOAD DUP1 SWAP2 SUB SWAP1 LOG1 JUMP JUMPDEST PUSH32 0xCF34EF537AC33EE1AC626CA1587A0A7E8E51561E5514F8CB36AFA1C5102B3BAB PUSH1 0x40 MLOAD PUSH2 0x17E SWAP1 PUSH2 0x2B2 JUMP JUMPDEST PUSH1 0x40 MLOAD DUP1 SWAP2 SUB SWAP1 LOG1 PUSH32 0xCF34EF537AC33EE1AC626CA1587A0A7E8E51561E5514F8CB36AFA1C5102B3BAB PUSH1 0x40 MLOAD PUSH2 0x1B3 SWAP1 PUSH2 0x292 JUMP JUMPDEST PUSH1 0x40 MLOAD DUP1 SWAP2 SUB SWAP1 LOG1 JUMP JUMPDEST PUSH32 0xCF34EF537AC33EE1AC626CA1587A0A7E8E51561E5514F8CB36AFA1C5102B3BAB PUSH1 0x40 MLOAD PUSH2 0x1EA SWAP1 PUSH2 0x2B2 JUMP JUMPDEST PUSH1 0x40 MLOAD DUP1 SWAP2 SUB SWAP1 LOG1 PUSH32 0xCF34EF537AC33EE1AC626CA1587A0A7E8E51561E5514F8CB36AFA1C5102B3BAB PUSH1 0x40 MLOAD PUSH2 0x21F SWAP1 PUSH2 0x292 JUMP JUMPDEST PUSH1 0x40 MLOAD DUP1 SWAP2 SUB SWAP1 LOG1 JUMP JUMPDEST PUSH1 0x0 PUSH2 0x236 PUSH1 0x4 DUP4 PUSH2 0x2F2 JUMP JUMPDEST SWAP2 POP PUSH2 0x241 DUP3 PUSH2 0x303 JUMP JUMPDEST PUSH1 0x20 DUP3 ADD SWAP1 POP SWAP2 SWAP1 POP JUMP JUMPDEST PUSH1 0x0 PUSH2 0x259 PUSH1 0xC DUP4 PUSH2 0x2F2 JUMP JUMPDEST SWAP2 POP PUSH2 0x264 DUP3 PUSH2 0x32C JUMP JUMPDEST PUSH1 0x20 DUP3 ADD SWAP1 POP SWAP2 SWAP1 POP JUMP JUMPDEST PUSH1 0x0 PUSH2 0x27C PUSH1 0x4 DUP4 PUSH2 0x2F2 JUMP JUMPDEST SWAP2 POP PUSH2 0x287 DUP3 PUSH2 0x355 JUMP JUMPDEST PUSH1 0x20 DUP3 ADD SWAP1 POP SWAP2 SWAP1 POP JUMP JUMPDEST PUSH1 0x0 PUSH1 0x20 DUP3 ADD SWAP1 POP DUP2 DUP2 SUB PUSH1 0x0 DUP4 ADD MSTORE PUSH2 0x2AB DUP2 PUSH2 0x229 JUMP JUMPDEST SWAP1 POP SWAP2 SWAP1 POP JUMP JUMPDEST PUSH1 0x0 PUSH1 0x20 DUP3 ADD SWAP1 POP DUP2 DUP2 SUB PUSH1 0x0 DUP4 ADD MSTORE PUSH2 0x2CB DUP2 PUSH2 0x24C JUMP JUMPDEST SWAP1 POP SWAP2 SWAP1 POP JUMP JUMPDEST PUSH1 0x0 PUSH1 0x20 DUP3 ADD SWAP1 POP DUP2 DUP2 SUB PUSH1 0x0 DUP4 ADD MSTORE PUSH2 0x2EB DUP2 PUSH2 0x26F JUMP JUMPDEST SWAP1 POP SWAP2 SWAP1 POP JUMP JUMPDEST PUSH1 0x0 DUP3 DUP3 MSTORE PUSH1 0x20 DUP3 ADD SWAP1 POP SWAP3 SWAP2 POP POP JUMP JUMPDEST PUSH32 0x6261626100000000000000000000000000000000000000000000000000000000 PUSH1 0x0 DUP3 ADD MSTORE POP JUMP JUMPDEST PUSH32 0x6D6F646966696572426162610000000000000000000000000000000000000000 PUSH1 0x0 DUP3 ADD MSTORE POP JUMP JUMPDEST PUSH32 0x7965796500000000000000000000000000000000000000000000000000000000 PUSH1 0x0 DUP3 ADD MSTORE POP JUMP INVALID LOG2 PUSH5 0x6970667358 0x22 SLT KECCAK256 TIMESTAMP PUSH23 0x4C2832F2229606FB60723099815AB95E12B556235329B6 JUMP LOG0 0xEC AND 0xCF RETURN 0x2D PUSH5 0x736F6C6343 STOP ADDMOD SMOD STOP CALLER "
				},
				"gasEstimates": {
					"creation": {
						"codeDepositCost": "189600",
						"executionCost": "232",
						"totalCost": "189832"
					},
					"external": {
						"baba()": "infinite",
						"hip()": "infinite",
						"pop()": "infinite",
						"yeye()": "infinite"
					}
				},
				"methodIdentifiers": {
					"baba()": "fa030ef1",
					"hip()": "370ea142",
					"pop()": "a4ece52c",
					"yeye()": "0ca21e9c"
				}
			},
			"storageLayout": {
				"storage": [],
				"types": null
			},
			"userdoc": {
				"kind": "user",
				"methods": {},
				"version": 1
			}
		}
	}
}