{
	"contract/wtf/钻石继承.sol": {
		"E": {
			"abi": [
				{
					"anonymous": false,
					"inputs": [
						{
							"indexed": false,
							"internalType": "string",
							"name": "",
							"type": "string"
						}
					],
					"name": "Log",
					"type": "event"
				},
				{
					"inputs": [],
					"name": "dCall",
					"outputs": [],
					"stateMutability": "nonpayable",
					"type": "function"
				},
				{
					"inputs": [],
					"name": "dCallSuper",
					"outputs": [],
					"stateMutability": "nonpayable",
					"type": "function"
				},
				{
					"inputs": [],
					"name": "foo",
					"outputs": [],
					"stateMutability": "nonpayable",
					"type": "function"
				}
			],
			"devdoc": {
				"kind": "dev",
				"methods": {},
				"version": 1
			},
			"evm": {
				"assembly": "    /* \"contract/wtf/\\xe9\\x92\\xbb\\xe7\\x9f\\xb3\\xe7\\xbb\\xa7\\xe6\\x89\\xbf.sol\":466:713  contract E is C, B {... */\n  mstore(0x40, 0x80)\n  callvalue\n  dup1\n  iszero\n  tag_1\n  jumpi\n  0x00\n  dup1\n  revert\ntag_1:\n  pop\n  dataSize(sub_0)\n  dup1\n  dataOffset(sub_0)\n  0x00\n  codecopy\n  0x00\n  return\nstop\n\nsub_0: assembly {\n        /* \"contract/wtf/\\xe9\\x92\\xbb\\xe7\\x9f\\xb3\\xe7\\xbb\\xa7\\xe6\\x89\\xbf.sol\":466:713  contract E is C, B {... */\n      mstore(0x40, 0x80)\n      callvalue\n      dup1\n      iszero\n      tag_1\n      jumpi\n      0x00\n      dup1\n      revert\n    tag_1:\n      pop\n      jumpi(tag_2, lt(calldatasize, 0x04))\n      shr(0xe0, calldataload(0x00))\n      dup1\n      0x1fb3dd6f\n      eq\n      tag_3\n      jumpi\n      dup1\n      0x4c203945\n      eq\n      tag_4\n      jumpi\n      dup1\n      0xc2985578\n      eq\n      tag_5\n      jumpi\n    tag_2:\n      0x00\n      dup1\n      revert\n        /* \"contract/wtf/\\xe9\\x92\\xbb\\xe7\\x9f\\xb3\\xe7\\xbb\\xa7\\xe6\\x89\\xbf.sol\":562:646  function dCall() external {... */\n    tag_3:\n      tag_6\n      tag_7\n      jump\t// in\n    tag_6:\n      stop\n        /* \"contract/wtf/\\xe9\\x92\\xbb\\xe7\\x9f\\xb3\\xe7\\xbb\\xa7\\xe6\\x89\\xbf.sol\":652:711  function dCallSuper() external {... */\n    tag_4:\n      tag_8\n      tag_9\n      jump\t// in\n    tag_8:\n      stop\n        /* \"contract/wtf/\\xe9\\x92\\xbb\\xe7\\x9f\\xb3\\xe7\\xbb\\xa7\\xe6\\x89\\xbf.sol\":491:556  function foo() public override(C, B) {... */\n    tag_5:\n      tag_10\n      tag_11\n      jump\t// in\n    tag_10:\n      stop\n        /* \"contract/wtf/\\xe9\\x92\\xbb\\xe7\\x9f\\xb3\\xe7\\xbb\\xa7\\xe6\\x89\\xbf.sol\":562:646  function dCall() external {... */\n    tag_7:\n        /* \"contract/wtf/\\xe9\\x92\\xbb\\xe7\\x9f\\xb3\\xe7\\xbb\\xa7\\xe6\\x89\\xbf.sol\":598:605  B.foo() */\n      tag_13\n        /* \"contract/wtf/\\xe9\\x92\\xbb\\xe7\\x9f\\xb3\\xe7\\xbb\\xa7\\xe6\\x89\\xbf.sol\":598:603  B.foo */\n      tag_14\n        /* \"contract/wtf/\\xe9\\x92\\xbb\\xe7\\x9f\\xb3\\xe7\\xbb\\xa7\\xe6\\x89\\xbf.sol\":598:605  B.foo() */\n      jump\t// in\n    tag_13:\n        /* \"contract/wtf/\\xe9\\x92\\xbb\\xe7\\x9f\\xb3\\xe7\\xbb\\xa7\\xe6\\x89\\xbf.sol\":615:622  A.foo() */\n      tag_15\n        /* \"contract/wtf/\\xe9\\x92\\xbb\\xe7\\x9f\\xb3\\xe7\\xbb\\xa7\\xe6\\x89\\xbf.sol\":615:620  A.foo */\n      tag_16\n        /* \"contract/wtf/\\xe9\\x92\\xbb\\xe7\\x9f\\xb3\\xe7\\xbb\\xa7\\xe6\\x89\\xbf.sol\":615:622  A.foo() */\n      jump\t// in\n    tag_15:\n        /* \"contract/wtf/\\xe9\\x92\\xbb\\xe7\\x9f\\xb3\\xe7\\xbb\\xa7\\xe6\\x89\\xbf.sol\":632:639  C.foo() */\n      tag_17\n        /* \"contract/wtf/\\xe9\\x92\\xbb\\xe7\\x9f\\xb3\\xe7\\xbb\\xa7\\xe6\\x89\\xbf.sol\":632:637  C.foo */\n      tag_18\n        /* \"contract/wtf/\\xe9\\x92\\xbb\\xe7\\x9f\\xb3\\xe7\\xbb\\xa7\\xe6\\x89\\xbf.sol\":632:639  C.foo() */\n      jump\t// in\n    tag_17:\n        /* \"contract/wtf/\\xe9\\x92\\xbb\\xe7\\x9f\\xb3\\xe7\\xbb\\xa7\\xe6\\x89\\xbf.sol\":562:646  function dCall() external {... */\n      jump\t// out\n        /* \"contract/wtf/\\xe9\\x92\\xbb\\xe7\\x9f\\xb3\\xe7\\xbb\\xa7\\xe6\\x89\\xbf.sol\":652:711  function dCallSuper() external {... */\n    tag_9:\n        /* \"contract/wtf/\\xe9\\x92\\xbb\\xe7\\x9f\\xb3\\xe7\\xbb\\xa7\\xe6\\x89\\xbf.sol\":693:704  super.foo() */\n      tag_20\n        /* \"contract/wtf/\\xe9\\x92\\xbb\\xe7\\x9f\\xb3\\xe7\\xbb\\xa7\\xe6\\x89\\xbf.sol\":693:702  super.foo */\n      tag_14\n        /* \"contract/wtf/\\xe9\\x92\\xbb\\xe7\\x9f\\xb3\\xe7\\xbb\\xa7\\xe6\\x89\\xbf.sol\":693:704  super.foo() */\n      jump\t// in\n    tag_20:\n        /* \"contract/wtf/\\xe9\\x92\\xbb\\xe7\\x9f\\xb3\\xe7\\xbb\\xa7\\xe6\\x89\\xbf.sol\":652:711  function dCallSuper() external {... */\n      jump\t// out\n        /* \"contract/wtf/\\xe9\\x92\\xbb\\xe7\\x9f\\xb3\\xe7\\xbb\\xa7\\xe6\\x89\\xbf.sol\":491:556  function foo() public override(C, B) {... */\n    tag_11:\n        /* \"contract/wtf/\\xe9\\x92\\xbb\\xe7\\x9f\\xb3\\xe7\\xbb\\xa7\\xe6\\x89\\xbf.sol\":538:549  super.foo() */\n      tag_22\n        /* \"contract/wtf/\\xe9\\x92\\xbb\\xe7\\x9f\\xb3\\xe7\\xbb\\xa7\\xe6\\x89\\xbf.sol\":538:547  super.foo */\n      tag_14\n        /* \"contract/wtf/\\xe9\\x92\\xbb\\xe7\\x9f\\xb3\\xe7\\xbb\\xa7\\xe6\\x89\\xbf.sol\":538:549  super.foo() */\n      jump\t// in\n    tag_22:\n        /* \"contract/wtf/\\xe9\\x92\\xbb\\xe7\\x9f\\xb3\\xe7\\xbb\\xa7\\xe6\\x89\\xbf.sol\":491:556  function foo() public override(C, B) {... */\n      jump\t// out\n        /* \"contract/wtf/\\xe9\\x92\\xbb\\xe7\\x9f\\xb3\\xe7\\xbb\\xa7\\xe6\\x89\\xbf.sol\":248:342  function foo() public virtual override {... */\n    tag_14:\n        /* \"contract/wtf/\\xe9\\x92\\xbb\\xe7\\x9f\\xb3\\xe7\\xbb\\xa7\\xe6\\x89\\xbf.sol\":302:314  Log(\"Log B\") */\n      0xcf34ef537ac33ee1ac626ca1587a0a7e8e51561e5514f8cb36afa1c5102b3bab\n      mload(0x40)\n      tag_24\n      swap1\n      tag_25\n      jump\t// in\n    tag_24:\n      mload(0x40)\n      dup1\n      swap2\n      sub\n      swap1\n      log1\n        /* \"contract/wtf/\\xe9\\x92\\xbb\\xe7\\x9f\\xb3\\xe7\\xbb\\xa7\\xe6\\x89\\xbf.sol\":324:335  super.foo() */\n      tag_26\n        /* \"contract/wtf/\\xe9\\x92\\xbb\\xe7\\x9f\\xb3\\xe7\\xbb\\xa7\\xe6\\x89\\xbf.sol\":324:333  super.foo */\n      tag_18\n        /* \"contract/wtf/\\xe9\\x92\\xbb\\xe7\\x9f\\xb3\\xe7\\xbb\\xa7\\xe6\\x89\\xbf.sol\":324:335  super.foo() */\n      jump\t// in\n    tag_26:\n        /* \"contract/wtf/\\xe9\\x92\\xbb\\xe7\\x9f\\xb3\\xe7\\xbb\\xa7\\xe6\\x89\\xbf.sol\":248:342  function foo() public virtual override {... */\n      jump\t// out\n        /* \"contract/wtf/\\xe9\\x92\\xbb\\xe7\\x9f\\xb3\\xe7\\xbb\\xa7\\xe6\\x89\\xbf.sol\":158:222  function foo() public virtual {... */\n    tag_16:\n        /* \"contract/wtf/\\xe9\\x92\\xbb\\xe7\\x9f\\xb3\\xe7\\xbb\\xa7\\xe6\\x89\\xbf.sol\":203:215  Log(\"Log A\") */\n      0xcf34ef537ac33ee1ac626ca1587a0a7e8e51561e5514f8cb36afa1c5102b3bab\n      mload(0x40)\n      tag_28\n      swap1\n      tag_29\n      jump\t// in\n    tag_28:\n      mload(0x40)\n      dup1\n      swap2\n      sub\n      swap1\n      log1\n        /* \"contract/wtf/\\xe9\\x92\\xbb\\xe7\\x9f\\xb3\\xe7\\xbb\\xa7\\xe6\\x89\\xbf.sol\":158:222  function foo() public virtual {... */\n      jump\t// out\n        /* \"contract/wtf/\\xe9\\x92\\xbb\\xe7\\x9f\\xb3\\xe7\\xbb\\xa7\\xe6\\x89\\xbf.sol\":368:462  function foo() public virtual override {... */\n    tag_18:\n        /* \"contract/wtf/\\xe9\\x92\\xbb\\xe7\\x9f\\xb3\\xe7\\xbb\\xa7\\xe6\\x89\\xbf.sol\":422:434  Log(\"Log C\") */\n      0xcf34ef537ac33ee1ac626ca1587a0a7e8e51561e5514f8cb36afa1c5102b3bab\n      mload(0x40)\n      tag_31\n      swap1\n      tag_32\n      jump\t// in\n    tag_31:\n      mload(0x40)\n      dup1\n      swap2\n      sub\n      swap1\n      log1\n        /* \"contract/wtf/\\xe9\\x92\\xbb\\xe7\\x9f\\xb3\\xe7\\xbb\\xa7\\xe6\\x89\\xbf.sol\":444:455  super.foo() */\n      tag_33\n        /* \"contract/wtf/\\xe9\\x92\\xbb\\xe7\\x9f\\xb3\\xe7\\xbb\\xa7\\xe6\\x89\\xbf.sol\":444:453  super.foo */\n      tag_16\n        /* \"contract/wtf/\\xe9\\x92\\xbb\\xe7\\x9f\\xb3\\xe7\\xbb\\xa7\\xe6\\x89\\xbf.sol\":444:455  super.foo() */\n      jump\t// in\n    tag_33:\n        /* \"contract/wtf/\\xe9\\x92\\xbb\\xe7\\x9f\\xb3\\xe7\\xbb\\xa7\\xe6\\x89\\xbf.sol\":368:462  function foo() public virtual override {... */\n      jump\t// out\n        /* \"#utility.yul\":7:372   */\n    tag_35:\n        /* \"#utility.yul\":149:152   */\n      0x00\n        /* \"#utility.yul\":170:236   */\n      tag_37\n        /* \"#utility.yul\":234:235   */\n      0x05\n        /* \"#utility.yul\":229:232   */\n      dup4\n        /* \"#utility.yul\":170:236   */\n      tag_38\n      jump\t// in\n    tag_37:\n        /* \"#utility.yul\":163:236   */\n      swap2\n      pop\n        /* \"#utility.yul\":245:338   */\n      tag_39\n        /* \"#utility.yul\":334:337   */\n      dup3\n        /* \"#utility.yul\":245:338   */\n      tag_40\n      jump\t// in\n    tag_39:\n        /* \"#utility.yul\":363:365   */\n      0x20\n        /* \"#utility.yul\":358:361   */\n      dup3\n        /* \"#utility.yul\":354:366   */\n      add\n        /* \"#utility.yul\":347:366   */\n      swap1\n      pop\n        /* \"#utility.yul\":7:372   */\n      swap2\n      swap1\n      pop\n      jump\t// out\n        /* \"#utility.yul\":378:743   */\n    tag_41:\n        /* \"#utility.yul\":520:523   */\n      0x00\n        /* \"#utility.yul\":541:607   */\n      tag_43\n        /* \"#utility.yul\":605:606   */\n      0x05\n        /* \"#utility.yul\":600:603   */\n      dup4\n        /* \"#utility.yul\":541:607   */\n      tag_38\n      jump\t// in\n    tag_43:\n        /* \"#utility.yul\":534:607   */\n      swap2\n      pop\n        /* \"#utility.yul\":616:709   */\n      tag_44\n        /* \"#utility.yul\":705:708   */\n      dup3\n        /* \"#utility.yul\":616:709   */\n      tag_45\n      jump\t// in\n    tag_44:\n        /* \"#utility.yul\":734:736   */\n      0x20\n        /* \"#utility.yul\":729:732   */\n      dup3\n        /* \"#utility.yul\":725:737   */\n      add\n        /* \"#utility.yul\":718:737   */\n      swap1\n      pop\n        /* \"#utility.yul\":378:743   */\n      swap2\n      swap1\n      pop\n      jump\t// out\n        /* \"#utility.yul\":749:1114   */\n    tag_46:\n        /* \"#utility.yul\":891:894   */\n      0x00\n        /* \"#utility.yul\":912:978   */\n      tag_48\n        /* \"#utility.yul\":976:977   */\n      0x05\n        /* \"#utility.yul\":971:974   */\n      dup4\n        /* \"#utility.yul\":912:978   */\n      tag_38\n      jump\t// in\n    tag_48:\n        /* \"#utility.yul\":905:978   */\n      swap2\n      pop\n        /* \"#utility.yul\":987:1080   */\n      tag_49\n        /* \"#utility.yul\":1076:1079   */\n      dup3\n        /* \"#utility.yul\":987:1080   */\n      tag_50\n      jump\t// in\n    tag_49:\n        /* \"#utility.yul\":1105:1107   */\n      0x20\n        /* \"#utility.yul\":1100:1103   */\n      dup3\n        /* \"#utility.yul\":1096:1108   */\n      add\n        /* \"#utility.yul\":1089:1108   */\n      swap1\n      pop\n        /* \"#utility.yul\":749:1114   */\n      swap2\n      swap1\n      pop\n      jump\t// out\n        /* \"#utility.yul\":1120:1539   */\n    tag_25:\n        /* \"#utility.yul\":1286:1290   */\n      0x00\n        /* \"#utility.yul\":1324:1326   */\n      0x20\n        /* \"#utility.yul\":1313:1322   */\n      dup3\n        /* \"#utility.yul\":1309:1327   */\n      add\n        /* \"#utility.yul\":1301:1327   */\n      swap1\n      pop\n        /* \"#utility.yul\":1373:1382   */\n      dup2\n        /* \"#utility.yul\":1367:1371   */\n      dup2\n        /* \"#utility.yul\":1363:1383   */\n      sub\n        /* \"#utility.yul\":1359:1360   */\n      0x00\n        /* \"#utility.yul\":1348:1357   */\n      dup4\n        /* \"#utility.yul\":1344:1361   */\n      add\n        /* \"#utility.yul\":1337:1384   */\n      mstore\n        /* \"#utility.yul\":1401:1532   */\n      tag_52\n        /* \"#utility.yul\":1527:1531   */\n      dup2\n        /* \"#utility.yul\":1401:1532   */\n      tag_35\n      jump\t// in\n    tag_52:\n        /* \"#utility.yul\":1393:1532   */\n      swap1\n      pop\n        /* \"#utility.yul\":1120:1539   */\n      swap2\n      swap1\n      pop\n      jump\t// out\n        /* \"#utility.yul\":1545:1964   */\n    tag_32:\n        /* \"#utility.yul\":1711:1715   */\n      0x00\n        /* \"#utility.yul\":1749:1751   */\n      0x20\n        /* \"#utility.yul\":1738:1747   */\n      dup3\n        /* \"#utility.yul\":1734:1752   */\n      add\n        /* \"#utility.yul\":1726:1752   */\n      swap1\n      pop\n        /* \"#utility.yul\":1798:1807   */\n      dup2\n        /* \"#utility.yul\":1792:1796   */\n      dup2\n        /* \"#utility.yul\":1788:1808   */\n      sub\n        /* \"#utility.yul\":1784:1785   */\n      0x00\n        /* \"#utility.yul\":1773:1782   */\n      dup4\n        /* \"#utility.yul\":1769:1786   */\n      add\n        /* \"#utility.yul\":1762:1809   */\n      mstore\n        /* \"#utility.yul\":1826:1957   */\n      tag_54\n        /* \"#utility.yul\":1952:1956   */\n      dup2\n        /* \"#utility.yul\":1826:1957   */\n      tag_41\n      jump\t// in\n    tag_54:\n        /* \"#utility.yul\":1818:1957   */\n      swap1\n      pop\n        /* \"#utility.yul\":1545:1964   */\n      swap2\n      swap1\n      pop\n      jump\t// out\n        /* \"#utility.yul\":1970:2389   */\n    tag_29:\n        /* \"#utility.yul\":2136:2140   */\n      0x00\n        /* \"#utility.yul\":2174:2176   */\n      0x20\n        /* \"#utility.yul\":2163:2172   */\n      dup3\n        /* \"#utility.yul\":2159:2177   */\n      add\n        /* \"#utility.yul\":2151:2177   */\n      swap1\n      pop\n        /* \"#utility.yul\":2223:2232   */\n      dup2\n        /* \"#utility.yul\":2217:2221   */\n      dup2\n        /* \"#utility.yul\":2213:2233   */\n      sub\n        /* \"#utility.yul\":2209:2210   */\n      0x00\n        /* \"#utility.yul\":2198:2207   */\n      dup4\n        /* \"#utility.yul\":2194:2211   */\n      add\n        /* \"#utility.yul\":2187:2234   */\n      mstore\n        /* \"#utility.yul\":2251:2382   */\n      tag_56\n        /* \"#utility.yul\":2377:2381   */\n      dup2\n        /* \"#utility.yul\":2251:2382   */\n      tag_46\n      jump\t// in\n    tag_56:\n        /* \"#utility.yul\":2243:2382   */\n      swap1\n      pop\n        /* \"#utility.yul\":1970:2389   */\n      swap2\n      swap1\n      pop\n      jump\t// out\n        /* \"#utility.yul\":2395:2564   */\n    tag_38:\n        /* \"#utility.yul\":2479:2490   */\n      0x00\n        /* \"#utility.yul\":2513:2519   */\n      dup3\n        /* \"#utility.yul\":2508:2511   */\n      dup3\n        /* \"#utility.yul\":2501:2520   */\n      mstore\n        /* \"#utility.yul\":2553:2557   */\n      0x20\n        /* \"#utility.yul\":2548:2551   */\n      dup3\n        /* \"#utility.yul\":2544:2558   */\n      add\n        /* \"#utility.yul\":2529:2558   */\n      swap1\n      pop\n        /* \"#utility.yul\":2395:2564   */\n      swap3\n      swap2\n      pop\n      pop\n      jump\t// out\n        /* \"#utility.yul\":2570:2725   */\n    tag_40:\n        /* \"#utility.yul\":2710:2717   */\n      0x4c6f672042000000000000000000000000000000000000000000000000000000\n        /* \"#utility.yul\":2706:2707   */\n      0x00\n        /* \"#utility.yul\":2698:2704   */\n      dup3\n        /* \"#utility.yul\":2694:2708   */\n      add\n        /* \"#utility.yul\":2687:2718   */\n      mstore\n        /* \"#utility.yul\":2570:2725   */\n      pop\n      jump\t// out\n        /* \"#utility.yul\":2731:2886   */\n    tag_45:\n        /* \"#utility.yul\":2871:2878   */\n      0x4c6f672043000000000000000000000000000000000000000000000000000000\n        /* \"#utility.yul\":2867:2868   */\n      0x00\n        /* \"#utility.yul\":2859:2865   */\n      dup3\n        /* \"#utility.yul\":2855:2869   */\n      add\n        /* \"#utility.yul\":2848:2879   */\n      mstore\n        /* \"#utility.yul\":2731:2886   */\n      pop\n      jump\t// out\n        /* \"#utility.yul\":2892:3047   */\n    tag_50:\n        /* \"#utility.yul\":3032:3039   */\n      0x4c6f672041000000000000000000000000000000000000000000000000000000\n        /* \"#utility.yul\":3028:3029   */\n      0x00\n        /* \"#utility.yul\":3020:3026   */\n      dup3\n        /* \"#utility.yul\":3016:3030   */\n      add\n        /* \"#utility.yul\":3009:3040   */\n      mstore\n        /* \"#utility.yul\":2892:3047   */\n      pop\n      jump\t// out\n\n    auxdata: 0xa2646970667358221220e52008a40fab6af01717fd17773cb7273016879a7319b04662369a97d3672cff64736f6c63430008070033\n}\n",
				"bytecode": {
					"linkReferences": {},
					"object": "608060405234801561001057600080fd5b506102d2806100206000396000f3fe608060405234801561001057600080fd5b50600436106100415760003560e01c80631fb3dd6f146100465780634c20394514610050578063c29855781461005a575b600080fd5b61004e610064565b005b61005861007e565b005b610062610088565b005b61006c610092565b6100746100d1565b61007c610108565b565b610086610092565b565b610090610092565b565b7fcf34ef537ac33ee1ac626ca1587a0a7e8e51561e5514f8cb36afa1c5102b3bab6040516100bf906101b0565b60405180910390a16100cf610108565b565b7fcf34ef537ac33ee1ac626ca1587a0a7e8e51561e5514f8cb36afa1c5102b3bab6040516100fe906101f0565b60405180910390a1565b7fcf34ef537ac33ee1ac626ca1587a0a7e8e51561e5514f8cb36afa1c5102b3bab604051610135906101d0565b60405180910390a16101456100d1565b565b6000610154600583610210565b915061015f82610221565b602082019050919050565b6000610177600583610210565b91506101828261024a565b602082019050919050565b600061019a600583610210565b91506101a582610273565b602082019050919050565b600060208201905081810360008301526101c981610147565b9050919050565b600060208201905081810360008301526101e98161016a565b9050919050565b600060208201905081810360008301526102098161018d565b9050919050565b600082825260208201905092915050565b7f4c6f672042000000000000000000000000000000000000000000000000000000600082015250565b7f4c6f672043000000000000000000000000000000000000000000000000000000600082015250565b7f4c6f67204100000000000000000000000000000000000000000000000000000060008201525056fea2646970667358221220e52008a40fab6af01717fd17773cb7273016879a7319b04662369a97d3672cff64736f6c63430008070033",
					"opcodes": "PUSH1 0x80 PUSH1 0x40 MSTORE CALLVALUE DUP1 ISZERO PUSH2 0x10 JUMPI PUSH1 0x0 DUP1 REVERT JUMPDEST POP PUSH2 0x2D2 DUP1 PUSH2 0x20 PUSH1 0x0 CODECOPY PUSH1 0x0 RETURN INVALID PUSH1 0x80 PUSH1 0x40 MSTORE CALLVALUE DUP1 ISZERO PUSH2 0x10 JUMPI PUSH1 0x0 DUP1 REVERT JUMPDEST POP PUSH1 0x4 CALLDATASIZE LT PUSH2 0x41 JUMPI PUSH1 0x0 CALLDATALOAD PUSH1 0xE0 SHR DUP1 PUSH4 0x1FB3DD6F EQ PUSH2 0x46 JUMPI DUP1 PUSH4 0x4C203945 EQ PUSH2 0x50 JUMPI DUP1 PUSH4 0xC2985578 EQ PUSH2 0x5A JUMPI JUMPDEST PUSH1 0x0 DUP1 REVERT JUMPDEST PUSH2 0x4E PUSH2 0x64 JUMP JUMPDEST STOP JUMPDEST PUSH2 0x58 PUSH2 0x7E JUMP JUMPDEST STOP JUMPDEST PUSH2 0x62 PUSH2 0x88 JUMP JUMPDEST STOP JUMPDEST PUSH2 0x6C PUSH2 0x92 JUMP JUMPDEST PUSH2 0x74 PUSH2 0xD1 JUMP JUMPDEST PUSH2 0x7C PUSH2 0x108 JUMP JUMPDEST JUMP JUMPDEST PUSH2 0x86 PUSH2 0x92 JUMP JUMPDEST JUMP JUMPDEST PUSH2 0x90 PUSH2 0x92 JUMP JUMPDEST JUMP JUMPDEST PUSH32 0xCF34EF537AC33EE1AC626CA1587A0A7E8E51561E5514F8CB36AFA1C5102B3BAB PUSH1 0x40 MLOAD PUSH2 0xBF SWAP1 PUSH2 0x1B0 JUMP JUMPDEST PUSH1 0x40 MLOAD DUP1 SWAP2 SUB SWAP1 LOG1 PUSH2 0xCF PUSH2 0x108 JUMP JUMPDEST JUMP JUMPDEST PUSH32 0xCF34EF537AC33EE1AC626CA1587A0A7E8E51561E5514F8CB36AFA1C5102B3BAB PUSH1 0x40 MLOAD PUSH2 0xFE SWAP1 PUSH2 0x1F0 JUMP JUMPDEST PUSH1 0x40 MLOAD DUP1 SWAP2 SUB SWAP1 LOG1 JUMP JUMPDEST PUSH32 0xCF34EF537AC33EE1AC626CA1587A0A7E8E51561E5514F8CB36AFA1C5102B3BAB PUSH1 0x40 MLOAD PUSH2 0x135 SWAP1 PUSH2 0x1D0 JUMP JUMPDEST PUSH1 0x40 MLOAD DUP1 SWAP2 SUB SWAP1 LOG1 PUSH2 0x145 PUSH2 0xD1 JUMP JUMPDEST JUMP JUMPDEST PUSH1 0x0 PUSH2 0x154 PUSH1 0x5 DUP4 PUSH2 0x210 JUMP JUMPDEST SWAP2 POP PUSH2 0x15F DUP3 PUSH2 0x221 JUMP JUMPDEST PUSH1 0x20 DUP3 ADD SWAP1 POP SWAP2 SWAP1 POP JUMP JUMPDEST PUSH1 0x0 PUSH2 0x177 PUSH1 0x5 DUP4 PUSH2 0x210 JUMP JUMPDEST SWAP2 POP PUSH2 0x182 DUP3 PUSH2 0x24A JUMP JUMPDEST PUSH1 0x20 DUP3 ADD SWAP1 POP SWAP2 SWAP1 POP JUMP JUMPDEST PUSH1 0x0 PUSH2 0x19A PUSH1 0x5 DUP4 PUSH2 0x210 JUMP JUMPDEST SWAP2 POP PUSH2 0x1A5 DUP3 PUSH2 0x273 JUMP JUMPDEST PUSH1 0x20 DUP3 ADD SWAP1 POP SWAP2 SWAP1 POP JUMP JUMPDEST PUSH1 0x0 PUSH1 0x20 DUP3 ADD SWAP1 POP DUP2 DUP2 SUB PUSH1 0x0 DUP4 ADD MSTORE PUSH2 0x1C9 DUP2 PUSH2 0x147 JUMP JUMPDEST SWAP1 POP SWAP2 SWAP1 POP JUMP JUMPDEST PUSH1 0x0 PUSH1 0x20 DUP3 ADD SWAP1 POP DUP2 DUP2 SUB PUSH1 0x0 DUP4 ADD MSTORE PUSH2 0x1E9 DUP2 PUSH2 0x16A JUMP JUMPDEST SWAP1 POP SWAP2 SWAP1 POP JUMP JUMPDEST PUSH1 0x0 PUSH1 0x20 DUP3 ADD SWAP1 POP DUP2 DUP2 SUB PUSH1 0x0 DUP4 ADD MSTORE PUSH2 0x209 DUP2 PUSH2 0x18D JUMP JUMPDEST SWAP1 POP SWAP2 SWAP1 POP JUMP JUMPDEST PUSH1 0x0 DUP3 DUP3 MSTORE PUSH1 0x20 DUP3 ADD SWAP1 POP SWAP3 SWAP2 POP POP JUMP JUMPDEST PUSH32 0x4C6F672042000000000000000000000000000000000000000000000000000000 PUSH1 0x0 DUP3 ADD MSTORE POP JUMP JUMPDEST PUSH32 0x4C6F672043000000000000000000000000000000000000000000000000000000 PUSH1 0x0 DUP3 ADD MSTORE POP JUMP JUMPDEST PUSH32 0x4C6F672041000000000000000000000000000000000000000000000000000000 PUSH1 0x0 DUP3 ADD MSTORE POP JUMP INVALID LOG2 PUSH5 0x6970667358 0x22 SLT KECCAK256 0xE5 KECCAK256 ADDMOD LOG4 0xF 0xAB PUSH11 0xF01717FD17773CB7273016 DUP8 SWAP11 PUSH20 0x19B04662369A97D3672CFF64736F6C6343000807 STOP CALLER "
				},
				"gasEstimates": {
					"creation": {
						"codeDepositCost": "144400",
						"executionCost": "190",
						"totalCost": "144590"
					},
					"external": {
						"dCall()": "infinite",
						"dCallSuper()": "infinite",
						"foo()": "infinite"
					}
				},
				"methodIdentifiers": {
					"dCall()": "1fb3dd6f",
					"dCallSuper()": "4c203945",
					"foo()": "c2985578"
				}
			},
			"storageLayout": {
				"storage": [],
				"types": null
			},
			"userdoc": {
				"kind": "user",
				"methods": {},
				"version": 1
			}
		}
	}
}