{
	"contract/wtf/abi.sol": {
		"AbiDemo": {
			"abi": [
				{
					"inputs": [
						{
							"internalType": "bytes",
							"name": "data",
							"type": "bytes"
						}
					],
					"name": "abiDecode",
					"outputs": [
						{
							"internalType": "uint256",
							"name": "dx",
							"type": "uint256"
						},
						{
							"internalType": "address",
							"name": "daddr",
							"type": "address"
						},
						{
							"internalType": "string",
							"name": "dname",
							"type": "string"
						},
						{
							"internalType": "uint256[2]",
							"name": "darray",
							"type": "uint256[2]"
						}
					],
					"stateMutability": "pure",
					"type": "function"
				},
				{
					"inputs": [],
					"name": "abiEncode",
					"outputs": [
						{
							"internalType": "bytes",
							"name": "result",
							"type": "bytes"
						}
					],
					"stateMutability": "view",
					"type": "function"
				},
				{
					"inputs": [],
					"name": "abiEncodePacked",
					"outputs": [
						{
							"internalType": "bytes",
							"name": "result",
							"type": "bytes"
						}
					],
					"stateMutability": "view",
					"type": "function"
				},
				{
					"inputs": [],
					"name": "abiEncodeWithSelector",
					"outputs": [
						{
							"internalType": "bytes",
							"name": "result",
							"type": "bytes"
						}
					],
					"stateMutability": "view",
					"type": "function"
				},
				{
					"inputs": [],
					"name": "abiEncodeWithSignature",
					"outputs": [
						{
							"internalType": "bytes",
							"name": "result",
							"type": "bytes"
						}
					],
					"stateMutability": "view",
					"type": "function"
				}
			],
			"devdoc": {
				"kind": "dev",
				"methods": {},
				"version": 1
			},
			"evm": {
				"assembly": "    /* \"contract/wtf/abi.sol\":241:1634  contract AbiDemo {... */\n  mstore(0x40, 0x80)\n    /* \"contract/wtf/abi.sol\":276:278  10 */\n  0x0a\n    /* \"contract/wtf/abi.sol\":264:278  uint256 x = 10 */\n  0x00\n  sstore\n    /* \"contract/wtf/abi.sol\":299:341  0x7A58c0Be72BE218B41C608b7Fe7C5bB630736C71 */\n  0x7a58c0be72be218b41c608b7fe7c5bb630736c71\n    /* \"contract/wtf/abi.sol\":284:341  address addr = 0x7A58c0Be72BE218B41C608b7Fe7C5bB630736C71 */\n  0x01\n  exp(0x0100, 0x00)\n  dup2\n  sload\n  dup2\n  0xffffffffffffffffffffffffffffffffffffffff\n  mul\n  not\n  and\n  swap1\n  dup4\n  0xffffffffffffffffffffffffffffffffffffffff\n  and\n  mul\n  or\n  swap1\n  sstore\n  pop\n    /* \"contract/wtf/abi.sol\":347:367  string name = \"0xAA\" */\n  mload(0x40)\n  dup1\n  0x40\n  add\n  0x40\n  mstore\n  dup1\n  0x04\n  dup2\n  mstore\n  0x20\n  add\n  0x3078414100000000000000000000000000000000000000000000000000000000\n  dup2\n  mstore\n  pop\n  0x02\n  swap1\n  dup2\n  tag_1\n  swap2\n  swap1\n  tag_2\n  jump\t// in\ntag_1:\n  pop\n    /* \"contract/wtf/abi.sol\":373:398  uint256[2] array = [5, 6] */\n  mload(0x40)\n  dup1\n  0x40\n  add\n  0x40\n  mstore\n  dup1\n    /* \"contract/wtf/abi.sol\":393:394  5 */\n  0x05\n    /* \"contract/wtf/abi.sol\":373:398  uint256[2] array = [5, 6] */\n  0xff\n  and\n  dup2\n  mstore\n  0x20\n  add\n    /* \"contract/wtf/abi.sol\":396:397  6 */\n  0x06\n    /* \"contract/wtf/abi.sol\":373:398  uint256[2] array = [5, 6] */\n  0xff\n  and\n  dup2\n  mstore\n  pop\n  0x03\n  swap1\n  0x02\n  tag_3\n  swap3\n  swap2\n  swap1\n  tag_4\n  jump\t// in\ntag_3:\n  pop\n    /* \"contract/wtf/abi.sol\":241:1634  contract AbiDemo {... */\n  callvalue\n  dup1\n  iszero\n  tag_5\n  jumpi\n  0x00\n  dup1\n  revert\ntag_5:\n  pop\n  jump(tag_6)\ntag_4:\n  dup3\n  0x02\n  dup2\n  add\n  swap3\n  dup3\n  iszero\n  tag_7\n  jumpi\n  swap2\n  0x20\n  mul\n  dup3\n  add\ntag_8:\n  dup3\n  dup2\n  gt\n  iszero\n  tag_9\n  jumpi\n  dup3\n  mload\n  dup3\n  swap1\n  0xff\n  and\n  swap1\n  sstore\n  swap2\n  0x20\n  add\n  swap2\n  swap1\n  0x01\n  add\n  swap1\n  jump(tag_8)\ntag_9:\ntag_7:\n  pop\n  swap1\n  pop\n  tag_10\n  swap2\n  swap1\n  tag_11\n  jump\t// in\ntag_10:\n  pop\n  swap1\n  jump\t// out\ntag_11:\ntag_12:\n  dup1\n  dup3\n  gt\n  iszero\n  tag_13\n  jumpi\n  0x00\n  dup2\n  0x00\n  swap1\n  sstore\n  pop\n  0x01\n  add\n  jump(tag_12)\ntag_13:\n  pop\n  swap1\n  jump\t// out\n    /* \"#utility.yul\":7:106   */\ntag_14:\n    /* \"#utility.yul\":59:65   */\n  0x00\n    /* \"#utility.yul\":93:98   */\n  dup2\n    /* \"#utility.yul\":87:99   */\n  mload\n    /* \"#utility.yul\":77:99   */\n  swap1\n  pop\n    /* \"#utility.yul\":7:106   */\n  swap2\n  swap1\n  pop\n  jump\t// out\n    /* \"#utility.yul\":112:292   */\ntag_15:\n    /* \"#utility.yul\":160:237   */\n  0x4e487b7100000000000000000000000000000000000000000000000000000000\n    /* \"#utility.yul\":157:158   */\n  0x00\n    /* \"#utility.yul\":150:238   */\n  mstore\n    /* \"#utility.yul\":257:261   */\n  0x41\n    /* \"#utility.yul\":254:255   */\n  0x04\n    /* \"#utility.yul\":247:262   */\n  mstore\n    /* \"#utility.yul\":281:285   */\n  0x24\n    /* \"#utility.yul\":278:279   */\n  0x00\n    /* \"#utility.yul\":271:286   */\n  revert\n    /* \"#utility.yul\":298:478   */\ntag_16:\n    /* \"#utility.yul\":346:423   */\n  0x4e487b7100000000000000000000000000000000000000000000000000000000\n    /* \"#utility.yul\":343:344   */\n  0x00\n    /* \"#utility.yul\":336:424   */\n  mstore\n    /* \"#utility.yul\":443:447   */\n  0x22\n    /* \"#utility.yul\":440:441   */\n  0x04\n    /* \"#utility.yul\":433:448   */\n  mstore\n    /* \"#utility.yul\":467:471   */\n  0x24\n    /* \"#utility.yul\":464:465   */\n  0x00\n    /* \"#utility.yul\":457:472   */\n  revert\n    /* \"#utility.yul\":484:804   */\ntag_17:\n    /* \"#utility.yul\":528:534   */\n  0x00\n    /* \"#utility.yul\":565:566   */\n  0x02\n    /* \"#utility.yul\":559:563   */\n  dup3\n    /* \"#utility.yul\":555:567   */\n  div\n    /* \"#utility.yul\":545:567   */\n  swap1\n  pop\n    /* \"#utility.yul\":612:613   */\n  0x01\n    /* \"#utility.yul\":606:610   */\n  dup3\n    /* \"#utility.yul\":602:614   */\n  and\n    /* \"#utility.yul\":633:651   */\n  dup1\n    /* \"#utility.yul\":623:704   */\n  tag_39\n  jumpi\n    /* \"#utility.yul\":689:693   */\n  0x7f\n    /* \"#utility.yul\":681:687   */\n  dup3\n    /* \"#utility.yul\":677:694   */\n  and\n    /* \"#utility.yul\":667:694   */\n  swap2\n  pop\n    /* \"#utility.yul\":623:704   */\ntag_39:\n    /* \"#utility.yul\":751:753   */\n  0x20\n    /* \"#utility.yul\":743:749   */\n  dup3\n    /* \"#utility.yul\":740:754   */\n  lt\n    /* \"#utility.yul\":720:738   */\n  dup2\n    /* \"#utility.yul\":717:755   */\n  sub\n    /* \"#utility.yul\":714:798   */\n  tag_40\n  jumpi\n    /* \"#utility.yul\":770:788   */\n  tag_41\n  tag_16\n  jump\t// in\ntag_41:\n    /* \"#utility.yul\":714:798   */\ntag_40:\n    /* \"#utility.yul\":535:804   */\n  pop\n    /* \"#utility.yul\":484:804   */\n  swap2\n  swap1\n  pop\n  jump\t// out\n    /* \"#utility.yul\":810:951   */\ntag_18:\n    /* \"#utility.yul\":859:863   */\n  0x00\n    /* \"#utility.yul\":882:885   */\n  dup2\n    /* \"#utility.yul\":874:885   */\n  swap1\n  pop\n    /* \"#utility.yul\":905:908   */\n  dup2\n    /* \"#utility.yul\":902:903   */\n  0x00\n    /* \"#utility.yul\":895:909   */\n  mstore\n    /* \"#utility.yul\":939:943   */\n  0x20\n    /* \"#utility.yul\":936:937   */\n  0x00\n    /* \"#utility.yul\":926:944   */\n  keccak256\n    /* \"#utility.yul\":918:944   */\n  swap1\n  pop\n    /* \"#utility.yul\":810:951   */\n  swap2\n  swap1\n  pop\n  jump\t// out\n    /* \"#utility.yul\":957:1050   */\ntag_19:\n    /* \"#utility.yul\":994:1000   */\n  0x00\n    /* \"#utility.yul\":1041:1043   */\n  0x20\n    /* \"#utility.yul\":1036:1038   */\n  0x1f\n    /* \"#utility.yul\":1029:1034   */\n  dup4\n    /* \"#utility.yul\":1025:1039   */\n  add\n    /* \"#utility.yul\":1021:1044   */\n  div\n    /* \"#utility.yul\":1011:1044   */\n  swap1\n  pop\n    /* \"#utility.yul\":957:1050   */\n  swap2\n  swap1\n  pop\n  jump\t// out\n    /* \"#utility.yul\":1056:1163   */\ntag_20:\n    /* \"#utility.yul\":1100:1108   */\n  0x00\n    /* \"#utility.yul\":1150:1155   */\n  dup3\n    /* \"#utility.yul\":1144:1148   */\n  dup3\n    /* \"#utility.yul\":1140:1156   */\n  shl\n    /* \"#utility.yul\":1119:1156   */\n  swap1\n  pop\n    /* \"#utility.yul\":1056:1163   */\n  swap3\n  swap2\n  pop\n  pop\n  jump\t// out\n    /* \"#utility.yul\":1169:1562   */\ntag_21:\n    /* \"#utility.yul\":1238:1244   */\n  0x00\n    /* \"#utility.yul\":1288:1289   */\n  0x08\n    /* \"#utility.yul\":1276:1286   */\n  dup4\n    /* \"#utility.yul\":1272:1290   */\n  mul\n    /* \"#utility.yul\":1311:1408   */\n  tag_46\n    /* \"#utility.yul\":1341:1407   */\n  0xffffffffffffffffffffffffffffffffffffffffffffffffffffffffffffffff\n    /* \"#utility.yul\":1330:1339   */\n  dup3\n    /* \"#utility.yul\":1311:1408   */\n  tag_20\n  jump\t// in\ntag_46:\n    /* \"#utility.yul\":1429:1468   */\n  tag_47\n    /* \"#utility.yul\":1459:1467   */\n  dup7\n    /* \"#utility.yul\":1448:1457   */\n  dup4\n    /* \"#utility.yul\":1429:1468   */\n  tag_20\n  jump\t// in\ntag_47:\n    /* \"#utility.yul\":1417:1468   */\n  swap6\n  pop\n    /* \"#utility.yul\":1501:1505   */\n  dup1\n    /* \"#utility.yul\":1497:1506   */\n  not\n    /* \"#utility.yul\":1490:1495   */\n  dup5\n    /* \"#utility.yul\":1486:1507   */\n  and\n    /* \"#utility.yul\":1477:1507   */\n  swap4\n  pop\n    /* \"#utility.yul\":1550:1554   */\n  dup1\n    /* \"#utility.yul\":1540:1548   */\n  dup7\n    /* \"#utility.yul\":1536:1555   */\n  and\n    /* \"#utility.yul\":1529:1534   */\n  dup5\n    /* \"#utility.yul\":1526:1556   */\n  or\n    /* \"#utility.yul\":1516:1556   */\n  swap3\n  pop\n    /* \"#utility.yul\":1245:1562   */\n  pop\n  pop\n    /* \"#utility.yul\":1169:1562   */\n  swap4\n  swap3\n  pop\n  pop\n  pop\n  jump\t// out\n    /* \"#utility.yul\":1568:1645   */\ntag_22:\n    /* \"#utility.yul\":1605:1612   */\n  0x00\n    /* \"#utility.yul\":1634:1639   */\n  dup2\n    /* \"#utility.yul\":1623:1639   */\n  swap1\n  pop\n    /* \"#utility.yul\":1568:1645   */\n  swap2\n  swap1\n  pop\n  jump\t// out\n    /* \"#utility.yul\":1651:1711   */\ntag_23:\n    /* \"#utility.yul\":1679:1682   */\n  0x00\n    /* \"#utility.yul\":1700:1705   */\n  dup2\n    /* \"#utility.yul\":1693:1705   */\n  swap1\n  pop\n    /* \"#utility.yul\":1651:1711   */\n  swap2\n  swap1\n  pop\n  jump\t// out\n    /* \"#utility.yul\":1717:1859   */\ntag_24:\n    /* \"#utility.yul\":1767:1776   */\n  0x00\n    /* \"#utility.yul\":1800:1853   */\n  tag_51\n    /* \"#utility.yul\":1818:1852   */\n  tag_52\n    /* \"#utility.yul\":1827:1851   */\n  tag_53\n    /* \"#utility.yul\":1845:1850   */\n  dup5\n    /* \"#utility.yul\":1827:1851   */\n  tag_22\n  jump\t// in\ntag_53:\n    /* \"#utility.yul\":1818:1852   */\n  tag_23\n  jump\t// in\ntag_52:\n    /* \"#utility.yul\":1800:1853   */\n  tag_22\n  jump\t// in\ntag_51:\n    /* \"#utility.yul\":1787:1853   */\n  swap1\n  pop\n    /* \"#utility.yul\":1717:1859   */\n  swap2\n  swap1\n  pop\n  jump\t// out\n    /* \"#utility.yul\":1865:1940   */\ntag_25:\n    /* \"#utility.yul\":1908:1911   */\n  0x00\n    /* \"#utility.yul\":1929:1934   */\n  dup2\n    /* \"#utility.yul\":1922:1934   */\n  swap1\n  pop\n    /* \"#utility.yul\":1865:1940   */\n  swap2\n  swap1\n  pop\n  jump\t// out\n    /* \"#utility.yul\":1946:2215   */\ntag_26:\n    /* \"#utility.yul\":2056:2095   */\n  tag_56\n    /* \"#utility.yul\":2087:2094   */\n  dup4\n    /* \"#utility.yul\":2056:2095   */\n  tag_24\n  jump\t// in\ntag_56:\n    /* \"#utility.yul\":2117:2208   */\n  tag_57\n    /* \"#utility.yul\":2166:2207   */\n  tag_58\n    /* \"#utility.yul\":2190:2206   */\n  dup3\n    /* \"#utility.yul\":2166:2207   */\n  tag_25\n  jump\t// in\ntag_58:\n    /* \"#utility.yul\":2158:2164   */\n  dup5\n    /* \"#utility.yul\":2151:2155   */\n  dup5\n    /* \"#utility.yul\":2145:2156   */\n  sload\n    /* \"#utility.yul\":2117:2208   */\n  tag_21\n  jump\t// in\ntag_57:\n    /* \"#utility.yul\":2111:2115   */\n  dup3\n    /* \"#utility.yul\":2104:2209   */\n  sstore\n    /* \"#utility.yul\":2022:2215   */\n  pop\n    /* \"#utility.yul\":1946:2215   */\n  pop\n  pop\n  pop\n  jump\t// out\n    /* \"#utility.yul\":2221:2294   */\ntag_27:\n    /* \"#utility.yul\":2266:2269   */\n  0x00\n    /* \"#utility.yul\":2221:2294   */\n  swap1\n  jump\t// out\n    /* \"#utility.yul\":2300:2489   */\ntag_28:\n    /* \"#utility.yul\":2377:2409   */\n  tag_61\n  tag_27\n  jump\t// in\ntag_61:\n    /* \"#utility.yul\":2418:2483   */\n  tag_62\n    /* \"#utility.yul\":2476:2482   */\n  dup2\n    /* \"#utility.yul\":2468:2474   */\n  dup5\n    /* \"#utility.yul\":2462:2466   */\n  dup5\n    /* \"#utility.yul\":2418:2483   */\n  tag_26\n  jump\t// in\ntag_62:\n    /* \"#utility.yul\":2353:2489   */\n  pop\n    /* \"#utility.yul\":2300:2489   */\n  pop\n  pop\n  jump\t// out\n    /* \"#utility.yul\":2495:2681   */\ntag_29:\n    /* \"#utility.yul\":2555:2675   */\ntag_64:\n    /* \"#utility.yul\":2572:2575   */\n  dup2\n    /* \"#utility.yul\":2565:2570   */\n  dup2\n    /* \"#utility.yul\":2562:2576   */\n  lt\n    /* \"#utility.yul\":2555:2675   */\n  iszero\n  tag_66\n  jumpi\n    /* \"#utility.yul\":2626:2665   */\n  tag_67\n    /* \"#utility.yul\":2663:2664   */\n  0x00\n    /* \"#utility.yul\":2656:2661   */\n  dup3\n    /* \"#utility.yul\":2626:2665   */\n  tag_28\n  jump\t// in\ntag_67:\n    /* \"#utility.yul\":2599:2600   */\n  0x01\n    /* \"#utility.yul\":2592:2597   */\n  dup2\n    /* \"#utility.yul\":2588:2601   */\n  add\n    /* \"#utility.yul\":2579:2601   */\n  swap1\n  pop\n    /* \"#utility.yul\":2555:2675   */\n  jump(tag_64)\ntag_66:\n    /* \"#utility.yul\":2495:2681   */\n  pop\n  pop\n  jump\t// out\n    /* \"#utility.yul\":2687:3230   */\ntag_30:\n    /* \"#utility.yul\":2788:2790   */\n  0x1f\n    /* \"#utility.yul\":2783:2786   */\n  dup3\n    /* \"#utility.yul\":2780:2791   */\n  gt\n    /* \"#utility.yul\":2777:3223   */\n  iszero\n  tag_69\n  jumpi\n    /* \"#utility.yul\":2822:2860   */\n  tag_70\n    /* \"#utility.yul\":2854:2859   */\n  dup2\n    /* \"#utility.yul\":2822:2860   */\n  tag_18\n  jump\t// in\ntag_70:\n    /* \"#utility.yul\":2906:2935   */\n  tag_71\n    /* \"#utility.yul\":2924:2934   */\n  dup5\n    /* \"#utility.yul\":2906:2935   */\n  tag_19\n  jump\t// in\ntag_71:\n    /* \"#utility.yul\":2896:2904   */\n  dup2\n    /* \"#utility.yul\":2892:2936   */\n  add\n    /* \"#utility.yul\":3089:3091   */\n  0x20\n    /* \"#utility.yul\":3077:3087   */\n  dup6\n    /* \"#utility.yul\":3074:3092   */\n  lt\n    /* \"#utility.yul\":3071:3120   */\n  iszero\n  tag_72\n  jumpi\n    /* \"#utility.yul\":3110:3118   */\n  dup2\n    /* \"#utility.yul\":3095:3118   */\n  swap1\n  pop\n    /* \"#utility.yul\":3071:3120   */\ntag_72:\n    /* \"#utility.yul\":3133:3213   */\n  tag_73\n    /* \"#utility.yul\":3189:3211   */\n  tag_74\n    /* \"#utility.yul\":3207:3210   */\n  dup6\n    /* \"#utility.yul\":3189:3211   */\n  tag_19\n  jump\t// in\ntag_74:\n    /* \"#utility.yul\":3179:3187   */\n  dup4\n    /* \"#utility.yul\":3175:3212   */\n  add\n    /* \"#utility.yul\":3162:3173   */\n  dup3\n    /* \"#utility.yul\":3133:3213   */\n  tag_29\n  jump\t// in\ntag_73:\n    /* \"#utility.yul\":2792:3223   */\n  pop\n  pop\n    /* \"#utility.yul\":2777:3223   */\ntag_69:\n    /* \"#utility.yul\":2687:3230   */\n  pop\n  pop\n  pop\n  jump\t// out\n    /* \"#utility.yul\":3236:3353   */\ntag_31:\n    /* \"#utility.yul\":3290:3298   */\n  0x00\n    /* \"#utility.yul\":3340:3345   */\n  dup3\n    /* \"#utility.yul\":3334:3338   */\n  dup3\n    /* \"#utility.yul\":3330:3346   */\n  shr\n    /* \"#utility.yul\":3309:3346   */\n  swap1\n  pop\n    /* \"#utility.yul\":3236:3353   */\n  swap3\n  swap2\n  pop\n  pop\n  jump\t// out\n    /* \"#utility.yul\":3359:3528   */\ntag_32:\n    /* \"#utility.yul\":3403:3409   */\n  0x00\n    /* \"#utility.yul\":3436:3487   */\n  tag_77\n    /* \"#utility.yul\":3484:3485   */\n  0x00\n    /* \"#utility.yul\":3480:3486   */\n  not\n    /* \"#utility.yul\":3472:3477   */\n  dup5\n    /* \"#utility.yul\":3469:3470   */\n  0x08\n    /* \"#utility.yul\":3465:3478   */\n  mul\n    /* \"#utility.yul\":3436:3487   */\n  tag_31\n  jump\t// in\ntag_77:\n    /* \"#utility.yul\":3432:3488   */\n  not\n    /* \"#utility.yul\":3517:3521   */\n  dup1\n    /* \"#utility.yul\":3511:3515   */\n  dup4\n    /* \"#utility.yul\":3507:3522   */\n  and\n    /* \"#utility.yul\":3497:3522   */\n  swap2\n  pop\n    /* \"#utility.yul\":3410:3528   */\n  pop\n    /* \"#utility.yul\":3359:3528   */\n  swap3\n  swap2\n  pop\n  pop\n  jump\t// out\n    /* \"#utility.yul\":3533:3828   */\ntag_33:\n    /* \"#utility.yul\":3609:3613   */\n  0x00\n    /* \"#utility.yul\":3755:3784   */\n  tag_79\n    /* \"#utility.yul\":3780:3783   */\n  dup4\n    /* \"#utility.yul\":3774:3778   */\n  dup4\n    /* \"#utility.yul\":3755:3784   */\n  tag_32\n  jump\t// in\ntag_79:\n    /* \"#utility.yul\":3747:3784   */\n  swap2\n  pop\n    /* \"#utility.yul\":3817:3820   */\n  dup3\n    /* \"#utility.yul\":3814:3815   */\n  0x02\n    /* \"#utility.yul\":3810:3821   */\n  mul\n    /* \"#utility.yul\":3804:3808   */\n  dup3\n    /* \"#utility.yul\":3801:3822   */\n  or\n    /* \"#utility.yul\":3793:3822   */\n  swap1\n  pop\n    /* \"#utility.yul\":3533:3828   */\n  swap3\n  swap2\n  pop\n  pop\n  jump\t// out\n    /* \"#utility.yul\":3833:5228   */\ntag_2:\n    /* \"#utility.yul\":3950:3987   */\n  tag_81\n    /* \"#utility.yul\":3983:3986   */\n  dup3\n    /* \"#utility.yul\":3950:3987   */\n  tag_14\n  jump\t// in\ntag_81:\n    /* \"#utility.yul\":4052:4070   */\n  0xffffffffffffffff\n    /* \"#utility.yul\":4044:4050   */\n  dup2\n    /* \"#utility.yul\":4041:4071   */\n  gt\n    /* \"#utility.yul\":4038:4094   */\n  iszero\n  tag_82\n  jumpi\n    /* \"#utility.yul\":4074:4092   */\n  tag_83\n  tag_15\n  jump\t// in\ntag_83:\n    /* \"#utility.yul\":4038:4094   */\ntag_82:\n    /* \"#utility.yul\":4118:4156   */\n  tag_84\n    /* \"#utility.yul\":4150:4154   */\n  dup3\n    /* \"#utility.yul\":4144:4155   */\n  sload\n    /* \"#utility.yul\":4118:4156   */\n  tag_17\n  jump\t// in\ntag_84:\n    /* \"#utility.yul\":4203:4270   */\n  tag_85\n    /* \"#utility.yul\":4263:4269   */\n  dup3\n    /* \"#utility.yul\":4255:4261   */\n  dup3\n    /* \"#utility.yul\":4249:4253   */\n  dup6\n    /* \"#utility.yul\":4203:4270   */\n  tag_30\n  jump\t// in\ntag_85:\n    /* \"#utility.yul\":4297:4298   */\n  0x00\n    /* \"#utility.yul\":4321:4325   */\n  0x20\n    /* \"#utility.yul\":4308:4325   */\n  swap1\n  pop\n    /* \"#utility.yul\":4353:4355   */\n  0x1f\n    /* \"#utility.yul\":4345:4351   */\n  dup4\n    /* \"#utility.yul\":4342:4356   */\n  gt\n    /* \"#utility.yul\":4370:4371   */\n  0x01\n    /* \"#utility.yul\":4365:4983   */\n  dup2\n  eq\n  tag_87\n  jumpi\n    /* \"#utility.yul\":5027:5028   */\n  0x00\n    /* \"#utility.yul\":5044:5050   */\n  dup5\n    /* \"#utility.yul\":5041:5118   */\n  iszero\n  tag_88\n  jumpi\n    /* \"#utility.yul\":5093:5102   */\n  dup3\n    /* \"#utility.yul\":5088:5091   */\n  dup8\n    /* \"#utility.yul\":5084:5103   */\n  add\n    /* \"#utility.yul\":5078:5104   */\n  mload\n    /* \"#utility.yul\":5069:5104   */\n  swap1\n  pop\n    /* \"#utility.yul\":5041:5118   */\ntag_88:\n    /* \"#utility.yul\":5144:5211   */\n  tag_89\n    /* \"#utility.yul\":5204:5210   */\n  dup6\n    /* \"#utility.yul\":5197:5202   */\n  dup3\n    /* \"#utility.yul\":5144:5211   */\n  tag_33\n  jump\t// in\ntag_89:\n    /* \"#utility.yul\":5138:5142   */\n  dup7\n    /* \"#utility.yul\":5131:5212   */\n  sstore\n    /* \"#utility.yul\":5000:5222   */\n  pop\n    /* \"#utility.yul\":4335:5222   */\n  jump(tag_86)\n    /* \"#utility.yul\":4365:4983   */\ntag_87:\n    /* \"#utility.yul\":4417:4421   */\n  0x1f\n    /* \"#utility.yul\":4413:4422   */\n  not\n    /* \"#utility.yul\":4405:4411   */\n  dup5\n    /* \"#utility.yul\":4401:4423   */\n  and\n    /* \"#utility.yul\":4451:4488   */\n  tag_90\n    /* \"#utility.yul\":4483:4487   */\n  dup7\n    /* \"#utility.yul\":4451:4488   */\n  tag_18\n  jump\t// in\ntag_90:\n    /* \"#utility.yul\":4510:4511   */\n  0x00\n    /* \"#utility.yul\":4524:4732   */\ntag_91:\n    /* \"#utility.yul\":4538:4545   */\n  dup3\n    /* \"#utility.yul\":4535:4536   */\n  dup2\n    /* \"#utility.yul\":4532:4546   */\n  lt\n    /* \"#utility.yul\":4524:4732   */\n  iszero\n  tag_93\n  jumpi\n    /* \"#utility.yul\":4617:4626   */\n  dup5\n    /* \"#utility.yul\":4612:4615   */\n  dup10\n    /* \"#utility.yul\":4608:4627   */\n  add\n    /* \"#utility.yul\":4602:4628   */\n  mload\n    /* \"#utility.yul\":4594:4600   */\n  dup3\n    /* \"#utility.yul\":4587:4629   */\n  sstore\n    /* \"#utility.yul\":4668:4669   */\n  0x01\n    /* \"#utility.yul\":4660:4666   */\n  dup3\n    /* \"#utility.yul\":4656:4670   */\n  add\n    /* \"#utility.yul\":4646:4670   */\n  swap2\n  pop\n    /* \"#utility.yul\":4715:4717   */\n  0x20\n    /* \"#utility.yul\":4704:4713   */\n  dup6\n    /* \"#utility.yul\":4700:4718   */\n  add\n    /* \"#utility.yul\":4687:4718   */\n  swap5\n  pop\n    /* \"#utility.yul\":4561:4565   */\n  0x20\n    /* \"#utility.yul\":4558:4559   */\n  dup2\n    /* \"#utility.yul\":4554:4566   */\n  add\n    /* \"#utility.yul\":4549:4566   */\n  swap1\n  pop\n    /* \"#utility.yul\":4524:4732   */\n  jump(tag_91)\ntag_93:\n    /* \"#utility.yul\":4760:4766   */\n  dup7\n    /* \"#utility.yul\":4751:4758   */\n  dup4\n    /* \"#utility.yul\":4748:4767   */\n  lt\n    /* \"#utility.yul\":4745:4924   */\n  iszero\n  tag_94\n  jumpi\n    /* \"#utility.yul\":4818:4827   */\n  dup5\n    /* \"#utility.yul\":4813:4816   */\n  dup10\n    /* \"#utility.yul\":4809:4828   */\n  add\n    /* \"#utility.yul\":4803:4829   */\n  mload\n    /* \"#utility.yul\":4861:4909   */\n  tag_95\n    /* \"#utility.yul\":4903:4907   */\n  0x1f\n    /* \"#utility.yul\":4895:4901   */\n  dup10\n    /* \"#utility.yul\":4891:4908   */\n  and\n    /* \"#utility.yul\":4880:4889   */\n  dup3\n    /* \"#utility.yul\":4861:4909   */\n  tag_32\n  jump\t// in\ntag_95:\n    /* \"#utility.yul\":4853:4859   */\n  dup4\n    /* \"#utility.yul\":4846:4910   */\n  sstore\n    /* \"#utility.yul\":4768:4924   */\n  pop\n    /* \"#utility.yul\":4745:4924   */\ntag_94:\n    /* \"#utility.yul\":4970:4971   */\n  0x01\n    /* \"#utility.yul\":4966:4967   */\n  0x02\n    /* \"#utility.yul\":4958:4964   */\n  dup9\n    /* \"#utility.yul\":4954:4968   */\n  mul\n    /* \"#utility.yul\":4950:4972   */\n  add\n    /* \"#utility.yul\":4944:4948   */\n  dup9\n    /* \"#utility.yul\":4937:4973   */\n  sstore\n    /* \"#utility.yul\":4372:4983   */\n  pop\n  pop\n  pop\n    /* \"#utility.yul\":4335:5222   */\ntag_86:\n  pop\n    /* \"#utility.yul\":3925:5228   */\n  pop\n  pop\n  pop\n    /* \"#utility.yul\":3833:5228   */\n  pop\n  pop\n  jump\t// out\n    /* \"contract/wtf/abi.sol\":241:1634  contract AbiDemo {... */\ntag_6:\n  dataSize(sub_0)\n  dup1\n  dataOffset(sub_0)\n  0x00\n  codecopy\n  0x00\n  return\nstop\n\nsub_0: assembly {\n        /* \"contract/wtf/abi.sol\":241:1634  contract AbiDemo {... */\n      mstore(0x40, 0x80)\n      callvalue\n      dup1\n      iszero\n      tag_1\n      jumpi\n      0x00\n      dup1\n      revert\n    tag_1:\n      pop\n      jumpi(tag_2, lt(calldatasize, 0x04))\n      shr(0xe0, calldataload(0x00))\n      dup1\n      0x416bdc52\n      eq\n      tag_3\n      jumpi\n      dup1\n      0x48f8459c\n      eq\n      tag_4\n      jumpi\n      dup1\n      0x6097e7a3\n      eq\n      tag_5\n      jumpi\n      dup1\n      0x6db1628b\n      eq\n      tag_6\n      jumpi\n      dup1\n      0xa2e2c205\n      eq\n      tag_7\n      jumpi\n    tag_2:\n      0x00\n      dup1\n      revert\n        /* \"contract/wtf/abi.sol\":1282:1632  function abiDecode(bytes memory data)... */\n    tag_3:\n      tag_8\n      0x04\n      dup1\n      calldatasize\n      sub\n      dup2\n      add\n      swap1\n      tag_9\n      swap2\n      swap1\n      tag_10\n      jump\t// in\n    tag_9:\n      tag_11\n      jump\t// in\n    tag_8:\n      mload(0x40)\n      tag_12\n      swap5\n      swap4\n      swap3\n      swap2\n      swap1\n      tag_13\n      jump\t// in\n    tag_12:\n      mload(0x40)\n      dup1\n      swap2\n      sub\n      swap1\n      return\n        /* \"contract/wtf/abi.sol\":534:669  function abiEncodePacked() external view returns (bytes memory result) {... */\n    tag_4:\n      tag_14\n      tag_15\n      jump\t// in\n    tag_14:\n      mload(0x40)\n      tag_16\n      swap2\n      swap1\n      tag_17\n      jump\t// in\n    tag_16:\n      mload(0x40)\n      dup1\n      swap2\n      sub\n      swap1\n      return\n        /* \"contract/wtf/abi.sol\":405:528  function abiEncode() external view returns (bytes memory result) {... */\n    tag_5:\n      tag_18\n      tag_19\n      jump\t// in\n    tag_18:\n      mload(0x40)\n      tag_20\n      swap2\n      swap1\n      tag_17\n      jump\t// in\n    tag_20:\n      mload(0x40)\n      dup1\n      swap2\n      sub\n      swap1\n      return\n        /* \"contract/wtf/abi.sol\":675:964  function abiEncodeWithSignature()... */\n    tag_6:\n      tag_21\n      tag_22\n      jump\t// in\n    tag_21:\n      mload(0x40)\n      tag_23\n      swap2\n      swap1\n      tag_17\n      jump\t// in\n    tag_23:\n      mload(0x40)\n      dup1\n      swap2\n      sub\n      swap1\n      return\n        /* \"contract/wtf/abi.sol\":970:1276  function abiEncodeWithSelector()... */\n    tag_7:\n      tag_24\n      tag_25\n      jump\t// in\n    tag_24:\n      mload(0x40)\n      tag_26\n      swap2\n      swap1\n      tag_17\n      jump\t// in\n    tag_26:\n      mload(0x40)\n      dup1\n      swap2\n      sub\n      swap1\n      return\n        /* \"contract/wtf/abi.sol\":1282:1632  function abiDecode(bytes memory data)... */\n    tag_11:\n        /* \"contract/wtf/abi.sol\":1373:1383  uint256 dx */\n      0x00\n        /* \"contract/wtf/abi.sol\":1397:1410  address daddr */\n      dup1\n        /* \"contract/wtf/abi.sol\":1424:1443  string memory dname */\n      0x60\n        /* \"contract/wtf/abi.sol\":1457:1481  uint256[2] memory darray */\n      tag_27\n      tag_28\n      jump\t// in\n    tag_27:\n        /* \"contract/wtf/abi.sol\":1559:1563  data */\n      dup5\n        /* \"contract/wtf/abi.sol\":1535:1625  abi.decode(... */\n      dup1\n      0x20\n      add\n      swap1\n      mload\n      dup2\n      add\n      swap1\n      tag_30\n      swap2\n      swap1\n      tag_31\n      jump\t// in\n    tag_30:\n        /* \"contract/wtf/abi.sol\":1506:1625  (dx, daddr, dname, darray) = abi.decode(... */\n      dup1\n      swap5\n      pop\n      dup2\n      swap6\n      pop\n      dup3\n      swap7\n      pop\n      dup4\n      swap8\n      pop\n      pop\n      pop\n      pop\n      pop\n        /* \"contract/wtf/abi.sol\":1282:1632  function abiDecode(bytes memory data)... */\n      swap2\n      swap4\n      pop\n      swap2\n      swap4\n      jump\t// out\n        /* \"contract/wtf/abi.sol\":534:669  function abiEncodePacked() external view returns (bytes memory result) {... */\n    tag_15:\n        /* \"contract/wtf/abi.sol\":584:603  bytes memory result */\n      0x60\n        /* \"contract/wtf/abi.sol\":641:642  x */\n      sload(0x00)\n        /* \"contract/wtf/abi.sol\":644:648  addr */\n      0x01\n      0x00\n      swap1\n      sload\n      swap1\n      0x0100\n      exp\n      swap1\n      div\n      0xffffffffffffffffffffffffffffffffffffffff\n      and\n        /* \"contract/wtf/abi.sol\":650:654  name */\n      0x02\n        /* \"contract/wtf/abi.sol\":656:661  array */\n      0x03\n        /* \"contract/wtf/abi.sol\":624:662  abi.encodePacked(x, addr, name, array) */\n      add(0x20, mload(0x40))\n      tag_33\n      swap5\n      swap4\n      swap3\n      swap2\n      swap1\n      tag_34\n      jump\t// in\n    tag_33:\n      mload(0x40)\n      0x20\n      dup2\n      dup4\n      sub\n      sub\n      dup2\n      mstore\n      swap1\n      0x40\n      mstore\n        /* \"contract/wtf/abi.sol\":615:662  result = abi.encodePacked(x, addr, name, array) */\n      swap1\n      pop\n        /* \"contract/wtf/abi.sol\":534:669  function abiEncodePacked() external view returns (bytes memory result) {... */\n      swap1\n      jump\t// out\n        /* \"contract/wtf/abi.sol\":405:528  function abiEncode() external view returns (bytes memory result) {... */\n    tag_19:\n        /* \"contract/wtf/abi.sol\":449:468  bytes memory result */\n      0x60\n        /* \"contract/wtf/abi.sol\":500:501  x */\n      sload(0x00)\n        /* \"contract/wtf/abi.sol\":503:507  addr */\n      0x01\n      0x00\n      swap1\n      sload\n      swap1\n      0x0100\n      exp\n      swap1\n      div\n      0xffffffffffffffffffffffffffffffffffffffff\n      and\n        /* \"contract/wtf/abi.sol\":509:513  name */\n      0x02\n        /* \"contract/wtf/abi.sol\":515:520  array */\n      0x03\n        /* \"contract/wtf/abi.sol\":489:521  abi.encode(x, addr, name, array) */\n      add(0x20, mload(0x40))\n      tag_36\n      swap5\n      swap4\n      swap3\n      swap2\n      swap1\n      tag_37\n      jump\t// in\n    tag_36:\n      mload(0x40)\n      0x20\n      dup2\n      dup4\n      sub\n      sub\n      dup2\n      mstore\n      swap1\n      0x40\n      mstore\n        /* \"contract/wtf/abi.sol\":480:521  result = abi.encode(x, addr, name, array) */\n      swap1\n      pop\n        /* \"contract/wtf/abi.sol\":405:528  function abiEncode() external view returns (bytes memory result) {... */\n      swap1\n      jump\t// out\n        /* \"contract/wtf/abi.sol\":675:964  function abiEncodeWithSignature()... */\n    tag_22:\n        /* \"contract/wtf/abi.sol\":756:775  bytes memory result */\n      0x60\n        /* \"contract/wtf/abi.sol\":891:892  x */\n      sload(0x00)\n        /* \"contract/wtf/abi.sol\":906:910  addr */\n      0x01\n      0x00\n      swap1\n      sload\n      swap1\n      0x0100\n      exp\n      swap1\n      div\n      0xffffffffffffffffffffffffffffffffffffffff\n      and\n        /* \"contract/wtf/abi.sol\":924:928  name */\n      0x02\n        /* \"contract/wtf/abi.sol\":942:947  array */\n      0x03\n        /* \"contract/wtf/abi.sol\":800:957  abi.encodeWithSignature(... */\n      add(0x24, mload(0x40))\n      tag_39\n      swap5\n      swap4\n      swap3\n      swap2\n      swap1\n      tag_37\n      jump\t// in\n    tag_39:\n      mload(0x40)\n      0x20\n      dup2\n      dup4\n      sub\n      sub\n      dup2\n      mstore\n      swap1\n      0x40\n      mstore\n      and(not(0xffffffffffffffffffffffffffffffffffffffffffffffffffffffff), 0xe87082f100000000000000000000000000000000000000000000000000000000)\n      0x20\n      dup3\n      add\n      dup1\n      mload\n      0xffffffffffffffffffffffffffffffffffffffffffffffffffffffff\n      dup4\n      dup2\n      dup4\n      and\n      or\n      dup4\n      mstore\n      pop\n      pop\n      pop\n      pop\n        /* \"contract/wtf/abi.sol\":791:957  result = abi.encodeWithSignature(... */\n      swap1\n      pop\n        /* \"contract/wtf/abi.sol\":675:964  function abiEncodeWithSignature()... */\n      swap1\n      jump\t// out\n        /* \"contract/wtf/abi.sol\":970:1276  function abiEncodeWithSelector()... */\n    tag_25:\n        /* \"contract/wtf/abi.sol\":1050:1069  bytes memory result */\n      0x60\n        /* \"contract/wtf/abi.sol\":1137:1188  keccak256(\"foo(uint256,address,string,uint256[2])\") */\n      0xe87082f1450a46f8f3150d7bda55bda41a2b08d68abde6797ccc68be30567335\n        /* \"contract/wtf/abi.sol\":1203:1204  x */\n      sload(0x00)\n        /* \"contract/wtf/abi.sol\":1218:1222  addr */\n      0x01\n      0x00\n      swap1\n      sload\n      swap1\n      0x0100\n      exp\n      swap1\n      div\n      0xffffffffffffffffffffffffffffffffffffffff\n      and\n        /* \"contract/wtf/abi.sol\":1236:1240  name */\n      0x02\n        /* \"contract/wtf/abi.sol\":1254:1259  array */\n      0x03\n        /* \"contract/wtf/abi.sol\":1094:1269  abi.encodeWithSelector(... */\n      add(0x24, mload(0x40))\n      tag_41\n      swap5\n      swap4\n      swap3\n      swap2\n      swap1\n      tag_37\n      jump\t// in\n    tag_41:\n      mload(0x40)\n      0x20\n      dup2\n      dup4\n      sub\n      sub\n      dup2\n      mstore\n      swap1\n      0x40\n      mstore\n      swap1\n      not(0xffffffffffffffffffffffffffffffffffffffffffffffffffffffff)\n      and\n      0x20\n      dup3\n      add\n      dup1\n      mload\n      0xffffffffffffffffffffffffffffffffffffffffffffffffffffffff\n      dup4\n      dup2\n      dup4\n      and\n      or\n      dup4\n      mstore\n      pop\n      pop\n      pop\n      pop\n        /* \"contract/wtf/abi.sol\":1085:1269  result = abi.encodeWithSelector(... */\n      swap1\n      pop\n        /* \"contract/wtf/abi.sol\":970:1276  function abiEncodeWithSelector()... */\n      swap1\n      jump\t// out\n    tag_28:\n      mload(0x40)\n      dup1\n      0x40\n      add\n      0x40\n      mstore\n      dup1\n      0x02\n      swap1\n      0x20\n      dup3\n      mul\n      dup1\n      calldatasize\n      dup4\n      calldatacopy\n      dup1\n      dup3\n      add\n      swap2\n      pop\n      pop\n      swap1\n      pop\n      pop\n      swap1\n      jump\t// out\n        /* \"#utility.yul\":7:82   */\n    tag_42:\n        /* \"#utility.yul\":40:46   */\n      0x00\n        /* \"#utility.yul\":73:75   */\n      0x40\n        /* \"#utility.yul\":67:76   */\n      mload\n        /* \"#utility.yul\":57:76   */\n      swap1\n      pop\n        /* \"#utility.yul\":7:82   */\n      swap1\n      jump\t// out\n        /* \"#utility.yul\":88:205   */\n    tag_43:\n        /* \"#utility.yul\":197:198   */\n      0x00\n        /* \"#utility.yul\":194:195   */\n      dup1\n        /* \"#utility.yul\":187:199   */\n      revert\n        /* \"#utility.yul\":211:328   */\n    tag_44:\n        /* \"#utility.yul\":320:321   */\n      0x00\n        /* \"#utility.yul\":317:318   */\n      dup1\n        /* \"#utility.yul\":310:322   */\n      revert\n        /* \"#utility.yul\":334:451   */\n    tag_45:\n        /* \"#utility.yul\":443:444   */\n      0x00\n        /* \"#utility.yul\":440:441   */\n      dup1\n        /* \"#utility.yul\":433:445   */\n      revert\n        /* \"#utility.yul\":457:574   */\n    tag_46:\n        /* \"#utility.yul\":566:567   */\n      0x00\n        /* \"#utility.yul\":563:564   */\n      dup1\n        /* \"#utility.yul\":556:568   */\n      revert\n        /* \"#utility.yul\":580:682   */\n    tag_47:\n        /* \"#utility.yul\":621:627   */\n      0x00\n        /* \"#utility.yul\":672:674   */\n      0x1f\n        /* \"#utility.yul\":668:675   */\n      not\n        /* \"#utility.yul\":663:665   */\n      0x1f\n        /* \"#utility.yul\":656:661   */\n      dup4\n        /* \"#utility.yul\":652:666   */\n      add\n        /* \"#utility.yul\":648:676   */\n      and\n        /* \"#utility.yul\":638:676   */\n      swap1\n      pop\n        /* \"#utility.yul\":580:682   */\n      swap2\n      swap1\n      pop\n      jump\t// out\n        /* \"#utility.yul\":688:868   */\n    tag_48:\n        /* \"#utility.yul\":736:813   */\n      0x4e487b7100000000000000000000000000000000000000000000000000000000\n        /* \"#utility.yul\":733:734   */\n      0x00\n        /* \"#utility.yul\":726:814   */\n      mstore\n        /* \"#utility.yul\":833:837   */\n      0x41\n        /* \"#utility.yul\":830:831   */\n      0x04\n        /* \"#utility.yul\":823:838   */\n      mstore\n        /* \"#utility.yul\":857:861   */\n      0x24\n        /* \"#utility.yul\":854:855   */\n      0x00\n        /* \"#utility.yul\":847:862   */\n      revert\n        /* \"#utility.yul\":874:1155   */\n    tag_49:\n        /* \"#utility.yul\":957:984   */\n      tag_119\n        /* \"#utility.yul\":979:983   */\n      dup3\n        /* \"#utility.yul\":957:984   */\n      tag_47\n      jump\t// in\n    tag_119:\n        /* \"#utility.yul\":949:955   */\n      dup2\n        /* \"#utility.yul\":945:985   */\n      add\n        /* \"#utility.yul\":1087:1093   */\n      dup2\n        /* \"#utility.yul\":1075:1085   */\n      dup2\n        /* \"#utility.yul\":1072:1094   */\n      lt\n        /* \"#utility.yul\":1051:1069   */\n      0xffffffffffffffff\n        /* \"#utility.yul\":1039:1049   */\n      dup3\n        /* \"#utility.yul\":1036:1070   */\n      gt\n        /* \"#utility.yul\":1033:1095   */\n      or\n        /* \"#utility.yul\":1030:1118   */\n      iszero\n      tag_120\n      jumpi\n        /* \"#utility.yul\":1098:1116   */\n      tag_121\n      tag_48\n      jump\t// in\n    tag_121:\n        /* \"#utility.yul\":1030:1118   */\n    tag_120:\n        /* \"#utility.yul\":1138:1148   */\n      dup1\n        /* \"#utility.yul\":1134:1136   */\n      0x40\n        /* \"#utility.yul\":1127:1149   */\n      mstore\n        /* \"#utility.yul\":917:1155   */\n      pop\n        /* \"#utility.yul\":874:1155   */\n      pop\n      pop\n      jump\t// out\n        /* \"#utility.yul\":1161:1290   */\n    tag_50:\n        /* \"#utility.yul\":1195:1201   */\n      0x00\n        /* \"#utility.yul\":1222:1242   */\n      tag_123\n      tag_42\n      jump\t// in\n    tag_123:\n        /* \"#utility.yul\":1212:1242   */\n      swap1\n      pop\n        /* \"#utility.yul\":1251:1284   */\n      tag_124\n        /* \"#utility.yul\":1279:1283   */\n      dup3\n        /* \"#utility.yul\":1271:1277   */\n      dup3\n        /* \"#utility.yul\":1251:1284   */\n      tag_49\n      jump\t// in\n    tag_124:\n        /* \"#utility.yul\":1161:1290   */\n      swap2\n      swap1\n      pop\n      jump\t// out\n        /* \"#utility.yul\":1296:1603   */\n    tag_51:\n        /* \"#utility.yul\":1357:1361   */\n      0x00\n        /* \"#utility.yul\":1447:1465   */\n      0xffffffffffffffff\n        /* \"#utility.yul\":1439:1445   */\n      dup3\n        /* \"#utility.yul\":1436:1466   */\n      gt\n        /* \"#utility.yul\":1433:1489   */\n      iszero\n      tag_126\n      jumpi\n        /* \"#utility.yul\":1469:1487   */\n      tag_127\n      tag_48\n      jump\t// in\n    tag_127:\n        /* \"#utility.yul\":1433:1489   */\n    tag_126:\n        /* \"#utility.yul\":1507:1536   */\n      tag_128\n        /* \"#utility.yul\":1529:1535   */\n      dup3\n        /* \"#utility.yul\":1507:1536   */\n      tag_47\n      jump\t// in\n    tag_128:\n        /* \"#utility.yul\":1499:1536   */\n      swap1\n      pop\n        /* \"#utility.yul\":1591:1595   */\n      0x20\n        /* \"#utility.yul\":1585:1589   */\n      dup2\n        /* \"#utility.yul\":1581:1596   */\n      add\n        /* \"#utility.yul\":1573:1596   */\n      swap1\n      pop\n        /* \"#utility.yul\":1296:1603   */\n      swap2\n      swap1\n      pop\n      jump\t// out\n        /* \"#utility.yul\":1609:1757   */\n    tag_52:\n        /* \"#utility.yul\":1707:1713   */\n      dup3\n        /* \"#utility.yul\":1702:1705   */\n      dup2\n        /* \"#utility.yul\":1697:1700   */\n      dup4\n        /* \"#utility.yul\":1684:1714   */\n      calldatacopy\n        /* \"#utility.yul\":1748:1749   */\n      0x00\n        /* \"#utility.yul\":1739:1745   */\n      dup4\n        /* \"#utility.yul\":1734:1737   */\n      dup4\n        /* \"#utility.yul\":1730:1746   */\n      add\n        /* \"#utility.yul\":1723:1750   */\n      mstore\n        /* \"#utility.yul\":1609:1757   */\n      pop\n      pop\n      pop\n      jump\t// out\n        /* \"#utility.yul\":1763:2186   */\n    tag_53:\n        /* \"#utility.yul\":1840:1845   */\n      0x00\n        /* \"#utility.yul\":1865:1930   */\n      tag_131\n        /* \"#utility.yul\":1881:1929   */\n      tag_132\n        /* \"#utility.yul\":1922:1928   */\n      dup5\n        /* \"#utility.yul\":1881:1929   */\n      tag_51\n      jump\t// in\n    tag_132:\n        /* \"#utility.yul\":1865:1930   */\n      tag_50\n      jump\t// in\n    tag_131:\n        /* \"#utility.yul\":1856:1930   */\n      swap1\n      pop\n        /* \"#utility.yul\":1953:1959   */\n      dup3\n        /* \"#utility.yul\":1946:1951   */\n      dup2\n        /* \"#utility.yul\":1939:1960   */\n      mstore\n        /* \"#utility.yul\":1991:1995   */\n      0x20\n        /* \"#utility.yul\":1984:1989   */\n      dup2\n        /* \"#utility.yul\":1980:1996   */\n      add\n        /* \"#utility.yul\":2029:2032   */\n      dup5\n        /* \"#utility.yul\":2020:2026   */\n      dup5\n        /* \"#utility.yul\":2015:2018   */\n      dup5\n        /* \"#utility.yul\":2011:2027   */\n      add\n        /* \"#utility.yul\":2008:2033   */\n      gt\n        /* \"#utility.yul\":2005:2117   */\n      iszero\n      tag_133\n      jumpi\n        /* \"#utility.yul\":2036:2115   */\n      tag_134\n      tag_46\n      jump\t// in\n    tag_134:\n        /* \"#utility.yul\":2005:2117   */\n    tag_133:\n        /* \"#utility.yul\":2126:2180   */\n      tag_135\n        /* \"#utility.yul\":2173:2179   */\n      dup5\n        /* \"#utility.yul\":2168:2171   */\n      dup3\n        /* \"#utility.yul\":2163:2166   */\n      dup6\n        /* \"#utility.yul\":2126:2180   */\n      tag_52\n      jump\t// in\n    tag_135:\n        /* \"#utility.yul\":1846:2186   */\n      pop\n        /* \"#utility.yul\":1763:2186   */\n      swap4\n      swap3\n      pop\n      pop\n      pop\n      jump\t// out\n        /* \"#utility.yul\":2205:2543   */\n    tag_54:\n        /* \"#utility.yul\":2260:2265   */\n      0x00\n        /* \"#utility.yul\":2309:2312   */\n      dup3\n        /* \"#utility.yul\":2302:2306   */\n      0x1f\n        /* \"#utility.yul\":2294:2300   */\n      dup4\n        /* \"#utility.yul\":2290:2307   */\n      add\n        /* \"#utility.yul\":2286:2313   */\n      slt\n        /* \"#utility.yul\":2276:2398   */\n      tag_137\n      jumpi\n        /* \"#utility.yul\":2317:2396   */\n      tag_138\n      tag_45\n      jump\t// in\n    tag_138:\n        /* \"#utility.yul\":2276:2398   */\n    tag_137:\n        /* \"#utility.yul\":2434:2440   */\n      dup2\n        /* \"#utility.yul\":2421:2441   */\n      calldataload\n        /* \"#utility.yul\":2459:2537   */\n      tag_139\n        /* \"#utility.yul\":2533:2536   */\n      dup5\n        /* \"#utility.yul\":2525:2531   */\n      dup3\n        /* \"#utility.yul\":2518:2522   */\n      0x20\n        /* \"#utility.yul\":2510:2516   */\n      dup7\n        /* \"#utility.yul\":2506:2523   */\n      add\n        /* \"#utility.yul\":2459:2537   */\n      tag_53\n      jump\t// in\n    tag_139:\n        /* \"#utility.yul\":2450:2537   */\n      swap2\n      pop\n        /* \"#utility.yul\":2266:2543   */\n      pop\n        /* \"#utility.yul\":2205:2543   */\n      swap3\n      swap2\n      pop\n      pop\n      jump\t// out\n        /* \"#utility.yul\":2549:3056   */\n    tag_10:\n        /* \"#utility.yul\":2617:2623   */\n      0x00\n        /* \"#utility.yul\":2666:2668   */\n      0x20\n        /* \"#utility.yul\":2654:2663   */\n      dup3\n        /* \"#utility.yul\":2645:2652   */\n      dup5\n        /* \"#utility.yul\":2641:2664   */\n      sub\n        /* \"#utility.yul\":2637:2669   */\n      slt\n        /* \"#utility.yul\":2634:2753   */\n      iszero\n      tag_141\n      jumpi\n        /* \"#utility.yul\":2672:2751   */\n      tag_142\n      tag_43\n      jump\t// in\n    tag_142:\n        /* \"#utility.yul\":2634:2753   */\n    tag_141:\n        /* \"#utility.yul\":2820:2821   */\n      0x00\n        /* \"#utility.yul\":2809:2818   */\n      dup3\n        /* \"#utility.yul\":2805:2822   */\n      add\n        /* \"#utility.yul\":2792:2823   */\n      calldataload\n        /* \"#utility.yul\":2850:2868   */\n      0xffffffffffffffff\n        /* \"#utility.yul\":2842:2848   */\n      dup2\n        /* \"#utility.yul\":2839:2869   */\n      gt\n        /* \"#utility.yul\":2836:2953   */\n      iszero\n      tag_143\n      jumpi\n        /* \"#utility.yul\":2872:2951   */\n      tag_144\n      tag_44\n      jump\t// in\n    tag_144:\n        /* \"#utility.yul\":2836:2953   */\n    tag_143:\n        /* \"#utility.yul\":2977:3039   */\n      tag_145\n        /* \"#utility.yul\":3031:3038   */\n      dup5\n        /* \"#utility.yul\":3022:3028   */\n      dup3\n        /* \"#utility.yul\":3011:3020   */\n      dup6\n        /* \"#utility.yul\":3007:3029   */\n      add\n        /* \"#utility.yul\":2977:3039   */\n      tag_54\n      jump\t// in\n    tag_145:\n        /* \"#utility.yul\":2967:3039   */\n      swap2\n      pop\n        /* \"#utility.yul\":2763:3049   */\n      pop\n        /* \"#utility.yul\":2549:3056   */\n      swap3\n      swap2\n      pop\n      pop\n      jump\t// out\n        /* \"#utility.yul\":3062:3139   */\n    tag_55:\n        /* \"#utility.yul\":3099:3106   */\n      0x00\n        /* \"#utility.yul\":3128:3133   */\n      dup2\n        /* \"#utility.yul\":3117:3133   */\n      swap1\n      pop\n        /* \"#utility.yul\":3062:3139   */\n      swap2\n      swap1\n      pop\n      jump\t// out\n        /* \"#utility.yul\":3145:3263   */\n    tag_56:\n        /* \"#utility.yul\":3232:3256   */\n      tag_148\n        /* \"#utility.yul\":3250:3255   */\n      dup2\n        /* \"#utility.yul\":3232:3256   */\n      tag_55\n      jump\t// in\n    tag_148:\n        /* \"#utility.yul\":3227:3230   */\n      dup3\n        /* \"#utility.yul\":3220:3257   */\n      mstore\n        /* \"#utility.yul\":3145:3263   */\n      pop\n      pop\n      jump\t// out\n        /* \"#utility.yul\":3269:3395   */\n    tag_57:\n        /* \"#utility.yul\":3306:3313   */\n      0x00\n        /* \"#utility.yul\":3346:3388   */\n      0xffffffffffffffffffffffffffffffffffffffff\n        /* \"#utility.yul\":3339:3344   */\n      dup3\n        /* \"#utility.yul\":3335:3389   */\n      and\n        /* \"#utility.yul\":3324:3389   */\n      swap1\n      pop\n        /* \"#utility.yul\":3269:3395   */\n      swap2\n      swap1\n      pop\n      jump\t// out\n        /* \"#utility.yul\":3401:3497   */\n    tag_58:\n        /* \"#utility.yul\":3438:3445   */\n      0x00\n        /* \"#utility.yul\":3467:3491   */\n      tag_151\n        /* \"#utility.yul\":3485:3490   */\n      dup3\n        /* \"#utility.yul\":3467:3491   */\n      tag_57\n      jump\t// in\n    tag_151:\n        /* \"#utility.yul\":3456:3491   */\n      swap1\n      pop\n        /* \"#utility.yul\":3401:3497   */\n      swap2\n      swap1\n      pop\n      jump\t// out\n        /* \"#utility.yul\":3503:3621   */\n    tag_59:\n        /* \"#utility.yul\":3590:3614   */\n      tag_153\n        /* \"#utility.yul\":3608:3613   */\n      dup2\n        /* \"#utility.yul\":3590:3614   */\n      tag_58\n      jump\t// in\n    tag_153:\n        /* \"#utility.yul\":3585:3588   */\n      dup3\n        /* \"#utility.yul\":3578:3615   */\n      mstore\n        /* \"#utility.yul\":3503:3621   */\n      pop\n      pop\n      jump\t// out\n        /* \"#utility.yul\":3627:3726   */\n    tag_60:\n        /* \"#utility.yul\":3679:3685   */\n      0x00\n        /* \"#utility.yul\":3713:3718   */\n      dup2\n        /* \"#utility.yul\":3707:3719   */\n      mload\n        /* \"#utility.yul\":3697:3719   */\n      swap1\n      pop\n        /* \"#utility.yul\":3627:3726   */\n      swap2\n      swap1\n      pop\n      jump\t// out\n        /* \"#utility.yul\":3732:3901   */\n    tag_61:\n        /* \"#utility.yul\":3816:3827   */\n      0x00\n        /* \"#utility.yul\":3850:3856   */\n      dup3\n        /* \"#utility.yul\":3845:3848   */\n      dup3\n        /* \"#utility.yul\":3838:3857   */\n      mstore\n        /* \"#utility.yul\":3890:3894   */\n      0x20\n        /* \"#utility.yul\":3885:3888   */\n      dup3\n        /* \"#utility.yul\":3881:3895   */\n      add\n        /* \"#utility.yul\":3866:3895   */\n      swap1\n      pop\n        /* \"#utility.yul\":3732:3901   */\n      swap3\n      swap2\n      pop\n      pop\n      jump\t// out\n        /* \"#utility.yul\":3907:4046   */\n    tag_62:\n        /* \"#utility.yul\":3996:4002   */\n      dup3\n        /* \"#utility.yul\":3991:3994   */\n      dup2\n        /* \"#utility.yul\":3986:3989   */\n      dup4\n        /* \"#utility.yul\":3980:4003   */\n      mcopy\n        /* \"#utility.yul\":4037:4038   */\n      0x00\n        /* \"#utility.yul\":4028:4034   */\n      dup4\n        /* \"#utility.yul\":4023:4026   */\n      dup4\n        /* \"#utility.yul\":4019:4035   */\n      add\n        /* \"#utility.yul\":4012:4039   */\n      mstore\n        /* \"#utility.yul\":3907:4046   */\n      pop\n      pop\n      pop\n      jump\t// out\n        /* \"#utility.yul\":4052:4429   */\n    tag_63:\n        /* \"#utility.yul\":4140:4143   */\n      0x00\n        /* \"#utility.yul\":4168:4207   */\n      tag_158\n        /* \"#utility.yul\":4201:4206   */\n      dup3\n        /* \"#utility.yul\":4168:4207   */\n      tag_60\n      jump\t// in\n    tag_158:\n        /* \"#utility.yul\":4223:4294   */\n      tag_159\n        /* \"#utility.yul\":4287:4293   */\n      dup2\n        /* \"#utility.yul\":4282:4285   */\n      dup6\n        /* \"#utility.yul\":4223:4294   */\n      tag_61\n      jump\t// in\n    tag_159:\n        /* \"#utility.yul\":4216:4294   */\n      swap4\n      pop\n        /* \"#utility.yul\":4303:4368   */\n      tag_160\n        /* \"#utility.yul\":4361:4367   */\n      dup2\n        /* \"#utility.yul\":4356:4359   */\n      dup6\n        /* \"#utility.yul\":4349:4353   */\n      0x20\n        /* \"#utility.yul\":4342:4347   */\n      dup7\n        /* \"#utility.yul\":4338:4354   */\n      add\n        /* \"#utility.yul\":4303:4368   */\n      tag_62\n      jump\t// in\n    tag_160:\n        /* \"#utility.yul\":4393:4422   */\n      tag_161\n        /* \"#utility.yul\":4415:4421   */\n      dup2\n        /* \"#utility.yul\":4393:4422   */\n      tag_47\n      jump\t// in\n    tag_161:\n        /* \"#utility.yul\":4388:4391   */\n      dup5\n        /* \"#utility.yul\":4384:4423   */\n      add\n        /* \"#utility.yul\":4377:4423   */\n      swap2\n      pop\n        /* \"#utility.yul\":4144:4429   */\n      pop\n        /* \"#utility.yul\":4052:4429   */\n      swap3\n      swap2\n      pop\n      pop\n      jump\t// out\n        /* \"#utility.yul\":4435:4539   */\n    tag_64:\n        /* \"#utility.yul\":4500:4506   */\n      0x00\n        /* \"#utility.yul\":4528:4532   */\n      0x02\n        /* \"#utility.yul\":4518:4532   */\n      swap1\n      pop\n        /* \"#utility.yul\":4435:4539   */\n      swap2\n      swap1\n      pop\n      jump\t// out\n        /* \"#utility.yul\":4545:4688   */\n    tag_65:\n        /* \"#utility.yul\":4642:4653   */\n      0x00\n        /* \"#utility.yul\":4679:4682   */\n      dup2\n        /* \"#utility.yul\":4664:4682   */\n      swap1\n      pop\n        /* \"#utility.yul\":4545:4688   */\n      swap3\n      swap2\n      pop\n      pop\n      jump\t// out\n        /* \"#utility.yul\":4694:4792   */\n    tag_66:\n        /* \"#utility.yul\":4759:4763   */\n      0x00\n        /* \"#utility.yul\":4782:4785   */\n      dup2\n        /* \"#utility.yul\":4774:4785   */\n      swap1\n      pop\n        /* \"#utility.yul\":4694:4792   */\n      swap2\n      swap1\n      pop\n      jump\t// out\n        /* \"#utility.yul\":4798:4906   */\n    tag_67:\n        /* \"#utility.yul\":4875:4899   */\n      tag_166\n        /* \"#utility.yul\":4893:4898   */\n      dup2\n        /* \"#utility.yul\":4875:4899   */\n      tag_55\n      jump\t// in\n    tag_166:\n        /* \"#utility.yul\":4870:4873   */\n      dup3\n        /* \"#utility.yul\":4863:4900   */\n      mstore\n        /* \"#utility.yul\":4798:4906   */\n      pop\n      pop\n      jump\t// out\n        /* \"#utility.yul\":4912:5091   */\n    tag_68:\n        /* \"#utility.yul\":4981:4991   */\n      0x00\n        /* \"#utility.yul\":5002:5048   */\n      tag_168\n        /* \"#utility.yul\":5044:5047   */\n      dup4\n        /* \"#utility.yul\":5036:5042   */\n      dup4\n        /* \"#utility.yul\":5002:5048   */\n      tag_67\n      jump\t// in\n    tag_168:\n        /* \"#utility.yul\":5080:5084   */\n      0x20\n        /* \"#utility.yul\":5075:5078   */\n      dup4\n        /* \"#utility.yul\":5071:5085   */\n      add\n        /* \"#utility.yul\":5057:5085   */\n      swap1\n      pop\n        /* \"#utility.yul\":4912:5091   */\n      swap3\n      swap2\n      pop\n      pop\n      jump\t// out\n        /* \"#utility.yul\":5097:5208   */\n    tag_69:\n        /* \"#utility.yul\":5165:5169   */\n      0x00\n        /* \"#utility.yul\":5197:5201   */\n      0x20\n        /* \"#utility.yul\":5192:5195   */\n      dup3\n        /* \"#utility.yul\":5188:5202   */\n      add\n        /* \"#utility.yul\":5180:5202   */\n      swap1\n      pop\n        /* \"#utility.yul\":5097:5208   */\n      swap2\n      swap1\n      pop\n      jump\t// out\n        /* \"#utility.yul\":5246:5940   */\n    tag_70:\n        /* \"#utility.yul\":5382:5434   */\n      tag_171\n        /* \"#utility.yul\":5428:5433   */\n      dup2\n        /* \"#utility.yul\":5382:5434   */\n      tag_64\n      jump\t// in\n    tag_171:\n        /* \"#utility.yul\":5450:5534   */\n      tag_172\n        /* \"#utility.yul\":5527:5533   */\n      dup2\n        /* \"#utility.yul\":5522:5525   */\n      dup5\n        /* \"#utility.yul\":5450:5534   */\n      tag_65\n      jump\t// in\n    tag_172:\n        /* \"#utility.yul\":5443:5534   */\n      swap3\n      pop\n        /* \"#utility.yul\":5558:5612   */\n      tag_173\n        /* \"#utility.yul\":5606:5611   */\n      dup3\n        /* \"#utility.yul\":5558:5612   */\n      tag_66\n      jump\t// in\n    tag_173:\n        /* \"#utility.yul\":5635:5642   */\n      dup1\n        /* \"#utility.yul\":5666:5667   */\n      0x00\n        /* \"#utility.yul\":5651:5933   */\n    tag_174:\n        /* \"#utility.yul\":5676:5682   */\n      dup4\n        /* \"#utility.yul\":5673:5674   */\n      dup2\n        /* \"#utility.yul\":5670:5683   */\n      lt\n        /* \"#utility.yul\":5651:5933   */\n      iszero\n      tag_176\n      jumpi\n        /* \"#utility.yul\":5752:5758   */\n      dup2\n        /* \"#utility.yul\":5746:5759   */\n      mload\n        /* \"#utility.yul\":5779:5842   */\n      tag_177\n        /* \"#utility.yul\":5838:5841   */\n      dup8\n        /* \"#utility.yul\":5823:5836   */\n      dup3\n        /* \"#utility.yul\":5779:5842   */\n      tag_68\n      jump\t// in\n    tag_177:\n        /* \"#utility.yul\":5772:5842   */\n      swap7\n      pop\n        /* \"#utility.yul\":5865:5923   */\n      tag_178\n        /* \"#utility.yul\":5916:5922   */\n      dup4\n        /* \"#utility.yul\":5865:5923   */\n      tag_69\n      jump\t// in\n    tag_178:\n        /* \"#utility.yul\":5855:5923   */\n      swap3\n      pop\n        /* \"#utility.yul\":5711:5933   */\n      pop\n        /* \"#utility.yul\":5698:5699   */\n      0x01\n        /* \"#utility.yul\":5695:5696   */\n      dup2\n        /* \"#utility.yul\":5691:5700   */\n      add\n        /* \"#utility.yul\":5686:5700   */\n      swap1\n      pop\n        /* \"#utility.yul\":5651:5933   */\n      jump(tag_174)\n    tag_176:\n        /* \"#utility.yul\":5655:5669   */\n      pop\n        /* \"#utility.yul\":5358:5940   */\n      pop\n      pop\n      pop\n        /* \"#utility.yul\":5246:5940   */\n      pop\n      pop\n      jump\t// out\n        /* \"#utility.yul\":5946:6682   */\n    tag_13:\n        /* \"#utility.yul\":6189:6193   */\n      0x00\n        /* \"#utility.yul\":6227:6230   */\n      0xa0\n        /* \"#utility.yul\":6216:6225   */\n      dup3\n        /* \"#utility.yul\":6212:6231   */\n      add\n        /* \"#utility.yul\":6204:6231   */\n      swap1\n      pop\n        /* \"#utility.yul\":6241:6312   */\n      tag_180\n        /* \"#utility.yul\":6309:6310   */\n      0x00\n        /* \"#utility.yul\":6298:6307   */\n      dup4\n        /* \"#utility.yul\":6294:6311   */\n      add\n        /* \"#utility.yul\":6285:6291   */\n      dup8\n        /* \"#utility.yul\":6241:6312   */\n      tag_56\n      jump\t// in\n    tag_180:\n        /* \"#utility.yul\":6322:6394   */\n      tag_181\n        /* \"#utility.yul\":6390:6392   */\n      0x20\n        /* \"#utility.yul\":6379:6388   */\n      dup4\n        /* \"#utility.yul\":6375:6393   */\n      add\n        /* \"#utility.yul\":6366:6372   */\n      dup7\n        /* \"#utility.yul\":6322:6394   */\n      tag_59\n      jump\t// in\n    tag_181:\n        /* \"#utility.yul\":6441:6450   */\n      dup2\n        /* \"#utility.yul\":6435:6439   */\n      dup2\n        /* \"#utility.yul\":6431:6451   */\n      sub\n        /* \"#utility.yul\":6426:6428   */\n      0x40\n        /* \"#utility.yul\":6415:6424   */\n      dup4\n        /* \"#utility.yul\":6411:6429   */\n      add\n        /* \"#utility.yul\":6404:6452   */\n      mstore\n        /* \"#utility.yul\":6469:6547   */\n      tag_182\n        /* \"#utility.yul\":6542:6546   */\n      dup2\n        /* \"#utility.yul\":6533:6539   */\n      dup6\n        /* \"#utility.yul\":6469:6547   */\n      tag_63\n      jump\t// in\n    tag_182:\n        /* \"#utility.yul\":6461:6547   */\n      swap1\n      pop\n        /* \"#utility.yul\":6557:6675   */\n      tag_183\n        /* \"#utility.yul\":6671:6673   */\n      0x60\n        /* \"#utility.yul\":6660:6669   */\n      dup4\n        /* \"#utility.yul\":6656:6674   */\n      add\n        /* \"#utility.yul\":6647:6653   */\n      dup5\n        /* \"#utility.yul\":6557:6675   */\n      tag_70\n      jump\t// in\n    tag_183:\n        /* \"#utility.yul\":5946:6682   */\n      swap6\n      swap5\n      pop\n      pop\n      pop\n      pop\n      pop\n      jump\t// out\n        /* \"#utility.yul\":6688:6786   */\n    tag_71:\n        /* \"#utility.yul\":6739:6745   */\n      0x00\n        /* \"#utility.yul\":6773:6778   */\n      dup2\n        /* \"#utility.yul\":6767:6779   */\n      mload\n        /* \"#utility.yul\":6757:6779   */\n      swap1\n      pop\n        /* \"#utility.yul\":6688:6786   */\n      swap2\n      swap1\n      pop\n      jump\t// out\n        /* \"#utility.yul\":6792:6960   */\n    tag_72:\n        /* \"#utility.yul\":6875:6886   */\n      0x00\n        /* \"#utility.yul\":6909:6915   */\n      dup3\n        /* \"#utility.yul\":6904:6907   */\n      dup3\n        /* \"#utility.yul\":6897:6916   */\n      mstore\n        /* \"#utility.yul\":6949:6953   */\n      0x20\n        /* \"#utility.yul\":6944:6947   */\n      dup3\n        /* \"#utility.yul\":6940:6954   */\n      add\n        /* \"#utility.yul\":6925:6954   */\n      swap1\n      pop\n        /* \"#utility.yul\":6792:6960   */\n      swap3\n      swap2\n      pop\n      pop\n      jump\t// out\n        /* \"#utility.yul\":6966:7339   */\n    tag_73:\n        /* \"#utility.yul\":7052:7055   */\n      0x00\n        /* \"#utility.yul\":7080:7118   */\n      tag_187\n        /* \"#utility.yul\":7112:7117   */\n      dup3\n        /* \"#utility.yul\":7080:7118   */\n      tag_71\n      jump\t// in\n    tag_187:\n        /* \"#utility.yul\":7134:7204   */\n      tag_188\n        /* \"#utility.yul\":7197:7203   */\n      dup2\n        /* \"#utility.yul\":7192:7195   */\n      dup6\n        /* \"#utility.yul\":7134:7204   */\n      tag_72\n      jump\t// in\n    tag_188:\n        /* \"#utility.yul\":7127:7204   */\n      swap4\n      pop\n        /* \"#utility.yul\":7213:7278   */\n      tag_189\n        /* \"#utility.yul\":7271:7277   */\n      dup2\n        /* \"#utility.yul\":7266:7269   */\n      dup6\n        /* \"#utility.yul\":7259:7263   */\n      0x20\n        /* \"#utility.yul\":7252:7257   */\n      dup7\n        /* \"#utility.yul\":7248:7264   */\n      add\n        /* \"#utility.yul\":7213:7278   */\n      tag_62\n      jump\t// in\n    tag_189:\n        /* \"#utility.yul\":7303:7332   */\n      tag_190\n        /* \"#utility.yul\":7325:7331   */\n      dup2\n        /* \"#utility.yul\":7303:7332   */\n      tag_47\n      jump\t// in\n    tag_190:\n        /* \"#utility.yul\":7298:7301   */\n      dup5\n        /* \"#utility.yul\":7294:7333   */\n      add\n        /* \"#utility.yul\":7287:7333   */\n      swap2\n      pop\n        /* \"#utility.yul\":7056:7339   */\n      pop\n        /* \"#utility.yul\":6966:7339   */\n      swap3\n      swap2\n      pop\n      pop\n      jump\t// out\n        /* \"#utility.yul\":7345:7654   */\n    tag_17:\n        /* \"#utility.yul\":7456:7460   */\n      0x00\n        /* \"#utility.yul\":7494:7496   */\n      0x20\n        /* \"#utility.yul\":7483:7492   */\n      dup3\n        /* \"#utility.yul\":7479:7497   */\n      add\n        /* \"#utility.yul\":7471:7497   */\n      swap1\n      pop\n        /* \"#utility.yul\":7543:7552   */\n      dup2\n        /* \"#utility.yul\":7537:7541   */\n      dup2\n        /* \"#utility.yul\":7533:7553   */\n      sub\n        /* \"#utility.yul\":7529:7530   */\n      0x00\n        /* \"#utility.yul\":7518:7527   */\n      dup4\n        /* \"#utility.yul\":7514:7531   */\n      add\n        /* \"#utility.yul\":7507:7554   */\n      mstore\n        /* \"#utility.yul\":7571:7647   */\n      tag_192\n        /* \"#utility.yul\":7642:7646   */\n      dup2\n        /* \"#utility.yul\":7633:7639   */\n      dup5\n        /* \"#utility.yul\":7571:7647   */\n      tag_73\n      jump\t// in\n    tag_192:\n        /* \"#utility.yul\":7563:7647   */\n      swap1\n      pop\n        /* \"#utility.yul\":7345:7654   */\n      swap3\n      swap2\n      pop\n      pop\n      jump\t// out\n        /* \"#utility.yul\":7660:7782   */\n    tag_74:\n        /* \"#utility.yul\":7733:7757   */\n      tag_194\n        /* \"#utility.yul\":7751:7756   */\n      dup2\n        /* \"#utility.yul\":7733:7757   */\n      tag_55\n      jump\t// in\n    tag_194:\n        /* \"#utility.yul\":7726:7731   */\n      dup2\n        /* \"#utility.yul\":7723:7758   */\n      eq\n        /* \"#utility.yul\":7713:7776   */\n      tag_195\n      jumpi\n        /* \"#utility.yul\":7772:7773   */\n      0x00\n        /* \"#utility.yul\":7769:7770   */\n      dup1\n        /* \"#utility.yul\":7762:7774   */\n      revert\n        /* \"#utility.yul\":7713:7776   */\n    tag_195:\n        /* \"#utility.yul\":7660:7782   */\n      pop\n      jump\t// out\n        /* \"#utility.yul\":7788:7931   */\n    tag_75:\n        /* \"#utility.yul\":7845:7850   */\n      0x00\n        /* \"#utility.yul\":7876:7882   */\n      dup2\n        /* \"#utility.yul\":7870:7883   */\n      mload\n        /* \"#utility.yul\":7861:7883   */\n      swap1\n      pop\n        /* \"#utility.yul\":7892:7925   */\n      tag_197\n        /* \"#utility.yul\":7919:7924   */\n      dup2\n        /* \"#utility.yul\":7892:7925   */\n      tag_74\n      jump\t// in\n    tag_197:\n        /* \"#utility.yul\":7788:7931   */\n      swap3\n      swap2\n      pop\n      pop\n      jump\t// out\n        /* \"#utility.yul\":7937:8041   */\n    tag_76:\n        /* \"#utility.yul\":7982:7989   */\n      0x00\n        /* \"#utility.yul\":8011:8035   */\n      tag_199\n        /* \"#utility.yul\":8029:8034   */\n      dup3\n        /* \"#utility.yul\":8011:8035   */\n      tag_57\n      jump\t// in\n    tag_199:\n        /* \"#utility.yul\":8000:8035   */\n      swap1\n      pop\n        /* \"#utility.yul\":7937:8041   */\n      swap2\n      swap1\n      pop\n      jump\t// out\n        /* \"#utility.yul\":8047:8185   */\n    tag_77:\n        /* \"#utility.yul\":8128:8160   */\n      tag_201\n        /* \"#utility.yul\":8154:8159   */\n      dup2\n        /* \"#utility.yul\":8128:8160   */\n      tag_76\n      jump\t// in\n    tag_201:\n        /* \"#utility.yul\":8121:8126   */\n      dup2\n        /* \"#utility.yul\":8118:8161   */\n      eq\n        /* \"#utility.yul\":8108:8179   */\n      tag_202\n      jumpi\n        /* \"#utility.yul\":8175:8176   */\n      0x00\n        /* \"#utility.yul\":8172:8173   */\n      dup1\n        /* \"#utility.yul\":8165:8177   */\n      revert\n        /* \"#utility.yul\":8108:8179   */\n    tag_202:\n        /* \"#utility.yul\":8047:8185   */\n      pop\n      jump\t// out\n        /* \"#utility.yul\":8191:8350   */\n    tag_78:\n        /* \"#utility.yul\":8256:8261   */\n      0x00\n        /* \"#utility.yul\":8287:8293   */\n      dup2\n        /* \"#utility.yul\":8281:8294   */\n      mload\n        /* \"#utility.yul\":8272:8294   */\n      swap1\n      pop\n        /* \"#utility.yul\":8303:8344   */\n      tag_204\n        /* \"#utility.yul\":8338:8343   */\n      dup2\n        /* \"#utility.yul\":8303:8344   */\n      tag_77\n      jump\t// in\n    tag_204:\n        /* \"#utility.yul\":8191:8350   */\n      swap3\n      swap2\n      pop\n      pop\n      jump\t// out\n        /* \"#utility.yul\":8356:8664   */\n    tag_79:\n        /* \"#utility.yul\":8418:8422   */\n      0x00\n        /* \"#utility.yul\":8508:8526   */\n      0xffffffffffffffff\n        /* \"#utility.yul\":8500:8506   */\n      dup3\n        /* \"#utility.yul\":8497:8527   */\n      gt\n        /* \"#utility.yul\":8494:8550   */\n      iszero\n      tag_206\n      jumpi\n        /* \"#utility.yul\":8530:8548   */\n      tag_207\n      tag_48\n      jump\t// in\n    tag_207:\n        /* \"#utility.yul\":8494:8550   */\n    tag_206:\n        /* \"#utility.yul\":8568:8597   */\n      tag_208\n        /* \"#utility.yul\":8590:8596   */\n      dup3\n        /* \"#utility.yul\":8568:8597   */\n      tag_47\n      jump\t// in\n    tag_208:\n        /* \"#utility.yul\":8560:8597   */\n      swap1\n      pop\n        /* \"#utility.yul\":8652:8656   */\n      0x20\n        /* \"#utility.yul\":8646:8650   */\n      dup2\n        /* \"#utility.yul\":8642:8657   */\n      add\n        /* \"#utility.yul\":8634:8657   */\n      swap1\n      pop\n        /* \"#utility.yul\":8356:8664   */\n      swap2\n      swap1\n      pop\n      jump\t// out\n        /* \"#utility.yul\":8670:9104   */\n    tag_80:\n        /* \"#utility.yul\":8759:8764   */\n      0x00\n        /* \"#utility.yul\":8784:8850   */\n      tag_210\n        /* \"#utility.yul\":8800:8849   */\n      tag_211\n        /* \"#utility.yul\":8842:8848   */\n      dup5\n        /* \"#utility.yul\":8800:8849   */\n      tag_79\n      jump\t// in\n    tag_211:\n        /* \"#utility.yul\":8784:8850   */\n      tag_50\n      jump\t// in\n    tag_210:\n        /* \"#utility.yul\":8775:8850   */\n      swap1\n      pop\n        /* \"#utility.yul\":8873:8879   */\n      dup3\n        /* \"#utility.yul\":8866:8871   */\n      dup2\n        /* \"#utility.yul\":8859:8880   */\n      mstore\n        /* \"#utility.yul\":8911:8915   */\n      0x20\n        /* \"#utility.yul\":8904:8909   */\n      dup2\n        /* \"#utility.yul\":8900:8916   */\n      add\n        /* \"#utility.yul\":8949:8952   */\n      dup5\n        /* \"#utility.yul\":8940:8946   */\n      dup5\n        /* \"#utility.yul\":8935:8938   */\n      dup5\n        /* \"#utility.yul\":8931:8947   */\n      add\n        /* \"#utility.yul\":8928:8953   */\n      gt\n        /* \"#utility.yul\":8925:9037   */\n      iszero\n      tag_212\n      jumpi\n        /* \"#utility.yul\":8956:9035   */\n      tag_213\n      tag_46\n      jump\t// in\n    tag_213:\n        /* \"#utility.yul\":8925:9037   */\n    tag_212:\n        /* \"#utility.yul\":9046:9098   */\n      tag_214\n        /* \"#utility.yul\":9091:9097   */\n      dup5\n        /* \"#utility.yul\":9086:9089   */\n      dup3\n        /* \"#utility.yul\":9081:9084   */\n      dup6\n        /* \"#utility.yul\":9046:9098   */\n      tag_62\n      jump\t// in\n    tag_214:\n        /* \"#utility.yul\":8765:9104   */\n      pop\n        /* \"#utility.yul\":8670:9104   */\n      swap4\n      swap3\n      pop\n      pop\n      pop\n      jump\t// out\n        /* \"#utility.yul\":9124:9479   */\n    tag_81:\n        /* \"#utility.yul\":9191:9196   */\n      0x00\n        /* \"#utility.yul\":9240:9243   */\n      dup3\n        /* \"#utility.yul\":9233:9237   */\n      0x1f\n        /* \"#utility.yul\":9225:9231   */\n      dup4\n        /* \"#utility.yul\":9221:9238   */\n      add\n        /* \"#utility.yul\":9217:9244   */\n      slt\n        /* \"#utility.yul\":9207:9329   */\n      tag_216\n      jumpi\n        /* \"#utility.yul\":9248:9327   */\n      tag_217\n      tag_45\n      jump\t// in\n    tag_217:\n        /* \"#utility.yul\":9207:9329   */\n    tag_216:\n        /* \"#utility.yul\":9358:9364   */\n      dup2\n        /* \"#utility.yul\":9352:9365   */\n      mload\n        /* \"#utility.yul\":9383:9473   */\n      tag_218\n        /* \"#utility.yul\":9469:9472   */\n      dup5\n        /* \"#utility.yul\":9461:9467   */\n      dup3\n        /* \"#utility.yul\":9454:9458   */\n      0x20\n        /* \"#utility.yul\":9446:9452   */\n      dup7\n        /* \"#utility.yul\":9442:9459   */\n      add\n        /* \"#utility.yul\":9383:9473   */\n      tag_80\n      jump\t// in\n    tag_218:\n        /* \"#utility.yul\":9374:9473   */\n      swap2\n      pop\n        /* \"#utility.yul\":9197:9479   */\n      pop\n        /* \"#utility.yul\":9124:9479   */\n      swap3\n      swap2\n      pop\n      pop\n      jump\t// out\n        /* \"#utility.yul\":9485:9734   */\n    tag_82:\n        /* \"#utility.yul\":9560:9564   */\n      0x00\n        /* \"#utility.yul\":9650:9668   */\n      0xffffffffffffffff\n        /* \"#utility.yul\":9642:9648   */\n      dup3\n        /* \"#utility.yul\":9639:9669   */\n      gt\n        /* \"#utility.yul\":9636:9692   */\n      iszero\n      tag_220\n      jumpi\n        /* \"#utility.yul\":9672:9690   */\n      tag_221\n      tag_48\n      jump\t// in\n    tag_221:\n        /* \"#utility.yul\":9636:9692   */\n    tag_220:\n        /* \"#utility.yul\":9722:9726   */\n      0x20\n        /* \"#utility.yul\":9714:9720   */\n      dup3\n        /* \"#utility.yul\":9710:9727   */\n      mul\n        /* \"#utility.yul\":9702:9727   */\n      swap1\n      pop\n        /* \"#utility.yul\":9485:9734   */\n      swap2\n      swap1\n      pop\n      jump\t// out\n        /* \"#utility.yul\":9740:9857   */\n    tag_83:\n        /* \"#utility.yul\":9849:9850   */\n      0x00\n        /* \"#utility.yul\":9846:9847   */\n      dup1\n        /* \"#utility.yul\":9839:9851   */\n      revert\n        /* \"#utility.yul\":9881:10546   */\n    tag_84:\n        /* \"#utility.yul\":9986:9991   */\n      0x00\n        /* \"#utility.yul\":10011:10090   */\n      tag_224\n        /* \"#utility.yul\":10027:10089   */\n      tag_225\n        /* \"#utility.yul\":10082:10088   */\n      dup5\n        /* \"#utility.yul\":10027:10089   */\n      tag_82\n      jump\t// in\n    tag_225:\n        /* \"#utility.yul\":10011:10090   */\n      tag_50\n      jump\t// in\n    tag_224:\n        /* \"#utility.yul\":10002:10090   */\n      swap1\n      pop\n        /* \"#utility.yul\":10110:10115   */\n      dup1\n        /* \"#utility.yul\":10163:10167   */\n      0x20\n        /* \"#utility.yul\":10155:10161   */\n      dup5\n        /* \"#utility.yul\":10151:10168   */\n      mul\n        /* \"#utility.yul\":10143:10149   */\n      dup4\n        /* \"#utility.yul\":10139:10169   */\n      add\n        /* \"#utility.yul\":10192:10195   */\n      dup6\n        /* \"#utility.yul\":10184:10190   */\n      dup2\n        /* \"#utility.yul\":10181:10196   */\n      gt\n        /* \"#utility.yul\":10178:10300   */\n      iszero\n      tag_226\n      jumpi\n        /* \"#utility.yul\":10211:10290   */\n      tag_227\n      tag_83\n      jump\t// in\n    tag_227:\n        /* \"#utility.yul\":10178:10300   */\n    tag_226:\n        /* \"#utility.yul\":10326:10332   */\n      dup4\n        /* \"#utility.yul\":10309:10540   */\n    tag_228:\n        /* \"#utility.yul\":10343:10349   */\n      dup2\n        /* \"#utility.yul\":10338:10341   */\n      dup2\n        /* \"#utility.yul\":10335:10350   */\n      lt\n        /* \"#utility.yul\":10309:10540   */\n      iszero\n      tag_230\n      jumpi\n        /* \"#utility.yul\":10418:10421   */\n      dup1\n        /* \"#utility.yul\":10447:10495   */\n      tag_231\n        /* \"#utility.yul\":10491:10494   */\n      dup9\n        /* \"#utility.yul\":10479:10489   */\n      dup3\n        /* \"#utility.yul\":10447:10495   */\n      tag_75\n      jump\t// in\n    tag_231:\n        /* \"#utility.yul\":10442:10445   */\n      dup5\n        /* \"#utility.yul\":10435:10496   */\n      mstore\n        /* \"#utility.yul\":10525:10529   */\n      0x20\n        /* \"#utility.yul\":10520:10523   */\n      dup5\n        /* \"#utility.yul\":10516:10530   */\n      add\n        /* \"#utility.yul\":10509:10530   */\n      swap4\n      pop\n        /* \"#utility.yul\":10385:10540   */\n      pop\n        /* \"#utility.yul\":10369:10373   */\n      0x20\n        /* \"#utility.yul\":10364:10367   */\n      dup2\n        /* \"#utility.yul\":10360:10374   */\n      add\n        /* \"#utility.yul\":10353:10374   */\n      swap1\n      pop\n        /* \"#utility.yul\":10309:10540   */\n      jump(tag_228)\n    tag_230:\n        /* \"#utility.yul\":10313:10334   */\n      pop\n        /* \"#utility.yul\":9992:10546   */\n      pop\n      pop\n        /* \"#utility.yul\":9881:10546   */\n      swap4\n      swap3\n      pop\n      pop\n      pop\n      jump\t// out\n        /* \"#utility.yul\":10570:10931   */\n    tag_85:\n        /* \"#utility.yul\":10650:10655   */\n      0x00\n        /* \"#utility.yul\":10699:10702   */\n      dup3\n        /* \"#utility.yul\":10692:10696   */\n      0x1f\n        /* \"#utility.yul\":10684:10690   */\n      dup4\n        /* \"#utility.yul\":10680:10697   */\n      add\n        /* \"#utility.yul\":10676:10703   */\n      slt\n        /* \"#utility.yul\":10666:10788   */\n      tag_233\n      jumpi\n        /* \"#utility.yul\":10707:10786   */\n      tag_234\n      tag_45\n      jump\t// in\n    tag_234:\n        /* \"#utility.yul\":10666:10788   */\n    tag_233:\n        /* \"#utility.yul\":10811:10815   */\n      0x02\n        /* \"#utility.yul\":10833:10925   */\n      tag_235\n        /* \"#utility.yul\":10921:10924   */\n      dup5\n        /* \"#utility.yul\":10913:10919   */\n      dup3\n        /* \"#utility.yul\":10905:10911   */\n      dup6\n        /* \"#utility.yul\":10833:10925   */\n      tag_84\n      jump\t// in\n    tag_235:\n        /* \"#utility.yul\":10824:10925   */\n      swap2\n      pop\n        /* \"#utility.yul\":10656:10931   */\n      pop\n        /* \"#utility.yul\":10570:10931   */\n      swap3\n      swap2\n      pop\n      pop\n      jump\t// out\n        /* \"#utility.yul\":10937:11992   */\n    tag_31:\n        /* \"#utility.yul\":11075:11081   */\n      0x00\n        /* \"#utility.yul\":11083:11089   */\n      dup1\n        /* \"#utility.yul\":11091:11097   */\n      0x00\n        /* \"#utility.yul\":11099:11105   */\n      dup1\n        /* \"#utility.yul\":11148:11151   */\n      0xa0\n        /* \"#utility.yul\":11136:11145   */\n      dup6\n        /* \"#utility.yul\":11127:11134   */\n      dup8\n        /* \"#utility.yul\":11123:11146   */\n      sub\n        /* \"#utility.yul\":11119:11152   */\n      slt\n        /* \"#utility.yul\":11116:11236   */\n      iszero\n      tag_237\n      jumpi\n        /* \"#utility.yul\":11155:11234   */\n      tag_238\n      tag_43\n      jump\t// in\n    tag_238:\n        /* \"#utility.yul\":11116:11236   */\n    tag_237:\n        /* \"#utility.yul\":11275:11276   */\n      0x00\n        /* \"#utility.yul\":11300:11364   */\n      tag_239\n        /* \"#utility.yul\":11356:11363   */\n      dup8\n        /* \"#utility.yul\":11347:11353   */\n      dup3\n        /* \"#utility.yul\":11336:11345   */\n      dup9\n        /* \"#utility.yul\":11332:11354   */\n      add\n        /* \"#utility.yul\":11300:11364   */\n      tag_75\n      jump\t// in\n    tag_239:\n        /* \"#utility.yul\":11290:11364   */\n      swap5\n      pop\n        /* \"#utility.yul\":11246:11374   */\n      pop\n        /* \"#utility.yul\":11413:11415   */\n      0x20\n        /* \"#utility.yul\":11439:11511   */\n      tag_240\n        /* \"#utility.yul\":11503:11510   */\n      dup8\n        /* \"#utility.yul\":11494:11500   */\n      dup3\n        /* \"#utility.yul\":11483:11492   */\n      dup9\n        /* \"#utility.yul\":11479:11501   */\n      add\n        /* \"#utility.yul\":11439:11511   */\n      tag_78\n      jump\t// in\n    tag_240:\n        /* \"#utility.yul\":11429:11511   */\n      swap4\n      pop\n        /* \"#utility.yul\":11384:11521   */\n      pop\n        /* \"#utility.yul\":11581:11583   */\n      0x40\n        /* \"#utility.yul\":11570:11579   */\n      dup6\n        /* \"#utility.yul\":11566:11584   */\n      add\n        /* \"#utility.yul\":11560:11585   */\n      mload\n        /* \"#utility.yul\":11612:11630   */\n      0xffffffffffffffff\n        /* \"#utility.yul\":11604:11610   */\n      dup2\n        /* \"#utility.yul\":11601:11631   */\n      gt\n        /* \"#utility.yul\":11598:11715   */\n      iszero\n      tag_241\n      jumpi\n        /* \"#utility.yul\":11634:11713   */\n      tag_242\n      tag_44\n      jump\t// in\n    tag_242:\n        /* \"#utility.yul\":11598:11715   */\n    tag_241:\n        /* \"#utility.yul\":11739:11813   */\n      tag_243\n        /* \"#utility.yul\":11805:11812   */\n      dup8\n        /* \"#utility.yul\":11796:11802   */\n      dup3\n        /* \"#utility.yul\":11785:11794   */\n      dup9\n        /* \"#utility.yul\":11781:11803   */\n      add\n        /* \"#utility.yul\":11739:11813   */\n      tag_81\n      jump\t// in\n    tag_243:\n        /* \"#utility.yul\":11729:11813   */\n      swap3\n      pop\n        /* \"#utility.yul\":11531:11823   */\n      pop\n        /* \"#utility.yul\":11862:11864   */\n      0x60\n        /* \"#utility.yul\":11888:11975   */\n      tag_244\n        /* \"#utility.yul\":11967:11974   */\n      dup8\n        /* \"#utility.yul\":11958:11964   */\n      dup3\n        /* \"#utility.yul\":11947:11956   */\n      dup9\n        /* \"#utility.yul\":11943:11965   */\n      add\n        /* \"#utility.yul\":11888:11975   */\n      tag_85\n      jump\t// in\n    tag_244:\n        /* \"#utility.yul\":11878:11975   */\n      swap2\n      pop\n        /* \"#utility.yul\":11833:11985   */\n      pop\n        /* \"#utility.yul\":10937:11992   */\n      swap3\n      swap6\n      swap2\n      swap5\n      pop\n      swap3\n      pop\n      jump\t// out\n        /* \"#utility.yul\":11998:12077   */\n    tag_86:\n        /* \"#utility.yul\":12037:12044   */\n      0x00\n        /* \"#utility.yul\":12066:12071   */\n      dup2\n        /* \"#utility.yul\":12055:12071   */\n      swap1\n      pop\n        /* \"#utility.yul\":11998:12077   */\n      swap2\n      swap1\n      pop\n      jump\t// out\n        /* \"#utility.yul\":12083:12240   */\n    tag_87:\n        /* \"#utility.yul\":12188:12233   */\n      tag_247\n        /* \"#utility.yul\":12208:12232   */\n      tag_248\n        /* \"#utility.yul\":12226:12231   */\n      dup3\n        /* \"#utility.yul\":12208:12232   */\n      tag_55\n      jump\t// in\n    tag_248:\n        /* \"#utility.yul\":12188:12233   */\n      tag_86\n      jump\t// in\n    tag_247:\n        /* \"#utility.yul\":12183:12186   */\n      dup3\n        /* \"#utility.yul\":12176:12234   */\n      mstore\n        /* \"#utility.yul\":12083:12240   */\n      pop\n      pop\n      jump\t// out\n        /* \"#utility.yul\":12246:12340   */\n    tag_88:\n        /* \"#utility.yul\":12279:12287   */\n      0x00\n        /* \"#utility.yul\":12327:12332   */\n      dup2\n        /* \"#utility.yul\":12323:12325   */\n      0x60\n        /* \"#utility.yul\":12319:12333   */\n      shl\n        /* \"#utility.yul\":12298:12333   */\n      swap1\n      pop\n        /* \"#utility.yul\":12246:12340   */\n      swap2\n      swap1\n      pop\n      jump\t// out\n        /* \"#utility.yul\":12346:12440   */\n    tag_89:\n        /* \"#utility.yul\":12385:12392   */\n      0x00\n        /* \"#utility.yul\":12414:12434   */\n      tag_251\n        /* \"#utility.yul\":12428:12433   */\n      dup3\n        /* \"#utility.yul\":12414:12434   */\n      tag_88\n      jump\t// in\n    tag_251:\n        /* \"#utility.yul\":12403:12434   */\n      swap1\n      pop\n        /* \"#utility.yul\":12346:12440   */\n      swap2\n      swap1\n      pop\n      jump\t// out\n        /* \"#utility.yul\":12446:12546   */\n    tag_90:\n        /* \"#utility.yul\":12485:12492   */\n      0x00\n        /* \"#utility.yul\":12514:12540   */\n      tag_253\n        /* \"#utility.yul\":12534:12539   */\n      dup3\n        /* \"#utility.yul\":12514:12540   */\n      tag_89\n      jump\t// in\n    tag_253:\n        /* \"#utility.yul\":12503:12540   */\n      swap1\n      pop\n        /* \"#utility.yul\":12446:12546   */\n      swap2\n      swap1\n      pop\n      jump\t// out\n        /* \"#utility.yul\":12552:12709   */\n    tag_91:\n        /* \"#utility.yul\":12657:12702   */\n      tag_255\n        /* \"#utility.yul\":12677:12701   */\n      tag_256\n        /* \"#utility.yul\":12695:12700   */\n      dup3\n        /* \"#utility.yul\":12677:12701   */\n      tag_58\n      jump\t// in\n    tag_256:\n        /* \"#utility.yul\":12657:12702   */\n      tag_90\n      jump\t// in\n    tag_255:\n        /* \"#utility.yul\":12652:12655   */\n      dup3\n        /* \"#utility.yul\":12645:12703   */\n      mstore\n        /* \"#utility.yul\":12552:12709   */\n      pop\n      pop\n      jump\t// out\n        /* \"#utility.yul\":12715:12895   */\n    tag_92:\n        /* \"#utility.yul\":12763:12840   */\n      0x4e487b7100000000000000000000000000000000000000000000000000000000\n        /* \"#utility.yul\":12760:12761   */\n      0x00\n        /* \"#utility.yul\":12753:12841   */\n      mstore\n        /* \"#utility.yul\":12860:12864   */\n      0x22\n        /* \"#utility.yul\":12857:12858   */\n      0x04\n        /* \"#utility.yul\":12850:12865   */\n      mstore\n        /* \"#utility.yul\":12884:12888   */\n      0x24\n        /* \"#utility.yul\":12881:12882   */\n      0x00\n        /* \"#utility.yul\":12874:12889   */\n      revert\n        /* \"#utility.yul\":12901:13221   */\n    tag_93:\n        /* \"#utility.yul\":12945:12951   */\n      0x00\n        /* \"#utility.yul\":12982:12983   */\n      0x02\n        /* \"#utility.yul\":12976:12980   */\n      dup3\n        /* \"#utility.yul\":12972:12984   */\n      div\n        /* \"#utility.yul\":12962:12984   */\n      swap1\n      pop\n        /* \"#utility.yul\":13029:13030   */\n      0x01\n        /* \"#utility.yul\":13023:13027   */\n      dup3\n        /* \"#utility.yul\":13019:13031   */\n      and\n        /* \"#utility.yul\":13050:13068   */\n      dup1\n        /* \"#utility.yul\":13040:13121   */\n      tag_259\n      jumpi\n        /* \"#utility.yul\":13106:13110   */\n      0x7f\n        /* \"#utility.yul\":13098:13104   */\n      dup3\n        /* \"#utility.yul\":13094:13111   */\n      and\n        /* \"#utility.yul\":13084:13111   */\n      swap2\n      pop\n        /* \"#utility.yul\":13040:13121   */\n    tag_259:\n        /* \"#utility.yul\":13168:13170   */\n      0x20\n        /* \"#utility.yul\":13160:13166   */\n      dup3\n        /* \"#utility.yul\":13157:13171   */\n      lt\n        /* \"#utility.yul\":13137:13155   */\n      dup2\n        /* \"#utility.yul\":13134:13172   */\n      sub\n        /* \"#utility.yul\":13131:13215   */\n      tag_260\n      jumpi\n        /* \"#utility.yul\":13187:13205   */\n      tag_261\n      tag_92\n      jump\t// in\n    tag_261:\n        /* \"#utility.yul\":13131:13215   */\n    tag_260:\n        /* \"#utility.yul\":12952:13221   */\n      pop\n        /* \"#utility.yul\":12901:13221   */\n      swap2\n      swap1\n      pop\n      jump\t// out\n        /* \"#utility.yul\":13227:13375   */\n    tag_94:\n        /* \"#utility.yul\":13329:13340   */\n      0x00\n        /* \"#utility.yul\":13366:13369   */\n      dup2\n        /* \"#utility.yul\":13351:13369   */\n      swap1\n      pop\n        /* \"#utility.yul\":13227:13375   */\n      swap3\n      swap2\n      pop\n      pop\n      jump\t// out\n        /* \"#utility.yul\":13381:13522   */\n    tag_95:\n        /* \"#utility.yul\":13430:13434   */\n      0x00\n        /* \"#utility.yul\":13453:13456   */\n      dup2\n        /* \"#utility.yul\":13445:13456   */\n      swap1\n      pop\n        /* \"#utility.yul\":13476:13479   */\n      dup2\n        /* \"#utility.yul\":13473:13474   */\n      0x00\n        /* \"#utility.yul\":13466:13480   */\n      mstore\n        /* \"#utility.yul\":13510:13514   */\n      0x20\n        /* \"#utility.yul\":13507:13508   */\n      0x00\n        /* \"#utility.yul\":13497:13515   */\n      keccak256\n        /* \"#utility.yul\":13489:13515   */\n      swap1\n      pop\n        /* \"#utility.yul\":13381:13522   */\n      swap2\n      swap1\n      pop\n      jump\t// out\n        /* \"#utility.yul\":13552:14426   */\n    tag_96:\n        /* \"#utility.yul\":13655:13658   */\n      0x00\n        /* \"#utility.yul\":13692:13697   */\n      dup2\n        /* \"#utility.yul\":13686:13698   */\n      sload\n        /* \"#utility.yul\":13721:13757   */\n      tag_265\n        /* \"#utility.yul\":13747:13756   */\n      dup2\n        /* \"#utility.yul\":13721:13757   */\n      tag_93\n      jump\t// in\n    tag_265:\n        /* \"#utility.yul\":13773:13862   */\n      tag_266\n        /* \"#utility.yul\":13855:13861   */\n      dup2\n        /* \"#utility.yul\":13850:13853   */\n      dup7\n        /* \"#utility.yul\":13773:13862   */\n      tag_94\n      jump\t// in\n    tag_266:\n        /* \"#utility.yul\":13766:13862   */\n      swap5\n      pop\n        /* \"#utility.yul\":13893:13894   */\n      0x01\n        /* \"#utility.yul\":13882:13891   */\n      dup3\n        /* \"#utility.yul\":13878:13895   */\n      and\n        /* \"#utility.yul\":13909:13910   */\n      0x00\n        /* \"#utility.yul\":13904:14070   */\n      dup2\n      eq\n      tag_268\n      jumpi\n        /* \"#utility.yul\":14084:14085   */\n      0x01\n        /* \"#utility.yul\":14079:14420   */\n      dup2\n      eq\n      tag_269\n      jumpi\n        /* \"#utility.yul\":13871:14420   */\n      jump(tag_267)\n        /* \"#utility.yul\":13904:14070   */\n    tag_268:\n        /* \"#utility.yul\":13988:13992   */\n      0xff\n        /* \"#utility.yul\":13984:13993   */\n      not\n        /* \"#utility.yul\":13973:13982   */\n      dup4\n        /* \"#utility.yul\":13969:13994   */\n      and\n        /* \"#utility.yul\":13964:13967   */\n      dup7\n        /* \"#utility.yul\":13957:13995   */\n      mstore\n        /* \"#utility.yul\":14050:14056   */\n      dup2\n        /* \"#utility.yul\":14043:14057   */\n      iszero\n        /* \"#utility.yul\":14036:14058   */\n      iszero\n        /* \"#utility.yul\":14028:14034   */\n      dup3\n        /* \"#utility.yul\":14024:14059   */\n      mul\n        /* \"#utility.yul\":14019:14022   */\n      dup7\n        /* \"#utility.yul\":14015:14060   */\n      add\n        /* \"#utility.yul\":14008:14060   */\n      swap4\n      pop\n        /* \"#utility.yul\":13904:14070   */\n      jump(tag_267)\n        /* \"#utility.yul\":14079:14420   */\n    tag_269:\n        /* \"#utility.yul\":14146:14184   */\n      tag_270\n        /* \"#utility.yul\":14178:14183   */\n      dup6\n        /* \"#utility.yul\":14146:14184   */\n      tag_95\n      jump\t// in\n    tag_270:\n        /* \"#utility.yul\":14206:14207   */\n      0x00\n        /* \"#utility.yul\":14220:14374   */\n    tag_271:\n        /* \"#utility.yul\":14234:14240   */\n      dup4\n        /* \"#utility.yul\":14231:14232   */\n      dup2\n        /* \"#utility.yul\":14228:14241   */\n      lt\n        /* \"#utility.yul\":14220:14374   */\n      iszero\n      tag_273\n      jumpi\n        /* \"#utility.yul\":14308:14315   */\n      dup2\n        /* \"#utility.yul\":14302:14316   */\n      sload\n        /* \"#utility.yul\":14298:14299   */\n      dup2\n        /* \"#utility.yul\":14293:14296   */\n      dup10\n        /* \"#utility.yul\":14289:14300   */\n      add\n        /* \"#utility.yul\":14282:14317   */\n      mstore\n        /* \"#utility.yul\":14358:14359   */\n      0x01\n        /* \"#utility.yul\":14349:14356   */\n      dup3\n        /* \"#utility.yul\":14345:14360   */\n      add\n        /* \"#utility.yul\":14334:14360   */\n      swap2\n      pop\n        /* \"#utility.yul\":14256:14260   */\n      0x20\n        /* \"#utility.yul\":14253:14254   */\n      dup2\n        /* \"#utility.yul\":14249:14261   */\n      add\n        /* \"#utility.yul\":14244:14261   */\n      swap1\n      pop\n        /* \"#utility.yul\":14220:14374   */\n      jump(tag_271)\n    tag_273:\n        /* \"#utility.yul\":14403:14409   */\n      dup4\n        /* \"#utility.yul\":14398:14401   */\n      dup9\n        /* \"#utility.yul\":14394:14410   */\n      add\n        /* \"#utility.yul\":14387:14410   */\n      swap6\n      pop\n        /* \"#utility.yul\":14086:14420   */\n      pop\n      pop\n        /* \"#utility.yul\":13871:14420   */\n    tag_267:\n      pop\n        /* \"#utility.yul\":13659:14426   */\n      pop\n      pop\n        /* \"#utility.yul\":13552:14426   */\n      swap3\n      swap2\n      pop\n      pop\n      jump\t// out\n        /* \"#utility.yul\":14432:14533   */\n    tag_97:\n        /* \"#utility.yul\":14494:14500   */\n      0x00\n        /* \"#utility.yul\":14522:14526   */\n      0x02\n        /* \"#utility.yul\":14512:14526   */\n      swap1\n      pop\n        /* \"#utility.yul\":14432:14533   */\n      swap2\n      swap1\n      pop\n      jump\t// out\n        /* \"#utility.yul\":14539:14700   */\n    tag_98:\n        /* \"#utility.yul\":14654:14665   */\n      0x00\n        /* \"#utility.yul\":14691:14694   */\n      dup2\n        /* \"#utility.yul\":14676:14694   */\n      swap1\n      pop\n        /* \"#utility.yul\":14539:14700   */\n      swap3\n      swap2\n      pop\n      pop\n      jump\t// out\n        /* \"#utility.yul\":14706:14801   */\n    tag_99:\n        /* \"#utility.yul\":14768:14772   */\n      0x00\n        /* \"#utility.yul\":14791:14794   */\n      dup2\n        /* \"#utility.yul\":14783:14794   */\n      swap1\n      pop\n        /* \"#utility.yul\":14706:14801   */\n      swap2\n      swap1\n      pop\n      jump\t// out\n        /* \"#utility.yul\":14807:14923   */\n    tag_100:\n        /* \"#utility.yul\":14892:14916   */\n      tag_278\n        /* \"#utility.yul\":14910:14915   */\n      dup2\n        /* \"#utility.yul\":14892:14916   */\n      tag_55\n      jump\t// in\n    tag_278:\n        /* \"#utility.yul\":14887:14890   */\n      dup3\n        /* \"#utility.yul\":14880:14917   */\n      mstore\n        /* \"#utility.yul\":14807:14923   */\n      pop\n      pop\n      jump\t// out\n        /* \"#utility.yul\":14929:15124   */\n    tag_101:\n        /* \"#utility.yul\":15006:15016   */\n      0x00\n        /* \"#utility.yul\":15027:15081   */\n      tag_280\n        /* \"#utility.yul\":15077:15080   */\n      dup4\n        /* \"#utility.yul\":15069:15075   */\n      dup4\n        /* \"#utility.yul\":15027:15081   */\n      tag_100\n      jump\t// in\n    tag_280:\n        /* \"#utility.yul\":15113:15117   */\n      0x20\n        /* \"#utility.yul\":15108:15111   */\n      dup4\n        /* \"#utility.yul\":15104:15118   */\n      add\n        /* \"#utility.yul\":15090:15118   */\n      swap1\n      pop\n        /* \"#utility.yul\":14929:15124   */\n      swap3\n      swap2\n      pop\n      pop\n      jump\t// out\n        /* \"#utility.yul\":15130:15232   */\n    tag_102:\n        /* \"#utility.yul\":15172:15180   */\n      0x00\n        /* \"#utility.yul\":15219:15224   */\n      dup2\n        /* \"#utility.yul\":15216:15217   */\n      0x00\n        /* \"#utility.yul\":15212:15225   */\n      shr\n        /* \"#utility.yul\":15191:15225   */\n      swap1\n      pop\n        /* \"#utility.yul\":15130:15232   */\n      swap2\n      swap1\n      pop\n      jump\t// out\n        /* \"#utility.yul\":15238:15328   */\n    tag_103:\n        /* \"#utility.yul\":15288:15295   */\n      0x00\n        /* \"#utility.yul\":15317:15322   */\n      dup2\n        /* \"#utility.yul\":15306:15322   */\n      swap1\n      pop\n        /* \"#utility.yul\":15238:15328   */\n      swap2\n      swap1\n      pop\n      jump\t// out\n        /* \"#utility.yul\":15334:15500   */\n    tag_104:\n        /* \"#utility.yul\":15403:15408   */\n      0x00\n        /* \"#utility.yul\":15428:15494   */\n      tag_284\n        /* \"#utility.yul\":15459:15493   */\n      tag_285\n        /* \"#utility.yul\":15482:15492   */\n      dup4\n        /* \"#utility.yul\":15459:15493   */\n      tag_102\n      jump\t// in\n    tag_285:\n        /* \"#utility.yul\":15428:15494   */\n      tag_103\n      jump\t// in\n    tag_284:\n        /* \"#utility.yul\":15419:15494   */\n      swap1\n      pop\n        /* \"#utility.yul\":15334:15500   */\n      swap2\n      swap1\n      pop\n      jump\t// out\n        /* \"#utility.yul\":15506:15650   */\n    tag_105:\n        /* \"#utility.yul\":15561:15566   */\n      0x00\n        /* \"#utility.yul\":15586:15643   */\n      tag_287\n        /* \"#utility.yul\":15637:15641   */\n      dup3\n        /* \"#utility.yul\":15631:15642   */\n      sload\n        /* \"#utility.yul\":15586:15643   */\n      tag_104\n      jump\t// in\n    tag_287:\n        /* \"#utility.yul\":15577:15643   */\n      swap1\n      pop\n        /* \"#utility.yul\":15506:15650   */\n      swap2\n      swap1\n      pop\n      jump\t// out\n        /* \"#utility.yul\":15656:15764   */\n    tag_106:\n        /* \"#utility.yul\":15721:15725   */\n      0x00\n        /* \"#utility.yul\":15753:15757   */\n      0x01\n        /* \"#utility.yul\":15748:15751   */\n      dup3\n        /* \"#utility.yul\":15744:15758   */\n      add\n        /* \"#utility.yul\":15736:15758   */\n      swap1\n      pop\n        /* \"#utility.yul\":15656:15764   */\n      swap2\n      swap1\n      pop\n      jump\t// out\n        /* \"#utility.yul\":15802:16559   */\n    tag_107:\n        /* \"#utility.yul\":15953:16002   */\n      tag_290\n        /* \"#utility.yul\":15996:16001   */\n      dup2\n        /* \"#utility.yul\":15953:16002   */\n      tag_97\n      jump\t// in\n    tag_290:\n        /* \"#utility.yul\":16018:16120   */\n      tag_291\n        /* \"#utility.yul\":16113:16119   */\n      dup2\n        /* \"#utility.yul\":16108:16111   */\n      dup5\n        /* \"#utility.yul\":16018:16120   */\n      tag_98\n      jump\t// in\n    tag_291:\n        /* \"#utility.yul\":16011:16120   */\n      swap3\n      pop\n        /* \"#utility.yul\":16144:16195   */\n      tag_292\n        /* \"#utility.yul\":16189:16194   */\n      dup3\n        /* \"#utility.yul\":16144:16195   */\n      tag_99\n      jump\t// in\n    tag_292:\n        /* \"#utility.yul\":16218:16225   */\n      dup1\n        /* \"#utility.yul\":16249:16250   */\n      0x00\n        /* \"#utility.yul\":16234:16552   */\n    tag_293:\n        /* \"#utility.yul\":16259:16265   */\n      dup4\n        /* \"#utility.yul\":16256:16257   */\n      dup2\n        /* \"#utility.yul\":16253:16266   */\n      lt\n        /* \"#utility.yul\":16234:16552   */\n      iszero\n      tag_295\n      jumpi\n        /* \"#utility.yul\":16329:16373   */\n      tag_296\n        /* \"#utility.yul\":16366:16372   */\n      dup3\n        /* \"#utility.yul\":16329:16373   */\n      tag_105\n      jump\t// in\n    tag_296:\n        /* \"#utility.yul\":16393:16464   */\n      tag_297\n        /* \"#utility.yul\":16460:16463   */\n      dup8\n        /* \"#utility.yul\":16445:16458   */\n      dup3\n        /* \"#utility.yul\":16393:16464   */\n      tag_101\n      jump\t// in\n    tag_297:\n        /* \"#utility.yul\":16386:16464   */\n      swap7\n      pop\n        /* \"#utility.yul\":16487:16542   */\n      tag_298\n        /* \"#utility.yul\":16535:16541   */\n      dup4\n        /* \"#utility.yul\":16487:16542   */\n      tag_106\n      jump\t// in\n    tag_298:\n        /* \"#utility.yul\":16477:16542   */\n      swap3\n      pop\n        /* \"#utility.yul\":16294:16552   */\n      pop\n        /* \"#utility.yul\":16281:16282   */\n      0x01\n        /* \"#utility.yul\":16278:16279   */\n      dup2\n        /* \"#utility.yul\":16274:16283   */\n      add\n        /* \"#utility.yul\":16269:16283   */\n      swap1\n      pop\n        /* \"#utility.yul\":16234:16552   */\n      jump(tag_293)\n    tag_295:\n        /* \"#utility.yul\":16238:16252   */\n      pop\n        /* \"#utility.yul\":15929:16559   */\n      pop\n      pop\n      pop\n        /* \"#utility.yul\":15802:16559   */\n      pop\n      pop\n      jump\t// out\n        /* \"#utility.yul\":16565:17343   */\n    tag_34:\n        /* \"#utility.yul\":16821:16824   */\n      0x00\n        /* \"#utility.yul\":16836:16911   */\n      tag_300\n        /* \"#utility.yul\":16907:16910   */\n      dup3\n        /* \"#utility.yul\":16898:16904   */\n      dup8\n        /* \"#utility.yul\":16836:16911   */\n      tag_87\n      jump\t// in\n    tag_300:\n        /* \"#utility.yul\":16936:16938   */\n      0x20\n        /* \"#utility.yul\":16931:16934   */\n      dup3\n        /* \"#utility.yul\":16927:16939   */\n      add\n        /* \"#utility.yul\":16920:16939   */\n      swap2\n      pop\n        /* \"#utility.yul\":16949:17024   */\n      tag_301\n        /* \"#utility.yul\":17020:17023   */\n      dup3\n        /* \"#utility.yul\":17011:17017   */\n      dup7\n        /* \"#utility.yul\":16949:17024   */\n      tag_91\n      jump\t// in\n    tag_301:\n        /* \"#utility.yul\":17049:17051   */\n      0x14\n        /* \"#utility.yul\":17044:17047   */\n      dup3\n        /* \"#utility.yul\":17040:17052   */\n      add\n        /* \"#utility.yul\":17033:17052   */\n      swap2\n      pop\n        /* \"#utility.yul\":17069:17161   */\n      tag_302\n        /* \"#utility.yul\":17157:17160   */\n      dup3\n        /* \"#utility.yul\":17148:17154   */\n      dup6\n        /* \"#utility.yul\":17069:17161   */\n      tag_96\n      jump\t// in\n    tag_302:\n        /* \"#utility.yul\":17062:17161   */\n      swap2\n      pop\n        /* \"#utility.yul\":17171:17289   */\n      tag_303\n        /* \"#utility.yul\":17285:17288   */\n      dup3\n        /* \"#utility.yul\":17276:17282   */\n      dup5\n        /* \"#utility.yul\":17171:17289   */\n      tag_107\n      jump\t// in\n    tag_303:\n        /* \"#utility.yul\":17314:17316   */\n      0x40\n        /* \"#utility.yul\":17309:17312   */\n      dup3\n        /* \"#utility.yul\":17305:17317   */\n      add\n        /* \"#utility.yul\":17298:17317   */\n      swap2\n      pop\n        /* \"#utility.yul\":17334:17337   */\n      dup2\n        /* \"#utility.yul\":17327:17337   */\n      swap1\n      pop\n        /* \"#utility.yul\":16565:17343   */\n      swap6\n      swap5\n      pop\n      pop\n      pop\n      pop\n      pop\n      jump\t// out\n        /* \"#utility.yul\":17373:18204   */\n    tag_108:\n        /* \"#utility.yul\":17458:17461   */\n      0x00\n        /* \"#utility.yul\":17495:17500   */\n      dup2\n        /* \"#utility.yul\":17489:17501   */\n      sload\n        /* \"#utility.yul\":17524:17560   */\n      tag_305\n        /* \"#utility.yul\":17550:17559   */\n      dup2\n        /* \"#utility.yul\":17524:17560   */\n      tag_93\n      jump\t// in\n    tag_305:\n        /* \"#utility.yul\":17576:17647   */\n      tag_306\n        /* \"#utility.yul\":17640:17646   */\n      dup2\n        /* \"#utility.yul\":17635:17638   */\n      dup7\n        /* \"#utility.yul\":17576:17647   */\n      tag_61\n      jump\t// in\n    tag_306:\n        /* \"#utility.yul\":17569:17647   */\n      swap5\n      pop\n        /* \"#utility.yul\":17678:17679   */\n      0x01\n        /* \"#utility.yul\":17667:17676   */\n      dup3\n        /* \"#utility.yul\":17663:17680   */\n      and\n        /* \"#utility.yul\":17694:17695   */\n      0x00\n        /* \"#utility.yul\":17689:17853   */\n      dup2\n      eq\n      tag_308\n      jumpi\n        /* \"#utility.yul\":17867:17868   */\n      0x01\n        /* \"#utility.yul\":17862:18198   */\n      dup2\n      eq\n      tag_309\n      jumpi\n        /* \"#utility.yul\":17656:18198   */\n      jump(tag_307)\n        /* \"#utility.yul\":17689:17853   */\n    tag_308:\n        /* \"#utility.yul\":17773:17777   */\n      0xff\n        /* \"#utility.yul\":17769:17778   */\n      not\n        /* \"#utility.yul\":17758:17767   */\n      dup4\n        /* \"#utility.yul\":17754:17779   */\n      and\n        /* \"#utility.yul\":17749:17752   */\n      dup7\n        /* \"#utility.yul\":17742:17780   */\n      mstore\n        /* \"#utility.yul\":17833:17839   */\n      dup2\n        /* \"#utility.yul\":17826:17840   */\n      iszero\n        /* \"#utility.yul\":17819:17841   */\n      iszero\n        /* \"#utility.yul\":17813:17817   */\n      0x20\n        /* \"#utility.yul\":17809:17842   */\n      mul\n        /* \"#utility.yul\":17804:17807   */\n      dup7\n        /* \"#utility.yul\":17800:17843   */\n      add\n        /* \"#utility.yul\":17793:17843   */\n      swap4\n      pop\n        /* \"#utility.yul\":17689:17853   */\n      jump(tag_307)\n        /* \"#utility.yul\":17862:18198   */\n    tag_309:\n        /* \"#utility.yul\":17929:17967   */\n      tag_310\n        /* \"#utility.yul\":17961:17966   */\n      dup6\n        /* \"#utility.yul\":17929:17967   */\n      tag_95\n      jump\t// in\n    tag_310:\n        /* \"#utility.yul\":17989:17990   */\n      0x00\n        /* \"#utility.yul\":18003:18157   */\n    tag_311:\n        /* \"#utility.yul\":18017:18023   */\n      dup4\n        /* \"#utility.yul\":18014:18015   */\n      dup2\n        /* \"#utility.yul\":18011:18024   */\n      lt\n        /* \"#utility.yul\":18003:18157   */\n      iszero\n      tag_313\n      jumpi\n        /* \"#utility.yul\":18091:18098   */\n      dup2\n        /* \"#utility.yul\":18085:18099   */\n      sload\n        /* \"#utility.yul\":18081:18082   */\n      dup2\n        /* \"#utility.yul\":18076:18079   */\n      dup10\n        /* \"#utility.yul\":18072:18083   */\n      add\n        /* \"#utility.yul\":18065:18100   */\n      mstore\n        /* \"#utility.yul\":18141:18142   */\n      0x01\n        /* \"#utility.yul\":18132:18139   */\n      dup3\n        /* \"#utility.yul\":18128:18143   */\n      add\n        /* \"#utility.yul\":18117:18143   */\n      swap2\n      pop\n        /* \"#utility.yul\":18039:18043   */\n      0x20\n        /* \"#utility.yul\":18036:18037   */\n      dup2\n        /* \"#utility.yul\":18032:18044   */\n      add\n        /* \"#utility.yul\":18027:18044   */\n      swap1\n      pop\n        /* \"#utility.yul\":18003:18157   */\n      jump(tag_311)\n    tag_313:\n        /* \"#utility.yul\":18186:18187   */\n      dup1\n        /* \"#utility.yul\":18181:18184   */\n      dup9\n        /* \"#utility.yul\":18177:18188   */\n      add\n        /* \"#utility.yul\":18170:18188   */\n      swap6\n      pop\n        /* \"#utility.yul\":17869:18198   */\n      pop\n      pop\n        /* \"#utility.yul\":17656:18198   */\n    tag_307:\n      pop\n        /* \"#utility.yul\":17462:18204   */\n      pop\n      pop\n        /* \"#utility.yul\":17373:18204   */\n      swap3\n      swap2\n      pop\n      pop\n      jump\t// out\n        /* \"#utility.yul\":18242:18955   */\n    tag_109:\n        /* \"#utility.yul\":18375:18424   */\n      tag_315\n        /* \"#utility.yul\":18418:18423   */\n      dup2\n        /* \"#utility.yul\":18375:18424   */\n      tag_97\n      jump\t// in\n    tag_315:\n        /* \"#utility.yul\":18440:18524   */\n      tag_316\n        /* \"#utility.yul\":18517:18523   */\n      dup2\n        /* \"#utility.yul\":18512:18515   */\n      dup5\n        /* \"#utility.yul\":18440:18524   */\n      tag_65\n      jump\t// in\n    tag_316:\n        /* \"#utility.yul\":18433:18524   */\n      swap3\n      pop\n        /* \"#utility.yul\":18548:18599   */\n      tag_317\n        /* \"#utility.yul\":18593:18598   */\n      dup3\n        /* \"#utility.yul\":18548:18599   */\n      tag_99\n      jump\t// in\n    tag_317:\n        /* \"#utility.yul\":18622:18629   */\n      dup1\n        /* \"#utility.yul\":18653:18654   */\n      0x00\n        /* \"#utility.yul\":18638:18948   */\n    tag_318:\n        /* \"#utility.yul\":18663:18669   */\n      dup4\n        /* \"#utility.yul\":18660:18661   */\n      dup2\n        /* \"#utility.yul\":18657:18670   */\n      lt\n        /* \"#utility.yul\":18638:18948   */\n      iszero\n      tag_320\n      jumpi\n        /* \"#utility.yul\":18733:18777   */\n      tag_321\n        /* \"#utility.yul\":18770:18776   */\n      dup3\n        /* \"#utility.yul\":18733:18777   */\n      tag_105\n      jump\t// in\n    tag_321:\n        /* \"#utility.yul\":18797:18860   */\n      tag_322\n        /* \"#utility.yul\":18856:18859   */\n      dup8\n        /* \"#utility.yul\":18841:18854   */\n      dup3\n        /* \"#utility.yul\":18797:18860   */\n      tag_68\n      jump\t// in\n    tag_322:\n        /* \"#utility.yul\":18790:18860   */\n      swap7\n      pop\n        /* \"#utility.yul\":18883:18938   */\n      tag_323\n        /* \"#utility.yul\":18931:18937   */\n      dup4\n        /* \"#utility.yul\":18883:18938   */\n      tag_106\n      jump\t// in\n    tag_323:\n        /* \"#utility.yul\":18873:18938   */\n      swap3\n      pop\n        /* \"#utility.yul\":18698:18948   */\n      pop\n        /* \"#utility.yul\":18685:18686   */\n      0x01\n        /* \"#utility.yul\":18682:18683   */\n      dup2\n        /* \"#utility.yul\":18678:18687   */\n      add\n        /* \"#utility.yul\":18673:18687   */\n      swap1\n      pop\n        /* \"#utility.yul\":18638:18948   */\n      jump(tag_318)\n    tag_320:\n        /* \"#utility.yul\":18642:18656   */\n      pop\n        /* \"#utility.yul\":18351:18955   */\n      pop\n      pop\n      pop\n        /* \"#utility.yul\":18242:18955   */\n      pop\n      pop\n      jump\t// out\n        /* \"#utility.yul\":18961:19685   */\n    tag_37:\n        /* \"#utility.yul\":19198:19202   */\n      0x00\n        /* \"#utility.yul\":19236:19239   */\n      0xa0\n        /* \"#utility.yul\":19225:19234   */\n      dup3\n        /* \"#utility.yul\":19221:19240   */\n      add\n        /* \"#utility.yul\":19213:19240   */\n      swap1\n      pop\n        /* \"#utility.yul\":19250:19321   */\n      tag_325\n        /* \"#utility.yul\":19318:19319   */\n      0x00\n        /* \"#utility.yul\":19307:19316   */\n      dup4\n        /* \"#utility.yul\":19303:19320   */\n      add\n        /* \"#utility.yul\":19294:19300   */\n      dup8\n        /* \"#utility.yul\":19250:19321   */\n      tag_56\n      jump\t// in\n    tag_325:\n        /* \"#utility.yul\":19331:19403   */\n      tag_326\n        /* \"#utility.yul\":19399:19401   */\n      0x20\n        /* \"#utility.yul\":19388:19397   */\n      dup4\n        /* \"#utility.yul\":19384:19402   */\n      add\n        /* \"#utility.yul\":19375:19381   */\n      dup7\n        /* \"#utility.yul\":19331:19403   */\n      tag_59\n      jump\t// in\n    tag_326:\n        /* \"#utility.yul\":19450:19459   */\n      dup2\n        /* \"#utility.yul\":19444:19448   */\n      dup2\n        /* \"#utility.yul\":19440:19460   */\n      sub\n        /* \"#utility.yul\":19435:19437   */\n      0x40\n        /* \"#utility.yul\":19424:19433   */\n      dup4\n        /* \"#utility.yul\":19420:19438   */\n      add\n        /* \"#utility.yul\":19413:19461   */\n      mstore\n        /* \"#utility.yul\":19478:19553   */\n      tag_327\n        /* \"#utility.yul\":19548:19552   */\n      dup2\n        /* \"#utility.yul\":19539:19545   */\n      dup6\n        /* \"#utility.yul\":19478:19553   */\n      tag_108\n      jump\t// in\n    tag_327:\n        /* \"#utility.yul\":19470:19553   */\n      swap1\n      pop\n        /* \"#utility.yul\":19563:19678   */\n      tag_328\n        /* \"#utility.yul\":19674:19676   */\n      0x60\n        /* \"#utility.yul\":19663:19672   */\n      dup4\n        /* \"#utility.yul\":19659:19677   */\n      add\n        /* \"#utility.yul\":19650:19656   */\n      dup5\n        /* \"#utility.yul\":19563:19678   */\n      tag_109\n      jump\t// in\n    tag_328:\n        /* \"#utility.yul\":18961:19685   */\n      swap6\n      swap5\n      pop\n      pop\n      pop\n      pop\n      pop\n      jump\t// out\n\n    auxdata: 0xa2646970667358221220112db9fbc6c2ac546961cd2c67a3f0572910f9ce192457383e0af024a23704f364736f6c634300081a0033\n}\n",
				"bytecode": {
					"linkReferences": {},
					"object": "6080604052600a5f55737a58c0be72be218b41c608b7fe7c5bb630736c7160015f6101000a81548173ffffffffffffffffffffffffffffffffffffffff021916908373ffffffffffffffffffffffffffffffffffffffff1602179055506040518060400160405280600481526020017f3078414100000000000000000000000000000000000000000000000000000000815250600290816100a0919061037a565b506040518060400160405280600560ff168152602001600660ff1681525060039060026100ce9291906100e0565b503480156100da575f80fd5b50610449565b8260028101928215610114579160200282015b82811115610113578251829060ff169055916020019190600101906100f3565b5b5090506101219190610125565b5090565b5b8082111561013c575f815f905550600101610126565b5090565b5f81519050919050565b7f4e487b71000000000000000000000000000000000000000000000000000000005f52604160045260245ffd5b7f4e487b71000000000000000000000000000000000000000000000000000000005f52602260045260245ffd5b5f60028204905060018216806101bb57607f821691505b6020821081036101ce576101cd610177565b5b50919050565b5f819050815f5260205f209050919050565b5f6020601f8301049050919050565b5f82821b905092915050565b5f600883026102307fffffffffffffffffffffffffffffffffffffffffffffffffffffffffffffffff826101f5565b61023a86836101f5565b95508019841693508086168417925050509392505050565b5f819050919050565b5f819050919050565b5f61027e61027961027484610252565b61025b565b610252565b9050919050565b5f819050919050565b61029783610264565b6102ab6102a382610285565b848454610201565b825550505050565b5f90565b6102bf6102b3565b6102ca81848461028e565b505050565b5b818110156102ed576102e25f826102b7565b6001810190506102d0565b5050565b601f82111561033257610303816101d4565b61030c846101e6565b8101602085101561031b578190505b61032f610327856101e6565b8301826102cf565b50505b505050565b5f82821c905092915050565b5f6103525f1984600802610337565b1980831691505092915050565b5f61036a8383610343565b9150826002028217905092915050565b61038382610140565b67ffffffffffffffff81111561039c5761039b61014a565b5b6103a682546101a4565b6103b18282856102f1565b5f60209050601f8311600181146103e2575f84156103d0578287015190505b6103da858261035f565b865550610441565b601f1984166103f0866101d4565b5f5b82811015610417578489015182556001820191506020850194506020810190506103f2565b868310156104345784890151610430601f891682610343565b8355505b6001600288020188555050505b505050505050565b610d4f806104565f395ff3fe608060405234801561000f575f80fd5b5060043610610055575f3560e01c8063416bdc521461005957806348f8459c1461008c5780636097e7a3146100aa5780636db1628b146100c8578063a2e2c205146100e6575b5f80fd5b610073600480360381019061006e91906104cb565b610104565b604051610083949392919061066e565b60405180910390f35b61009461013b565b6040516100a1919061070a565b60405180910390f35b6100b261018c565b6040516100bf919061070a565b60405180910390f35b6100d06101dd565b6040516100dd919061070a565b60405180910390f35b6100ee61029c565b6040516100fb919061070a565b60405180910390f35b5f80606061011061035c565b8480602001905181019061012491906108df565b809450819550829650839750505050509193509193565b60605f5460015f9054906101000a900473ffffffffffffffffffffffffffffffffffffffff16600260036040516020016101789493929190610ba8565b604051602081830303815290604052905090565b60605f5460015f9054906101000a900473ffffffffffffffffffffffffffffffffffffffff16600260036040516020016101c99493929190610ccf565b604051602081830303815290604052905090565b60605f5460015f9054906101000a900473ffffffffffffffffffffffffffffffffffffffff166002600360405160240161021a9493929190610ccf565b6040516020818303038152906040527fe87082f1000000000000000000000000000000000000000000000000000000007bffffffffffffffffffffffffffffffffffffffffffffffffffffffff19166020820180517bffffffffffffffffffffffffffffffffffffffffffffffffffffffff8381831617835250505050905090565b60607fe87082f1450a46f8f3150d7bda55bda41a2b08d68abde6797ccc68be305673355f5460015f9054906101000a900473ffffffffffffffffffffffffffffffffffffffff16600260036040516024016102fa9493929190610ccf565b604051602081830303815290604052907bffffffffffffffffffffffffffffffffffffffffffffffffffffffff19166020820180517bffffffffffffffffffffffffffffffffffffffffffffffffffffffff8381831617835250505050905090565b6040518060400160405280600290602082028036833780820191505090505090565b5f604051905090565b5f80fd5b5f80fd5b5f80fd5b5f80fd5b5f601f19601f8301169050919050565b7f4e487b71000000000000000000000000000000000000000000000000000000005f52604160045260245ffd5b6103dd82610397565b810181811067ffffffffffffffff821117156103fc576103fb6103a7565b5b80604052505050565b5f61040e61037e565b905061041a82826103d4565b919050565b5f67ffffffffffffffff821115610439576104386103a7565b5b61044282610397565b9050602081019050919050565b828183375f83830152505050565b5f61046f61046a8461041f565b610405565b90508281526020810184848401111561048b5761048a610393565b5b61049684828561044f565b509392505050565b5f82601f8301126104b2576104b161038f565b5b81356104c284826020860161045d565b91505092915050565b5f602082840312156104e0576104df610387565b5b5f82013567ffffffffffffffff8111156104fd576104fc61038b565b5b6105098482850161049e565b91505092915050565b5f819050919050565b61052481610512565b82525050565b5f73ffffffffffffffffffffffffffffffffffffffff82169050919050565b5f6105538261052a565b9050919050565b61056381610549565b82525050565b5f81519050919050565b5f82825260208201905092915050565b8281835e5f83830152505050565b5f61059b82610569565b6105a58185610573565b93506105b5818560208601610583565b6105be81610397565b840191505092915050565b5f60029050919050565b5f81905092915050565b5f819050919050565b6105ef81610512565b82525050565b5f61060083836105e6565b60208301905092915050565b5f602082019050919050565b610621816105c9565b61062b81846105d3565b9250610636826105dd565b805f5b8381101561066657815161064d87826105f5565b96506106588361060c565b925050600181019050610639565b505050505050565b5f60a0820190506106815f83018761051b565b61068e602083018661055a565b81810360408301526106a08185610591565b90506106af6060830184610618565b95945050505050565b5f81519050919050565b5f82825260208201905092915050565b5f6106dc826106b8565b6106e681856106c2565b93506106f6818560208601610583565b6106ff81610397565b840191505092915050565b5f6020820190508181035f83015261072281846106d2565b905092915050565b61073381610512565b811461073d575f80fd5b50565b5f8151905061074e8161072a565b92915050565b5f61075e8261052a565b9050919050565b61076e81610754565b8114610778575f80fd5b50565b5f8151905061078981610765565b92915050565b5f67ffffffffffffffff8211156107a9576107a86103a7565b5b6107b282610397565b9050602081019050919050565b5f6107d16107cc8461078f565b610405565b9050828152602081018484840111156107ed576107ec610393565b5b6107f8848285610583565b509392505050565b5f82601f8301126108145761081361038f565b5b81516108248482602086016107bf565b91505092915050565b5f67ffffffffffffffff821115610847576108466103a7565b5b602082029050919050565b5f80fd5b5f6108686108638461082d565b610405565b9050806020840283018581111561088257610881610852565b5b835b818110156108ab57806108978882610740565b845260208401935050602081019050610884565b5050509392505050565b5f82601f8301126108c9576108c861038f565b5b60026108d6848285610856565b91505092915050565b5f805f8060a085870312156108f7576108f6610387565b5b5f61090487828801610740565b94505060206109158782880161077b565b935050604085015167ffffffffffffffff8111156109365761093561038b565b5b61094287828801610800565b9250506060610953878288016108b5565b91505092959194509250565b5f819050919050565b61097961097482610512565b61095f565b82525050565b5f8160601b9050919050565b5f6109958261097f565b9050919050565b5f6109a68261098b565b9050919050565b6109be6109b982610549565b61099c565b82525050565b7f4e487b71000000000000000000000000000000000000000000000000000000005f52602260045260245ffd5b5f6002820490506001821680610a0857607f821691505b602082108103610a1b57610a1a6109c4565b5b50919050565b5f81905092915050565b5f819050815f5260205f209050919050565b5f8154610a49816109f1565b610a538186610a21565b9450600182165f8114610a6d5760018114610a8257610ab4565b60ff1983168652811515820286019350610ab4565b610a8b85610a2b565b5f5b83811015610aac57815481890152600182019150602081019050610a8d565b838801955050505b50505092915050565b5f60029050919050565b5f81905092915050565b5f819050919050565b610ae381610512565b82525050565b5f610af48383610ada565b60208301905092915050565b5f815f1c9050919050565b5f819050919050565b5f610b26610b2183610b00565b610b0b565b9050919050565b5f610b388254610b14565b9050919050565b5f600182019050919050565b610b5481610abd565b610b5e8184610ac7565b9250610b6982610ad1565b805f5b83811015610ba057610b7d82610b2d565b610b878782610ae9565b9650610b9283610b3f565b925050600181019050610b6c565b505050505050565b5f610bb38287610968565b602082019150610bc382866109ad565b601482019150610bd38285610a3d565b9150610bdf8284610b4b565b60408201915081905095945050505050565b5f8154610bfd816109f1565b610c078186610573565b9450600182165f8114610c215760018114610c3757610c69565b60ff198316865281151560200286019350610c69565b610c4085610a2b565b5f5b83811015610c6157815481890152600182019150602081019050610c42565b808801955050505b50505092915050565b610c7b81610abd565b610c8581846105d3565b9250610c9082610ad1565b805f5b83811015610cc757610ca482610b2d565b610cae87826105f5565b9650610cb983610b3f565b925050600181019050610c93565b505050505050565b5f60a082019050610ce25f83018761051b565b610cef602083018661055a565b8181036040830152610d018185610bf1565b9050610d106060830184610c72565b9594505050505056fea2646970667358221220112db9fbc6c2ac546961cd2c67a3f0572910f9ce192457383e0af024a23704f364736f6c634300081a0033",
					"opcodes": "PUSH1 0x80 PUSH1 0x40 MSTORE PUSH1 0xA PUSH0 SSTORE PUSH20 0x7A58C0BE72BE218B41C608B7FE7C5BB630736C71 PUSH1 0x1 PUSH0 PUSH2 0x100 EXP DUP2 SLOAD DUP2 PUSH20 0xFFFFFFFFFFFFFFFFFFFFFFFFFFFFFFFFFFFFFFFF MUL NOT AND SWAP1 DUP4 PUSH20 0xFFFFFFFFFFFFFFFFFFFFFFFFFFFFFFFFFFFFFFFF AND MUL OR SWAP1 SSTORE POP PUSH1 0x40 MLOAD DUP1 PUSH1 0x40 ADD PUSH1 0x40 MSTORE DUP1 PUSH1 0x4 DUP2 MSTORE PUSH1 0x20 ADD PUSH32 0x3078414100000000000000000000000000000000000000000000000000000000 DUP2 MSTORE POP PUSH1 0x2 SWAP1 DUP2 PUSH2 0xA0 SWAP2 SWAP1 PUSH2 0x37A JUMP JUMPDEST POP PUSH1 0x40 MLOAD DUP1 PUSH1 0x40 ADD PUSH1 0x40 MSTORE DUP1 PUSH1 0x5 PUSH1 0xFF AND DUP2 MSTORE PUSH1 0x20 ADD PUSH1 0x6 PUSH1 0xFF AND DUP2 MSTORE POP PUSH1 0x3 SWAP1 PUSH1 0x2 PUSH2 0xCE SWAP3 SWAP2 SWAP1 PUSH2 0xE0 JUMP JUMPDEST POP CALLVALUE DUP1 ISZERO PUSH2 0xDA JUMPI PUSH0 DUP1 REVERT JUMPDEST POP PUSH2 0x449 JUMP JUMPDEST DUP3 PUSH1 0x2 DUP2 ADD SWAP3 DUP3 ISZERO PUSH2 0x114 JUMPI SWAP2 PUSH1 0x20 MUL DUP3 ADD JUMPDEST DUP3 DUP2 GT ISZERO PUSH2 0x113 JUMPI DUP3 MLOAD DUP3 SWAP1 PUSH1 0xFF AND SWAP1 SSTORE SWAP2 PUSH1 0x20 ADD SWAP2 SWAP1 PUSH1 0x1 ADD SWAP1 PUSH2 0xF3 JUMP JUMPDEST JUMPDEST POP SWAP1 POP PUSH2 0x121 SWAP2 SWAP1 PUSH2 0x125 JUMP JUMPDEST POP SWAP1 JUMP JUMPDEST JUMPDEST DUP1 DUP3 GT ISZERO PUSH2 0x13C JUMPI PUSH0 DUP2 PUSH0 SWAP1 SSTORE POP PUSH1 0x1 ADD PUSH2 0x126 JUMP JUMPDEST POP SWAP1 JUMP JUMPDEST PUSH0 DUP2 MLOAD SWAP1 POP SWAP2 SWAP1 POP JUMP JUMPDEST PUSH32 0x4E487B7100000000000000000000000000000000000000000000000000000000 PUSH0 MSTORE PUSH1 0x41 PUSH1 0x4 MSTORE PUSH1 0x24 PUSH0 REVERT JUMPDEST PUSH32 0x4E487B7100000000000000000000000000000000000000000000000000000000 PUSH0 MSTORE PUSH1 0x22 PUSH1 0x4 MSTORE PUSH1 0x24 PUSH0 REVERT JUMPDEST PUSH0 PUSH1 0x2 DUP3 DIV SWAP1 POP PUSH1 0x1 DUP3 AND DUP1 PUSH2 0x1BB JUMPI PUSH1 0x7F DUP3 AND SWAP2 POP JUMPDEST PUSH1 0x20 DUP3 LT DUP2 SUB PUSH2 0x1CE JUMPI PUSH2 0x1CD PUSH2 0x177 JUMP JUMPDEST JUMPDEST POP SWAP2 SWAP1 POP JUMP JUMPDEST PUSH0 DUP2 SWAP1 POP DUP2 PUSH0 MSTORE PUSH1 0x20 PUSH0 KECCAK256 SWAP1 POP SWAP2 SWAP1 POP JUMP JUMPDEST PUSH0 PUSH1 0x20 PUSH1 0x1F DUP4 ADD DIV SWAP1 POP SWAP2 SWAP1 POP JUMP JUMPDEST PUSH0 DUP3 DUP3 SHL SWAP1 POP SWAP3 SWAP2 POP POP JUMP JUMPDEST PUSH0 PUSH1 0x8 DUP4 MUL PUSH2 0x230 PUSH32 0xFFFFFFFFFFFFFFFFFFFFFFFFFFFFFFFFFFFFFFFFFFFFFFFFFFFFFFFFFFFFFFFF DUP3 PUSH2 0x1F5 JUMP JUMPDEST PUSH2 0x23A DUP7 DUP4 PUSH2 0x1F5 JUMP JUMPDEST SWAP6 POP DUP1 NOT DUP5 AND SWAP4 POP DUP1 DUP7 AND DUP5 OR SWAP3 POP POP POP SWAP4 SWAP3 POP POP POP JUMP JUMPDEST PUSH0 DUP2 SWAP1 POP SWAP2 SWAP1 POP JUMP JUMPDEST PUSH0 DUP2 SWAP1 POP SWAP2 SWAP1 POP JUMP JUMPDEST PUSH0 PUSH2 0x27E PUSH2 0x279 PUSH2 0x274 DUP5 PUSH2 0x252 JUMP JUMPDEST PUSH2 0x25B JUMP JUMPDEST PUSH2 0x252 JUMP JUMPDEST SWAP1 POP SWAP2 SWAP1 POP JUMP JUMPDEST PUSH0 DUP2 SWAP1 POP SWAP2 SWAP1 POP JUMP JUMPDEST PUSH2 0x297 DUP4 PUSH2 0x264 JUMP JUMPDEST PUSH2 0x2AB PUSH2 0x2A3 DUP3 PUSH2 0x285 JUMP JUMPDEST DUP5 DUP5 SLOAD PUSH2 0x201 JUMP JUMPDEST DUP3 SSTORE POP POP POP POP JUMP JUMPDEST PUSH0 SWAP1 JUMP JUMPDEST PUSH2 0x2BF PUSH2 0x2B3 JUMP JUMPDEST PUSH2 0x2CA DUP2 DUP5 DUP5 PUSH2 0x28E JUMP JUMPDEST POP POP POP JUMP JUMPDEST JUMPDEST DUP2 DUP2 LT ISZERO PUSH2 0x2ED JUMPI PUSH2 0x2E2 PUSH0 DUP3 PUSH2 0x2B7 JUMP JUMPDEST PUSH1 0x1 DUP2 ADD SWAP1 POP PUSH2 0x2D0 JUMP JUMPDEST POP POP JUMP JUMPDEST PUSH1 0x1F DUP3 GT ISZERO PUSH2 0x332 JUMPI PUSH2 0x303 DUP2 PUSH2 0x1D4 JUMP JUMPDEST PUSH2 0x30C DUP5 PUSH2 0x1E6 JUMP JUMPDEST DUP2 ADD PUSH1 0x20 DUP6 LT ISZERO PUSH2 0x31B JUMPI DUP2 SWAP1 POP JUMPDEST PUSH2 0x32F PUSH2 0x327 DUP6 PUSH2 0x1E6 JUMP JUMPDEST DUP4 ADD DUP3 PUSH2 0x2CF JUMP JUMPDEST POP POP JUMPDEST POP POP POP JUMP JUMPDEST PUSH0 DUP3 DUP3 SHR SWAP1 POP SWAP3 SWAP2 POP POP JUMP JUMPDEST PUSH0 PUSH2 0x352 PUSH0 NOT DUP5 PUSH1 0x8 MUL PUSH2 0x337 JUMP JUMPDEST NOT DUP1 DUP4 AND SWAP2 POP POP SWAP3 SWAP2 POP POP JUMP JUMPDEST PUSH0 PUSH2 0x36A DUP4 DUP4 PUSH2 0x343 JUMP JUMPDEST SWAP2 POP DUP3 PUSH1 0x2 MUL DUP3 OR SWAP1 POP SWAP3 SWAP2 POP POP JUMP JUMPDEST PUSH2 0x383 DUP3 PUSH2 0x140 JUMP JUMPDEST PUSH8 0xFFFFFFFFFFFFFFFF DUP2 GT ISZERO PUSH2 0x39C JUMPI PUSH2 0x39B PUSH2 0x14A JUMP JUMPDEST JUMPDEST PUSH2 0x3A6 DUP3 SLOAD PUSH2 0x1A4 JUMP JUMPDEST PUSH2 0x3B1 DUP3 DUP3 DUP6 PUSH2 0x2F1 JUMP JUMPDEST PUSH0 PUSH1 0x20 SWAP1 POP PUSH1 0x1F DUP4 GT PUSH1 0x1 DUP2 EQ PUSH2 0x3E2 JUMPI PUSH0 DUP5 ISZERO PUSH2 0x3D0 JUMPI DUP3 DUP8 ADD MLOAD SWAP1 POP JUMPDEST PUSH2 0x3DA DUP6 DUP3 PUSH2 0x35F JUMP JUMPDEST DUP7 SSTORE POP PUSH2 0x441 JUMP JUMPDEST PUSH1 0x1F NOT DUP5 AND PUSH2 0x3F0 DUP7 PUSH2 0x1D4 JUMP JUMPDEST PUSH0 JUMPDEST DUP3 DUP2 LT ISZERO PUSH2 0x417 JUMPI DUP5 DUP10 ADD MLOAD DUP3 SSTORE PUSH1 0x1 DUP3 ADD SWAP2 POP PUSH1 0x20 DUP6 ADD SWAP5 POP PUSH1 0x20 DUP2 ADD SWAP1 POP PUSH2 0x3F2 JUMP JUMPDEST DUP7 DUP4 LT ISZERO PUSH2 0x434 JUMPI DUP5 DUP10 ADD MLOAD PUSH2 0x430 PUSH1 0x1F DUP10 AND DUP3 PUSH2 0x343 JUMP JUMPDEST DUP4 SSTORE POP JUMPDEST PUSH1 0x1 PUSH1 0x2 DUP9 MUL ADD DUP9 SSTORE POP POP POP JUMPDEST POP POP POP POP POP POP JUMP JUMPDEST PUSH2 0xD4F DUP1 PUSH2 0x456 PUSH0 CODECOPY PUSH0 RETURN INVALID PUSH1 0x80 PUSH1 0x40 MSTORE CALLVALUE DUP1 ISZERO PUSH2 0xF JUMPI PUSH0 DUP1 REVERT JUMPDEST POP PUSH1 0x4 CALLDATASIZE LT PUSH2 0x55 JUMPI PUSH0 CALLDATALOAD PUSH1 0xE0 SHR DUP1 PUSH4 0x416BDC52 EQ PUSH2 0x59 JUMPI DUP1 PUSH4 0x48F8459C EQ PUSH2 0x8C JUMPI DUP1 PUSH4 0x6097E7A3 EQ PUSH2 0xAA JUMPI DUP1 PUSH4 0x6DB1628B EQ PUSH2 0xC8 JUMPI DUP1 PUSH4 0xA2E2C205 EQ PUSH2 0xE6 JUMPI JUMPDEST PUSH0 DUP1 REVERT JUMPDEST PUSH2 0x73 PUSH1 0x4 DUP1 CALLDATASIZE SUB DUP2 ADD SWAP1 PUSH2 0x6E SWAP2 SWAP1 PUSH2 0x4CB JUMP JUMPDEST PUSH2 0x104 JUMP JUMPDEST PUSH1 0x40 MLOAD PUSH2 0x83 SWAP5 SWAP4 SWAP3 SWAP2 SWAP1 PUSH2 0x66E JUMP JUMPDEST PUSH1 0x40 MLOAD DUP1 SWAP2 SUB SWAP1 RETURN JUMPDEST PUSH2 0x94 PUSH2 0x13B JUMP JUMPDEST PUSH1 0x40 MLOAD PUSH2 0xA1 SWAP2 SWAP1 PUSH2 0x70A JUMP JUMPDEST PUSH1 0x40 MLOAD DUP1 SWAP2 SUB SWAP1 RETURN JUMPDEST PUSH2 0xB2 PUSH2 0x18C JUMP JUMPDEST PUSH1 0x40 MLOAD PUSH2 0xBF SWAP2 SWAP1 PUSH2 0x70A JUMP JUMPDEST PUSH1 0x40 MLOAD DUP1 SWAP2 SUB SWAP1 RETURN JUMPDEST PUSH2 0xD0 PUSH2 0x1DD JUMP JUMPDEST PUSH1 0x40 MLOAD PUSH2 0xDD SWAP2 SWAP1 PUSH2 0x70A JUMP JUMPDEST PUSH1 0x40 MLOAD DUP1 SWAP2 SUB SWAP1 RETURN JUMPDEST PUSH2 0xEE PUSH2 0x29C JUMP JUMPDEST PUSH1 0x40 MLOAD PUSH2 0xFB SWAP2 SWAP1 PUSH2 0x70A JUMP JUMPDEST PUSH1 0x40 MLOAD DUP1 SWAP2 SUB SWAP1 RETURN JUMPDEST PUSH0 DUP1 PUSH1 0x60 PUSH2 0x110 PUSH2 0x35C JUMP JUMPDEST DUP5 DUP1 PUSH1 0x20 ADD SWAP1 MLOAD DUP2 ADD SWAP1 PUSH2 0x124 SWAP2 SWAP1 PUSH2 0x8DF JUMP JUMPDEST DUP1 SWAP5 POP DUP2 SWAP6 POP DUP3 SWAP7 POP DUP4 SWAP8 POP POP POP POP POP SWAP2 SWAP4 POP SWAP2 SWAP4 JUMP JUMPDEST PUSH1 0x60 PUSH0 SLOAD PUSH1 0x1 PUSH0 SWAP1 SLOAD SWAP1 PUSH2 0x100 EXP SWAP1 DIV PUSH20 0xFFFFFFFFFFFFFFFFFFFFFFFFFFFFFFFFFFFFFFFF AND PUSH1 0x2 PUSH1 0x3 PUSH1 0x40 MLOAD PUSH1 0x20 ADD PUSH2 0x178 SWAP5 SWAP4 SWAP3 SWAP2 SWAP1 PUSH2 0xBA8 JUMP JUMPDEST PUSH1 0x40 MLOAD PUSH1 0x20 DUP2 DUP4 SUB SUB DUP2 MSTORE SWAP1 PUSH1 0x40 MSTORE SWAP1 POP SWAP1 JUMP JUMPDEST PUSH1 0x60 PUSH0 SLOAD PUSH1 0x1 PUSH0 SWAP1 SLOAD SWAP1 PUSH2 0x100 EXP SWAP1 DIV PUSH20 0xFFFFFFFFFFFFFFFFFFFFFFFFFFFFFFFFFFFFFFFF AND PUSH1 0x2 PUSH1 0x3 PUSH1 0x40 MLOAD PUSH1 0x20 ADD PUSH2 0x1C9 SWAP5 SWAP4 SWAP3 SWAP2 SWAP1 PUSH2 0xCCF JUMP JUMPDEST PUSH1 0x40 MLOAD PUSH1 0x20 DUP2 DUP4 SUB SUB DUP2 MSTORE SWAP1 PUSH1 0x40 MSTORE SWAP1 POP SWAP1 JUMP JUMPDEST PUSH1 0x60 PUSH0 SLOAD PUSH1 0x1 PUSH0 SWAP1 SLOAD SWAP1 PUSH2 0x100 EXP SWAP1 DIV PUSH20 0xFFFFFFFFFFFFFFFFFFFFFFFFFFFFFFFFFFFFFFFF AND PUSH1 0x2 PUSH1 0x3 PUSH1 0x40 MLOAD PUSH1 0x24 ADD PUSH2 0x21A SWAP5 SWAP4 SWAP3 SWAP2 SWAP1 PUSH2 0xCCF JUMP JUMPDEST PUSH1 0x40 MLOAD PUSH1 0x20 DUP2 DUP4 SUB SUB DUP2 MSTORE SWAP1 PUSH1 0x40 MSTORE PUSH32 0xE87082F100000000000000000000000000000000000000000000000000000000 PUSH28 0xFFFFFFFFFFFFFFFFFFFFFFFFFFFFFFFFFFFFFFFFFFFFFFFFFFFFFFFF NOT AND PUSH1 0x20 DUP3 ADD DUP1 MLOAD PUSH28 0xFFFFFFFFFFFFFFFFFFFFFFFFFFFFFFFFFFFFFFFFFFFFFFFFFFFFFFFF DUP4 DUP2 DUP4 AND OR DUP4 MSTORE POP POP POP POP SWAP1 POP SWAP1 JUMP JUMPDEST PUSH1 0x60 PUSH32 0xE87082F1450A46F8F3150D7BDA55BDA41A2B08D68ABDE6797CCC68BE30567335 PUSH0 SLOAD PUSH1 0x1 PUSH0 SWAP1 SLOAD SWAP1 PUSH2 0x100 EXP SWAP1 DIV PUSH20 0xFFFFFFFFFFFFFFFFFFFFFFFFFFFFFFFFFFFFFFFF AND PUSH1 0x2 PUSH1 0x3 PUSH1 0x40 MLOAD PUSH1 0x24 ADD PUSH2 0x2FA SWAP5 SWAP4 SWAP3 SWAP2 SWAP1 PUSH2 0xCCF JUMP JUMPDEST PUSH1 0x40 MLOAD PUSH1 0x20 DUP2 DUP4 SUB SUB DUP2 MSTORE SWAP1 PUSH1 0x40 MSTORE SWAP1 PUSH28 0xFFFFFFFFFFFFFFFFFFFFFFFFFFFFFFFFFFFFFFFFFFFFFFFFFFFFFFFF NOT AND PUSH1 0x20 DUP3 ADD DUP1 MLOAD PUSH28 0xFFFFFFFFFFFFFFFFFFFFFFFFFFFFFFFFFFFFFFFFFFFFFFFFFFFFFFFF DUP4 DUP2 DUP4 AND OR DUP4 MSTORE POP POP POP POP SWAP1 POP SWAP1 JUMP JUMPDEST PUSH1 0x40 MLOAD DUP1 PUSH1 0x40 ADD PUSH1 0x40 MSTORE DUP1 PUSH1 0x2 SWAP1 PUSH1 0x20 DUP3 MUL DUP1 CALLDATASIZE DUP4 CALLDATACOPY DUP1 DUP3 ADD SWAP2 POP POP SWAP1 POP POP SWAP1 JUMP JUMPDEST PUSH0 PUSH1 0x40 MLOAD SWAP1 POP SWAP1 JUMP JUMPDEST PUSH0 DUP1 REVERT JUMPDEST PUSH0 DUP1 REVERT JUMPDEST PUSH0 DUP1 REVERT JUMPDEST PUSH0 DUP1 REVERT JUMPDEST PUSH0 PUSH1 0x1F NOT PUSH1 0x1F DUP4 ADD AND SWAP1 POP SWAP2 SWAP1 POP JUMP JUMPDEST PUSH32 0x4E487B7100000000000000000000000000000000000000000000000000000000 PUSH0 MSTORE PUSH1 0x41 PUSH1 0x4 MSTORE PUSH1 0x24 PUSH0 REVERT JUMPDEST PUSH2 0x3DD DUP3 PUSH2 0x397 JUMP JUMPDEST DUP2 ADD DUP2 DUP2 LT PUSH8 0xFFFFFFFFFFFFFFFF DUP3 GT OR ISZERO PUSH2 0x3FC JUMPI PUSH2 0x3FB PUSH2 0x3A7 JUMP JUMPDEST JUMPDEST DUP1 PUSH1 0x40 MSTORE POP POP POP JUMP JUMPDEST PUSH0 PUSH2 0x40E PUSH2 0x37E JUMP JUMPDEST SWAP1 POP PUSH2 0x41A DUP3 DUP3 PUSH2 0x3D4 JUMP JUMPDEST SWAP2 SWAP1 POP JUMP JUMPDEST PUSH0 PUSH8 0xFFFFFFFFFFFFFFFF DUP3 GT ISZERO PUSH2 0x439 JUMPI PUSH2 0x438 PUSH2 0x3A7 JUMP JUMPDEST JUMPDEST PUSH2 0x442 DUP3 PUSH2 0x397 JUMP JUMPDEST SWAP1 POP PUSH1 0x20 DUP2 ADD SWAP1 POP SWAP2 SWAP1 POP JUMP JUMPDEST DUP3 DUP2 DUP4 CALLDATACOPY PUSH0 DUP4 DUP4 ADD MSTORE POP POP POP JUMP JUMPDEST PUSH0 PUSH2 0x46F PUSH2 0x46A DUP5 PUSH2 0x41F JUMP JUMPDEST PUSH2 0x405 JUMP JUMPDEST SWAP1 POP DUP3 DUP2 MSTORE PUSH1 0x20 DUP2 ADD DUP5 DUP5 DUP5 ADD GT ISZERO PUSH2 0x48B JUMPI PUSH2 0x48A PUSH2 0x393 JUMP JUMPDEST JUMPDEST PUSH2 0x496 DUP5 DUP3 DUP6 PUSH2 0x44F JUMP JUMPDEST POP SWAP4 SWAP3 POP POP POP JUMP JUMPDEST PUSH0 DUP3 PUSH1 0x1F DUP4 ADD SLT PUSH2 0x4B2 JUMPI PUSH2 0x4B1 PUSH2 0x38F JUMP JUMPDEST JUMPDEST DUP2 CALLDATALOAD PUSH2 0x4C2 DUP5 DUP3 PUSH1 0x20 DUP7 ADD PUSH2 0x45D JUMP JUMPDEST SWAP2 POP POP SWAP3 SWAP2 POP POP JUMP JUMPDEST PUSH0 PUSH1 0x20 DUP3 DUP5 SUB SLT ISZERO PUSH2 0x4E0 JUMPI PUSH2 0x4DF PUSH2 0x387 JUMP JUMPDEST JUMPDEST PUSH0 DUP3 ADD CALLDATALOAD PUSH8 0xFFFFFFFFFFFFFFFF DUP2 GT ISZERO PUSH2 0x4FD JUMPI PUSH2 0x4FC PUSH2 0x38B JUMP JUMPDEST JUMPDEST PUSH2 0x509 DUP5 DUP3 DUP6 ADD PUSH2 0x49E JUMP JUMPDEST SWAP2 POP POP SWAP3 SWAP2 POP POP JUMP JUMPDEST PUSH0 DUP2 SWAP1 POP SWAP2 SWAP1 POP JUMP JUMPDEST PUSH2 0x524 DUP2 PUSH2 0x512 JUMP JUMPDEST DUP3 MSTORE POP POP JUMP JUMPDEST PUSH0 PUSH20 0xFFFFFFFFFFFFFFFFFFFFFFFFFFFFFFFFFFFFFFFF DUP3 AND SWAP1 POP SWAP2 SWAP1 POP JUMP JUMPDEST PUSH0 PUSH2 0x553 DUP3 PUSH2 0x52A JUMP JUMPDEST SWAP1 POP SWAP2 SWAP1 POP JUMP JUMPDEST PUSH2 0x563 DUP2 PUSH2 0x549 JUMP JUMPDEST DUP3 MSTORE POP POP JUMP JUMPDEST PUSH0 DUP2 MLOAD SWAP1 POP SWAP2 SWAP1 POP JUMP JUMPDEST PUSH0 DUP3 DUP3 MSTORE PUSH1 0x20 DUP3 ADD SWAP1 POP SWAP3 SWAP2 POP POP JUMP JUMPDEST DUP3 DUP2 DUP4 MCOPY PUSH0 DUP4 DUP4 ADD MSTORE POP POP POP JUMP JUMPDEST PUSH0 PUSH2 0x59B DUP3 PUSH2 0x569 JUMP JUMPDEST PUSH2 0x5A5 DUP2 DUP6 PUSH2 0x573 JUMP JUMPDEST SWAP4 POP PUSH2 0x5B5 DUP2 DUP6 PUSH1 0x20 DUP7 ADD PUSH2 0x583 JUMP JUMPDEST PUSH2 0x5BE DUP2 PUSH2 0x397 JUMP JUMPDEST DUP5 ADD SWAP2 POP POP SWAP3 SWAP2 POP POP JUMP JUMPDEST PUSH0 PUSH1 0x2 SWAP1 POP SWAP2 SWAP1 POP JUMP JUMPDEST PUSH0 DUP2 SWAP1 POP SWAP3 SWAP2 POP POP JUMP JUMPDEST PUSH0 DUP2 SWAP1 POP SWAP2 SWAP1 POP JUMP JUMPDEST PUSH2 0x5EF DUP2 PUSH2 0x512 JUMP JUMPDEST DUP3 MSTORE POP POP JUMP JUMPDEST PUSH0 PUSH2 0x600 DUP4 DUP4 PUSH2 0x5E6 JUMP JUMPDEST PUSH1 0x20 DUP4 ADD SWAP1 POP SWAP3 SWAP2 POP POP JUMP JUMPDEST PUSH0 PUSH1 0x20 DUP3 ADD SWAP1 POP SWAP2 SWAP1 POP JUMP JUMPDEST PUSH2 0x621 DUP2 PUSH2 0x5C9 JUMP JUMPDEST PUSH2 0x62B DUP2 DUP5 PUSH2 0x5D3 JUMP JUMPDEST SWAP3 POP PUSH2 0x636 DUP3 PUSH2 0x5DD JUMP JUMPDEST DUP1 PUSH0 JUMPDEST DUP4 DUP2 LT ISZERO PUSH2 0x666 JUMPI DUP2 MLOAD PUSH2 0x64D DUP8 DUP3 PUSH2 0x5F5 JUMP JUMPDEST SWAP7 POP PUSH2 0x658 DUP4 PUSH2 0x60C JUMP JUMPDEST SWAP3 POP POP PUSH1 0x1 DUP2 ADD SWAP1 POP PUSH2 0x639 JUMP JUMPDEST POP POP POP POP POP POP JUMP JUMPDEST PUSH0 PUSH1 0xA0 DUP3 ADD SWAP1 POP PUSH2 0x681 PUSH0 DUP4 ADD DUP8 PUSH2 0x51B JUMP JUMPDEST PUSH2 0x68E PUSH1 0x20 DUP4 ADD DUP7 PUSH2 0x55A JUMP JUMPDEST DUP2 DUP2 SUB PUSH1 0x40 DUP4 ADD MSTORE PUSH2 0x6A0 DUP2 DUP6 PUSH2 0x591 JUMP JUMPDEST SWAP1 POP PUSH2 0x6AF PUSH1 0x60 DUP4 ADD DUP5 PUSH2 0x618 JUMP JUMPDEST SWAP6 SWAP5 POP POP POP POP POP JUMP JUMPDEST PUSH0 DUP2 MLOAD SWAP1 POP SWAP2 SWAP1 POP JUMP JUMPDEST PUSH0 DUP3 DUP3 MSTORE PUSH1 0x20 DUP3 ADD SWAP1 POP SWAP3 SWAP2 POP POP JUMP JUMPDEST PUSH0 PUSH2 0x6DC DUP3 PUSH2 0x6B8 JUMP JUMPDEST PUSH2 0x6E6 DUP2 DUP6 PUSH2 0x6C2 JUMP JUMPDEST SWAP4 POP PUSH2 0x6F6 DUP2 DUP6 PUSH1 0x20 DUP7 ADD PUSH2 0x583 JUMP JUMPDEST PUSH2 0x6FF DUP2 PUSH2 0x397 JUMP JUMPDEST DUP5 ADD SWAP2 POP POP SWAP3 SWAP2 POP POP JUMP JUMPDEST PUSH0 PUSH1 0x20 DUP3 ADD SWAP1 POP DUP2 DUP2 SUB PUSH0 DUP4 ADD MSTORE PUSH2 0x722 DUP2 DUP5 PUSH2 0x6D2 JUMP JUMPDEST SWAP1 POP SWAP3 SWAP2 POP POP JUMP JUMPDEST PUSH2 0x733 DUP2 PUSH2 0x512 JUMP JUMPDEST DUP2 EQ PUSH2 0x73D JUMPI PUSH0 DUP1 REVERT JUMPDEST POP JUMP JUMPDEST PUSH0 DUP2 MLOAD SWAP1 POP PUSH2 0x74E DUP2 PUSH2 0x72A JUMP JUMPDEST SWAP3 SWAP2 POP POP JUMP JUMPDEST PUSH0 PUSH2 0x75E DUP3 PUSH2 0x52A JUMP JUMPDEST SWAP1 POP SWAP2 SWAP1 POP JUMP JUMPDEST PUSH2 0x76E DUP2 PUSH2 0x754 JUMP JUMPDEST DUP2 EQ PUSH2 0x778 JUMPI PUSH0 DUP1 REVERT JUMPDEST POP JUMP JUMPDEST PUSH0 DUP2 MLOAD SWAP1 POP PUSH2 0x789 DUP2 PUSH2 0x765 JUMP JUMPDEST SWAP3 SWAP2 POP POP JUMP JUMPDEST PUSH0 PUSH8 0xFFFFFFFFFFFFFFFF DUP3 GT ISZERO PUSH2 0x7A9 JUMPI PUSH2 0x7A8 PUSH2 0x3A7 JUMP JUMPDEST JUMPDEST PUSH2 0x7B2 DUP3 PUSH2 0x397 JUMP JUMPDEST SWAP1 POP PUSH1 0x20 DUP2 ADD SWAP1 POP SWAP2 SWAP1 POP JUMP JUMPDEST PUSH0 PUSH2 0x7D1 PUSH2 0x7CC DUP5 PUSH2 0x78F JUMP JUMPDEST PUSH2 0x405 JUMP JUMPDEST SWAP1 POP DUP3 DUP2 MSTORE PUSH1 0x20 DUP2 ADD DUP5 DUP5 DUP5 ADD GT ISZERO PUSH2 0x7ED JUMPI PUSH2 0x7EC PUSH2 0x393 JUMP JUMPDEST JUMPDEST PUSH2 0x7F8 DUP5 DUP3 DUP6 PUSH2 0x583 JUMP JUMPDEST POP SWAP4 SWAP3 POP POP POP JUMP JUMPDEST PUSH0 DUP3 PUSH1 0x1F DUP4 ADD SLT PUSH2 0x814 JUMPI PUSH2 0x813 PUSH2 0x38F JUMP JUMPDEST JUMPDEST DUP2 MLOAD PUSH2 0x824 DUP5 DUP3 PUSH1 0x20 DUP7 ADD PUSH2 0x7BF JUMP JUMPDEST SWAP2 POP POP SWAP3 SWAP2 POP POP JUMP JUMPDEST PUSH0 PUSH8 0xFFFFFFFFFFFFFFFF DUP3 GT ISZERO PUSH2 0x847 JUMPI PUSH2 0x846 PUSH2 0x3A7 JUMP JUMPDEST JUMPDEST PUSH1 0x20 DUP3 MUL SWAP1 POP SWAP2 SWAP1 POP JUMP JUMPDEST PUSH0 DUP1 REVERT JUMPDEST PUSH0 PUSH2 0x868 PUSH2 0x863 DUP5 PUSH2 0x82D JUMP JUMPDEST PUSH2 0x405 JUMP JUMPDEST SWAP1 POP DUP1 PUSH1 0x20 DUP5 MUL DUP4 ADD DUP6 DUP2 GT ISZERO PUSH2 0x882 JUMPI PUSH2 0x881 PUSH2 0x852 JUMP JUMPDEST JUMPDEST DUP4 JUMPDEST DUP2 DUP2 LT ISZERO PUSH2 0x8AB JUMPI DUP1 PUSH2 0x897 DUP9 DUP3 PUSH2 0x740 JUMP JUMPDEST DUP5 MSTORE PUSH1 0x20 DUP5 ADD SWAP4 POP POP PUSH1 0x20 DUP2 ADD SWAP1 POP PUSH2 0x884 JUMP JUMPDEST POP POP POP SWAP4 SWAP3 POP POP POP JUMP JUMPDEST PUSH0 DUP3 PUSH1 0x1F DUP4 ADD SLT PUSH2 0x8C9 JUMPI PUSH2 0x8C8 PUSH2 0x38F JUMP JUMPDEST JUMPDEST PUSH1 0x2 PUSH2 0x8D6 DUP5 DUP3 DUP6 PUSH2 0x856 JUMP JUMPDEST SWAP2 POP POP SWAP3 SWAP2 POP POP JUMP JUMPDEST PUSH0 DUP1 PUSH0 DUP1 PUSH1 0xA0 DUP6 DUP8 SUB SLT ISZERO PUSH2 0x8F7 JUMPI PUSH2 0x8F6 PUSH2 0x387 JUMP JUMPDEST JUMPDEST PUSH0 PUSH2 0x904 DUP8 DUP3 DUP9 ADD PUSH2 0x740 JUMP JUMPDEST SWAP5 POP POP PUSH1 0x20 PUSH2 0x915 DUP8 DUP3 DUP9 ADD PUSH2 0x77B JUMP JUMPDEST SWAP4 POP POP PUSH1 0x40 DUP6 ADD MLOAD PUSH8 0xFFFFFFFFFFFFFFFF DUP2 GT ISZERO PUSH2 0x936 JUMPI PUSH2 0x935 PUSH2 0x38B JUMP JUMPDEST JUMPDEST PUSH2 0x942 DUP8 DUP3 DUP9 ADD PUSH2 0x800 JUMP JUMPDEST SWAP3 POP POP PUSH1 0x60 PUSH2 0x953 DUP8 DUP3 DUP9 ADD PUSH2 0x8B5 JUMP JUMPDEST SWAP2 POP POP SWAP3 SWAP6 SWAP2 SWAP5 POP SWAP3 POP JUMP JUMPDEST PUSH0 DUP2 SWAP1 POP SWAP2 SWAP1 POP JUMP JUMPDEST PUSH2 0x979 PUSH2 0x974 DUP3 PUSH2 0x512 JUMP JUMPDEST PUSH2 0x95F JUMP JUMPDEST DUP3 MSTORE POP POP JUMP JUMPDEST PUSH0 DUP2 PUSH1 0x60 SHL SWAP1 POP SWAP2 SWAP1 POP JUMP JUMPDEST PUSH0 PUSH2 0x995 DUP3 PUSH2 0x97F JUMP JUMPDEST SWAP1 POP SWAP2 SWAP1 POP JUMP JUMPDEST PUSH0 PUSH2 0x9A6 DUP3 PUSH2 0x98B JUMP JUMPDEST SWAP1 POP SWAP2 SWAP1 POP JUMP JUMPDEST PUSH2 0x9BE PUSH2 0x9B9 DUP3 PUSH2 0x549 JUMP JUMPDEST PUSH2 0x99C JUMP JUMPDEST DUP3 MSTORE POP POP JUMP JUMPDEST PUSH32 0x4E487B7100000000000000000000000000000000000000000000000000000000 PUSH0 MSTORE PUSH1 0x22 PUSH1 0x4 MSTORE PUSH1 0x24 PUSH0 REVERT JUMPDEST PUSH0 PUSH1 0x2 DUP3 DIV SWAP1 POP PUSH1 0x1 DUP3 AND DUP1 PUSH2 0xA08 JUMPI PUSH1 0x7F DUP3 AND SWAP2 POP JUMPDEST PUSH1 0x20 DUP3 LT DUP2 SUB PUSH2 0xA1B JUMPI PUSH2 0xA1A PUSH2 0x9C4 JUMP JUMPDEST JUMPDEST POP SWAP2 SWAP1 POP JUMP JUMPDEST PUSH0 DUP2 SWAP1 POP SWAP3 SWAP2 POP POP JUMP JUMPDEST PUSH0 DUP2 SWAP1 POP DUP2 PUSH0 MSTORE PUSH1 0x20 PUSH0 KECCAK256 SWAP1 POP SWAP2 SWAP1 POP JUMP JUMPDEST PUSH0 DUP2 SLOAD PUSH2 0xA49 DUP2 PUSH2 0x9F1 JUMP JUMPDEST PUSH2 0xA53 DUP2 DUP7 PUSH2 0xA21 JUMP JUMPDEST SWAP5 POP PUSH1 0x1 DUP3 AND PUSH0 DUP2 EQ PUSH2 0xA6D JUMPI PUSH1 0x1 DUP2 EQ PUSH2 0xA82 JUMPI PUSH2 0xAB4 JUMP JUMPDEST PUSH1 0xFF NOT DUP4 AND DUP7 MSTORE DUP2 ISZERO ISZERO DUP3 MUL DUP7 ADD SWAP4 POP PUSH2 0xAB4 JUMP JUMPDEST PUSH2 0xA8B DUP6 PUSH2 0xA2B JUMP JUMPDEST PUSH0 JUMPDEST DUP4 DUP2 LT ISZERO PUSH2 0xAAC JUMPI DUP2 SLOAD DUP2 DUP10 ADD MSTORE PUSH1 0x1 DUP3 ADD SWAP2 POP PUSH1 0x20 DUP2 ADD SWAP1 POP PUSH2 0xA8D JUMP JUMPDEST DUP4 DUP9 ADD SWAP6 POP POP POP JUMPDEST POP POP POP SWAP3 SWAP2 POP POP JUMP JUMPDEST PUSH0 PUSH1 0x2 SWAP1 POP SWAP2 SWAP1 POP JUMP JUMPDEST PUSH0 DUP2 SWAP1 POP SWAP3 SWAP2 POP POP JUMP JUMPDEST PUSH0 DUP2 SWAP1 POP SWAP2 SWAP1 POP JUMP JUMPDEST PUSH2 0xAE3 DUP2 PUSH2 0x512 JUMP JUMPDEST DUP3 MSTORE POP POP JUMP JUMPDEST PUSH0 PUSH2 0xAF4 DUP4 DUP4 PUSH2 0xADA JUMP JUMPDEST PUSH1 0x20 DUP4 ADD SWAP1 POP SWAP3 SWAP2 POP POP JUMP JUMPDEST PUSH0 DUP2 PUSH0 SHR SWAP1 POP SWAP2 SWAP1 POP JUMP JUMPDEST PUSH0 DUP2 SWAP1 POP SWAP2 SWAP1 POP JUMP JUMPDEST PUSH0 PUSH2 0xB26 PUSH2 0xB21 DUP4 PUSH2 0xB00 JUMP JUMPDEST PUSH2 0xB0B JUMP JUMPDEST SWAP1 POP SWAP2 SWAP1 POP JUMP JUMPDEST PUSH0 PUSH2 0xB38 DUP3 SLOAD PUSH2 0xB14 JUMP JUMPDEST SWAP1 POP SWAP2 SWAP1 POP JUMP JUMPDEST PUSH0 PUSH1 0x1 DUP3 ADD SWAP1 POP SWAP2 SWAP1 POP JUMP JUMPDEST PUSH2 0xB54 DUP2 PUSH2 0xABD JUMP JUMPDEST PUSH2 0xB5E DUP2 DUP5 PUSH2 0xAC7 JUMP JUMPDEST SWAP3 POP PUSH2 0xB69 DUP3 PUSH2 0xAD1 JUMP JUMPDEST DUP1 PUSH0 JUMPDEST DUP4 DUP2 LT ISZERO PUSH2 0xBA0 JUMPI PUSH2 0xB7D DUP3 PUSH2 0xB2D JUMP JUMPDEST PUSH2 0xB87 DUP8 DUP3 PUSH2 0xAE9 JUMP JUMPDEST SWAP7 POP PUSH2 0xB92 DUP4 PUSH2 0xB3F JUMP JUMPDEST SWAP3 POP POP PUSH1 0x1 DUP2 ADD SWAP1 POP PUSH2 0xB6C JUMP JUMPDEST POP POP POP POP POP POP JUMP JUMPDEST PUSH0 PUSH2 0xBB3 DUP3 DUP8 PUSH2 0x968 JUMP JUMPDEST PUSH1 0x20 DUP3 ADD SWAP2 POP PUSH2 0xBC3 DUP3 DUP7 PUSH2 0x9AD JUMP JUMPDEST PUSH1 0x14 DUP3 ADD SWAP2 POP PUSH2 0xBD3 DUP3 DUP6 PUSH2 0xA3D JUMP JUMPDEST SWAP2 POP PUSH2 0xBDF DUP3 DUP5 PUSH2 0xB4B JUMP JUMPDEST PUSH1 0x40 DUP3 ADD SWAP2 POP DUP2 SWAP1 POP SWAP6 SWAP5 POP POP POP POP POP JUMP JUMPDEST PUSH0 DUP2 SLOAD PUSH2 0xBFD DUP2 PUSH2 0x9F1 JUMP JUMPDEST PUSH2 0xC07 DUP2 DUP7 PUSH2 0x573 JUMP JUMPDEST SWAP5 POP PUSH1 0x1 DUP3 AND PUSH0 DUP2 EQ PUSH2 0xC21 JUMPI PUSH1 0x1 DUP2 EQ PUSH2 0xC37 JUMPI PUSH2 0xC69 JUMP JUMPDEST PUSH1 0xFF NOT DUP4 AND DUP7 MSTORE DUP2 ISZERO ISZERO PUSH1 0x20 MUL DUP7 ADD SWAP4 POP PUSH2 0xC69 JUMP JUMPDEST PUSH2 0xC40 DUP6 PUSH2 0xA2B JUMP JUMPDEST PUSH0 JUMPDEST DUP4 DUP2 LT ISZERO PUSH2 0xC61 JUMPI DUP2 SLOAD DUP2 DUP10 ADD MSTORE PUSH1 0x1 DUP3 ADD SWAP2 POP PUSH1 0x20 DUP2 ADD SWAP1 POP PUSH2 0xC42 JUMP JUMPDEST DUP1 DUP9 ADD SWAP6 POP POP POP JUMPDEST POP POP POP SWAP3 SWAP2 POP POP JUMP JUMPDEST PUSH2 0xC7B DUP2 PUSH2 0xABD JUMP JUMPDEST PUSH2 0xC85 DUP2 DUP5 PUSH2 0x5D3 JUMP JUMPDEST SWAP3 POP PUSH2 0xC90 DUP3 PUSH2 0xAD1 JUMP JUMPDEST DUP1 PUSH0 JUMPDEST DUP4 DUP2 LT ISZERO PUSH2 0xCC7 JUMPI PUSH2 0xCA4 DUP3 PUSH2 0xB2D JUMP JUMPDEST PUSH2 0xCAE DUP8 DUP3 PUSH2 0x5F5 JUMP JUMPDEST SWAP7 POP PUSH2 0xCB9 DUP4 PUSH2 0xB3F JUMP JUMPDEST SWAP3 POP POP PUSH1 0x1 DUP2 ADD SWAP1 POP PUSH2 0xC93 JUMP JUMPDEST POP POP POP POP POP POP JUMP JUMPDEST PUSH0 PUSH1 0xA0 DUP3 ADD SWAP1 POP PUSH2 0xCE2 PUSH0 DUP4 ADD DUP8 PUSH2 0x51B JUMP JUMPDEST PUSH2 0xCEF PUSH1 0x20 DUP4 ADD DUP7 PUSH2 0x55A JUMP JUMPDEST DUP2 DUP2 SUB PUSH1 0x40 DUP4 ADD MSTORE PUSH2 0xD01 DUP2 DUP6 PUSH2 0xBF1 JUMP JUMPDEST SWAP1 POP PUSH2 0xD10 PUSH1 0x60 DUP4 ADD DUP5 PUSH2 0xC72 JUMP JUMPDEST SWAP6 SWAP5 POP POP POP POP POP JUMP INVALID LOG2 PUSH5 0x6970667358 0x22 SLT KECCAK256 GT 0x2D 0xB9 0xFB 0xC6 0xC2 0xAC SLOAD PUSH10 0x61CD2C67A3F0572910F9 0xCE NOT 0x24 JUMPI CODESIZE RETURNDATACOPY EXP CREATE 0x24 LOG2 CALLDATACOPY DIV RETURN PUSH5 0x736F6C6343 STOP ADDMOD BYTE STOP CALLER "
				},
				"gasEstimates": {
					"creation": {
						"codeDepositCost": "681400",
						"executionCost": "infinite",
						"totalCost": "infinite"
					},
					"external": {
						"abiDecode(bytes)": "infinite",
						"abiEncode()": "infinite",
						"abiEncodePacked()": "infinite",
						"abiEncodeWithSelector()": "infinite",
						"abiEncodeWithSignature()": "infinite"
					}
				},
				"methodIdentifiers": {
					"abiDecode(bytes)": "416bdc52",
					"abiEncode()": "6097e7a3",
					"abiEncodePacked()": "48f8459c",
					"abiEncodeWithSelector()": "a2e2c205",
					"abiEncodeWithSignature()": "6db1628b"
				}
			},
			"storageLayout": {
				"storage": [
					{
						"astId": 4,
						"contract": "contract/wtf/abi.sol:AbiDemo",
						"label": "x",
						"offset": 0,
						"slot": "0",
						"type": "t_uint256"
					},
					{
						"astId": 7,
						"contract": "contract/wtf/abi.sol:AbiDemo",
						"label": "addr",
						"offset": 0,
						"slot": "1",
						"type": "t_address"
					},
					{
						"astId": 10,
						"contract": "contract/wtf/abi.sol:AbiDemo",
						"label": "name",
						"offset": 0,
						"slot": "2",
						"type": "t_string_storage"
					},
					{
						"astId": 17,
						"contract": "contract/wtf/abi.sol:AbiDemo",
						"label": "array",
						"offset": 0,
						"slot": "3",
						"type": "t_array(t_uint256)2_storage"
					}
				],
				"types": {
					"t_address": {
						"encoding": "inplace",
						"label": "address",
						"numberOfBytes": "20"
					},
					"t_array(t_uint256)2_storage": {
						"base": "t_uint256",
						"encoding": "inplace",
						"label": "uint256[2]",
						"numberOfBytes": "64"
					},
					"t_string_storage": {
						"encoding": "bytes",
						"label": "string",
						"numberOfBytes": "32"
					},
					"t_uint256": {
						"encoding": "inplace",
						"label": "uint256",
						"numberOfBytes": "32"
					}
				}
			},
			"userdoc": {
				"kind": "user",
				"methods": {},
				"version": 1
			}
		}
	}
}