{
	"contract/wtf/create2.sol": {
		"PairFactory2": {
			"abi": [
				{
					"inputs": [
						{
							"internalType": "uint256",
							"name": "",
							"type": "uint256"
						}
					],
					"name": "allPairs",
					"outputs": [
						{
							"internalType": "address",
							"name": "",
							"type": "address"
						}
					],
					"stateMutability": "view",
					"type": "function"
				},
				{
					"inputs": [
						{
							"internalType": "address",
							"name": "tokenA",
							"type": "address"
						},
						{
							"internalType": "address",
							"name": "tokenB",
							"type": "address"
						}
					],
					"name": "calculateAddr",
					"outputs": [
						{
							"internalType": "address",
							"name": "predictedAddress",
							"type": "address"
						}
					],
					"stateMutability": "view",
					"type": "function"
				},
				{
					"inputs": [
						{
							"internalType": "address",
							"name": "tokenA",
							"type": "address"
						},
						{
							"internalType": "address",
							"name": "tokenB",
							"type": "address"
						}
					],
					"name": "createPair2",
					"outputs": [
						{
							"internalType": "address",
							"name": "pairAddr",
							"type": "address"
						}
					],
					"stateMutability": "nonpayable",
					"type": "function"
				},
				{
					"inputs": [
						{
							"internalType": "address",
							"name": "",
							"type": "address"
						},
						{
							"internalType": "address",
							"name": "",
							"type": "address"
						}
					],
					"name": "getPair",
					"outputs": [
						{
							"internalType": "address",
							"name": "",
							"type": "address"
						}
					],
					"stateMutability": "view",
					"type": "function"
				}
			],
			"devdoc": {
				"kind": "dev",
				"methods": {},
				"version": 1
			},
			"evm": {
				"assembly": "    /* \"contract/wtf/create2.sol\":600:2719  contract PairFactory2 {... */\n  mstore(0x40, 0x80)\n  callvalue\n  dup1\n  iszero\n  tag_1\n  jumpi\n  0x00\n  dup1\n  revert\ntag_1:\n  pop\n  dataSize(sub_0)\n  dup1\n  dataOffset(sub_0)\n  0x00\n  codecopy\n  0x00\n  return\nstop\n\nsub_0: assembly {\n        /* \"contract/wtf/create2.sol\":600:2719  contract PairFactory2 {... */\n      mstore(0x40, 0x80)\n      callvalue\n      dup1\n      iszero\n      tag_1\n      jumpi\n      0x00\n      dup1\n      revert\n    tag_1:\n      pop\n      jumpi(tag_2, lt(calldatasize, 0x04))\n      shr(0xe0, calldataload(0x00))\n      dup1\n      0x1e3dd18b\n      eq\n      tag_3\n      jumpi\n      dup1\n      0x93850187\n      eq\n      tag_4\n      jumpi\n      dup1\n      0xdf06b188\n      eq\n      tag_5\n      jumpi\n      dup1\n      0xe6a43905\n      eq\n      tag_6\n      jumpi\n    tag_2:\n      0x00\n      dup1\n      revert\n        /* \"contract/wtf/create2.sol\":737:762  address[] public allPairs */\n    tag_3:\n      tag_7\n      0x04\n      dup1\n      calldatasize\n      sub\n      dup2\n      add\n      swap1\n      tag_8\n      swap2\n      swap1\n      tag_9\n      jump\t// in\n    tag_8:\n      tag_10\n      jump\t// in\n    tag_7:\n      mload(0x40)\n      tag_11\n      swap2\n      swap1\n      tag_12\n      jump\t// in\n    tag_11:\n      mload(0x40)\n      dup1\n      swap2\n      sub\n      swap1\n      return\n        /* \"contract/wtf/create2.sol\":795:1636  function createPair2(address tokenA, address tokenB)... */\n    tag_4:\n      tag_13\n      0x04\n      dup1\n      calldatasize\n      sub\n      dup2\n      add\n      swap1\n      tag_14\n      swap2\n      swap1\n      tag_15\n      jump\t// in\n    tag_14:\n      tag_16\n      jump\t// in\n    tag_13:\n      mload(0x40)\n      tag_17\n      swap2\n      swap1\n      tag_12\n      jump\t// in\n    tag_17:\n      mload(0x40)\n      dup1\n      swap2\n      sub\n      swap1\n      return\n        /* \"contract/wtf/create2.sol\":1728:2717  function calculateAddr(address tokenA, address tokenB)... */\n    tag_5:\n      tag_18\n      0x04\n      dup1\n      calldatasize\n      sub\n      dup2\n      add\n      swap1\n      tag_19\n      swap2\n      swap1\n      tag_15\n      jump\t// in\n    tag_19:\n      tag_20\n      jump\t// in\n    tag_18:\n      mload(0x40)\n      tag_21\n      swap2\n      swap1\n      tag_12\n      jump\t// in\n    tag_21:\n      mload(0x40)\n      dup1\n      swap2\n      sub\n      swap1\n      return\n        /* \"contract/wtf/create2.sol\":628:690  mapping(address => mapping(address => address)) public getPair */\n    tag_6:\n      tag_22\n      0x04\n      dup1\n      calldatasize\n      sub\n      dup2\n      add\n      swap1\n      tag_23\n      swap2\n      swap1\n      tag_15\n      jump\t// in\n    tag_23:\n      tag_24\n      jump\t// in\n    tag_22:\n      mload(0x40)\n      tag_25\n      swap2\n      swap1\n      tag_12\n      jump\t// in\n    tag_25:\n      mload(0x40)\n      dup1\n      swap2\n      sub\n      swap1\n      return\n        /* \"contract/wtf/create2.sol\":737:762  address[] public allPairs */\n    tag_10:\n      0x01\n      dup2\n      dup2\n      sload\n      dup2\n      lt\n      tag_26\n      jumpi\n      0x00\n      dup1\n      revert\n    tag_26:\n      swap1\n      0x00\n      mstore\n      keccak256(0x00, 0x20)\n      add\n      0x00\n      swap2\n      pop\n      sload\n      swap1\n      0x0100\n      exp\n      swap1\n      div\n      0xffffffffffffffffffffffffffffffffffffffff\n      and\n      dup2\n      jump\t// out\n        /* \"contract/wtf/create2.sol\":795:1636  function createPair2(address tokenA, address tokenB)... */\n    tag_16:\n        /* \"contract/wtf/create2.sol\":882:898  address pairAddr */\n      0x00\n        /* \"contract/wtf/create2.sol\":932:938  tokenB */\n      dup2\n        /* \"contract/wtf/create2.sol\":922:938  tokenA != tokenB */\n      0xffffffffffffffffffffffffffffffffffffffff\n      and\n        /* \"contract/wtf/create2.sol\":922:928  tokenA */\n      dup4\n        /* \"contract/wtf/create2.sol\":922:938  tokenA != tokenB */\n      0xffffffffffffffffffffffffffffffffffffffff\n      and\n      sub\n        /* \"contract/wtf/create2.sol\":914:962  require(tokenA != tokenB, \"IDENTICAL_ADDRESSES\") */\n      tag_29\n      jumpi\n      mload(0x40)\n      0x08c379a000000000000000000000000000000000000000000000000000000000\n      dup2\n      mstore\n      0x04\n      add\n      tag_30\n      swap1\n      tag_31\n      jump\t// in\n    tag_30:\n      mload(0x40)\n      dup1\n      swap2\n      sub\n      swap1\n      revert\n    tag_29:\n        /* \"contract/wtf/create2.sol\":1064:1078  address token0 */\n      0x00\n        /* \"contract/wtf/create2.sol\":1080:1094  address token1 */\n      dup1\n        /* \"contract/wtf/create2.sol\":1107:1113  tokenB */\n      dup4\n        /* \"contract/wtf/create2.sol\":1098:1113  tokenA < tokenB */\n      0xffffffffffffffffffffffffffffffffffffffff\n      and\n        /* \"contract/wtf/create2.sol\":1098:1104  tokenA */\n      dup6\n        /* \"contract/wtf/create2.sol\":1098:1113  tokenA < tokenB */\n      0xffffffffffffffffffffffffffffffffffffffff\n      and\n      lt\n        /* \"contract/wtf/create2.sol\":1098:1175  tokenA < tokenB... */\n      tag_32\n      jumpi\n        /* \"contract/wtf/create2.sol\":1160:1166  tokenB */\n      dup4\n        /* \"contract/wtf/create2.sol\":1168:1174  tokenA */\n      dup6\n        /* \"contract/wtf/create2.sol\":1098:1175  tokenA < tokenB... */\n      jump(tag_33)\n    tag_32:\n        /* \"contract/wtf/create2.sol\":1129:1135  tokenA */\n      dup5\n        /* \"contract/wtf/create2.sol\":1137:1143  tokenB */\n      dup5\n        /* \"contract/wtf/create2.sol\":1098:1175  tokenA < tokenB... */\n    tag_33:\n        /* \"contract/wtf/create2.sol\":1063:1175  (address token0, address token1) = tokenA < tokenB... */\n      swap2\n      pop\n      swap2\n      pop\n        /* \"contract/wtf/create2.sol\":1221:1233  bytes32 salt */\n      0x00\n        /* \"contract/wtf/create2.sol\":1263:1269  token0 */\n      dup3\n        /* \"contract/wtf/create2.sol\":1271:1277  token1 */\n      dup3\n        /* \"contract/wtf/create2.sol\":1246:1278  abi.encodePacked(token0, token1) */\n      add(0x20, mload(0x40))\n      tag_34\n      swap3\n      swap2\n      swap1\n      tag_35\n      jump\t// in\n    tag_34:\n      mload(0x40)\n      0x20\n      dup2\n      dup4\n      sub\n      sub\n      dup2\n      mstore\n      swap1\n      0x40\n      mstore\n        /* \"contract/wtf/create2.sol\":1236:1279  keccak256(abi.encodePacked(token0, token1)) */\n      dup1\n      mload\n      swap1\n      0x20\n      add\n      keccak256\n        /* \"contract/wtf/create2.sol\":1221:1279  bytes32 salt = keccak256(abi.encodePacked(token0, token1)) */\n      swap1\n      pop\n        /* \"contract/wtf/create2.sol\":1326:1335  Pair pair */\n      0x00\n        /* \"contract/wtf/create2.sol\":1353:1357  salt */\n      dup2\n        /* \"contract/wtf/create2.sol\":1338:1360  new Pair{salt: salt}() */\n      mload(0x40)\n      tag_36\n      swap1\n      tag_37\n      jump\t// in\n    tag_36:\n      dup2\n      swap1\n      mload(0x40)\n      dup1\n      swap2\n      sub\n      swap1\n      0x00\n      create2\n      swap1\n      pop\n      dup1\n      iszero\n      dup1\n      iszero\n      tag_38\n      jumpi\n      returndatasize\n      0x00\n      dup1\n      returndatacopy\n      revert(0x00, returndatasize)\n    tag_38:\n      pop\n        /* \"contract/wtf/create2.sol\":1326:1360  Pair pair = new Pair{salt: salt}() */\n      swap1\n      pop\n        /* \"contract/wtf/create2.sol\":1416:1420  pair */\n      dup1\n        /* \"contract/wtf/create2.sol\":1416:1431  pair.initialize */\n      0xffffffffffffffffffffffffffffffffffffffff\n      and\n      0x485cc955\n        /* \"contract/wtf/create2.sol\":1432:1438  tokenA */\n      dup9\n        /* \"contract/wtf/create2.sol\":1440:1446  tokenB */\n      dup9\n        /* \"contract/wtf/create2.sol\":1416:1447  pair.initialize(tokenA, tokenB) */\n      mload(0x40)\n      dup4\n      0xffffffff\n      and\n      0xe0\n      shl\n      dup2\n      mstore\n      0x04\n      add\n      tag_39\n      swap3\n      swap2\n      swap1\n      tag_40\n      jump\t// in\n    tag_39:\n      0x00\n      mload(0x40)\n      dup1\n      dup4\n      sub\n      dup2\n      0x00\n      dup8\n      dup1\n      extcodesize\n      iszero\n      dup1\n      iszero\n      tag_41\n      jumpi\n      0x00\n      dup1\n      revert\n    tag_41:\n      pop\n      gas\n      call\n      iszero\n      dup1\n      iszero\n      tag_43\n      jumpi\n      returndatasize\n      0x00\n      dup1\n      returndatacopy\n      revert(0x00, returndatasize)\n    tag_43:\n      pop\n      pop\n      pop\n      pop\n        /* \"contract/wtf/create2.sol\":1503:1507  pair */\n      dup1\n        /* \"contract/wtf/create2.sol\":1484:1508  pairAddr = address(pair) */\n      swap5\n      pop\n        /* \"contract/wtf/create2.sol\":1518:1526  allPairs */\n      0x01\n        /* \"contract/wtf/create2.sol\":1532:1540  pairAddr */\n      dup6\n        /* \"contract/wtf/create2.sol\":1518:1541  allPairs.push(pairAddr) */\n      swap1\n      dup1\n      0x01\n      dup2\n      sload\n      add\n      dup1\n      dup3\n      sstore\n      dup1\n      swap2\n      pop\n      pop\n      0x01\n      swap1\n      sub\n      swap1\n      0x00\n      mstore\n      keccak256(0x00, 0x20)\n      add\n      0x00\n      swap1\n      swap2\n      swap1\n      swap2\n      swap1\n      swap2\n      0x0100\n      exp\n      dup2\n      sload\n      dup2\n      0xffffffffffffffffffffffffffffffffffffffff\n      mul\n      not\n      and\n      swap1\n      dup4\n      0xffffffffffffffffffffffffffffffffffffffff\n      and\n      mul\n      or\n      swap1\n      sstore\n      pop\n        /* \"contract/wtf/create2.sol\":1577:1585  pairAddr */\n      dup5\n        /* \"contract/wtf/create2.sol\":1551:1558  getPair */\n      0x00\n        /* \"contract/wtf/create2.sol\":1551:1566  getPair[tokenA] */\n      dup1\n        /* \"contract/wtf/create2.sol\":1559:1565  tokenA */\n      dup10\n        /* \"contract/wtf/create2.sol\":1551:1566  getPair[tokenA] */\n      0xffffffffffffffffffffffffffffffffffffffff\n      and\n      0xffffffffffffffffffffffffffffffffffffffff\n      and\n      dup2\n      mstore\n      0x20\n      add\n      swap1\n      dup2\n      mstore\n      0x20\n      add\n      0x00\n      keccak256\n        /* \"contract/wtf/create2.sol\":1551:1574  getPair[tokenA][tokenB] */\n      0x00\n        /* \"contract/wtf/create2.sol\":1567:1573  tokenB */\n      dup9\n        /* \"contract/wtf/create2.sol\":1551:1574  getPair[tokenA][tokenB] */\n      0xffffffffffffffffffffffffffffffffffffffff\n      and\n      0xffffffffffffffffffffffffffffffffffffffff\n      and\n      dup2\n      mstore\n      0x20\n      add\n      swap1\n      dup2\n      mstore\n      0x20\n      add\n      0x00\n      keccak256\n      0x00\n        /* \"contract/wtf/create2.sol\":1551:1585  getPair[tokenA][tokenB] = pairAddr */\n      0x0100\n      exp\n      dup2\n      sload\n      dup2\n      0xffffffffffffffffffffffffffffffffffffffff\n      mul\n      not\n      and\n      swap1\n      dup4\n      0xffffffffffffffffffffffffffffffffffffffff\n      and\n      mul\n      or\n      swap1\n      sstore\n      pop\n        /* \"contract/wtf/create2.sol\":1621:1629  pairAddr */\n      dup5\n        /* \"contract/wtf/create2.sol\":1595:1602  getPair */\n      0x00\n        /* \"contract/wtf/create2.sol\":1595:1610  getPair[tokenB] */\n      dup1\n        /* \"contract/wtf/create2.sol\":1603:1609  tokenB */\n      dup9\n        /* \"contract/wtf/create2.sol\":1595:1610  getPair[tokenB] */\n      0xffffffffffffffffffffffffffffffffffffffff\n      and\n      0xffffffffffffffffffffffffffffffffffffffff\n      and\n      dup2\n      mstore\n      0x20\n      add\n      swap1\n      dup2\n      mstore\n      0x20\n      add\n      0x00\n      keccak256\n        /* \"contract/wtf/create2.sol\":1595:1618  getPair[tokenB][tokenA] */\n      0x00\n        /* \"contract/wtf/create2.sol\":1611:1617  tokenA */\n      dup10\n        /* \"contract/wtf/create2.sol\":1595:1618  getPair[tokenB][tokenA] */\n      0xffffffffffffffffffffffffffffffffffffffff\n      and\n      0xffffffffffffffffffffffffffffffffffffffff\n      and\n      dup2\n      mstore\n      0x20\n      add\n      swap1\n      dup2\n      mstore\n      0x20\n      add\n      0x00\n      keccak256\n      0x00\n        /* \"contract/wtf/create2.sol\":1595:1629  getPair[tokenB][tokenA] = pairAddr */\n      0x0100\n      exp\n      dup2\n      sload\n      dup2\n      0xffffffffffffffffffffffffffffffffffffffff\n      mul\n      not\n      and\n      swap1\n      dup4\n      0xffffffffffffffffffffffffffffffffffffffff\n      and\n      mul\n      or\n      swap1\n      sstore\n      pop\n        /* \"contract/wtf/create2.sol\":904:1636  {... */\n      pop\n      pop\n      pop\n      pop\n        /* \"contract/wtf/create2.sol\":795:1636  function createPair2(address tokenA, address tokenB)... */\n      swap3\n      swap2\n      pop\n      pop\n      jump\t// out\n        /* \"contract/wtf/create2.sol\":1728:2717  function calculateAddr(address tokenA, address tokenB)... */\n    tag_20:\n        /* \"contract/wtf/create2.sol\":1828:1852  address predictedAddress */\n      0x00\n        /* \"contract/wtf/create2.sol\":1886:1892  tokenB */\n      dup2\n        /* \"contract/wtf/create2.sol\":1876:1892  tokenA != tokenB */\n      0xffffffffffffffffffffffffffffffffffffffff\n      and\n        /* \"contract/wtf/create2.sol\":1876:1882  tokenA */\n      dup4\n        /* \"contract/wtf/create2.sol\":1876:1892  tokenA != tokenB */\n      0xffffffffffffffffffffffffffffffffffffffff\n      and\n      sub\n        /* \"contract/wtf/create2.sol\":1868:1916  require(tokenA != tokenB, \"IDENTICAL_ADDRESSES\") */\n      tag_46\n      jumpi\n      mload(0x40)\n      0x08c379a000000000000000000000000000000000000000000000000000000000\n      dup2\n      mstore\n      0x04\n      add\n      tag_47\n      swap1\n      tag_31\n      jump\t// in\n    tag_47:\n      mload(0x40)\n      dup1\n      swap2\n      sub\n      swap1\n      revert\n    tag_46:\n        /* \"contract/wtf/create2.sol\":2024:2038  address token0 */\n      0x00\n        /* \"contract/wtf/create2.sol\":2040:2054  address token1 */\n      dup1\n        /* \"contract/wtf/create2.sol\":2067:2073  tokenB */\n      dup4\n        /* \"contract/wtf/create2.sol\":2058:2073  tokenA < tokenB */\n      0xffffffffffffffffffffffffffffffffffffffff\n      and\n        /* \"contract/wtf/create2.sol\":2058:2064  tokenA */\n      dup6\n        /* \"contract/wtf/create2.sol\":2058:2073  tokenA < tokenB */\n      0xffffffffffffffffffffffffffffffffffffffff\n      and\n      lt\n        /* \"contract/wtf/create2.sol\":2058:2135  tokenA < tokenB... */\n      tag_48\n      jumpi\n        /* \"contract/wtf/create2.sol\":2120:2126  tokenB */\n      dup4\n        /* \"contract/wtf/create2.sol\":2128:2134  tokenA */\n      dup6\n        /* \"contract/wtf/create2.sol\":2058:2135  tokenA < tokenB... */\n      jump(tag_49)\n    tag_48:\n        /* \"contract/wtf/create2.sol\":2089:2095  tokenA */\n      dup5\n        /* \"contract/wtf/create2.sol\":2097:2103  tokenB */\n      dup5\n        /* \"contract/wtf/create2.sol\":2058:2135  tokenA < tokenB... */\n    tag_49:\n        /* \"contract/wtf/create2.sol\":2023:2135  (address token0, address token1) = tokenA < tokenB... */\n      swap2\n      pop\n      swap2\n      pop\n        /* \"contract/wtf/create2.sol\":2181:2193  bytes32 salt */\n      0x00\n        /* \"contract/wtf/create2.sol\":2223:2229  token0 */\n      dup3\n        /* \"contract/wtf/create2.sol\":2231:2237  token1 */\n      dup3\n        /* \"contract/wtf/create2.sol\":2206:2238  abi.encodePacked(token0, token1) */\n      add(0x20, mload(0x40))\n      tag_50\n      swap3\n      swap2\n      swap1\n      tag_35\n      jump\t// in\n    tag_50:\n      mload(0x40)\n      0x20\n      dup2\n      dup4\n      sub\n      sub\n      dup2\n      mstore\n      swap1\n      0x40\n      mstore\n        /* \"contract/wtf/create2.sol\":2196:2239  keccak256(abi.encodePacked(token0, token1)) */\n      dup1\n      mload\n      swap1\n      0x20\n      add\n      keccak256\n        /* \"contract/wtf/create2.sol\":2181:2239  bytes32 salt = keccak256(abi.encodePacked(token0, token1)) */\n      swap1\n      pop\n        /* \"contract/wtf/create2.sol\":2474:2478  0xff */\n      0xff\n        /* \"contract/wtf/create2.sol\":2467:2479  bytes1(0xff) */\n      0xf8\n      shl\n        /* \"contract/wtf/create2.sol\":2517:2521  this */\n      address\n        /* \"contract/wtf/create2.sol\":2552:2556  salt */\n      dup3\n        /* \"contract/wtf/create2.sol\":2596:2619  type(Pair).creationCode */\n      mload(0x40)\n      dup1\n      0x20\n      add\n      tag_51\n      swap1\n      tag_37\n      jump\t// in\n    tag_51:\n      0x20\n      dup3\n      add\n      dup2\n      sub\n      dup3\n      mstore\n      not(0x1f)\n      0x1f\n      dup3\n      add\n      and\n      0x40\n      mstore\n      pop\n        /* \"contract/wtf/create2.sol\":2586:2620  keccak256(type(Pair).creationCode) */\n      dup1\n      mload\n      swap1\n      0x20\n      add\n      keccak256\n        /* \"contract/wtf/create2.sol\":2421:2646  abi.encodePacked(... */\n      add(0x20, mload(0x40))\n      tag_52\n      swap5\n      swap4\n      swap3\n      swap2\n      swap1\n      tag_53\n      jump\t// in\n    tag_52:\n      mload(0x40)\n      0x20\n      dup2\n      dup4\n      sub\n      sub\n      dup2\n      mstore\n      swap1\n      0x40\n      mstore\n        /* \"contract/wtf/create2.sol\":2386:2668  keccak256(... */\n      dup1\n      mload\n      swap1\n      0x20\n      add\n      keccak256\n        /* \"contract/wtf/create2.sol\":2357:2686  uint256(... */\n      0x00\n      shr\n        /* \"contract/wtf/create2.sol\":2292:2710  predictedAddress = address(... */\n      swap4\n      pop\n        /* \"contract/wtf/create2.sol\":1858:2717  {... */\n      pop\n      pop\n      pop\n        /* \"contract/wtf/create2.sol\":1728:2717  function calculateAddr(address tokenA, address tokenB)... */\n      swap3\n      swap2\n      pop\n      pop\n      jump\t// out\n        /* \"contract/wtf/create2.sol\":628:690  mapping(address => mapping(address => address)) public getPair */\n    tag_24:\n      mstore(0x20, 0x00)\n      dup2\n      0x00\n      mstore\n      mstore(0x20, keccak256(0x00, 0x40))\n      dup1\n      0x00\n      mstore\n      keccak256(0x00, 0x40)\n      0x00\n      swap2\n      pop\n      swap2\n      pop\n      swap1\n      sload\n      swap1\n      0x0100\n      exp\n      swap1\n      div\n      0xffffffffffffffffffffffffffffffffffffffff\n      and\n      dup2\n      jump\t// out\n    tag_37:\n      dataSize(sub_0)\n      dup1\n      dataOffset(sub_0)\n      dup4\n      codecopy\n      add\n      swap1\n      jump\t// out\n        /* \"#utility.yul\":88:205   */\n    tag_55:\n        /* \"#utility.yul\":197:198   */\n      0x00\n        /* \"#utility.yul\":194:195   */\n      dup1\n        /* \"#utility.yul\":187:199   */\n      revert\n        /* \"#utility.yul\":334:411   */\n    tag_57:\n        /* \"#utility.yul\":371:378   */\n      0x00\n        /* \"#utility.yul\":400:405   */\n      dup2\n        /* \"#utility.yul\":389:405   */\n      swap1\n      pop\n        /* \"#utility.yul\":334:411   */\n      swap2\n      swap1\n      pop\n      jump\t// out\n        /* \"#utility.yul\":417:539   */\n    tag_58:\n        /* \"#utility.yul\":490:514   */\n      tag_84\n        /* \"#utility.yul\":508:513   */\n      dup2\n        /* \"#utility.yul\":490:514   */\n      tag_57\n      jump\t// in\n    tag_84:\n        /* \"#utility.yul\":483:488   */\n      dup2\n        /* \"#utility.yul\":480:515   */\n      eq\n        /* \"#utility.yul\":470:533   */\n      tag_85\n      jumpi\n        /* \"#utility.yul\":529:530   */\n      0x00\n        /* \"#utility.yul\":526:527   */\n      dup1\n        /* \"#utility.yul\":519:531   */\n      revert\n        /* \"#utility.yul\":470:533   */\n    tag_85:\n        /* \"#utility.yul\":417:539   */\n      pop\n      jump\t// out\n        /* \"#utility.yul\":545:684   */\n    tag_59:\n        /* \"#utility.yul\":591:596   */\n      0x00\n        /* \"#utility.yul\":629:635   */\n      dup2\n        /* \"#utility.yul\":616:636   */\n      calldataload\n        /* \"#utility.yul\":607:636   */\n      swap1\n      pop\n        /* \"#utility.yul\":645:678   */\n      tag_87\n        /* \"#utility.yul\":672:677   */\n      dup2\n        /* \"#utility.yul\":645:678   */\n      tag_58\n      jump\t// in\n    tag_87:\n        /* \"#utility.yul\":545:684   */\n      swap3\n      swap2\n      pop\n      pop\n      jump\t// out\n        /* \"#utility.yul\":690:1019   */\n    tag_9:\n        /* \"#utility.yul\":749:755   */\n      0x00\n        /* \"#utility.yul\":798:800   */\n      0x20\n        /* \"#utility.yul\":786:795   */\n      dup3\n        /* \"#utility.yul\":777:784   */\n      dup5\n        /* \"#utility.yul\":773:796   */\n      sub\n        /* \"#utility.yul\":769:801   */\n      slt\n        /* \"#utility.yul\":766:885   */\n      iszero\n      tag_89\n      jumpi\n        /* \"#utility.yul\":804:883   */\n      tag_90\n      tag_55\n      jump\t// in\n    tag_90:\n        /* \"#utility.yul\":766:885   */\n    tag_89:\n        /* \"#utility.yul\":924:925   */\n      0x00\n        /* \"#utility.yul\":949:1002   */\n      tag_91\n        /* \"#utility.yul\":994:1001   */\n      dup5\n        /* \"#utility.yul\":985:991   */\n      dup3\n        /* \"#utility.yul\":974:983   */\n      dup6\n        /* \"#utility.yul\":970:992   */\n      add\n        /* \"#utility.yul\":949:1002   */\n      tag_59\n      jump\t// in\n    tag_91:\n        /* \"#utility.yul\":939:1002   */\n      swap2\n      pop\n        /* \"#utility.yul\":895:1012   */\n      pop\n        /* \"#utility.yul\":690:1019   */\n      swap3\n      swap2\n      pop\n      pop\n      jump\t// out\n        /* \"#utility.yul\":1025:1151   */\n    tag_60:\n        /* \"#utility.yul\":1062:1069   */\n      0x00\n        /* \"#utility.yul\":1102:1144   */\n      0xffffffffffffffffffffffffffffffffffffffff\n        /* \"#utility.yul\":1095:1100   */\n      dup3\n        /* \"#utility.yul\":1091:1145   */\n      and\n        /* \"#utility.yul\":1080:1145   */\n      swap1\n      pop\n        /* \"#utility.yul\":1025:1151   */\n      swap2\n      swap1\n      pop\n      jump\t// out\n        /* \"#utility.yul\":1157:1253   */\n    tag_61:\n        /* \"#utility.yul\":1194:1201   */\n      0x00\n        /* \"#utility.yul\":1223:1247   */\n      tag_94\n        /* \"#utility.yul\":1241:1246   */\n      dup3\n        /* \"#utility.yul\":1223:1247   */\n      tag_60\n      jump\t// in\n    tag_94:\n        /* \"#utility.yul\":1212:1247   */\n      swap1\n      pop\n        /* \"#utility.yul\":1157:1253   */\n      swap2\n      swap1\n      pop\n      jump\t// out\n        /* \"#utility.yul\":1259:1377   */\n    tag_62:\n        /* \"#utility.yul\":1346:1370   */\n      tag_96\n        /* \"#utility.yul\":1364:1369   */\n      dup2\n        /* \"#utility.yul\":1346:1370   */\n      tag_61\n      jump\t// in\n    tag_96:\n        /* \"#utility.yul\":1341:1344   */\n      dup3\n        /* \"#utility.yul\":1334:1371   */\n      mstore\n        /* \"#utility.yul\":1259:1377   */\n      pop\n      pop\n      jump\t// out\n        /* \"#utility.yul\":1383:1605   */\n    tag_12:\n        /* \"#utility.yul\":1476:1480   */\n      0x00\n        /* \"#utility.yul\":1514:1516   */\n      0x20\n        /* \"#utility.yul\":1503:1512   */\n      dup3\n        /* \"#utility.yul\":1499:1517   */\n      add\n        /* \"#utility.yul\":1491:1517   */\n      swap1\n      pop\n        /* \"#utility.yul\":1527:1598   */\n      tag_98\n        /* \"#utility.yul\":1595:1596   */\n      0x00\n        /* \"#utility.yul\":1584:1593   */\n      dup4\n        /* \"#utility.yul\":1580:1597   */\n      add\n        /* \"#utility.yul\":1571:1577   */\n      dup5\n        /* \"#utility.yul\":1527:1598   */\n      tag_62\n      jump\t// in\n    tag_98:\n        /* \"#utility.yul\":1383:1605   */\n      swap3\n      swap2\n      pop\n      pop\n      jump\t// out\n        /* \"#utility.yul\":1611:1733   */\n    tag_63:\n        /* \"#utility.yul\":1684:1708   */\n      tag_100\n        /* \"#utility.yul\":1702:1707   */\n      dup2\n        /* \"#utility.yul\":1684:1708   */\n      tag_61\n      jump\t// in\n    tag_100:\n        /* \"#utility.yul\":1677:1682   */\n      dup2\n        /* \"#utility.yul\":1674:1709   */\n      eq\n        /* \"#utility.yul\":1664:1727   */\n      tag_101\n      jumpi\n        /* \"#utility.yul\":1723:1724   */\n      0x00\n        /* \"#utility.yul\":1720:1721   */\n      dup1\n        /* \"#utility.yul\":1713:1725   */\n      revert\n        /* \"#utility.yul\":1664:1727   */\n    tag_101:\n        /* \"#utility.yul\":1611:1733   */\n      pop\n      jump\t// out\n        /* \"#utility.yul\":1739:1878   */\n    tag_64:\n        /* \"#utility.yul\":1785:1790   */\n      0x00\n        /* \"#utility.yul\":1823:1829   */\n      dup2\n        /* \"#utility.yul\":1810:1830   */\n      calldataload\n        /* \"#utility.yul\":1801:1830   */\n      swap1\n      pop\n        /* \"#utility.yul\":1839:1872   */\n      tag_103\n        /* \"#utility.yul\":1866:1871   */\n      dup2\n        /* \"#utility.yul\":1839:1872   */\n      tag_63\n      jump\t// in\n    tag_103:\n        /* \"#utility.yul\":1739:1878   */\n      swap3\n      swap2\n      pop\n      pop\n      jump\t// out\n        /* \"#utility.yul\":1884:2358   */\n    tag_15:\n        /* \"#utility.yul\":1952:1958   */\n      0x00\n        /* \"#utility.yul\":1960:1966   */\n      dup1\n        /* \"#utility.yul\":2009:2011   */\n      0x40\n        /* \"#utility.yul\":1997:2006   */\n      dup4\n        /* \"#utility.yul\":1988:1995   */\n      dup6\n        /* \"#utility.yul\":1984:2007   */\n      sub\n        /* \"#utility.yul\":1980:2012   */\n      slt\n        /* \"#utility.yul\":1977:2096   */\n      iszero\n      tag_105\n      jumpi\n        /* \"#utility.yul\":2015:2094   */\n      tag_106\n      tag_55\n      jump\t// in\n    tag_106:\n        /* \"#utility.yul\":1977:2096   */\n    tag_105:\n        /* \"#utility.yul\":2135:2136   */\n      0x00\n        /* \"#utility.yul\":2160:2213   */\n      tag_107\n        /* \"#utility.yul\":2205:2212   */\n      dup6\n        /* \"#utility.yul\":2196:2202   */\n      dup3\n        /* \"#utility.yul\":2185:2194   */\n      dup7\n        /* \"#utility.yul\":2181:2203   */\n      add\n        /* \"#utility.yul\":2160:2213   */\n      tag_64\n      jump\t// in\n    tag_107:\n        /* \"#utility.yul\":2150:2213   */\n      swap3\n      pop\n        /* \"#utility.yul\":2106:2223   */\n      pop\n        /* \"#utility.yul\":2262:2264   */\n      0x20\n        /* \"#utility.yul\":2288:2341   */\n      tag_108\n        /* \"#utility.yul\":2333:2340   */\n      dup6\n        /* \"#utility.yul\":2324:2330   */\n      dup3\n        /* \"#utility.yul\":2313:2322   */\n      dup7\n        /* \"#utility.yul\":2309:2331   */\n      add\n        /* \"#utility.yul\":2288:2341   */\n      tag_64\n      jump\t// in\n    tag_108:\n        /* \"#utility.yul\":2278:2341   */\n      swap2\n      pop\n        /* \"#utility.yul\":2233:2351   */\n      pop\n        /* \"#utility.yul\":1884:2358   */\n      swap3\n      pop\n      swap3\n      swap1\n      pop\n      jump\t// out\n        /* \"#utility.yul\":2364:2533   */\n    tag_65:\n        /* \"#utility.yul\":2448:2459   */\n      0x00\n        /* \"#utility.yul\":2482:2488   */\n      dup3\n        /* \"#utility.yul\":2477:2480   */\n      dup3\n        /* \"#utility.yul\":2470:2489   */\n      mstore\n        /* \"#utility.yul\":2522:2526   */\n      0x20\n        /* \"#utility.yul\":2517:2520   */\n      dup3\n        /* \"#utility.yul\":2513:2527   */\n      add\n        /* \"#utility.yul\":2498:2527   */\n      swap1\n      pop\n        /* \"#utility.yul\":2364:2533   */\n      swap3\n      swap2\n      pop\n      pop\n      jump\t// out\n        /* \"#utility.yul\":2539:2708   */\n    tag_66:\n        /* \"#utility.yul\":2679:2700   */\n      0x4944454e544943414c5f41444452455353455300000000000000000000000000\n        /* \"#utility.yul\":2675:2676   */\n      0x00\n        /* \"#utility.yul\":2667:2673   */\n      dup3\n        /* \"#utility.yul\":2663:2677   */\n      add\n        /* \"#utility.yul\":2656:2701   */\n      mstore\n        /* \"#utility.yul\":2539:2708   */\n      pop\n      jump\t// out\n        /* \"#utility.yul\":2714:3080   */\n    tag_67:\n        /* \"#utility.yul\":2856:2859   */\n      0x00\n        /* \"#utility.yul\":2877:2944   */\n      tag_112\n        /* \"#utility.yul\":2941:2943   */\n      0x13\n        /* \"#utility.yul\":2936:2939   */\n      dup4\n        /* \"#utility.yul\":2877:2944   */\n      tag_65\n      jump\t// in\n    tag_112:\n        /* \"#utility.yul\":2870:2944   */\n      swap2\n      pop\n        /* \"#utility.yul\":2953:3046   */\n      tag_113\n        /* \"#utility.yul\":3042:3045   */\n      dup3\n        /* \"#utility.yul\":2953:3046   */\n      tag_66\n      jump\t// in\n    tag_113:\n        /* \"#utility.yul\":3071:3073   */\n      0x20\n        /* \"#utility.yul\":3066:3069   */\n      dup3\n        /* \"#utility.yul\":3062:3074   */\n      add\n        /* \"#utility.yul\":3055:3074   */\n      swap1\n      pop\n        /* \"#utility.yul\":2714:3080   */\n      swap2\n      swap1\n      pop\n      jump\t// out\n        /* \"#utility.yul\":3086:3505   */\n    tag_31:\n        /* \"#utility.yul\":3252:3256   */\n      0x00\n        /* \"#utility.yul\":3290:3292   */\n      0x20\n        /* \"#utility.yul\":3279:3288   */\n      dup3\n        /* \"#utility.yul\":3275:3293   */\n      add\n        /* \"#utility.yul\":3267:3293   */\n      swap1\n      pop\n        /* \"#utility.yul\":3339:3348   */\n      dup2\n        /* \"#utility.yul\":3333:3337   */\n      dup2\n        /* \"#utility.yul\":3329:3349   */\n      sub\n        /* \"#utility.yul\":3325:3326   */\n      0x00\n        /* \"#utility.yul\":3314:3323   */\n      dup4\n        /* \"#utility.yul\":3310:3327   */\n      add\n        /* \"#utility.yul\":3303:3350   */\n      mstore\n        /* \"#utility.yul\":3367:3498   */\n      tag_115\n        /* \"#utility.yul\":3493:3497   */\n      dup2\n        /* \"#utility.yul\":3367:3498   */\n      tag_67\n      jump\t// in\n    tag_115:\n        /* \"#utility.yul\":3359:3498   */\n      swap1\n      pop\n        /* \"#utility.yul\":3086:3505   */\n      swap2\n      swap1\n      pop\n      jump\t// out\n        /* \"#utility.yul\":3511:3605   */\n    tag_68:\n        /* \"#utility.yul\":3544:3552   */\n      0x00\n        /* \"#utility.yul\":3592:3597   */\n      dup2\n        /* \"#utility.yul\":3588:3590   */\n      0x60\n        /* \"#utility.yul\":3584:3598   */\n      shl\n        /* \"#utility.yul\":3563:3598   */\n      swap1\n      pop\n        /* \"#utility.yul\":3511:3605   */\n      swap2\n      swap1\n      pop\n      jump\t// out\n        /* \"#utility.yul\":3611:3705   */\n    tag_69:\n        /* \"#utility.yul\":3650:3657   */\n      0x00\n        /* \"#utility.yul\":3679:3699   */\n      tag_118\n        /* \"#utility.yul\":3693:3698   */\n      dup3\n        /* \"#utility.yul\":3679:3699   */\n      tag_68\n      jump\t// in\n    tag_118:\n        /* \"#utility.yul\":3668:3699   */\n      swap1\n      pop\n        /* \"#utility.yul\":3611:3705   */\n      swap2\n      swap1\n      pop\n      jump\t// out\n        /* \"#utility.yul\":3711:3811   */\n    tag_70:\n        /* \"#utility.yul\":3750:3757   */\n      0x00\n        /* \"#utility.yul\":3779:3805   */\n      tag_120\n        /* \"#utility.yul\":3799:3804   */\n      dup3\n        /* \"#utility.yul\":3779:3805   */\n      tag_69\n      jump\t// in\n    tag_120:\n        /* \"#utility.yul\":3768:3805   */\n      swap1\n      pop\n        /* \"#utility.yul\":3711:3811   */\n      swap2\n      swap1\n      pop\n      jump\t// out\n        /* \"#utility.yul\":3817:3974   */\n    tag_71:\n        /* \"#utility.yul\":3922:3967   */\n      tag_122\n        /* \"#utility.yul\":3942:3966   */\n      tag_123\n        /* \"#utility.yul\":3960:3965   */\n      dup3\n        /* \"#utility.yul\":3942:3966   */\n      tag_61\n      jump\t// in\n    tag_123:\n        /* \"#utility.yul\":3922:3967   */\n      tag_70\n      jump\t// in\n    tag_122:\n        /* \"#utility.yul\":3917:3920   */\n      dup3\n        /* \"#utility.yul\":3910:3968   */\n      mstore\n        /* \"#utility.yul\":3817:3974   */\n      pop\n      pop\n      jump\t// out\n        /* \"#utility.yul\":3980:4377   */\n    tag_35:\n        /* \"#utility.yul\":4120:4123   */\n      0x00\n        /* \"#utility.yul\":4135:4210   */\n      tag_125\n        /* \"#utility.yul\":4206:4209   */\n      dup3\n        /* \"#utility.yul\":4197:4203   */\n      dup6\n        /* \"#utility.yul\":4135:4210   */\n      tag_71\n      jump\t// in\n    tag_125:\n        /* \"#utility.yul\":4235:4237   */\n      0x14\n        /* \"#utility.yul\":4230:4233   */\n      dup3\n        /* \"#utility.yul\":4226:4238   */\n      add\n        /* \"#utility.yul\":4219:4238   */\n      swap2\n      pop\n        /* \"#utility.yul\":4248:4323   */\n      tag_126\n        /* \"#utility.yul\":4319:4322   */\n      dup3\n        /* \"#utility.yul\":4310:4316   */\n      dup5\n        /* \"#utility.yul\":4248:4323   */\n      tag_71\n      jump\t// in\n    tag_126:\n        /* \"#utility.yul\":4348:4350   */\n      0x14\n        /* \"#utility.yul\":4343:4346   */\n      dup3\n        /* \"#utility.yul\":4339:4351   */\n      add\n        /* \"#utility.yul\":4332:4351   */\n      swap2\n      pop\n        /* \"#utility.yul\":4368:4371   */\n      dup2\n        /* \"#utility.yul\":4361:4371   */\n      swap1\n      pop\n        /* \"#utility.yul\":3980:4377   */\n      swap4\n      swap3\n      pop\n      pop\n      pop\n      jump\t// out\n        /* \"#utility.yul\":4383:4715   */\n    tag_40:\n        /* \"#utility.yul\":4504:4508   */\n      0x00\n        /* \"#utility.yul\":4542:4544   */\n      0x40\n        /* \"#utility.yul\":4531:4540   */\n      dup3\n        /* \"#utility.yul\":4527:4545   */\n      add\n        /* \"#utility.yul\":4519:4545   */\n      swap1\n      pop\n        /* \"#utility.yul\":4555:4626   */\n      tag_128\n        /* \"#utility.yul\":4623:4624   */\n      0x00\n        /* \"#utility.yul\":4612:4621   */\n      dup4\n        /* \"#utility.yul\":4608:4625   */\n      add\n        /* \"#utility.yul\":4599:4605   */\n      dup6\n        /* \"#utility.yul\":4555:4626   */\n      tag_62\n      jump\t// in\n    tag_128:\n        /* \"#utility.yul\":4636:4708   */\n      tag_129\n        /* \"#utility.yul\":4704:4706   */\n      0x20\n        /* \"#utility.yul\":4693:4702   */\n      dup4\n        /* \"#utility.yul\":4689:4707   */\n      add\n        /* \"#utility.yul\":4680:4686   */\n      dup5\n        /* \"#utility.yul\":4636:4708   */\n      tag_62\n      jump\t// in\n    tag_129:\n        /* \"#utility.yul\":4383:4715   */\n      swap4\n      swap3\n      pop\n      pop\n      pop\n      jump\t// out\n        /* \"#utility.yul\":4721:4870   */\n    tag_72:\n        /* \"#utility.yul\":4757:4764   */\n      0x00\n        /* \"#utility.yul\":4797:4863   */\n      0xff00000000000000000000000000000000000000000000000000000000000000\n        /* \"#utility.yul\":4790:4795   */\n      dup3\n        /* \"#utility.yul\":4786:4864   */\n      and\n        /* \"#utility.yul\":4775:4864   */\n      swap1\n      pop\n        /* \"#utility.yul\":4721:4870   */\n      swap2\n      swap1\n      pop\n      jump\t// out\n        /* \"#utility.yul\":4876:4954   */\n    tag_73:\n        /* \"#utility.yul\":4914:4921   */\n      0x00\n        /* \"#utility.yul\":4943:4948   */\n      dup2\n        /* \"#utility.yul\":4932:4948   */\n      swap1\n      pop\n        /* \"#utility.yul\":4876:4954   */\n      swap2\n      swap1\n      pop\n      jump\t// out\n        /* \"#utility.yul\":4960:5113   */\n    tag_74:\n        /* \"#utility.yul\":5063:5106   */\n      tag_133\n        /* \"#utility.yul\":5082:5105   */\n      tag_134\n        /* \"#utility.yul\":5099:5104   */\n      dup3\n        /* \"#utility.yul\":5082:5105   */\n      tag_72\n      jump\t// in\n    tag_134:\n        /* \"#utility.yul\":5063:5106   */\n      tag_73\n      jump\t// in\n    tag_133:\n        /* \"#utility.yul\":5058:5061   */\n      dup3\n        /* \"#utility.yul\":5051:5107   */\n      mstore\n        /* \"#utility.yul\":4960:5113   */\n      pop\n      pop\n      jump\t// out\n        /* \"#utility.yul\":5119:5196   */\n    tag_75:\n        /* \"#utility.yul\":5156:5163   */\n      0x00\n        /* \"#utility.yul\":5185:5190   */\n      dup2\n        /* \"#utility.yul\":5174:5190   */\n      swap1\n      pop\n        /* \"#utility.yul\":5119:5196   */\n      swap2\n      swap1\n      pop\n      jump\t// out\n        /* \"#utility.yul\":5202:5281   */\n    tag_76:\n        /* \"#utility.yul\":5241:5248   */\n      0x00\n        /* \"#utility.yul\":5270:5275   */\n      dup2\n        /* \"#utility.yul\":5259:5275   */\n      swap1\n      pop\n        /* \"#utility.yul\":5202:5281   */\n      swap2\n      swap1\n      pop\n      jump\t// out\n        /* \"#utility.yul\":5287:5444   */\n    tag_77:\n        /* \"#utility.yul\":5392:5437   */\n      tag_138\n        /* \"#utility.yul\":5412:5436   */\n      tag_139\n        /* \"#utility.yul\":5430:5435   */\n      dup3\n        /* \"#utility.yul\":5412:5436   */\n      tag_75\n      jump\t// in\n    tag_139:\n        /* \"#utility.yul\":5392:5437   */\n      tag_76\n      jump\t// in\n    tag_138:\n        /* \"#utility.yul\":5387:5390   */\n      dup3\n        /* \"#utility.yul\":5380:5438   */\n      mstore\n        /* \"#utility.yul\":5287:5444   */\n      pop\n      pop\n      jump\t// out\n        /* \"#utility.yul\":5450:6124   */\n    tag_53:\n        /* \"#utility.yul\":5644:5647   */\n      0x00\n        /* \"#utility.yul\":5659:5732   */\n      tag_141\n        /* \"#utility.yul\":5728:5731   */\n      dup3\n        /* \"#utility.yul\":5719:5725   */\n      dup8\n        /* \"#utility.yul\":5659:5732   */\n      tag_74\n      jump\t// in\n    tag_141:\n        /* \"#utility.yul\":5757:5758   */\n      0x01\n        /* \"#utility.yul\":5752:5755   */\n      dup3\n        /* \"#utility.yul\":5748:5759   */\n      add\n        /* \"#utility.yul\":5741:5759   */\n      swap2\n      pop\n        /* \"#utility.yul\":5769:5844   */\n      tag_142\n        /* \"#utility.yul\":5840:5843   */\n      dup3\n        /* \"#utility.yul\":5831:5837   */\n      dup7\n        /* \"#utility.yul\":5769:5844   */\n      tag_71\n      jump\t// in\n    tag_142:\n        /* \"#utility.yul\":5869:5871   */\n      0x14\n        /* \"#utility.yul\":5864:5867   */\n      dup3\n        /* \"#utility.yul\":5860:5872   */\n      add\n        /* \"#utility.yul\":5853:5872   */\n      swap2\n      pop\n        /* \"#utility.yul\":5882:5957   */\n      tag_143\n        /* \"#utility.yul\":5953:5956   */\n      dup3\n        /* \"#utility.yul\":5944:5950   */\n      dup6\n        /* \"#utility.yul\":5882:5957   */\n      tag_77\n      jump\t// in\n    tag_143:\n        /* \"#utility.yul\":5982:5984   */\n      0x20\n        /* \"#utility.yul\":5977:5980   */\n      dup3\n        /* \"#utility.yul\":5973:5985   */\n      add\n        /* \"#utility.yul\":5966:5985   */\n      swap2\n      pop\n        /* \"#utility.yul\":5995:6070   */\n      tag_144\n        /* \"#utility.yul\":6066:6069   */\n      dup3\n        /* \"#utility.yul\":6057:6063   */\n      dup5\n        /* \"#utility.yul\":5995:6070   */\n      tag_77\n      jump\t// in\n    tag_144:\n        /* \"#utility.yul\":6095:6097   */\n      0x20\n        /* \"#utility.yul\":6090:6093   */\n      dup3\n        /* \"#utility.yul\":6086:6098   */\n      add\n        /* \"#utility.yul\":6079:6098   */\n      swap2\n      pop\n        /* \"#utility.yul\":6115:6118   */\n      dup2\n        /* \"#utility.yul\":6108:6118   */\n      swap1\n      pop\n        /* \"#utility.yul\":5450:6124   */\n      swap6\n      swap5\n      pop\n      pop\n      pop\n      pop\n      pop\n      jump\t// out\n    stop\n\n    sub_0: assembly {\n            /* \"contract/wtf/create2.sol\":122:598  contract Pair {... */\n          mstore(0x40, 0x80)\n            /* \"contract/wtf/create2.sol\":311:321  msg.sender */\n          caller\n            /* \"contract/wtf/create2.sol\":301:308  factory */\n          0x00\n          dup1\n            /* \"contract/wtf/create2.sol\":301:321  factory = msg.sender */\n          0x0100\n          exp\n          dup2\n          sload\n          dup2\n          0xffffffffffffffffffffffffffffffffffffffff\n          mul\n          not\n          and\n          swap1\n          dup4\n          0xffffffffffffffffffffffffffffffffffffffff\n          and\n          mul\n          or\n          swap1\n          sstore\n          pop\n            /* \"contract/wtf/create2.sol\":122:598  contract Pair {... */\n          dataSize(sub_0)\n          dup1\n          dataOffset(sub_0)\n          0x00\n          codecopy\n          0x00\n          return\n        stop\n\n        sub_0: assembly {\n                /* \"contract/wtf/create2.sol\":122:598  contract Pair {... */\n              mstore(0x40, 0x80)\n              callvalue\n              dup1\n              iszero\n              tag_1\n              jumpi\n              0x00\n              dup1\n              revert\n            tag_1:\n              pop\n              jumpi(tag_2, lt(calldatasize, 0x04))\n              shr(0xe0, calldataload(0x00))\n              dup1\n              0x0dfe1681\n              eq\n              tag_3\n              jumpi\n              dup1\n              0x485cc955\n              eq\n              tag_4\n              jumpi\n              dup1\n              0xc45a0155\n              eq\n              tag_5\n              jumpi\n              dup1\n              0xd21220a7\n              eq\n              tag_6\n              jumpi\n            tag_2:\n              0x00\n              dup1\n              revert\n                /* \"contract/wtf/create2.sol\":192:213  address public token0 */\n            tag_3:\n              tag_7\n              tag_8\n              jump\t// in\n            tag_7:\n              mload(0x40)\n              tag_9\n              swap2\n              swap1\n              tag_10\n              jump\t// in\n            tag_9:\n              mload(0x40)\n              dup1\n              swap2\n              sub\n              swap1\n              return\n                /* \"contract/wtf/create2.sol\":390:596  function initialize(address _token0, address _token1) external {... */\n            tag_4:\n              tag_11\n              0x04\n              dup1\n              calldatasize\n              sub\n              dup2\n              add\n              swap1\n              tag_12\n              swap2\n              swap1\n              tag_13\n              jump\t// in\n            tag_12:\n              tag_14\n              jump\t// in\n            tag_11:\n              stop\n                /* \"contract/wtf/create2.sol\":142:164  address public factory */\n            tag_5:\n              tag_15\n              tag_16\n              jump\t// in\n            tag_15:\n              mload(0x40)\n              tag_17\n              swap2\n              swap1\n              tag_10\n              jump\t// in\n            tag_17:\n              mload(0x40)\n              dup1\n              swap2\n              sub\n              swap1\n              return\n                /* \"contract/wtf/create2.sol\":230:251  address public token1 */\n            tag_6:\n              tag_18\n              tag_19\n              jump\t// in\n            tag_18:\n              mload(0x40)\n              tag_20\n              swap2\n              swap1\n              tag_10\n              jump\t// in\n            tag_20:\n              mload(0x40)\n              dup1\n              swap2\n              sub\n              swap1\n              return\n                /* \"contract/wtf/create2.sol\":192:213  address public token0 */\n            tag_8:\n              0x01\n              0x00\n              swap1\n              sload\n              swap1\n              0x0100\n              exp\n              swap1\n              div\n              0xffffffffffffffffffffffffffffffffffffffff\n              and\n              dup2\n              jump\t// out\n                /* \"contract/wtf/create2.sol\":390:596  function initialize(address _token0, address _token1) external {... */\n            tag_14:\n                /* \"contract/wtf/create2.sol\":485:492  factory */\n              0x00\n              dup1\n              sload\n              swap1\n              0x0100\n              exp\n              swap1\n              div\n              0xffffffffffffffffffffffffffffffffffffffff\n              and\n                /* \"contract/wtf/create2.sol\":471:492  msg.sender == factory */\n              0xffffffffffffffffffffffffffffffffffffffff\n              and\n                /* \"contract/wtf/create2.sol\":471:481  msg.sender */\n              caller\n                /* \"contract/wtf/create2.sol\":471:492  msg.sender == factory */\n              0xffffffffffffffffffffffffffffffffffffffff\n              and\n              eq\n                /* \"contract/wtf/create2.sol\":463:517  require(msg.sender == factory, \"UniswapV2: FORBIDDEN\") */\n              tag_22\n              jumpi\n              mload(0x40)\n              0x08c379a000000000000000000000000000000000000000000000000000000000\n              dup2\n              mstore\n              0x04\n              add\n              tag_23\n              swap1\n              tag_24\n              jump\t// in\n            tag_23:\n              mload(0x40)\n              dup1\n              swap2\n              sub\n              swap1\n              revert\n            tag_22:\n                /* \"contract/wtf/create2.sol\":556:563  _token0 */\n              dup2\n                /* \"contract/wtf/create2.sol\":547:553  token0 */\n              0x01\n              0x00\n                /* \"contract/wtf/create2.sol\":547:563  token0 = _token0 */\n              0x0100\n              exp\n              dup2\n              sload\n              dup2\n              0xffffffffffffffffffffffffffffffffffffffff\n              mul\n              not\n              and\n              swap1\n              dup4\n              0xffffffffffffffffffffffffffffffffffffffff\n              and\n              mul\n              or\n              swap1\n              sstore\n              pop\n                /* \"contract/wtf/create2.sol\":582:589  _token1 */\n              dup1\n                /* \"contract/wtf/create2.sol\":573:579  token1 */\n              0x02\n              0x00\n                /* \"contract/wtf/create2.sol\":573:589  token1 = _token1 */\n              0x0100\n              exp\n              dup2\n              sload\n              dup2\n              0xffffffffffffffffffffffffffffffffffffffff\n              mul\n              not\n              and\n              swap1\n              dup4\n              0xffffffffffffffffffffffffffffffffffffffff\n              and\n              mul\n              or\n              swap1\n              sstore\n              pop\n                /* \"contract/wtf/create2.sol\":390:596  function initialize(address _token0, address _token1) external {... */\n              pop\n              pop\n              jump\t// out\n                /* \"contract/wtf/create2.sol\":142:164  address public factory */\n            tag_16:\n              0x00\n              dup1\n              sload\n              swap1\n              0x0100\n              exp\n              swap1\n              div\n              0xffffffffffffffffffffffffffffffffffffffff\n              and\n              dup2\n              jump\t// out\n                /* \"contract/wtf/create2.sol\":230:251  address public token1 */\n            tag_19:\n              0x02\n              0x00\n              swap1\n              sload\n              swap1\n              0x0100\n              exp\n              swap1\n              div\n              0xffffffffffffffffffffffffffffffffffffffff\n              and\n              dup2\n              jump\t// out\n                /* \"#utility.yul\":7:133   */\n            tag_25:\n                /* \"#utility.yul\":44:51   */\n              0x00\n                /* \"#utility.yul\":84:126   */\n              0xffffffffffffffffffffffffffffffffffffffff\n                /* \"#utility.yul\":77:82   */\n              dup3\n                /* \"#utility.yul\":73:127   */\n              and\n                /* \"#utility.yul\":62:127   */\n              swap1\n              pop\n                /* \"#utility.yul\":7:133   */\n              swap2\n              swap1\n              pop\n              jump\t// out\n                /* \"#utility.yul\":139:235   */\n            tag_26:\n                /* \"#utility.yul\":176:183   */\n              0x00\n                /* \"#utility.yul\":205:229   */\n              tag_39\n                /* \"#utility.yul\":223:228   */\n              dup3\n                /* \"#utility.yul\":205:229   */\n              tag_25\n              jump\t// in\n            tag_39:\n                /* \"#utility.yul\":194:229   */\n              swap1\n              pop\n                /* \"#utility.yul\":139:235   */\n              swap2\n              swap1\n              pop\n              jump\t// out\n                /* \"#utility.yul\":241:359   */\n            tag_27:\n                /* \"#utility.yul\":328:352   */\n              tag_41\n                /* \"#utility.yul\":346:351   */\n              dup2\n                /* \"#utility.yul\":328:352   */\n              tag_26\n              jump\t// in\n            tag_41:\n                /* \"#utility.yul\":323:326   */\n              dup3\n                /* \"#utility.yul\":316:353   */\n              mstore\n                /* \"#utility.yul\":241:359   */\n              pop\n              pop\n              jump\t// out\n                /* \"#utility.yul\":365:587   */\n            tag_10:\n                /* \"#utility.yul\":458:462   */\n              0x00\n                /* \"#utility.yul\":496:498   */\n              0x20\n                /* \"#utility.yul\":485:494   */\n              dup3\n                /* \"#utility.yul\":481:499   */\n              add\n                /* \"#utility.yul\":473:499   */\n              swap1\n              pop\n                /* \"#utility.yul\":509:580   */\n              tag_43\n                /* \"#utility.yul\":577:578   */\n              0x00\n                /* \"#utility.yul\":566:575   */\n              dup4\n                /* \"#utility.yul\":562:579   */\n              add\n                /* \"#utility.yul\":553:559   */\n              dup5\n                /* \"#utility.yul\":509:580   */\n              tag_27\n              jump\t// in\n            tag_43:\n                /* \"#utility.yul\":365:587   */\n              swap3\n              swap2\n              pop\n              pop\n              jump\t// out\n                /* \"#utility.yul\":674:791   */\n            tag_29:\n                /* \"#utility.yul\":783:784   */\n              0x00\n                /* \"#utility.yul\":780:781   */\n              dup1\n                /* \"#utility.yul\":773:785   */\n              revert\n                /* \"#utility.yul\":920:1042   */\n            tag_31:\n                /* \"#utility.yul\":993:1017   */\n              tag_48\n                /* \"#utility.yul\":1011:1016   */\n              dup2\n                /* \"#utility.yul\":993:1017   */\n              tag_26\n              jump\t// in\n            tag_48:\n                /* \"#utility.yul\":986:991   */\n              dup2\n                /* \"#utility.yul\":983:1018   */\n              eq\n                /* \"#utility.yul\":973:1036   */\n              tag_49\n              jumpi\n                /* \"#utility.yul\":1032:1033   */\n              0x00\n                /* \"#utility.yul\":1029:1030   */\n              dup1\n                /* \"#utility.yul\":1022:1034   */\n              revert\n                /* \"#utility.yul\":973:1036   */\n            tag_49:\n                /* \"#utility.yul\":920:1042   */\n              pop\n              jump\t// out\n                /* \"#utility.yul\":1048:1187   */\n            tag_32:\n                /* \"#utility.yul\":1094:1099   */\n              0x00\n                /* \"#utility.yul\":1132:1138   */\n              dup2\n                /* \"#utility.yul\":1119:1139   */\n              calldataload\n                /* \"#utility.yul\":1110:1139   */\n              swap1\n              pop\n                /* \"#utility.yul\":1148:1181   */\n              tag_51\n                /* \"#utility.yul\":1175:1180   */\n              dup2\n                /* \"#utility.yul\":1148:1181   */\n              tag_31\n              jump\t// in\n            tag_51:\n                /* \"#utility.yul\":1048:1187   */\n              swap3\n              swap2\n              pop\n              pop\n              jump\t// out\n                /* \"#utility.yul\":1193:1667   */\n            tag_13:\n                /* \"#utility.yul\":1261:1267   */\n              0x00\n                /* \"#utility.yul\":1269:1275   */\n              dup1\n                /* \"#utility.yul\":1318:1320   */\n              0x40\n                /* \"#utility.yul\":1306:1315   */\n              dup4\n                /* \"#utility.yul\":1297:1304   */\n              dup6\n                /* \"#utility.yul\":1293:1316   */\n              sub\n                /* \"#utility.yul\":1289:1321   */\n              slt\n                /* \"#utility.yul\":1286:1405   */\n              iszero\n              tag_53\n              jumpi\n                /* \"#utility.yul\":1324:1403   */\n              tag_54\n              tag_29\n              jump\t// in\n            tag_54:\n                /* \"#utility.yul\":1286:1405   */\n            tag_53:\n                /* \"#utility.yul\":1444:1445   */\n              0x00\n                /* \"#utility.yul\":1469:1522   */\n              tag_55\n                /* \"#utility.yul\":1514:1521   */\n              dup6\n                /* \"#utility.yul\":1505:1511   */\n              dup3\n                /* \"#utility.yul\":1494:1503   */\n              dup7\n                /* \"#utility.yul\":1490:1512   */\n              add\n                /* \"#utility.yul\":1469:1522   */\n              tag_32\n              jump\t// in\n            tag_55:\n                /* \"#utility.yul\":1459:1522   */\n              swap3\n              pop\n                /* \"#utility.yul\":1415:1532   */\n              pop\n                /* \"#utility.yul\":1571:1573   */\n              0x20\n                /* \"#utility.yul\":1597:1650   */\n              tag_56\n                /* \"#utility.yul\":1642:1649   */\n              dup6\n                /* \"#utility.yul\":1633:1639   */\n              dup3\n                /* \"#utility.yul\":1622:1631   */\n              dup7\n                /* \"#utility.yul\":1618:1640   */\n              add\n                /* \"#utility.yul\":1597:1650   */\n              tag_32\n              jump\t// in\n            tag_56:\n                /* \"#utility.yul\":1587:1650   */\n              swap2\n              pop\n                /* \"#utility.yul\":1542:1660   */\n              pop\n                /* \"#utility.yul\":1193:1667   */\n              swap3\n              pop\n              swap3\n              swap1\n              pop\n              jump\t// out\n                /* \"#utility.yul\":1673:1842   */\n            tag_33:\n                /* \"#utility.yul\":1757:1768   */\n              0x00\n                /* \"#utility.yul\":1791:1797   */\n              dup3\n                /* \"#utility.yul\":1786:1789   */\n              dup3\n                /* \"#utility.yul\":1779:1798   */\n              mstore\n                /* \"#utility.yul\":1831:1835   */\n              0x20\n                /* \"#utility.yul\":1826:1829   */\n              dup3\n                /* \"#utility.yul\":1822:1836   */\n              add\n                /* \"#utility.yul\":1807:1836   */\n              swap1\n              pop\n                /* \"#utility.yul\":1673:1842   */\n              swap3\n              swap2\n              pop\n              pop\n              jump\t// out\n                /* \"#utility.yul\":1848:2018   */\n            tag_34:\n                /* \"#utility.yul\":1988:2010   */\n              0x556e697377617056323a20464f5242494444454e000000000000000000000000\n                /* \"#utility.yul\":1984:1985   */\n              0x00\n                /* \"#utility.yul\":1976:1982   */\n              dup3\n                /* \"#utility.yul\":1972:1986   */\n              add\n                /* \"#utility.yul\":1965:2011   */\n              mstore\n                /* \"#utility.yul\":1848:2018   */\n              pop\n              jump\t// out\n                /* \"#utility.yul\":2024:2390   */\n            tag_35:\n                /* \"#utility.yul\":2166:2169   */\n              0x00\n                /* \"#utility.yul\":2187:2254   */\n              tag_60\n                /* \"#utility.yul\":2251:2253   */\n              0x14\n                /* \"#utility.yul\":2246:2249   */\n              dup4\n                /* \"#utility.yul\":2187:2254   */\n              tag_33\n              jump\t// in\n            tag_60:\n                /* \"#utility.yul\":2180:2254   */\n              swap2\n              pop\n                /* \"#utility.yul\":2263:2356   */\n              tag_61\n                /* \"#utility.yul\":2352:2355   */\n              dup3\n                /* \"#utility.yul\":2263:2356   */\n              tag_34\n              jump\t// in\n            tag_61:\n                /* \"#utility.yul\":2381:2383   */\n              0x20\n                /* \"#utility.yul\":2376:2379   */\n              dup3\n                /* \"#utility.yul\":2372:2384   */\n              add\n                /* \"#utility.yul\":2365:2384   */\n              swap1\n              pop\n                /* \"#utility.yul\":2024:2390   */\n              swap2\n              swap1\n              pop\n              jump\t// out\n                /* \"#utility.yul\":2396:2815   */\n            tag_24:\n                /* \"#utility.yul\":2562:2566   */\n              0x00\n                /* \"#utility.yul\":2600:2602   */\n              0x20\n                /* \"#utility.yul\":2589:2598   */\n              dup3\n                /* \"#utility.yul\":2585:2603   */\n              add\n                /* \"#utility.yul\":2577:2603   */\n              swap1\n              pop\n                /* \"#utility.yul\":2649:2658   */\n              dup2\n                /* \"#utility.yul\":2643:2647   */\n              dup2\n                /* \"#utility.yul\":2639:2659   */\n              sub\n                /* \"#utility.yul\":2635:2636   */\n              0x00\n                /* \"#utility.yul\":2624:2633   */\n              dup4\n                /* \"#utility.yul\":2620:2637   */\n              add\n                /* \"#utility.yul\":2613:2660   */\n              mstore\n                /* \"#utility.yul\":2677:2808   */\n              tag_63\n                /* \"#utility.yul\":2803:2807   */\n              dup2\n                /* \"#utility.yul\":2677:2808   */\n              tag_35\n              jump\t// in\n            tag_63:\n                /* \"#utility.yul\":2669:2808   */\n              swap1\n              pop\n                /* \"#utility.yul\":2396:2815   */\n              swap2\n              swap1\n              pop\n              jump\t// out\n\n            auxdata: 0xa26469706673582212204253681b25b00debcc25e074f6ba5e1a936b3a3bf73efa650fe84e96d5bdfa5264736f6c634300081a0033\n        }\n    }\n\n    auxdata: 0xa2646970667358221220901586585d73dc4e256131aa28fbb957b3421ab2dab737217bd413e83c1b902264736f6c634300081a0033\n}\n",
				"bytecode": {
					"linkReferences": {},
					"object": "6080604052348015600e575f80fd5b50610d4f8061001c5f395ff3fe608060405234801561000f575f80fd5b506004361061004a575f3560e01c80631e3dd18b1461004e578063938501871461007e578063df06b188146100ae578063e6a43905146100de575b5f80fd5b6100686004803603810190610063919061065a565b61010e565b60405161007591906106c4565b60405180910390f35b61009860048036038101906100939190610707565b610149565b6040516100a591906106c4565b60405180910390f35b6100c860048036038101906100c39190610707565b610494565b6040516100d591906106c4565b60405180910390f35b6100f860048036038101906100f39190610707565b6105da565b60405161010591906106c4565b60405180910390f35b6001818154811061011d575f80fd5b905f5260205f20015f915054906101000a900473ffffffffffffffffffffffffffffffffffffffff1681565b5f8173ffffffffffffffffffffffffffffffffffffffff168373ffffffffffffffffffffffffffffffffffffffff16036101b8576040517f08c379a00000000000000000000000000000000000000000000000000000000081526004016101af9061079f565b60405180910390fd5b5f808373ffffffffffffffffffffffffffffffffffffffff168573ffffffffffffffffffffffffffffffffffffffff16106101f45783856101f7565b84845b915091505f828260405160200161020f929190610802565b6040516020818303038152906040528051906020012090505f8160405161023590610616565b8190604051809103905ff5905080158015610252573d5f803e3d5ffd5b5090508073ffffffffffffffffffffffffffffffffffffffff1663485cc95588886040518363ffffffff1660e01b815260040161029092919061082d565b5f604051808303815f87803b1580156102a7575f80fd5b505af11580156102b9573d5f803e3d5ffd5b50505050809450600185908060018154018082558091505060019003905f5260205f20015f9091909190916101000a81548173ffffffffffffffffffffffffffffffffffffffff021916908373ffffffffffffffffffffffffffffffffffffffff160217905550845f808973ffffffffffffffffffffffffffffffffffffffff1673ffffffffffffffffffffffffffffffffffffffff1681526020019081526020015f205f8873ffffffffffffffffffffffffffffffffffffffff1673ffffffffffffffffffffffffffffffffffffffff1681526020019081526020015f205f6101000a81548173ffffffffffffffffffffffffffffffffffffffff021916908373ffffffffffffffffffffffffffffffffffffffff160217905550845f808873ffffffffffffffffffffffffffffffffffffffff1673ffffffffffffffffffffffffffffffffffffffff1681526020019081526020015f205f8973ffffffffffffffffffffffffffffffffffffffff1673ffffffffffffffffffffffffffffffffffffffff1681526020019081526020015f205f6101000a81548173ffffffffffffffffffffffffffffffffffffffff021916908373ffffffffffffffffffffffffffffffffffffffff1602179055505050505092915050565b5f8173ffffffffffffffffffffffffffffffffffffffff168373ffffffffffffffffffffffffffffffffffffffff1603610503576040517f08c379a00000000000000000000000000000000000000000000000000000000081526004016104fa9061079f565b60405180910390fd5b5f808373ffffffffffffffffffffffffffffffffffffffff168573ffffffffffffffffffffffffffffffffffffffff161061053f578385610542565b84845b915091505f828260405160200161055a929190610802565b60405160208183030381529060405280519060200120905060ff60f81b30826040518060200161058990610616565b6020820181038252601f19601f82011660405250805190602001206040516020016105b794939291906108c8565b604051602081830303815290604052805190602001205f1c935050505092915050565b5f602052815f5260405f20602052805f5260405f205f915091509054906101000a900473ffffffffffffffffffffffffffffffffffffffff1681565b6104048061091683390190565b5f80fd5b5f819050919050565b61063981610627565b8114610643575f80fd5b50565b5f8135905061065481610630565b92915050565b5f6020828403121561066f5761066e610623565b5b5f61067c84828501610646565b91505092915050565b5f73ffffffffffffffffffffffffffffffffffffffff82169050919050565b5f6106ae82610685565b9050919050565b6106be816106a4565b82525050565b5f6020820190506106d75f8301846106b5565b92915050565b6106e6816106a4565b81146106f0575f80fd5b50565b5f81359050610701816106dd565b92915050565b5f806040838503121561071d5761071c610623565b5b5f61072a858286016106f3565b925050602061073b858286016106f3565b9150509250929050565b5f82825260208201905092915050565b7f4944454e544943414c5f414444524553534553000000000000000000000000005f82015250565b5f610789601383610745565b915061079482610755565b602082019050919050565b5f6020820190508181035f8301526107b68161077d565b9050919050565b5f8160601b9050919050565b5f6107d3826107bd565b9050919050565b5f6107e4826107c9565b9050919050565b6107fc6107f7826106a4565b6107da565b82525050565b5f61080d82856107eb565b60148201915061081d82846107eb565b6014820191508190509392505050565b5f6040820190506108405f8301856106b5565b61084d60208301846106b5565b9392505050565b5f7fff0000000000000000000000000000000000000000000000000000000000000082169050919050565b5f819050919050565b61089961089482610854565b61087f565b82525050565b5f819050919050565b5f819050919050565b6108c26108bd8261089f565b6108a8565b82525050565b5f6108d38287610888565b6001820191506108e382866107eb565b6014820191506108f382856108b1565b60208201915061090382846108b1565b6020820191508190509594505050505056fe6080604052335f806101000a81548173ffffffffffffffffffffffffffffffffffffffff021916908373ffffffffffffffffffffffffffffffffffffffff1602179055506103b4806100505f395ff3fe608060405234801561000f575f80fd5b506004361061004a575f3560e01c80630dfe16811461004e578063485cc9551461006c578063c45a015514610088578063d21220a7146100a6575b5f80fd5b6100566100c4565b6040516100639190610281565b60405180910390f35b610086600480360381019061008191906102c8565b6100e9565b005b6100906101fa565b60405161009d9190610281565b60405180910390f35b6100ae61021d565b6040516100bb9190610281565b60405180910390f35b60015f9054906101000a900473ffffffffffffffffffffffffffffffffffffffff1681565b5f8054906101000a900473ffffffffffffffffffffffffffffffffffffffff1673ffffffffffffffffffffffffffffffffffffffff163373ffffffffffffffffffffffffffffffffffffffff1614610176576040517f08c379a000000000000000000000000000000000000000000000000000000000815260040161016d90610360565b60405180910390fd5b8160015f6101000a81548173ffffffffffffffffffffffffffffffffffffffff021916908373ffffffffffffffffffffffffffffffffffffffff1602179055508060025f6101000a81548173ffffffffffffffffffffffffffffffffffffffff021916908373ffffffffffffffffffffffffffffffffffffffff1602179055505050565b5f8054906101000a900473ffffffffffffffffffffffffffffffffffffffff1681565b60025f9054906101000a900473ffffffffffffffffffffffffffffffffffffffff1681565b5f73ffffffffffffffffffffffffffffffffffffffff82169050919050565b5f61026b82610242565b9050919050565b61027b81610261565b82525050565b5f6020820190506102945f830184610272565b92915050565b5f80fd5b6102a781610261565b81146102b1575f80fd5b50565b5f813590506102c28161029e565b92915050565b5f80604083850312156102de576102dd61029a565b5b5f6102eb858286016102b4565b92505060206102fc858286016102b4565b9150509250929050565b5f82825260208201905092915050565b7f556e697377617056323a20464f5242494444454e0000000000000000000000005f82015250565b5f61034a601483610306565b915061035582610316565b602082019050919050565b5f6020820190508181035f8301526103778161033e565b905091905056fea26469706673582212204253681b25b00debcc25e074f6ba5e1a936b3a3bf73efa650fe84e96d5bdfa5264736f6c634300081a0033a2646970667358221220901586585d73dc4e256131aa28fbb957b3421ab2dab737217bd413e83c1b902264736f6c634300081a0033",
					"opcodes": "PUSH1 0x80 PUSH1 0x40 MSTORE CALLVALUE DUP1 ISZERO PUSH1 0xE JUMPI PUSH0 DUP1 REVERT JUMPDEST POP PUSH2 0xD4F DUP1 PUSH2 0x1C PUSH0 CODECOPY PUSH0 RETURN INVALID PUSH1 0x80 PUSH1 0x40 MSTORE CALLVALUE DUP1 ISZERO PUSH2 0xF JUMPI PUSH0 DUP1 REVERT JUMPDEST POP PUSH1 0x4 CALLDATASIZE LT PUSH2 0x4A JUMPI PUSH0 CALLDATALOAD PUSH1 0xE0 SHR DUP1 PUSH4 0x1E3DD18B EQ PUSH2 0x4E JUMPI DUP1 PUSH4 0x93850187 EQ PUSH2 0x7E JUMPI DUP1 PUSH4 0xDF06B188 EQ PUSH2 0xAE JUMPI DUP1 PUSH4 0xE6A43905 EQ PUSH2 0xDE JUMPI JUMPDEST PUSH0 DUP1 REVERT JUMPDEST PUSH2 0x68 PUSH1 0x4 DUP1 CALLDATASIZE SUB DUP2 ADD SWAP1 PUSH2 0x63 SWAP2 SWAP1 PUSH2 0x65A JUMP JUMPDEST PUSH2 0x10E JUMP JUMPDEST PUSH1 0x40 MLOAD PUSH2 0x75 SWAP2 SWAP1 PUSH2 0x6C4 JUMP JUMPDEST PUSH1 0x40 MLOAD DUP1 SWAP2 SUB SWAP1 RETURN JUMPDEST PUSH2 0x98 PUSH1 0x4 DUP1 CALLDATASIZE SUB DUP2 ADD SWAP1 PUSH2 0x93 SWAP2 SWAP1 PUSH2 0x707 JUMP JUMPDEST PUSH2 0x149 JUMP JUMPDEST PUSH1 0x40 MLOAD PUSH2 0xA5 SWAP2 SWAP1 PUSH2 0x6C4 JUMP JUMPDEST PUSH1 0x40 MLOAD DUP1 SWAP2 SUB SWAP1 RETURN JUMPDEST PUSH2 0xC8 PUSH1 0x4 DUP1 CALLDATASIZE SUB DUP2 ADD SWAP1 PUSH2 0xC3 SWAP2 SWAP1 PUSH2 0x707 JUMP JUMPDEST PUSH2 0x494 JUMP JUMPDEST PUSH1 0x40 MLOAD PUSH2 0xD5 SWAP2 SWAP1 PUSH2 0x6C4 JUMP JUMPDEST PUSH1 0x40 MLOAD DUP1 SWAP2 SUB SWAP1 RETURN JUMPDEST PUSH2 0xF8 PUSH1 0x4 DUP1 CALLDATASIZE SUB DUP2 ADD SWAP1 PUSH2 0xF3 SWAP2 SWAP1 PUSH2 0x707 JUMP JUMPDEST PUSH2 0x5DA JUMP JUMPDEST PUSH1 0x40 MLOAD PUSH2 0x105 SWAP2 SWAP1 PUSH2 0x6C4 JUMP JUMPDEST PUSH1 0x40 MLOAD DUP1 SWAP2 SUB SWAP1 RETURN JUMPDEST PUSH1 0x1 DUP2 DUP2 SLOAD DUP2 LT PUSH2 0x11D JUMPI PUSH0 DUP1 REVERT JUMPDEST SWAP1 PUSH0 MSTORE PUSH1 0x20 PUSH0 KECCAK256 ADD PUSH0 SWAP2 POP SLOAD SWAP1 PUSH2 0x100 EXP SWAP1 DIV PUSH20 0xFFFFFFFFFFFFFFFFFFFFFFFFFFFFFFFFFFFFFFFF AND DUP2 JUMP JUMPDEST PUSH0 DUP2 PUSH20 0xFFFFFFFFFFFFFFFFFFFFFFFFFFFFFFFFFFFFFFFF AND DUP4 PUSH20 0xFFFFFFFFFFFFFFFFFFFFFFFFFFFFFFFFFFFFFFFF AND SUB PUSH2 0x1B8 JUMPI PUSH1 0x40 MLOAD PUSH32 0x8C379A000000000000000000000000000000000000000000000000000000000 DUP2 MSTORE PUSH1 0x4 ADD PUSH2 0x1AF SWAP1 PUSH2 0x79F JUMP JUMPDEST PUSH1 0x40 MLOAD DUP1 SWAP2 SUB SWAP1 REVERT JUMPDEST PUSH0 DUP1 DUP4 PUSH20 0xFFFFFFFFFFFFFFFFFFFFFFFFFFFFFFFFFFFFFFFF AND DUP6 PUSH20 0xFFFFFFFFFFFFFFFFFFFFFFFFFFFFFFFFFFFFFFFF AND LT PUSH2 0x1F4 JUMPI DUP4 DUP6 PUSH2 0x1F7 JUMP JUMPDEST DUP5 DUP5 JUMPDEST SWAP2 POP SWAP2 POP PUSH0 DUP3 DUP3 PUSH1 0x40 MLOAD PUSH1 0x20 ADD PUSH2 0x20F SWAP3 SWAP2 SWAP1 PUSH2 0x802 JUMP JUMPDEST PUSH1 0x40 MLOAD PUSH1 0x20 DUP2 DUP4 SUB SUB DUP2 MSTORE SWAP1 PUSH1 0x40 MSTORE DUP1 MLOAD SWAP1 PUSH1 0x20 ADD KECCAK256 SWAP1 POP PUSH0 DUP2 PUSH1 0x40 MLOAD PUSH2 0x235 SWAP1 PUSH2 0x616 JUMP JUMPDEST DUP2 SWAP1 PUSH1 0x40 MLOAD DUP1 SWAP2 SUB SWAP1 PUSH0 CREATE2 SWAP1 POP DUP1 ISZERO DUP1 ISZERO PUSH2 0x252 JUMPI RETURNDATASIZE PUSH0 DUP1 RETURNDATACOPY RETURNDATASIZE PUSH0 REVERT JUMPDEST POP SWAP1 POP DUP1 PUSH20 0xFFFFFFFFFFFFFFFFFFFFFFFFFFFFFFFFFFFFFFFF AND PUSH4 0x485CC955 DUP9 DUP9 PUSH1 0x40 MLOAD DUP4 PUSH4 0xFFFFFFFF AND PUSH1 0xE0 SHL DUP2 MSTORE PUSH1 0x4 ADD PUSH2 0x290 SWAP3 SWAP2 SWAP1 PUSH2 0x82D JUMP JUMPDEST PUSH0 PUSH1 0x40 MLOAD DUP1 DUP4 SUB DUP2 PUSH0 DUP8 DUP1 EXTCODESIZE ISZERO DUP1 ISZERO PUSH2 0x2A7 JUMPI PUSH0 DUP1 REVERT JUMPDEST POP GAS CALL ISZERO DUP1 ISZERO PUSH2 0x2B9 JUMPI RETURNDATASIZE PUSH0 DUP1 RETURNDATACOPY RETURNDATASIZE PUSH0 REVERT JUMPDEST POP POP POP POP DUP1 SWAP5 POP PUSH1 0x1 DUP6 SWAP1 DUP1 PUSH1 0x1 DUP2 SLOAD ADD DUP1 DUP3 SSTORE DUP1 SWAP2 POP POP PUSH1 0x1 SWAP1 SUB SWAP1 PUSH0 MSTORE PUSH1 0x20 PUSH0 KECCAK256 ADD PUSH0 SWAP1 SWAP2 SWAP1 SWAP2 SWAP1 SWAP2 PUSH2 0x100 EXP DUP2 SLOAD DUP2 PUSH20 0xFFFFFFFFFFFFFFFFFFFFFFFFFFFFFFFFFFFFFFFF MUL NOT AND SWAP1 DUP4 PUSH20 0xFFFFFFFFFFFFFFFFFFFFFFFFFFFFFFFFFFFFFFFF AND MUL OR SWAP1 SSTORE POP DUP5 PUSH0 DUP1 DUP10 PUSH20 0xFFFFFFFFFFFFFFFFFFFFFFFFFFFFFFFFFFFFFFFF AND PUSH20 0xFFFFFFFFFFFFFFFFFFFFFFFFFFFFFFFFFFFFFFFF AND DUP2 MSTORE PUSH1 0x20 ADD SWAP1 DUP2 MSTORE PUSH1 0x20 ADD PUSH0 KECCAK256 PUSH0 DUP9 PUSH20 0xFFFFFFFFFFFFFFFFFFFFFFFFFFFFFFFFFFFFFFFF AND PUSH20 0xFFFFFFFFFFFFFFFFFFFFFFFFFFFFFFFFFFFFFFFF AND DUP2 MSTORE PUSH1 0x20 ADD SWAP1 DUP2 MSTORE PUSH1 0x20 ADD PUSH0 KECCAK256 PUSH0 PUSH2 0x100 EXP DUP2 SLOAD DUP2 PUSH20 0xFFFFFFFFFFFFFFFFFFFFFFFFFFFFFFFFFFFFFFFF MUL NOT AND SWAP1 DUP4 PUSH20 0xFFFFFFFFFFFFFFFFFFFFFFFFFFFFFFFFFFFFFFFF AND MUL OR SWAP1 SSTORE POP DUP5 PUSH0 DUP1 DUP9 PUSH20 0xFFFFFFFFFFFFFFFFFFFFFFFFFFFFFFFFFFFFFFFF AND PUSH20 0xFFFFFFFFFFFFFFFFFFFFFFFFFFFFFFFFFFFFFFFF AND DUP2 MSTORE PUSH1 0x20 ADD SWAP1 DUP2 MSTORE PUSH1 0x20 ADD PUSH0 KECCAK256 PUSH0 DUP10 PUSH20 0xFFFFFFFFFFFFFFFFFFFFFFFFFFFFFFFFFFFFFFFF AND PUSH20 0xFFFFFFFFFFFFFFFFFFFFFFFFFFFFFFFFFFFFFFFF AND DUP2 MSTORE PUSH1 0x20 ADD SWAP1 DUP2 MSTORE PUSH1 0x20 ADD PUSH0 KECCAK256 PUSH0 PUSH2 0x100 EXP DUP2 SLOAD DUP2 PUSH20 0xFFFFFFFFFFFFFFFFFFFFFFFFFFFFFFFFFFFFFFFF MUL NOT AND SWAP1 DUP4 PUSH20 0xFFFFFFFFFFFFFFFFFFFFFFFFFFFFFFFFFFFFFFFF AND MUL OR SWAP1 SSTORE POP POP POP POP POP SWAP3 SWAP2 POP POP JUMP JUMPDEST PUSH0 DUP2 PUSH20 0xFFFFFFFFFFFFFFFFFFFFFFFFFFFFFFFFFFFFFFFF AND DUP4 PUSH20 0xFFFFFFFFFFFFFFFFFFFFFFFFFFFFFFFFFFFFFFFF AND SUB PUSH2 0x503 JUMPI PUSH1 0x40 MLOAD PUSH32 0x8C379A000000000000000000000000000000000000000000000000000000000 DUP2 MSTORE PUSH1 0x4 ADD PUSH2 0x4FA SWAP1 PUSH2 0x79F JUMP JUMPDEST PUSH1 0x40 MLOAD DUP1 SWAP2 SUB SWAP1 REVERT JUMPDEST PUSH0 DUP1 DUP4 PUSH20 0xFFFFFFFFFFFFFFFFFFFFFFFFFFFFFFFFFFFFFFFF AND DUP6 PUSH20 0xFFFFFFFFFFFFFFFFFFFFFFFFFFFFFFFFFFFFFFFF AND LT PUSH2 0x53F JUMPI DUP4 DUP6 PUSH2 0x542 JUMP JUMPDEST DUP5 DUP5 JUMPDEST SWAP2 POP SWAP2 POP PUSH0 DUP3 DUP3 PUSH1 0x40 MLOAD PUSH1 0x20 ADD PUSH2 0x55A SWAP3 SWAP2 SWAP1 PUSH2 0x802 JUMP JUMPDEST PUSH1 0x40 MLOAD PUSH1 0x20 DUP2 DUP4 SUB SUB DUP2 MSTORE SWAP1 PUSH1 0x40 MSTORE DUP1 MLOAD SWAP1 PUSH1 0x20 ADD KECCAK256 SWAP1 POP PUSH1 0xFF PUSH1 0xF8 SHL ADDRESS DUP3 PUSH1 0x40 MLOAD DUP1 PUSH1 0x20 ADD PUSH2 0x589 SWAP1 PUSH2 0x616 JUMP JUMPDEST PUSH1 0x20 DUP3 ADD DUP2 SUB DUP3 MSTORE PUSH1 0x1F NOT PUSH1 0x1F DUP3 ADD AND PUSH1 0x40 MSTORE POP DUP1 MLOAD SWAP1 PUSH1 0x20 ADD KECCAK256 PUSH1 0x40 MLOAD PUSH1 0x20 ADD PUSH2 0x5B7 SWAP5 SWAP4 SWAP3 SWAP2 SWAP1 PUSH2 0x8C8 JUMP JUMPDEST PUSH1 0x40 MLOAD PUSH1 0x20 DUP2 DUP4 SUB SUB DUP2 MSTORE SWAP1 PUSH1 0x40 MSTORE DUP1 MLOAD SWAP1 PUSH1 0x20 ADD KECCAK256 PUSH0 SHR SWAP4 POP POP POP POP SWAP3 SWAP2 POP POP JUMP JUMPDEST PUSH0 PUSH1 0x20 MSTORE DUP2 PUSH0 MSTORE PUSH1 0x40 PUSH0 KECCAK256 PUSH1 0x20 MSTORE DUP1 PUSH0 MSTORE PUSH1 0x40 PUSH0 KECCAK256 PUSH0 SWAP2 POP SWAP2 POP SWAP1 SLOAD SWAP1 PUSH2 0x100 EXP SWAP1 DIV PUSH20 0xFFFFFFFFFFFFFFFFFFFFFFFFFFFFFFFFFFFFFFFF AND DUP2 JUMP JUMPDEST PUSH2 0x404 DUP1 PUSH2 0x916 DUP4 CODECOPY ADD SWAP1 JUMP JUMPDEST PUSH0 DUP1 REVERT JUMPDEST PUSH0 DUP2 SWAP1 POP SWAP2 SWAP1 POP JUMP JUMPDEST PUSH2 0x639 DUP2 PUSH2 0x627 JUMP JUMPDEST DUP2 EQ PUSH2 0x643 JUMPI PUSH0 DUP1 REVERT JUMPDEST POP JUMP JUMPDEST PUSH0 DUP2 CALLDATALOAD SWAP1 POP PUSH2 0x654 DUP2 PUSH2 0x630 JUMP JUMPDEST SWAP3 SWAP2 POP POP JUMP JUMPDEST PUSH0 PUSH1 0x20 DUP3 DUP5 SUB SLT ISZERO PUSH2 0x66F JUMPI PUSH2 0x66E PUSH2 0x623 JUMP JUMPDEST JUMPDEST PUSH0 PUSH2 0x67C DUP5 DUP3 DUP6 ADD PUSH2 0x646 JUMP JUMPDEST SWAP2 POP POP SWAP3 SWAP2 POP POP JUMP JUMPDEST PUSH0 PUSH20 0xFFFFFFFFFFFFFFFFFFFFFFFFFFFFFFFFFFFFFFFF DUP3 AND SWAP1 POP SWAP2 SWAP1 POP JUMP JUMPDEST PUSH0 PUSH2 0x6AE DUP3 PUSH2 0x685 JUMP JUMPDEST SWAP1 POP SWAP2 SWAP1 POP JUMP JUMPDEST PUSH2 0x6BE DUP2 PUSH2 0x6A4 JUMP JUMPDEST DUP3 MSTORE POP POP JUMP JUMPDEST PUSH0 PUSH1 0x20 DUP3 ADD SWAP1 POP PUSH2 0x6D7 PUSH0 DUP4 ADD DUP5 PUSH2 0x6B5 JUMP JUMPDEST SWAP3 SWAP2 POP POP JUMP JUMPDEST PUSH2 0x6E6 DUP2 PUSH2 0x6A4 JUMP JUMPDEST DUP2 EQ PUSH2 0x6F0 JUMPI PUSH0 DUP1 REVERT JUMPDEST POP JUMP JUMPDEST PUSH0 DUP2 CALLDATALOAD SWAP1 POP PUSH2 0x701 DUP2 PUSH2 0x6DD JUMP JUMPDEST SWAP3 SWAP2 POP POP JUMP JUMPDEST PUSH0 DUP1 PUSH1 0x40 DUP4 DUP6 SUB SLT ISZERO PUSH2 0x71D JUMPI PUSH2 0x71C PUSH2 0x623 JUMP JUMPDEST JUMPDEST PUSH0 PUSH2 0x72A DUP6 DUP3 DUP7 ADD PUSH2 0x6F3 JUMP JUMPDEST SWAP3 POP POP PUSH1 0x20 PUSH2 0x73B DUP6 DUP3 DUP7 ADD PUSH2 0x6F3 JUMP JUMPDEST SWAP2 POP POP SWAP3 POP SWAP3 SWAP1 POP JUMP JUMPDEST PUSH0 DUP3 DUP3 MSTORE PUSH1 0x20 DUP3 ADD SWAP1 POP SWAP3 SWAP2 POP POP JUMP JUMPDEST PUSH32 0x4944454E544943414C5F41444452455353455300000000000000000000000000 PUSH0 DUP3 ADD MSTORE POP JUMP JUMPDEST PUSH0 PUSH2 0x789 PUSH1 0x13 DUP4 PUSH2 0x745 JUMP JUMPDEST SWAP2 POP PUSH2 0x794 DUP3 PUSH2 0x755 JUMP JUMPDEST PUSH1 0x20 DUP3 ADD SWAP1 POP SWAP2 SWAP1 POP JUMP JUMPDEST PUSH0 PUSH1 0x20 DUP3 ADD SWAP1 POP DUP2 DUP2 SUB PUSH0 DUP4 ADD MSTORE PUSH2 0x7B6 DUP2 PUSH2 0x77D JUMP JUMPDEST SWAP1 POP SWAP2 SWAP1 POP JUMP JUMPDEST PUSH0 DUP2 PUSH1 0x60 SHL SWAP1 POP SWAP2 SWAP1 POP JUMP JUMPDEST PUSH0 PUSH2 0x7D3 DUP3 PUSH2 0x7BD JUMP JUMPDEST SWAP1 POP SWAP2 SWAP1 POP JUMP JUMPDEST PUSH0 PUSH2 0x7E4 DUP3 PUSH2 0x7C9 JUMP JUMPDEST SWAP1 POP SWAP2 SWAP1 POP JUMP JUMPDEST PUSH2 0x7FC PUSH2 0x7F7 DUP3 PUSH2 0x6A4 JUMP JUMPDEST PUSH2 0x7DA JUMP JUMPDEST DUP3 MSTORE POP POP JUMP JUMPDEST PUSH0 PUSH2 0x80D DUP3 DUP6 PUSH2 0x7EB JUMP JUMPDEST PUSH1 0x14 DUP3 ADD SWAP2 POP PUSH2 0x81D DUP3 DUP5 PUSH2 0x7EB JUMP JUMPDEST PUSH1 0x14 DUP3 ADD SWAP2 POP DUP2 SWAP1 POP SWAP4 SWAP3 POP POP POP JUMP JUMPDEST PUSH0 PUSH1 0x40 DUP3 ADD SWAP1 POP PUSH2 0x840 PUSH0 DUP4 ADD DUP6 PUSH2 0x6B5 JUMP JUMPDEST PUSH2 0x84D PUSH1 0x20 DUP4 ADD DUP5 PUSH2 0x6B5 JUMP JUMPDEST SWAP4 SWAP3 POP POP POP JUMP JUMPDEST PUSH0 PUSH32 0xFF00000000000000000000000000000000000000000000000000000000000000 DUP3 AND SWAP1 POP SWAP2 SWAP1 POP JUMP JUMPDEST PUSH0 DUP2 SWAP1 POP SWAP2 SWAP1 POP JUMP JUMPDEST PUSH2 0x899 PUSH2 0x894 DUP3 PUSH2 0x854 JUMP JUMPDEST PUSH2 0x87F JUMP JUMPDEST DUP3 MSTORE POP POP JUMP JUMPDEST PUSH0 DUP2 SWAP1 POP SWAP2 SWAP1 POP JUMP JUMPDEST PUSH0 DUP2 SWAP1 POP SWAP2 SWAP1 POP JUMP JUMPDEST PUSH2 0x8C2 PUSH2 0x8BD DUP3 PUSH2 0x89F JUMP JUMPDEST PUSH2 0x8A8 JUMP JUMPDEST DUP3 MSTORE POP POP JUMP JUMPDEST PUSH0 PUSH2 0x8D3 DUP3 DUP8 PUSH2 0x888 JUMP JUMPDEST PUSH1 0x1 DUP3 ADD SWAP2 POP PUSH2 0x8E3 DUP3 DUP7 PUSH2 0x7EB JUMP JUMPDEST PUSH1 0x14 DUP3 ADD SWAP2 POP PUSH2 0x8F3 DUP3 DUP6 PUSH2 0x8B1 JUMP JUMPDEST PUSH1 0x20 DUP3 ADD SWAP2 POP PUSH2 0x903 DUP3 DUP5 PUSH2 0x8B1 JUMP JUMPDEST PUSH1 0x20 DUP3 ADD SWAP2 POP DUP2 SWAP1 POP SWAP6 SWAP5 POP POP POP POP POP JUMP INVALID PUSH1 0x80 PUSH1 0x40 MSTORE CALLER PUSH0 DUP1 PUSH2 0x100 EXP DUP2 SLOAD DUP2 PUSH20 0xFFFFFFFFFFFFFFFFFFFFFFFFFFFFFFFFFFFFFFFF MUL NOT AND SWAP1 DUP4 PUSH20 0xFFFFFFFFFFFFFFFFFFFFFFFFFFFFFFFFFFFFFFFF AND MUL OR SWAP1 SSTORE POP PUSH2 0x3B4 DUP1 PUSH2 0x50 PUSH0 CODECOPY PUSH0 RETURN INVALID PUSH1 0x80 PUSH1 0x40 MSTORE CALLVALUE DUP1 ISZERO PUSH2 0xF JUMPI PUSH0 DUP1 REVERT JUMPDEST POP PUSH1 0x4 CALLDATASIZE LT PUSH2 0x4A JUMPI PUSH0 CALLDATALOAD PUSH1 0xE0 SHR DUP1 PUSH4 0xDFE1681 EQ PUSH2 0x4E JUMPI DUP1 PUSH4 0x485CC955 EQ PUSH2 0x6C JUMPI DUP1 PUSH4 0xC45A0155 EQ PUSH2 0x88 JUMPI DUP1 PUSH4 0xD21220A7 EQ PUSH2 0xA6 JUMPI JUMPDEST PUSH0 DUP1 REVERT JUMPDEST PUSH2 0x56 PUSH2 0xC4 JUMP JUMPDEST PUSH1 0x40 MLOAD PUSH2 0x63 SWAP2 SWAP1 PUSH2 0x281 JUMP JUMPDEST PUSH1 0x40 MLOAD DUP1 SWAP2 SUB SWAP1 RETURN JUMPDEST PUSH2 0x86 PUSH1 0x4 DUP1 CALLDATASIZE SUB DUP2 ADD SWAP1 PUSH2 0x81 SWAP2 SWAP1 PUSH2 0x2C8 JUMP JUMPDEST PUSH2 0xE9 JUMP JUMPDEST STOP JUMPDEST PUSH2 0x90 PUSH2 0x1FA JUMP JUMPDEST PUSH1 0x40 MLOAD PUSH2 0x9D SWAP2 SWAP1 PUSH2 0x281 JUMP JUMPDEST PUSH1 0x40 MLOAD DUP1 SWAP2 SUB SWAP1 RETURN JUMPDEST PUSH2 0xAE PUSH2 0x21D JUMP JUMPDEST PUSH1 0x40 MLOAD PUSH2 0xBB SWAP2 SWAP1 PUSH2 0x281 JUMP JUMPDEST PUSH1 0x40 MLOAD DUP1 SWAP2 SUB SWAP1 RETURN JUMPDEST PUSH1 0x1 PUSH0 SWAP1 SLOAD SWAP1 PUSH2 0x100 EXP SWAP1 DIV PUSH20 0xFFFFFFFFFFFFFFFFFFFFFFFFFFFFFFFFFFFFFFFF AND DUP2 JUMP JUMPDEST PUSH0 DUP1 SLOAD SWAP1 PUSH2 0x100 EXP SWAP1 DIV PUSH20 0xFFFFFFFFFFFFFFFFFFFFFFFFFFFFFFFFFFFFFFFF AND PUSH20 0xFFFFFFFFFFFFFFFFFFFFFFFFFFFFFFFFFFFFFFFF AND CALLER PUSH20 0xFFFFFFFFFFFFFFFFFFFFFFFFFFFFFFFFFFFFFFFF AND EQ PUSH2 0x176 JUMPI PUSH1 0x40 MLOAD PUSH32 0x8C379A000000000000000000000000000000000000000000000000000000000 DUP2 MSTORE PUSH1 0x4 ADD PUSH2 0x16D SWAP1 PUSH2 0x360 JUMP JUMPDEST PUSH1 0x40 MLOAD DUP1 SWAP2 SUB SWAP1 REVERT JUMPDEST DUP2 PUSH1 0x1 PUSH0 PUSH2 0x100 EXP DUP2 SLOAD DUP2 PUSH20 0xFFFFFFFFFFFFFFFFFFFFFFFFFFFFFFFFFFFFFFFF MUL NOT AND SWAP1 DUP4 PUSH20 0xFFFFFFFFFFFFFFFFFFFFFFFFFFFFFFFFFFFFFFFF AND MUL OR SWAP1 SSTORE POP DUP1 PUSH1 0x2 PUSH0 PUSH2 0x100 EXP DUP2 SLOAD DUP2 PUSH20 0xFFFFFFFFFFFFFFFFFFFFFFFFFFFFFFFFFFFFFFFF MUL NOT AND SWAP1 DUP4 PUSH20 0xFFFFFFFFFFFFFFFFFFFFFFFFFFFFFFFFFFFFFFFF AND MUL OR SWAP1 SSTORE POP POP POP JUMP JUMPDEST PUSH0 DUP1 SLOAD SWAP1 PUSH2 0x100 EXP SWAP1 DIV PUSH20 0xFFFFFFFFFFFFFFFFFFFFFFFFFFFFFFFFFFFFFFFF AND DUP2 JUMP JUMPDEST PUSH1 0x2 PUSH0 SWAP1 SLOAD SWAP1 PUSH2 0x100 EXP SWAP1 DIV PUSH20 0xFFFFFFFFFFFFFFFFFFFFFFFFFFFFFFFFFFFFFFFF AND DUP2 JUMP JUMPDEST PUSH0 PUSH20 0xFFFFFFFFFFFFFFFFFFFFFFFFFFFFFFFFFFFFFFFF DUP3 AND SWAP1 POP SWAP2 SWAP1 POP JUMP JUMPDEST PUSH0 PUSH2 0x26B DUP3 PUSH2 0x242 JUMP JUMPDEST SWAP1 POP SWAP2 SWAP1 POP JUMP JUMPDEST PUSH2 0x27B DUP2 PUSH2 0x261 JUMP JUMPDEST DUP3 MSTORE POP POP JUMP JUMPDEST PUSH0 PUSH1 0x20 DUP3 ADD SWAP1 POP PUSH2 0x294 PUSH0 DUP4 ADD DUP5 PUSH2 0x272 JUMP JUMPDEST SWAP3 SWAP2 POP POP JUMP JUMPDEST PUSH0 DUP1 REVERT JUMPDEST PUSH2 0x2A7 DUP2 PUSH2 0x261 JUMP JUMPDEST DUP2 EQ PUSH2 0x2B1 JUMPI PUSH0 DUP1 REVERT JUMPDEST POP JUMP JUMPDEST PUSH0 DUP2 CALLDATALOAD SWAP1 POP PUSH2 0x2C2 DUP2 PUSH2 0x29E JUMP JUMPDEST SWAP3 SWAP2 POP POP JUMP JUMPDEST PUSH0 DUP1 PUSH1 0x40 DUP4 DUP6 SUB SLT ISZERO PUSH2 0x2DE JUMPI PUSH2 0x2DD PUSH2 0x29A JUMP JUMPDEST JUMPDEST PUSH0 PUSH2 0x2EB DUP6 DUP3 DUP7 ADD PUSH2 0x2B4 JUMP JUMPDEST SWAP3 POP POP PUSH1 0x20 PUSH2 0x2FC DUP6 DUP3 DUP7 ADD PUSH2 0x2B4 JUMP JUMPDEST SWAP2 POP POP SWAP3 POP SWAP3 SWAP1 POP JUMP JUMPDEST PUSH0 DUP3 DUP3 MSTORE PUSH1 0x20 DUP3 ADD SWAP1 POP SWAP3 SWAP2 POP POP JUMP JUMPDEST PUSH32 0x556E697377617056323A20464F5242494444454E000000000000000000000000 PUSH0 DUP3 ADD MSTORE POP JUMP JUMPDEST PUSH0 PUSH2 0x34A PUSH1 0x14 DUP4 PUSH2 0x306 JUMP JUMPDEST SWAP2 POP PUSH2 0x355 DUP3 PUSH2 0x316 JUMP JUMPDEST PUSH1 0x20 DUP3 ADD SWAP1 POP SWAP2 SWAP1 POP JUMP JUMPDEST PUSH0 PUSH1 0x20 DUP3 ADD SWAP1 POP DUP2 DUP2 SUB PUSH0 DUP4 ADD MSTORE PUSH2 0x377 DUP2 PUSH2 0x33E JUMP JUMPDEST SWAP1 POP SWAP2 SWAP1 POP JUMP INVALID LOG2 PUSH5 0x6970667358 0x22 SLT KECCAK256 TIMESTAMP MSTORE8 PUSH9 0x1B25B00DEBCC25E074 0xF6 0xBA MCOPY BYTE SWAP4 PUSH12 0x3A3BF73EFA650FE84E96D5BD STATICCALL MSTORE PUSH5 0x736F6C6343 STOP ADDMOD BYTE STOP CALLER LOG2 PUSH5 0x6970667358 0x22 SLT KECCAK256 SWAP1 ISZERO DUP7 PC TSTORE PUSH20 0xDC4E256131AA28FBB957B3421AB2DAB737217BD4 SGT 0xE8 EXTCODECOPY SHL SWAP1 0x22 PUSH5 0x736F6C6343 STOP ADDMOD BYTE STOP CALLER "
				},
				"gasEstimates": {
					"creation": {
						"codeDepositCost": "681400",
						"executionCost": "713",
						"totalCost": "682113"
					},
					"external": {
						"allPairs(uint256)": "4922",
						"calculateAddr(address,address)": "infinite",
						"createPair2(address,address)": "infinite",
						"getPair(address,address)": "infinite"
					}
				},
				"methodIdentifiers": {
					"allPairs(uint256)": "1e3dd18b",
					"calculateAddr(address,address)": "df06b188",
					"createPair2(address,address)": "93850187",
					"getPair(address,address)": "e6a43905"
				}
			},
			"storageLayout": {
				"storage": [
					{
						"astId": 47,
						"contract": "contract/wtf/create2.sol:PairFactory2",
						"label": "getPair",
						"offset": 0,
						"slot": "0",
						"type": "t_mapping(t_address,t_mapping(t_address,t_address))"
					},
					{
						"astId": 50,
						"contract": "contract/wtf/create2.sol:PairFactory2",
						"label": "allPairs",
						"offset": 0,
						"slot": "1",
						"type": "t_array(t_address)dyn_storage"
					}
				],
				"types": {
					"t_address": {
						"encoding": "inplace",
						"label": "address",
						"numberOfBytes": "20"
					},
					"t_array(t_address)dyn_storage": {
						"base": "t_address",
						"encoding": "dynamic_array",
						"label": "address[]",
						"numberOfBytes": "32"
					},
					"t_mapping(t_address,t_address)": {
						"encoding": "mapping",
						"key": "t_address",
						"label": "mapping(address => address)",
						"numberOfBytes": "32",
						"value": "t_address"
					},
					"t_mapping(t_address,t_mapping(t_address,t_address))": {
						"encoding": "mapping",
						"key": "t_address",
						"label": "mapping(address => mapping(address => address))",
						"numberOfBytes": "32",
						"value": "t_mapping(t_address,t_address)"
					}
				}
			},
			"userdoc": {
				"kind": "user",
				"methods": {},
				"version": 1
			}
		}
	}
}