{
	"contract/wtf/call.sol": {
		"MyCall": {
			"abi": [
				{
					"anonymous": false,
					"inputs": [
						{
							"indexed": false,
							"internalType": "bool",
							"name": "success",
							"type": "bool"
						},
						{
							"indexed": false,
							"internalType": "bytes",
							"name": "data",
							"type": "bytes"
						}
					],
					"name": "Response",
					"type": "event"
				},
				{
					"inputs": [
						{
							"internalType": "address payable",
							"name": "_addr",
							"type": "address"
						},
						{
							"internalType": "uint256",
							"name": "x",
							"type": "uint256"
						}
					],
					"name": "callSetX",
					"outputs": [],
					"stateMutability": "payable",
					"type": "function"
				},
				{
					"inputs": [
						{
							"internalType": "address payable",
							"name": "_addr",
							"type": "address"
						}
					],
					"name": "getX",
					"outputs": [
						{
							"internalType": "uint256",
							"name": "",
							"type": "uint256"
						}
					],
					"stateMutability": "nonpayable",
					"type": "function"
				}
			],
			"devdoc": {
				"kind": "dev",
				"methods": {},
				"version": 1
			},
			"evm": {
				"assembly": "    /* \"contract/wtf/call.sol\":1302:2010  contract MyCall {... */\n  mstore(0x40, 0x80)\n  callvalue\n  dup1\n  iszero\n  tag_1\n  jumpi\n  0x00\n  dup1\n  revert\ntag_1:\n  pop\n  dataSize(sub_0)\n  dup1\n  dataOffset(sub_0)\n  0x00\n  codecopy\n  0x00\n  return\nstop\n\nsub_0: assembly {\n        /* \"contract/wtf/call.sol\":1302:2010  contract MyCall {... */\n      mstore(0x40, 0x80)\n      jumpi(tag_1, lt(calldatasize, 0x04))\n      shr(0xe0, calldataload(0x00))\n      dup1\n      0x3ca065bb\n      eq\n      tag_2\n      jumpi\n      dup1\n      0x7c94c8ca\n      eq\n      tag_3\n      jumpi\n    tag_1:\n      0x00\n      dup1\n      revert\n        /* \"contract/wtf/call.sol\":1441:1758  function callSetX(address payable _addr, uint256 x) public payable {... */\n    tag_2:\n      tag_4\n      0x04\n      dup1\n      calldatasize\n      sub\n      dup2\n      add\n      swap1\n      tag_5\n      swap2\n      swap1\n      tag_6\n      jump\t// in\n    tag_5:\n      tag_7\n      jump\t// in\n    tag_4:\n      stop\n        /* \"contract/wtf/call.sol\":1764:2007  function getX(address payable _addr) external returns (uint256) {... */\n    tag_3:\n      callvalue\n      dup1\n      iszero\n      tag_8\n      jumpi\n      0x00\n      dup1\n      revert\n    tag_8:\n      pop\n      tag_9\n      0x04\n      dup1\n      calldatasize\n      sub\n      dup2\n      add\n      swap1\n      tag_10\n      swap2\n      swap1\n      tag_11\n      jump\t// in\n    tag_10:\n      tag_12\n      jump\t// in\n    tag_9:\n      mload(0x40)\n      tag_13\n      swap2\n      swap1\n      tag_14\n      jump\t// in\n    tag_13:\n      mload(0x40)\n      dup1\n      swap2\n      sub\n      swap1\n      return\n        /* \"contract/wtf/call.sol\":1441:1758  function callSetX(address payable _addr, uint256 x) public payable {... */\n    tag_7:\n        /* \"contract/wtf/call.sol\":1566:1578  bool success */\n      0x00\n        /* \"contract/wtf/call.sol\":1580:1597  bytes memory data */\n      dup1\n        /* \"contract/wtf/call.sol\":1601:1606  _addr */\n      dup4\n        /* \"contract/wtf/call.sol\":1601:1611  _addr.call */\n      0xffffffffffffffffffffffffffffffffffffffff\n      and\n        /* \"contract/wtf/call.sol\":1619:1628  msg.value */\n      callvalue\n        /* \"contract/wtf/call.sol\":1685:1686  x */\n      dup5\n        /* \"contract/wtf/call.sol\":1643:1687  abi.encodeWithSignature(\"setXX(uint256)\", x) */\n      add(0x24, mload(0x40))\n      tag_16\n      swap2\n      swap1\n      tag_14\n      jump\t// in\n    tag_16:\n      mload(0x40)\n      0x20\n      dup2\n      dup4\n      sub\n      sub\n      dup2\n      mstore\n      swap1\n      0x40\n      mstore\n      and(not(0xffffffffffffffffffffffffffffffffffffffffffffffffffffffff), 0xd849c3a000000000000000000000000000000000000000000000000000000000)\n      0x20\n      dup3\n      add\n      dup1\n      mload\n      0xffffffffffffffffffffffffffffffffffffffffffffffffffffffff\n      dup4\n      dup2\n      dup4\n      and\n      or\n      dup4\n      mstore\n      pop\n      pop\n      pop\n      pop\n        /* \"contract/wtf/call.sol\":1601:1697  _addr.call{value: msg.value}(... */\n      mload(0x40)\n      tag_17\n      swap2\n      swap1\n      tag_18\n      jump\t// in\n    tag_17:\n      0x00\n      mload(0x40)\n      dup1\n      dup4\n      sub\n      dup2\n      dup6\n      dup8\n      gas\n      call\n      swap3\n      pop\n      pop\n      pop\n      returndatasize\n      dup1\n      0x00\n      dup2\n      eq\n      tag_21\n      jumpi\n      mload(0x40)\n      swap2\n      pop\n      and(add(returndatasize, 0x3f), not(0x1f))\n      dup3\n      add\n      0x40\n      mstore\n      returndatasize\n      dup3\n      mstore\n      returndatasize\n      0x00\n      0x20\n      dup5\n      add\n      returndatacopy\n      jump(tag_20)\n    tag_21:\n      0x60\n      swap2\n      pop\n    tag_20:\n      pop\n        /* \"contract/wtf/call.sol\":1565:1697  (bool success, bytes memory data) = _addr.call{value: msg.value}(... */\n      swap2\n      pop\n      swap2\n      pop\n        /* \"contract/wtf/call.sol\":1713:1736  Response(success, data) */\n      0x13848c3e38f8886f3f5d2ad9dff80d8092c2bbb8efd5b887a99c2c6cfc09ac2a\n        /* \"contract/wtf/call.sol\":1722:1729  success */\n      dup3\n        /* \"contract/wtf/call.sol\":1731:1735  data */\n      dup3\n        /* \"contract/wtf/call.sol\":1713:1736  Response(success, data) */\n      mload(0x40)\n      tag_22\n      swap3\n      swap2\n      swap1\n      tag_23\n      jump\t// in\n    tag_22:\n      mload(0x40)\n      dup1\n      swap2\n      sub\n      swap1\n      log1\n        /* \"contract/wtf/call.sol\":1508:1758  {... */\n      pop\n      pop\n        /* \"contract/wtf/call.sol\":1441:1758  function callSetX(address payable _addr, uint256 x) public payable {... */\n      pop\n      pop\n      jump\t// out\n        /* \"contract/wtf/call.sol\":1764:2007  function getX(address payable _addr) external returns (uint256) {... */\n    tag_12:\n        /* \"contract/wtf/call.sol\":1819:1826  uint256 */\n      0x00\n        /* \"contract/wtf/call.sol\":1839:1851  bool success */\n      dup1\n        /* \"contract/wtf/call.sol\":1852:1869  bytes memory data */\n      0x00\n        /* \"contract/wtf/call.sol\":1873:1878  _addr */\n      dup4\n        /* \"contract/wtf/call.sol\":1873:1883  _addr.call */\n      0xffffffffffffffffffffffffffffffffffffffff\n      and\n        /* \"contract/wtf/call.sol\":1884:1917  abi.encodeWithSignature(\"getX()\") */\n      add(0x24, mload(0x40))\n      mload(0x40)\n      0x20\n      dup2\n      dup4\n      sub\n      sub\n      dup2\n      mstore\n      swap1\n      0x40\n      mstore\n      and(not(0xffffffffffffffffffffffffffffffffffffffffffffffffffffffff), 0x5197c7aa00000000000000000000000000000000000000000000000000000000)\n      0x20\n      dup3\n      add\n      dup1\n      mload\n      0xffffffffffffffffffffffffffffffffffffffffffffffffffffffff\n      dup4\n      dup2\n      dup4\n      and\n      or\n      dup4\n      mstore\n      pop\n      pop\n      pop\n      pop\n        /* \"contract/wtf/call.sol\":1873:1918  _addr.call(abi.encodeWithSignature(\"getX()\")) */\n      mload(0x40)\n      tag_25\n      swap2\n      swap1\n      tag_18\n      jump\t// in\n    tag_25:\n      0x00\n      mload(0x40)\n      dup1\n      dup4\n      sub\n      dup2\n      0x00\n      dup7\n      gas\n      call\n      swap2\n      pop\n      pop\n      returndatasize\n      dup1\n      0x00\n      dup2\n      eq\n      tag_28\n      jumpi\n      mload(0x40)\n      swap2\n      pop\n      and(add(returndatasize, 0x3f), not(0x1f))\n      dup3\n      add\n      0x40\n      mstore\n      returndatasize\n      dup3\n      mstore\n      returndatasize\n      0x00\n      0x20\n      dup5\n      add\n      returndatacopy\n      jump(tag_27)\n    tag_28:\n      0x60\n      swap2\n      pop\n    tag_27:\n      pop\n        /* \"contract/wtf/call.sol\":1838:1918  (bool success,bytes memory data) = _addr.call(abi.encodeWithSignature(\"getX()\")) */\n      swap2\n      pop\n      swap2\n      pop\n        /* \"contract/wtf/call.sol\":1933:1956  Response(success, data) */\n      0x13848c3e38f8886f3f5d2ad9dff80d8092c2bbb8efd5b887a99c2c6cfc09ac2a\n        /* \"contract/wtf/call.sol\":1942:1949  success */\n      dup3\n        /* \"contract/wtf/call.sol\":1951:1955  data */\n      dup3\n        /* \"contract/wtf/call.sol\":1933:1956  Response(success, data) */\n      mload(0x40)\n      tag_29\n      swap3\n      swap2\n      swap1\n      tag_23\n      jump\t// in\n    tag_29:\n      mload(0x40)\n      dup1\n      swap2\n      sub\n      swap1\n      log1\n        /* \"contract/wtf/call.sol\":1984:1988  data */\n      dup1\n        /* \"contract/wtf/call.sol\":1973:2000  abi.decode(data, (uint256)) */\n      dup1\n      0x20\n      add\n      swap1\n      mload\n      dup2\n      add\n      swap1\n      tag_30\n      swap2\n      swap1\n      tag_31\n      jump\t// in\n    tag_30:\n        /* \"contract/wtf/call.sol\":1966:2000  return abi.decode(data, (uint256)) */\n      swap3\n      pop\n      pop\n      pop\n        /* \"contract/wtf/call.sol\":1764:2007  function getX(address payable _addr) external returns (uint256) {... */\n      swap2\n      swap1\n      pop\n      jump\t// out\n        /* \"#utility.yul\":88:205   */\n    tag_33:\n        /* \"#utility.yul\":197:198   */\n      0x00\n        /* \"#utility.yul\":194:195   */\n      dup1\n        /* \"#utility.yul\":187:199   */\n      revert\n        /* \"#utility.yul\":334:460   */\n    tag_35:\n        /* \"#utility.yul\":371:378   */\n      0x00\n        /* \"#utility.yul\":411:453   */\n      0xffffffffffffffffffffffffffffffffffffffff\n        /* \"#utility.yul\":404:409   */\n      dup3\n        /* \"#utility.yul\":400:454   */\n      and\n        /* \"#utility.yul\":389:454   */\n      swap1\n      pop\n        /* \"#utility.yul\":334:460   */\n      swap2\n      swap1\n      pop\n      jump\t// out\n        /* \"#utility.yul\":466:570   */\n    tag_36:\n        /* \"#utility.yul\":511:518   */\n      0x00\n        /* \"#utility.yul\":540:564   */\n      tag_59\n        /* \"#utility.yul\":558:563   */\n      dup3\n        /* \"#utility.yul\":540:564   */\n      tag_35\n      jump\t// in\n    tag_59:\n        /* \"#utility.yul\":529:564   */\n      swap1\n      pop\n        /* \"#utility.yul\":466:570   */\n      swap2\n      swap1\n      pop\n      jump\t// out\n        /* \"#utility.yul\":576:714   */\n    tag_37:\n        /* \"#utility.yul\":657:689   */\n      tag_61\n        /* \"#utility.yul\":683:688   */\n      dup2\n        /* \"#utility.yul\":657:689   */\n      tag_36\n      jump\t// in\n    tag_61:\n        /* \"#utility.yul\":650:655   */\n      dup2\n        /* \"#utility.yul\":647:690   */\n      eq\n        /* \"#utility.yul\":637:708   */\n      tag_62\n      jumpi\n        /* \"#utility.yul\":704:705   */\n      0x00\n        /* \"#utility.yul\":701:702   */\n      dup1\n        /* \"#utility.yul\":694:706   */\n      revert\n        /* \"#utility.yul\":637:708   */\n    tag_62:\n        /* \"#utility.yul\":576:714   */\n      pop\n      jump\t// out\n        /* \"#utility.yul\":720:875   */\n    tag_38:\n        /* \"#utility.yul\":774:779   */\n      0x00\n        /* \"#utility.yul\":812:818   */\n      dup2\n        /* \"#utility.yul\":799:819   */\n      calldataload\n        /* \"#utility.yul\":790:819   */\n      swap1\n      pop\n        /* \"#utility.yul\":828:869   */\n      tag_64\n        /* \"#utility.yul\":863:868   */\n      dup2\n        /* \"#utility.yul\":828:869   */\n      tag_37\n      jump\t// in\n    tag_64:\n        /* \"#utility.yul\":720:875   */\n      swap3\n      swap2\n      pop\n      pop\n      jump\t// out\n        /* \"#utility.yul\":881:958   */\n    tag_39:\n        /* \"#utility.yul\":918:925   */\n      0x00\n        /* \"#utility.yul\":947:952   */\n      dup2\n        /* \"#utility.yul\":936:952   */\n      swap1\n      pop\n        /* \"#utility.yul\":881:958   */\n      swap2\n      swap1\n      pop\n      jump\t// out\n        /* \"#utility.yul\":964:1086   */\n    tag_40:\n        /* \"#utility.yul\":1037:1061   */\n      tag_67\n        /* \"#utility.yul\":1055:1060   */\n      dup2\n        /* \"#utility.yul\":1037:1061   */\n      tag_39\n      jump\t// in\n    tag_67:\n        /* \"#utility.yul\":1030:1035   */\n      dup2\n        /* \"#utility.yul\":1027:1062   */\n      eq\n        /* \"#utility.yul\":1017:1080   */\n      tag_68\n      jumpi\n        /* \"#utility.yul\":1076:1077   */\n      0x00\n        /* \"#utility.yul\":1073:1074   */\n      dup1\n        /* \"#utility.yul\":1066:1078   */\n      revert\n        /* \"#utility.yul\":1017:1080   */\n    tag_68:\n        /* \"#utility.yul\":964:1086   */\n      pop\n      jump\t// out\n        /* \"#utility.yul\":1092:1231   */\n    tag_41:\n        /* \"#utility.yul\":1138:1143   */\n      0x00\n        /* \"#utility.yul\":1176:1182   */\n      dup2\n        /* \"#utility.yul\":1163:1183   */\n      calldataload\n        /* \"#utility.yul\":1154:1183   */\n      swap1\n      pop\n        /* \"#utility.yul\":1192:1225   */\n      tag_70\n        /* \"#utility.yul\":1219:1224   */\n      dup2\n        /* \"#utility.yul\":1192:1225   */\n      tag_40\n      jump\t// in\n    tag_70:\n        /* \"#utility.yul\":1092:1231   */\n      swap3\n      swap2\n      pop\n      pop\n      jump\t// out\n        /* \"#utility.yul\":1237:1727   */\n    tag_6:\n        /* \"#utility.yul\":1313:1319   */\n      0x00\n        /* \"#utility.yul\":1321:1327   */\n      dup1\n        /* \"#utility.yul\":1370:1372   */\n      0x40\n        /* \"#utility.yul\":1358:1367   */\n      dup4\n        /* \"#utility.yul\":1349:1356   */\n      dup6\n        /* \"#utility.yul\":1345:1368   */\n      sub\n        /* \"#utility.yul\":1341:1373   */\n      slt\n        /* \"#utility.yul\":1338:1457   */\n      iszero\n      tag_72\n      jumpi\n        /* \"#utility.yul\":1376:1455   */\n      tag_73\n      tag_33\n      jump\t// in\n    tag_73:\n        /* \"#utility.yul\":1338:1457   */\n    tag_72:\n        /* \"#utility.yul\":1496:1497   */\n      0x00\n        /* \"#utility.yul\":1521:1582   */\n      tag_74\n        /* \"#utility.yul\":1574:1581   */\n      dup6\n        /* \"#utility.yul\":1565:1571   */\n      dup3\n        /* \"#utility.yul\":1554:1563   */\n      dup7\n        /* \"#utility.yul\":1550:1572   */\n      add\n        /* \"#utility.yul\":1521:1582   */\n      tag_38\n      jump\t// in\n    tag_74:\n        /* \"#utility.yul\":1511:1582   */\n      swap3\n      pop\n        /* \"#utility.yul\":1467:1592   */\n      pop\n        /* \"#utility.yul\":1631:1633   */\n      0x20\n        /* \"#utility.yul\":1657:1710   */\n      tag_75\n        /* \"#utility.yul\":1702:1709   */\n      dup6\n        /* \"#utility.yul\":1693:1699   */\n      dup3\n        /* \"#utility.yul\":1682:1691   */\n      dup7\n        /* \"#utility.yul\":1678:1700   */\n      add\n        /* \"#utility.yul\":1657:1710   */\n      tag_41\n      jump\t// in\n    tag_75:\n        /* \"#utility.yul\":1647:1710   */\n      swap2\n      pop\n        /* \"#utility.yul\":1602:1720   */\n      pop\n        /* \"#utility.yul\":1237:1727   */\n      swap3\n      pop\n      swap3\n      swap1\n      pop\n      jump\t// out\n        /* \"#utility.yul\":1733:2078   */\n    tag_11:\n        /* \"#utility.yul\":1800:1806   */\n      0x00\n        /* \"#utility.yul\":1849:1851   */\n      0x20\n        /* \"#utility.yul\":1837:1846   */\n      dup3\n        /* \"#utility.yul\":1828:1835   */\n      dup5\n        /* \"#utility.yul\":1824:1847   */\n      sub\n        /* \"#utility.yul\":1820:1852   */\n      slt\n        /* \"#utility.yul\":1817:1936   */\n      iszero\n      tag_77\n      jumpi\n        /* \"#utility.yul\":1855:1934   */\n      tag_78\n      tag_33\n      jump\t// in\n    tag_78:\n        /* \"#utility.yul\":1817:1936   */\n    tag_77:\n        /* \"#utility.yul\":1975:1976   */\n      0x00\n        /* \"#utility.yul\":2000:2061   */\n      tag_79\n        /* \"#utility.yul\":2053:2060   */\n      dup5\n        /* \"#utility.yul\":2044:2050   */\n      dup3\n        /* \"#utility.yul\":2033:2042   */\n      dup6\n        /* \"#utility.yul\":2029:2051   */\n      add\n        /* \"#utility.yul\":2000:2061   */\n      tag_38\n      jump\t// in\n    tag_79:\n        /* \"#utility.yul\":1990:2061   */\n      swap2\n      pop\n        /* \"#utility.yul\":1946:2071   */\n      pop\n        /* \"#utility.yul\":1733:2078   */\n      swap3\n      swap2\n      pop\n      pop\n      jump\t// out\n        /* \"#utility.yul\":2084:2202   */\n    tag_42:\n        /* \"#utility.yul\":2171:2195   */\n      tag_81\n        /* \"#utility.yul\":2189:2194   */\n      dup2\n        /* \"#utility.yul\":2171:2195   */\n      tag_39\n      jump\t// in\n    tag_81:\n        /* \"#utility.yul\":2166:2169   */\n      dup3\n        /* \"#utility.yul\":2159:2196   */\n      mstore\n        /* \"#utility.yul\":2084:2202   */\n      pop\n      pop\n      jump\t// out\n        /* \"#utility.yul\":2208:2430   */\n    tag_14:\n        /* \"#utility.yul\":2301:2305   */\n      0x00\n        /* \"#utility.yul\":2339:2341   */\n      0x20\n        /* \"#utility.yul\":2328:2337   */\n      dup3\n        /* \"#utility.yul\":2324:2342   */\n      add\n        /* \"#utility.yul\":2316:2342   */\n      swap1\n      pop\n        /* \"#utility.yul\":2352:2423   */\n      tag_83\n        /* \"#utility.yul\":2420:2421   */\n      0x00\n        /* \"#utility.yul\":2409:2418   */\n      dup4\n        /* \"#utility.yul\":2405:2422   */\n      add\n        /* \"#utility.yul\":2396:2402   */\n      dup5\n        /* \"#utility.yul\":2352:2423   */\n      tag_42\n      jump\t// in\n    tag_83:\n        /* \"#utility.yul\":2208:2430   */\n      swap3\n      swap2\n      pop\n      pop\n      jump\t// out\n        /* \"#utility.yul\":2436:2534   */\n    tag_43:\n        /* \"#utility.yul\":2487:2493   */\n      0x00\n        /* \"#utility.yul\":2521:2526   */\n      dup2\n        /* \"#utility.yul\":2515:2527   */\n      mload\n        /* \"#utility.yul\":2505:2527   */\n      swap1\n      pop\n        /* \"#utility.yul\":2436:2534   */\n      swap2\n      swap1\n      pop\n      jump\t// out\n        /* \"#utility.yul\":2540:2687   */\n    tag_44:\n        /* \"#utility.yul\":2641:2652   */\n      0x00\n        /* \"#utility.yul\":2678:2681   */\n      dup2\n        /* \"#utility.yul\":2663:2681   */\n      swap1\n      pop\n        /* \"#utility.yul\":2540:2687   */\n      swap3\n      swap2\n      pop\n      pop\n      jump\t// out\n        /* \"#utility.yul\":2693:2832   */\n    tag_45:\n        /* \"#utility.yul\":2782:2788   */\n      dup3\n        /* \"#utility.yul\":2777:2780   */\n      dup2\n        /* \"#utility.yul\":2772:2775   */\n      dup4\n        /* \"#utility.yul\":2766:2789   */\n      mcopy\n        /* \"#utility.yul\":2823:2824   */\n      0x00\n        /* \"#utility.yul\":2814:2820   */\n      dup4\n        /* \"#utility.yul\":2809:2812   */\n      dup4\n        /* \"#utility.yul\":2805:2821   */\n      add\n        /* \"#utility.yul\":2798:2825   */\n      mstore\n        /* \"#utility.yul\":2693:2832   */\n      pop\n      pop\n      pop\n      jump\t// out\n        /* \"#utility.yul\":2838:3224   */\n    tag_46:\n        /* \"#utility.yul\":2942:2945   */\n      0x00\n        /* \"#utility.yul\":2970:3008   */\n      tag_88\n        /* \"#utility.yul\":3002:3007   */\n      dup3\n        /* \"#utility.yul\":2970:3008   */\n      tag_43\n      jump\t// in\n    tag_88:\n        /* \"#utility.yul\":3024:3112   */\n      tag_89\n        /* \"#utility.yul\":3105:3111   */\n      dup2\n        /* \"#utility.yul\":3100:3103   */\n      dup6\n        /* \"#utility.yul\":3024:3112   */\n      tag_44\n      jump\t// in\n    tag_89:\n        /* \"#utility.yul\":3017:3112   */\n      swap4\n      pop\n        /* \"#utility.yul\":3121:3186   */\n      tag_90\n        /* \"#utility.yul\":3179:3185   */\n      dup2\n        /* \"#utility.yul\":3174:3177   */\n      dup6\n        /* \"#utility.yul\":3167:3171   */\n      0x20\n        /* \"#utility.yul\":3160:3165   */\n      dup7\n        /* \"#utility.yul\":3156:3172   */\n      add\n        /* \"#utility.yul\":3121:3186   */\n      tag_45\n      jump\t// in\n    tag_90:\n        /* \"#utility.yul\":3211:3217   */\n      dup1\n        /* \"#utility.yul\":3206:3209   */\n      dup5\n        /* \"#utility.yul\":3202:3218   */\n      add\n        /* \"#utility.yul\":3195:3218   */\n      swap2\n      pop\n        /* \"#utility.yul\":2946:3224   */\n      pop\n        /* \"#utility.yul\":2838:3224   */\n      swap3\n      swap2\n      pop\n      pop\n      jump\t// out\n        /* \"#utility.yul\":3230:3501   */\n    tag_18:\n        /* \"#utility.yul\":3360:3363   */\n      0x00\n        /* \"#utility.yul\":3382:3475   */\n      tag_92\n        /* \"#utility.yul\":3471:3474   */\n      dup3\n        /* \"#utility.yul\":3462:3468   */\n      dup5\n        /* \"#utility.yul\":3382:3475   */\n      tag_46\n      jump\t// in\n    tag_92:\n        /* \"#utility.yul\":3375:3475   */\n      swap2\n      pop\n        /* \"#utility.yul\":3492:3495   */\n      dup2\n        /* \"#utility.yul\":3485:3495   */\n      swap1\n      pop\n        /* \"#utility.yul\":3230:3501   */\n      swap3\n      swap2\n      pop\n      pop\n      jump\t// out\n        /* \"#utility.yul\":3507:3597   */\n    tag_47:\n        /* \"#utility.yul\":3541:3548   */\n      0x00\n        /* \"#utility.yul\":3584:3589   */\n      dup2\n        /* \"#utility.yul\":3577:3590   */\n      iszero\n        /* \"#utility.yul\":3570:3591   */\n      iszero\n        /* \"#utility.yul\":3559:3591   */\n      swap1\n      pop\n        /* \"#utility.yul\":3507:3597   */\n      swap2\n      swap1\n      pop\n      jump\t// out\n        /* \"#utility.yul\":3603:3712   */\n    tag_48:\n        /* \"#utility.yul\":3684:3705   */\n      tag_95\n        /* \"#utility.yul\":3699:3704   */\n      dup2\n        /* \"#utility.yul\":3684:3705   */\n      tag_47\n      jump\t// in\n    tag_95:\n        /* \"#utility.yul\":3679:3682   */\n      dup3\n        /* \"#utility.yul\":3672:3706   */\n      mstore\n        /* \"#utility.yul\":3603:3712   */\n      pop\n      pop\n      jump\t// out\n        /* \"#utility.yul\":3718:3886   */\n    tag_49:\n        /* \"#utility.yul\":3801:3812   */\n      0x00\n        /* \"#utility.yul\":3835:3841   */\n      dup3\n        /* \"#utility.yul\":3830:3833   */\n      dup3\n        /* \"#utility.yul\":3823:3842   */\n      mstore\n        /* \"#utility.yul\":3875:3879   */\n      0x20\n        /* \"#utility.yul\":3870:3873   */\n      dup3\n        /* \"#utility.yul\":3866:3880   */\n      add\n        /* \"#utility.yul\":3851:3880   */\n      swap1\n      pop\n        /* \"#utility.yul\":3718:3886   */\n      swap3\n      swap2\n      pop\n      pop\n      jump\t// out\n        /* \"#utility.yul\":3892:3994   */\n    tag_50:\n        /* \"#utility.yul\":3933:3939   */\n      0x00\n        /* \"#utility.yul\":3984:3986   */\n      0x1f\n        /* \"#utility.yul\":3980:3987   */\n      not\n        /* \"#utility.yul\":3975:3977   */\n      0x1f\n        /* \"#utility.yul\":3968:3973   */\n      dup4\n        /* \"#utility.yul\":3964:3978   */\n      add\n        /* \"#utility.yul\":3960:3988   */\n      and\n        /* \"#utility.yul\":3950:3988   */\n      swap1\n      pop\n        /* \"#utility.yul\":3892:3994   */\n      swap2\n      swap1\n      pop\n      jump\t// out\n        /* \"#utility.yul\":4000:4373   */\n    tag_51:\n        /* \"#utility.yul\":4086:4089   */\n      0x00\n        /* \"#utility.yul\":4114:4152   */\n      tag_99\n        /* \"#utility.yul\":4146:4151   */\n      dup3\n        /* \"#utility.yul\":4114:4152   */\n      tag_43\n      jump\t// in\n    tag_99:\n        /* \"#utility.yul\":4168:4238   */\n      tag_100\n        /* \"#utility.yul\":4231:4237   */\n      dup2\n        /* \"#utility.yul\":4226:4229   */\n      dup6\n        /* \"#utility.yul\":4168:4238   */\n      tag_49\n      jump\t// in\n    tag_100:\n        /* \"#utility.yul\":4161:4238   */\n      swap4\n      pop\n        /* \"#utility.yul\":4247:4312   */\n      tag_101\n        /* \"#utility.yul\":4305:4311   */\n      dup2\n        /* \"#utility.yul\":4300:4303   */\n      dup6\n        /* \"#utility.yul\":4293:4297   */\n      0x20\n        /* \"#utility.yul\":4286:4291   */\n      dup7\n        /* \"#utility.yul\":4282:4298   */\n      add\n        /* \"#utility.yul\":4247:4312   */\n      tag_45\n      jump\t// in\n    tag_101:\n        /* \"#utility.yul\":4337:4366   */\n      tag_102\n        /* \"#utility.yul\":4359:4365   */\n      dup2\n        /* \"#utility.yul\":4337:4366   */\n      tag_50\n      jump\t// in\n    tag_102:\n        /* \"#utility.yul\":4332:4335   */\n      dup5\n        /* \"#utility.yul\":4328:4367   */\n      add\n        /* \"#utility.yul\":4321:4367   */\n      swap2\n      pop\n        /* \"#utility.yul\":4090:4373   */\n      pop\n        /* \"#utility.yul\":4000:4373   */\n      swap3\n      swap2\n      pop\n      pop\n      jump\t// out\n        /* \"#utility.yul\":4379:4786   */\n    tag_23:\n        /* \"#utility.yul\":4512:4516   */\n      0x00\n        /* \"#utility.yul\":4550:4552   */\n      0x40\n        /* \"#utility.yul\":4539:4548   */\n      dup3\n        /* \"#utility.yul\":4535:4553   */\n      add\n        /* \"#utility.yul\":4527:4553   */\n      swap1\n      pop\n        /* \"#utility.yul\":4563:4628   */\n      tag_104\n        /* \"#utility.yul\":4625:4626   */\n      0x00\n        /* \"#utility.yul\":4614:4623   */\n      dup4\n        /* \"#utility.yul\":4610:4627   */\n      add\n        /* \"#utility.yul\":4601:4607   */\n      dup6\n        /* \"#utility.yul\":4563:4628   */\n      tag_48\n      jump\t// in\n    tag_104:\n        /* \"#utility.yul\":4675:4684   */\n      dup2\n        /* \"#utility.yul\":4669:4673   */\n      dup2\n        /* \"#utility.yul\":4665:4685   */\n      sub\n        /* \"#utility.yul\":4660:4662   */\n      0x20\n        /* \"#utility.yul\":4649:4658   */\n      dup4\n        /* \"#utility.yul\":4645:4663   */\n      add\n        /* \"#utility.yul\":4638:4686   */\n      mstore\n        /* \"#utility.yul\":4703:4779   */\n      tag_105\n        /* \"#utility.yul\":4774:4778   */\n      dup2\n        /* \"#utility.yul\":4765:4771   */\n      dup5\n        /* \"#utility.yul\":4703:4779   */\n      tag_51\n      jump\t// in\n    tag_105:\n        /* \"#utility.yul\":4695:4779   */\n      swap1\n      pop\n        /* \"#utility.yul\":4379:4786   */\n      swap4\n      swap3\n      pop\n      pop\n      pop\n      jump\t// out\n        /* \"#utility.yul\":4792:4935   */\n    tag_52:\n        /* \"#utility.yul\":4849:4854   */\n      0x00\n        /* \"#utility.yul\":4880:4886   */\n      dup2\n        /* \"#utility.yul\":4874:4887   */\n      mload\n        /* \"#utility.yul\":4865:4887   */\n      swap1\n      pop\n        /* \"#utility.yul\":4896:4929   */\n      tag_107\n        /* \"#utility.yul\":4923:4928   */\n      dup2\n        /* \"#utility.yul\":4896:4929   */\n      tag_40\n      jump\t// in\n    tag_107:\n        /* \"#utility.yul\":4792:4935   */\n      swap3\n      swap2\n      pop\n      pop\n      jump\t// out\n        /* \"#utility.yul\":4941:5292   */\n    tag_31:\n        /* \"#utility.yul\":5011:5017   */\n      0x00\n        /* \"#utility.yul\":5060:5062   */\n      0x20\n        /* \"#utility.yul\":5048:5057   */\n      dup3\n        /* \"#utility.yul\":5039:5046   */\n      dup5\n        /* \"#utility.yul\":5035:5058   */\n      sub\n        /* \"#utility.yul\":5031:5063   */\n      slt\n        /* \"#utility.yul\":5028:5147   */\n      iszero\n      tag_109\n      jumpi\n        /* \"#utility.yul\":5066:5145   */\n      tag_110\n      tag_33\n      jump\t// in\n    tag_110:\n        /* \"#utility.yul\":5028:5147   */\n    tag_109:\n        /* \"#utility.yul\":5186:5187   */\n      0x00\n        /* \"#utility.yul\":5211:5275   */\n      tag_111\n        /* \"#utility.yul\":5267:5274   */\n      dup5\n        /* \"#utility.yul\":5258:5264   */\n      dup3\n        /* \"#utility.yul\":5247:5256   */\n      dup6\n        /* \"#utility.yul\":5243:5265   */\n      add\n        /* \"#utility.yul\":5211:5275   */\n      tag_52\n      jump\t// in\n    tag_111:\n        /* \"#utility.yul\":5201:5275   */\n      swap2\n      pop\n        /* \"#utility.yul\":5157:5285   */\n      pop\n        /* \"#utility.yul\":4941:5292   */\n      swap3\n      swap2\n      pop\n      pop\n      jump\t// out\n\n    auxdata: 0xa2646970667358221220c7aca8c83eb0f72bb88f67cdf8c349f31f2ee8b6c249326f1db8c5a4f2c2a14664736f6c634300081a0033\n}\n",
				"bytecode": {
					"linkReferences": {},
					"object": "6080604052348015600e575f80fd5b5061059e8061001c5f395ff3fe608060405260043610610028575f3560e01c80633ca065bb1461002c5780637c94c8ca14610048575b5f80fd5b61004660048036038101906100419190610390565b610084565b005b348015610053575f80fd5b5061006e600480360381019061006991906103ce565b6101bc565b60405161007b9190610408565b60405180910390f35b5f808373ffffffffffffffffffffffffffffffffffffffff1634846040516024016100af9190610408565b6040516020818303038152906040527fd849c3a0000000000000000000000000000000000000000000000000000000007bffffffffffffffffffffffffffffffffffffffffffffffffffffffff19166020820180517bffffffffffffffffffffffffffffffffffffffffffffffffffffffff83818316178352505050506040516101399190610473565b5f6040518083038185875af1925050503d805f8114610173576040519150601f19603f3d011682016040523d82523d5f602084013e610178565b606091505b50915091507f13848c3e38f8886f3f5d2ad9dff80d8092c2bbb8efd5b887a99c2c6cfc09ac2a82826040516101ae9291906104fb565b60405180910390a150505050565b5f805f8373ffffffffffffffffffffffffffffffffffffffff166040516024016040516020818303038152906040527f5197c7aa000000000000000000000000000000000000000000000000000000007bffffffffffffffffffffffffffffffffffffffffffffffffffffffff19166020820180517bffffffffffffffffffffffffffffffffffffffffffffffffffffffff83818316178352505050506040516102669190610473565b5f604051808303815f865af19150503d805f811461029f576040519150601f19603f3d011682016040523d82523d5f602084013e6102a4565b606091505b50915091507f13848c3e38f8886f3f5d2ad9dff80d8092c2bbb8efd5b887a99c2c6cfc09ac2a82826040516102da9291906104fb565b60405180910390a1808060200190518101906102f6919061053d565b92505050919050565b5f80fd5b5f73ffffffffffffffffffffffffffffffffffffffff82169050919050565b5f61032c82610303565b9050919050565b61033c81610322565b8114610346575f80fd5b50565b5f8135905061035781610333565b92915050565b5f819050919050565b61036f8161035d565b8114610379575f80fd5b50565b5f8135905061038a81610366565b92915050565b5f80604083850312156103a6576103a56102ff565b5b5f6103b385828601610349565b92505060206103c48582860161037c565b9150509250929050565b5f602082840312156103e3576103e26102ff565b5b5f6103f084828501610349565b91505092915050565b6104028161035d565b82525050565b5f60208201905061041b5f8301846103f9565b92915050565b5f81519050919050565b5f81905092915050565b8281835e5f83830152505050565b5f61044d82610421565b610457818561042b565b9350610467818560208601610435565b80840191505092915050565b5f61047e8284610443565b915081905092915050565b5f8115159050919050565b61049d81610489565b82525050565b5f82825260208201905092915050565b5f601f19601f8301169050919050565b5f6104cd82610421565b6104d781856104a3565b93506104e7818560208601610435565b6104f0816104b3565b840191505092915050565b5f60408201905061050e5f830185610494565b818103602083015261052081846104c3565b90509392505050565b5f8151905061053781610366565b92915050565b5f60208284031215610552576105516102ff565b5b5f61055f84828501610529565b9150509291505056fea2646970667358221220c7aca8c83eb0f72bb88f67cdf8c349f31f2ee8b6c249326f1db8c5a4f2c2a14664736f6c634300081a0033",
					"opcodes": "PUSH1 0x80 PUSH1 0x40 MSTORE CALLVALUE DUP1 ISZERO PUSH1 0xE JUMPI PUSH0 DUP1 REVERT JUMPDEST POP PUSH2 0x59E DUP1 PUSH2 0x1C PUSH0 CODECOPY PUSH0 RETURN INVALID PUSH1 0x80 PUSH1 0x40 MSTORE PUSH1 0x4 CALLDATASIZE LT PUSH2 0x28 JUMPI PUSH0 CALLDATALOAD PUSH1 0xE0 SHR DUP1 PUSH4 0x3CA065BB EQ PUSH2 0x2C JUMPI DUP1 PUSH4 0x7C94C8CA EQ PUSH2 0x48 JUMPI JUMPDEST PUSH0 DUP1 REVERT JUMPDEST PUSH2 0x46 PUSH1 0x4 DUP1 CALLDATASIZE SUB DUP2 ADD SWAP1 PUSH2 0x41 SWAP2 SWAP1 PUSH2 0x390 JUMP JUMPDEST PUSH2 0x84 JUMP JUMPDEST STOP JUMPDEST CALLVALUE DUP1 ISZERO PUSH2 0x53 JUMPI PUSH0 DUP1 REVERT JUMPDEST POP PUSH2 0x6E PUSH1 0x4 DUP1 CALLDATASIZE SUB DUP2 ADD SWAP1 PUSH2 0x69 SWAP2 SWAP1 PUSH2 0x3CE JUMP JUMPDEST PUSH2 0x1BC JUMP JUMPDEST PUSH1 0x40 MLOAD PUSH2 0x7B SWAP2 SWAP1 PUSH2 0x408 JUMP JUMPDEST PUSH1 0x40 MLOAD DUP1 SWAP2 SUB SWAP1 RETURN JUMPDEST PUSH0 DUP1 DUP4 PUSH20 0xFFFFFFFFFFFFFFFFFFFFFFFFFFFFFFFFFFFFFFFF AND CALLVALUE DUP5 PUSH1 0x40 MLOAD PUSH1 0x24 ADD PUSH2 0xAF SWAP2 SWAP1 PUSH2 0x408 JUMP JUMPDEST PUSH1 0x40 MLOAD PUSH1 0x20 DUP2 DUP4 SUB SUB DUP2 MSTORE SWAP1 PUSH1 0x40 MSTORE PUSH32 0xD849C3A000000000000000000000000000000000000000000000000000000000 PUSH28 0xFFFFFFFFFFFFFFFFFFFFFFFFFFFFFFFFFFFFFFFFFFFFFFFFFFFFFFFF NOT AND PUSH1 0x20 DUP3 ADD DUP1 MLOAD PUSH28 0xFFFFFFFFFFFFFFFFFFFFFFFFFFFFFFFFFFFFFFFFFFFFFFFFFFFFFFFF DUP4 DUP2 DUP4 AND OR DUP4 MSTORE POP POP POP POP PUSH1 0x40 MLOAD PUSH2 0x139 SWAP2 SWAP1 PUSH2 0x473 JUMP JUMPDEST PUSH0 PUSH1 0x40 MLOAD DUP1 DUP4 SUB DUP2 DUP6 DUP8 GAS CALL SWAP3 POP POP POP RETURNDATASIZE DUP1 PUSH0 DUP2 EQ PUSH2 0x173 JUMPI PUSH1 0x40 MLOAD SWAP2 POP PUSH1 0x1F NOT PUSH1 0x3F RETURNDATASIZE ADD AND DUP3 ADD PUSH1 0x40 MSTORE RETURNDATASIZE DUP3 MSTORE RETURNDATASIZE PUSH0 PUSH1 0x20 DUP5 ADD RETURNDATACOPY PUSH2 0x178 JUMP JUMPDEST PUSH1 0x60 SWAP2 POP JUMPDEST POP SWAP2 POP SWAP2 POP PUSH32 0x13848C3E38F8886F3F5D2AD9DFF80D8092C2BBB8EFD5B887A99C2C6CFC09AC2A DUP3 DUP3 PUSH1 0x40 MLOAD PUSH2 0x1AE SWAP3 SWAP2 SWAP1 PUSH2 0x4FB JUMP JUMPDEST PUSH1 0x40 MLOAD DUP1 SWAP2 SUB SWAP1 LOG1 POP POP POP POP JUMP JUMPDEST PUSH0 DUP1 PUSH0 DUP4 PUSH20 0xFFFFFFFFFFFFFFFFFFFFFFFFFFFFFFFFFFFFFFFF AND PUSH1 0x40 MLOAD PUSH1 0x24 ADD PUSH1 0x40 MLOAD PUSH1 0x20 DUP2 DUP4 SUB SUB DUP2 MSTORE SWAP1 PUSH1 0x40 MSTORE PUSH32 0x5197C7AA00000000000000000000000000000000000000000000000000000000 PUSH28 0xFFFFFFFFFFFFFFFFFFFFFFFFFFFFFFFFFFFFFFFFFFFFFFFFFFFFFFFF NOT AND PUSH1 0x20 DUP3 ADD DUP1 MLOAD PUSH28 0xFFFFFFFFFFFFFFFFFFFFFFFFFFFFFFFFFFFFFFFFFFFFFFFFFFFFFFFF DUP4 DUP2 DUP4 AND OR DUP4 MSTORE POP POP POP POP PUSH1 0x40 MLOAD PUSH2 0x266 SWAP2 SWAP1 PUSH2 0x473 JUMP JUMPDEST PUSH0 PUSH1 0x40 MLOAD DUP1 DUP4 SUB DUP2 PUSH0 DUP7 GAS CALL SWAP2 POP POP RETURNDATASIZE DUP1 PUSH0 DUP2 EQ PUSH2 0x29F JUMPI PUSH1 0x40 MLOAD SWAP2 POP PUSH1 0x1F NOT PUSH1 0x3F RETURNDATASIZE ADD AND DUP3 ADD PUSH1 0x40 MSTORE RETURNDATASIZE DUP3 MSTORE RETURNDATASIZE PUSH0 PUSH1 0x20 DUP5 ADD RETURNDATACOPY PUSH2 0x2A4 JUMP JUMPDEST PUSH1 0x60 SWAP2 POP JUMPDEST POP SWAP2 POP SWAP2 POP PUSH32 0x13848C3E38F8886F3F5D2AD9DFF80D8092C2BBB8EFD5B887A99C2C6CFC09AC2A DUP3 DUP3 PUSH1 0x40 MLOAD PUSH2 0x2DA SWAP3 SWAP2 SWAP1 PUSH2 0x4FB JUMP JUMPDEST PUSH1 0x40 MLOAD DUP1 SWAP2 SUB SWAP1 LOG1 DUP1 DUP1 PUSH1 0x20 ADD SWAP1 MLOAD DUP2 ADD SWAP1 PUSH2 0x2F6 SWAP2 SWAP1 PUSH2 0x53D JUMP JUMPDEST SWAP3 POP POP POP SWAP2 SWAP1 POP JUMP JUMPDEST PUSH0 DUP1 REVERT JUMPDEST PUSH0 PUSH20 0xFFFFFFFFFFFFFFFFFFFFFFFFFFFFFFFFFFFFFFFF DUP3 AND SWAP1 POP SWAP2 SWAP1 POP JUMP JUMPDEST PUSH0 PUSH2 0x32C DUP3 PUSH2 0x303 JUMP JUMPDEST SWAP1 POP SWAP2 SWAP1 POP JUMP JUMPDEST PUSH2 0x33C DUP2 PUSH2 0x322 JUMP JUMPDEST DUP2 EQ PUSH2 0x346 JUMPI PUSH0 DUP1 REVERT JUMPDEST POP JUMP JUMPDEST PUSH0 DUP2 CALLDATALOAD SWAP1 POP PUSH2 0x357 DUP2 PUSH2 0x333 JUMP JUMPDEST SWAP3 SWAP2 POP POP JUMP JUMPDEST PUSH0 DUP2 SWAP1 POP SWAP2 SWAP1 POP JUMP JUMPDEST PUSH2 0x36F DUP2 PUSH2 0x35D JUMP JUMPDEST DUP2 EQ PUSH2 0x379 JUMPI PUSH0 DUP1 REVERT JUMPDEST POP JUMP JUMPDEST PUSH0 DUP2 CALLDATALOAD SWAP1 POP PUSH2 0x38A DUP2 PUSH2 0x366 JUMP JUMPDEST SWAP3 SWAP2 POP POP JUMP JUMPDEST PUSH0 DUP1 PUSH1 0x40 DUP4 DUP6 SUB SLT ISZERO PUSH2 0x3A6 JUMPI PUSH2 0x3A5 PUSH2 0x2FF JUMP JUMPDEST JUMPDEST PUSH0 PUSH2 0x3B3 DUP6 DUP3 DUP7 ADD PUSH2 0x349 JUMP JUMPDEST SWAP3 POP POP PUSH1 0x20 PUSH2 0x3C4 DUP6 DUP3 DUP7 ADD PUSH2 0x37C JUMP JUMPDEST SWAP2 POP POP SWAP3 POP SWAP3 SWAP1 POP JUMP JUMPDEST PUSH0 PUSH1 0x20 DUP3 DUP5 SUB SLT ISZERO PUSH2 0x3E3 JUMPI PUSH2 0x3E2 PUSH2 0x2FF JUMP JUMPDEST JUMPDEST PUSH0 PUSH2 0x3F0 DUP5 DUP3 DUP6 ADD PUSH2 0x349 JUMP JUMPDEST SWAP2 POP POP SWAP3 SWAP2 POP POP JUMP JUMPDEST PUSH2 0x402 DUP2 PUSH2 0x35D JUMP JUMPDEST DUP3 MSTORE POP POP JUMP JUMPDEST PUSH0 PUSH1 0x20 DUP3 ADD SWAP1 POP PUSH2 0x41B PUSH0 DUP4 ADD DUP5 PUSH2 0x3F9 JUMP JUMPDEST SWAP3 SWAP2 POP POP JUMP JUMPDEST PUSH0 DUP2 MLOAD SWAP1 POP SWAP2 SWAP1 POP JUMP JUMPDEST PUSH0 DUP2 SWAP1 POP SWAP3 SWAP2 POP POP JUMP JUMPDEST DUP3 DUP2 DUP4 MCOPY PUSH0 DUP4 DUP4 ADD MSTORE POP POP POP JUMP JUMPDEST PUSH0 PUSH2 0x44D DUP3 PUSH2 0x421 JUMP JUMPDEST PUSH2 0x457 DUP2 DUP6 PUSH2 0x42B JUMP JUMPDEST SWAP4 POP PUSH2 0x467 DUP2 DUP6 PUSH1 0x20 DUP7 ADD PUSH2 0x435 JUMP JUMPDEST DUP1 DUP5 ADD SWAP2 POP POP SWAP3 SWAP2 POP POP JUMP JUMPDEST PUSH0 PUSH2 0x47E DUP3 DUP5 PUSH2 0x443 JUMP JUMPDEST SWAP2 POP DUP2 SWAP1 POP SWAP3 SWAP2 POP POP JUMP JUMPDEST PUSH0 DUP2 ISZERO ISZERO SWAP1 POP SWAP2 SWAP1 POP JUMP JUMPDEST PUSH2 0x49D DUP2 PUSH2 0x489 JUMP JUMPDEST DUP3 MSTORE POP POP JUMP JUMPDEST PUSH0 DUP3 DUP3 MSTORE PUSH1 0x20 DUP3 ADD SWAP1 POP SWAP3 SWAP2 POP POP JUMP JUMPDEST PUSH0 PUSH1 0x1F NOT PUSH1 0x1F DUP4 ADD AND SWAP1 POP SWAP2 SWAP1 POP JUMP JUMPDEST PUSH0 PUSH2 0x4CD DUP3 PUSH2 0x421 JUMP JUMPDEST PUSH2 0x4D7 DUP2 DUP6 PUSH2 0x4A3 JUMP JUMPDEST SWAP4 POP PUSH2 0x4E7 DUP2 DUP6 PUSH1 0x20 DUP7 ADD PUSH2 0x435 JUMP JUMPDEST PUSH2 0x4F0 DUP2 PUSH2 0x4B3 JUMP JUMPDEST DUP5 ADD SWAP2 POP POP SWAP3 SWAP2 POP POP JUMP JUMPDEST PUSH0 PUSH1 0x40 DUP3 ADD SWAP1 POP PUSH2 0x50E PUSH0 DUP4 ADD DUP6 PUSH2 0x494 JUMP JUMPDEST DUP2 DUP2 SUB PUSH1 0x20 DUP4 ADD MSTORE PUSH2 0x520 DUP2 DUP5 PUSH2 0x4C3 JUMP JUMPDEST SWAP1 POP SWAP4 SWAP3 POP POP POP JUMP JUMPDEST PUSH0 DUP2 MLOAD SWAP1 POP PUSH2 0x537 DUP2 PUSH2 0x366 JUMP JUMPDEST SWAP3 SWAP2 POP POP JUMP JUMPDEST PUSH0 PUSH1 0x20 DUP3 DUP5 SUB SLT ISZERO PUSH2 0x552 JUMPI PUSH2 0x551 PUSH2 0x2FF JUMP JUMPDEST JUMPDEST PUSH0 PUSH2 0x55F DUP5 DUP3 DUP6 ADD PUSH2 0x529 JUMP JUMPDEST SWAP2 POP POP SWAP3 SWAP2 POP POP JUMP INVALID LOG2 PUSH5 0x6970667358 0x22 SLT KECCAK256 0xC7 0xAC 0xA8 0xC8 RETURNDATACOPY 0xB0 0xF7 0x2B 0xB8 DUP16 PUSH8 0xCDF8C349F31F2EE8 0xB6 0xC2 BLOBHASH ORIGIN PUSH16 0x1DB8C5A4F2C2A14664736F6C63430008 BYTE STOP CALLER "
				},
				"gasEstimates": {
					"creation": {
						"codeDepositCost": "287600",
						"executionCost": "322",
						"totalCost": "287922"
					},
					"external": {
						"callSetX(address,uint256)": "infinite",
						"getX(address)": "infinite"
					}
				},
				"methodIdentifiers": {
					"callSetX(address,uint256)": "3ca065bb",
					"getX(address)": "7c94c8ca"
				}
			},
			"storageLayout": {
				"storage": [],
				"types": null
			},
			"userdoc": {
				"kind": "user",
				"methods": {},
				"version": 1
			}
		}
	}
}