{
	"contract/3-4/发送以太.sol": {
		"D": {
			"abi": [
				{
					"inputs": [],
					"stateMutability": "nonpayable",
					"type": "constructor"
				},
				{
					"anonymous": false,
					"inputs": [
						{
							"indexed": true,
							"internalType": "address",
							"name": "",
							"type": "address"
						},
						{
							"indexed": false,
							"internalType": "string",
							"name": "",
							"type": "string"
						}
					],
					"name": "LOG",
					"type": "event"
				},
				{
					"stateMutability": "payable",
					"type": "fallback"
				},
				{
					"inputs": [],
					"name": "Owner",
					"outputs": [
						{
							"internalType": "address",
							"name": "",
							"type": "address"
						}
					],
					"stateMutability": "view",
					"type": "function"
				},
				{
					"inputs": [],
					"name": "deposi",
					"outputs": [],
					"stateMutability": "payable",
					"type": "function"
				},
				{
					"inputs": [],
					"name": "getBalance",
					"outputs": [
						{
							"internalType": "uint256",
							"name": "",
							"type": "uint256"
						}
					],
					"stateMutability": "view",
					"type": "function"
				},
				{
					"inputs": [
						{
							"internalType": "address payable",
							"name": "_addr",
							"type": "address"
						}
					],
					"name": "myCall",
					"outputs": [],
					"stateMutability": "payable",
					"type": "function"
				},
				{
					"inputs": [
						{
							"internalType": "address payable",
							"name": "_addr",
							"type": "address"
						}
					],
					"name": "mySend",
					"outputs": [],
					"stateMutability": "payable",
					"type": "function"
				},
				{
					"inputs": [
						{
							"internalType": "address payable",
							"name": "_addr",
							"type": "address"
						}
					],
					"name": "myTransfer",
					"outputs": [],
					"stateMutability": "payable",
					"type": "function"
				},
				{
					"stateMutability": "payable",
					"type": "receive"
				}
			],
			"devdoc": {
				"kind": "dev",
				"methods": {},
				"version": 1
			},
			"evm": {
				"assembly": "    /* \"contract/3-4/\\xe5\\x8f\\x91\\xe9\\x80\\x81\\xe4\\xbb\\xa5\\xe5\\xa4\\xaa.sol\":70:958  contract D {... */\n  mstore(0x40, 0x80)\n    /* \"contract/3-4/\\xe5\\x8f\\x91\\xe9\\x80\\x81\\xe4\\xbb\\xa5\\xe5\\xa4\\xaa.sol\":155:204  constructor() {... */\n  callvalue\n  dup1\n  iszero\n  tag_1\n  jumpi\n  0x00\n  dup1\n  revert\ntag_1:\n  pop\n    /* \"contract/3-4/\\xe5\\x8f\\x91\\xe9\\x80\\x81\\xe4\\xbb\\xa5\\xe5\\xa4\\xaa.sol\":187:197  msg.sender */\n  caller\n    /* \"contract/3-4/\\xe5\\x8f\\x91\\xe9\\x80\\x81\\xe4\\xbb\\xa5\\xe5\\xa4\\xaa.sol\":179:184  Owner */\n  0x00\n  dup1\n    /* \"contract/3-4/\\xe5\\x8f\\x91\\xe9\\x80\\x81\\xe4\\xbb\\xa5\\xe5\\xa4\\xaa.sol\":179:197  Owner = msg.sender */\n  0x0100\n  exp\n  dup2\n  sload\n  dup2\n  0xffffffffffffffffffffffffffffffffffffffff\n  mul\n  not\n  and\n  swap1\n  dup4\n  0xffffffffffffffffffffffffffffffffffffffff\n  and\n  mul\n  or\n  swap1\n  sstore\n  pop\n    /* \"contract/3-4/\\xe5\\x8f\\x91\\xe9\\x80\\x81\\xe4\\xbb\\xa5\\xe5\\xa4\\xaa.sol\":70:958  contract D {... */\n  dataSize(sub_0)\n  dup1\n  dataOffset(sub_0)\n  0x00\n  codecopy\n  0x00\n  return\nstop\n\nsub_0: assembly {\n        /* \"contract/3-4/\\xe5\\x8f\\x91\\xe9\\x80\\x81\\xe4\\xbb\\xa5\\xe5\\xa4\\xaa.sol\":70:958  contract D {... */\n      mstore(0x40, 0x80)\n      jumpi(tag_1, lt(calldatasize, 0x04))\n      shr(0xe0, calldataload(0x00))\n      dup1\n      0x12065fe0\n      eq\n      tag_3\n      jumpi\n      dup1\n      0x17542cb6\n      eq\n      tag_4\n      jumpi\n      dup1\n      0x868a0ee4\n      eq\n      tag_5\n      jumpi\n      dup1\n      0xa482bda5\n      eq\n      tag_6\n      jumpi\n      dup1\n      0xb4a99a4e\n      eq\n      tag_7\n      jumpi\n      dup1\n      0xbe62ca11\n      eq\n      tag_8\n      jumpi\n      jump(tag_2)\n    tag_1:\n      jumpi(tag_2, calldatasize)\n        /* \"contract/3-4/\\xe5\\x8f\\x91\\xe9\\x80\\x81\\xe4\\xbb\\xa5\\xe5\\xa4\\xaa.sol\":339:349  msg.sender */\n      caller\n        /* \"contract/3-4/\\xe5\\x8f\\x91\\xe9\\x80\\x81\\xe4\\xbb\\xa5\\xe5\\xa4\\xaa.sol\":335:361  LOG(msg.sender, \"receive\") */\n      0xffffffffffffffffffffffffffffffffffffffff\n      and\n      0xd9f30d31917e7b1f6c981a060f853194148bfe2462d2a940872d22acf6ec99c8\n      mload(0x40)\n      tag_11\n      swap1\n      tag_12\n      jump\t// in\n    tag_11:\n      mload(0x40)\n      dup1\n      swap2\n      sub\n      swap1\n      log2\n        /* \"contract/3-4/\\xe5\\x8f\\x91\\xe9\\x80\\x81\\xe4\\xbb\\xa5\\xe5\\xa4\\xaa.sol\":70:958  contract D {... */\n      stop\n    tag_2:\n        /* \"contract/3-4/\\xe5\\x8f\\x91\\xe9\\x80\\x81\\xe4\\xbb\\xa5\\xe5\\xa4\\xaa.sol\":257:267  msg.sender */\n      caller\n        /* \"contract/3-4/\\xe5\\x8f\\x91\\xe9\\x80\\x81\\xe4\\xbb\\xa5\\xe5\\xa4\\xaa.sol\":253:280  LOG(msg.sender, \"fallback\") */\n      0xffffffffffffffffffffffffffffffffffffffff\n      and\n      0xd9f30d31917e7b1f6c981a060f853194148bfe2462d2a940872d22acf6ec99c8\n      mload(0x40)\n      tag_15\n      swap1\n      tag_16\n      jump\t// in\n    tag_15:\n      mload(0x40)\n      dup1\n      swap2\n      sub\n      swap1\n      log2\n        /* \"contract/3-4/\\xe5\\x8f\\x91\\xe9\\x80\\x81\\xe4\\xbb\\xa5\\xe5\\xa4\\xaa.sol\":70:958  contract D {... */\n      stop\n        /* \"contract/3-4/\\xe5\\x8f\\x91\\xe9\\x80\\x81\\xe4\\xbb\\xa5\\xe5\\xa4\\xaa.sol\":374:473  function getBalance() external view returns (uint256) {... */\n    tag_3:\n      callvalue\n      dup1\n      iszero\n      tag_17\n      jumpi\n      0x00\n      dup1\n      revert\n    tag_17:\n      pop\n      tag_18\n      tag_19\n      jump\t// in\n    tag_18:\n      mload(0x40)\n      tag_20\n      swap2\n      swap1\n      tag_21\n      jump\t// in\n    tag_20:\n      mload(0x40)\n      dup1\n      swap2\n      sub\n      swap1\n      return\n        /* \"contract/3-4/\\xe5\\x8f\\x91\\xe9\\x80\\x81\\xe4\\xbb\\xa5\\xe5\\xa4\\xaa.sol\":682:784  function myTransfer(address payable _addr) external payable {... */\n    tag_4:\n      tag_22\n      0x04\n      dup1\n      calldatasize\n      sub\n      dup2\n      add\n      swap1\n      tag_23\n      swap2\n      swap1\n      tag_24\n      jump\t// in\n    tag_23:\n      tag_25\n      jump\t// in\n    tag_22:\n      stop\n        /* \"contract/3-4/\\xe5\\x8f\\x91\\xe9\\x80\\x81\\xe4\\xbb\\xa5\\xe5\\xa4\\xaa.sol\":790:956  function myCall(address payable _addr) external payable {... */\n    tag_5:\n      tag_26\n      0x04\n      dup1\n      calldatasize\n      sub\n      dup2\n      add\n      swap1\n      tag_27\n      swap2\n      swap1\n      tag_24\n      jump\t// in\n    tag_27:\n      tag_28\n      jump\t// in\n    tag_26:\n      stop\n        /* \"contract/3-4/\\xe5\\x8f\\x91\\xe9\\x80\\x81\\xe4\\xbb\\xa5\\xe5\\xa4\\xaa.sol\":522:675  function mySend(address payable _addr) external payable{... */\n    tag_6:\n      tag_29\n      0x04\n      dup1\n      calldatasize\n      sub\n      dup2\n      add\n      swap1\n      tag_30\n      swap2\n      swap1\n      tag_24\n      jump\t// in\n    tag_30:\n      tag_31\n      jump\t// in\n    tag_29:\n      stop\n        /* \"contract/3-4/\\xe5\\x8f\\x91\\xe9\\x80\\x81\\xe4\\xbb\\xa5\\xe5\\xa4\\xaa.sol\":87:107  address public Owner */\n    tag_7:\n      callvalue\n      dup1\n      iszero\n      tag_32\n      jumpi\n      0x00\n      dup1\n      revert\n    tag_32:\n      pop\n      tag_33\n      tag_34\n      jump\t// in\n    tag_33:\n      mload(0x40)\n      tag_35\n      swap2\n      swap1\n      tag_36\n      jump\t// in\n    tag_35:\n      mload(0x40)\n      dup1\n      swap2\n      sub\n      swap1\n      return\n        /* \"contract/3-4/\\xe5\\x8f\\x91\\xe9\\x80\\x81\\xe4\\xbb\\xa5\\xe5\\xa4\\xaa.sol\":479:516  function deposi() external payable {} */\n    tag_8:\n      tag_37\n      tag_38\n      jump\t// in\n    tag_37:\n      stop\n        /* \"contract/3-4/\\xe5\\x8f\\x91\\xe9\\x80\\x81\\xe4\\xbb\\xa5\\xe5\\xa4\\xaa.sol\":374:473  function getBalance() external view returns (uint256) {... */\n    tag_19:\n        /* \"contract/3-4/\\xe5\\x8f\\x91\\xe9\\x80\\x81\\xe4\\xbb\\xa5\\xe5\\xa4\\xaa.sol\":419:426  uint256 */\n      0x00\n        /* \"contract/3-4/\\xe5\\x8f\\x91\\xe9\\x80\\x81\\xe4\\xbb\\xa5\\xe5\\xa4\\xaa.sol\":445:466  address(this).balance */\n      selfbalance\n        /* \"contract/3-4/\\xe5\\x8f\\x91\\xe9\\x80\\x81\\xe4\\xbb\\xa5\\xe5\\xa4\\xaa.sol\":438:466  return address(this).balance */\n      swap1\n      pop\n        /* \"contract/3-4/\\xe5\\x8f\\x91\\xe9\\x80\\x81\\xe4\\xbb\\xa5\\xe5\\xa4\\xaa.sol\":374:473  function getBalance() external view returns (uint256) {... */\n      swap1\n      jump\t// out\n        /* \"contract/3-4/\\xe5\\x8f\\x91\\xe9\\x80\\x81\\xe4\\xbb\\xa5\\xe5\\xa4\\xaa.sol\":682:784  function myTransfer(address payable _addr) external payable {... */\n    tag_25:\n        /* \"contract/3-4/\\xe5\\x8f\\x91\\xe9\\x80\\x81\\xe4\\xbb\\xa5\\xe5\\xa4\\xaa.sol\":752:757  _addr */\n      dup1\n        /* \"contract/3-4/\\xe5\\x8f\\x91\\xe9\\x80\\x81\\xe4\\xbb\\xa5\\xe5\\xa4\\xaa.sol\":752:766  _addr.transfer */\n      0xffffffffffffffffffffffffffffffffffffffff\n      and\n        /* \"contract/3-4/\\xe5\\x8f\\x91\\xe9\\x80\\x81\\xe4\\xbb\\xa5\\xe5\\xa4\\xaa.sol\":752:777  _addr.transfer(msg.value) */\n      0x08fc\n        /* \"contract/3-4/\\xe5\\x8f\\x91\\xe9\\x80\\x81\\xe4\\xbb\\xa5\\xe5\\xa4\\xaa.sol\":767:776  msg.value */\n      callvalue\n        /* \"contract/3-4/\\xe5\\x8f\\x91\\xe9\\x80\\x81\\xe4\\xbb\\xa5\\xe5\\xa4\\xaa.sol\":752:777  _addr.transfer(msg.value) */\n      swap1\n      dup2\n      iszero\n      mul\n      swap1\n      mload(0x40)\n      0x00\n      mload(0x40)\n      dup1\n      dup4\n      sub\n      dup2\n      dup6\n      dup9\n      dup9\n      call\n      swap4\n      pop\n      pop\n      pop\n      pop\n      iszero\n      dup1\n      iszero\n      tag_42\n      jumpi\n      returndatasize\n      0x00\n      dup1\n      returndatacopy\n      revert(0x00, returndatasize)\n    tag_42:\n      pop\n        /* \"contract/3-4/\\xe5\\x8f\\x91\\xe9\\x80\\x81\\xe4\\xbb\\xa5\\xe5\\xa4\\xaa.sol\":682:784  function myTransfer(address payable _addr) external payable {... */\n      pop\n      jump\t// out\n        /* \"contract/3-4/\\xe5\\x8f\\x91\\xe9\\x80\\x81\\xe4\\xbb\\xa5\\xe5\\xa4\\xaa.sol\":790:956  function myCall(address payable _addr) external payable {... */\n    tag_28:\n        /* \"contract/3-4/\\xe5\\x8f\\x91\\xe9\\x80\\x81\\xe4\\xbb\\xa5\\xe5\\xa4\\xaa.sol\":857:869  bool success */\n      0x00\n        /* \"contract/3-4/\\xe5\\x8f\\x91\\xe9\\x80\\x81\\xe4\\xbb\\xa5\\xe5\\xa4\\xaa.sol\":874:879  _addr */\n      dup2\n        /* \"contract/3-4/\\xe5\\x8f\\x91\\xe9\\x80\\x81\\xe4\\xbb\\xa5\\xe5\\xa4\\xaa.sol\":874:884  _addr.call */\n      0xffffffffffffffffffffffffffffffffffffffff\n      and\n        /* \"contract/3-4/\\xe5\\x8f\\x91\\xe9\\x80\\x81\\xe4\\xbb\\xa5\\xe5\\xa4\\xaa.sol\":892:901  msg.value */\n      callvalue\n        /* \"contract/3-4/\\xe5\\x8f\\x91\\xe9\\x80\\x81\\xe4\\xbb\\xa5\\xe5\\xa4\\xaa.sol\":874:906  _addr.call{value: msg.value}(\"\") */\n      mload(0x40)\n      tag_44\n      swap1\n      tag_45\n      jump\t// in\n    tag_44:\n      0x00\n      mload(0x40)\n      dup1\n      dup4\n      sub\n      dup2\n      dup6\n      dup8\n      gas\n      call\n      swap3\n      pop\n      pop\n      pop\n      returndatasize\n      dup1\n      0x00\n      dup2\n      eq\n      tag_48\n      jumpi\n      mload(0x40)\n      swap2\n      pop\n      and(add(returndatasize, 0x3f), not(0x1f))\n      dup3\n      add\n      0x40\n      mstore\n      returndatasize\n      dup3\n      mstore\n      returndatasize\n      0x00\n      0x20\n      dup5\n      add\n      returndatacopy\n      jump(tag_47)\n    tag_48:\n      0x60\n      swap2\n      pop\n    tag_47:\n      pop\n        /* \"contract/3-4/\\xe5\\x8f\\x91\\xe9\\x80\\x81\\xe4\\xbb\\xa5\\xe5\\xa4\\xaa.sol\":856:906  (bool success,) = _addr.call{value: msg.value}(\"\") */\n      pop\n      swap1\n      pop\n        /* \"contract/3-4/\\xe5\\x8f\\x91\\xe9\\x80\\x81\\xe4\\xbb\\xa5\\xe5\\xa4\\xaa.sol\":924:931  success */\n      dup1\n        /* \"contract/3-4/\\xe5\\x8f\\x91\\xe9\\x80\\x81\\xe4\\xbb\\xa5\\xe5\\xa4\\xaa.sol\":916:949  require(success,\"my call failed\") */\n      tag_49\n      jumpi\n      mload(0x40)\n      0x08c379a000000000000000000000000000000000000000000000000000000000\n      dup2\n      mstore\n      0x04\n      add\n      tag_50\n      swap1\n      tag_51\n      jump\t// in\n    tag_50:\n      mload(0x40)\n      dup1\n      swap2\n      sub\n      swap1\n      revert\n    tag_49:\n        /* \"contract/3-4/\\xe5\\x8f\\x91\\xe9\\x80\\x81\\xe4\\xbb\\xa5\\xe5\\xa4\\xaa.sol\":846:956  {... */\n      pop\n        /* \"contract/3-4/\\xe5\\x8f\\x91\\xe9\\x80\\x81\\xe4\\xbb\\xa5\\xe5\\xa4\\xaa.sol\":790:956  function myCall(address payable _addr) external payable {... */\n      pop\n      jump\t// out\n        /* \"contract/3-4/\\xe5\\x8f\\x91\\xe9\\x80\\x81\\xe4\\xbb\\xa5\\xe5\\xa4\\xaa.sol\":522:675  function mySend(address payable _addr) external payable{... */\n    tag_31:\n        /* \"contract/3-4/\\xe5\\x8f\\x91\\xe9\\x80\\x81\\xe4\\xbb\\xa5\\xe5\\xa4\\xaa.sol\":588:600  bool success */\n      0x00\n        /* \"contract/3-4/\\xe5\\x8f\\x91\\xe9\\x80\\x81\\xe4\\xbb\\xa5\\xe5\\xa4\\xaa.sol\":604:609  _addr */\n      dup2\n        /* \"contract/3-4/\\xe5\\x8f\\x91\\xe9\\x80\\x81\\xe4\\xbb\\xa5\\xe5\\xa4\\xaa.sol\":604:614  _addr.send */\n      0xffffffffffffffffffffffffffffffffffffffff\n      and\n        /* \"contract/3-4/\\xe5\\x8f\\x91\\xe9\\x80\\x81\\xe4\\xbb\\xa5\\xe5\\xa4\\xaa.sol\":604:625  _addr.send(msg.value) */\n      0x08fc\n        /* \"contract/3-4/\\xe5\\x8f\\x91\\xe9\\x80\\x81\\xe4\\xbb\\xa5\\xe5\\xa4\\xaa.sol\":615:624  msg.value */\n      callvalue\n        /* \"contract/3-4/\\xe5\\x8f\\x91\\xe9\\x80\\x81\\xe4\\xbb\\xa5\\xe5\\xa4\\xaa.sol\":604:625  _addr.send(msg.value) */\n      swap1\n      dup2\n      iszero\n      mul\n      swap1\n      mload(0x40)\n      0x00\n      mload(0x40)\n      dup1\n      dup4\n      sub\n      dup2\n      dup6\n      dup9\n      dup9\n      call\n      swap4\n      pop\n      pop\n      pop\n      pop\n        /* \"contract/3-4/\\xe5\\x8f\\x91\\xe9\\x80\\x81\\xe4\\xbb\\xa5\\xe5\\xa4\\xaa.sol\":587:625  (bool success) = _addr.send(msg.value) */\n      swap1\n      pop\n        /* \"contract/3-4/\\xe5\\x8f\\x91\\xe9\\x80\\x81\\xe4\\xbb\\xa5\\xe5\\xa4\\xaa.sol\":643:650  success */\n      dup1\n        /* \"contract/3-4/\\xe5\\x8f\\x91\\xe9\\x80\\x81\\xe4\\xbb\\xa5\\xe5\\xa4\\xaa.sol\":635:668  require(success,\"my send failed\") */\n      tag_54\n      jumpi\n      mload(0x40)\n      0x08c379a000000000000000000000000000000000000000000000000000000000\n      dup2\n      mstore\n      0x04\n      add\n      tag_55\n      swap1\n      tag_56\n      jump\t// in\n    tag_55:\n      mload(0x40)\n      dup1\n      swap2\n      sub\n      swap1\n      revert\n    tag_54:\n        /* \"contract/3-4/\\xe5\\x8f\\x91\\xe9\\x80\\x81\\xe4\\xbb\\xa5\\xe5\\xa4\\xaa.sol\":577:675  {... */\n      pop\n        /* \"contract/3-4/\\xe5\\x8f\\x91\\xe9\\x80\\x81\\xe4\\xbb\\xa5\\xe5\\xa4\\xaa.sol\":522:675  function mySend(address payable _addr) external payable{... */\n      pop\n      jump\t// out\n        /* \"contract/3-4/\\xe5\\x8f\\x91\\xe9\\x80\\x81\\xe4\\xbb\\xa5\\xe5\\xa4\\xaa.sol\":87:107  address public Owner */\n    tag_34:\n      0x00\n      dup1\n      sload\n      swap1\n      0x0100\n      exp\n      swap1\n      div\n      0xffffffffffffffffffffffffffffffffffffffff\n      and\n      dup2\n      jump\t// out\n        /* \"contract/3-4/\\xe5\\x8f\\x91\\xe9\\x80\\x81\\xe4\\xbb\\xa5\\xe5\\xa4\\xaa.sol\":479:516  function deposi() external payable {} */\n    tag_38:\n      jump\t// out\n        /* \"#utility.yul\":7:176   */\n    tag_58:\n        /* \"#utility.yul\":91:102   */\n      0x00\n        /* \"#utility.yul\":125:131   */\n      dup3\n        /* \"#utility.yul\":120:123   */\n      dup3\n        /* \"#utility.yul\":113:132   */\n      mstore\n        /* \"#utility.yul\":165:169   */\n      0x20\n        /* \"#utility.yul\":160:163   */\n      dup3\n        /* \"#utility.yul\":156:170   */\n      add\n        /* \"#utility.yul\":141:170   */\n      swap1\n      pop\n        /* \"#utility.yul\":7:176   */\n      swap3\n      swap2\n      pop\n      pop\n      jump\t// out\n        /* \"#utility.yul\":182:339   */\n    tag_59:\n        /* \"#utility.yul\":322:331   */\n      0x7265636569766500000000000000000000000000000000000000000000000000\n        /* \"#utility.yul\":318:319   */\n      0x00\n        /* \"#utility.yul\":310:316   */\n      dup3\n        /* \"#utility.yul\":306:320   */\n      add\n        /* \"#utility.yul\":299:332   */\n      mstore\n        /* \"#utility.yul\":182:339   */\n      pop\n      jump\t// out\n        /* \"#utility.yul\":345:710   */\n    tag_60:\n        /* \"#utility.yul\":487:490   */\n      0x00\n        /* \"#utility.yul\":508:574   */\n      tag_85\n        /* \"#utility.yul\":572:573   */\n      0x07\n        /* \"#utility.yul\":567:570   */\n      dup4\n        /* \"#utility.yul\":508:574   */\n      tag_58\n      jump\t// in\n    tag_85:\n        /* \"#utility.yul\":501:574   */\n      swap2\n      pop\n        /* \"#utility.yul\":583:676   */\n      tag_86\n        /* \"#utility.yul\":672:675   */\n      dup3\n        /* \"#utility.yul\":583:676   */\n      tag_59\n      jump\t// in\n    tag_86:\n        /* \"#utility.yul\":701:703   */\n      0x20\n        /* \"#utility.yul\":696:699   */\n      dup3\n        /* \"#utility.yul\":692:704   */\n      add\n        /* \"#utility.yul\":685:704   */\n      swap1\n      pop\n        /* \"#utility.yul\":345:710   */\n      swap2\n      swap1\n      pop\n      jump\t// out\n        /* \"#utility.yul\":716:1135   */\n    tag_12:\n        /* \"#utility.yul\":882:886   */\n      0x00\n        /* \"#utility.yul\":920:922   */\n      0x20\n        /* \"#utility.yul\":909:918   */\n      dup3\n        /* \"#utility.yul\":905:923   */\n      add\n        /* \"#utility.yul\":897:923   */\n      swap1\n      pop\n        /* \"#utility.yul\":969:978   */\n      dup2\n        /* \"#utility.yul\":963:967   */\n      dup2\n        /* \"#utility.yul\":959:979   */\n      sub\n        /* \"#utility.yul\":955:956   */\n      0x00\n        /* \"#utility.yul\":944:953   */\n      dup4\n        /* \"#utility.yul\":940:957   */\n      add\n        /* \"#utility.yul\":933:980   */\n      mstore\n        /* \"#utility.yul\":997:1128   */\n      tag_88\n        /* \"#utility.yul\":1123:1127   */\n      dup2\n        /* \"#utility.yul\":997:1128   */\n      tag_60\n      jump\t// in\n    tag_88:\n        /* \"#utility.yul\":989:1128   */\n      swap1\n      pop\n        /* \"#utility.yul\":716:1135   */\n      swap2\n      swap1\n      pop\n      jump\t// out\n        /* \"#utility.yul\":1141:1299   */\n    tag_61:\n        /* \"#utility.yul\":1281:1291   */\n      0x66616c6c6261636b000000000000000000000000000000000000000000000000\n        /* \"#utility.yul\":1277:1278   */\n      0x00\n        /* \"#utility.yul\":1269:1275   */\n      dup3\n        /* \"#utility.yul\":1265:1279   */\n      add\n        /* \"#utility.yul\":1258:1292   */\n      mstore\n        /* \"#utility.yul\":1141:1299   */\n      pop\n      jump\t// out\n        /* \"#utility.yul\":1305:1670   */\n    tag_62:\n        /* \"#utility.yul\":1447:1450   */\n      0x00\n        /* \"#utility.yul\":1468:1534   */\n      tag_91\n        /* \"#utility.yul\":1532:1533   */\n      0x08\n        /* \"#utility.yul\":1527:1530   */\n      dup4\n        /* \"#utility.yul\":1468:1534   */\n      tag_58\n      jump\t// in\n    tag_91:\n        /* \"#utility.yul\":1461:1534   */\n      swap2\n      pop\n        /* \"#utility.yul\":1543:1636   */\n      tag_92\n        /* \"#utility.yul\":1632:1635   */\n      dup3\n        /* \"#utility.yul\":1543:1636   */\n      tag_61\n      jump\t// in\n    tag_92:\n        /* \"#utility.yul\":1661:1663   */\n      0x20\n        /* \"#utility.yul\":1656:1659   */\n      dup3\n        /* \"#utility.yul\":1652:1664   */\n      add\n        /* \"#utility.yul\":1645:1664   */\n      swap1\n      pop\n        /* \"#utility.yul\":1305:1670   */\n      swap2\n      swap1\n      pop\n      jump\t// out\n        /* \"#utility.yul\":1676:2095   */\n    tag_16:\n        /* \"#utility.yul\":1842:1846   */\n      0x00\n        /* \"#utility.yul\":1880:1882   */\n      0x20\n        /* \"#utility.yul\":1869:1878   */\n      dup3\n        /* \"#utility.yul\":1865:1883   */\n      add\n        /* \"#utility.yul\":1857:1883   */\n      swap1\n      pop\n        /* \"#utility.yul\":1929:1938   */\n      dup2\n        /* \"#utility.yul\":1923:1927   */\n      dup2\n        /* \"#utility.yul\":1919:1939   */\n      sub\n        /* \"#utility.yul\":1915:1916   */\n      0x00\n        /* \"#utility.yul\":1904:1913   */\n      dup4\n        /* \"#utility.yul\":1900:1917   */\n      add\n        /* \"#utility.yul\":1893:1940   */\n      mstore\n        /* \"#utility.yul\":1957:2088   */\n      tag_94\n        /* \"#utility.yul\":2083:2087   */\n      dup2\n        /* \"#utility.yul\":1957:2088   */\n      tag_62\n      jump\t// in\n    tag_94:\n        /* \"#utility.yul\":1949:2088   */\n      swap1\n      pop\n        /* \"#utility.yul\":1676:2095   */\n      swap2\n      swap1\n      pop\n      jump\t// out\n        /* \"#utility.yul\":2101:2178   */\n    tag_63:\n        /* \"#utility.yul\":2138:2145   */\n      0x00\n        /* \"#utility.yul\":2167:2172   */\n      dup2\n        /* \"#utility.yul\":2156:2172   */\n      swap1\n      pop\n        /* \"#utility.yul\":2101:2178   */\n      swap2\n      swap1\n      pop\n      jump\t// out\n        /* \"#utility.yul\":2184:2302   */\n    tag_64:\n        /* \"#utility.yul\":2271:2295   */\n      tag_97\n        /* \"#utility.yul\":2289:2294   */\n      dup2\n        /* \"#utility.yul\":2271:2295   */\n      tag_63\n      jump\t// in\n    tag_97:\n        /* \"#utility.yul\":2266:2269   */\n      dup3\n        /* \"#utility.yul\":2259:2296   */\n      mstore\n        /* \"#utility.yul\":2184:2302   */\n      pop\n      pop\n      jump\t// out\n        /* \"#utility.yul\":2308:2530   */\n    tag_21:\n        /* \"#utility.yul\":2401:2405   */\n      0x00\n        /* \"#utility.yul\":2439:2441   */\n      0x20\n        /* \"#utility.yul\":2428:2437   */\n      dup3\n        /* \"#utility.yul\":2424:2442   */\n      add\n        /* \"#utility.yul\":2416:2442   */\n      swap1\n      pop\n        /* \"#utility.yul\":2452:2523   */\n      tag_99\n        /* \"#utility.yul\":2520:2521   */\n      0x00\n        /* \"#utility.yul\":2509:2518   */\n      dup4\n        /* \"#utility.yul\":2505:2522   */\n      add\n        /* \"#utility.yul\":2496:2502   */\n      dup5\n        /* \"#utility.yul\":2452:2523   */\n      tag_64\n      jump\t// in\n    tag_99:\n        /* \"#utility.yul\":2308:2530   */\n      swap3\n      swap2\n      pop\n      pop\n      jump\t// out\n        /* \"#utility.yul\":2617:2734   */\n    tag_66:\n        /* \"#utility.yul\":2726:2727   */\n      0x00\n        /* \"#utility.yul\":2723:2724   */\n      dup1\n        /* \"#utility.yul\":2716:2728   */\n      revert\n        /* \"#utility.yul\":2863:2989   */\n    tag_68:\n        /* \"#utility.yul\":2900:2907   */\n      0x00\n        /* \"#utility.yul\":2940:2982   */\n      0xffffffffffffffffffffffffffffffffffffffff\n        /* \"#utility.yul\":2933:2938   */\n      dup3\n        /* \"#utility.yul\":2929:2983   */\n      and\n        /* \"#utility.yul\":2918:2983   */\n      swap1\n      pop\n        /* \"#utility.yul\":2863:2989   */\n      swap2\n      swap1\n      pop\n      jump\t// out\n        /* \"#utility.yul\":2995:3099   */\n    tag_69:\n        /* \"#utility.yul\":3040:3047   */\n      0x00\n        /* \"#utility.yul\":3069:3093   */\n      tag_105\n        /* \"#utility.yul\":3087:3092   */\n      dup3\n        /* \"#utility.yul\":3069:3093   */\n      tag_68\n      jump\t// in\n    tag_105:\n        /* \"#utility.yul\":3058:3093   */\n      swap1\n      pop\n        /* \"#utility.yul\":2995:3099   */\n      swap2\n      swap1\n      pop\n      jump\t// out\n        /* \"#utility.yul\":3105:3243   */\n    tag_70:\n        /* \"#utility.yul\":3186:3218   */\n      tag_107\n        /* \"#utility.yul\":3212:3217   */\n      dup2\n        /* \"#utility.yul\":3186:3218   */\n      tag_69\n      jump\t// in\n    tag_107:\n        /* \"#utility.yul\":3179:3184   */\n      dup2\n        /* \"#utility.yul\":3176:3219   */\n      eq\n        /* \"#utility.yul\":3166:3237   */\n      tag_108\n      jumpi\n        /* \"#utility.yul\":3233:3234   */\n      0x00\n        /* \"#utility.yul\":3230:3231   */\n      dup1\n        /* \"#utility.yul\":3223:3235   */\n      revert\n        /* \"#utility.yul\":3166:3237   */\n    tag_108:\n        /* \"#utility.yul\":3105:3243   */\n      pop\n      jump\t// out\n        /* \"#utility.yul\":3249:3404   */\n    tag_71:\n        /* \"#utility.yul\":3303:3308   */\n      0x00\n        /* \"#utility.yul\":3341:3347   */\n      dup2\n        /* \"#utility.yul\":3328:3348   */\n      calldataload\n        /* \"#utility.yul\":3319:3348   */\n      swap1\n      pop\n        /* \"#utility.yul\":3357:3398   */\n      tag_110\n        /* \"#utility.yul\":3392:3397   */\n      dup2\n        /* \"#utility.yul\":3357:3398   */\n      tag_70\n      jump\t// in\n    tag_110:\n        /* \"#utility.yul\":3249:3404   */\n      swap3\n      swap2\n      pop\n      pop\n      jump\t// out\n        /* \"#utility.yul\":3410:3755   */\n    tag_24:\n        /* \"#utility.yul\":3477:3483   */\n      0x00\n        /* \"#utility.yul\":3526:3528   */\n      0x20\n        /* \"#utility.yul\":3514:3523   */\n      dup3\n        /* \"#utility.yul\":3505:3512   */\n      dup5\n        /* \"#utility.yul\":3501:3524   */\n      sub\n        /* \"#utility.yul\":3497:3529   */\n      slt\n        /* \"#utility.yul\":3494:3613   */\n      iszero\n      tag_112\n      jumpi\n        /* \"#utility.yul\":3532:3611   */\n      tag_113\n      tag_66\n      jump\t// in\n    tag_113:\n        /* \"#utility.yul\":3494:3613   */\n    tag_112:\n        /* \"#utility.yul\":3652:3653   */\n      0x00\n        /* \"#utility.yul\":3677:3738   */\n      tag_114\n        /* \"#utility.yul\":3730:3737   */\n      dup5\n        /* \"#utility.yul\":3721:3727   */\n      dup3\n        /* \"#utility.yul\":3710:3719   */\n      dup6\n        /* \"#utility.yul\":3706:3728   */\n      add\n        /* \"#utility.yul\":3677:3738   */\n      tag_71\n      jump\t// in\n    tag_114:\n        /* \"#utility.yul\":3667:3738   */\n      swap2\n      pop\n        /* \"#utility.yul\":3623:3748   */\n      pop\n        /* \"#utility.yul\":3410:3755   */\n      swap3\n      swap2\n      pop\n      pop\n      jump\t// out\n        /* \"#utility.yul\":3761:3857   */\n    tag_72:\n        /* \"#utility.yul\":3798:3805   */\n      0x00\n        /* \"#utility.yul\":3827:3851   */\n      tag_116\n        /* \"#utility.yul\":3845:3850   */\n      dup3\n        /* \"#utility.yul\":3827:3851   */\n      tag_68\n      jump\t// in\n    tag_116:\n        /* \"#utility.yul\":3816:3851   */\n      swap1\n      pop\n        /* \"#utility.yul\":3761:3857   */\n      swap2\n      swap1\n      pop\n      jump\t// out\n        /* \"#utility.yul\":3863:3981   */\n    tag_73:\n        /* \"#utility.yul\":3950:3974   */\n      tag_118\n        /* \"#utility.yul\":3968:3973   */\n      dup2\n        /* \"#utility.yul\":3950:3974   */\n      tag_72\n      jump\t// in\n    tag_118:\n        /* \"#utility.yul\":3945:3948   */\n      dup3\n        /* \"#utility.yul\":3938:3975   */\n      mstore\n        /* \"#utility.yul\":3863:3981   */\n      pop\n      pop\n      jump\t// out\n        /* \"#utility.yul\":3987:4209   */\n    tag_36:\n        /* \"#utility.yul\":4080:4084   */\n      0x00\n        /* \"#utility.yul\":4118:4120   */\n      0x20\n        /* \"#utility.yul\":4107:4116   */\n      dup3\n        /* \"#utility.yul\":4103:4121   */\n      add\n        /* \"#utility.yul\":4095:4121   */\n      swap1\n      pop\n        /* \"#utility.yul\":4131:4202   */\n      tag_120\n        /* \"#utility.yul\":4199:4200   */\n      0x00\n        /* \"#utility.yul\":4188:4197   */\n      dup4\n        /* \"#utility.yul\":4184:4201   */\n      add\n        /* \"#utility.yul\":4175:4181   */\n      dup5\n        /* \"#utility.yul\":4131:4202   */\n      tag_73\n      jump\t// in\n    tag_120:\n        /* \"#utility.yul\":3987:4209   */\n      swap3\n      swap2\n      pop\n      pop\n      jump\t// out\n        /* \"#utility.yul\":4215:4362   */\n    tag_74:\n        /* \"#utility.yul\":4316:4327   */\n      0x00\n        /* \"#utility.yul\":4353:4356   */\n      dup2\n        /* \"#utility.yul\":4338:4356   */\n      swap1\n      pop\n        /* \"#utility.yul\":4215:4362   */\n      swap3\n      swap2\n      pop\n      pop\n      jump\t// out\n        /* \"#utility.yul\":4368:4482   */\n    tag_75:\n      pop\n      jump\t// out\n        /* \"#utility.yul\":4488:4886   */\n    tag_76:\n        /* \"#utility.yul\":4647:4650   */\n      0x00\n        /* \"#utility.yul\":4668:4751   */\n      tag_124\n        /* \"#utility.yul\":4749:4750   */\n      0x00\n        /* \"#utility.yul\":4744:4747   */\n      dup4\n        /* \"#utility.yul\":4668:4751   */\n      tag_74\n      jump\t// in\n    tag_124:\n        /* \"#utility.yul\":4661:4751   */\n      swap2\n      pop\n        /* \"#utility.yul\":4760:4853   */\n      tag_125\n        /* \"#utility.yul\":4849:4852   */\n      dup3\n        /* \"#utility.yul\":4760:4853   */\n      tag_75\n      jump\t// in\n    tag_125:\n        /* \"#utility.yul\":4878:4879   */\n      0x00\n        /* \"#utility.yul\":4873:4876   */\n      dup3\n        /* \"#utility.yul\":4869:4880   */\n      add\n        /* \"#utility.yul\":4862:4880   */\n      swap1\n      pop\n        /* \"#utility.yul\":4488:4886   */\n      swap2\n      swap1\n      pop\n      jump\t// out\n        /* \"#utility.yul\":4892:5271   */\n    tag_45:\n        /* \"#utility.yul\":5076:5079   */\n      0x00\n        /* \"#utility.yul\":5098:5245   */\n      tag_127\n        /* \"#utility.yul\":5241:5244   */\n      dup3\n        /* \"#utility.yul\":5098:5245   */\n      tag_76\n      jump\t// in\n    tag_127:\n        /* \"#utility.yul\":5091:5245   */\n      swap2\n      pop\n        /* \"#utility.yul\":5262:5265   */\n      dup2\n        /* \"#utility.yul\":5255:5265   */\n      swap1\n      pop\n        /* \"#utility.yul\":4892:5271   */\n      swap2\n      swap1\n      pop\n      jump\t// out\n        /* \"#utility.yul\":5277:5441   */\n    tag_77:\n        /* \"#utility.yul\":5417:5433   */\n      0x6d792063616c6c206661696c6564000000000000000000000000000000000000\n        /* \"#utility.yul\":5413:5414   */\n      0x00\n        /* \"#utility.yul\":5405:5411   */\n      dup3\n        /* \"#utility.yul\":5401:5415   */\n      add\n        /* \"#utility.yul\":5394:5434   */\n      mstore\n        /* \"#utility.yul\":5277:5441   */\n      pop\n      jump\t// out\n        /* \"#utility.yul\":5447:5813   */\n    tag_78:\n        /* \"#utility.yul\":5589:5592   */\n      0x00\n        /* \"#utility.yul\":5610:5677   */\n      tag_130\n        /* \"#utility.yul\":5674:5676   */\n      0x0e\n        /* \"#utility.yul\":5669:5672   */\n      dup4\n        /* \"#utility.yul\":5610:5677   */\n      tag_58\n      jump\t// in\n    tag_130:\n        /* \"#utility.yul\":5603:5677   */\n      swap2\n      pop\n        /* \"#utility.yul\":5686:5779   */\n      tag_131\n        /* \"#utility.yul\":5775:5778   */\n      dup3\n        /* \"#utility.yul\":5686:5779   */\n      tag_77\n      jump\t// in\n    tag_131:\n        /* \"#utility.yul\":5804:5806   */\n      0x20\n        /* \"#utility.yul\":5799:5802   */\n      dup3\n        /* \"#utility.yul\":5795:5807   */\n      add\n        /* \"#utility.yul\":5788:5807   */\n      swap1\n      pop\n        /* \"#utility.yul\":5447:5813   */\n      swap2\n      swap1\n      pop\n      jump\t// out\n        /* \"#utility.yul\":5819:6238   */\n    tag_51:\n        /* \"#utility.yul\":5985:5989   */\n      0x00\n        /* \"#utility.yul\":6023:6025   */\n      0x20\n        /* \"#utility.yul\":6012:6021   */\n      dup3\n        /* \"#utility.yul\":6008:6026   */\n      add\n        /* \"#utility.yul\":6000:6026   */\n      swap1\n      pop\n        /* \"#utility.yul\":6072:6081   */\n      dup2\n        /* \"#utility.yul\":6066:6070   */\n      dup2\n        /* \"#utility.yul\":6062:6082   */\n      sub\n        /* \"#utility.yul\":6058:6059   */\n      0x00\n        /* \"#utility.yul\":6047:6056   */\n      dup4\n        /* \"#utility.yul\":6043:6060   */\n      add\n        /* \"#utility.yul\":6036:6083   */\n      mstore\n        /* \"#utility.yul\":6100:6231   */\n      tag_133\n        /* \"#utility.yul\":6226:6230   */\n      dup2\n        /* \"#utility.yul\":6100:6231   */\n      tag_78\n      jump\t// in\n    tag_133:\n        /* \"#utility.yul\":6092:6231   */\n      swap1\n      pop\n        /* \"#utility.yul\":5819:6238   */\n      swap2\n      swap1\n      pop\n      jump\t// out\n        /* \"#utility.yul\":6244:6408   */\n    tag_79:\n        /* \"#utility.yul\":6384:6400   */\n      0x6d792073656e64206661696c6564000000000000000000000000000000000000\n        /* \"#utility.yul\":6380:6381   */\n      0x00\n        /* \"#utility.yul\":6372:6378   */\n      dup3\n        /* \"#utility.yul\":6368:6382   */\n      add\n        /* \"#utility.yul\":6361:6401   */\n      mstore\n        /* \"#utility.yul\":6244:6408   */\n      pop\n      jump\t// out\n        /* \"#utility.yul\":6414:6780   */\n    tag_80:\n        /* \"#utility.yul\":6556:6559   */\n      0x00\n        /* \"#utility.yul\":6577:6644   */\n      tag_136\n        /* \"#utility.yul\":6641:6643   */\n      0x0e\n        /* \"#utility.yul\":6636:6639   */\n      dup4\n        /* \"#utility.yul\":6577:6644   */\n      tag_58\n      jump\t// in\n    tag_136:\n        /* \"#utility.yul\":6570:6644   */\n      swap2\n      pop\n        /* \"#utility.yul\":6653:6746   */\n      tag_137\n        /* \"#utility.yul\":6742:6745   */\n      dup3\n        /* \"#utility.yul\":6653:6746   */\n      tag_79\n      jump\t// in\n    tag_137:\n        /* \"#utility.yul\":6771:6773   */\n      0x20\n        /* \"#utility.yul\":6766:6769   */\n      dup3\n        /* \"#utility.yul\":6762:6774   */\n      add\n        /* \"#utility.yul\":6755:6774   */\n      swap1\n      pop\n        /* \"#utility.yul\":6414:6780   */\n      swap2\n      swap1\n      pop\n      jump\t// out\n        /* \"#utility.yul\":6786:7205   */\n    tag_56:\n        /* \"#utility.yul\":6952:6956   */\n      0x00\n        /* \"#utility.yul\":6990:6992   */\n      0x20\n        /* \"#utility.yul\":6979:6988   */\n      dup3\n        /* \"#utility.yul\":6975:6993   */\n      add\n        /* \"#utility.yul\":6967:6993   */\n      swap1\n      pop\n        /* \"#utility.yul\":7039:7048   */\n      dup2\n        /* \"#utility.yul\":7033:7037   */\n      dup2\n        /* \"#utility.yul\":7029:7049   */\n      sub\n        /* \"#utility.yul\":7025:7026   */\n      0x00\n        /* \"#utility.yul\":7014:7023   */\n      dup4\n        /* \"#utility.yul\":7010:7027   */\n      add\n        /* \"#utility.yul\":7003:7050   */\n      mstore\n        /* \"#utility.yul\":7067:7198   */\n      tag_139\n        /* \"#utility.yul\":7193:7197   */\n      dup2\n        /* \"#utility.yul\":7067:7198   */\n      tag_80\n      jump\t// in\n    tag_139:\n        /* \"#utility.yul\":7059:7198   */\n      swap1\n      pop\n        /* \"#utility.yul\":6786:7205   */\n      swap2\n      swap1\n      pop\n      jump\t// out\n\n    auxdata: 0xa2646970667358221220990e6b0eb02fd174ca7e9cdd5881f41d88f3a8a3e13a0497b1e8cf8db733721864736f6c634300081a0033\n}\n",
				"bytecode": {
					"linkReferences": {},
					"object": "6080604052348015600e575f80fd5b50335f806101000a81548173ffffffffffffffffffffffffffffffffffffffff021916908373ffffffffffffffffffffffffffffffffffffffff16021790555061065f8061005b5f395ff3fe608060405260043610610058575f3560e01c806312065fe0146100f957806317542cb614610123578063868a0ee41461013f578063a482bda51461015b578063b4a99a4e14610177578063be62ca11146101a1576100ab565b366100ab573373ffffffffffffffffffffffffffffffffffffffff167fd9f30d31917e7b1f6c981a060f853194148bfe2462d2a940872d22acf6ec99c86040516100a19061039f565b60405180910390a2005b3373ffffffffffffffffffffffffffffffffffffffff167fd9f30d31917e7b1f6c981a060f853194148bfe2462d2a940872d22acf6ec99c86040516100ef90610407565b60405180910390a2005b348015610104575f80fd5b5061010d6101ab565b60405161011a919061043d565b60405180910390f35b61013d600480360381019061013891906104b4565b6101b2565b005b610159600480360381019061015491906104b4565b6101f9565b005b610175600480360381019061017091906104b4565b6102a5565b005b348015610182575f80fd5b5061018b610320565b60405161019891906104ff565b60405180910390f35b6101a9610343565b005b5f47905090565b8073ffffffffffffffffffffffffffffffffffffffff166108fc3490811502906040515f60405180830381858888f193505050501580156101f5573d5f803e3d5ffd5b5050565b5f8173ffffffffffffffffffffffffffffffffffffffff163460405161021e90610545565b5f6040518083038185875af1925050503d805f8114610258576040519150601f19603f3d011682016040523d82523d5f602084013e61025d565b606091505b50509050806102a1576040517f08c379a0000000000000000000000000000000000000000000000000000000008152600401610298906105a3565b60405180910390fd5b5050565b5f8173ffffffffffffffffffffffffffffffffffffffff166108fc3490811502906040515f60405180830381858888f1935050505090508061031c576040517f08c379a00000000000000000000000000000000000000000000000000000000081526004016103139061060b565b60405180910390fd5b5050565b5f8054906101000a900473ffffffffffffffffffffffffffffffffffffffff1681565b565b5f82825260208201905092915050565b7f72656365697665000000000000000000000000000000000000000000000000005f82015250565b5f610389600783610345565b915061039482610355565b602082019050919050565b5f6020820190508181035f8301526103b68161037d565b9050919050565b7f66616c6c6261636b0000000000000000000000000000000000000000000000005f82015250565b5f6103f1600883610345565b91506103fc826103bd565b602082019050919050565b5f6020820190508181035f83015261041e816103e5565b9050919050565b5f819050919050565b61043781610425565b82525050565b5f6020820190506104505f83018461042e565b92915050565b5f80fd5b5f73ffffffffffffffffffffffffffffffffffffffff82169050919050565b5f6104838261045a565b9050919050565b61049381610479565b811461049d575f80fd5b50565b5f813590506104ae8161048a565b92915050565b5f602082840312156104c9576104c8610456565b5b5f6104d6848285016104a0565b91505092915050565b5f6104e98261045a565b9050919050565b6104f9816104df565b82525050565b5f6020820190506105125f8301846104f0565b92915050565b5f81905092915050565b50565b5f6105305f83610518565b915061053b82610522565b5f82019050919050565b5f61054f82610525565b9150819050919050565b7f6d792063616c6c206661696c65640000000000000000000000000000000000005f82015250565b5f61058d600e83610345565b915061059882610559565b602082019050919050565b5f6020820190508181035f8301526105ba81610581565b9050919050565b7f6d792073656e64206661696c65640000000000000000000000000000000000005f82015250565b5f6105f5600e83610345565b9150610600826105c1565b602082019050919050565b5f6020820190508181035f830152610622816105e9565b905091905056fea2646970667358221220990e6b0eb02fd174ca7e9cdd5881f41d88f3a8a3e13a0497b1e8cf8db733721864736f6c634300081a0033",
					"opcodes": "PUSH1 0x80 PUSH1 0x40 MSTORE CALLVALUE DUP1 ISZERO PUSH1 0xE JUMPI PUSH0 DUP1 REVERT JUMPDEST POP CALLER PUSH0 DUP1 PUSH2 0x100 EXP DUP2 SLOAD DUP2 PUSH20 0xFFFFFFFFFFFFFFFFFFFFFFFFFFFFFFFFFFFFFFFF MUL NOT AND SWAP1 DUP4 PUSH20 0xFFFFFFFFFFFFFFFFFFFFFFFFFFFFFFFFFFFFFFFF AND MUL OR SWAP1 SSTORE POP PUSH2 0x65F DUP1 PUSH2 0x5B PUSH0 CODECOPY PUSH0 RETURN INVALID PUSH1 0x80 PUSH1 0x40 MSTORE PUSH1 0x4 CALLDATASIZE LT PUSH2 0x58 JUMPI PUSH0 CALLDATALOAD PUSH1 0xE0 SHR DUP1 PUSH4 0x12065FE0 EQ PUSH2 0xF9 JUMPI DUP1 PUSH4 0x17542CB6 EQ PUSH2 0x123 JUMPI DUP1 PUSH4 0x868A0EE4 EQ PUSH2 0x13F JUMPI DUP1 PUSH4 0xA482BDA5 EQ PUSH2 0x15B JUMPI DUP1 PUSH4 0xB4A99A4E EQ PUSH2 0x177 JUMPI DUP1 PUSH4 0xBE62CA11 EQ PUSH2 0x1A1 JUMPI PUSH2 0xAB JUMP JUMPDEST CALLDATASIZE PUSH2 0xAB JUMPI CALLER PUSH20 0xFFFFFFFFFFFFFFFFFFFFFFFFFFFFFFFFFFFFFFFF AND PUSH32 0xD9F30D31917E7B1F6C981A060F853194148BFE2462D2A940872D22ACF6EC99C8 PUSH1 0x40 MLOAD PUSH2 0xA1 SWAP1 PUSH2 0x39F JUMP JUMPDEST PUSH1 0x40 MLOAD DUP1 SWAP2 SUB SWAP1 LOG2 STOP JUMPDEST CALLER PUSH20 0xFFFFFFFFFFFFFFFFFFFFFFFFFFFFFFFFFFFFFFFF AND PUSH32 0xD9F30D31917E7B1F6C981A060F853194148BFE2462D2A940872D22ACF6EC99C8 PUSH1 0x40 MLOAD PUSH2 0xEF SWAP1 PUSH2 0x407 JUMP JUMPDEST PUSH1 0x40 MLOAD DUP1 SWAP2 SUB SWAP1 LOG2 STOP JUMPDEST CALLVALUE DUP1 ISZERO PUSH2 0x104 JUMPI PUSH0 DUP1 REVERT JUMPDEST POP PUSH2 0x10D PUSH2 0x1AB JUMP JUMPDEST PUSH1 0x40 MLOAD PUSH2 0x11A SWAP2 SWAP1 PUSH2 0x43D JUMP JUMPDEST PUSH1 0x40 MLOAD DUP1 SWAP2 SUB SWAP1 RETURN JUMPDEST PUSH2 0x13D PUSH1 0x4 DUP1 CALLDATASIZE SUB DUP2 ADD SWAP1 PUSH2 0x138 SWAP2 SWAP1 PUSH2 0x4B4 JUMP JUMPDEST PUSH2 0x1B2 JUMP JUMPDEST STOP JUMPDEST PUSH2 0x159 PUSH1 0x4 DUP1 CALLDATASIZE SUB DUP2 ADD SWAP1 PUSH2 0x154 SWAP2 SWAP1 PUSH2 0x4B4 JUMP JUMPDEST PUSH2 0x1F9 JUMP JUMPDEST STOP JUMPDEST PUSH2 0x175 PUSH1 0x4 DUP1 CALLDATASIZE SUB DUP2 ADD SWAP1 PUSH2 0x170 SWAP2 SWAP1 PUSH2 0x4B4 JUMP JUMPDEST PUSH2 0x2A5 JUMP JUMPDEST STOP JUMPDEST CALLVALUE DUP1 ISZERO PUSH2 0x182 JUMPI PUSH0 DUP1 REVERT JUMPDEST POP PUSH2 0x18B PUSH2 0x320 JUMP JUMPDEST PUSH1 0x40 MLOAD PUSH2 0x198 SWAP2 SWAP1 PUSH2 0x4FF JUMP JUMPDEST PUSH1 0x40 MLOAD DUP1 SWAP2 SUB SWAP1 RETURN JUMPDEST PUSH2 0x1A9 PUSH2 0x343 JUMP JUMPDEST STOP JUMPDEST PUSH0 SELFBALANCE SWAP1 POP SWAP1 JUMP JUMPDEST DUP1 PUSH20 0xFFFFFFFFFFFFFFFFFFFFFFFFFFFFFFFFFFFFFFFF AND PUSH2 0x8FC CALLVALUE SWAP1 DUP2 ISZERO MUL SWAP1 PUSH1 0x40 MLOAD PUSH0 PUSH1 0x40 MLOAD DUP1 DUP4 SUB DUP2 DUP6 DUP9 DUP9 CALL SWAP4 POP POP POP POP ISZERO DUP1 ISZERO PUSH2 0x1F5 JUMPI RETURNDATASIZE PUSH0 DUP1 RETURNDATACOPY RETURNDATASIZE PUSH0 REVERT JUMPDEST POP POP JUMP JUMPDEST PUSH0 DUP2 PUSH20 0xFFFFFFFFFFFFFFFFFFFFFFFFFFFFFFFFFFFFFFFF AND CALLVALUE PUSH1 0x40 MLOAD PUSH2 0x21E SWAP1 PUSH2 0x545 JUMP JUMPDEST PUSH0 PUSH1 0x40 MLOAD DUP1 DUP4 SUB DUP2 DUP6 DUP8 GAS CALL SWAP3 POP POP POP RETURNDATASIZE DUP1 PUSH0 DUP2 EQ PUSH2 0x258 JUMPI PUSH1 0x40 MLOAD SWAP2 POP PUSH1 0x1F NOT PUSH1 0x3F RETURNDATASIZE ADD AND DUP3 ADD PUSH1 0x40 MSTORE RETURNDATASIZE DUP3 MSTORE RETURNDATASIZE PUSH0 PUSH1 0x20 DUP5 ADD RETURNDATACOPY PUSH2 0x25D JUMP JUMPDEST PUSH1 0x60 SWAP2 POP JUMPDEST POP POP SWAP1 POP DUP1 PUSH2 0x2A1 JUMPI PUSH1 0x40 MLOAD PUSH32 0x8C379A000000000000000000000000000000000000000000000000000000000 DUP2 MSTORE PUSH1 0x4 ADD PUSH2 0x298 SWAP1 PUSH2 0x5A3 JUMP JUMPDEST PUSH1 0x40 MLOAD DUP1 SWAP2 SUB SWAP1 REVERT JUMPDEST POP POP JUMP JUMPDEST PUSH0 DUP2 PUSH20 0xFFFFFFFFFFFFFFFFFFFFFFFFFFFFFFFFFFFFFFFF AND PUSH2 0x8FC CALLVALUE SWAP1 DUP2 ISZERO MUL SWAP1 PUSH1 0x40 MLOAD PUSH0 PUSH1 0x40 MLOAD DUP1 DUP4 SUB DUP2 DUP6 DUP9 DUP9 CALL SWAP4 POP POP POP POP SWAP1 POP DUP1 PUSH2 0x31C JUMPI PUSH1 0x40 MLOAD PUSH32 0x8C379A000000000000000000000000000000000000000000000000000000000 DUP2 MSTORE PUSH1 0x4 ADD PUSH2 0x313 SWAP1 PUSH2 0x60B JUMP JUMPDEST PUSH1 0x40 MLOAD DUP1 SWAP2 SUB SWAP1 REVERT JUMPDEST POP POP JUMP JUMPDEST PUSH0 DUP1 SLOAD SWAP1 PUSH2 0x100 EXP SWAP1 DIV PUSH20 0xFFFFFFFFFFFFFFFFFFFFFFFFFFFFFFFFFFFFFFFF AND DUP2 JUMP JUMPDEST JUMP JUMPDEST PUSH0 DUP3 DUP3 MSTORE PUSH1 0x20 DUP3 ADD SWAP1 POP SWAP3 SWAP2 POP POP JUMP JUMPDEST PUSH32 0x7265636569766500000000000000000000000000000000000000000000000000 PUSH0 DUP3 ADD MSTORE POP JUMP JUMPDEST PUSH0 PUSH2 0x389 PUSH1 0x7 DUP4 PUSH2 0x345 JUMP JUMPDEST SWAP2 POP PUSH2 0x394 DUP3 PUSH2 0x355 JUMP JUMPDEST PUSH1 0x20 DUP3 ADD SWAP1 POP SWAP2 SWAP1 POP JUMP JUMPDEST PUSH0 PUSH1 0x20 DUP3 ADD SWAP1 POP DUP2 DUP2 SUB PUSH0 DUP4 ADD MSTORE PUSH2 0x3B6 DUP2 PUSH2 0x37D JUMP JUMPDEST SWAP1 POP SWAP2 SWAP1 POP JUMP JUMPDEST PUSH32 0x66616C6C6261636B000000000000000000000000000000000000000000000000 PUSH0 DUP3 ADD MSTORE POP JUMP JUMPDEST PUSH0 PUSH2 0x3F1 PUSH1 0x8 DUP4 PUSH2 0x345 JUMP JUMPDEST SWAP2 POP PUSH2 0x3FC DUP3 PUSH2 0x3BD JUMP JUMPDEST PUSH1 0x20 DUP3 ADD SWAP1 POP SWAP2 SWAP1 POP JUMP JUMPDEST PUSH0 PUSH1 0x20 DUP3 ADD SWAP1 POP DUP2 DUP2 SUB PUSH0 DUP4 ADD MSTORE PUSH2 0x41E DUP2 PUSH2 0x3E5 JUMP JUMPDEST SWAP1 POP SWAP2 SWAP1 POP JUMP JUMPDEST PUSH0 DUP2 SWAP1 POP SWAP2 SWAP1 POP JUMP JUMPDEST PUSH2 0x437 DUP2 PUSH2 0x425 JUMP JUMPDEST DUP3 MSTORE POP POP JUMP JUMPDEST PUSH0 PUSH1 0x20 DUP3 ADD SWAP1 POP PUSH2 0x450 PUSH0 DUP4 ADD DUP5 PUSH2 0x42E JUMP JUMPDEST SWAP3 SWAP2 POP POP JUMP JUMPDEST PUSH0 DUP1 REVERT JUMPDEST PUSH0 PUSH20 0xFFFFFFFFFFFFFFFFFFFFFFFFFFFFFFFFFFFFFFFF DUP3 AND SWAP1 POP SWAP2 SWAP1 POP JUMP JUMPDEST PUSH0 PUSH2 0x483 DUP3 PUSH2 0x45A JUMP JUMPDEST SWAP1 POP SWAP2 SWAP1 POP JUMP JUMPDEST PUSH2 0x493 DUP2 PUSH2 0x479 JUMP JUMPDEST DUP2 EQ PUSH2 0x49D JUMPI PUSH0 DUP1 REVERT JUMPDEST POP JUMP JUMPDEST PUSH0 DUP2 CALLDATALOAD SWAP1 POP PUSH2 0x4AE DUP2 PUSH2 0x48A JUMP JUMPDEST SWAP3 SWAP2 POP POP JUMP JUMPDEST PUSH0 PUSH1 0x20 DUP3 DUP5 SUB SLT ISZERO PUSH2 0x4C9 JUMPI PUSH2 0x4C8 PUSH2 0x456 JUMP JUMPDEST JUMPDEST PUSH0 PUSH2 0x4D6 DUP5 DUP3 DUP6 ADD PUSH2 0x4A0 JUMP JUMPDEST SWAP2 POP POP SWAP3 SWAP2 POP POP JUMP JUMPDEST PUSH0 PUSH2 0x4E9 DUP3 PUSH2 0x45A JUMP JUMPDEST SWAP1 POP SWAP2 SWAP1 POP JUMP JUMPDEST PUSH2 0x4F9 DUP2 PUSH2 0x4DF JUMP JUMPDEST DUP3 MSTORE POP POP JUMP JUMPDEST PUSH0 PUSH1 0x20 DUP3 ADD SWAP1 POP PUSH2 0x512 PUSH0 DUP4 ADD DUP5 PUSH2 0x4F0 JUMP JUMPDEST SWAP3 SWAP2 POP POP JUMP JUMPDEST PUSH0 DUP2 SWAP1 POP SWAP3 SWAP2 POP POP JUMP JUMPDEST POP JUMP JUMPDEST PUSH0 PUSH2 0x530 PUSH0 DUP4 PUSH2 0x518 JUMP JUMPDEST SWAP2 POP PUSH2 0x53B DUP3 PUSH2 0x522 JUMP JUMPDEST PUSH0 DUP3 ADD SWAP1 POP SWAP2 SWAP1 POP JUMP JUMPDEST PUSH0 PUSH2 0x54F DUP3 PUSH2 0x525 JUMP JUMPDEST SWAP2 POP DUP2 SWAP1 POP SWAP2 SWAP1 POP JUMP JUMPDEST PUSH32 0x6D792063616C6C206661696C6564000000000000000000000000000000000000 PUSH0 DUP3 ADD MSTORE POP JUMP JUMPDEST PUSH0 PUSH2 0x58D PUSH1 0xE DUP4 PUSH2 0x345 JUMP JUMPDEST SWAP2 POP PUSH2 0x598 DUP3 PUSH2 0x559 JUMP JUMPDEST PUSH1 0x20 DUP3 ADD SWAP1 POP SWAP2 SWAP1 POP JUMP JUMPDEST PUSH0 PUSH1 0x20 DUP3 ADD SWAP1 POP DUP2 DUP2 SUB PUSH0 DUP4 ADD MSTORE PUSH2 0x5BA DUP2 PUSH2 0x581 JUMP JUMPDEST SWAP1 POP SWAP2 SWAP1 POP JUMP JUMPDEST PUSH32 0x6D792073656E64206661696C6564000000000000000000000000000000000000 PUSH0 DUP3 ADD MSTORE POP JUMP JUMPDEST PUSH0 PUSH2 0x5F5 PUSH1 0xE DUP4 PUSH2 0x345 JUMP JUMPDEST SWAP2 POP PUSH2 0x600 DUP3 PUSH2 0x5C1 JUMP JUMPDEST PUSH1 0x20 DUP3 ADD SWAP1 POP SWAP2 SWAP1 POP JUMP JUMPDEST PUSH0 PUSH1 0x20 DUP3 ADD SWAP1 POP DUP2 DUP2 SUB PUSH0 DUP4 ADD MSTORE PUSH2 0x622 DUP2 PUSH2 0x5E9 JUMP JUMPDEST SWAP1 POP SWAP2 SWAP1 POP JUMP INVALID LOG2 PUSH5 0x6970667358 0x22 SLT KECCAK256 SWAP10 0xE PUSH12 0xEB02FD174CA7E9CDD5881F4 SAR DUP9 RETURN 0xA8 LOG3 0xE1 GASPRICE DIV SWAP8 0xB1 0xE8 0xCF DUP14 0xB7 CALLER PUSH19 0x1864736F6C634300081A003300000000000000 "
				},
				"gasEstimates": {
					"creation": {
						"codeDepositCost": "326200",
						"executionCost": "24625",
						"totalCost": "350825"
					},
					"external": {
						"": "2374",
						"Owner()": "2571",
						"deposi()": "207",
						"getBalance()": "312",
						"myCall(address)": "infinite",
						"mySend(address)": "infinite",
						"myTransfer(address)": "infinite"
					}
				},
				"methodIdentifiers": {
					"Owner()": "b4a99a4e",
					"deposi()": "be62ca11",
					"getBalance()": "12065fe0",
					"myCall(address)": "868a0ee4",
					"mySend(address)": "a482bda5",
					"myTransfer(address)": "17542cb6"
				}
			},
			"storageLayout": {
				"storage": [
					{
						"astId": 3,
						"contract": "contract/3-4/发送以太.sol:D",
						"label": "Owner",
						"offset": 0,
						"slot": "0",
						"type": "t_address"
					}
				],
				"types": {
					"t_address": {
						"encoding": "inplace",
						"label": "address",
						"numberOfBytes": "20"
					}
				}
			},
			"userdoc": {
				"kind": "user",
				"methods": {},
				"version": 1
			}
		}
	}
}