{
	"contract/3-4/Sig.sol": {
		"SignatureVerification2": {
			"abi": [
				{
					"inputs": [
						{
							"internalType": "bytes32",
							"name": "messageHash",
							"type": "bytes32"
						}
					],
					"name": "getEthSignedMessageHash",
					"outputs": [
						{
							"internalType": "bytes32",
							"name": "",
							"type": "bytes32"
						}
					],
					"stateMutability": "pure",
					"type": "function"
				},
				{
					"inputs": [
						{
							"internalType": "string",
							"name": "message",
							"type": "string"
						}
					],
					"name": "getMessageHash",
					"outputs": [
						{
							"internalType": "bytes32",
							"name": "",
							"type": "bytes32"
						}
					],
					"stateMutability": "pure",
					"type": "function"
				},
				{
					"inputs": [
						{
							"internalType": "bytes32",
							"name": "ethSignedMessageHash",
							"type": "bytes32"
						},
						{
							"internalType": "bytes",
							"name": "sig",
							"type": "bytes"
						}
					],
					"name": "recover",
					"outputs": [
						{
							"internalType": "address",
							"name": "",
							"type": "address"
						}
					],
					"stateMutability": "pure",
					"type": "function"
				},
				{
					"inputs": [
						{
							"internalType": "bytes",
							"name": "sig",
							"type": "bytes"
						}
					],
					"name": "splitSignature",
					"outputs": [
						{
							"internalType": "bytes32",
							"name": "r",
							"type": "bytes32"
						},
						{
							"internalType": "bytes32",
							"name": "s",
							"type": "bytes32"
						},
						{
							"internalType": "uint8",
							"name": "v",
							"type": "uint8"
						}
					],
					"stateMutability": "pure",
					"type": "function"
				},
				{
					"inputs": [
						{
							"internalType": "address",
							"name": "signer",
							"type": "address"
						},
						{
							"internalType": "string",
							"name": "message",
							"type": "string"
						},
						{
							"internalType": "bytes",
							"name": "sig",
							"type": "bytes"
						}
					],
					"name": "verify",
					"outputs": [
						{
							"internalType": "bool",
							"name": "",
							"type": "bool"
						}
					],
					"stateMutability": "pure",
					"type": "function"
				}
			],
			"devdoc": {
				"kind": "dev",
				"methods": {},
				"version": 1
			},
			"evm": {
				"assembly": "    /* \"contract/3-4/Sig.sol\":1682:3193  contract SignatureVerification2 {... */\n  mstore(0x40, 0x80)\n  callvalue\n  dup1\n  iszero\n  tag_1\n  jumpi\n  0x00\n  dup1\n  revert\ntag_1:\n  pop\n  dataSize(sub_0)\n  dup1\n  dataOffset(sub_0)\n  0x00\n  codecopy\n  0x00\n  return\nstop\n\nsub_0: assembly {\n        /* \"contract/3-4/Sig.sol\":1682:3193  contract SignatureVerification2 {... */\n      mstore(0x40, 0x80)\n      callvalue\n      dup1\n      iszero\n      tag_1\n      jumpi\n      0x00\n      dup1\n      revert\n    tag_1:\n      pop\n      jumpi(tag_2, lt(calldatasize, 0x04))\n      shr(0xe0, calldataload(0x00))\n      dup1\n      0x19045a25\n      eq\n      tag_3\n      jumpi\n      dup1\n      0x2dd34f0f\n      eq\n      tag_4\n      jumpi\n      dup1\n      0xa7bb5803\n      eq\n      tag_5\n      jumpi\n      dup1\n      0xb446f3b2\n      eq\n      tag_6\n      jumpi\n      dup1\n      0xfa540801\n      eq\n      tag_7\n      jumpi\n    tag_2:\n      0x00\n      dup1\n      revert\n        /* \"contract/3-4/Sig.sol\":2547:2797  function recover(bytes32 ethSignedMessageHash, bytes memory sig)... */\n    tag_3:\n      tag_8\n      0x04\n      dup1\n      calldatasize\n      sub\n      dup2\n      add\n      swap1\n      tag_9\n      swap2\n      swap1\n      tag_10\n      jump\t// in\n    tag_9:\n      tag_11\n      jump\t// in\n    tag_8:\n      mload(0x40)\n      tag_12\n      swap2\n      swap1\n      tag_13\n      jump\t// in\n    tag_12:\n      mload(0x40)\n      dup1\n      swap2\n      sub\n      swap1\n      return\n        /* \"contract/3-4/Sig.sol\":1720:2052  function verify(... */\n    tag_4:\n      tag_14\n      0x04\n      dup1\n      calldatasize\n      sub\n      dup2\n      add\n      swap1\n      tag_15\n      swap2\n      swap1\n      tag_16\n      jump\t// in\n    tag_15:\n      tag_17\n      jump\t// in\n    tag_14:\n      mload(0x40)\n      tag_18\n      swap2\n      swap1\n      tag_19\n      jump\t// in\n    tag_18:\n      mload(0x40)\n      dup1\n      swap2\n      sub\n      swap1\n      return\n        /* \"contract/3-4/Sig.sol\":2803:3191  function splitSignature(bytes memory sig)... */\n    tag_5:\n      tag_20\n      0x04\n      dup1\n      calldatasize\n      sub\n      dup2\n      add\n      swap1\n      tag_21\n      swap2\n      swap1\n      tag_22\n      jump\t// in\n    tag_21:\n      tag_23\n      jump\t// in\n    tag_20:\n      mload(0x40)\n      tag_24\n      swap4\n      swap3\n      swap2\n      swap1\n      tag_25\n      jump\t// in\n    tag_24:\n      mload(0x40)\n      dup1\n      swap2\n      sub\n      swap1\n      return\n        /* \"contract/3-4/Sig.sol\":2058:2223  function getMessageHash(string memory message)... */\n    tag_6:\n      tag_26\n      0x04\n      dup1\n      calldatasize\n      sub\n      dup2\n      add\n      swap1\n      tag_27\n      swap2\n      swap1\n      tag_28\n      jump\t// in\n    tag_27:\n      tag_29\n      jump\t// in\n    tag_26:\n      mload(0x40)\n      tag_30\n      swap2\n      swap1\n      tag_31\n      jump\t// in\n    tag_30:\n      mload(0x40)\n      dup1\n      swap2\n      sub\n      swap1\n      return\n        /* \"contract/3-4/Sig.sol\":2229:2541  function getEthSignedMessageHash(bytes32 messageHash)... */\n    tag_7:\n      tag_32\n      0x04\n      dup1\n      calldatasize\n      sub\n      dup2\n      add\n      swap1\n      tag_33\n      swap2\n      swap1\n      tag_34\n      jump\t// in\n    tag_33:\n      tag_35\n      jump\t// in\n    tag_32:\n      mload(0x40)\n      tag_36\n      swap2\n      swap1\n      tag_31\n      jump\t// in\n    tag_36:\n      mload(0x40)\n      dup1\n      swap2\n      sub\n      swap1\n      return\n        /* \"contract/3-4/Sig.sol\":2547:2797  function recover(bytes32 ethSignedMessageHash, bytes memory sig)... */\n    tag_11:\n        /* \"contract/3-4/Sig.sol\":2657:2664  address */\n      0x00\n        /* \"contract/3-4/Sig.sol\":2681:2690  bytes32 r */\n      dup1\n        /* \"contract/3-4/Sig.sol\":2692:2701  bytes32 s */\n      0x00\n        /* \"contract/3-4/Sig.sol\":2703:2710  uint8 v */\n      dup1\n        /* \"contract/3-4/Sig.sol\":2714:2733  splitSignature(sig) */\n      tag_38\n        /* \"contract/3-4/Sig.sol\":2729:2732  sig */\n      dup6\n        /* \"contract/3-4/Sig.sol\":2714:2728  splitSignature */\n      tag_23\n        /* \"contract/3-4/Sig.sol\":2714:2733  splitSignature(sig) */\n      jump\t// in\n    tag_38:\n        /* \"contract/3-4/Sig.sol\":2680:2733  (bytes32 r, bytes32 s, uint8 v) = splitSignature(sig) */\n      swap3\n      pop\n      swap3\n      pop\n      swap3\n      pop\n        /* \"contract/3-4/Sig.sol\":2750:2790  ecrecover(ethSignedMessageHash, v, r, s) */\n      0x01\n        /* \"contract/3-4/Sig.sol\":2760:2780  ethSignedMessageHash */\n      dup7\n        /* \"contract/3-4/Sig.sol\":2782:2783  v */\n      dup3\n        /* \"contract/3-4/Sig.sol\":2785:2786  r */\n      dup6\n        /* \"contract/3-4/Sig.sol\":2788:2789  s */\n      dup6\n        /* \"contract/3-4/Sig.sol\":2750:2790  ecrecover(ethSignedMessageHash, v, r, s) */\n      mload(0x40)\n      0x00\n      dup2\n      mstore\n      0x20\n      add\n      0x40\n      mstore\n      mload(0x40)\n      tag_39\n      swap5\n      swap4\n      swap3\n      swap2\n      swap1\n      tag_40\n      jump\t// in\n    tag_39:\n      0x20\n      mload(0x40)\n      0x20\n      dup2\n      sub\n      swap1\n      dup1\n      dup5\n      sub\n      swap1\n      dup6\n      gas\n      staticcall\n      iszero\n      dup1\n      iszero\n      tag_42\n      jumpi\n      returndatasize\n      0x00\n      dup1\n      returndatacopy\n      revert(0x00, returndatasize)\n    tag_42:\n      pop\n      pop\n      pop\n      mload(sub(mload(0x40), 0x20))\n        /* \"contract/3-4/Sig.sol\":2743:2790  return ecrecover(ethSignedMessageHash, v, r, s) */\n      swap4\n      pop\n      pop\n      pop\n      pop\n        /* \"contract/3-4/Sig.sol\":2547:2797  function recover(bytes32 ethSignedMessageHash, bytes memory sig)... */\n      swap3\n      swap2\n      pop\n      pop\n      jump\t// out\n        /* \"contract/3-4/Sig.sol\":1720:2052  function verify(... */\n    tag_17:\n        /* \"contract/3-4/Sig.sol\":1846:1850  bool */\n      0x00\n        /* \"contract/3-4/Sig.sol\":1862:1881  bytes32 messageHash */\n      dup1\n        /* \"contract/3-4/Sig.sol\":1884:1907  getMessageHash(message) */\n      tag_44\n        /* \"contract/3-4/Sig.sol\":1899:1906  message */\n      dup5\n        /* \"contract/3-4/Sig.sol\":1884:1898  getMessageHash */\n      tag_29\n        /* \"contract/3-4/Sig.sol\":1884:1907  getMessageHash(message) */\n      jump\t// in\n    tag_44:\n        /* \"contract/3-4/Sig.sol\":1862:1907  bytes32 messageHash = getMessageHash(message) */\n      swap1\n      pop\n        /* \"contract/3-4/Sig.sol\":1917:1945  bytes32 ethSignedMessageHash */\n      0x00\n        /* \"contract/3-4/Sig.sol\":1948:1984  getEthSignedMessageHash(messageHash) */\n      tag_45\n        /* \"contract/3-4/Sig.sol\":1972:1983  messageHash */\n      dup3\n        /* \"contract/3-4/Sig.sol\":1948:1971  getEthSignedMessageHash */\n      tag_35\n        /* \"contract/3-4/Sig.sol\":1948:1984  getEthSignedMessageHash(messageHash) */\n      jump\t// in\n    tag_45:\n        /* \"contract/3-4/Sig.sol\":1917:1984  bytes32 ethSignedMessageHash = getEthSignedMessageHash(messageHash) */\n      swap1\n      pop\n        /* \"contract/3-4/Sig.sol\":2039:2045  signer */\n      dup6\n        /* \"contract/3-4/Sig.sol\":2001:2045  recover(ethSignedMessageHash, sig) == signer */\n      0xffffffffffffffffffffffffffffffffffffffff\n      and\n        /* \"contract/3-4/Sig.sol\":2001:2035  recover(ethSignedMessageHash, sig) */\n      tag_46\n        /* \"contract/3-4/Sig.sol\":2009:2029  ethSignedMessageHash */\n      dup3\n        /* \"contract/3-4/Sig.sol\":2031:2034  sig */\n      dup7\n        /* \"contract/3-4/Sig.sol\":2001:2008  recover */\n      tag_11\n        /* \"contract/3-4/Sig.sol\":2001:2035  recover(ethSignedMessageHash, sig) */\n      jump\t// in\n    tag_46:\n        /* \"contract/3-4/Sig.sol\":2001:2045  recover(ethSignedMessageHash, sig) == signer */\n      0xffffffffffffffffffffffffffffffffffffffff\n      and\n      eq\n        /* \"contract/3-4/Sig.sol\":1994:2045  return recover(ethSignedMessageHash, sig) == signer */\n      swap3\n      pop\n      pop\n      pop\n        /* \"contract/3-4/Sig.sol\":1720:2052  function verify(... */\n      swap4\n      swap3\n      pop\n      pop\n      pop\n      jump\t// out\n        /* \"contract/3-4/Sig.sol\":2803:3191  function splitSignature(bytes memory sig)... */\n    tag_23:\n        /* \"contract/3-4/Sig.sol\":2903:2912  bytes32 r */\n      0x00\n        /* \"contract/3-4/Sig.sol\":2926:2935  bytes32 s */\n      dup1\n        /* \"contract/3-4/Sig.sol\":2949:2956  uint8 v */\n      0x00\n        /* \"contract/3-4/Sig.sol\":3003:3005  65 */\n      0x41\n        /* \"contract/3-4/Sig.sol\":2989:2992  sig */\n      dup5\n        /* \"contract/3-4/Sig.sol\":2989:2999  sig.length */\n      mload\n        /* \"contract/3-4/Sig.sol\":2989:3005  sig.length == 65 */\n      eq\n        /* \"contract/3-4/Sig.sol\":2981:3034  require(sig.length == 65, \"Invalid signature length\") */\n      tag_48\n      jumpi\n      mload(0x40)\n      0x08c379a000000000000000000000000000000000000000000000000000000000\n      dup2\n      mstore\n      0x04\n      add\n      tag_49\n      swap1\n      tag_50\n      jump\t// in\n    tag_49:\n      mload(0x40)\n      dup1\n      swap2\n      sub\n      swap1\n      revert\n    tag_48:\n        /* \"contract/3-4/Sig.sol\":3088:3090  32 */\n      0x20\n        /* \"contract/3-4/Sig.sol\":3083:3086  sig */\n      dup5\n        /* \"contract/3-4/Sig.sol\":3079:3091  add(sig, 32) */\n      add\n        /* \"contract/3-4/Sig.sol\":3073:3092  mload(add(sig, 32)) */\n      mload\n        /* \"contract/3-4/Sig.sol\":3068:3092  r := mload(add(sig, 32)) */\n      swap3\n      pop\n        /* \"contract/3-4/Sig.sol\":3125:3127  64 */\n      0x40\n        /* \"contract/3-4/Sig.sol\":3120:3123  sig */\n      dup5\n        /* \"contract/3-4/Sig.sol\":3116:3128  add(sig, 64) */\n      add\n        /* \"contract/3-4/Sig.sol\":3110:3129  mload(add(sig, 64)) */\n      mload\n        /* \"contract/3-4/Sig.sol\":3105:3129  s := mload(add(sig, 64)) */\n      swap2\n      pop\n        /* \"contract/3-4/Sig.sol\":3170:3172  96 */\n      0x60\n        /* \"contract/3-4/Sig.sol\":3165:3168  sig */\n      dup5\n        /* \"contract/3-4/Sig.sol\":3161:3173  add(sig, 96) */\n      add\n        /* \"contract/3-4/Sig.sol\":3155:3174  mload(add(sig, 96)) */\n      mload\n        /* \"contract/3-4/Sig.sol\":3152:3153  0 */\n      0x00\n        /* \"contract/3-4/Sig.sol\":3147:3175  byte(0, mload(add(sig, 96))) */\n      byte\n        /* \"contract/3-4/Sig.sol\":3142:3175  v := byte(0, mload(add(sig, 96))) */\n      swap1\n      pop\n        /* \"contract/3-4/Sig.sol\":2803:3191  function splitSignature(bytes memory sig)... */\n      swap2\n      swap4\n      swap1\n      swap3\n      pop\n      jump\t// out\n        /* \"contract/3-4/Sig.sol\":2058:2223  function getMessageHash(string memory message)... */\n    tag_29:\n        /* \"contract/3-4/Sig.sol\":2150:2157  bytes32 */\n      0x00\n        /* \"contract/3-4/Sig.sol\":2207:2214  message */\n      dup2\n        /* \"contract/3-4/Sig.sol\":2190:2215  abi.encodePacked(message) */\n      add(0x20, mload(0x40))\n      tag_52\n      swap2\n      swap1\n      tag_53\n      jump\t// in\n    tag_52:\n      mload(0x40)\n      0x20\n      dup2\n      dup4\n      sub\n      sub\n      dup2\n      mstore\n      swap1\n      0x40\n      mstore\n        /* \"contract/3-4/Sig.sol\":2180:2216  keccak256(abi.encodePacked(message)) */\n      dup1\n      mload\n      swap1\n      0x20\n      add\n      keccak256\n        /* \"contract/3-4/Sig.sol\":2173:2216  return keccak256(abi.encodePacked(message)) */\n      swap1\n      pop\n        /* \"contract/3-4/Sig.sol\":2058:2223  function getMessageHash(string memory message)... */\n      swap2\n      swap1\n      pop\n      jump\t// out\n        /* \"contract/3-4/Sig.sol\":2229:2541  function getEthSignedMessageHash(bytes32 messageHash)... */\n    tag_35:\n        /* \"contract/3-4/Sig.sol\":2328:2335  bytes32 */\n      0x00\n        /* \"contract/3-4/Sig.sol\":2491:2502  messageHash */\n      dup2\n        /* \"contract/3-4/Sig.sol\":2397:2520  abi.encodePacked(... */\n      add(0x20, mload(0x40))\n      tag_55\n      swap2\n      swap1\n      tag_56\n      jump\t// in\n    tag_55:\n      mload(0x40)\n      0x20\n      dup2\n      dup4\n      sub\n      sub\n      dup2\n      mstore\n      swap1\n      0x40\n      mstore\n        /* \"contract/3-4/Sig.sol\":2370:2534  keccak256(... */\n      dup1\n      mload\n      swap1\n      0x20\n      add\n      keccak256\n        /* \"contract/3-4/Sig.sol\":2351:2534  return... */\n      swap1\n      pop\n        /* \"contract/3-4/Sig.sol\":2229:2541  function getEthSignedMessageHash(bytes32 messageHash)... */\n      swap2\n      swap1\n      pop\n      jump\t// out\n        /* \"#utility.yul\":7:82   */\n    tag_57:\n        /* \"#utility.yul\":40:46   */\n      0x00\n        /* \"#utility.yul\":73:75   */\n      0x40\n        /* \"#utility.yul\":67:76   */\n      mload\n        /* \"#utility.yul\":57:76   */\n      swap1\n      pop\n        /* \"#utility.yul\":7:82   */\n      swap1\n      jump\t// out\n        /* \"#utility.yul\":88:205   */\n    tag_58:\n        /* \"#utility.yul\":197:198   */\n      0x00\n        /* \"#utility.yul\":194:195   */\n      dup1\n        /* \"#utility.yul\":187:199   */\n      revert\n        /* \"#utility.yul\":211:328   */\n    tag_59:\n        /* \"#utility.yul\":320:321   */\n      0x00\n        /* \"#utility.yul\":317:318   */\n      dup1\n        /* \"#utility.yul\":310:322   */\n      revert\n        /* \"#utility.yul\":334:411   */\n    tag_60:\n        /* \"#utility.yul\":371:378   */\n      0x00\n        /* \"#utility.yul\":400:405   */\n      dup2\n        /* \"#utility.yul\":389:405   */\n      swap1\n      pop\n        /* \"#utility.yul\":334:411   */\n      swap2\n      swap1\n      pop\n      jump\t// out\n        /* \"#utility.yul\":417:539   */\n    tag_61:\n        /* \"#utility.yul\":490:514   */\n      tag_103\n        /* \"#utility.yul\":508:513   */\n      dup2\n        /* \"#utility.yul\":490:514   */\n      tag_60\n      jump\t// in\n    tag_103:\n        /* \"#utility.yul\":483:488   */\n      dup2\n        /* \"#utility.yul\":480:515   */\n      eq\n        /* \"#utility.yul\":470:533   */\n      tag_104\n      jumpi\n        /* \"#utility.yul\":529:530   */\n      0x00\n        /* \"#utility.yul\":526:527   */\n      dup1\n        /* \"#utility.yul\":519:531   */\n      revert\n        /* \"#utility.yul\":470:533   */\n    tag_104:\n        /* \"#utility.yul\":417:539   */\n      pop\n      jump\t// out\n        /* \"#utility.yul\":545:684   */\n    tag_62:\n        /* \"#utility.yul\":591:596   */\n      0x00\n        /* \"#utility.yul\":629:635   */\n      dup2\n        /* \"#utility.yul\":616:636   */\n      calldataload\n        /* \"#utility.yul\":607:636   */\n      swap1\n      pop\n        /* \"#utility.yul\":645:678   */\n      tag_106\n        /* \"#utility.yul\":672:677   */\n      dup2\n        /* \"#utility.yul\":645:678   */\n      tag_61\n      jump\t// in\n    tag_106:\n        /* \"#utility.yul\":545:684   */\n      swap3\n      swap2\n      pop\n      pop\n      jump\t// out\n        /* \"#utility.yul\":690:807   */\n    tag_63:\n        /* \"#utility.yul\":799:800   */\n      0x00\n        /* \"#utility.yul\":796:797   */\n      dup1\n        /* \"#utility.yul\":789:801   */\n      revert\n        /* \"#utility.yul\":813:930   */\n    tag_64:\n        /* \"#utility.yul\":922:923   */\n      0x00\n        /* \"#utility.yul\":919:920   */\n      dup1\n        /* \"#utility.yul\":912:924   */\n      revert\n        /* \"#utility.yul\":936:1038   */\n    tag_65:\n        /* \"#utility.yul\":977:983   */\n      0x00\n        /* \"#utility.yul\":1028:1030   */\n      0x1f\n        /* \"#utility.yul\":1024:1031   */\n      not\n        /* \"#utility.yul\":1019:1021   */\n      0x1f\n        /* \"#utility.yul\":1012:1017   */\n      dup4\n        /* \"#utility.yul\":1008:1022   */\n      add\n        /* \"#utility.yul\":1004:1032   */\n      and\n        /* \"#utility.yul\":994:1032   */\n      swap1\n      pop\n        /* \"#utility.yul\":936:1038   */\n      swap2\n      swap1\n      pop\n      jump\t// out\n        /* \"#utility.yul\":1044:1224   */\n    tag_66:\n        /* \"#utility.yul\":1092:1169   */\n      0x4e487b7100000000000000000000000000000000000000000000000000000000\n        /* \"#utility.yul\":1089:1090   */\n      0x00\n        /* \"#utility.yul\":1082:1170   */\n      mstore\n        /* \"#utility.yul\":1189:1193   */\n      0x41\n        /* \"#utility.yul\":1186:1187   */\n      0x04\n        /* \"#utility.yul\":1179:1194   */\n      mstore\n        /* \"#utility.yul\":1213:1217   */\n      0x24\n        /* \"#utility.yul\":1210:1211   */\n      0x00\n        /* \"#utility.yul\":1203:1218   */\n      revert\n        /* \"#utility.yul\":1230:1511   */\n    tag_67:\n        /* \"#utility.yul\":1313:1340   */\n      tag_112\n        /* \"#utility.yul\":1335:1339   */\n      dup3\n        /* \"#utility.yul\":1313:1340   */\n      tag_65\n      jump\t// in\n    tag_112:\n        /* \"#utility.yul\":1305:1311   */\n      dup2\n        /* \"#utility.yul\":1301:1341   */\n      add\n        /* \"#utility.yul\":1443:1449   */\n      dup2\n        /* \"#utility.yul\":1431:1441   */\n      dup2\n        /* \"#utility.yul\":1428:1450   */\n      lt\n        /* \"#utility.yul\":1407:1425   */\n      0xffffffffffffffff\n        /* \"#utility.yul\":1395:1405   */\n      dup3\n        /* \"#utility.yul\":1392:1426   */\n      gt\n        /* \"#utility.yul\":1389:1451   */\n      or\n        /* \"#utility.yul\":1386:1474   */\n      iszero\n      tag_113\n      jumpi\n        /* \"#utility.yul\":1454:1472   */\n      tag_114\n      tag_66\n      jump\t// in\n    tag_114:\n        /* \"#utility.yul\":1386:1474   */\n    tag_113:\n        /* \"#utility.yul\":1494:1504   */\n      dup1\n        /* \"#utility.yul\":1490:1492   */\n      0x40\n        /* \"#utility.yul\":1483:1505   */\n      mstore\n        /* \"#utility.yul\":1273:1511   */\n      pop\n        /* \"#utility.yul\":1230:1511   */\n      pop\n      pop\n      jump\t// out\n        /* \"#utility.yul\":1517:1646   */\n    tag_68:\n        /* \"#utility.yul\":1551:1557   */\n      0x00\n        /* \"#utility.yul\":1578:1598   */\n      tag_116\n      tag_57\n      jump\t// in\n    tag_116:\n        /* \"#utility.yul\":1568:1598   */\n      swap1\n      pop\n        /* \"#utility.yul\":1607:1640   */\n      tag_117\n        /* \"#utility.yul\":1635:1639   */\n      dup3\n        /* \"#utility.yul\":1627:1633   */\n      dup3\n        /* \"#utility.yul\":1607:1640   */\n      tag_67\n      jump\t// in\n    tag_117:\n        /* \"#utility.yul\":1517:1646   */\n      swap2\n      swap1\n      pop\n      jump\t// out\n        /* \"#utility.yul\":1652:1959   */\n    tag_69:\n        /* \"#utility.yul\":1713:1717   */\n      0x00\n        /* \"#utility.yul\":1803:1821   */\n      0xffffffffffffffff\n        /* \"#utility.yul\":1795:1801   */\n      dup3\n        /* \"#utility.yul\":1792:1822   */\n      gt\n        /* \"#utility.yul\":1789:1845   */\n      iszero\n      tag_119\n      jumpi\n        /* \"#utility.yul\":1825:1843   */\n      tag_120\n      tag_66\n      jump\t// in\n    tag_120:\n        /* \"#utility.yul\":1789:1845   */\n    tag_119:\n        /* \"#utility.yul\":1863:1892   */\n      tag_121\n        /* \"#utility.yul\":1885:1891   */\n      dup3\n        /* \"#utility.yul\":1863:1892   */\n      tag_65\n      jump\t// in\n    tag_121:\n        /* \"#utility.yul\":1855:1892   */\n      swap1\n      pop\n        /* \"#utility.yul\":1947:1951   */\n      0x20\n        /* \"#utility.yul\":1941:1945   */\n      dup2\n        /* \"#utility.yul\":1937:1952   */\n      add\n        /* \"#utility.yul\":1929:1952   */\n      swap1\n      pop\n        /* \"#utility.yul\":1652:1959   */\n      swap2\n      swap1\n      pop\n      jump\t// out\n        /* \"#utility.yul\":1965:2113   */\n    tag_70:\n        /* \"#utility.yul\":2063:2069   */\n      dup3\n        /* \"#utility.yul\":2058:2061   */\n      dup2\n        /* \"#utility.yul\":2053:2056   */\n      dup4\n        /* \"#utility.yul\":2040:2070   */\n      calldatacopy\n        /* \"#utility.yul\":2104:2105   */\n      0x00\n        /* \"#utility.yul\":2095:2101   */\n      dup4\n        /* \"#utility.yul\":2090:2093   */\n      dup4\n        /* \"#utility.yul\":2086:2102   */\n      add\n        /* \"#utility.yul\":2079:2106   */\n      mstore\n        /* \"#utility.yul\":1965:2113   */\n      pop\n      pop\n      pop\n      jump\t// out\n        /* \"#utility.yul\":2119:2542   */\n    tag_71:\n        /* \"#utility.yul\":2196:2201   */\n      0x00\n        /* \"#utility.yul\":2221:2286   */\n      tag_124\n        /* \"#utility.yul\":2237:2285   */\n      tag_125\n        /* \"#utility.yul\":2278:2284   */\n      dup5\n        /* \"#utility.yul\":2237:2285   */\n      tag_69\n      jump\t// in\n    tag_125:\n        /* \"#utility.yul\":2221:2286   */\n      tag_68\n      jump\t// in\n    tag_124:\n        /* \"#utility.yul\":2212:2286   */\n      swap1\n      pop\n        /* \"#utility.yul\":2309:2315   */\n      dup3\n        /* \"#utility.yul\":2302:2307   */\n      dup2\n        /* \"#utility.yul\":2295:2316   */\n      mstore\n        /* \"#utility.yul\":2347:2351   */\n      0x20\n        /* \"#utility.yul\":2340:2345   */\n      dup2\n        /* \"#utility.yul\":2336:2352   */\n      add\n        /* \"#utility.yul\":2385:2388   */\n      dup5\n        /* \"#utility.yul\":2376:2382   */\n      dup5\n        /* \"#utility.yul\":2371:2374   */\n      dup5\n        /* \"#utility.yul\":2367:2383   */\n      add\n        /* \"#utility.yul\":2364:2389   */\n      gt\n        /* \"#utility.yul\":2361:2473   */\n      iszero\n      tag_126\n      jumpi\n        /* \"#utility.yul\":2392:2471   */\n      tag_127\n      tag_64\n      jump\t// in\n    tag_127:\n        /* \"#utility.yul\":2361:2473   */\n    tag_126:\n        /* \"#utility.yul\":2482:2536   */\n      tag_128\n        /* \"#utility.yul\":2529:2535   */\n      dup5\n        /* \"#utility.yul\":2524:2527   */\n      dup3\n        /* \"#utility.yul\":2519:2522   */\n      dup6\n        /* \"#utility.yul\":2482:2536   */\n      tag_70\n      jump\t// in\n    tag_128:\n        /* \"#utility.yul\":2202:2542   */\n      pop\n        /* \"#utility.yul\":2119:2542   */\n      swap4\n      swap3\n      pop\n      pop\n      pop\n      jump\t// out\n        /* \"#utility.yul\":2561:2899   */\n    tag_72:\n        /* \"#utility.yul\":2616:2621   */\n      0x00\n        /* \"#utility.yul\":2665:2668   */\n      dup3\n        /* \"#utility.yul\":2658:2662   */\n      0x1f\n        /* \"#utility.yul\":2650:2656   */\n      dup4\n        /* \"#utility.yul\":2646:2663   */\n      add\n        /* \"#utility.yul\":2642:2669   */\n      slt\n        /* \"#utility.yul\":2632:2754   */\n      tag_130\n      jumpi\n        /* \"#utility.yul\":2673:2752   */\n      tag_131\n      tag_63\n      jump\t// in\n    tag_131:\n        /* \"#utility.yul\":2632:2754   */\n    tag_130:\n        /* \"#utility.yul\":2790:2796   */\n      dup2\n        /* \"#utility.yul\":2777:2797   */\n      calldataload\n        /* \"#utility.yul\":2815:2893   */\n      tag_132\n        /* \"#utility.yul\":2889:2892   */\n      dup5\n        /* \"#utility.yul\":2881:2887   */\n      dup3\n        /* \"#utility.yul\":2874:2878   */\n      0x20\n        /* \"#utility.yul\":2866:2872   */\n      dup7\n        /* \"#utility.yul\":2862:2879   */\n      add\n        /* \"#utility.yul\":2815:2893   */\n      tag_71\n      jump\t// in\n    tag_132:\n        /* \"#utility.yul\":2806:2893   */\n      swap2\n      pop\n        /* \"#utility.yul\":2622:2899   */\n      pop\n        /* \"#utility.yul\":2561:2899   */\n      swap3\n      swap2\n      pop\n      pop\n      jump\t// out\n        /* \"#utility.yul\":2905:3557   */\n    tag_10:\n        /* \"#utility.yul\":2982:2988   */\n      0x00\n        /* \"#utility.yul\":2990:2996   */\n      dup1\n        /* \"#utility.yul\":3039:3041   */\n      0x40\n        /* \"#utility.yul\":3027:3036   */\n      dup4\n        /* \"#utility.yul\":3018:3025   */\n      dup6\n        /* \"#utility.yul\":3014:3037   */\n      sub\n        /* \"#utility.yul\":3010:3042   */\n      slt\n        /* \"#utility.yul\":3007:3126   */\n      iszero\n      tag_134\n      jumpi\n        /* \"#utility.yul\":3045:3124   */\n      tag_135\n      tag_58\n      jump\t// in\n    tag_135:\n        /* \"#utility.yul\":3007:3126   */\n    tag_134:\n        /* \"#utility.yul\":3165:3166   */\n      0x00\n        /* \"#utility.yul\":3190:3243   */\n      tag_136\n        /* \"#utility.yul\":3235:3242   */\n      dup6\n        /* \"#utility.yul\":3226:3232   */\n      dup3\n        /* \"#utility.yul\":3215:3224   */\n      dup7\n        /* \"#utility.yul\":3211:3233   */\n      add\n        /* \"#utility.yul\":3190:3243   */\n      tag_62\n      jump\t// in\n    tag_136:\n        /* \"#utility.yul\":3180:3243   */\n      swap3\n      pop\n        /* \"#utility.yul\":3136:3253   */\n      pop\n        /* \"#utility.yul\":3320:3322   */\n      0x20\n        /* \"#utility.yul\":3309:3318   */\n      dup4\n        /* \"#utility.yul\":3305:3323   */\n      add\n        /* \"#utility.yul\":3292:3324   */\n      calldataload\n        /* \"#utility.yul\":3351:3369   */\n      0xffffffffffffffff\n        /* \"#utility.yul\":3343:3349   */\n      dup2\n        /* \"#utility.yul\":3340:3370   */\n      gt\n        /* \"#utility.yul\":3337:3454   */\n      iszero\n      tag_137\n      jumpi\n        /* \"#utility.yul\":3373:3452   */\n      tag_138\n      tag_59\n      jump\t// in\n    tag_138:\n        /* \"#utility.yul\":3337:3454   */\n    tag_137:\n        /* \"#utility.yul\":3478:3540   */\n      tag_139\n        /* \"#utility.yul\":3532:3539   */\n      dup6\n        /* \"#utility.yul\":3523:3529   */\n      dup3\n        /* \"#utility.yul\":3512:3521   */\n      dup7\n        /* \"#utility.yul\":3508:3530   */\n      add\n        /* \"#utility.yul\":3478:3540   */\n      tag_72\n      jump\t// in\n    tag_139:\n        /* \"#utility.yul\":3468:3540   */\n      swap2\n      pop\n        /* \"#utility.yul\":3263:3550   */\n      pop\n        /* \"#utility.yul\":2905:3557   */\n      swap3\n      pop\n      swap3\n      swap1\n      pop\n      jump\t// out\n        /* \"#utility.yul\":3563:3689   */\n    tag_73:\n        /* \"#utility.yul\":3600:3607   */\n      0x00\n        /* \"#utility.yul\":3640:3682   */\n      0xffffffffffffffffffffffffffffffffffffffff\n        /* \"#utility.yul\":3633:3638   */\n      dup3\n        /* \"#utility.yul\":3629:3683   */\n      and\n        /* \"#utility.yul\":3618:3683   */\n      swap1\n      pop\n        /* \"#utility.yul\":3563:3689   */\n      swap2\n      swap1\n      pop\n      jump\t// out\n        /* \"#utility.yul\":3695:3791   */\n    tag_74:\n        /* \"#utility.yul\":3732:3739   */\n      0x00\n        /* \"#utility.yul\":3761:3785   */\n      tag_142\n        /* \"#utility.yul\":3779:3784   */\n      dup3\n        /* \"#utility.yul\":3761:3785   */\n      tag_73\n      jump\t// in\n    tag_142:\n        /* \"#utility.yul\":3750:3785   */\n      swap1\n      pop\n        /* \"#utility.yul\":3695:3791   */\n      swap2\n      swap1\n      pop\n      jump\t// out\n        /* \"#utility.yul\":3797:3915   */\n    tag_75:\n        /* \"#utility.yul\":3884:3908   */\n      tag_144\n        /* \"#utility.yul\":3902:3907   */\n      dup2\n        /* \"#utility.yul\":3884:3908   */\n      tag_74\n      jump\t// in\n    tag_144:\n        /* \"#utility.yul\":3879:3882   */\n      dup3\n        /* \"#utility.yul\":3872:3909   */\n      mstore\n        /* \"#utility.yul\":3797:3915   */\n      pop\n      pop\n      jump\t// out\n        /* \"#utility.yul\":3921:4143   */\n    tag_13:\n        /* \"#utility.yul\":4014:4018   */\n      0x00\n        /* \"#utility.yul\":4052:4054   */\n      0x20\n        /* \"#utility.yul\":4041:4050   */\n      dup3\n        /* \"#utility.yul\":4037:4055   */\n      add\n        /* \"#utility.yul\":4029:4055   */\n      swap1\n      pop\n        /* \"#utility.yul\":4065:4136   */\n      tag_146\n        /* \"#utility.yul\":4133:4134   */\n      0x00\n        /* \"#utility.yul\":4122:4131   */\n      dup4\n        /* \"#utility.yul\":4118:4135   */\n      add\n        /* \"#utility.yul\":4109:4115   */\n      dup5\n        /* \"#utility.yul\":4065:4136   */\n      tag_75\n      jump\t// in\n    tag_146:\n        /* \"#utility.yul\":3921:4143   */\n      swap3\n      swap2\n      pop\n      pop\n      jump\t// out\n        /* \"#utility.yul\":4149:4271   */\n    tag_76:\n        /* \"#utility.yul\":4222:4246   */\n      tag_148\n        /* \"#utility.yul\":4240:4245   */\n      dup2\n        /* \"#utility.yul\":4222:4246   */\n      tag_74\n      jump\t// in\n    tag_148:\n        /* \"#utility.yul\":4215:4220   */\n      dup2\n        /* \"#utility.yul\":4212:4247   */\n      eq\n        /* \"#utility.yul\":4202:4265   */\n      tag_149\n      jumpi\n        /* \"#utility.yul\":4261:4262   */\n      0x00\n        /* \"#utility.yul\":4258:4259   */\n      dup1\n        /* \"#utility.yul\":4251:4263   */\n      revert\n        /* \"#utility.yul\":4202:4265   */\n    tag_149:\n        /* \"#utility.yul\":4149:4271   */\n      pop\n      jump\t// out\n        /* \"#utility.yul\":4277:4416   */\n    tag_77:\n        /* \"#utility.yul\":4323:4328   */\n      0x00\n        /* \"#utility.yul\":4361:4367   */\n      dup2\n        /* \"#utility.yul\":4348:4368   */\n      calldataload\n        /* \"#utility.yul\":4339:4368   */\n      swap1\n      pop\n        /* \"#utility.yul\":4377:4410   */\n      tag_151\n        /* \"#utility.yul\":4404:4409   */\n      dup2\n        /* \"#utility.yul\":4377:4410   */\n      tag_76\n      jump\t// in\n    tag_151:\n        /* \"#utility.yul\":4277:4416   */\n      swap3\n      swap2\n      pop\n      pop\n      jump\t// out\n        /* \"#utility.yul\":4422:4730   */\n    tag_78:\n        /* \"#utility.yul\":4484:4488   */\n      0x00\n        /* \"#utility.yul\":4574:4592   */\n      0xffffffffffffffff\n        /* \"#utility.yul\":4566:4572   */\n      dup3\n        /* \"#utility.yul\":4563:4593   */\n      gt\n        /* \"#utility.yul\":4560:4616   */\n      iszero\n      tag_153\n      jumpi\n        /* \"#utility.yul\":4596:4614   */\n      tag_154\n      tag_66\n      jump\t// in\n    tag_154:\n        /* \"#utility.yul\":4560:4616   */\n    tag_153:\n        /* \"#utility.yul\":4634:4663   */\n      tag_155\n        /* \"#utility.yul\":4656:4662   */\n      dup3\n        /* \"#utility.yul\":4634:4663   */\n      tag_65\n      jump\t// in\n    tag_155:\n        /* \"#utility.yul\":4626:4663   */\n      swap1\n      pop\n        /* \"#utility.yul\":4718:4722   */\n      0x20\n        /* \"#utility.yul\":4712:4716   */\n      dup2\n        /* \"#utility.yul\":4708:4723   */\n      add\n        /* \"#utility.yul\":4700:4723   */\n      swap1\n      pop\n        /* \"#utility.yul\":4422:4730   */\n      swap2\n      swap1\n      pop\n      jump\t// out\n        /* \"#utility.yul\":4736:5161   */\n    tag_79:\n        /* \"#utility.yul\":4814:4819   */\n      0x00\n        /* \"#utility.yul\":4839:4905   */\n      tag_157\n        /* \"#utility.yul\":4855:4904   */\n      tag_158\n        /* \"#utility.yul\":4897:4903   */\n      dup5\n        /* \"#utility.yul\":4855:4904   */\n      tag_78\n      jump\t// in\n    tag_158:\n        /* \"#utility.yul\":4839:4905   */\n      tag_68\n      jump\t// in\n    tag_157:\n        /* \"#utility.yul\":4830:4905   */\n      swap1\n      pop\n        /* \"#utility.yul\":4928:4934   */\n      dup3\n        /* \"#utility.yul\":4921:4926   */\n      dup2\n        /* \"#utility.yul\":4914:4935   */\n      mstore\n        /* \"#utility.yul\":4966:4970   */\n      0x20\n        /* \"#utility.yul\":4959:4964   */\n      dup2\n        /* \"#utility.yul\":4955:4971   */\n      add\n        /* \"#utility.yul\":5004:5007   */\n      dup5\n        /* \"#utility.yul\":4995:5001   */\n      dup5\n        /* \"#utility.yul\":4990:4993   */\n      dup5\n        /* \"#utility.yul\":4986:5002   */\n      add\n        /* \"#utility.yul\":4983:5008   */\n      gt\n        /* \"#utility.yul\":4980:5092   */\n      iszero\n      tag_159\n      jumpi\n        /* \"#utility.yul\":5011:5090   */\n      tag_160\n      tag_64\n      jump\t// in\n    tag_160:\n        /* \"#utility.yul\":4980:5092   */\n    tag_159:\n        /* \"#utility.yul\":5101:5155   */\n      tag_161\n        /* \"#utility.yul\":5148:5154   */\n      dup5\n        /* \"#utility.yul\":5143:5146   */\n      dup3\n        /* \"#utility.yul\":5138:5141   */\n      dup6\n        /* \"#utility.yul\":5101:5155   */\n      tag_70\n      jump\t// in\n    tag_161:\n        /* \"#utility.yul\":4820:5161   */\n      pop\n        /* \"#utility.yul\":4736:5161   */\n      swap4\n      swap3\n      pop\n      pop\n      pop\n      jump\t// out\n        /* \"#utility.yul\":5181:5521   */\n    tag_80:\n        /* \"#utility.yul\":5237:5242   */\n      0x00\n        /* \"#utility.yul\":5286:5289   */\n      dup3\n        /* \"#utility.yul\":5279:5283   */\n      0x1f\n        /* \"#utility.yul\":5271:5277   */\n      dup4\n        /* \"#utility.yul\":5267:5284   */\n      add\n        /* \"#utility.yul\":5263:5290   */\n      slt\n        /* \"#utility.yul\":5253:5375   */\n      tag_163\n      jumpi\n        /* \"#utility.yul\":5294:5373   */\n      tag_164\n      tag_63\n      jump\t// in\n    tag_164:\n        /* \"#utility.yul\":5253:5375   */\n    tag_163:\n        /* \"#utility.yul\":5411:5417   */\n      dup2\n        /* \"#utility.yul\":5398:5418   */\n      calldataload\n        /* \"#utility.yul\":5436:5515   */\n      tag_165\n        /* \"#utility.yul\":5511:5514   */\n      dup5\n        /* \"#utility.yul\":5503:5509   */\n      dup3\n        /* \"#utility.yul\":5496:5500   */\n      0x20\n        /* \"#utility.yul\":5488:5494   */\n      dup7\n        /* \"#utility.yul\":5484:5501   */\n      add\n        /* \"#utility.yul\":5436:5515   */\n      tag_79\n      jump\t// in\n    tag_165:\n        /* \"#utility.yul\":5427:5515   */\n      swap2\n      pop\n        /* \"#utility.yul\":5243:5521   */\n      pop\n        /* \"#utility.yul\":5181:5521   */\n      swap3\n      swap2\n      pop\n      pop\n      jump\t// out\n        /* \"#utility.yul\":5527:6504   */\n    tag_16:\n        /* \"#utility.yul\":5623:5629   */\n      0x00\n        /* \"#utility.yul\":5631:5637   */\n      dup1\n        /* \"#utility.yul\":5639:5645   */\n      0x00\n        /* \"#utility.yul\":5688:5690   */\n      0x60\n        /* \"#utility.yul\":5676:5685   */\n      dup5\n        /* \"#utility.yul\":5667:5674   */\n      dup7\n        /* \"#utility.yul\":5663:5686   */\n      sub\n        /* \"#utility.yul\":5659:5691   */\n      slt\n        /* \"#utility.yul\":5656:5775   */\n      iszero\n      tag_167\n      jumpi\n        /* \"#utility.yul\":5694:5773   */\n      tag_168\n      tag_58\n      jump\t// in\n    tag_168:\n        /* \"#utility.yul\":5656:5775   */\n    tag_167:\n        /* \"#utility.yul\":5814:5815   */\n      0x00\n        /* \"#utility.yul\":5839:5892   */\n      tag_169\n        /* \"#utility.yul\":5884:5891   */\n      dup7\n        /* \"#utility.yul\":5875:5881   */\n      dup3\n        /* \"#utility.yul\":5864:5873   */\n      dup8\n        /* \"#utility.yul\":5860:5882   */\n      add\n        /* \"#utility.yul\":5839:5892   */\n      tag_77\n      jump\t// in\n    tag_169:\n        /* \"#utility.yul\":5829:5892   */\n      swap4\n      pop\n        /* \"#utility.yul\":5785:5902   */\n      pop\n        /* \"#utility.yul\":5969:5971   */\n      0x20\n        /* \"#utility.yul\":5958:5967   */\n      dup5\n        /* \"#utility.yul\":5954:5972   */\n      add\n        /* \"#utility.yul\":5941:5973   */\n      calldataload\n        /* \"#utility.yul\":6000:6018   */\n      0xffffffffffffffff\n        /* \"#utility.yul\":5992:5998   */\n      dup2\n        /* \"#utility.yul\":5989:6019   */\n      gt\n        /* \"#utility.yul\":5986:6103   */\n      iszero\n      tag_170\n      jumpi\n        /* \"#utility.yul\":6022:6101   */\n      tag_171\n      tag_59\n      jump\t// in\n    tag_171:\n        /* \"#utility.yul\":5986:6103   */\n    tag_170:\n        /* \"#utility.yul\":6127:6190   */\n      tag_172\n        /* \"#utility.yul\":6182:6189   */\n      dup7\n        /* \"#utility.yul\":6173:6179   */\n      dup3\n        /* \"#utility.yul\":6162:6171   */\n      dup8\n        /* \"#utility.yul\":6158:6180   */\n      add\n        /* \"#utility.yul\":6127:6190   */\n      tag_80\n      jump\t// in\n    tag_172:\n        /* \"#utility.yul\":6117:6190   */\n      swap3\n      pop\n        /* \"#utility.yul\":5912:6200   */\n      pop\n        /* \"#utility.yul\":6267:6269   */\n      0x40\n        /* \"#utility.yul\":6256:6265   */\n      dup5\n        /* \"#utility.yul\":6252:6270   */\n      add\n        /* \"#utility.yul\":6239:6271   */\n      calldataload\n        /* \"#utility.yul\":6298:6316   */\n      0xffffffffffffffff\n        /* \"#utility.yul\":6290:6296   */\n      dup2\n        /* \"#utility.yul\":6287:6317   */\n      gt\n        /* \"#utility.yul\":6284:6401   */\n      iszero\n      tag_173\n      jumpi\n        /* \"#utility.yul\":6320:6399   */\n      tag_174\n      tag_59\n      jump\t// in\n    tag_174:\n        /* \"#utility.yul\":6284:6401   */\n    tag_173:\n        /* \"#utility.yul\":6425:6487   */\n      tag_175\n        /* \"#utility.yul\":6479:6486   */\n      dup7\n        /* \"#utility.yul\":6470:6476   */\n      dup3\n        /* \"#utility.yul\":6459:6468   */\n      dup8\n        /* \"#utility.yul\":6455:6477   */\n      add\n        /* \"#utility.yul\":6425:6487   */\n      tag_72\n      jump\t// in\n    tag_175:\n        /* \"#utility.yul\":6415:6487   */\n      swap2\n      pop\n        /* \"#utility.yul\":6210:6497   */\n      pop\n        /* \"#utility.yul\":5527:6504   */\n      swap3\n      pop\n      swap3\n      pop\n      swap3\n      jump\t// out\n        /* \"#utility.yul\":6510:6600   */\n    tag_81:\n        /* \"#utility.yul\":6544:6551   */\n      0x00\n        /* \"#utility.yul\":6587:6592   */\n      dup2\n        /* \"#utility.yul\":6580:6593   */\n      iszero\n        /* \"#utility.yul\":6573:6594   */\n      iszero\n        /* \"#utility.yul\":6562:6594   */\n      swap1\n      pop\n        /* \"#utility.yul\":6510:6600   */\n      swap2\n      swap1\n      pop\n      jump\t// out\n        /* \"#utility.yul\":6606:6715   */\n    tag_82:\n        /* \"#utility.yul\":6687:6708   */\n      tag_178\n        /* \"#utility.yul\":6702:6707   */\n      dup2\n        /* \"#utility.yul\":6687:6708   */\n      tag_81\n      jump\t// in\n    tag_178:\n        /* \"#utility.yul\":6682:6685   */\n      dup3\n        /* \"#utility.yul\":6675:6709   */\n      mstore\n        /* \"#utility.yul\":6606:6715   */\n      pop\n      pop\n      jump\t// out\n        /* \"#utility.yul\":6721:6931   */\n    tag_19:\n        /* \"#utility.yul\":6808:6812   */\n      0x00\n        /* \"#utility.yul\":6846:6848   */\n      0x20\n        /* \"#utility.yul\":6835:6844   */\n      dup3\n        /* \"#utility.yul\":6831:6849   */\n      add\n        /* \"#utility.yul\":6823:6849   */\n      swap1\n      pop\n        /* \"#utility.yul\":6859:6924   */\n      tag_180\n        /* \"#utility.yul\":6921:6922   */\n      0x00\n        /* \"#utility.yul\":6910:6919   */\n      dup4\n        /* \"#utility.yul\":6906:6923   */\n      add\n        /* \"#utility.yul\":6897:6903   */\n      dup5\n        /* \"#utility.yul\":6859:6924   */\n      tag_82\n      jump\t// in\n    tag_180:\n        /* \"#utility.yul\":6721:6931   */\n      swap3\n      swap2\n      pop\n      pop\n      jump\t// out\n        /* \"#utility.yul\":6937:7444   */\n    tag_22:\n        /* \"#utility.yul\":7005:7011   */\n      0x00\n        /* \"#utility.yul\":7054:7056   */\n      0x20\n        /* \"#utility.yul\":7042:7051   */\n      dup3\n        /* \"#utility.yul\":7033:7040   */\n      dup5\n        /* \"#utility.yul\":7029:7052   */\n      sub\n        /* \"#utility.yul\":7025:7057   */\n      slt\n        /* \"#utility.yul\":7022:7141   */\n      iszero\n      tag_182\n      jumpi\n        /* \"#utility.yul\":7060:7139   */\n      tag_183\n      tag_58\n      jump\t// in\n    tag_183:\n        /* \"#utility.yul\":7022:7141   */\n    tag_182:\n        /* \"#utility.yul\":7208:7209   */\n      0x00\n        /* \"#utility.yul\":7197:7206   */\n      dup3\n        /* \"#utility.yul\":7193:7210   */\n      add\n        /* \"#utility.yul\":7180:7211   */\n      calldataload\n        /* \"#utility.yul\":7238:7256   */\n      0xffffffffffffffff\n        /* \"#utility.yul\":7230:7236   */\n      dup2\n        /* \"#utility.yul\":7227:7257   */\n      gt\n        /* \"#utility.yul\":7224:7341   */\n      iszero\n      tag_184\n      jumpi\n        /* \"#utility.yul\":7260:7339   */\n      tag_185\n      tag_59\n      jump\t// in\n    tag_185:\n        /* \"#utility.yul\":7224:7341   */\n    tag_184:\n        /* \"#utility.yul\":7365:7427   */\n      tag_186\n        /* \"#utility.yul\":7419:7426   */\n      dup5\n        /* \"#utility.yul\":7410:7416   */\n      dup3\n        /* \"#utility.yul\":7399:7408   */\n      dup6\n        /* \"#utility.yul\":7395:7417   */\n      add\n        /* \"#utility.yul\":7365:7427   */\n      tag_72\n      jump\t// in\n    tag_186:\n        /* \"#utility.yul\":7355:7427   */\n      swap2\n      pop\n        /* \"#utility.yul\":7151:7437   */\n      pop\n        /* \"#utility.yul\":6937:7444   */\n      swap3\n      swap2\n      pop\n      pop\n      jump\t// out\n        /* \"#utility.yul\":7450:7568   */\n    tag_83:\n        /* \"#utility.yul\":7537:7561   */\n      tag_188\n        /* \"#utility.yul\":7555:7560   */\n      dup2\n        /* \"#utility.yul\":7537:7561   */\n      tag_60\n      jump\t// in\n    tag_188:\n        /* \"#utility.yul\":7532:7535   */\n      dup3\n        /* \"#utility.yul\":7525:7562   */\n      mstore\n        /* \"#utility.yul\":7450:7568   */\n      pop\n      pop\n      jump\t// out\n        /* \"#utility.yul\":7574:7660   */\n    tag_84:\n        /* \"#utility.yul\":7609:7616   */\n      0x00\n        /* \"#utility.yul\":7649:7653   */\n      0xff\n        /* \"#utility.yul\":7642:7647   */\n      dup3\n        /* \"#utility.yul\":7638:7654   */\n      and\n        /* \"#utility.yul\":7627:7654   */\n      swap1\n      pop\n        /* \"#utility.yul\":7574:7660   */\n      swap2\n      swap1\n      pop\n      jump\t// out\n        /* \"#utility.yul\":7666:7778   */\n    tag_85:\n        /* \"#utility.yul\":7749:7771   */\n      tag_191\n        /* \"#utility.yul\":7765:7770   */\n      dup2\n        /* \"#utility.yul\":7749:7771   */\n      tag_84\n      jump\t// in\n    tag_191:\n        /* \"#utility.yul\":7744:7747   */\n      dup3\n        /* \"#utility.yul\":7737:7772   */\n      mstore\n        /* \"#utility.yul\":7666:7778   */\n      pop\n      pop\n      jump\t// out\n        /* \"#utility.yul\":7784:8218   */\n    tag_25:\n        /* \"#utility.yul\":7929:7933   */\n      0x00\n        /* \"#utility.yul\":7967:7969   */\n      0x60\n        /* \"#utility.yul\":7956:7965   */\n      dup3\n        /* \"#utility.yul\":7952:7970   */\n      add\n        /* \"#utility.yul\":7944:7970   */\n      swap1\n      pop\n        /* \"#utility.yul\":7980:8051   */\n      tag_193\n        /* \"#utility.yul\":8048:8049   */\n      0x00\n        /* \"#utility.yul\":8037:8046   */\n      dup4\n        /* \"#utility.yul\":8033:8050   */\n      add\n        /* \"#utility.yul\":8024:8030   */\n      dup7\n        /* \"#utility.yul\":7980:8051   */\n      tag_83\n      jump\t// in\n    tag_193:\n        /* \"#utility.yul\":8061:8133   */\n      tag_194\n        /* \"#utility.yul\":8129:8131   */\n      0x20\n        /* \"#utility.yul\":8118:8127   */\n      dup4\n        /* \"#utility.yul\":8114:8132   */\n      add\n        /* \"#utility.yul\":8105:8111   */\n      dup6\n        /* \"#utility.yul\":8061:8133   */\n      tag_83\n      jump\t// in\n    tag_194:\n        /* \"#utility.yul\":8143:8211   */\n      tag_195\n        /* \"#utility.yul\":8207:8209   */\n      0x40\n        /* \"#utility.yul\":8196:8205   */\n      dup4\n        /* \"#utility.yul\":8192:8210   */\n      add\n        /* \"#utility.yul\":8183:8189   */\n      dup5\n        /* \"#utility.yul\":8143:8211   */\n      tag_85\n      jump\t// in\n    tag_195:\n        /* \"#utility.yul\":7784:8218   */\n      swap5\n      swap4\n      pop\n      pop\n      pop\n      pop\n      jump\t// out\n        /* \"#utility.yul\":8224:8733   */\n    tag_28:\n        /* \"#utility.yul\":8293:8299   */\n      0x00\n        /* \"#utility.yul\":8342:8344   */\n      0x20\n        /* \"#utility.yul\":8330:8339   */\n      dup3\n        /* \"#utility.yul\":8321:8328   */\n      dup5\n        /* \"#utility.yul\":8317:8340   */\n      sub\n        /* \"#utility.yul\":8313:8345   */\n      slt\n        /* \"#utility.yul\":8310:8429   */\n      iszero\n      tag_197\n      jumpi\n        /* \"#utility.yul\":8348:8427   */\n      tag_198\n      tag_58\n      jump\t// in\n    tag_198:\n        /* \"#utility.yul\":8310:8429   */\n    tag_197:\n        /* \"#utility.yul\":8496:8497   */\n      0x00\n        /* \"#utility.yul\":8485:8494   */\n      dup3\n        /* \"#utility.yul\":8481:8498   */\n      add\n        /* \"#utility.yul\":8468:8499   */\n      calldataload\n        /* \"#utility.yul\":8526:8544   */\n      0xffffffffffffffff\n        /* \"#utility.yul\":8518:8524   */\n      dup2\n        /* \"#utility.yul\":8515:8545   */\n      gt\n        /* \"#utility.yul\":8512:8629   */\n      iszero\n      tag_199\n      jumpi\n        /* \"#utility.yul\":8548:8627   */\n      tag_200\n      tag_59\n      jump\t// in\n    tag_200:\n        /* \"#utility.yul\":8512:8629   */\n    tag_199:\n        /* \"#utility.yul\":8653:8716   */\n      tag_201\n        /* \"#utility.yul\":8708:8715   */\n      dup5\n        /* \"#utility.yul\":8699:8705   */\n      dup3\n        /* \"#utility.yul\":8688:8697   */\n      dup6\n        /* \"#utility.yul\":8684:8706   */\n      add\n        /* \"#utility.yul\":8653:8716   */\n      tag_80\n      jump\t// in\n    tag_201:\n        /* \"#utility.yul\":8643:8716   */\n      swap2\n      pop\n        /* \"#utility.yul\":8439:8726   */\n      pop\n        /* \"#utility.yul\":8224:8733   */\n      swap3\n      swap2\n      pop\n      pop\n      jump\t// out\n        /* \"#utility.yul\":8739:8961   */\n    tag_31:\n        /* \"#utility.yul\":8832:8836   */\n      0x00\n        /* \"#utility.yul\":8870:8872   */\n      0x20\n        /* \"#utility.yul\":8859:8868   */\n      dup3\n        /* \"#utility.yul\":8855:8873   */\n      add\n        /* \"#utility.yul\":8847:8873   */\n      swap1\n      pop\n        /* \"#utility.yul\":8883:8954   */\n      tag_203\n        /* \"#utility.yul\":8951:8952   */\n      0x00\n        /* \"#utility.yul\":8940:8949   */\n      dup4\n        /* \"#utility.yul\":8936:8953   */\n      add\n        /* \"#utility.yul\":8927:8933   */\n      dup5\n        /* \"#utility.yul\":8883:8954   */\n      tag_83\n      jump\t// in\n    tag_203:\n        /* \"#utility.yul\":8739:8961   */\n      swap3\n      swap2\n      pop\n      pop\n      jump\t// out\n        /* \"#utility.yul\":8967:9296   */\n    tag_34:\n        /* \"#utility.yul\":9026:9032   */\n      0x00\n        /* \"#utility.yul\":9075:9077   */\n      0x20\n        /* \"#utility.yul\":9063:9072   */\n      dup3\n        /* \"#utility.yul\":9054:9061   */\n      dup5\n        /* \"#utility.yul\":9050:9073   */\n      sub\n        /* \"#utility.yul\":9046:9078   */\n      slt\n        /* \"#utility.yul\":9043:9162   */\n      iszero\n      tag_205\n      jumpi\n        /* \"#utility.yul\":9081:9160   */\n      tag_206\n      tag_58\n      jump\t// in\n    tag_206:\n        /* \"#utility.yul\":9043:9162   */\n    tag_205:\n        /* \"#utility.yul\":9201:9202   */\n      0x00\n        /* \"#utility.yul\":9226:9279   */\n      tag_207\n        /* \"#utility.yul\":9271:9278   */\n      dup5\n        /* \"#utility.yul\":9262:9268   */\n      dup3\n        /* \"#utility.yul\":9251:9260   */\n      dup6\n        /* \"#utility.yul\":9247:9269   */\n      add\n        /* \"#utility.yul\":9226:9279   */\n      tag_62\n      jump\t// in\n    tag_207:\n        /* \"#utility.yul\":9216:9279   */\n      swap2\n      pop\n        /* \"#utility.yul\":9172:9289   */\n      pop\n        /* \"#utility.yul\":8967:9296   */\n      swap3\n      swap2\n      pop\n      pop\n      jump\t// out\n        /* \"#utility.yul\":9302:9847   */\n    tag_40:\n        /* \"#utility.yul\":9475:9479   */\n      0x00\n        /* \"#utility.yul\":9513:9516   */\n      0x80\n        /* \"#utility.yul\":9502:9511   */\n      dup3\n        /* \"#utility.yul\":9498:9517   */\n      add\n        /* \"#utility.yul\":9490:9517   */\n      swap1\n      pop\n        /* \"#utility.yul\":9527:9598   */\n      tag_209\n        /* \"#utility.yul\":9595:9596   */\n      0x00\n        /* \"#utility.yul\":9584:9593   */\n      dup4\n        /* \"#utility.yul\":9580:9597   */\n      add\n        /* \"#utility.yul\":9571:9577   */\n      dup8\n        /* \"#utility.yul\":9527:9598   */\n      tag_83\n      jump\t// in\n    tag_209:\n        /* \"#utility.yul\":9608:9676   */\n      tag_210\n        /* \"#utility.yul\":9672:9674   */\n      0x20\n        /* \"#utility.yul\":9661:9670   */\n      dup4\n        /* \"#utility.yul\":9657:9675   */\n      add\n        /* \"#utility.yul\":9648:9654   */\n      dup7\n        /* \"#utility.yul\":9608:9676   */\n      tag_85\n      jump\t// in\n    tag_210:\n        /* \"#utility.yul\":9686:9758   */\n      tag_211\n        /* \"#utility.yul\":9754:9756   */\n      0x40\n        /* \"#utility.yul\":9743:9752   */\n      dup4\n        /* \"#utility.yul\":9739:9757   */\n      add\n        /* \"#utility.yul\":9730:9736   */\n      dup6\n        /* \"#utility.yul\":9686:9758   */\n      tag_83\n      jump\t// in\n    tag_211:\n        /* \"#utility.yul\":9768:9840   */\n      tag_212\n        /* \"#utility.yul\":9836:9838   */\n      0x60\n        /* \"#utility.yul\":9825:9834   */\n      dup4\n        /* \"#utility.yul\":9821:9839   */\n      add\n        /* \"#utility.yul\":9812:9818   */\n      dup5\n        /* \"#utility.yul\":9768:9840   */\n      tag_83\n      jump\t// in\n    tag_212:\n        /* \"#utility.yul\":9302:9847   */\n      swap6\n      swap5\n      pop\n      pop\n      pop\n      pop\n      pop\n      jump\t// out\n        /* \"#utility.yul\":9853:10022   */\n    tag_86:\n        /* \"#utility.yul\":9937:9948   */\n      0x00\n        /* \"#utility.yul\":9971:9977   */\n      dup3\n        /* \"#utility.yul\":9966:9969   */\n      dup3\n        /* \"#utility.yul\":9959:9978   */\n      mstore\n        /* \"#utility.yul\":10011:10015   */\n      0x20\n        /* \"#utility.yul\":10006:10009   */\n      dup3\n        /* \"#utility.yul\":10002:10016   */\n      add\n        /* \"#utility.yul\":9987:10016   */\n      swap1\n      pop\n        /* \"#utility.yul\":9853:10022   */\n      swap3\n      swap2\n      pop\n      pop\n      jump\t// out\n        /* \"#utility.yul\":10028:10202   */\n    tag_87:\n        /* \"#utility.yul\":10168:10194   */\n      0x496e76616c6964207369676e6174757265206c656e6774680000000000000000\n        /* \"#utility.yul\":10164:10165   */\n      0x00\n        /* \"#utility.yul\":10156:10162   */\n      dup3\n        /* \"#utility.yul\":10152:10166   */\n      add\n        /* \"#utility.yul\":10145:10195   */\n      mstore\n        /* \"#utility.yul\":10028:10202   */\n      pop\n      jump\t// out\n        /* \"#utility.yul\":10208:10574   */\n    tag_88:\n        /* \"#utility.yul\":10350:10353   */\n      0x00\n        /* \"#utility.yul\":10371:10438   */\n      tag_216\n        /* \"#utility.yul\":10435:10437   */\n      0x18\n        /* \"#utility.yul\":10430:10433   */\n      dup4\n        /* \"#utility.yul\":10371:10438   */\n      tag_86\n      jump\t// in\n    tag_216:\n        /* \"#utility.yul\":10364:10438   */\n      swap2\n      pop\n        /* \"#utility.yul\":10447:10540   */\n      tag_217\n        /* \"#utility.yul\":10536:10539   */\n      dup3\n        /* \"#utility.yul\":10447:10540   */\n      tag_87\n      jump\t// in\n    tag_217:\n        /* \"#utility.yul\":10565:10567   */\n      0x20\n        /* \"#utility.yul\":10560:10563   */\n      dup3\n        /* \"#utility.yul\":10556:10568   */\n      add\n        /* \"#utility.yul\":10549:10568   */\n      swap1\n      pop\n        /* \"#utility.yul\":10208:10574   */\n      swap2\n      swap1\n      pop\n      jump\t// out\n        /* \"#utility.yul\":10580:10999   */\n    tag_50:\n        /* \"#utility.yul\":10746:10750   */\n      0x00\n        /* \"#utility.yul\":10784:10786   */\n      0x20\n        /* \"#utility.yul\":10773:10782   */\n      dup3\n        /* \"#utility.yul\":10769:10787   */\n      add\n        /* \"#utility.yul\":10761:10787   */\n      swap1\n      pop\n        /* \"#utility.yul\":10833:10842   */\n      dup2\n        /* \"#utility.yul\":10827:10831   */\n      dup2\n        /* \"#utility.yul\":10823:10843   */\n      sub\n        /* \"#utility.yul\":10819:10820   */\n      0x00\n        /* \"#utility.yul\":10808:10817   */\n      dup4\n        /* \"#utility.yul\":10804:10821   */\n      add\n        /* \"#utility.yul\":10797:10844   */\n      mstore\n        /* \"#utility.yul\":10861:10992   */\n      tag_219\n        /* \"#utility.yul\":10987:10991   */\n      dup2\n        /* \"#utility.yul\":10861:10992   */\n      tag_88\n      jump\t// in\n    tag_219:\n        /* \"#utility.yul\":10853:10992   */\n      swap1\n      pop\n        /* \"#utility.yul\":10580:10999   */\n      swap2\n      swap1\n      pop\n      jump\t// out\n        /* \"#utility.yul\":11005:11104   */\n    tag_89:\n        /* \"#utility.yul\":11057:11063   */\n      0x00\n        /* \"#utility.yul\":11091:11096   */\n      dup2\n        /* \"#utility.yul\":11085:11097   */\n      mload\n        /* \"#utility.yul\":11075:11097   */\n      swap1\n      pop\n        /* \"#utility.yul\":11005:11104   */\n      swap2\n      swap1\n      pop\n      jump\t// out\n        /* \"#utility.yul\":11110:11258   */\n    tag_90:\n        /* \"#utility.yul\":11212:11223   */\n      0x00\n        /* \"#utility.yul\":11249:11252   */\n      dup2\n        /* \"#utility.yul\":11234:11252   */\n      swap1\n      pop\n        /* \"#utility.yul\":11110:11258   */\n      swap3\n      swap2\n      pop\n      pop\n      jump\t// out\n        /* \"#utility.yul\":11264:11403   */\n    tag_91:\n        /* \"#utility.yul\":11353:11359   */\n      dup3\n        /* \"#utility.yul\":11348:11351   */\n      dup2\n        /* \"#utility.yul\":11343:11346   */\n      dup4\n        /* \"#utility.yul\":11337:11360   */\n      mcopy\n        /* \"#utility.yul\":11394:11395   */\n      0x00\n        /* \"#utility.yul\":11385:11391   */\n      dup4\n        /* \"#utility.yul\":11380:11383   */\n      dup4\n        /* \"#utility.yul\":11376:11392   */\n      add\n        /* \"#utility.yul\":11369:11396   */\n      mstore\n        /* \"#utility.yul\":11264:11403   */\n      pop\n      pop\n      pop\n      jump\t// out\n        /* \"#utility.yul\":11409:11799   */\n    tag_92:\n        /* \"#utility.yul\":11515:11518   */\n      0x00\n        /* \"#utility.yul\":11543:11582   */\n      tag_224\n        /* \"#utility.yul\":11576:11581   */\n      dup3\n        /* \"#utility.yul\":11543:11582   */\n      tag_89\n      jump\t// in\n    tag_224:\n        /* \"#utility.yul\":11598:11687   */\n      tag_225\n        /* \"#utility.yul\":11680:11686   */\n      dup2\n        /* \"#utility.yul\":11675:11678   */\n      dup6\n        /* \"#utility.yul\":11598:11687   */\n      tag_90\n      jump\t// in\n    tag_225:\n        /* \"#utility.yul\":11591:11687   */\n      swap4\n      pop\n        /* \"#utility.yul\":11696:11761   */\n      tag_226\n        /* \"#utility.yul\":11754:11760   */\n      dup2\n        /* \"#utility.yul\":11749:11752   */\n      dup6\n        /* \"#utility.yul\":11742:11746   */\n      0x20\n        /* \"#utility.yul\":11735:11740   */\n      dup7\n        /* \"#utility.yul\":11731:11747   */\n      add\n        /* \"#utility.yul\":11696:11761   */\n      tag_91\n      jump\t// in\n    tag_226:\n        /* \"#utility.yul\":11786:11792   */\n      dup1\n        /* \"#utility.yul\":11781:11784   */\n      dup5\n        /* \"#utility.yul\":11777:11793   */\n      add\n        /* \"#utility.yul\":11770:11793   */\n      swap2\n      pop\n        /* \"#utility.yul\":11519:11799   */\n      pop\n        /* \"#utility.yul\":11409:11799   */\n      swap3\n      swap2\n      pop\n      pop\n      jump\t// out\n        /* \"#utility.yul\":11805:12080   */\n    tag_53:\n        /* \"#utility.yul\":11937:11940   */\n      0x00\n        /* \"#utility.yul\":11959:12054   */\n      tag_228\n        /* \"#utility.yul\":12050:12053   */\n      dup3\n        /* \"#utility.yul\":12041:12047   */\n      dup5\n        /* \"#utility.yul\":11959:12054   */\n      tag_92\n      jump\t// in\n    tag_228:\n        /* \"#utility.yul\":11952:12054   */\n      swap2\n      pop\n        /* \"#utility.yul\":12071:12074   */\n      dup2\n        /* \"#utility.yul\":12064:12074   */\n      swap1\n      pop\n        /* \"#utility.yul\":11805:12080   */\n      swap3\n      swap2\n      pop\n      pop\n      jump\t// out\n        /* \"#utility.yul\":12086:12300   */\n    tag_93:\n        /* \"#utility.yul\":12226:12292   */\n      0x19457468657265756d205369676e6564204d6573736167653a0a333200000000\n        /* \"#utility.yul\":12222:12223   */\n      0x00\n        /* \"#utility.yul\":12214:12220   */\n      dup3\n        /* \"#utility.yul\":12210:12224   */\n      add\n        /* \"#utility.yul\":12203:12293   */\n      mstore\n        /* \"#utility.yul\":12086:12300   */\n      pop\n      jump\t// out\n        /* \"#utility.yul\":12306:12708   */\n    tag_94:\n        /* \"#utility.yul\":12466:12469   */\n      0x00\n        /* \"#utility.yul\":12487:12572   */\n      tag_231\n        /* \"#utility.yul\":12569:12571   */\n      0x1c\n        /* \"#utility.yul\":12564:12567   */\n      dup4\n        /* \"#utility.yul\":12487:12572   */\n      tag_90\n      jump\t// in\n    tag_231:\n        /* \"#utility.yul\":12480:12572   */\n      swap2\n      pop\n        /* \"#utility.yul\":12581:12674   */\n      tag_232\n        /* \"#utility.yul\":12670:12673   */\n      dup3\n        /* \"#utility.yul\":12581:12674   */\n      tag_93\n      jump\t// in\n    tag_232:\n        /* \"#utility.yul\":12699:12701   */\n      0x1c\n        /* \"#utility.yul\":12694:12697   */\n      dup3\n        /* \"#utility.yul\":12690:12702   */\n      add\n        /* \"#utility.yul\":12683:12702   */\n      swap1\n      pop\n        /* \"#utility.yul\":12306:12708   */\n      swap2\n      swap1\n      pop\n      jump\t// out\n        /* \"#utility.yul\":12714:12793   */\n    tag_95:\n        /* \"#utility.yul\":12753:12760   */\n      0x00\n        /* \"#utility.yul\":12782:12787   */\n      dup2\n        /* \"#utility.yul\":12771:12787   */\n      swap1\n      pop\n        /* \"#utility.yul\":12714:12793   */\n      swap2\n      swap1\n      pop\n      jump\t// out\n        /* \"#utility.yul\":12799:12956   */\n    tag_96:\n        /* \"#utility.yul\":12904:12949   */\n      tag_235\n        /* \"#utility.yul\":12924:12948   */\n      tag_236\n        /* \"#utility.yul\":12942:12947   */\n      dup3\n        /* \"#utility.yul\":12924:12948   */\n      tag_60\n      jump\t// in\n    tag_236:\n        /* \"#utility.yul\":12904:12949   */\n      tag_95\n      jump\t// in\n    tag_235:\n        /* \"#utility.yul\":12899:12902   */\n      dup3\n        /* \"#utility.yul\":12892:12950   */\n      mstore\n        /* \"#utility.yul\":12799:12956   */\n      pop\n      pop\n      jump\t// out\n        /* \"#utility.yul\":12962:13484   */\n    tag_56:\n        /* \"#utility.yul\":13175:13178   */\n      0x00\n        /* \"#utility.yul\":13197:13345   */\n      tag_238\n        /* \"#utility.yul\":13341:13344   */\n      dup3\n        /* \"#utility.yul\":13197:13345   */\n      tag_94\n      jump\t// in\n    tag_238:\n        /* \"#utility.yul\":13190:13345   */\n      swap2\n      pop\n        /* \"#utility.yul\":13355:13430   */\n      tag_239\n        /* \"#utility.yul\":13426:13429   */\n      dup3\n        /* \"#utility.yul\":13417:13423   */\n      dup5\n        /* \"#utility.yul\":13355:13430   */\n      tag_96\n      jump\t// in\n    tag_239:\n        /* \"#utility.yul\":13455:13457   */\n      0x20\n        /* \"#utility.yul\":13450:13453   */\n      dup3\n        /* \"#utility.yul\":13446:13458   */\n      add\n        /* \"#utility.yul\":13439:13458   */\n      swap2\n      pop\n        /* \"#utility.yul\":13475:13478   */\n      dup2\n        /* \"#utility.yul\":13468:13478   */\n      swap1\n      pop\n        /* \"#utility.yul\":12962:13484   */\n      swap3\n      swap2\n      pop\n      pop\n      jump\t// out\n\n    auxdata: 0xa26469706673582212209b47092b703607ea7fd8b681204caa596de5b313707e38f16d30c7aa82e68aa264736f6c634300081a0033\n}\n",
				"bytecode": {
					"linkReferences": {},
					"object": "6080604052348015600e575f80fd5b506109a28061001c5f395ff3fe608060405234801561000f575f80fd5b5060043610610055575f3560e01c806319045a25146100595780632dd34f0f14610089578063a7bb5803146100b9578063b446f3b2146100eb578063fa5408011461011b575b5f80fd5b610073600480360381019061006e9190610454565b61014b565b60405161008091906104ed565b60405180910390f35b6100a3600480360381019061009e91906105ce565b6101b5565b6040516100b09190610670565b60405180910390f35b6100d360048036038101906100ce9190610689565b610211565b6040516100e2939291906106fa565b60405180910390f35b6101056004803603810190610100919061072f565b610276565b6040516101129190610776565b60405180910390f35b6101356004803603810190610130919061078f565b6102a5565b6040516101429190610776565b60405180910390f35b5f805f8061015885610211565b9250925092506001868285856040515f815260200160405260405161018094939291906107ba565b6020604051602081039080840390855afa1580156101a0573d5f803e3d5ffd5b50505060206040510351935050505092915050565b5f806101c084610276565b90505f6101cc826102a5565b90508573ffffffffffffffffffffffffffffffffffffffff166101ef828661014b565b73ffffffffffffffffffffffffffffffffffffffff1614925050509392505050565b5f805f6041845114610258576040517f08c379a000000000000000000000000000000000000000000000000000000000815260040161024f90610857565b60405180910390fd5b602084015192506040840151915060608401515f1a90509193909250565b5f8160405160200161028891906108c7565b604051602081830303815290604052805190602001209050919050565b5f816040516020016102b79190610947565b604051602081830303815290604052805190602001209050919050565b5f604051905090565b5f80fd5b5f80fd5b5f819050919050565b6102f7816102e5565b8114610301575f80fd5b50565b5f81359050610312816102ee565b92915050565b5f80fd5b5f80fd5b5f601f19601f8301169050919050565b7f4e487b71000000000000000000000000000000000000000000000000000000005f52604160045260245ffd5b61036682610320565b810181811067ffffffffffffffff8211171561038557610384610330565b5b80604052505050565b5f6103976102d4565b90506103a3828261035d565b919050565b5f67ffffffffffffffff8211156103c2576103c1610330565b5b6103cb82610320565b9050602081019050919050565b828183375f83830152505050565b5f6103f86103f3846103a8565b61038e565b9050828152602081018484840111156104145761041361031c565b5b61041f8482856103d8565b509392505050565b5f82601f83011261043b5761043a610318565b5b813561044b8482602086016103e6565b91505092915050565b5f806040838503121561046a576104696102dd565b5b5f61047785828601610304565b925050602083013567ffffffffffffffff811115610498576104976102e1565b5b6104a485828601610427565b9150509250929050565b5f73ffffffffffffffffffffffffffffffffffffffff82169050919050565b5f6104d7826104ae565b9050919050565b6104e7816104cd565b82525050565b5f6020820190506105005f8301846104de565b92915050565b61050f816104cd565b8114610519575f80fd5b50565b5f8135905061052a81610506565b92915050565b5f67ffffffffffffffff82111561054a57610549610330565b5b61055382610320565b9050602081019050919050565b5f61057261056d84610530565b61038e565b90508281526020810184848401111561058e5761058d61031c565b5b6105998482856103d8565b509392505050565b5f82601f8301126105b5576105b4610318565b5b81356105c5848260208601610560565b91505092915050565b5f805f606084860312156105e5576105e46102dd565b5b5f6105f28682870161051c565b935050602084013567ffffffffffffffff811115610613576106126102e1565b5b61061f868287016105a1565b925050604084013567ffffffffffffffff8111156106405761063f6102e1565b5b61064c86828701610427565b9150509250925092565b5f8115159050919050565b61066a81610656565b82525050565b5f6020820190506106835f830184610661565b92915050565b5f6020828403121561069e5761069d6102dd565b5b5f82013567ffffffffffffffff8111156106bb576106ba6102e1565b5b6106c784828501610427565b91505092915050565b6106d9816102e5565b82525050565b5f60ff82169050919050565b6106f4816106df565b82525050565b5f60608201905061070d5f8301866106d0565b61071a60208301856106d0565b61072760408301846106eb565b949350505050565b5f60208284031215610744576107436102dd565b5b5f82013567ffffffffffffffff811115610761576107606102e1565b5b61076d848285016105a1565b91505092915050565b5f6020820190506107895f8301846106d0565b92915050565b5f602082840312156107a4576107a36102dd565b5b5f6107b184828501610304565b91505092915050565b5f6080820190506107cd5f8301876106d0565b6107da60208301866106eb565b6107e760408301856106d0565b6107f460608301846106d0565b95945050505050565b5f82825260208201905092915050565b7f496e76616c6964207369676e6174757265206c656e67746800000000000000005f82015250565b5f6108416018836107fd565b915061084c8261080d565b602082019050919050565b5f6020820190508181035f83015261086e81610835565b9050919050565b5f81519050919050565b5f81905092915050565b8281835e5f83830152505050565b5f6108a182610875565b6108ab818561087f565b93506108bb818560208601610889565b80840191505092915050565b5f6108d28284610897565b915081905092915050565b7f19457468657265756d205369676e6564204d6573736167653a0a3332000000005f82015250565b5f610911601c8361087f565b915061091c826108dd565b601c82019050919050565b5f819050919050565b61094161093c826102e5565b610927565b82525050565b5f61095182610905565b915061095d8284610930565b6020820191508190509291505056fea26469706673582212209b47092b703607ea7fd8b681204caa596de5b313707e38f16d30c7aa82e68aa264736f6c634300081a0033",
					"opcodes": "PUSH1 0x80 PUSH1 0x40 MSTORE CALLVALUE DUP1 ISZERO PUSH1 0xE JUMPI PUSH0 DUP1 REVERT JUMPDEST POP PUSH2 0x9A2 DUP1 PUSH2 0x1C PUSH0 CODECOPY PUSH0 RETURN INVALID PUSH1 0x80 PUSH1 0x40 MSTORE CALLVALUE DUP1 ISZERO PUSH2 0xF JUMPI PUSH0 DUP1 REVERT JUMPDEST POP PUSH1 0x4 CALLDATASIZE LT PUSH2 0x55 JUMPI PUSH0 CALLDATALOAD PUSH1 0xE0 SHR DUP1 PUSH4 0x19045A25 EQ PUSH2 0x59 JUMPI DUP1 PUSH4 0x2DD34F0F EQ PUSH2 0x89 JUMPI DUP1 PUSH4 0xA7BB5803 EQ PUSH2 0xB9 JUMPI DUP1 PUSH4 0xB446F3B2 EQ PUSH2 0xEB JUMPI DUP1 PUSH4 0xFA540801 EQ PUSH2 0x11B JUMPI JUMPDEST PUSH0 DUP1 REVERT JUMPDEST PUSH2 0x73 PUSH1 0x4 DUP1 CALLDATASIZE SUB DUP2 ADD SWAP1 PUSH2 0x6E SWAP2 SWAP1 PUSH2 0x454 JUMP JUMPDEST PUSH2 0x14B JUMP JUMPDEST PUSH1 0x40 MLOAD PUSH2 0x80 SWAP2 SWAP1 PUSH2 0x4ED JUMP JUMPDEST PUSH1 0x40 MLOAD DUP1 SWAP2 SUB SWAP1 RETURN JUMPDEST PUSH2 0xA3 PUSH1 0x4 DUP1 CALLDATASIZE SUB DUP2 ADD SWAP1 PUSH2 0x9E SWAP2 SWAP1 PUSH2 0x5CE JUMP JUMPDEST PUSH2 0x1B5 JUMP JUMPDEST PUSH1 0x40 MLOAD PUSH2 0xB0 SWAP2 SWAP1 PUSH2 0x670 JUMP JUMPDEST PUSH1 0x40 MLOAD DUP1 SWAP2 SUB SWAP1 RETURN JUMPDEST PUSH2 0xD3 PUSH1 0x4 DUP1 CALLDATASIZE SUB DUP2 ADD SWAP1 PUSH2 0xCE SWAP2 SWAP1 PUSH2 0x689 JUMP JUMPDEST PUSH2 0x211 JUMP JUMPDEST PUSH1 0x40 MLOAD PUSH2 0xE2 SWAP4 SWAP3 SWAP2 SWAP1 PUSH2 0x6FA JUMP JUMPDEST PUSH1 0x40 MLOAD DUP1 SWAP2 SUB SWAP1 RETURN JUMPDEST PUSH2 0x105 PUSH1 0x4 DUP1 CALLDATASIZE SUB DUP2 ADD SWAP1 PUSH2 0x100 SWAP2 SWAP1 PUSH2 0x72F JUMP JUMPDEST PUSH2 0x276 JUMP JUMPDEST PUSH1 0x40 MLOAD PUSH2 0x112 SWAP2 SWAP1 PUSH2 0x776 JUMP JUMPDEST PUSH1 0x40 MLOAD DUP1 SWAP2 SUB SWAP1 RETURN JUMPDEST PUSH2 0x135 PUSH1 0x4 DUP1 CALLDATASIZE SUB DUP2 ADD SWAP1 PUSH2 0x130 SWAP2 SWAP1 PUSH2 0x78F JUMP JUMPDEST PUSH2 0x2A5 JUMP JUMPDEST PUSH1 0x40 MLOAD PUSH2 0x142 SWAP2 SWAP1 PUSH2 0x776 JUMP JUMPDEST PUSH1 0x40 MLOAD DUP1 SWAP2 SUB SWAP1 RETURN JUMPDEST PUSH0 DUP1 PUSH0 DUP1 PUSH2 0x158 DUP6 PUSH2 0x211 JUMP JUMPDEST SWAP3 POP SWAP3 POP SWAP3 POP PUSH1 0x1 DUP7 DUP3 DUP6 DUP6 PUSH1 0x40 MLOAD PUSH0 DUP2 MSTORE PUSH1 0x20 ADD PUSH1 0x40 MSTORE PUSH1 0x40 MLOAD PUSH2 0x180 SWAP5 SWAP4 SWAP3 SWAP2 SWAP1 PUSH2 0x7BA JUMP JUMPDEST PUSH1 0x20 PUSH1 0x40 MLOAD PUSH1 0x20 DUP2 SUB SWAP1 DUP1 DUP5 SUB SWAP1 DUP6 GAS STATICCALL ISZERO DUP1 ISZERO PUSH2 0x1A0 JUMPI RETURNDATASIZE PUSH0 DUP1 RETURNDATACOPY RETURNDATASIZE PUSH0 REVERT JUMPDEST POP POP POP PUSH1 0x20 PUSH1 0x40 MLOAD SUB MLOAD SWAP4 POP POP POP POP SWAP3 SWAP2 POP POP JUMP JUMPDEST PUSH0 DUP1 PUSH2 0x1C0 DUP5 PUSH2 0x276 JUMP JUMPDEST SWAP1 POP PUSH0 PUSH2 0x1CC DUP3 PUSH2 0x2A5 JUMP JUMPDEST SWAP1 POP DUP6 PUSH20 0xFFFFFFFFFFFFFFFFFFFFFFFFFFFFFFFFFFFFFFFF AND PUSH2 0x1EF DUP3 DUP7 PUSH2 0x14B JUMP JUMPDEST PUSH20 0xFFFFFFFFFFFFFFFFFFFFFFFFFFFFFFFFFFFFFFFF AND EQ SWAP3 POP POP POP SWAP4 SWAP3 POP POP POP JUMP JUMPDEST PUSH0 DUP1 PUSH0 PUSH1 0x41 DUP5 MLOAD EQ PUSH2 0x258 JUMPI PUSH1 0x40 MLOAD PUSH32 0x8C379A000000000000000000000000000000000000000000000000000000000 DUP2 MSTORE PUSH1 0x4 ADD PUSH2 0x24F SWAP1 PUSH2 0x857 JUMP JUMPDEST PUSH1 0x40 MLOAD DUP1 SWAP2 SUB SWAP1 REVERT JUMPDEST PUSH1 0x20 DUP5 ADD MLOAD SWAP3 POP PUSH1 0x40 DUP5 ADD MLOAD SWAP2 POP PUSH1 0x60 DUP5 ADD MLOAD PUSH0 BYTE SWAP1 POP SWAP2 SWAP4 SWAP1 SWAP3 POP JUMP JUMPDEST PUSH0 DUP2 PUSH1 0x40 MLOAD PUSH1 0x20 ADD PUSH2 0x288 SWAP2 SWAP1 PUSH2 0x8C7 JUMP JUMPDEST PUSH1 0x40 MLOAD PUSH1 0x20 DUP2 DUP4 SUB SUB DUP2 MSTORE SWAP1 PUSH1 0x40 MSTORE DUP1 MLOAD SWAP1 PUSH1 0x20 ADD KECCAK256 SWAP1 POP SWAP2 SWAP1 POP JUMP JUMPDEST PUSH0 DUP2 PUSH1 0x40 MLOAD PUSH1 0x20 ADD PUSH2 0x2B7 SWAP2 SWAP1 PUSH2 0x947 JUMP JUMPDEST PUSH1 0x40 MLOAD PUSH1 0x20 DUP2 DUP4 SUB SUB DUP2 MSTORE SWAP1 PUSH1 0x40 MSTORE DUP1 MLOAD SWAP1 PUSH1 0x20 ADD KECCAK256 SWAP1 POP SWAP2 SWAP1 POP JUMP JUMPDEST PUSH0 PUSH1 0x40 MLOAD SWAP1 POP SWAP1 JUMP JUMPDEST PUSH0 DUP1 REVERT JUMPDEST PUSH0 DUP1 REVERT JUMPDEST PUSH0 DUP2 SWAP1 POP SWAP2 SWAP1 POP JUMP JUMPDEST PUSH2 0x2F7 DUP2 PUSH2 0x2E5 JUMP JUMPDEST DUP2 EQ PUSH2 0x301 JUMPI PUSH0 DUP1 REVERT JUMPDEST POP JUMP JUMPDEST PUSH0 DUP2 CALLDATALOAD SWAP1 POP PUSH2 0x312 DUP2 PUSH2 0x2EE JUMP JUMPDEST SWAP3 SWAP2 POP POP JUMP JUMPDEST PUSH0 DUP1 REVERT JUMPDEST PUSH0 DUP1 REVERT JUMPDEST PUSH0 PUSH1 0x1F NOT PUSH1 0x1F DUP4 ADD AND SWAP1 POP SWAP2 SWAP1 POP JUMP JUMPDEST PUSH32 0x4E487B7100000000000000000000000000000000000000000000000000000000 PUSH0 MSTORE PUSH1 0x41 PUSH1 0x4 MSTORE PUSH1 0x24 PUSH0 REVERT JUMPDEST PUSH2 0x366 DUP3 PUSH2 0x320 JUMP JUMPDEST DUP2 ADD DUP2 DUP2 LT PUSH8 0xFFFFFFFFFFFFFFFF DUP3 GT OR ISZERO PUSH2 0x385 JUMPI PUSH2 0x384 PUSH2 0x330 JUMP JUMPDEST JUMPDEST DUP1 PUSH1 0x40 MSTORE POP POP POP JUMP JUMPDEST PUSH0 PUSH2 0x397 PUSH2 0x2D4 JUMP JUMPDEST SWAP1 POP PUSH2 0x3A3 DUP3 DUP3 PUSH2 0x35D JUMP JUMPDEST SWAP2 SWAP1 POP JUMP JUMPDEST PUSH0 PUSH8 0xFFFFFFFFFFFFFFFF DUP3 GT ISZERO PUSH2 0x3C2 JUMPI PUSH2 0x3C1 PUSH2 0x330 JUMP JUMPDEST JUMPDEST PUSH2 0x3CB DUP3 PUSH2 0x320 JUMP JUMPDEST SWAP1 POP PUSH1 0x20 DUP2 ADD SWAP1 POP SWAP2 SWAP1 POP JUMP JUMPDEST DUP3 DUP2 DUP4 CALLDATACOPY PUSH0 DUP4 DUP4 ADD MSTORE POP POP POP JUMP JUMPDEST PUSH0 PUSH2 0x3F8 PUSH2 0x3F3 DUP5 PUSH2 0x3A8 JUMP JUMPDEST PUSH2 0x38E JUMP JUMPDEST SWAP1 POP DUP3 DUP2 MSTORE PUSH1 0x20 DUP2 ADD DUP5 DUP5 DUP5 ADD GT ISZERO PUSH2 0x414 JUMPI PUSH2 0x413 PUSH2 0x31C JUMP JUMPDEST JUMPDEST PUSH2 0x41F DUP5 DUP3 DUP6 PUSH2 0x3D8 JUMP JUMPDEST POP SWAP4 SWAP3 POP POP POP JUMP JUMPDEST PUSH0 DUP3 PUSH1 0x1F DUP4 ADD SLT PUSH2 0x43B JUMPI PUSH2 0x43A PUSH2 0x318 JUMP JUMPDEST JUMPDEST DUP2 CALLDATALOAD PUSH2 0x44B DUP5 DUP3 PUSH1 0x20 DUP7 ADD PUSH2 0x3E6 JUMP JUMPDEST SWAP2 POP POP SWAP3 SWAP2 POP POP JUMP JUMPDEST PUSH0 DUP1 PUSH1 0x40 DUP4 DUP6 SUB SLT ISZERO PUSH2 0x46A JUMPI PUSH2 0x469 PUSH2 0x2DD JUMP JUMPDEST JUMPDEST PUSH0 PUSH2 0x477 DUP6 DUP3 DUP7 ADD PUSH2 0x304 JUMP JUMPDEST SWAP3 POP POP PUSH1 0x20 DUP4 ADD CALLDATALOAD PUSH8 0xFFFFFFFFFFFFFFFF DUP2 GT ISZERO PUSH2 0x498 JUMPI PUSH2 0x497 PUSH2 0x2E1 JUMP JUMPDEST JUMPDEST PUSH2 0x4A4 DUP6 DUP3 DUP7 ADD PUSH2 0x427 JUMP JUMPDEST SWAP2 POP POP SWAP3 POP SWAP3 SWAP1 POP JUMP JUMPDEST PUSH0 PUSH20 0xFFFFFFFFFFFFFFFFFFFFFFFFFFFFFFFFFFFFFFFF DUP3 AND SWAP1 POP SWAP2 SWAP1 POP JUMP JUMPDEST PUSH0 PUSH2 0x4D7 DUP3 PUSH2 0x4AE JUMP JUMPDEST SWAP1 POP SWAP2 SWAP1 POP JUMP JUMPDEST PUSH2 0x4E7 DUP2 PUSH2 0x4CD JUMP JUMPDEST DUP3 MSTORE POP POP JUMP JUMPDEST PUSH0 PUSH1 0x20 DUP3 ADD SWAP1 POP PUSH2 0x500 PUSH0 DUP4 ADD DUP5 PUSH2 0x4DE JUMP JUMPDEST SWAP3 SWAP2 POP POP JUMP JUMPDEST PUSH2 0x50F DUP2 PUSH2 0x4CD JUMP JUMPDEST DUP2 EQ PUSH2 0x519 JUMPI PUSH0 DUP1 REVERT JUMPDEST POP JUMP JUMPDEST PUSH0 DUP2 CALLDATALOAD SWAP1 POP PUSH2 0x52A DUP2 PUSH2 0x506 JUMP JUMPDEST SWAP3 SWAP2 POP POP JUMP JUMPDEST PUSH0 PUSH8 0xFFFFFFFFFFFFFFFF DUP3 GT ISZERO PUSH2 0x54A JUMPI PUSH2 0x549 PUSH2 0x330 JUMP JUMPDEST JUMPDEST PUSH2 0x553 DUP3 PUSH2 0x320 JUMP JUMPDEST SWAP1 POP PUSH1 0x20 DUP2 ADD SWAP1 POP SWAP2 SWAP1 POP JUMP JUMPDEST PUSH0 PUSH2 0x572 PUSH2 0x56D DUP5 PUSH2 0x530 JUMP JUMPDEST PUSH2 0x38E JUMP JUMPDEST SWAP1 POP DUP3 DUP2 MSTORE PUSH1 0x20 DUP2 ADD DUP5 DUP5 DUP5 ADD GT ISZERO PUSH2 0x58E JUMPI PUSH2 0x58D PUSH2 0x31C JUMP JUMPDEST JUMPDEST PUSH2 0x599 DUP5 DUP3 DUP6 PUSH2 0x3D8 JUMP JUMPDEST POP SWAP4 SWAP3 POP POP POP JUMP JUMPDEST PUSH0 DUP3 PUSH1 0x1F DUP4 ADD SLT PUSH2 0x5B5 JUMPI PUSH2 0x5B4 PUSH2 0x318 JUMP JUMPDEST JUMPDEST DUP2 CALLDATALOAD PUSH2 0x5C5 DUP5 DUP3 PUSH1 0x20 DUP7 ADD PUSH2 0x560 JUMP JUMPDEST SWAP2 POP POP SWAP3 SWAP2 POP POP JUMP JUMPDEST PUSH0 DUP1 PUSH0 PUSH1 0x60 DUP5 DUP7 SUB SLT ISZERO PUSH2 0x5E5 JUMPI PUSH2 0x5E4 PUSH2 0x2DD JUMP JUMPDEST JUMPDEST PUSH0 PUSH2 0x5F2 DUP7 DUP3 DUP8 ADD PUSH2 0x51C JUMP JUMPDEST SWAP4 POP POP PUSH1 0x20 DUP5 ADD CALLDATALOAD PUSH8 0xFFFFFFFFFFFFFFFF DUP2 GT ISZERO PUSH2 0x613 JUMPI PUSH2 0x612 PUSH2 0x2E1 JUMP JUMPDEST JUMPDEST PUSH2 0x61F DUP7 DUP3 DUP8 ADD PUSH2 0x5A1 JUMP JUMPDEST SWAP3 POP POP PUSH1 0x40 DUP5 ADD CALLDATALOAD PUSH8 0xFFFFFFFFFFFFFFFF DUP2 GT ISZERO PUSH2 0x640 JUMPI PUSH2 0x63F PUSH2 0x2E1 JUMP JUMPDEST JUMPDEST PUSH2 0x64C DUP7 DUP3 DUP8 ADD PUSH2 0x427 JUMP JUMPDEST SWAP2 POP POP SWAP3 POP SWAP3 POP SWAP3 JUMP JUMPDEST PUSH0 DUP2 ISZERO ISZERO SWAP1 POP SWAP2 SWAP1 POP JUMP JUMPDEST PUSH2 0x66A DUP2 PUSH2 0x656 JUMP JUMPDEST DUP3 MSTORE POP POP JUMP JUMPDEST PUSH0 PUSH1 0x20 DUP3 ADD SWAP1 POP PUSH2 0x683 PUSH0 DUP4 ADD DUP5 PUSH2 0x661 JUMP JUMPDEST SWAP3 SWAP2 POP POP JUMP JUMPDEST PUSH0 PUSH1 0x20 DUP3 DUP5 SUB SLT ISZERO PUSH2 0x69E JUMPI PUSH2 0x69D PUSH2 0x2DD JUMP JUMPDEST JUMPDEST PUSH0 DUP3 ADD CALLDATALOAD PUSH8 0xFFFFFFFFFFFFFFFF DUP2 GT ISZERO PUSH2 0x6BB JUMPI PUSH2 0x6BA PUSH2 0x2E1 JUMP JUMPDEST JUMPDEST PUSH2 0x6C7 DUP5 DUP3 DUP6 ADD PUSH2 0x427 JUMP JUMPDEST SWAP2 POP POP SWAP3 SWAP2 POP POP JUMP JUMPDEST PUSH2 0x6D9 DUP2 PUSH2 0x2E5 JUMP JUMPDEST DUP3 MSTORE POP POP JUMP JUMPDEST PUSH0 PUSH1 0xFF DUP3 AND SWAP1 POP SWAP2 SWAP1 POP JUMP JUMPDEST PUSH2 0x6F4 DUP2 PUSH2 0x6DF JUMP JUMPDEST DUP3 MSTORE POP POP JUMP JUMPDEST PUSH0 PUSH1 0x60 DUP3 ADD SWAP1 POP PUSH2 0x70D PUSH0 DUP4 ADD DUP7 PUSH2 0x6D0 JUMP JUMPDEST PUSH2 0x71A PUSH1 0x20 DUP4 ADD DUP6 PUSH2 0x6D0 JUMP JUMPDEST PUSH2 0x727 PUSH1 0x40 DUP4 ADD DUP5 PUSH2 0x6EB JUMP JUMPDEST SWAP5 SWAP4 POP POP POP POP JUMP JUMPDEST PUSH0 PUSH1 0x20 DUP3 DUP5 SUB SLT ISZERO PUSH2 0x744 JUMPI PUSH2 0x743 PUSH2 0x2DD JUMP JUMPDEST JUMPDEST PUSH0 DUP3 ADD CALLDATALOAD PUSH8 0xFFFFFFFFFFFFFFFF DUP2 GT ISZERO PUSH2 0x761 JUMPI PUSH2 0x760 PUSH2 0x2E1 JUMP JUMPDEST JUMPDEST PUSH2 0x76D DUP5 DUP3 DUP6 ADD PUSH2 0x5A1 JUMP JUMPDEST SWAP2 POP POP SWAP3 SWAP2 POP POP JUMP JUMPDEST PUSH0 PUSH1 0x20 DUP3 ADD SWAP1 POP PUSH2 0x789 PUSH0 DUP4 ADD DUP5 PUSH2 0x6D0 JUMP JUMPDEST SWAP3 SWAP2 POP POP JUMP JUMPDEST PUSH0 PUSH1 0x20 DUP3 DUP5 SUB SLT ISZERO PUSH2 0x7A4 JUMPI PUSH2 0x7A3 PUSH2 0x2DD JUMP JUMPDEST JUMPDEST PUSH0 PUSH2 0x7B1 DUP5 DUP3 DUP6 ADD PUSH2 0x304 JUMP JUMPDEST SWAP2 POP POP SWAP3 SWAP2 POP POP JUMP JUMPDEST PUSH0 PUSH1 0x80 DUP3 ADD SWAP1 POP PUSH2 0x7CD PUSH0 DUP4 ADD DUP8 PUSH2 0x6D0 JUMP JUMPDEST PUSH2 0x7DA PUSH1 0x20 DUP4 ADD DUP7 PUSH2 0x6EB JUMP JUMPDEST PUSH2 0x7E7 PUSH1 0x40 DUP4 ADD DUP6 PUSH2 0x6D0 JUMP JUMPDEST PUSH2 0x7F4 PUSH1 0x60 DUP4 ADD DUP5 PUSH2 0x6D0 JUMP JUMPDEST SWAP6 SWAP5 POP POP POP POP POP JUMP JUMPDEST PUSH0 DUP3 DUP3 MSTORE PUSH1 0x20 DUP3 ADD SWAP1 POP SWAP3 SWAP2 POP POP JUMP JUMPDEST PUSH32 0x496E76616C6964207369676E6174757265206C656E6774680000000000000000 PUSH0 DUP3 ADD MSTORE POP JUMP JUMPDEST PUSH0 PUSH2 0x841 PUSH1 0x18 DUP4 PUSH2 0x7FD JUMP JUMPDEST SWAP2 POP PUSH2 0x84C DUP3 PUSH2 0x80D JUMP JUMPDEST PUSH1 0x20 DUP3 ADD SWAP1 POP SWAP2 SWAP1 POP JUMP JUMPDEST PUSH0 PUSH1 0x20 DUP3 ADD SWAP1 POP DUP2 DUP2 SUB PUSH0 DUP4 ADD MSTORE PUSH2 0x86E DUP2 PUSH2 0x835 JUMP JUMPDEST SWAP1 POP SWAP2 SWAP1 POP JUMP JUMPDEST PUSH0 DUP2 MLOAD SWAP1 POP SWAP2 SWAP1 POP JUMP JUMPDEST PUSH0 DUP2 SWAP1 POP SWAP3 SWAP2 POP POP JUMP JUMPDEST DUP3 DUP2 DUP4 MCOPY PUSH0 DUP4 DUP4 ADD MSTORE POP POP POP JUMP JUMPDEST PUSH0 PUSH2 0x8A1 DUP3 PUSH2 0x875 JUMP JUMPDEST PUSH2 0x8AB DUP2 DUP6 PUSH2 0x87F JUMP JUMPDEST SWAP4 POP PUSH2 0x8BB DUP2 DUP6 PUSH1 0x20 DUP7 ADD PUSH2 0x889 JUMP JUMPDEST DUP1 DUP5 ADD SWAP2 POP POP SWAP3 SWAP2 POP POP JUMP JUMPDEST PUSH0 PUSH2 0x8D2 DUP3 DUP5 PUSH2 0x897 JUMP JUMPDEST SWAP2 POP DUP2 SWAP1 POP SWAP3 SWAP2 POP POP JUMP JUMPDEST PUSH32 0x19457468657265756D205369676E6564204D6573736167653A0A333200000000 PUSH0 DUP3 ADD MSTORE POP JUMP JUMPDEST PUSH0 PUSH2 0x911 PUSH1 0x1C DUP4 PUSH2 0x87F JUMP JUMPDEST SWAP2 POP PUSH2 0x91C DUP3 PUSH2 0x8DD JUMP JUMPDEST PUSH1 0x1C DUP3 ADD SWAP1 POP SWAP2 SWAP1 POP JUMP JUMPDEST PUSH0 DUP2 SWAP1 POP SWAP2 SWAP1 POP JUMP JUMPDEST PUSH2 0x941 PUSH2 0x93C DUP3 PUSH2 0x2E5 JUMP JUMPDEST PUSH2 0x927 JUMP JUMPDEST DUP3 MSTORE POP POP JUMP JUMPDEST PUSH0 PUSH2 0x951 DUP3 PUSH2 0x905 JUMP JUMPDEST SWAP2 POP PUSH2 0x95D DUP3 DUP5 PUSH2 0x930 JUMP JUMPDEST PUSH1 0x20 DUP3 ADD SWAP2 POP DUP2 SWAP1 POP SWAP3 SWAP2 POP POP JUMP INVALID LOG2 PUSH5 0x6970667358 0x22 SLT KECCAK256 SWAP12 SELFBALANCE MULMOD 0x2B PUSH17 0x3607EA7FD8B681204CAA596DE5B313707E CODESIZE CALL PUSH14 0x30C7AA82E68AA264736F6C634300 ADDMOD BYTE STOP CALLER "
				},
				"gasEstimates": {
					"creation": {
						"codeDepositCost": "493200",
						"executionCost": "528",
						"totalCost": "493728"
					},
					"external": {
						"getEthSignedMessageHash(bytes32)": "infinite",
						"getMessageHash(string)": "infinite",
						"recover(bytes32,bytes)": "infinite",
						"splitSignature(bytes)": "infinite",
						"verify(address,string,bytes)": "infinite"
					}
				},
				"methodIdentifiers": {
					"getEthSignedMessageHash(bytes32)": "fa540801",
					"getMessageHash(string)": "b446f3b2",
					"recover(bytes32,bytes)": "19045a25",
					"splitSignature(bytes)": "a7bb5803",
					"verify(address,string,bytes)": "2dd34f0f"
				}
			},
			"storageLayout": {
				"storage": [],
				"types": null
			},
			"userdoc": {
				"kind": "user",
				"methods": {},
				"version": 1
			}
		}
	}
}