{
	"contract/3-4/调用父合约的函数.sol": {
		"B": {
			"abi": [
				{
					"anonymous": false,
					"inputs": [
						{
							"indexed": false,
							"internalType": "string",
							"name": "",
							"type": "string"
						}
					],
					"name": "LOG",
					"type": "event"
				},
				{
					"inputs": [],
					"name": "foo",
					"outputs": [],
					"stateMutability": "nonpayable",
					"type": "function"
				}
			],
			"devdoc": {
				"kind": "dev",
				"methods": {},
				"version": 1
			},
			"evm": {
				"assembly": "    /* \"contract/3-4/\\xe8\\xb0\\x83\\xe7\\x94\\xa8\\xe7\\x88\\xb6\\xe5\\x90\\x88\\xe7\\xba\\xa6\\xe7\\x9a\\x84\\xe5\\x87\\xbd\\xe6\\x95\\xb0.sol\":179:297  contract B is A {... */\n  mstore(0x40, 0x80)\n  callvalue\n  dup1\n  iszero\n  tag_1\n  jumpi\n  0x00\n  dup1\n  revert\ntag_1:\n  pop\n  dataSize(sub_0)\n  dup1\n  dataOffset(sub_0)\n  0x00\n  codecopy\n  0x00\n  return\nstop\n\nsub_0: assembly {\n        /* \"contract/3-4/\\xe8\\xb0\\x83\\xe7\\x94\\xa8\\xe7\\x88\\xb6\\xe5\\x90\\x88\\xe7\\xba\\xa6\\xe7\\x9a\\x84\\xe5\\x87\\xbd\\xe6\\x95\\xb0.sol\":179:297  contract B is A {... */\n      mstore(0x40, 0x80)\n      callvalue\n      dup1\n      iszero\n      tag_1\n      jumpi\n      0x00\n      dup1\n      revert\n    tag_1:\n      pop\n      jumpi(tag_2, lt(calldatasize, 0x04))\n      shr(0xe0, calldataload(0x00))\n      dup1\n      0xc2985578\n      eq\n      tag_3\n      jumpi\n    tag_2:\n      0x00\n      dup1\n      revert\n        /* \"contract/3-4/\\xe8\\xb0\\x83\\xe7\\x94\\xa8\\xe7\\x88\\xb6\\xe5\\x90\\x88\\xe7\\xba\\xa6\\xe7\\x9a\\x84\\xe5\\x87\\xbd\\xe6\\x95\\xb0.sol\":201:295  function foo() public virtual override {... */\n    tag_3:\n      tag_4\n      tag_5\n      jump\t// in\n    tag_4:\n      stop\n    tag_5:\n        /* \"contract/3-4/\\xe8\\xb0\\x83\\xe7\\x94\\xa8\\xe7\\x88\\xb6\\xe5\\x90\\x88\\xe7\\xba\\xa6\\xe7\\x9a\\x84\\xe5\\x87\\xbd\\xe6\\x95\\xb0.sol\":250:261  super.foo() */\n      tag_7\n        /* \"contract/3-4/\\xe8\\xb0\\x83\\xe7\\x94\\xa8\\xe7\\x88\\xb6\\xe5\\x90\\x88\\xe7\\xba\\xa6\\xe7\\x9a\\x84\\xe5\\x87\\xbd\\xe6\\x95\\xb0.sol\":250:259  super.foo */\n      tag_8\n        /* \"contract/3-4/\\xe8\\xb0\\x83\\xe7\\x94\\xa8\\xe7\\x88\\xb6\\xe5\\x90\\x88\\xe7\\xba\\xa6\\xe7\\x9a\\x84\\xe5\\x87\\xbd\\xe6\\x95\\xb0.sol\":250:261  super.foo() */\n      jump\t// in\n    tag_7:\n        /* \"contract/3-4/\\xe8\\xb0\\x83\\xe7\\x94\\xa8\\xe7\\x88\\xb6\\xe5\\x90\\x88\\xe7\\xba\\xa6\\xe7\\x9a\\x84\\xe5\\x87\\xbd\\xe6\\x95\\xb0.sol\":276:288  LOG(\"B foo\") */\n      0xd2f6c0020d30a86146de6300741f2bd90869bddf3818f8d3294ae782f6216176\n      mload(0x40)\n      tag_9\n      swap1\n      tag_10\n      jump\t// in\n    tag_9:\n      mload(0x40)\n      dup1\n      swap2\n      sub\n      swap1\n      log1\n        /* \"contract/3-4/\\xe8\\xb0\\x83\\xe7\\x94\\xa8\\xe7\\x88\\xb6\\xe5\\x90\\x88\\xe7\\xba\\xa6\\xe7\\x9a\\x84\\xe5\\x87\\xbd\\xe6\\x95\\xb0.sol\":201:295  function foo() public virtual override {... */\n      jump\t// out\n        /* \"contract/3-4/\\xe8\\xb0\\x83\\xe7\\x94\\xa8\\xe7\\x88\\xb6\\xe5\\x90\\x88\\xe7\\xba\\xa6\\xe7\\x9a\\x84\\xe5\\x87\\xbd\\xe6\\x95\\xb0.sol\":111:175  function foo() public virtual {... */\n    tag_8:\n        /* \"contract/3-4/\\xe8\\xb0\\x83\\xe7\\x94\\xa8\\xe7\\x88\\xb6\\xe5\\x90\\x88\\xe7\\xba\\xa6\\xe7\\x9a\\x84\\xe5\\x87\\xbd\\xe6\\x95\\xb0.sol\":156:168  LOG(\"A foo\") */\n      0xd2f6c0020d30a86146de6300741f2bd90869bddf3818f8d3294ae782f6216176\n      mload(0x40)\n      tag_12\n      swap1\n      tag_13\n      jump\t// in\n    tag_12:\n      mload(0x40)\n      dup1\n      swap2\n      sub\n      swap1\n      log1\n        /* \"contract/3-4/\\xe8\\xb0\\x83\\xe7\\x94\\xa8\\xe7\\x88\\xb6\\xe5\\x90\\x88\\xe7\\xba\\xa6\\xe7\\x9a\\x84\\xe5\\x87\\xbd\\xe6\\x95\\xb0.sol\":111:175  function foo() public virtual {... */\n      jump\t// out\n        /* \"#utility.yul\":7:176   */\n    tag_14:\n        /* \"#utility.yul\":91:102   */\n      0x00\n        /* \"#utility.yul\":125:131   */\n      dup3\n        /* \"#utility.yul\":120:123   */\n      dup3\n        /* \"#utility.yul\":113:132   */\n      mstore\n        /* \"#utility.yul\":165:169   */\n      0x20\n        /* \"#utility.yul\":160:163   */\n      dup3\n        /* \"#utility.yul\":156:170   */\n      add\n        /* \"#utility.yul\":141:170   */\n      swap1\n      pop\n        /* \"#utility.yul\":7:176   */\n      swap3\n      swap2\n      pop\n      pop\n      jump\t// out\n        /* \"#utility.yul\":182:337   */\n    tag_15:\n        /* \"#utility.yul\":322:329   */\n      0x4220666f6f000000000000000000000000000000000000000000000000000000\n        /* \"#utility.yul\":318:319   */\n      0x00\n        /* \"#utility.yul\":310:316   */\n      dup3\n        /* \"#utility.yul\":306:320   */\n      add\n        /* \"#utility.yul\":299:330   */\n      mstore\n        /* \"#utility.yul\":182:337   */\n      pop\n      jump\t// out\n        /* \"#utility.yul\":343:708   */\n    tag_16:\n        /* \"#utility.yul\":485:488   */\n      0x00\n        /* \"#utility.yul\":506:572   */\n      tag_23\n        /* \"#utility.yul\":570:571   */\n      0x05\n        /* \"#utility.yul\":565:568   */\n      dup4\n        /* \"#utility.yul\":506:572   */\n      tag_14\n      jump\t// in\n    tag_23:\n        /* \"#utility.yul\":499:572   */\n      swap2\n      pop\n        /* \"#utility.yul\":581:674   */\n      tag_24\n        /* \"#utility.yul\":670:673   */\n      dup3\n        /* \"#utility.yul\":581:674   */\n      tag_15\n      jump\t// in\n    tag_24:\n        /* \"#utility.yul\":699:701   */\n      0x20\n        /* \"#utility.yul\":694:697   */\n      dup3\n        /* \"#utility.yul\":690:702   */\n      add\n        /* \"#utility.yul\":683:702   */\n      swap1\n      pop\n        /* \"#utility.yul\":343:708   */\n      swap2\n      swap1\n      pop\n      jump\t// out\n        /* \"#utility.yul\":714:1133   */\n    tag_10:\n        /* \"#utility.yul\":880:884   */\n      0x00\n        /* \"#utility.yul\":918:920   */\n      0x20\n        /* \"#utility.yul\":907:916   */\n      dup3\n        /* \"#utility.yul\":903:921   */\n      add\n        /* \"#utility.yul\":895:921   */\n      swap1\n      pop\n        /* \"#utility.yul\":967:976   */\n      dup2\n        /* \"#utility.yul\":961:965   */\n      dup2\n        /* \"#utility.yul\":957:977   */\n      sub\n        /* \"#utility.yul\":953:954   */\n      0x00\n        /* \"#utility.yul\":942:951   */\n      dup4\n        /* \"#utility.yul\":938:955   */\n      add\n        /* \"#utility.yul\":931:978   */\n      mstore\n        /* \"#utility.yul\":995:1126   */\n      tag_26\n        /* \"#utility.yul\":1121:1125   */\n      dup2\n        /* \"#utility.yul\":995:1126   */\n      tag_16\n      jump\t// in\n    tag_26:\n        /* \"#utility.yul\":987:1126   */\n      swap1\n      pop\n        /* \"#utility.yul\":714:1133   */\n      swap2\n      swap1\n      pop\n      jump\t// out\n        /* \"#utility.yul\":1139:1294   */\n    tag_17:\n        /* \"#utility.yul\":1279:1286   */\n      0x4120666f6f000000000000000000000000000000000000000000000000000000\n        /* \"#utility.yul\":1275:1276   */\n      0x00\n        /* \"#utility.yul\":1267:1273   */\n      dup3\n        /* \"#utility.yul\":1263:1277   */\n      add\n        /* \"#utility.yul\":1256:1287   */\n      mstore\n        /* \"#utility.yul\":1139:1294   */\n      pop\n      jump\t// out\n        /* \"#utility.yul\":1300:1665   */\n    tag_18:\n        /* \"#utility.yul\":1442:1445   */\n      0x00\n        /* \"#utility.yul\":1463:1529   */\n      tag_29\n        /* \"#utility.yul\":1527:1528   */\n      0x05\n        /* \"#utility.yul\":1522:1525   */\n      dup4\n        /* \"#utility.yul\":1463:1529   */\n      tag_14\n      jump\t// in\n    tag_29:\n        /* \"#utility.yul\":1456:1529   */\n      swap2\n      pop\n        /* \"#utility.yul\":1538:1631   */\n      tag_30\n        /* \"#utility.yul\":1627:1630   */\n      dup3\n        /* \"#utility.yul\":1538:1631   */\n      tag_17\n      jump\t// in\n    tag_30:\n        /* \"#utility.yul\":1656:1658   */\n      0x20\n        /* \"#utility.yul\":1651:1654   */\n      dup3\n        /* \"#utility.yul\":1647:1659   */\n      add\n        /* \"#utility.yul\":1640:1659   */\n      swap1\n      pop\n        /* \"#utility.yul\":1300:1665   */\n      swap2\n      swap1\n      pop\n      jump\t// out\n        /* \"#utility.yul\":1671:2090   */\n    tag_13:\n        /* \"#utility.yul\":1837:1841   */\n      0x00\n        /* \"#utility.yul\":1875:1877   */\n      0x20\n        /* \"#utility.yul\":1864:1873   */\n      dup3\n        /* \"#utility.yul\":1860:1878   */\n      add\n        /* \"#utility.yul\":1852:1878   */\n      swap1\n      pop\n        /* \"#utility.yul\":1924:1933   */\n      dup2\n        /* \"#utility.yul\":1918:1922   */\n      dup2\n        /* \"#utility.yul\":1914:1934   */\n      sub\n        /* \"#utility.yul\":1910:1911   */\n      0x00\n        /* \"#utility.yul\":1899:1908   */\n      dup4\n        /* \"#utility.yul\":1895:1912   */\n      add\n        /* \"#utility.yul\":1888:1935   */\n      mstore\n        /* \"#utility.yul\":1952:2083   */\n      tag_32\n        /* \"#utility.yul\":2078:2082   */\n      dup2\n        /* \"#utility.yul\":1952:2083   */\n      tag_18\n      jump\t// in\n    tag_32:\n        /* \"#utility.yul\":1944:2083   */\n      swap1\n      pop\n        /* \"#utility.yul\":1671:2090   */\n      swap2\n      swap1\n      pop\n      jump\t// out\n\n    auxdata: 0xa26469706673582212207f0fe81938cc6cd25663cdd808b39296048b6e7614e3dd824c939426e4db9b0c64736f6c634300081a0033\n}\n",
				"bytecode": {
					"linkReferences": {},
					"object": "6080604052348015600e575f80fd5b506101c38061001c5f395ff3fe608060405234801561000f575f80fd5b5060043610610029575f3560e01c8063c29855781461002d575b5f80fd5b610035610037565b005b61003f610076565b7fd2f6c0020d30a86146de6300741f2bd90869bddf3818f8d3294ae782f621617660405161006c90610107565b60405180910390a1565b7fd2f6c0020d30a86146de6300741f2bd90869bddf3818f8d3294ae782f62161766040516100a39061016f565b60405180910390a1565b5f82825260208201905092915050565b7f4220666f6f0000000000000000000000000000000000000000000000000000005f82015250565b5f6100f16005836100ad565b91506100fc826100bd565b602082019050919050565b5f6020820190508181035f83015261011e816100e5565b9050919050565b7f4120666f6f0000000000000000000000000000000000000000000000000000005f82015250565b5f6101596005836100ad565b915061016482610125565b602082019050919050565b5f6020820190508181035f8301526101868161014d565b905091905056fea26469706673582212207f0fe81938cc6cd25663cdd808b39296048b6e7614e3dd824c939426e4db9b0c64736f6c634300081a0033",
					"opcodes": "PUSH1 0x80 PUSH1 0x40 MSTORE CALLVALUE DUP1 ISZERO PUSH1 0xE JUMPI PUSH0 DUP1 REVERT JUMPDEST POP PUSH2 0x1C3 DUP1 PUSH2 0x1C PUSH0 CODECOPY PUSH0 RETURN INVALID PUSH1 0x80 PUSH1 0x40 MSTORE CALLVALUE DUP1 ISZERO PUSH2 0xF JUMPI PUSH0 DUP1 REVERT JUMPDEST POP PUSH1 0x4 CALLDATASIZE LT PUSH2 0x29 JUMPI PUSH0 CALLDATALOAD PUSH1 0xE0 SHR DUP1 PUSH4 0xC2985578 EQ PUSH2 0x2D JUMPI JUMPDEST PUSH0 DUP1 REVERT JUMPDEST PUSH2 0x35 PUSH2 0x37 JUMP JUMPDEST STOP JUMPDEST PUSH2 0x3F PUSH2 0x76 JUMP JUMPDEST PUSH32 0xD2F6C0020D30A86146DE6300741F2BD90869BDDF3818F8D3294AE782F6216176 PUSH1 0x40 MLOAD PUSH2 0x6C SWAP1 PUSH2 0x107 JUMP JUMPDEST PUSH1 0x40 MLOAD DUP1 SWAP2 SUB SWAP1 LOG1 JUMP JUMPDEST PUSH32 0xD2F6C0020D30A86146DE6300741F2BD90869BDDF3818F8D3294AE782F6216176 PUSH1 0x40 MLOAD PUSH2 0xA3 SWAP1 PUSH2 0x16F JUMP JUMPDEST PUSH1 0x40 MLOAD DUP1 SWAP2 SUB SWAP1 LOG1 JUMP JUMPDEST PUSH0 DUP3 DUP3 MSTORE PUSH1 0x20 DUP3 ADD SWAP1 POP SWAP3 SWAP2 POP POP JUMP JUMPDEST PUSH32 0x4220666F6F000000000000000000000000000000000000000000000000000000 PUSH0 DUP3 ADD MSTORE POP JUMP JUMPDEST PUSH0 PUSH2 0xF1 PUSH1 0x5 DUP4 PUSH2 0xAD JUMP JUMPDEST SWAP2 POP PUSH2 0xFC DUP3 PUSH2 0xBD JUMP JUMPDEST PUSH1 0x20 DUP3 ADD SWAP1 POP SWAP2 SWAP1 POP JUMP JUMPDEST PUSH0 PUSH1 0x20 DUP3 ADD SWAP1 POP DUP2 DUP2 SUB PUSH0 DUP4 ADD MSTORE PUSH2 0x11E DUP2 PUSH2 0xE5 JUMP JUMPDEST SWAP1 POP SWAP2 SWAP1 POP JUMP JUMPDEST PUSH32 0x4120666F6F000000000000000000000000000000000000000000000000000000 PUSH0 DUP3 ADD MSTORE POP JUMP JUMPDEST PUSH0 PUSH2 0x159 PUSH1 0x5 DUP4 PUSH2 0xAD JUMP JUMPDEST SWAP2 POP PUSH2 0x164 DUP3 PUSH2 0x125 JUMP JUMPDEST PUSH1 0x20 DUP3 ADD SWAP1 POP SWAP2 SWAP1 POP JUMP JUMPDEST PUSH0 PUSH1 0x20 DUP3 ADD SWAP1 POP DUP2 DUP2 SUB PUSH0 DUP4 ADD MSTORE PUSH2 0x186 DUP2 PUSH2 0x14D JUMP JUMPDEST SWAP1 POP SWAP2 SWAP1 POP JUMP INVALID LOG2 PUSH5 0x6970667358 0x22 SLT KECCAK256 PUSH32 0xFE81938CC6CD25663CDD808B39296048B6E7614E3DD824C939426E4DB9B0C64 PUSH20 0x6F6C634300081A00330000000000000000000000 "
				},
				"gasEstimates": {
					"creation": {
						"codeDepositCost": "90200",
						"executionCost": "139",
						"totalCost": "90339"
					},
					"external": {
						"foo()": "infinite"
					}
				},
				"methodIdentifiers": {
					"foo()": "c2985578"
				}
			},
			"storageLayout": {
				"storage": [],
				"types": null
			},
			"userdoc": {
				"kind": "user",
				"methods": {},
				"version": 1
			}
		}
	}
}