{
	"contract/3-4/调用父合约的函数.sol": {
		"D": {
			"abi": [
				{
					"anonymous": false,
					"inputs": [
						{
							"indexed": false,
							"internalType": "string",
							"name": "",
							"type": "string"
						}
					],
					"name": "LOG",
					"type": "event"
				},
				{
					"inputs": [],
					"name": "directCall",
					"outputs": [],
					"stateMutability": "nonpayable",
					"type": "function"
				},
				{
					"inputs": [],
					"name": "foo",
					"outputs": [],
					"stateMutability": "nonpayable",
					"type": "function"
				},
				{
					"inputs": [],
					"name": "superCall",
					"outputs": [],
					"stateMutability": "nonpayable",
					"type": "function"
				}
			],
			"devdoc": {
				"kind": "dev",
				"methods": {},
				"version": 1
			},
			"evm": {
				"assembly": "    /* \"contract/3-4/\\xe8\\xb0\\x83\\xe7\\x94\\xa8\\xe7\\x88\\xb6\\xe5\\x90\\x88\\xe7\\xba\\xa6\\xe7\\x9a\\x84\\xe5\\x87\\xbd\\xe6\\x95\\xb0.sol\":419:646  contract D is C, B {... */\n  mstore(0x40, 0x80)\n  callvalue\n  dup1\n  iszero\n  tag_1\n  jumpi\n  0x00\n  dup1\n  revert\ntag_1:\n  pop\n  dataSize(sub_0)\n  dup1\n  dataOffset(sub_0)\n  0x00\n  codecopy\n  0x00\n  return\nstop\n\nsub_0: assembly {\n        /* \"contract/3-4/\\xe8\\xb0\\x83\\xe7\\x94\\xa8\\xe7\\x88\\xb6\\xe5\\x90\\x88\\xe7\\xba\\xa6\\xe7\\x9a\\x84\\xe5\\x87\\xbd\\xe6\\x95\\xb0.sol\":419:646  contract D is C, B {... */\n      mstore(0x40, 0x80)\n      callvalue\n      dup1\n      iszero\n      tag_1\n      jumpi\n      0x00\n      dup1\n      revert\n    tag_1:\n      pop\n      jumpi(tag_2, lt(calldatasize, 0x04))\n      shr(0xe0, calldataload(0x00))\n      dup1\n      0xd52f27\n      eq\n      tag_3\n      jumpi\n      dup1\n      0x86fc87ee\n      eq\n      tag_4\n      jumpi\n      dup1\n      0xc2985578\n      eq\n      tag_5\n      jumpi\n    tag_2:\n      0x00\n      dup1\n      revert\n        /* \"contract/3-4/\\xe8\\xb0\\x83\\xe7\\x94\\xa8\\xe7\\x88\\xb6\\xe5\\x90\\x88\\xe7\\xba\\xa6\\xe7\\x9a\\x84\\xe5\\x87\\xbd\\xe6\\x95\\xb0.sol\":588:644  function superCall() public {... */\n    tag_3:\n      tag_6\n      tag_7\n      jump\t// in\n    tag_6:\n      stop\n        /* \"contract/3-4/\\xe8\\xb0\\x83\\xe7\\x94\\xa8\\xe7\\x88\\xb6\\xe5\\x90\\x88\\xe7\\xba\\xa6\\xe7\\x9a\\x84\\xe5\\x87\\xbd\\xe6\\x95\\xb0.sol\":529:582  function directCall() public {... */\n    tag_4:\n      tag_8\n      tag_9\n      jump\t// in\n    tag_8:\n      stop\n        /* \"contract/3-4/\\xe8\\xb0\\x83\\xe7\\x94\\xa8\\xe7\\x88\\xb6\\xe5\\x90\\x88\\xe7\\xba\\xa6\\xe7\\x9a\\x84\\xe5\\x87\\xbd\\xe6\\x95\\xb0.sol\":444:523  function foo() public virtual override(B, C) {... */\n    tag_5:\n      tag_10\n      tag_11\n      jump\t// in\n    tag_10:\n      stop\n        /* \"contract/3-4/\\xe8\\xb0\\x83\\xe7\\x94\\xa8\\xe7\\x88\\xb6\\xe5\\x90\\x88\\xe7\\xba\\xa6\\xe7\\x9a\\x84\\xe5\\x87\\xbd\\xe6\\x95\\xb0.sol\":588:644  function superCall() public {... */\n    tag_7:\n        /* \"contract/3-4/\\xe8\\xb0\\x83\\xe7\\x94\\xa8\\xe7\\x88\\xb6\\xe5\\x90\\x88\\xe7\\xba\\xa6\\xe7\\x9a\\x84\\xe5\\x87\\xbd\\xe6\\x95\\xb0.sol\":626:637  super.foo() */\n      tag_13\n        /* \"contract/3-4/\\xe8\\xb0\\x83\\xe7\\x94\\xa8\\xe7\\x88\\xb6\\xe5\\x90\\x88\\xe7\\xba\\xa6\\xe7\\x9a\\x84\\xe5\\x87\\xbd\\xe6\\x95\\xb0.sol\":626:635  super.foo */\n      tag_14\n        /* \"contract/3-4/\\xe8\\xb0\\x83\\xe7\\x94\\xa8\\xe7\\x88\\xb6\\xe5\\x90\\x88\\xe7\\xba\\xa6\\xe7\\x9a\\x84\\xe5\\x87\\xbd\\xe6\\x95\\xb0.sol\":626:637  super.foo() */\n      jump\t// in\n    tag_13:\n        /* \"contract/3-4/\\xe8\\xb0\\x83\\xe7\\x94\\xa8\\xe7\\x88\\xb6\\xe5\\x90\\x88\\xe7\\xba\\xa6\\xe7\\x9a\\x84\\xe5\\x87\\xbd\\xe6\\x95\\xb0.sol\":588:644  function superCall() public {... */\n      jump\t// out\n        /* \"contract/3-4/\\xe8\\xb0\\x83\\xe7\\x94\\xa8\\xe7\\x88\\xb6\\xe5\\x90\\x88\\xe7\\xba\\xa6\\xe7\\x9a\\x84\\xe5\\x87\\xbd\\xe6\\x95\\xb0.sol\":529:582  function directCall() public {... */\n    tag_9:\n        /* \"contract/3-4/\\xe8\\xb0\\x83\\xe7\\x94\\xa8\\xe7\\x88\\xb6\\xe5\\x90\\x88\\xe7\\xba\\xa6\\xe7\\x9a\\x84\\xe5\\x87\\xbd\\xe6\\x95\\xb0.sol\":568:575  B.foo() */\n      tag_16\n        /* \"contract/3-4/\\xe8\\xb0\\x83\\xe7\\x94\\xa8\\xe7\\x88\\xb6\\xe5\\x90\\x88\\xe7\\xba\\xa6\\xe7\\x9a\\x84\\xe5\\x87\\xbd\\xe6\\x95\\xb0.sol\":568:573  B.foo */\n      tag_14\n        /* \"contract/3-4/\\xe8\\xb0\\x83\\xe7\\x94\\xa8\\xe7\\x88\\xb6\\xe5\\x90\\x88\\xe7\\xba\\xa6\\xe7\\x9a\\x84\\xe5\\x87\\xbd\\xe6\\x95\\xb0.sol\":568:575  B.foo() */\n      jump\t// in\n    tag_16:\n        /* \"contract/3-4/\\xe8\\xb0\\x83\\xe7\\x94\\xa8\\xe7\\x88\\xb6\\xe5\\x90\\x88\\xe7\\xba\\xa6\\xe7\\x9a\\x84\\xe5\\x87\\xbd\\xe6\\x95\\xb0.sol\":529:582  function directCall() public {... */\n      jump\t// out\n        /* \"contract/3-4/\\xe8\\xb0\\x83\\xe7\\x94\\xa8\\xe7\\x88\\xb6\\xe5\\x90\\x88\\xe7\\xba\\xa6\\xe7\\x9a\\x84\\xe5\\x87\\xbd\\xe6\\x95\\xb0.sol\":444:523  function foo() public virtual override(B, C) {... */\n    tag_11:\n        /* \"contract/3-4/\\xe8\\xb0\\x83\\xe7\\x94\\xa8\\xe7\\x88\\xb6\\xe5\\x90\\x88\\xe7\\xba\\xa6\\xe7\\x9a\\x84\\xe5\\x87\\xbd\\xe6\\x95\\xb0.sol\":504:516  LOG(\"D foo\") */\n      0xd2f6c0020d30a86146de6300741f2bd90869bddf3818f8d3294ae782f6216176\n      mload(0x40)\n      tag_18\n      swap1\n      tag_19\n      jump\t// in\n    tag_18:\n      mload(0x40)\n      dup1\n      swap2\n      sub\n      swap1\n      log1\n        /* \"contract/3-4/\\xe8\\xb0\\x83\\xe7\\x94\\xa8\\xe7\\x88\\xb6\\xe5\\x90\\x88\\xe7\\xba\\xa6\\xe7\\x9a\\x84\\xe5\\x87\\xbd\\xe6\\x95\\xb0.sol\":444:523  function foo() public virtual override(B, C) {... */\n      jump\t// out\n        /* \"contract/3-4/\\xe8\\xb0\\x83\\xe7\\x94\\xa8\\xe7\\x88\\xb6\\xe5\\x90\\x88\\xe7\\xba\\xa6\\xe7\\x9a\\x84\\xe5\\x87\\xbd\\xe6\\x95\\xb0.sol\":201:295  function foo() public virtual override {... */\n    tag_14:\n        /* \"contract/3-4/\\xe8\\xb0\\x83\\xe7\\x94\\xa8\\xe7\\x88\\xb6\\xe5\\x90\\x88\\xe7\\xba\\xa6\\xe7\\x9a\\x84\\xe5\\x87\\xbd\\xe6\\x95\\xb0.sol\":250:261  super.foo() */\n      tag_21\n        /* \"contract/3-4/\\xe8\\xb0\\x83\\xe7\\x94\\xa8\\xe7\\x88\\xb6\\xe5\\x90\\x88\\xe7\\xba\\xa6\\xe7\\x9a\\x84\\xe5\\x87\\xbd\\xe6\\x95\\xb0.sol\":250:259  super.foo */\n      tag_22\n        /* \"contract/3-4/\\xe8\\xb0\\x83\\xe7\\x94\\xa8\\xe7\\x88\\xb6\\xe5\\x90\\x88\\xe7\\xba\\xa6\\xe7\\x9a\\x84\\xe5\\x87\\xbd\\xe6\\x95\\xb0.sol\":250:261  super.foo() */\n      jump\t// in\n    tag_21:\n        /* \"contract/3-4/\\xe8\\xb0\\x83\\xe7\\x94\\xa8\\xe7\\x88\\xb6\\xe5\\x90\\x88\\xe7\\xba\\xa6\\xe7\\x9a\\x84\\xe5\\x87\\xbd\\xe6\\x95\\xb0.sol\":276:288  LOG(\"B foo\") */\n      0xd2f6c0020d30a86146de6300741f2bd90869bddf3818f8d3294ae782f6216176\n      mload(0x40)\n      tag_23\n      swap1\n      tag_24\n      jump\t// in\n    tag_23:\n      mload(0x40)\n      dup1\n      swap2\n      sub\n      swap1\n      log1\n        /* \"contract/3-4/\\xe8\\xb0\\x83\\xe7\\x94\\xa8\\xe7\\x88\\xb6\\xe5\\x90\\x88\\xe7\\xba\\xa6\\xe7\\x9a\\x84\\xe5\\x87\\xbd\\xe6\\x95\\xb0.sol\":201:295  function foo() public virtual override {... */\n      jump\t// out\n        /* \"contract/3-4/\\xe8\\xb0\\x83\\xe7\\x94\\xa8\\xe7\\x88\\xb6\\xe5\\x90\\x88\\xe7\\xba\\xa6\\xe7\\x9a\\x84\\xe5\\x87\\xbd\\xe6\\x95\\xb0.sol\":321:415  function foo() public virtual override {... */\n    tag_22:\n        /* \"contract/3-4/\\xe8\\xb0\\x83\\xe7\\x94\\xa8\\xe7\\x88\\xb6\\xe5\\x90\\x88\\xe7\\xba\\xa6\\xe7\\x9a\\x84\\xe5\\x87\\xbd\\xe6\\x95\\xb0.sol\":370:381  super.foo() */\n      tag_26\n        /* \"contract/3-4/\\xe8\\xb0\\x83\\xe7\\x94\\xa8\\xe7\\x88\\xb6\\xe5\\x90\\x88\\xe7\\xba\\xa6\\xe7\\x9a\\x84\\xe5\\x87\\xbd\\xe6\\x95\\xb0.sol\":370:379  super.foo */\n      tag_27\n        /* \"contract/3-4/\\xe8\\xb0\\x83\\xe7\\x94\\xa8\\xe7\\x88\\xb6\\xe5\\x90\\x88\\xe7\\xba\\xa6\\xe7\\x9a\\x84\\xe5\\x87\\xbd\\xe6\\x95\\xb0.sol\":370:381  super.foo() */\n      jump\t// in\n    tag_26:\n        /* \"contract/3-4/\\xe8\\xb0\\x83\\xe7\\x94\\xa8\\xe7\\x88\\xb6\\xe5\\x90\\x88\\xe7\\xba\\xa6\\xe7\\x9a\\x84\\xe5\\x87\\xbd\\xe6\\x95\\xb0.sol\":396:408  LOG(\"C foo\") */\n      0xd2f6c0020d30a86146de6300741f2bd90869bddf3818f8d3294ae782f6216176\n      mload(0x40)\n      tag_28\n      swap1\n      tag_29\n      jump\t// in\n    tag_28:\n      mload(0x40)\n      dup1\n      swap2\n      sub\n      swap1\n      log1\n        /* \"contract/3-4/\\xe8\\xb0\\x83\\xe7\\x94\\xa8\\xe7\\x88\\xb6\\xe5\\x90\\x88\\xe7\\xba\\xa6\\xe7\\x9a\\x84\\xe5\\x87\\xbd\\xe6\\x95\\xb0.sol\":321:415  function foo() public virtual override {... */\n      jump\t// out\n        /* \"contract/3-4/\\xe8\\xb0\\x83\\xe7\\x94\\xa8\\xe7\\x88\\xb6\\xe5\\x90\\x88\\xe7\\xba\\xa6\\xe7\\x9a\\x84\\xe5\\x87\\xbd\\xe6\\x95\\xb0.sol\":111:175  function foo() public virtual {... */\n    tag_27:\n        /* \"contract/3-4/\\xe8\\xb0\\x83\\xe7\\x94\\xa8\\xe7\\x88\\xb6\\xe5\\x90\\x88\\xe7\\xba\\xa6\\xe7\\x9a\\x84\\xe5\\x87\\xbd\\xe6\\x95\\xb0.sol\":156:168  LOG(\"A foo\") */\n      0xd2f6c0020d30a86146de6300741f2bd90869bddf3818f8d3294ae782f6216176\n      mload(0x40)\n      tag_31\n      swap1\n      tag_32\n      jump\t// in\n    tag_31:\n      mload(0x40)\n      dup1\n      swap2\n      sub\n      swap1\n      log1\n        /* \"contract/3-4/\\xe8\\xb0\\x83\\xe7\\x94\\xa8\\xe7\\x88\\xb6\\xe5\\x90\\x88\\xe7\\xba\\xa6\\xe7\\x9a\\x84\\xe5\\x87\\xbd\\xe6\\x95\\xb0.sol\":111:175  function foo() public virtual {... */\n      jump\t// out\n        /* \"#utility.yul\":7:176   */\n    tag_33:\n        /* \"#utility.yul\":91:102   */\n      0x00\n        /* \"#utility.yul\":125:131   */\n      dup3\n        /* \"#utility.yul\":120:123   */\n      dup3\n        /* \"#utility.yul\":113:132   */\n      mstore\n        /* \"#utility.yul\":165:169   */\n      0x20\n        /* \"#utility.yul\":160:163   */\n      dup3\n        /* \"#utility.yul\":156:170   */\n      add\n        /* \"#utility.yul\":141:170   */\n      swap1\n      pop\n        /* \"#utility.yul\":7:176   */\n      swap3\n      swap2\n      pop\n      pop\n      jump\t// out\n        /* \"#utility.yul\":182:337   */\n    tag_34:\n        /* \"#utility.yul\":322:329   */\n      0x4420666f6f000000000000000000000000000000000000000000000000000000\n        /* \"#utility.yul\":318:319   */\n      0x00\n        /* \"#utility.yul\":310:316   */\n      dup3\n        /* \"#utility.yul\":306:320   */\n      add\n        /* \"#utility.yul\":299:330   */\n      mstore\n        /* \"#utility.yul\":182:337   */\n      pop\n      jump\t// out\n        /* \"#utility.yul\":343:708   */\n    tag_35:\n        /* \"#utility.yul\":485:488   */\n      0x00\n        /* \"#utility.yul\":506:572   */\n      tag_46\n        /* \"#utility.yul\":570:571   */\n      0x05\n        /* \"#utility.yul\":565:568   */\n      dup4\n        /* \"#utility.yul\":506:572   */\n      tag_33\n      jump\t// in\n    tag_46:\n        /* \"#utility.yul\":499:572   */\n      swap2\n      pop\n        /* \"#utility.yul\":581:674   */\n      tag_47\n        /* \"#utility.yul\":670:673   */\n      dup3\n        /* \"#utility.yul\":581:674   */\n      tag_34\n      jump\t// in\n    tag_47:\n        /* \"#utility.yul\":699:701   */\n      0x20\n        /* \"#utility.yul\":694:697   */\n      dup3\n        /* \"#utility.yul\":690:702   */\n      add\n        /* \"#utility.yul\":683:702   */\n      swap1\n      pop\n        /* \"#utility.yul\":343:708   */\n      swap2\n      swap1\n      pop\n      jump\t// out\n        /* \"#utility.yul\":714:1133   */\n    tag_19:\n        /* \"#utility.yul\":880:884   */\n      0x00\n        /* \"#utility.yul\":918:920   */\n      0x20\n        /* \"#utility.yul\":907:916   */\n      dup3\n        /* \"#utility.yul\":903:921   */\n      add\n        /* \"#utility.yul\":895:921   */\n      swap1\n      pop\n        /* \"#utility.yul\":967:976   */\n      dup2\n        /* \"#utility.yul\":961:965   */\n      dup2\n        /* \"#utility.yul\":957:977   */\n      sub\n        /* \"#utility.yul\":953:954   */\n      0x00\n        /* \"#utility.yul\":942:951   */\n      dup4\n        /* \"#utility.yul\":938:955   */\n      add\n        /* \"#utility.yul\":931:978   */\n      mstore\n        /* \"#utility.yul\":995:1126   */\n      tag_49\n        /* \"#utility.yul\":1121:1125   */\n      dup2\n        /* \"#utility.yul\":995:1126   */\n      tag_35\n      jump\t// in\n    tag_49:\n        /* \"#utility.yul\":987:1126   */\n      swap1\n      pop\n        /* \"#utility.yul\":714:1133   */\n      swap2\n      swap1\n      pop\n      jump\t// out\n        /* \"#utility.yul\":1139:1294   */\n    tag_36:\n        /* \"#utility.yul\":1279:1286   */\n      0x4220666f6f000000000000000000000000000000000000000000000000000000\n        /* \"#utility.yul\":1275:1276   */\n      0x00\n        /* \"#utility.yul\":1267:1273   */\n      dup3\n        /* \"#utility.yul\":1263:1277   */\n      add\n        /* \"#utility.yul\":1256:1287   */\n      mstore\n        /* \"#utility.yul\":1139:1294   */\n      pop\n      jump\t// out\n        /* \"#utility.yul\":1300:1665   */\n    tag_37:\n        /* \"#utility.yul\":1442:1445   */\n      0x00\n        /* \"#utility.yul\":1463:1529   */\n      tag_52\n        /* \"#utility.yul\":1527:1528   */\n      0x05\n        /* \"#utility.yul\":1522:1525   */\n      dup4\n        /* \"#utility.yul\":1463:1529   */\n      tag_33\n      jump\t// in\n    tag_52:\n        /* \"#utility.yul\":1456:1529   */\n      swap2\n      pop\n        /* \"#utility.yul\":1538:1631   */\n      tag_53\n        /* \"#utility.yul\":1627:1630   */\n      dup3\n        /* \"#utility.yul\":1538:1631   */\n      tag_36\n      jump\t// in\n    tag_53:\n        /* \"#utility.yul\":1656:1658   */\n      0x20\n        /* \"#utility.yul\":1651:1654   */\n      dup3\n        /* \"#utility.yul\":1647:1659   */\n      add\n        /* \"#utility.yul\":1640:1659   */\n      swap1\n      pop\n        /* \"#utility.yul\":1300:1665   */\n      swap2\n      swap1\n      pop\n      jump\t// out\n        /* \"#utility.yul\":1671:2090   */\n    tag_24:\n        /* \"#utility.yul\":1837:1841   */\n      0x00\n        /* \"#utility.yul\":1875:1877   */\n      0x20\n        /* \"#utility.yul\":1864:1873   */\n      dup3\n        /* \"#utility.yul\":1860:1878   */\n      add\n        /* \"#utility.yul\":1852:1878   */\n      swap1\n      pop\n        /* \"#utility.yul\":1924:1933   */\n      dup2\n        /* \"#utility.yul\":1918:1922   */\n      dup2\n        /* \"#utility.yul\":1914:1934   */\n      sub\n        /* \"#utility.yul\":1910:1911   */\n      0x00\n        /* \"#utility.yul\":1899:1908   */\n      dup4\n        /* \"#utility.yul\":1895:1912   */\n      add\n        /* \"#utility.yul\":1888:1935   */\n      mstore\n        /* \"#utility.yul\":1952:2083   */\n      tag_55\n        /* \"#utility.yul\":2078:2082   */\n      dup2\n        /* \"#utility.yul\":1952:2083   */\n      tag_37\n      jump\t// in\n    tag_55:\n        /* \"#utility.yul\":1944:2083   */\n      swap1\n      pop\n        /* \"#utility.yul\":1671:2090   */\n      swap2\n      swap1\n      pop\n      jump\t// out\n        /* \"#utility.yul\":2096:2251   */\n    tag_38:\n        /* \"#utility.yul\":2236:2243   */\n      0x4320666f6f000000000000000000000000000000000000000000000000000000\n        /* \"#utility.yul\":2232:2233   */\n      0x00\n        /* \"#utility.yul\":2224:2230   */\n      dup3\n        /* \"#utility.yul\":2220:2234   */\n      add\n        /* \"#utility.yul\":2213:2244   */\n      mstore\n        /* \"#utility.yul\":2096:2251   */\n      pop\n      jump\t// out\n        /* \"#utility.yul\":2257:2622   */\n    tag_39:\n        /* \"#utility.yul\":2399:2402   */\n      0x00\n        /* \"#utility.yul\":2420:2486   */\n      tag_58\n        /* \"#utility.yul\":2484:2485   */\n      0x05\n        /* \"#utility.yul\":2479:2482   */\n      dup4\n        /* \"#utility.yul\":2420:2486   */\n      tag_33\n      jump\t// in\n    tag_58:\n        /* \"#utility.yul\":2413:2486   */\n      swap2\n      pop\n        /* \"#utility.yul\":2495:2588   */\n      tag_59\n        /* \"#utility.yul\":2584:2587   */\n      dup3\n        /* \"#utility.yul\":2495:2588   */\n      tag_38\n      jump\t// in\n    tag_59:\n        /* \"#utility.yul\":2613:2615   */\n      0x20\n        /* \"#utility.yul\":2608:2611   */\n      dup3\n        /* \"#utility.yul\":2604:2616   */\n      add\n        /* \"#utility.yul\":2597:2616   */\n      swap1\n      pop\n        /* \"#utility.yul\":2257:2622   */\n      swap2\n      swap1\n      pop\n      jump\t// out\n        /* \"#utility.yul\":2628:3047   */\n    tag_29:\n        /* \"#utility.yul\":2794:2798   */\n      0x00\n        /* \"#utility.yul\":2832:2834   */\n      0x20\n        /* \"#utility.yul\":2821:2830   */\n      dup3\n        /* \"#utility.yul\":2817:2835   */\n      add\n        /* \"#utility.yul\":2809:2835   */\n      swap1\n      pop\n        /* \"#utility.yul\":2881:2890   */\n      dup2\n        /* \"#utility.yul\":2875:2879   */\n      dup2\n        /* \"#utility.yul\":2871:2891   */\n      sub\n        /* \"#utility.yul\":2867:2868   */\n      0x00\n        /* \"#utility.yul\":2856:2865   */\n      dup4\n        /* \"#utility.yul\":2852:2869   */\n      add\n        /* \"#utility.yul\":2845:2892   */\n      mstore\n        /* \"#utility.yul\":2909:3040   */\n      tag_61\n        /* \"#utility.yul\":3035:3039   */\n      dup2\n        /* \"#utility.yul\":2909:3040   */\n      tag_39\n      jump\t// in\n    tag_61:\n        /* \"#utility.yul\":2901:3040   */\n      swap1\n      pop\n        /* \"#utility.yul\":2628:3047   */\n      swap2\n      swap1\n      pop\n      jump\t// out\n        /* \"#utility.yul\":3053:3208   */\n    tag_40:\n        /* \"#utility.yul\":3193:3200   */\n      0x4120666f6f000000000000000000000000000000000000000000000000000000\n        /* \"#utility.yul\":3189:3190   */\n      0x00\n        /* \"#utility.yul\":3181:3187   */\n      dup3\n        /* \"#utility.yul\":3177:3191   */\n      add\n        /* \"#utility.yul\":3170:3201   */\n      mstore\n        /* \"#utility.yul\":3053:3208   */\n      pop\n      jump\t// out\n        /* \"#utility.yul\":3214:3579   */\n    tag_41:\n        /* \"#utility.yul\":3356:3359   */\n      0x00\n        /* \"#utility.yul\":3377:3443   */\n      tag_64\n        /* \"#utility.yul\":3441:3442   */\n      0x05\n        /* \"#utility.yul\":3436:3439   */\n      dup4\n        /* \"#utility.yul\":3377:3443   */\n      tag_33\n      jump\t// in\n    tag_64:\n        /* \"#utility.yul\":3370:3443   */\n      swap2\n      pop\n        /* \"#utility.yul\":3452:3545   */\n      tag_65\n        /* \"#utility.yul\":3541:3544   */\n      dup3\n        /* \"#utility.yul\":3452:3545   */\n      tag_40\n      jump\t// in\n    tag_65:\n        /* \"#utility.yul\":3570:3572   */\n      0x20\n        /* \"#utility.yul\":3565:3568   */\n      dup3\n        /* \"#utility.yul\":3561:3573   */\n      add\n        /* \"#utility.yul\":3554:3573   */\n      swap1\n      pop\n        /* \"#utility.yul\":3214:3579   */\n      swap2\n      swap1\n      pop\n      jump\t// out\n        /* \"#utility.yul\":3585:4004   */\n    tag_32:\n        /* \"#utility.yul\":3751:3755   */\n      0x00\n        /* \"#utility.yul\":3789:3791   */\n      0x20\n        /* \"#utility.yul\":3778:3787   */\n      dup3\n        /* \"#utility.yul\":3774:3792   */\n      add\n        /* \"#utility.yul\":3766:3792   */\n      swap1\n      pop\n        /* \"#utility.yul\":3838:3847   */\n      dup2\n        /* \"#utility.yul\":3832:3836   */\n      dup2\n        /* \"#utility.yul\":3828:3848   */\n      sub\n        /* \"#utility.yul\":3824:3825   */\n      0x00\n        /* \"#utility.yul\":3813:3822   */\n      dup4\n        /* \"#utility.yul\":3809:3826   */\n      add\n        /* \"#utility.yul\":3802:3849   */\n      mstore\n        /* \"#utility.yul\":3866:3997   */\n      tag_67\n        /* \"#utility.yul\":3992:3996   */\n      dup2\n        /* \"#utility.yul\":3866:3997   */\n      tag_41\n      jump\t// in\n    tag_67:\n        /* \"#utility.yul\":3858:3997   */\n      swap1\n      pop\n        /* \"#utility.yul\":3585:4004   */\n      swap2\n      swap1\n      pop\n      jump\t// out\n\n    auxdata: 0xa2646970667358221220178d81fd94d934dd85256026c41aabd5d75b6709385e35ade7560df9b4070ea964736f6c634300081a0033\n}\n",
				"bytecode": {
					"linkReferences": {},
					"object": "6080604052348015600e575f80fd5b506103468061001c5f395ff3fe608060405234801561000f575f80fd5b506004361061003e575f3560e01c8062d52f271461004257806386fc87ee1461004c578063c298557814610056575b5f80fd5b61004a610060565b005b61005461006a565b005b61005e610074565b005b6100686100ab565b565b6100726100ab565b565b7fd2f6c0020d30a86146de6300741f2bd90869bddf3818f8d3294ae782f62161766040516100a1906101ba565b60405180910390a1565b6100b36100ea565b7fd2f6c0020d30a86146de6300741f2bd90869bddf3818f8d3294ae782f62161766040516100e090610222565b60405180910390a1565b6100f2610129565b7fd2f6c0020d30a86146de6300741f2bd90869bddf3818f8d3294ae782f621617660405161011f9061028a565b60405180910390a1565b7fd2f6c0020d30a86146de6300741f2bd90869bddf3818f8d3294ae782f6216176604051610156906102f2565b60405180910390a1565b5f82825260208201905092915050565b7f4420666f6f0000000000000000000000000000000000000000000000000000005f82015250565b5f6101a4600583610160565b91506101af82610170565b602082019050919050565b5f6020820190508181035f8301526101d181610198565b9050919050565b7f4220666f6f0000000000000000000000000000000000000000000000000000005f82015250565b5f61020c600583610160565b9150610217826101d8565b602082019050919050565b5f6020820190508181035f83015261023981610200565b9050919050565b7f4320666f6f0000000000000000000000000000000000000000000000000000005f82015250565b5f610274600583610160565b915061027f82610240565b602082019050919050565b5f6020820190508181035f8301526102a181610268565b9050919050565b7f4120666f6f0000000000000000000000000000000000000000000000000000005f82015250565b5f6102dc600583610160565b91506102e7826102a8565b602082019050919050565b5f6020820190508181035f830152610309816102d0565b905091905056fea2646970667358221220178d81fd94d934dd85256026c41aabd5d75b6709385e35ade7560df9b4070ea964736f6c634300081a0033",
					"opcodes": "PUSH1 0x80 PUSH1 0x40 MSTORE CALLVALUE DUP1 ISZERO PUSH1 0xE JUMPI PUSH0 DUP1 REVERT JUMPDEST POP PUSH2 0x346 DUP1 PUSH2 0x1C PUSH0 CODECOPY PUSH0 RETURN INVALID PUSH1 0x80 PUSH1 0x40 MSTORE CALLVALUE DUP1 ISZERO PUSH2 0xF JUMPI PUSH0 DUP1 REVERT JUMPDEST POP PUSH1 0x4 CALLDATASIZE LT PUSH2 0x3E JUMPI PUSH0 CALLDATALOAD PUSH1 0xE0 SHR DUP1 PUSH3 0xD52F27 EQ PUSH2 0x42 JUMPI DUP1 PUSH4 0x86FC87EE EQ PUSH2 0x4C JUMPI DUP1 PUSH4 0xC2985578 EQ PUSH2 0x56 JUMPI JUMPDEST PUSH0 DUP1 REVERT JUMPDEST PUSH2 0x4A PUSH2 0x60 JUMP JUMPDEST STOP JUMPDEST PUSH2 0x54 PUSH2 0x6A JUMP JUMPDEST STOP JUMPDEST PUSH2 0x5E PUSH2 0x74 JUMP JUMPDEST STOP JUMPDEST PUSH2 0x68 PUSH2 0xAB JUMP JUMPDEST JUMP JUMPDEST PUSH2 0x72 PUSH2 0xAB JUMP JUMPDEST JUMP JUMPDEST PUSH32 0xD2F6C0020D30A86146DE6300741F2BD90869BDDF3818F8D3294AE782F6216176 PUSH1 0x40 MLOAD PUSH2 0xA1 SWAP1 PUSH2 0x1BA JUMP JUMPDEST PUSH1 0x40 MLOAD DUP1 SWAP2 SUB SWAP1 LOG1 JUMP JUMPDEST PUSH2 0xB3 PUSH2 0xEA JUMP JUMPDEST PUSH32 0xD2F6C0020D30A86146DE6300741F2BD90869BDDF3818F8D3294AE782F6216176 PUSH1 0x40 MLOAD PUSH2 0xE0 SWAP1 PUSH2 0x222 JUMP JUMPDEST PUSH1 0x40 MLOAD DUP1 SWAP2 SUB SWAP1 LOG1 JUMP JUMPDEST PUSH2 0xF2 PUSH2 0x129 JUMP JUMPDEST PUSH32 0xD2F6C0020D30A86146DE6300741F2BD90869BDDF3818F8D3294AE782F6216176 PUSH1 0x40 MLOAD PUSH2 0x11F SWAP1 PUSH2 0x28A JUMP JUMPDEST PUSH1 0x40 MLOAD DUP1 SWAP2 SUB SWAP1 LOG1 JUMP JUMPDEST PUSH32 0xD2F6C0020D30A86146DE6300741F2BD90869BDDF3818F8D3294AE782F6216176 PUSH1 0x40 MLOAD PUSH2 0x156 SWAP1 PUSH2 0x2F2 JUMP JUMPDEST PUSH1 0x40 MLOAD DUP1 SWAP2 SUB SWAP1 LOG1 JUMP JUMPDEST PUSH0 DUP3 DUP3 MSTORE PUSH1 0x20 DUP3 ADD SWAP1 POP SWAP3 SWAP2 POP POP JUMP JUMPDEST PUSH32 0x4420666F6F000000000000000000000000000000000000000000000000000000 PUSH0 DUP3 ADD MSTORE POP JUMP JUMPDEST PUSH0 PUSH2 0x1A4 PUSH1 0x5 DUP4 PUSH2 0x160 JUMP JUMPDEST SWAP2 POP PUSH2 0x1AF DUP3 PUSH2 0x170 JUMP JUMPDEST PUSH1 0x20 DUP3 ADD SWAP1 POP SWAP2 SWAP1 POP JUMP JUMPDEST PUSH0 PUSH1 0x20 DUP3 ADD SWAP1 POP DUP2 DUP2 SUB PUSH0 DUP4 ADD MSTORE PUSH2 0x1D1 DUP2 PUSH2 0x198 JUMP JUMPDEST SWAP1 POP SWAP2 SWAP1 POP JUMP JUMPDEST PUSH32 0x4220666F6F000000000000000000000000000000000000000000000000000000 PUSH0 DUP3 ADD MSTORE POP JUMP JUMPDEST PUSH0 PUSH2 0x20C PUSH1 0x5 DUP4 PUSH2 0x160 JUMP JUMPDEST SWAP2 POP PUSH2 0x217 DUP3 PUSH2 0x1D8 JUMP JUMPDEST PUSH1 0x20 DUP3 ADD SWAP1 POP SWAP2 SWAP1 POP JUMP JUMPDEST PUSH0 PUSH1 0x20 DUP3 ADD SWAP1 POP DUP2 DUP2 SUB PUSH0 DUP4 ADD MSTORE PUSH2 0x239 DUP2 PUSH2 0x200 JUMP JUMPDEST SWAP1 POP SWAP2 SWAP1 POP JUMP JUMPDEST PUSH32 0x4320666F6F000000000000000000000000000000000000000000000000000000 PUSH0 DUP3 ADD MSTORE POP JUMP JUMPDEST PUSH0 PUSH2 0x274 PUSH1 0x5 DUP4 PUSH2 0x160 JUMP JUMPDEST SWAP2 POP PUSH2 0x27F DUP3 PUSH2 0x240 JUMP JUMPDEST PUSH1 0x20 DUP3 ADD SWAP1 POP SWAP2 SWAP1 POP JUMP JUMPDEST PUSH0 PUSH1 0x20 DUP3 ADD SWAP1 POP DUP2 DUP2 SUB PUSH0 DUP4 ADD MSTORE PUSH2 0x2A1 DUP2 PUSH2 0x268 JUMP JUMPDEST SWAP1 POP SWAP2 SWAP1 POP JUMP JUMPDEST PUSH32 0x4120666F6F000000000000000000000000000000000000000000000000000000 PUSH0 DUP3 ADD MSTORE POP JUMP JUMPDEST PUSH0 PUSH2 0x2DC PUSH1 0x5 DUP4 PUSH2 0x160 JUMP JUMPDEST SWAP2 POP PUSH2 0x2E7 DUP3 PUSH2 0x2A8 JUMP JUMPDEST PUSH1 0x20 DUP3 ADD SWAP1 POP SWAP2 SWAP1 POP JUMP JUMPDEST PUSH0 PUSH1 0x20 DUP3 ADD SWAP1 POP DUP2 DUP2 SUB PUSH0 DUP4 ADD MSTORE PUSH2 0x309 DUP2 PUSH2 0x2D0 JUMP JUMPDEST SWAP1 POP SWAP2 SWAP1 POP JUMP INVALID LOG2 PUSH5 0x6970667358 0x22 SLT KECCAK256 OR DUP14 DUP2 REVERT SWAP5 0xD9 CALLVALUE 0xDD DUP6 0x25 PUSH1 0x26 0xC4 BYTE 0xAB 0xD5 0xD7 JUMPDEST PUSH8 0x9385E35ADE7560D 0xF9 0xB4 SMOD 0xE 0xA9 PUSH5 0x736F6C6343 STOP ADDMOD BYTE STOP CALLER "
				},
				"gasEstimates": {
					"creation": {
						"codeDepositCost": "167600",
						"executionCost": "212",
						"totalCost": "167812"
					},
					"external": {
						"directCall()": "infinite",
						"foo()": "1962",
						"superCall()": "infinite"
					}
				},
				"methodIdentifiers": {
					"directCall()": "86fc87ee",
					"foo()": "c2985578",
					"superCall()": "00d52f27"
				}
			},
			"storageLayout": {
				"storage": [],
				"types": null
			},
			"userdoc": {
				"kind": "user",
				"methods": {},
				"version": 1
			}
		}
	}
}