{
	"contract/3-4/CallDemo.sol": {
		"TestContract": {
			"abi": [
				{
					"anonymous": false,
					"inputs": [
						{
							"indexed": false,
							"internalType": "string",
							"name": "",
							"type": "string"
						}
					],
					"name": "Log",
					"type": "event"
				},
				{
					"inputs": [
						{
							"internalType": "string",
							"name": "_msg",
							"type": "string"
						},
						{
							"internalType": "uint256",
							"name": "_num",
							"type": "uint256"
						}
					],
					"name": "foo",
					"outputs": [],
					"stateMutability": "nonpayable",
					"type": "function"
				},
				{
					"inputs": [],
					"name": "message",
					"outputs": [
						{
							"internalType": "string",
							"name": "",
							"type": "string"
						}
					],
					"stateMutability": "view",
					"type": "function"
				},
				{
					"inputs": [],
					"name": "num",
					"outputs": [
						{
							"internalType": "uint256",
							"name": "",
							"type": "uint256"
						}
					],
					"stateMutability": "view",
					"type": "function"
				},
				{
					"inputs": [],
					"name": "num2",
					"outputs": [
						{
							"internalType": "uint256",
							"name": "",
							"type": "uint256"
						}
					],
					"stateMutability": "view",
					"type": "function"
				}
			],
			"devdoc": {
				"kind": "dev",
				"methods": {},
				"version": 1
			},
			"evm": {
				"assembly": "    /* \"contract/3-4/CallDemo.sol\":70:314  contract TestContract {... */\n  mstore(0x40, 0x80)\n  callvalue\n  dup1\n  iszero\n  tag_1\n  jumpi\n  0x00\n  dup1\n  revert\ntag_1:\n  pop\n  dataSize(sub_0)\n  dup1\n  dataOffset(sub_0)\n  0x00\n  codecopy\n  0x00\n  return\nstop\n\nsub_0: assembly {\n        /* \"contract/3-4/CallDemo.sol\":70:314  contract TestContract {... */\n      mstore(0x40, 0x80)\n      callvalue\n      dup1\n      iszero\n      tag_1\n      jumpi\n      0x00\n      dup1\n      revert\n    tag_1:\n      pop\n      jumpi(tag_2, lt(calldatasize, 0x04))\n      shr(0xe0, calldataload(0x00))\n      dup1\n      0x15d4266c\n      eq\n      tag_3\n      jumpi\n      dup1\n      0x24ccab8f\n      eq\n      tag_4\n      jumpi\n      dup1\n      0x4e70b1dc\n      eq\n      tag_5\n      jumpi\n      dup1\n      0xe21f37ce\n      eq\n      tag_6\n      jumpi\n    tag_2:\n      0x00\n      dup1\n      revert\n        /* \"contract/3-4/CallDemo.sol\":149:168  uint256 public num2 */\n    tag_3:\n      tag_7\n      tag_8\n      jump\t// in\n    tag_7:\n      mload(0x40)\n      tag_9\n      swap2\n      swap1\n      tag_10\n      jump\t// in\n    tag_9:\n      mload(0x40)\n      dup1\n      swap2\n      sub\n      swap1\n      return\n        /* \"contract/3-4/CallDemo.sol\":199:306  function foo(string memory _msg, uint256 _num) external {... */\n    tag_4:\n      tag_11\n      0x04\n      dup1\n      calldatasize\n      sub\n      dup2\n      add\n      swap1\n      tag_12\n      swap2\n      swap1\n      tag_13\n      jump\t// in\n    tag_12:\n      tag_14\n      jump\t// in\n    tag_11:\n      stop\n        /* \"contract/3-4/CallDemo.sol\":125:143  uint256 public num */\n    tag_5:\n      tag_15\n      tag_16\n      jump\t// in\n    tag_15:\n      mload(0x40)\n      tag_17\n      swap2\n      swap1\n      tag_10\n      jump\t// in\n    tag_17:\n      mload(0x40)\n      dup1\n      swap2\n      sub\n      swap1\n      return\n        /* \"contract/3-4/CallDemo.sol\":98:119  string public message */\n    tag_6:\n      tag_18\n      tag_19\n      jump\t// in\n    tag_18:\n      mload(0x40)\n      tag_20\n      swap2\n      swap1\n      tag_21\n      jump\t// in\n    tag_20:\n      mload(0x40)\n      dup1\n      swap2\n      sub\n      swap1\n      return\n        /* \"contract/3-4/CallDemo.sol\":149:168  uint256 public num2 */\n    tag_8:\n      sload(0x02)\n      dup2\n      jump\t// out\n        /* \"contract/3-4/CallDemo.sol\":199:306  function foo(string memory _msg, uint256 _num) external {... */\n    tag_14:\n        /* \"contract/3-4/CallDemo.sol\":275:279  _msg */\n      dup2\n        /* \"contract/3-4/CallDemo.sol\":265:272  message */\n      0x00\n        /* \"contract/3-4/CallDemo.sol\":265:279  message = _msg */\n      swap1\n      dup2\n      tag_23\n      swap2\n      swap1\n      tag_24\n      jump\t// in\n    tag_23:\n      pop\n        /* \"contract/3-4/CallDemo.sol\":295:299  _num */\n      dup1\n        /* \"contract/3-4/CallDemo.sol\":289:292  num */\n      0x01\n        /* \"contract/3-4/CallDemo.sol\":289:299  num = _num */\n      dup2\n      swap1\n      sstore\n      pop\n        /* \"contract/3-4/CallDemo.sol\":199:306  function foo(string memory _msg, uint256 _num) external {... */\n      pop\n      pop\n      jump\t// out\n        /* \"contract/3-4/CallDemo.sol\":125:143  uint256 public num */\n    tag_16:\n      sload(0x01)\n      dup2\n      jump\t// out\n        /* \"contract/3-4/CallDemo.sol\":98:119  string public message */\n    tag_19:\n      0x00\n      dup1\n      sload\n      tag_25\n      swap1\n      tag_26\n      jump\t// in\n    tag_25:\n      dup1\n      0x1f\n      add\n      0x20\n      dup1\n      swap2\n      div\n      mul\n      0x20\n      add\n      mload(0x40)\n      swap1\n      dup2\n      add\n      0x40\n      mstore\n      dup1\n      swap3\n      swap2\n      swap1\n      dup2\n      dup2\n      mstore\n      0x20\n      add\n      dup3\n      dup1\n      sload\n      tag_27\n      swap1\n      tag_26\n      jump\t// in\n    tag_27:\n      dup1\n      iszero\n      tag_28\n      jumpi\n      dup1\n      0x1f\n      lt\n      tag_29\n      jumpi\n      0x0100\n      dup1\n      dup4\n      sload\n      div\n      mul\n      dup4\n      mstore\n      swap2\n      0x20\n      add\n      swap2\n      jump(tag_28)\n    tag_29:\n      dup3\n      add\n      swap2\n      swap1\n      0x00\n      mstore\n      keccak256(0x00, 0x20)\n      swap1\n    tag_30:\n      dup2\n      sload\n      dup2\n      mstore\n      swap1\n      0x01\n      add\n      swap1\n      0x20\n      add\n      dup1\n      dup4\n      gt\n      tag_30\n      jumpi\n      dup3\n      swap1\n      sub\n      0x1f\n      and\n      dup3\n      add\n      swap2\n    tag_28:\n      pop\n      pop\n      pop\n      pop\n      pop\n      dup2\n      jump\t// out\n        /* \"#utility.yul\":7:84   */\n    tag_31:\n        /* \"#utility.yul\":44:51   */\n      0x00\n        /* \"#utility.yul\":73:78   */\n      dup2\n        /* \"#utility.yul\":62:78   */\n      swap1\n      pop\n        /* \"#utility.yul\":7:84   */\n      swap2\n      swap1\n      pop\n      jump\t// out\n        /* \"#utility.yul\":90:208   */\n    tag_32:\n        /* \"#utility.yul\":177:201   */\n      tag_71\n        /* \"#utility.yul\":195:200   */\n      dup2\n        /* \"#utility.yul\":177:201   */\n      tag_31\n      jump\t// in\n    tag_71:\n        /* \"#utility.yul\":172:175   */\n      dup3\n        /* \"#utility.yul\":165:202   */\n      mstore\n        /* \"#utility.yul\":90:208   */\n      pop\n      pop\n      jump\t// out\n        /* \"#utility.yul\":214:436   */\n    tag_10:\n        /* \"#utility.yul\":307:311   */\n      0x00\n        /* \"#utility.yul\":345:347   */\n      0x20\n        /* \"#utility.yul\":334:343   */\n      dup3\n        /* \"#utility.yul\":330:348   */\n      add\n        /* \"#utility.yul\":322:348   */\n      swap1\n      pop\n        /* \"#utility.yul\":358:429   */\n      tag_73\n        /* \"#utility.yul\":426:427   */\n      0x00\n        /* \"#utility.yul\":415:424   */\n      dup4\n        /* \"#utility.yul\":411:428   */\n      add\n        /* \"#utility.yul\":402:408   */\n      dup5\n        /* \"#utility.yul\":358:429   */\n      tag_32\n      jump\t// in\n    tag_73:\n        /* \"#utility.yul\":214:436   */\n      swap3\n      swap2\n      pop\n      pop\n      jump\t// out\n        /* \"#utility.yul\":442:517   */\n    tag_33:\n        /* \"#utility.yul\":475:481   */\n      0x00\n        /* \"#utility.yul\":508:510   */\n      0x40\n        /* \"#utility.yul\":502:511   */\n      mload\n        /* \"#utility.yul\":492:511   */\n      swap1\n      pop\n        /* \"#utility.yul\":442:517   */\n      swap1\n      jump\t// out\n        /* \"#utility.yul\":523:640   */\n    tag_34:\n        /* \"#utility.yul\":632:633   */\n      0x00\n        /* \"#utility.yul\":629:630   */\n      dup1\n        /* \"#utility.yul\":622:634   */\n      revert\n        /* \"#utility.yul\":646:763   */\n    tag_35:\n        /* \"#utility.yul\":755:756   */\n      0x00\n        /* \"#utility.yul\":752:753   */\n      dup1\n        /* \"#utility.yul\":745:757   */\n      revert\n        /* \"#utility.yul\":769:886   */\n    tag_36:\n        /* \"#utility.yul\":878:879   */\n      0x00\n        /* \"#utility.yul\":875:876   */\n      dup1\n        /* \"#utility.yul\":868:880   */\n      revert\n        /* \"#utility.yul\":892:1009   */\n    tag_37:\n        /* \"#utility.yul\":1001:1002   */\n      0x00\n        /* \"#utility.yul\":998:999   */\n      dup1\n        /* \"#utility.yul\":991:1003   */\n      revert\n        /* \"#utility.yul\":1015:1117   */\n    tag_38:\n        /* \"#utility.yul\":1056:1062   */\n      0x00\n        /* \"#utility.yul\":1107:1109   */\n      0x1f\n        /* \"#utility.yul\":1103:1110   */\n      not\n        /* \"#utility.yul\":1098:1100   */\n      0x1f\n        /* \"#utility.yul\":1091:1096   */\n      dup4\n        /* \"#utility.yul\":1087:1101   */\n      add\n        /* \"#utility.yul\":1083:1111   */\n      and\n        /* \"#utility.yul\":1073:1111   */\n      swap1\n      pop\n        /* \"#utility.yul\":1015:1117   */\n      swap2\n      swap1\n      pop\n      jump\t// out\n        /* \"#utility.yul\":1123:1303   */\n    tag_39:\n        /* \"#utility.yul\":1171:1248   */\n      0x4e487b7100000000000000000000000000000000000000000000000000000000\n        /* \"#utility.yul\":1168:1169   */\n      0x00\n        /* \"#utility.yul\":1161:1249   */\n      mstore\n        /* \"#utility.yul\":1268:1272   */\n      0x41\n        /* \"#utility.yul\":1265:1266   */\n      0x04\n        /* \"#utility.yul\":1258:1273   */\n      mstore\n        /* \"#utility.yul\":1292:1296   */\n      0x24\n        /* \"#utility.yul\":1289:1290   */\n      0x00\n        /* \"#utility.yul\":1282:1297   */\n      revert\n        /* \"#utility.yul\":1309:1590   */\n    tag_40:\n        /* \"#utility.yul\":1392:1419   */\n      tag_82\n        /* \"#utility.yul\":1414:1418   */\n      dup3\n        /* \"#utility.yul\":1392:1419   */\n      tag_38\n      jump\t// in\n    tag_82:\n        /* \"#utility.yul\":1384:1390   */\n      dup2\n        /* \"#utility.yul\":1380:1420   */\n      add\n        /* \"#utility.yul\":1522:1528   */\n      dup2\n        /* \"#utility.yul\":1510:1520   */\n      dup2\n        /* \"#utility.yul\":1507:1529   */\n      lt\n        /* \"#utility.yul\":1486:1504   */\n      0xffffffffffffffff\n        /* \"#utility.yul\":1474:1484   */\n      dup3\n        /* \"#utility.yul\":1471:1505   */\n      gt\n        /* \"#utility.yul\":1468:1530   */\n      or\n        /* \"#utility.yul\":1465:1553   */\n      iszero\n      tag_83\n      jumpi\n        /* \"#utility.yul\":1533:1551   */\n      tag_84\n      tag_39\n      jump\t// in\n    tag_84:\n        /* \"#utility.yul\":1465:1553   */\n    tag_83:\n        /* \"#utility.yul\":1573:1583   */\n      dup1\n        /* \"#utility.yul\":1569:1571   */\n      0x40\n        /* \"#utility.yul\":1562:1584   */\n      mstore\n        /* \"#utility.yul\":1352:1590   */\n      pop\n        /* \"#utility.yul\":1309:1590   */\n      pop\n      pop\n      jump\t// out\n        /* \"#utility.yul\":1596:1725   */\n    tag_41:\n        /* \"#utility.yul\":1630:1636   */\n      0x00\n        /* \"#utility.yul\":1657:1677   */\n      tag_86\n      tag_33\n      jump\t// in\n    tag_86:\n        /* \"#utility.yul\":1647:1677   */\n      swap1\n      pop\n        /* \"#utility.yul\":1686:1719   */\n      tag_87\n        /* \"#utility.yul\":1714:1718   */\n      dup3\n        /* \"#utility.yul\":1706:1712   */\n      dup3\n        /* \"#utility.yul\":1686:1719   */\n      tag_40\n      jump\t// in\n    tag_87:\n        /* \"#utility.yul\":1596:1725   */\n      swap2\n      swap1\n      pop\n      jump\t// out\n        /* \"#utility.yul\":1731:2039   */\n    tag_42:\n        /* \"#utility.yul\":1793:1797   */\n      0x00\n        /* \"#utility.yul\":1883:1901   */\n      0xffffffffffffffff\n        /* \"#utility.yul\":1875:1881   */\n      dup3\n        /* \"#utility.yul\":1872:1902   */\n      gt\n        /* \"#utility.yul\":1869:1925   */\n      iszero\n      tag_89\n      jumpi\n        /* \"#utility.yul\":1905:1923   */\n      tag_90\n      tag_39\n      jump\t// in\n    tag_90:\n        /* \"#utility.yul\":1869:1925   */\n    tag_89:\n        /* \"#utility.yul\":1943:1972   */\n      tag_91\n        /* \"#utility.yul\":1965:1971   */\n      dup3\n        /* \"#utility.yul\":1943:1972   */\n      tag_38\n      jump\t// in\n    tag_91:\n        /* \"#utility.yul\":1935:1972   */\n      swap1\n      pop\n        /* \"#utility.yul\":2027:2031   */\n      0x20\n        /* \"#utility.yul\":2021:2025   */\n      dup2\n        /* \"#utility.yul\":2017:2032   */\n      add\n        /* \"#utility.yul\":2009:2032   */\n      swap1\n      pop\n        /* \"#utility.yul\":1731:2039   */\n      swap2\n      swap1\n      pop\n      jump\t// out\n        /* \"#utility.yul\":2045:2193   */\n    tag_43:\n        /* \"#utility.yul\":2143:2149   */\n      dup3\n        /* \"#utility.yul\":2138:2141   */\n      dup2\n        /* \"#utility.yul\":2133:2136   */\n      dup4\n        /* \"#utility.yul\":2120:2150   */\n      calldatacopy\n        /* \"#utility.yul\":2184:2185   */\n      0x00\n        /* \"#utility.yul\":2175:2181   */\n      dup4\n        /* \"#utility.yul\":2170:2173   */\n      dup4\n        /* \"#utility.yul\":2166:2182   */\n      add\n        /* \"#utility.yul\":2159:2186   */\n      mstore\n        /* \"#utility.yul\":2045:2193   */\n      pop\n      pop\n      pop\n      jump\t// out\n        /* \"#utility.yul\":2199:2624   */\n    tag_44:\n        /* \"#utility.yul\":2277:2282   */\n      0x00\n        /* \"#utility.yul\":2302:2368   */\n      tag_94\n        /* \"#utility.yul\":2318:2367   */\n      tag_95\n        /* \"#utility.yul\":2360:2366   */\n      dup5\n        /* \"#utility.yul\":2318:2367   */\n      tag_42\n      jump\t// in\n    tag_95:\n        /* \"#utility.yul\":2302:2368   */\n      tag_41\n      jump\t// in\n    tag_94:\n        /* \"#utility.yul\":2293:2368   */\n      swap1\n      pop\n        /* \"#utility.yul\":2391:2397   */\n      dup3\n        /* \"#utility.yul\":2384:2389   */\n      dup2\n        /* \"#utility.yul\":2377:2398   */\n      mstore\n        /* \"#utility.yul\":2429:2433   */\n      0x20\n        /* \"#utility.yul\":2422:2427   */\n      dup2\n        /* \"#utility.yul\":2418:2434   */\n      add\n        /* \"#utility.yul\":2467:2470   */\n      dup5\n        /* \"#utility.yul\":2458:2464   */\n      dup5\n        /* \"#utility.yul\":2453:2456   */\n      dup5\n        /* \"#utility.yul\":2449:2465   */\n      add\n        /* \"#utility.yul\":2446:2471   */\n      gt\n        /* \"#utility.yul\":2443:2555   */\n      iszero\n      tag_96\n      jumpi\n        /* \"#utility.yul\":2474:2553   */\n      tag_97\n      tag_37\n      jump\t// in\n    tag_97:\n        /* \"#utility.yul\":2443:2555   */\n    tag_96:\n        /* \"#utility.yul\":2564:2618   */\n      tag_98\n        /* \"#utility.yul\":2611:2617   */\n      dup5\n        /* \"#utility.yul\":2606:2609   */\n      dup3\n        /* \"#utility.yul\":2601:2604   */\n      dup6\n        /* \"#utility.yul\":2564:2618   */\n      tag_43\n      jump\t// in\n    tag_98:\n        /* \"#utility.yul\":2283:2624   */\n      pop\n        /* \"#utility.yul\":2199:2624   */\n      swap4\n      swap3\n      pop\n      pop\n      pop\n      jump\t// out\n        /* \"#utility.yul\":2644:2984   */\n    tag_45:\n        /* \"#utility.yul\":2700:2705   */\n      0x00\n        /* \"#utility.yul\":2749:2752   */\n      dup3\n        /* \"#utility.yul\":2742:2746   */\n      0x1f\n        /* \"#utility.yul\":2734:2740   */\n      dup4\n        /* \"#utility.yul\":2730:2747   */\n      add\n        /* \"#utility.yul\":2726:2753   */\n      slt\n        /* \"#utility.yul\":2716:2838   */\n      tag_100\n      jumpi\n        /* \"#utility.yul\":2757:2836   */\n      tag_101\n      tag_36\n      jump\t// in\n    tag_101:\n        /* \"#utility.yul\":2716:2838   */\n    tag_100:\n        /* \"#utility.yul\":2874:2880   */\n      dup2\n        /* \"#utility.yul\":2861:2881   */\n      calldataload\n        /* \"#utility.yul\":2899:2978   */\n      tag_102\n        /* \"#utility.yul\":2974:2977   */\n      dup5\n        /* \"#utility.yul\":2966:2972   */\n      dup3\n        /* \"#utility.yul\":2959:2963   */\n      0x20\n        /* \"#utility.yul\":2951:2957   */\n      dup7\n        /* \"#utility.yul\":2947:2964   */\n      add\n        /* \"#utility.yul\":2899:2978   */\n      tag_44\n      jump\t// in\n    tag_102:\n        /* \"#utility.yul\":2890:2978   */\n      swap2\n      pop\n        /* \"#utility.yul\":2706:2984   */\n      pop\n        /* \"#utility.yul\":2644:2984   */\n      swap3\n      swap2\n      pop\n      pop\n      jump\t// out\n        /* \"#utility.yul\":2990:3112   */\n    tag_46:\n        /* \"#utility.yul\":3063:3087   */\n      tag_104\n        /* \"#utility.yul\":3081:3086   */\n      dup2\n        /* \"#utility.yul\":3063:3087   */\n      tag_31\n      jump\t// in\n    tag_104:\n        /* \"#utility.yul\":3056:3061   */\n      dup2\n        /* \"#utility.yul\":3053:3088   */\n      eq\n        /* \"#utility.yul\":3043:3106   */\n      tag_105\n      jumpi\n        /* \"#utility.yul\":3102:3103   */\n      0x00\n        /* \"#utility.yul\":3099:3100   */\n      dup1\n        /* \"#utility.yul\":3092:3104   */\n      revert\n        /* \"#utility.yul\":3043:3106   */\n    tag_105:\n        /* \"#utility.yul\":2990:3112   */\n      pop\n      jump\t// out\n        /* \"#utility.yul\":3118:3257   */\n    tag_47:\n        /* \"#utility.yul\":3164:3169   */\n      0x00\n        /* \"#utility.yul\":3202:3208   */\n      dup2\n        /* \"#utility.yul\":3189:3209   */\n      calldataload\n        /* \"#utility.yul\":3180:3209   */\n      swap1\n      pop\n        /* \"#utility.yul\":3218:3251   */\n      tag_107\n        /* \"#utility.yul\":3245:3250   */\n      dup2\n        /* \"#utility.yul\":3218:3251   */\n      tag_46\n      jump\t// in\n    tag_107:\n        /* \"#utility.yul\":3118:3257   */\n      swap3\n      swap2\n      pop\n      pop\n      jump\t// out\n        /* \"#utility.yul\":3263:3917   */\n    tag_13:\n        /* \"#utility.yul\":3341:3347   */\n      0x00\n        /* \"#utility.yul\":3349:3355   */\n      dup1\n        /* \"#utility.yul\":3398:3400   */\n      0x40\n        /* \"#utility.yul\":3386:3395   */\n      dup4\n        /* \"#utility.yul\":3377:3384   */\n      dup6\n        /* \"#utility.yul\":3373:3396   */\n      sub\n        /* \"#utility.yul\":3369:3401   */\n      slt\n        /* \"#utility.yul\":3366:3485   */\n      iszero\n      tag_109\n      jumpi\n        /* \"#utility.yul\":3404:3483   */\n      tag_110\n      tag_34\n      jump\t// in\n    tag_110:\n        /* \"#utility.yul\":3366:3485   */\n    tag_109:\n        /* \"#utility.yul\":3552:3553   */\n      0x00\n        /* \"#utility.yul\":3541:3550   */\n      dup4\n        /* \"#utility.yul\":3537:3554   */\n      add\n        /* \"#utility.yul\":3524:3555   */\n      calldataload\n        /* \"#utility.yul\":3582:3600   */\n      0xffffffffffffffff\n        /* \"#utility.yul\":3574:3580   */\n      dup2\n        /* \"#utility.yul\":3571:3601   */\n      gt\n        /* \"#utility.yul\":3568:3685   */\n      iszero\n      tag_111\n      jumpi\n        /* \"#utility.yul\":3604:3683   */\n      tag_112\n      tag_35\n      jump\t// in\n    tag_112:\n        /* \"#utility.yul\":3568:3685   */\n    tag_111:\n        /* \"#utility.yul\":3709:3772   */\n      tag_113\n        /* \"#utility.yul\":3764:3771   */\n      dup6\n        /* \"#utility.yul\":3755:3761   */\n      dup3\n        /* \"#utility.yul\":3744:3753   */\n      dup7\n        /* \"#utility.yul\":3740:3762   */\n      add\n        /* \"#utility.yul\":3709:3772   */\n      tag_45\n      jump\t// in\n    tag_113:\n        /* \"#utility.yul\":3699:3772   */\n      swap3\n      pop\n        /* \"#utility.yul\":3495:3782   */\n      pop\n        /* \"#utility.yul\":3821:3823   */\n      0x20\n        /* \"#utility.yul\":3847:3900   */\n      tag_114\n        /* \"#utility.yul\":3892:3899   */\n      dup6\n        /* \"#utility.yul\":3883:3889   */\n      dup3\n        /* \"#utility.yul\":3872:3881   */\n      dup7\n        /* \"#utility.yul\":3868:3890   */\n      add\n        /* \"#utility.yul\":3847:3900   */\n      tag_47\n      jump\t// in\n    tag_114:\n        /* \"#utility.yul\":3837:3900   */\n      swap2\n      pop\n        /* \"#utility.yul\":3792:3910   */\n      pop\n        /* \"#utility.yul\":3263:3917   */\n      swap3\n      pop\n      swap3\n      swap1\n      pop\n      jump\t// out\n        /* \"#utility.yul\":3923:4022   */\n    tag_48:\n        /* \"#utility.yul\":3975:3981   */\n      0x00\n        /* \"#utility.yul\":4009:4014   */\n      dup2\n        /* \"#utility.yul\":4003:4015   */\n      mload\n        /* \"#utility.yul\":3993:4015   */\n      swap1\n      pop\n        /* \"#utility.yul\":3923:4022   */\n      swap2\n      swap1\n      pop\n      jump\t// out\n        /* \"#utility.yul\":4028:4197   */\n    tag_49:\n        /* \"#utility.yul\":4112:4123   */\n      0x00\n        /* \"#utility.yul\":4146:4152   */\n      dup3\n        /* \"#utility.yul\":4141:4144   */\n      dup3\n        /* \"#utility.yul\":4134:4153   */\n      mstore\n        /* \"#utility.yul\":4186:4190   */\n      0x20\n        /* \"#utility.yul\":4181:4184   */\n      dup3\n        /* \"#utility.yul\":4177:4191   */\n      add\n        /* \"#utility.yul\":4162:4191   */\n      swap1\n      pop\n        /* \"#utility.yul\":4028:4197   */\n      swap3\n      swap2\n      pop\n      pop\n      jump\t// out\n        /* \"#utility.yul\":4203:4342   */\n    tag_50:\n        /* \"#utility.yul\":4292:4298   */\n      dup3\n        /* \"#utility.yul\":4287:4290   */\n      dup2\n        /* \"#utility.yul\":4282:4285   */\n      dup4\n        /* \"#utility.yul\":4276:4299   */\n      mcopy\n        /* \"#utility.yul\":4333:4334   */\n      0x00\n        /* \"#utility.yul\":4324:4330   */\n      dup4\n        /* \"#utility.yul\":4319:4322   */\n      dup4\n        /* \"#utility.yul\":4315:4331   */\n      add\n        /* \"#utility.yul\":4308:4335   */\n      mstore\n        /* \"#utility.yul\":4203:4342   */\n      pop\n      pop\n      pop\n      jump\t// out\n        /* \"#utility.yul\":4348:4725   */\n    tag_51:\n        /* \"#utility.yul\":4436:4439   */\n      0x00\n        /* \"#utility.yul\":4464:4503   */\n      tag_119\n        /* \"#utility.yul\":4497:4502   */\n      dup3\n        /* \"#utility.yul\":4464:4503   */\n      tag_48\n      jump\t// in\n    tag_119:\n        /* \"#utility.yul\":4519:4590   */\n      tag_120\n        /* \"#utility.yul\":4583:4589   */\n      dup2\n        /* \"#utility.yul\":4578:4581   */\n      dup6\n        /* \"#utility.yul\":4519:4590   */\n      tag_49\n      jump\t// in\n    tag_120:\n        /* \"#utility.yul\":4512:4590   */\n      swap4\n      pop\n        /* \"#utility.yul\":4599:4664   */\n      tag_121\n        /* \"#utility.yul\":4657:4663   */\n      dup2\n        /* \"#utility.yul\":4652:4655   */\n      dup6\n        /* \"#utility.yul\":4645:4649   */\n      0x20\n        /* \"#utility.yul\":4638:4643   */\n      dup7\n        /* \"#utility.yul\":4634:4650   */\n      add\n        /* \"#utility.yul\":4599:4664   */\n      tag_50\n      jump\t// in\n    tag_121:\n        /* \"#utility.yul\":4689:4718   */\n      tag_122\n        /* \"#utility.yul\":4711:4717   */\n      dup2\n        /* \"#utility.yul\":4689:4718   */\n      tag_38\n      jump\t// in\n    tag_122:\n        /* \"#utility.yul\":4684:4687   */\n      dup5\n        /* \"#utility.yul\":4680:4719   */\n      add\n        /* \"#utility.yul\":4673:4719   */\n      swap2\n      pop\n        /* \"#utility.yul\":4440:4725   */\n      pop\n        /* \"#utility.yul\":4348:4725   */\n      swap3\n      swap2\n      pop\n      pop\n      jump\t// out\n        /* \"#utility.yul\":4731:5044   */\n    tag_21:\n        /* \"#utility.yul\":4844:4848   */\n      0x00\n        /* \"#utility.yul\":4882:4884   */\n      0x20\n        /* \"#utility.yul\":4871:4880   */\n      dup3\n        /* \"#utility.yul\":4867:4885   */\n      add\n        /* \"#utility.yul\":4859:4885   */\n      swap1\n      pop\n        /* \"#utility.yul\":4931:4940   */\n      dup2\n        /* \"#utility.yul\":4925:4929   */\n      dup2\n        /* \"#utility.yul\":4921:4941   */\n      sub\n        /* \"#utility.yul\":4917:4918   */\n      0x00\n        /* \"#utility.yul\":4906:4915   */\n      dup4\n        /* \"#utility.yul\":4902:4919   */\n      add\n        /* \"#utility.yul\":4895:4942   */\n      mstore\n        /* \"#utility.yul\":4959:5037   */\n      tag_124\n        /* \"#utility.yul\":5032:5036   */\n      dup2\n        /* \"#utility.yul\":5023:5029   */\n      dup5\n        /* \"#utility.yul\":4959:5037   */\n      tag_51\n      jump\t// in\n    tag_124:\n        /* \"#utility.yul\":4951:5037   */\n      swap1\n      pop\n        /* \"#utility.yul\":4731:5044   */\n      swap3\n      swap2\n      pop\n      pop\n      jump\t// out\n        /* \"#utility.yul\":5050:5230   */\n    tag_52:\n        /* \"#utility.yul\":5098:5175   */\n      0x4e487b7100000000000000000000000000000000000000000000000000000000\n        /* \"#utility.yul\":5095:5096   */\n      0x00\n        /* \"#utility.yul\":5088:5176   */\n      mstore\n        /* \"#utility.yul\":5195:5199   */\n      0x22\n        /* \"#utility.yul\":5192:5193   */\n      0x04\n        /* \"#utility.yul\":5185:5200   */\n      mstore\n        /* \"#utility.yul\":5219:5223   */\n      0x24\n        /* \"#utility.yul\":5216:5217   */\n      0x00\n        /* \"#utility.yul\":5209:5224   */\n      revert\n        /* \"#utility.yul\":5236:5556   */\n    tag_26:\n        /* \"#utility.yul\":5280:5286   */\n      0x00\n        /* \"#utility.yul\":5317:5318   */\n      0x02\n        /* \"#utility.yul\":5311:5315   */\n      dup3\n        /* \"#utility.yul\":5307:5319   */\n      div\n        /* \"#utility.yul\":5297:5319   */\n      swap1\n      pop\n        /* \"#utility.yul\":5364:5365   */\n      0x01\n        /* \"#utility.yul\":5358:5362   */\n      dup3\n        /* \"#utility.yul\":5354:5366   */\n      and\n        /* \"#utility.yul\":5385:5403   */\n      dup1\n        /* \"#utility.yul\":5375:5456   */\n      tag_127\n      jumpi\n        /* \"#utility.yul\":5441:5445   */\n      0x7f\n        /* \"#utility.yul\":5433:5439   */\n      dup3\n        /* \"#utility.yul\":5429:5446   */\n      and\n        /* \"#utility.yul\":5419:5446   */\n      swap2\n      pop\n        /* \"#utility.yul\":5375:5456   */\n    tag_127:\n        /* \"#utility.yul\":5503:5505   */\n      0x20\n        /* \"#utility.yul\":5495:5501   */\n      dup3\n        /* \"#utility.yul\":5492:5506   */\n      lt\n        /* \"#utility.yul\":5472:5490   */\n      dup2\n        /* \"#utility.yul\":5469:5507   */\n      sub\n        /* \"#utility.yul\":5466:5550   */\n      tag_128\n      jumpi\n        /* \"#utility.yul\":5522:5540   */\n      tag_129\n      tag_52\n      jump\t// in\n    tag_129:\n        /* \"#utility.yul\":5466:5550   */\n    tag_128:\n        /* \"#utility.yul\":5287:5556   */\n      pop\n        /* \"#utility.yul\":5236:5556   */\n      swap2\n      swap1\n      pop\n      jump\t// out\n        /* \"#utility.yul\":5562:5703   */\n    tag_53:\n        /* \"#utility.yul\":5611:5615   */\n      0x00\n        /* \"#utility.yul\":5634:5637   */\n      dup2\n        /* \"#utility.yul\":5626:5637   */\n      swap1\n      pop\n        /* \"#utility.yul\":5657:5660   */\n      dup2\n        /* \"#utility.yul\":5654:5655   */\n      0x00\n        /* \"#utility.yul\":5647:5661   */\n      mstore\n        /* \"#utility.yul\":5691:5695   */\n      0x20\n        /* \"#utility.yul\":5688:5689   */\n      0x00\n        /* \"#utility.yul\":5678:5696   */\n      keccak256\n        /* \"#utility.yul\":5670:5696   */\n      swap1\n      pop\n        /* \"#utility.yul\":5562:5703   */\n      swap2\n      swap1\n      pop\n      jump\t// out\n        /* \"#utility.yul\":5709:5802   */\n    tag_54:\n        /* \"#utility.yul\":5746:5752   */\n      0x00\n        /* \"#utility.yul\":5793:5795   */\n      0x20\n        /* \"#utility.yul\":5788:5790   */\n      0x1f\n        /* \"#utility.yul\":5781:5786   */\n      dup4\n        /* \"#utility.yul\":5777:5791   */\n      add\n        /* \"#utility.yul\":5773:5796   */\n      div\n        /* \"#utility.yul\":5763:5796   */\n      swap1\n      pop\n        /* \"#utility.yul\":5709:5802   */\n      swap2\n      swap1\n      pop\n      jump\t// out\n        /* \"#utility.yul\":5808:5915   */\n    tag_55:\n        /* \"#utility.yul\":5852:5860   */\n      0x00\n        /* \"#utility.yul\":5902:5907   */\n      dup3\n        /* \"#utility.yul\":5896:5900   */\n      dup3\n        /* \"#utility.yul\":5892:5908   */\n      shl\n        /* \"#utility.yul\":5871:5908   */\n      swap1\n      pop\n        /* \"#utility.yul\":5808:5915   */\n      swap3\n      swap2\n      pop\n      pop\n      jump\t// out\n        /* \"#utility.yul\":5921:6314   */\n    tag_56:\n        /* \"#utility.yul\":5990:5996   */\n      0x00\n        /* \"#utility.yul\":6040:6041   */\n      0x08\n        /* \"#utility.yul\":6028:6038   */\n      dup4\n        /* \"#utility.yul\":6024:6042   */\n      mul\n        /* \"#utility.yul\":6063:6160   */\n      tag_134\n        /* \"#utility.yul\":6093:6159   */\n      0xffffffffffffffffffffffffffffffffffffffffffffffffffffffffffffffff\n        /* \"#utility.yul\":6082:6091   */\n      dup3\n        /* \"#utility.yul\":6063:6160   */\n      tag_55\n      jump\t// in\n    tag_134:\n        /* \"#utility.yul\":6181:6220   */\n      tag_135\n        /* \"#utility.yul\":6211:6219   */\n      dup7\n        /* \"#utility.yul\":6200:6209   */\n      dup4\n        /* \"#utility.yul\":6181:6220   */\n      tag_55\n      jump\t// in\n    tag_135:\n        /* \"#utility.yul\":6169:6220   */\n      swap6\n      pop\n        /* \"#utility.yul\":6253:6257   */\n      dup1\n        /* \"#utility.yul\":6249:6258   */\n      not\n        /* \"#utility.yul\":6242:6247   */\n      dup5\n        /* \"#utility.yul\":6238:6259   */\n      and\n        /* \"#utility.yul\":6229:6259   */\n      swap4\n      pop\n        /* \"#utility.yul\":6302:6306   */\n      dup1\n        /* \"#utility.yul\":6292:6300   */\n      dup7\n        /* \"#utility.yul\":6288:6307   */\n      and\n        /* \"#utility.yul\":6281:6286   */\n      dup5\n        /* \"#utility.yul\":6278:6308   */\n      or\n        /* \"#utility.yul\":6268:6308   */\n      swap3\n      pop\n        /* \"#utility.yul\":5997:6314   */\n      pop\n      pop\n        /* \"#utility.yul\":5921:6314   */\n      swap4\n      swap3\n      pop\n      pop\n      pop\n      jump\t// out\n        /* \"#utility.yul\":6320:6380   */\n    tag_57:\n        /* \"#utility.yul\":6348:6351   */\n      0x00\n        /* \"#utility.yul\":6369:6374   */\n      dup2\n        /* \"#utility.yul\":6362:6374   */\n      swap1\n      pop\n        /* \"#utility.yul\":6320:6380   */\n      swap2\n      swap1\n      pop\n      jump\t// out\n        /* \"#utility.yul\":6386:6528   */\n    tag_58:\n        /* \"#utility.yul\":6436:6445   */\n      0x00\n        /* \"#utility.yul\":6469:6522   */\n      tag_138\n        /* \"#utility.yul\":6487:6521   */\n      tag_139\n        /* \"#utility.yul\":6496:6520   */\n      tag_140\n        /* \"#utility.yul\":6514:6519   */\n      dup5\n        /* \"#utility.yul\":6496:6520   */\n      tag_31\n      jump\t// in\n    tag_140:\n        /* \"#utility.yul\":6487:6521   */\n      tag_57\n      jump\t// in\n    tag_139:\n        /* \"#utility.yul\":6469:6522   */\n      tag_31\n      jump\t// in\n    tag_138:\n        /* \"#utility.yul\":6456:6522   */\n      swap1\n      pop\n        /* \"#utility.yul\":6386:6528   */\n      swap2\n      swap1\n      pop\n      jump\t// out\n        /* \"#utility.yul\":6534:6609   */\n    tag_59:\n        /* \"#utility.yul\":6577:6580   */\n      0x00\n        /* \"#utility.yul\":6598:6603   */\n      dup2\n        /* \"#utility.yul\":6591:6603   */\n      swap1\n      pop\n        /* \"#utility.yul\":6534:6609   */\n      swap2\n      swap1\n      pop\n      jump\t// out\n        /* \"#utility.yul\":6615:6884   */\n    tag_60:\n        /* \"#utility.yul\":6725:6764   */\n      tag_143\n        /* \"#utility.yul\":6756:6763   */\n      dup4\n        /* \"#utility.yul\":6725:6764   */\n      tag_58\n      jump\t// in\n    tag_143:\n        /* \"#utility.yul\":6786:6877   */\n      tag_144\n        /* \"#utility.yul\":6835:6876   */\n      tag_145\n        /* \"#utility.yul\":6859:6875   */\n      dup3\n        /* \"#utility.yul\":6835:6876   */\n      tag_59\n      jump\t// in\n    tag_145:\n        /* \"#utility.yul\":6827:6833   */\n      dup5\n        /* \"#utility.yul\":6820:6824   */\n      dup5\n        /* \"#utility.yul\":6814:6825   */\n      sload\n        /* \"#utility.yul\":6786:6877   */\n      tag_56\n      jump\t// in\n    tag_144:\n        /* \"#utility.yul\":6780:6784   */\n      dup3\n        /* \"#utility.yul\":6773:6878   */\n      sstore\n        /* \"#utility.yul\":6691:6884   */\n      pop\n        /* \"#utility.yul\":6615:6884   */\n      pop\n      pop\n      pop\n      jump\t// out\n        /* \"#utility.yul\":6890:6963   */\n    tag_61:\n        /* \"#utility.yul\":6935:6938   */\n      0x00\n        /* \"#utility.yul\":6890:6963   */\n      swap1\n      jump\t// out\n        /* \"#utility.yul\":6969:7158   */\n    tag_62:\n        /* \"#utility.yul\":7046:7078   */\n      tag_148\n      tag_61\n      jump\t// in\n    tag_148:\n        /* \"#utility.yul\":7087:7152   */\n      tag_149\n        /* \"#utility.yul\":7145:7151   */\n      dup2\n        /* \"#utility.yul\":7137:7143   */\n      dup5\n        /* \"#utility.yul\":7131:7135   */\n      dup5\n        /* \"#utility.yul\":7087:7152   */\n      tag_60\n      jump\t// in\n    tag_149:\n        /* \"#utility.yul\":7022:7158   */\n      pop\n        /* \"#utility.yul\":6969:7158   */\n      pop\n      pop\n      jump\t// out\n        /* \"#utility.yul\":7164:7350   */\n    tag_63:\n        /* \"#utility.yul\":7224:7344   */\n    tag_151:\n        /* \"#utility.yul\":7241:7244   */\n      dup2\n        /* \"#utility.yul\":7234:7239   */\n      dup2\n        /* \"#utility.yul\":7231:7245   */\n      lt\n        /* \"#utility.yul\":7224:7344   */\n      iszero\n      tag_153\n      jumpi\n        /* \"#utility.yul\":7295:7334   */\n      tag_154\n        /* \"#utility.yul\":7332:7333   */\n      0x00\n        /* \"#utility.yul\":7325:7330   */\n      dup3\n        /* \"#utility.yul\":7295:7334   */\n      tag_62\n      jump\t// in\n    tag_154:\n        /* \"#utility.yul\":7268:7269   */\n      0x01\n        /* \"#utility.yul\":7261:7266   */\n      dup2\n        /* \"#utility.yul\":7257:7270   */\n      add\n        /* \"#utility.yul\":7248:7270   */\n      swap1\n      pop\n        /* \"#utility.yul\":7224:7344   */\n      jump(tag_151)\n    tag_153:\n        /* \"#utility.yul\":7164:7350   */\n      pop\n      pop\n      jump\t// out\n        /* \"#utility.yul\":7356:7899   */\n    tag_64:\n        /* \"#utility.yul\":7457:7459   */\n      0x1f\n        /* \"#utility.yul\":7452:7455   */\n      dup3\n        /* \"#utility.yul\":7449:7460   */\n      gt\n        /* \"#utility.yul\":7446:7892   */\n      iszero\n      tag_156\n      jumpi\n        /* \"#utility.yul\":7491:7529   */\n      tag_157\n        /* \"#utility.yul\":7523:7528   */\n      dup2\n        /* \"#utility.yul\":7491:7529   */\n      tag_53\n      jump\t// in\n    tag_157:\n        /* \"#utility.yul\":7575:7604   */\n      tag_158\n        /* \"#utility.yul\":7593:7603   */\n      dup5\n        /* \"#utility.yul\":7575:7604   */\n      tag_54\n      jump\t// in\n    tag_158:\n        /* \"#utility.yul\":7565:7573   */\n      dup2\n        /* \"#utility.yul\":7561:7605   */\n      add\n        /* \"#utility.yul\":7758:7760   */\n      0x20\n        /* \"#utility.yul\":7746:7756   */\n      dup6\n        /* \"#utility.yul\":7743:7761   */\n      lt\n        /* \"#utility.yul\":7740:7789   */\n      iszero\n      tag_159\n      jumpi\n        /* \"#utility.yul\":7779:7787   */\n      dup2\n        /* \"#utility.yul\":7764:7787   */\n      swap1\n      pop\n        /* \"#utility.yul\":7740:7789   */\n    tag_159:\n        /* \"#utility.yul\":7802:7882   */\n      tag_160\n        /* \"#utility.yul\":7858:7880   */\n      tag_161\n        /* \"#utility.yul\":7876:7879   */\n      dup6\n        /* \"#utility.yul\":7858:7880   */\n      tag_54\n      jump\t// in\n    tag_161:\n        /* \"#utility.yul\":7848:7856   */\n      dup4\n        /* \"#utility.yul\":7844:7881   */\n      add\n        /* \"#utility.yul\":7831:7842   */\n      dup3\n        /* \"#utility.yul\":7802:7882   */\n      tag_63\n      jump\t// in\n    tag_160:\n        /* \"#utility.yul\":7461:7892   */\n      pop\n      pop\n        /* \"#utility.yul\":7446:7892   */\n    tag_156:\n        /* \"#utility.yul\":7356:7899   */\n      pop\n      pop\n      pop\n      jump\t// out\n        /* \"#utility.yul\":7905:8022   */\n    tag_65:\n        /* \"#utility.yul\":7959:7967   */\n      0x00\n        /* \"#utility.yul\":8009:8014   */\n      dup3\n        /* \"#utility.yul\":8003:8007   */\n      dup3\n        /* \"#utility.yul\":7999:8015   */\n      shr\n        /* \"#utility.yul\":7978:8015   */\n      swap1\n      pop\n        /* \"#utility.yul\":7905:8022   */\n      swap3\n      swap2\n      pop\n      pop\n      jump\t// out\n        /* \"#utility.yul\":8028:8197   */\n    tag_66:\n        /* \"#utility.yul\":8072:8078   */\n      0x00\n        /* \"#utility.yul\":8105:8156   */\n      tag_164\n        /* \"#utility.yul\":8153:8154   */\n      0x00\n        /* \"#utility.yul\":8149:8155   */\n      not\n        /* \"#utility.yul\":8141:8146   */\n      dup5\n        /* \"#utility.yul\":8138:8139   */\n      0x08\n        /* \"#utility.yul\":8134:8147   */\n      mul\n        /* \"#utility.yul\":8105:8156   */\n      tag_65\n      jump\t// in\n    tag_164:\n        /* \"#utility.yul\":8101:8157   */\n      not\n        /* \"#utility.yul\":8186:8190   */\n      dup1\n        /* \"#utility.yul\":8180:8184   */\n      dup4\n        /* \"#utility.yul\":8176:8191   */\n      and\n        /* \"#utility.yul\":8166:8191   */\n      swap2\n      pop\n        /* \"#utility.yul\":8079:8197   */\n      pop\n        /* \"#utility.yul\":8028:8197   */\n      swap3\n      swap2\n      pop\n      pop\n      jump\t// out\n        /* \"#utility.yul\":8202:8497   */\n    tag_67:\n        /* \"#utility.yul\":8278:8282   */\n      0x00\n        /* \"#utility.yul\":8424:8453   */\n      tag_166\n        /* \"#utility.yul\":8449:8452   */\n      dup4\n        /* \"#utility.yul\":8443:8447   */\n      dup4\n        /* \"#utility.yul\":8424:8453   */\n      tag_66\n      jump\t// in\n    tag_166:\n        /* \"#utility.yul\":8416:8453   */\n      swap2\n      pop\n        /* \"#utility.yul\":8486:8489   */\n      dup3\n        /* \"#utility.yul\":8483:8484   */\n      0x02\n        /* \"#utility.yul\":8479:8490   */\n      mul\n        /* \"#utility.yul\":8473:8477   */\n      dup3\n        /* \"#utility.yul\":8470:8491   */\n      or\n        /* \"#utility.yul\":8462:8491   */\n      swap1\n      pop\n        /* \"#utility.yul\":8202:8497   */\n      swap3\n      swap2\n      pop\n      pop\n      jump\t// out\n        /* \"#utility.yul\":8502:9897   */\n    tag_24:\n        /* \"#utility.yul\":8619:8656   */\n      tag_168\n        /* \"#utility.yul\":8652:8655   */\n      dup3\n        /* \"#utility.yul\":8619:8656   */\n      tag_48\n      jump\t// in\n    tag_168:\n        /* \"#utility.yul\":8721:8739   */\n      0xffffffffffffffff\n        /* \"#utility.yul\":8713:8719   */\n      dup2\n        /* \"#utility.yul\":8710:8740   */\n      gt\n        /* \"#utility.yul\":8707:8763   */\n      iszero\n      tag_169\n      jumpi\n        /* \"#utility.yul\":8743:8761   */\n      tag_170\n      tag_39\n      jump\t// in\n    tag_170:\n        /* \"#utility.yul\":8707:8763   */\n    tag_169:\n        /* \"#utility.yul\":8787:8825   */\n      tag_171\n        /* \"#utility.yul\":8819:8823   */\n      dup3\n        /* \"#utility.yul\":8813:8824   */\n      sload\n        /* \"#utility.yul\":8787:8825   */\n      tag_26\n      jump\t// in\n    tag_171:\n        /* \"#utility.yul\":8872:8939   */\n      tag_172\n        /* \"#utility.yul\":8932:8938   */\n      dup3\n        /* \"#utility.yul\":8924:8930   */\n      dup3\n        /* \"#utility.yul\":8918:8922   */\n      dup6\n        /* \"#utility.yul\":8872:8939   */\n      tag_64\n      jump\t// in\n    tag_172:\n        /* \"#utility.yul\":8966:8967   */\n      0x00\n        /* \"#utility.yul\":8990:8994   */\n      0x20\n        /* \"#utility.yul\":8977:8994   */\n      swap1\n      pop\n        /* \"#utility.yul\":9022:9024   */\n      0x1f\n        /* \"#utility.yul\":9014:9020   */\n      dup4\n        /* \"#utility.yul\":9011:9025   */\n      gt\n        /* \"#utility.yul\":9039:9040   */\n      0x01\n        /* \"#utility.yul\":9034:9652   */\n      dup2\n      eq\n      tag_174\n      jumpi\n        /* \"#utility.yul\":9696:9697   */\n      0x00\n        /* \"#utility.yul\":9713:9719   */\n      dup5\n        /* \"#utility.yul\":9710:9787   */\n      iszero\n      tag_175\n      jumpi\n        /* \"#utility.yul\":9762:9771   */\n      dup3\n        /* \"#utility.yul\":9757:9760   */\n      dup8\n        /* \"#utility.yul\":9753:9772   */\n      add\n        /* \"#utility.yul\":9747:9773   */\n      mload\n        /* \"#utility.yul\":9738:9773   */\n      swap1\n      pop\n        /* \"#utility.yul\":9710:9787   */\n    tag_175:\n        /* \"#utility.yul\":9813:9880   */\n      tag_176\n        /* \"#utility.yul\":9873:9879   */\n      dup6\n        /* \"#utility.yul\":9866:9871   */\n      dup3\n        /* \"#utility.yul\":9813:9880   */\n      tag_67\n      jump\t// in\n    tag_176:\n        /* \"#utility.yul\":9807:9811   */\n      dup7\n        /* \"#utility.yul\":9800:9881   */\n      sstore\n        /* \"#utility.yul\":9669:9891   */\n      pop\n        /* \"#utility.yul\":9004:9891   */\n      jump(tag_173)\n        /* \"#utility.yul\":9034:9652   */\n    tag_174:\n        /* \"#utility.yul\":9086:9090   */\n      0x1f\n        /* \"#utility.yul\":9082:9091   */\n      not\n        /* \"#utility.yul\":9074:9080   */\n      dup5\n        /* \"#utility.yul\":9070:9092   */\n      and\n        /* \"#utility.yul\":9120:9157   */\n      tag_177\n        /* \"#utility.yul\":9152:9156   */\n      dup7\n        /* \"#utility.yul\":9120:9157   */\n      tag_53\n      jump\t// in\n    tag_177:\n        /* \"#utility.yul\":9179:9180   */\n      0x00\n        /* \"#utility.yul\":9193:9401   */\n    tag_178:\n        /* \"#utility.yul\":9207:9214   */\n      dup3\n        /* \"#utility.yul\":9204:9205   */\n      dup2\n        /* \"#utility.yul\":9201:9215   */\n      lt\n        /* \"#utility.yul\":9193:9401   */\n      iszero\n      tag_180\n      jumpi\n        /* \"#utility.yul\":9286:9295   */\n      dup5\n        /* \"#utility.yul\":9281:9284   */\n      dup10\n        /* \"#utility.yul\":9277:9296   */\n      add\n        /* \"#utility.yul\":9271:9297   */\n      mload\n        /* \"#utility.yul\":9263:9269   */\n      dup3\n        /* \"#utility.yul\":9256:9298   */\n      sstore\n        /* \"#utility.yul\":9337:9338   */\n      0x01\n        /* \"#utility.yul\":9329:9335   */\n      dup3\n        /* \"#utility.yul\":9325:9339   */\n      add\n        /* \"#utility.yul\":9315:9339   */\n      swap2\n      pop\n        /* \"#utility.yul\":9384:9386   */\n      0x20\n        /* \"#utility.yul\":9373:9382   */\n      dup6\n        /* \"#utility.yul\":9369:9387   */\n      add\n        /* \"#utility.yul\":9356:9387   */\n      swap5\n      pop\n        /* \"#utility.yul\":9230:9234   */\n      0x20\n        /* \"#utility.yul\":9227:9228   */\n      dup2\n        /* \"#utility.yul\":9223:9235   */\n      add\n        /* \"#utility.yul\":9218:9235   */\n      swap1\n      pop\n        /* \"#utility.yul\":9193:9401   */\n      jump(tag_178)\n    tag_180:\n        /* \"#utility.yul\":9429:9435   */\n      dup7\n        /* \"#utility.yul\":9420:9427   */\n      dup4\n        /* \"#utility.yul\":9417:9436   */\n      lt\n        /* \"#utility.yul\":9414:9593   */\n      iszero\n      tag_181\n      jumpi\n        /* \"#utility.yul\":9487:9496   */\n      dup5\n        /* \"#utility.yul\":9482:9485   */\n      dup10\n        /* \"#utility.yul\":9478:9497   */\n      add\n        /* \"#utility.yul\":9472:9498   */\n      mload\n        /* \"#utility.yul\":9530:9578   */\n      tag_182\n        /* \"#utility.yul\":9572:9576   */\n      0x1f\n        /* \"#utility.yul\":9564:9570   */\n      dup10\n        /* \"#utility.yul\":9560:9577   */\n      and\n        /* \"#utility.yul\":9549:9558   */\n      dup3\n        /* \"#utility.yul\":9530:9578   */\n      tag_66\n      jump\t// in\n    tag_182:\n        /* \"#utility.yul\":9522:9528   */\n      dup4\n        /* \"#utility.yul\":9515:9579   */\n      sstore\n        /* \"#utility.yul\":9437:9593   */\n      pop\n        /* \"#utility.yul\":9414:9593   */\n    tag_181:\n        /* \"#utility.yul\":9639:9640   */\n      0x01\n        /* \"#utility.yul\":9635:9636   */\n      0x02\n        /* \"#utility.yul\":9627:9633   */\n      dup9\n        /* \"#utility.yul\":9623:9637   */\n      mul\n        /* \"#utility.yul\":9619:9641   */\n      add\n        /* \"#utility.yul\":9613:9617   */\n      dup9\n        /* \"#utility.yul\":9606:9642   */\n      sstore\n        /* \"#utility.yul\":9041:9652   */\n      pop\n      pop\n      pop\n        /* \"#utility.yul\":9004:9891   */\n    tag_173:\n      pop\n        /* \"#utility.yul\":8594:9897   */\n      pop\n      pop\n      pop\n        /* \"#utility.yul\":8502:9897   */\n      pop\n      pop\n      jump\t// out\n\n    auxdata: 0xa2646970667358221220cf07bb22f1c41bd0d7bb2dbc47ef92f75b188fbe33b5f18bf385183fa5a8dc1364736f6c634300081a0033\n}\n",
				"bytecode": {
					"linkReferences": {},
					"object": "6080604052348015600e575f80fd5b506106f68061001c5f395ff3fe608060405234801561000f575f80fd5b506004361061004a575f3560e01c806315d4266c1461004e57806324ccab8f1461006c5780634e70b1dc14610088578063e21f37ce146100a6575b5f80fd5b6100566100c4565b604051610063919061018d565b60405180910390f35b6100866004803603810190610081919061031d565b6100ca565b005b6100906100e4565b60405161009d919061018d565b60405180910390f35b6100ae6100ea565b6040516100bb91906103d7565b60405180910390f35b60025481565b815f90816100d891906105f1565b50806001819055505050565b60015481565b5f80546100f690610424565b80601f016020809104026020016040519081016040528092919081815260200182805461012290610424565b801561016d5780601f106101445761010080835404028352916020019161016d565b820191905f5260205f20905b81548152906001019060200180831161015057829003601f168201915b505050505081565b5f819050919050565b61018781610175565b82525050565b5f6020820190506101a05f83018461017e565b92915050565b5f604051905090565b5f80fd5b5f80fd5b5f80fd5b5f80fd5b5f601f19601f8301169050919050565b7f4e487b71000000000000000000000000000000000000000000000000000000005f52604160045260245ffd5b610205826101bf565b810181811067ffffffffffffffff82111715610224576102236101cf565b5b80604052505050565b5f6102366101a6565b905061024282826101fc565b919050565b5f67ffffffffffffffff821115610261576102606101cf565b5b61026a826101bf565b9050602081019050919050565b828183375f83830152505050565b5f61029761029284610247565b61022d565b9050828152602081018484840111156102b3576102b26101bb565b5b6102be848285610277565b509392505050565b5f82601f8301126102da576102d96101b7565b5b81356102ea848260208601610285565b91505092915050565b6102fc81610175565b8114610306575f80fd5b50565b5f81359050610317816102f3565b92915050565b5f8060408385031215610333576103326101af565b5b5f83013567ffffffffffffffff8111156103505761034f6101b3565b5b61035c858286016102c6565b925050602061036d85828601610309565b9150509250929050565b5f81519050919050565b5f82825260208201905092915050565b8281835e5f83830152505050565b5f6103a982610377565b6103b38185610381565b93506103c3818560208601610391565b6103cc816101bf565b840191505092915050565b5f6020820190508181035f8301526103ef818461039f565b905092915050565b7f4e487b71000000000000000000000000000000000000000000000000000000005f52602260045260245ffd5b5f600282049050600182168061043b57607f821691505b60208210810361044e5761044d6103f7565b5b50919050565b5f819050815f5260205f209050919050565b5f6020601f8301049050919050565b5f82821b905092915050565b5f600883026104b07fffffffffffffffffffffffffffffffffffffffffffffffffffffffffffffffff82610475565b6104ba8683610475565b95508019841693508086168417925050509392505050565b5f819050919050565b5f6104f56104f06104eb84610175565b6104d2565b610175565b9050919050565b5f819050919050565b61050e836104db565b61052261051a826104fc565b848454610481565b825550505050565b5f90565b61053661052a565b610541818484610505565b505050565b5b81811015610564576105595f8261052e565b600181019050610547565b5050565b601f8211156105a95761057a81610454565b61058384610466565b81016020851015610592578190505b6105a661059e85610466565b830182610546565b50505b505050565b5f82821c905092915050565b5f6105c95f19846008026105ae565b1980831691505092915050565b5f6105e183836105ba565b9150826002028217905092915050565b6105fa82610377565b67ffffffffffffffff811115610613576106126101cf565b5b61061d8254610424565b610628828285610568565b5f60209050601f831160018114610659575f8415610647578287015190505b61065185826105d6565b8655506106b8565b601f19841661066786610454565b5f5b8281101561068e57848901518255600182019150602085019450602081019050610669565b868310156106ab57848901516106a7601f8916826105ba565b8355505b6001600288020188555050505b50505050505056fea2646970667358221220cf07bb22f1c41bd0d7bb2dbc47ef92f75b188fbe33b5f18bf385183fa5a8dc1364736f6c634300081a0033",
					"opcodes": "PUSH1 0x80 PUSH1 0x40 MSTORE CALLVALUE DUP1 ISZERO PUSH1 0xE JUMPI PUSH0 DUP1 REVERT JUMPDEST POP PUSH2 0x6F6 DUP1 PUSH2 0x1C PUSH0 CODECOPY PUSH0 RETURN INVALID PUSH1 0x80 PUSH1 0x40 MSTORE CALLVALUE DUP1 ISZERO PUSH2 0xF JUMPI PUSH0 DUP1 REVERT JUMPDEST POP PUSH1 0x4 CALLDATASIZE LT PUSH2 0x4A JUMPI PUSH0 CALLDATALOAD PUSH1 0xE0 SHR DUP1 PUSH4 0x15D4266C EQ PUSH2 0x4E JUMPI DUP1 PUSH4 0x24CCAB8F EQ PUSH2 0x6C JUMPI DUP1 PUSH4 0x4E70B1DC EQ PUSH2 0x88 JUMPI DUP1 PUSH4 0xE21F37CE EQ PUSH2 0xA6 JUMPI JUMPDEST PUSH0 DUP1 REVERT JUMPDEST PUSH2 0x56 PUSH2 0xC4 JUMP JUMPDEST PUSH1 0x40 MLOAD PUSH2 0x63 SWAP2 SWAP1 PUSH2 0x18D JUMP JUMPDEST PUSH1 0x40 MLOAD DUP1 SWAP2 SUB SWAP1 RETURN JUMPDEST PUSH2 0x86 PUSH1 0x4 DUP1 CALLDATASIZE SUB DUP2 ADD SWAP1 PUSH2 0x81 SWAP2 SWAP1 PUSH2 0x31D JUMP JUMPDEST PUSH2 0xCA JUMP JUMPDEST STOP JUMPDEST PUSH2 0x90 PUSH2 0xE4 JUMP JUMPDEST PUSH1 0x40 MLOAD PUSH2 0x9D SWAP2 SWAP1 PUSH2 0x18D JUMP JUMPDEST PUSH1 0x40 MLOAD DUP1 SWAP2 SUB SWAP1 RETURN JUMPDEST PUSH2 0xAE PUSH2 0xEA JUMP JUMPDEST PUSH1 0x40 MLOAD PUSH2 0xBB SWAP2 SWAP1 PUSH2 0x3D7 JUMP JUMPDEST PUSH1 0x40 MLOAD DUP1 SWAP2 SUB SWAP1 RETURN JUMPDEST PUSH1 0x2 SLOAD DUP2 JUMP JUMPDEST DUP2 PUSH0 SWAP1 DUP2 PUSH2 0xD8 SWAP2 SWAP1 PUSH2 0x5F1 JUMP JUMPDEST POP DUP1 PUSH1 0x1 DUP2 SWAP1 SSTORE POP POP POP JUMP JUMPDEST PUSH1 0x1 SLOAD DUP2 JUMP JUMPDEST PUSH0 DUP1 SLOAD PUSH2 0xF6 SWAP1 PUSH2 0x424 JUMP JUMPDEST DUP1 PUSH1 0x1F ADD PUSH1 0x20 DUP1 SWAP2 DIV MUL PUSH1 0x20 ADD PUSH1 0x40 MLOAD SWAP1 DUP2 ADD PUSH1 0x40 MSTORE DUP1 SWAP3 SWAP2 SWAP1 DUP2 DUP2 MSTORE PUSH1 0x20 ADD DUP3 DUP1 SLOAD PUSH2 0x122 SWAP1 PUSH2 0x424 JUMP JUMPDEST DUP1 ISZERO PUSH2 0x16D JUMPI DUP1 PUSH1 0x1F LT PUSH2 0x144 JUMPI PUSH2 0x100 DUP1 DUP4 SLOAD DIV MUL DUP4 MSTORE SWAP2 PUSH1 0x20 ADD SWAP2 PUSH2 0x16D JUMP JUMPDEST DUP3 ADD SWAP2 SWAP1 PUSH0 MSTORE PUSH1 0x20 PUSH0 KECCAK256 SWAP1 JUMPDEST DUP2 SLOAD DUP2 MSTORE SWAP1 PUSH1 0x1 ADD SWAP1 PUSH1 0x20 ADD DUP1 DUP4 GT PUSH2 0x150 JUMPI DUP3 SWAP1 SUB PUSH1 0x1F AND DUP3 ADD SWAP2 JUMPDEST POP POP POP POP POP DUP2 JUMP JUMPDEST PUSH0 DUP2 SWAP1 POP SWAP2 SWAP1 POP JUMP JUMPDEST PUSH2 0x187 DUP2 PUSH2 0x175 JUMP JUMPDEST DUP3 MSTORE POP POP JUMP JUMPDEST PUSH0 PUSH1 0x20 DUP3 ADD SWAP1 POP PUSH2 0x1A0 PUSH0 DUP4 ADD DUP5 PUSH2 0x17E JUMP JUMPDEST SWAP3 SWAP2 POP POP JUMP JUMPDEST PUSH0 PUSH1 0x40 MLOAD SWAP1 POP SWAP1 JUMP JUMPDEST PUSH0 DUP1 REVERT JUMPDEST PUSH0 DUP1 REVERT JUMPDEST PUSH0 DUP1 REVERT JUMPDEST PUSH0 DUP1 REVERT JUMPDEST PUSH0 PUSH1 0x1F NOT PUSH1 0x1F DUP4 ADD AND SWAP1 POP SWAP2 SWAP1 POP JUMP JUMPDEST PUSH32 0x4E487B7100000000000000000000000000000000000000000000000000000000 PUSH0 MSTORE PUSH1 0x41 PUSH1 0x4 MSTORE PUSH1 0x24 PUSH0 REVERT JUMPDEST PUSH2 0x205 DUP3 PUSH2 0x1BF JUMP JUMPDEST DUP2 ADD DUP2 DUP2 LT PUSH8 0xFFFFFFFFFFFFFFFF DUP3 GT OR ISZERO PUSH2 0x224 JUMPI PUSH2 0x223 PUSH2 0x1CF JUMP JUMPDEST JUMPDEST DUP1 PUSH1 0x40 MSTORE POP POP POP JUMP JUMPDEST PUSH0 PUSH2 0x236 PUSH2 0x1A6 JUMP JUMPDEST SWAP1 POP PUSH2 0x242 DUP3 DUP3 PUSH2 0x1FC JUMP JUMPDEST SWAP2 SWAP1 POP JUMP JUMPDEST PUSH0 PUSH8 0xFFFFFFFFFFFFFFFF DUP3 GT ISZERO PUSH2 0x261 JUMPI PUSH2 0x260 PUSH2 0x1CF JUMP JUMPDEST JUMPDEST PUSH2 0x26A DUP3 PUSH2 0x1BF JUMP JUMPDEST SWAP1 POP PUSH1 0x20 DUP2 ADD SWAP1 POP SWAP2 SWAP1 POP JUMP JUMPDEST DUP3 DUP2 DUP4 CALLDATACOPY PUSH0 DUP4 DUP4 ADD MSTORE POP POP POP JUMP JUMPDEST PUSH0 PUSH2 0x297 PUSH2 0x292 DUP5 PUSH2 0x247 JUMP JUMPDEST PUSH2 0x22D JUMP JUMPDEST SWAP1 POP DUP3 DUP2 MSTORE PUSH1 0x20 DUP2 ADD DUP5 DUP5 DUP5 ADD GT ISZERO PUSH2 0x2B3 JUMPI PUSH2 0x2B2 PUSH2 0x1BB JUMP JUMPDEST JUMPDEST PUSH2 0x2BE DUP5 DUP3 DUP6 PUSH2 0x277 JUMP JUMPDEST POP SWAP4 SWAP3 POP POP POP JUMP JUMPDEST PUSH0 DUP3 PUSH1 0x1F DUP4 ADD SLT PUSH2 0x2DA JUMPI PUSH2 0x2D9 PUSH2 0x1B7 JUMP JUMPDEST JUMPDEST DUP2 CALLDATALOAD PUSH2 0x2EA DUP5 DUP3 PUSH1 0x20 DUP7 ADD PUSH2 0x285 JUMP JUMPDEST SWAP2 POP POP SWAP3 SWAP2 POP POP JUMP JUMPDEST PUSH2 0x2FC DUP2 PUSH2 0x175 JUMP JUMPDEST DUP2 EQ PUSH2 0x306 JUMPI PUSH0 DUP1 REVERT JUMPDEST POP JUMP JUMPDEST PUSH0 DUP2 CALLDATALOAD SWAP1 POP PUSH2 0x317 DUP2 PUSH2 0x2F3 JUMP JUMPDEST SWAP3 SWAP2 POP POP JUMP JUMPDEST PUSH0 DUP1 PUSH1 0x40 DUP4 DUP6 SUB SLT ISZERO PUSH2 0x333 JUMPI PUSH2 0x332 PUSH2 0x1AF JUMP JUMPDEST JUMPDEST PUSH0 DUP4 ADD CALLDATALOAD PUSH8 0xFFFFFFFFFFFFFFFF DUP2 GT ISZERO PUSH2 0x350 JUMPI PUSH2 0x34F PUSH2 0x1B3 JUMP JUMPDEST JUMPDEST PUSH2 0x35C DUP6 DUP3 DUP7 ADD PUSH2 0x2C6 JUMP JUMPDEST SWAP3 POP POP PUSH1 0x20 PUSH2 0x36D DUP6 DUP3 DUP7 ADD PUSH2 0x309 JUMP JUMPDEST SWAP2 POP POP SWAP3 POP SWAP3 SWAP1 POP JUMP JUMPDEST PUSH0 DUP2 MLOAD SWAP1 POP SWAP2 SWAP1 POP JUMP JUMPDEST PUSH0 DUP3 DUP3 MSTORE PUSH1 0x20 DUP3 ADD SWAP1 POP SWAP3 SWAP2 POP POP JUMP JUMPDEST DUP3 DUP2 DUP4 MCOPY PUSH0 DUP4 DUP4 ADD MSTORE POP POP POP JUMP JUMPDEST PUSH0 PUSH2 0x3A9 DUP3 PUSH2 0x377 JUMP JUMPDEST PUSH2 0x3B3 DUP2 DUP6 PUSH2 0x381 JUMP JUMPDEST SWAP4 POP PUSH2 0x3C3 DUP2 DUP6 PUSH1 0x20 DUP7 ADD PUSH2 0x391 JUMP JUMPDEST PUSH2 0x3CC DUP2 PUSH2 0x1BF JUMP JUMPDEST DUP5 ADD SWAP2 POP POP SWAP3 SWAP2 POP POP JUMP JUMPDEST PUSH0 PUSH1 0x20 DUP3 ADD SWAP1 POP DUP2 DUP2 SUB PUSH0 DUP4 ADD MSTORE PUSH2 0x3EF DUP2 DUP5 PUSH2 0x39F JUMP JUMPDEST SWAP1 POP SWAP3 SWAP2 POP POP JUMP JUMPDEST PUSH32 0x4E487B7100000000000000000000000000000000000000000000000000000000 PUSH0 MSTORE PUSH1 0x22 PUSH1 0x4 MSTORE PUSH1 0x24 PUSH0 REVERT JUMPDEST PUSH0 PUSH1 0x2 DUP3 DIV SWAP1 POP PUSH1 0x1 DUP3 AND DUP1 PUSH2 0x43B JUMPI PUSH1 0x7F DUP3 AND SWAP2 POP JUMPDEST PUSH1 0x20 DUP3 LT DUP2 SUB PUSH2 0x44E JUMPI PUSH2 0x44D PUSH2 0x3F7 JUMP JUMPDEST JUMPDEST POP SWAP2 SWAP1 POP JUMP JUMPDEST PUSH0 DUP2 SWAP1 POP DUP2 PUSH0 MSTORE PUSH1 0x20 PUSH0 KECCAK256 SWAP1 POP SWAP2 SWAP1 POP JUMP JUMPDEST PUSH0 PUSH1 0x20 PUSH1 0x1F DUP4 ADD DIV SWAP1 POP SWAP2 SWAP1 POP JUMP JUMPDEST PUSH0 DUP3 DUP3 SHL SWAP1 POP SWAP3 SWAP2 POP POP JUMP JUMPDEST PUSH0 PUSH1 0x8 DUP4 MUL PUSH2 0x4B0 PUSH32 0xFFFFFFFFFFFFFFFFFFFFFFFFFFFFFFFFFFFFFFFFFFFFFFFFFFFFFFFFFFFFFFFF DUP3 PUSH2 0x475 JUMP JUMPDEST PUSH2 0x4BA DUP7 DUP4 PUSH2 0x475 JUMP JUMPDEST SWAP6 POP DUP1 NOT DUP5 AND SWAP4 POP DUP1 DUP7 AND DUP5 OR SWAP3 POP POP POP SWAP4 SWAP3 POP POP POP JUMP JUMPDEST PUSH0 DUP2 SWAP1 POP SWAP2 SWAP1 POP JUMP JUMPDEST PUSH0 PUSH2 0x4F5 PUSH2 0x4F0 PUSH2 0x4EB DUP5 PUSH2 0x175 JUMP JUMPDEST PUSH2 0x4D2 JUMP JUMPDEST PUSH2 0x175 JUMP JUMPDEST SWAP1 POP SWAP2 SWAP1 POP JUMP JUMPDEST PUSH0 DUP2 SWAP1 POP SWAP2 SWAP1 POP JUMP JUMPDEST PUSH2 0x50E DUP4 PUSH2 0x4DB JUMP JUMPDEST PUSH2 0x522 PUSH2 0x51A DUP3 PUSH2 0x4FC JUMP JUMPDEST DUP5 DUP5 SLOAD PUSH2 0x481 JUMP JUMPDEST DUP3 SSTORE POP POP POP POP JUMP JUMPDEST PUSH0 SWAP1 JUMP JUMPDEST PUSH2 0x536 PUSH2 0x52A JUMP JUMPDEST PUSH2 0x541 DUP2 DUP5 DUP5 PUSH2 0x505 JUMP JUMPDEST POP POP POP JUMP JUMPDEST JUMPDEST DUP2 DUP2 LT ISZERO PUSH2 0x564 JUMPI PUSH2 0x559 PUSH0 DUP3 PUSH2 0x52E JUMP JUMPDEST PUSH1 0x1 DUP2 ADD SWAP1 POP PUSH2 0x547 JUMP JUMPDEST POP POP JUMP JUMPDEST PUSH1 0x1F DUP3 GT ISZERO PUSH2 0x5A9 JUMPI PUSH2 0x57A DUP2 PUSH2 0x454 JUMP JUMPDEST PUSH2 0x583 DUP5 PUSH2 0x466 JUMP JUMPDEST DUP2 ADD PUSH1 0x20 DUP6 LT ISZERO PUSH2 0x592 JUMPI DUP2 SWAP1 POP JUMPDEST PUSH2 0x5A6 PUSH2 0x59E DUP6 PUSH2 0x466 JUMP JUMPDEST DUP4 ADD DUP3 PUSH2 0x546 JUMP JUMPDEST POP POP JUMPDEST POP POP POP JUMP JUMPDEST PUSH0 DUP3 DUP3 SHR SWAP1 POP SWAP3 SWAP2 POP POP JUMP JUMPDEST PUSH0 PUSH2 0x5C9 PUSH0 NOT DUP5 PUSH1 0x8 MUL PUSH2 0x5AE JUMP JUMPDEST NOT DUP1 DUP4 AND SWAP2 POP POP SWAP3 SWAP2 POP POP JUMP JUMPDEST PUSH0 PUSH2 0x5E1 DUP4 DUP4 PUSH2 0x5BA JUMP JUMPDEST SWAP2 POP DUP3 PUSH1 0x2 MUL DUP3 OR SWAP1 POP SWAP3 SWAP2 POP POP JUMP JUMPDEST PUSH2 0x5FA DUP3 PUSH2 0x377 JUMP JUMPDEST PUSH8 0xFFFFFFFFFFFFFFFF DUP2 GT ISZERO PUSH2 0x613 JUMPI PUSH2 0x612 PUSH2 0x1CF JUMP JUMPDEST JUMPDEST PUSH2 0x61D DUP3 SLOAD PUSH2 0x424 JUMP JUMPDEST PUSH2 0x628 DUP3 DUP3 DUP6 PUSH2 0x568 JUMP JUMPDEST PUSH0 PUSH1 0x20 SWAP1 POP PUSH1 0x1F DUP4 GT PUSH1 0x1 DUP2 EQ PUSH2 0x659 JUMPI PUSH0 DUP5 ISZERO PUSH2 0x647 JUMPI DUP3 DUP8 ADD MLOAD SWAP1 POP JUMPDEST PUSH2 0x651 DUP6 DUP3 PUSH2 0x5D6 JUMP JUMPDEST DUP7 SSTORE POP PUSH2 0x6B8 JUMP JUMPDEST PUSH1 0x1F NOT DUP5 AND PUSH2 0x667 DUP7 PUSH2 0x454 JUMP JUMPDEST PUSH0 JUMPDEST DUP3 DUP2 LT ISZERO PUSH2 0x68E JUMPI DUP5 DUP10 ADD MLOAD DUP3 SSTORE PUSH1 0x1 DUP3 ADD SWAP2 POP PUSH1 0x20 DUP6 ADD SWAP5 POP PUSH1 0x20 DUP2 ADD SWAP1 POP PUSH2 0x669 JUMP JUMPDEST DUP7 DUP4 LT ISZERO PUSH2 0x6AB JUMPI DUP5 DUP10 ADD MLOAD PUSH2 0x6A7 PUSH1 0x1F DUP10 AND DUP3 PUSH2 0x5BA JUMP JUMPDEST DUP4 SSTORE POP JUMPDEST PUSH1 0x1 PUSH1 0x2 DUP9 MUL ADD DUP9 SSTORE POP POP POP JUMPDEST POP POP POP POP POP POP JUMP INVALID LOG2 PUSH5 0x6970667358 0x22 SLT KECCAK256 0xCF SMOD 0xBB 0x22 CALL 0xC4 SHL 0xD0 0xD7 0xBB 0x2D 0xBC SELFBALANCE 0xEF SWAP3 0xF7 JUMPDEST XOR DUP16 0xBE CALLER 0xB5 CALL DUP12 RETURN DUP6 XOR EXTCODEHASH 0xA5 0xA8 0xDC SGT PUSH5 0x736F6C6343 STOP ADDMOD BYTE STOP CALLER "
				},
				"gasEstimates": {
					"creation": {
						"codeDepositCost": "356400",
						"executionCost": "391",
						"totalCost": "356791"
					},
					"external": {
						"foo(string,uint256)": "infinite",
						"message()": "infinite",
						"num()": "2447",
						"num2()": "2403"
					}
				},
				"methodIdentifiers": {
					"foo(string,uint256)": "24ccab8f",
					"message()": "e21f37ce",
					"num()": "4e70b1dc",
					"num2()": "15d4266c"
				}
			},
			"storageLayout": {
				"storage": [
					{
						"astId": 3,
						"contract": "contract/3-4/CallDemo.sol:TestContract",
						"label": "message",
						"offset": 0,
						"slot": "0",
						"type": "t_string_storage"
					},
					{
						"astId": 5,
						"contract": "contract/3-4/CallDemo.sol:TestContract",
						"label": "num",
						"offset": 0,
						"slot": "1",
						"type": "t_uint256"
					},
					{
						"astId": 7,
						"contract": "contract/3-4/CallDemo.sol:TestContract",
						"label": "num2",
						"offset": 0,
						"slot": "2",
						"type": "t_uint256"
					}
				],
				"types": {
					"t_string_storage": {
						"encoding": "bytes",
						"label": "string",
						"numberOfBytes": "32"
					},
					"t_uint256": {
						"encoding": "inplace",
						"label": "uint256",
						"numberOfBytes": "32"
					}
				}
			},
			"userdoc": {
				"kind": "user",
				"methods": {},
				"version": 1
			}
		}
	}
}