{
	"contract/3-4/AccessControl.sol": {
		"AccsessControl": {
			"abi": [
				{
					"inputs": [],
					"stateMutability": "nonpayable",
					"type": "constructor"
				},
				{
					"anonymous": false,
					"inputs": [
						{
							"indexed": false,
							"internalType": "string",
							"name": "",
							"type": "string"
						}
					],
					"name": "grant",
					"type": "event"
				},
				{
					"anonymous": false,
					"inputs": [
						{
							"indexed": false,
							"internalType": "string",
							"name": "",
							"type": "string"
						}
					],
					"name": "revoke",
					"type": "event"
				},
				{
					"inputs": [],
					"name": "ADMIN",
					"outputs": [
						{
							"internalType": "bytes32",
							"name": "",
							"type": "bytes32"
						}
					],
					"stateMutability": "view",
					"type": "function"
				},
				{
					"inputs": [],
					"name": "USER",
					"outputs": [
						{
							"internalType": "bytes32",
							"name": "",
							"type": "bytes32"
						}
					],
					"stateMutability": "view",
					"type": "function"
				},
				{
					"inputs": [
						{
							"internalType": "address",
							"name": "_user",
							"type": "address"
						},
						{
							"internalType": "bytes32",
							"name": "_role",
							"type": "bytes32"
						}
					],
					"name": "grantRole",
					"outputs": [],
					"stateMutability": "nonpayable",
					"type": "function"
				},
				{
					"inputs": [
						{
							"internalType": "address",
							"name": "_user",
							"type": "address"
						},
						{
							"internalType": "bytes32",
							"name": "_role",
							"type": "bytes32"
						}
					],
					"name": "revokeRole",
					"outputs": [],
					"stateMutability": "nonpayable",
					"type": "function"
				},
				{
					"inputs": [
						{
							"internalType": "bytes32",
							"name": "",
							"type": "bytes32"
						},
						{
							"internalType": "address",
							"name": "",
							"type": "address"
						}
					],
					"name": "roles",
					"outputs": [
						{
							"internalType": "bool",
							"name": "",
							"type": "bool"
						}
					],
					"stateMutability": "view",
					"type": "function"
				}
			],
			"devdoc": {
				"kind": "dev",
				"methods": {},
				"version": 1
			},
			"evm": {
				"assembly": "    /* \"contract/3-4/AccessControl.sol\":328:1261  contract AccsessControl {... */\n  mstore(0x40, 0x80)\n    /* \"contract/3-4/AccessControl.sol\":391:410  abi.encode(\"admin\") */\n  add(0x20, mload(0x40))\n  tag_1\n  swap1\n  tag_2\n  jump\t// in\ntag_1:\n  mload(0x40)\n  0x20\n  dup2\n  dup4\n  sub\n  sub\n  dup2\n  mstore\n  swap1\n  0x40\n  mstore\n    /* \"contract/3-4/AccessControl.sol\":381:411  keccak256(abi.encode(\"admin\")) */\n  dup1\n  mload\n  swap1\n  0x20\n  add\n  keccak256\n    /* \"contract/3-4/AccessControl.sol\":358:411  bytes32 public ADMIN = keccak256(abi.encode(\"admin\")) */\n  0x00\n  sstore\n    /* \"contract/3-4/AccessControl.sol\":449:467  abi.encode(\"user\") */\n  add(0x20, mload(0x40))\n  tag_3\n  swap1\n  tag_4\n  jump\t// in\ntag_3:\n  mload(0x40)\n  0x20\n  dup2\n  dup4\n  sub\n  sub\n  dup2\n  mstore\n  swap1\n  0x40\n  mstore\n    /* \"contract/3-4/AccessControl.sol\":439:468  keccak256(abi.encode(\"user\")) */\n  dup1\n  mload\n  swap1\n  0x20\n  add\n  keccak256\n    /* \"contract/3-4/AccessControl.sol\":417:468  bytes32 public USER = keccak256(abi.encode(\"user\")) */\n  0x01\n  sstore\n    /* \"contract/3-4/AccessControl.sol\":539:599  constructor() {... */\n  callvalue\n  dup1\n  iszero\n  tag_5\n  jumpi\n  0x00\n  dup1\n  revert\ntag_5:\n  pop\n    /* \"contract/3-4/AccessControl.sol\":563:592  _grantRole(msg.sender, ADMIN) */\n  tag_8\n    /* \"contract/3-4/AccessControl.sol\":574:584  msg.sender */\n  caller\n    /* \"contract/3-4/AccessControl.sol\":586:591  ADMIN */\n  sload(0x00)\n    /* \"contract/3-4/AccessControl.sol\":563:573  _grantRole */\n  shl(0x20, tag_9)\n    /* \"contract/3-4/AccessControl.sol\":563:592  _grantRole(msg.sender, ADMIN) */\n  0x20\n  shr\n  jump\t// in\ntag_8:\n    /* \"contract/3-4/AccessControl.sol\":328:1261  contract AccsessControl {... */\n  jump(tag_10)\n    /* \"contract/3-4/AccessControl.sol\":787:937  function _grantRole(address _user, bytes32 _role) internal {... */\ntag_9:\n    /* \"contract/3-4/AccessControl.sol\":878:882  true */\n  0x01\n    /* \"contract/3-4/AccessControl.sol\":856:861  roles */\n  0x02\n    /* \"contract/3-4/AccessControl.sol\":856:868  roles[_role] */\n  0x00\n    /* \"contract/3-4/AccessControl.sol\":862:867  _role */\n  dup4\n    /* \"contract/3-4/AccessControl.sol\":856:868  roles[_role] */\n  dup2\n  mstore\n  0x20\n  add\n  swap1\n  dup2\n  mstore\n  0x20\n  add\n  0x00\n  keccak256\n    /* \"contract/3-4/AccessControl.sol\":856:875  roles[_role][_user] */\n  0x00\n    /* \"contract/3-4/AccessControl.sol\":869:874  _user */\n  dup5\n    /* \"contract/3-4/AccessControl.sol\":856:875  roles[_role][_user] */\n  0xffffffffffffffffffffffffffffffffffffffff\n  and\n  0xffffffffffffffffffffffffffffffffffffffff\n  and\n  dup2\n  mstore\n  0x20\n  add\n  swap1\n  dup2\n  mstore\n  0x20\n  add\n  0x00\n  keccak256\n  0x00\n    /* \"contract/3-4/AccessControl.sol\":856:882  roles[_role][_user] = true */\n  0x0100\n  exp\n  dup2\n  sload\n  dup2\n  0xff\n  mul\n  not\n  and\n  swap1\n  dup4\n  iszero\n  iszero\n  mul\n  or\n  swap1\n  sstore\n  pop\n    /* \"contract/3-4/AccessControl.sol\":897:930  grant(\"constructor grant access\") */\n  0x1e97f5faca3e9aaacd5e0de01a59c5da084fedb8c8244db7bf6eb47078f9f038\n  mload(0x40)\n  tag_12\n  swap1\n  tag_13\n  jump\t// in\ntag_12:\n  mload(0x40)\n  dup1\n  swap2\n  sub\n  swap1\n  log1\n    /* \"contract/3-4/AccessControl.sol\":787:937  function _grantRole(address _user, bytes32 _role) internal {... */\n  pop\n  pop\n  jump\t// out\n    /* \"#utility.yul\":7:176   */\ntag_14:\n    /* \"#utility.yul\":91:102   */\n  0x00\n    /* \"#utility.yul\":125:131   */\n  dup3\n    /* \"#utility.yul\":120:123   */\n  dup3\n    /* \"#utility.yul\":113:132   */\n  mstore\n    /* \"#utility.yul\":165:169   */\n  0x20\n    /* \"#utility.yul\":160:163   */\n  dup3\n    /* \"#utility.yul\":156:170   */\n  add\n    /* \"#utility.yul\":141:170   */\n  swap1\n  pop\n    /* \"#utility.yul\":7:176   */\n  swap3\n  swap2\n  pop\n  pop\n  jump\t// out\n    /* \"#utility.yul\":182:337   */\ntag_15:\n    /* \"#utility.yul\":322:329   */\n  0x61646d696e000000000000000000000000000000000000000000000000000000\n    /* \"#utility.yul\":318:319   */\n  0x00\n    /* \"#utility.yul\":310:316   */\n  dup3\n    /* \"#utility.yul\":306:320   */\n  add\n    /* \"#utility.yul\":299:330   */\n  mstore\n    /* \"#utility.yul\":182:337   */\n  pop\n  jump\t// out\n    /* \"#utility.yul\":343:708   */\ntag_16:\n    /* \"#utility.yul\":485:488   */\n  0x00\n    /* \"#utility.yul\":506:572   */\n  tag_25\n    /* \"#utility.yul\":570:571   */\n  0x05\n    /* \"#utility.yul\":565:568   */\n  dup4\n    /* \"#utility.yul\":506:572   */\n  tag_14\n  jump\t// in\ntag_25:\n    /* \"#utility.yul\":499:572   */\n  swap2\n  pop\n    /* \"#utility.yul\":581:674   */\n  tag_26\n    /* \"#utility.yul\":670:673   */\n  dup3\n    /* \"#utility.yul\":581:674   */\n  tag_15\n  jump\t// in\ntag_26:\n    /* \"#utility.yul\":699:701   */\n  0x20\n    /* \"#utility.yul\":694:697   */\n  dup3\n    /* \"#utility.yul\":690:702   */\n  add\n    /* \"#utility.yul\":683:702   */\n  swap1\n  pop\n    /* \"#utility.yul\":343:708   */\n  swap2\n  swap1\n  pop\n  jump\t// out\n    /* \"#utility.yul\":714:1133   */\ntag_2:\n    /* \"#utility.yul\":880:884   */\n  0x00\n    /* \"#utility.yul\":918:920   */\n  0x20\n    /* \"#utility.yul\":907:916   */\n  dup3\n    /* \"#utility.yul\":903:921   */\n  add\n    /* \"#utility.yul\":895:921   */\n  swap1\n  pop\n    /* \"#utility.yul\":967:976   */\n  dup2\n    /* \"#utility.yul\":961:965   */\n  dup2\n    /* \"#utility.yul\":957:977   */\n  sub\n    /* \"#utility.yul\":953:954   */\n  0x00\n    /* \"#utility.yul\":942:951   */\n  dup4\n    /* \"#utility.yul\":938:955   */\n  add\n    /* \"#utility.yul\":931:978   */\n  mstore\n    /* \"#utility.yul\":995:1126   */\n  tag_28\n    /* \"#utility.yul\":1121:1125   */\n  dup2\n    /* \"#utility.yul\":995:1126   */\n  tag_16\n  jump\t// in\ntag_28:\n    /* \"#utility.yul\":987:1126   */\n  swap1\n  pop\n    /* \"#utility.yul\":714:1133   */\n  swap2\n  swap1\n  pop\n  jump\t// out\n    /* \"#utility.yul\":1139:1293   */\ntag_17:\n    /* \"#utility.yul\":1279:1285   */\n  0x7573657200000000000000000000000000000000000000000000000000000000\n    /* \"#utility.yul\":1275:1276   */\n  0x00\n    /* \"#utility.yul\":1267:1273   */\n  dup3\n    /* \"#utility.yul\":1263:1277   */\n  add\n    /* \"#utility.yul\":1256:1286   */\n  mstore\n    /* \"#utility.yul\":1139:1293   */\n  pop\n  jump\t// out\n    /* \"#utility.yul\":1299:1664   */\ntag_18:\n    /* \"#utility.yul\":1441:1444   */\n  0x00\n    /* \"#utility.yul\":1462:1528   */\n  tag_31\n    /* \"#utility.yul\":1526:1527   */\n  0x04\n    /* \"#utility.yul\":1521:1524   */\n  dup4\n    /* \"#utility.yul\":1462:1528   */\n  tag_14\n  jump\t// in\ntag_31:\n    /* \"#utility.yul\":1455:1528   */\n  swap2\n  pop\n    /* \"#utility.yul\":1537:1630   */\n  tag_32\n    /* \"#utility.yul\":1626:1629   */\n  dup3\n    /* \"#utility.yul\":1537:1630   */\n  tag_17\n  jump\t// in\ntag_32:\n    /* \"#utility.yul\":1655:1657   */\n  0x20\n    /* \"#utility.yul\":1650:1653   */\n  dup3\n    /* \"#utility.yul\":1646:1658   */\n  add\n    /* \"#utility.yul\":1639:1658   */\n  swap1\n  pop\n    /* \"#utility.yul\":1299:1664   */\n  swap2\n  swap1\n  pop\n  jump\t// out\n    /* \"#utility.yul\":1670:2089   */\ntag_4:\n    /* \"#utility.yul\":1836:1840   */\n  0x00\n    /* \"#utility.yul\":1874:1876   */\n  0x20\n    /* \"#utility.yul\":1863:1872   */\n  dup3\n    /* \"#utility.yul\":1859:1877   */\n  add\n    /* \"#utility.yul\":1851:1877   */\n  swap1\n  pop\n    /* \"#utility.yul\":1923:1932   */\n  dup2\n    /* \"#utility.yul\":1917:1921   */\n  dup2\n    /* \"#utility.yul\":1913:1933   */\n  sub\n    /* \"#utility.yul\":1909:1910   */\n  0x00\n    /* \"#utility.yul\":1898:1907   */\n  dup4\n    /* \"#utility.yul\":1894:1911   */\n  add\n    /* \"#utility.yul\":1887:1934   */\n  mstore\n    /* \"#utility.yul\":1951:2082   */\n  tag_34\n    /* \"#utility.yul\":2077:2081   */\n  dup2\n    /* \"#utility.yul\":1951:2082   */\n  tag_18\n  jump\t// in\ntag_34:\n    /* \"#utility.yul\":1943:2082   */\n  swap1\n  pop\n    /* \"#utility.yul\":1670:2089   */\n  swap2\n  swap1\n  pop\n  jump\t// out\n    /* \"#utility.yul\":2095:2269   */\ntag_19:\n    /* \"#utility.yul\":2235:2261   */\n  0x636f6e7374727563746f72206772616e74206163636573730000000000000000\n    /* \"#utility.yul\":2231:2232   */\n  0x00\n    /* \"#utility.yul\":2223:2229   */\n  dup3\n    /* \"#utility.yul\":2219:2233   */\n  add\n    /* \"#utility.yul\":2212:2262   */\n  mstore\n    /* \"#utility.yul\":2095:2269   */\n  pop\n  jump\t// out\n    /* \"#utility.yul\":2275:2641   */\ntag_20:\n    /* \"#utility.yul\":2417:2420   */\n  0x00\n    /* \"#utility.yul\":2438:2505   */\n  tag_37\n    /* \"#utility.yul\":2502:2504   */\n  0x18\n    /* \"#utility.yul\":2497:2500   */\n  dup4\n    /* \"#utility.yul\":2438:2505   */\n  tag_14\n  jump\t// in\ntag_37:\n    /* \"#utility.yul\":2431:2505   */\n  swap2\n  pop\n    /* \"#utility.yul\":2514:2607   */\n  tag_38\n    /* \"#utility.yul\":2603:2606   */\n  dup3\n    /* \"#utility.yul\":2514:2607   */\n  tag_19\n  jump\t// in\ntag_38:\n    /* \"#utility.yul\":2632:2634   */\n  0x20\n    /* \"#utility.yul\":2627:2630   */\n  dup3\n    /* \"#utility.yul\":2623:2635   */\n  add\n    /* \"#utility.yul\":2616:2635   */\n  swap1\n  pop\n    /* \"#utility.yul\":2275:2641   */\n  swap2\n  swap1\n  pop\n  jump\t// out\n    /* \"#utility.yul\":2647:3066   */\ntag_13:\n    /* \"#utility.yul\":2813:2817   */\n  0x00\n    /* \"#utility.yul\":2851:2853   */\n  0x20\n    /* \"#utility.yul\":2840:2849   */\n  dup3\n    /* \"#utility.yul\":2836:2854   */\n  add\n    /* \"#utility.yul\":2828:2854   */\n  swap1\n  pop\n    /* \"#utility.yul\":2900:2909   */\n  dup2\n    /* \"#utility.yul\":2894:2898   */\n  dup2\n    /* \"#utility.yul\":2890:2910   */\n  sub\n    /* \"#utility.yul\":2886:2887   */\n  0x00\n    /* \"#utility.yul\":2875:2884   */\n  dup4\n    /* \"#utility.yul\":2871:2888   */\n  add\n    /* \"#utility.yul\":2864:2911   */\n  mstore\n    /* \"#utility.yul\":2928:3059   */\n  tag_40\n    /* \"#utility.yul\":3054:3058   */\n  dup2\n    /* \"#utility.yul\":2928:3059   */\n  tag_20\n  jump\t// in\ntag_40:\n    /* \"#utility.yul\":2920:3059   */\n  swap1\n  pop\n    /* \"#utility.yul\":2647:3066   */\n  swap2\n  swap1\n  pop\n  jump\t// out\n    /* \"contract/3-4/AccessControl.sol\":328:1261  contract AccsessControl {... */\ntag_10:\n  dataSize(sub_0)\n  dup1\n  dataOffset(sub_0)\n  0x00\n  codecopy\n  0x00\n  return\nstop\n\nsub_0: assembly {\n        /* \"contract/3-4/AccessControl.sol\":328:1261  contract AccsessControl {... */\n      mstore(0x40, 0x80)\n      callvalue\n      dup1\n      iszero\n      tag_1\n      jumpi\n      0x00\n      dup1\n      revert\n    tag_1:\n      pop\n      jumpi(tag_2, lt(calldatasize, 0x04))\n      shr(0xe0, calldataload(0x00))\n      dup1\n      0x208dd1ff\n      eq\n      tag_3\n      jumpi\n      dup1\n      0x2a0acc6a\n      eq\n      tag_4\n      jumpi\n      dup1\n      0x81e167cf\n      eq\n      tag_5\n      jumpi\n      dup1\n      0xab2742dc\n      eq\n      tag_6\n      jumpi\n      dup1\n      0xf8fc08b9\n      eq\n      tag_7\n      jumpi\n    tag_2:\n      0x00\n      dup1\n      revert\n        /* \"contract/3-4/AccessControl.sol\":1083:1259  function revokeRole(address _user, bytes32 _role)... */\n    tag_3:\n      tag_8\n      0x04\n      dup1\n      calldatasize\n      sub\n      dup2\n      add\n      swap1\n      tag_9\n      swap2\n      swap1\n      tag_10\n      jump\t// in\n    tag_9:\n      tag_11\n      jump\t// in\n    tag_8:\n      stop\n        /* \"contract/3-4/AccessControl.sol\":358:411  bytes32 public ADMIN = keccak256(abi.encode(\"admin\")) */\n    tag_4:\n      tag_12\n      tag_13\n      jump\t// in\n    tag_12:\n      mload(0x40)\n      tag_14\n      swap2\n      swap1\n      tag_15\n      jump\t// in\n    tag_14:\n      mload(0x40)\n      dup1\n      swap2\n      sub\n      swap1\n      return\n        /* \"contract/3-4/AccessControl.sol\":417:468  bytes32 public USER = keccak256(abi.encode(\"user\")) */\n    tag_5:\n      tag_16\n      tag_17\n      jump\t// in\n    tag_16:\n      mload(0x40)\n      tag_18\n      swap2\n      swap1\n      tag_15\n      jump\t// in\n    tag_18:\n      mload(0x40)\n      dup1\n      swap2\n      sub\n      swap1\n      return\n        /* \"contract/3-4/AccessControl.sol\":943:1077  function grantRole(address _user, bytes32 _role)... */\n    tag_6:\n      tag_19\n      0x04\n      dup1\n      calldatasize\n      sub\n      dup2\n      add\n      swap1\n      tag_20\n      swap2\n      swap1\n      tag_10\n      jump\t// in\n    tag_20:\n      tag_21\n      jump\t// in\n    tag_19:\n      stop\n        /* \"contract/3-4/AccessControl.sol\":475:532  mapping(bytes32 => mapping(address => bool)) public roles */\n    tag_7:\n      tag_22\n      0x04\n      dup1\n      calldatasize\n      sub\n      dup2\n      add\n      swap1\n      tag_23\n      swap2\n      swap1\n      tag_24\n      jump\t// in\n    tag_23:\n      tag_25\n      jump\t// in\n    tag_22:\n      mload(0x40)\n      tag_26\n      swap2\n      swap1\n      tag_27\n      jump\t// in\n    tag_26:\n      mload(0x40)\n      dup1\n      swap2\n      sub\n      swap1\n      return\n        /* \"contract/3-4/AccessControl.sol\":1083:1259  function revokeRole(address _user, bytes32 _role)... */\n    tag_11:\n        /* \"contract/3-4/AccessControl.sol\":1167:1172  ADMIN */\n      sload(0x00)\n        /* \"contract/3-4/AccessControl.sol\":734:738  true */\n      0x01\n        /* \"contract/3-4/AccessControl.sol\":707:738  roles[role][msg.sender] == true */\n      iszero\n      iszero\n        /* \"contract/3-4/AccessControl.sol\":707:712  roles */\n      0x02\n        /* \"contract/3-4/AccessControl.sol\":707:718  roles[role] */\n      0x00\n        /* \"contract/3-4/AccessControl.sol\":713:717  role */\n      dup4\n        /* \"contract/3-4/AccessControl.sol\":707:718  roles[role] */\n      dup2\n      mstore\n      0x20\n      add\n      swap1\n      dup2\n      mstore\n      0x20\n      add\n      0x00\n      keccak256\n        /* \"contract/3-4/AccessControl.sol\":707:730  roles[role][msg.sender] */\n      0x00\n        /* \"contract/3-4/AccessControl.sol\":719:729  msg.sender */\n      caller\n        /* \"contract/3-4/AccessControl.sol\":707:730  roles[role][msg.sender] */\n      0xffffffffffffffffffffffffffffffffffffffff\n      and\n      0xffffffffffffffffffffffffffffffffffffffff\n      and\n      dup2\n      mstore\n      0x20\n      add\n      swap1\n      dup2\n      mstore\n      0x20\n      add\n      0x00\n      keccak256\n      0x00\n      swap1\n      sload\n      swap1\n      0x0100\n      exp\n      swap1\n      div\n      0xff\n      and\n        /* \"contract/3-4/AccessControl.sol\":707:738  roles[role][msg.sender] == true */\n      iszero\n      iszero\n      eq\n        /* \"contract/3-4/AccessControl.sol\":699:763  require(roles[role][msg.sender] == true, \"You must be an admin\") */\n      tag_29\n      jumpi\n      mload(0x40)\n      0x08c379a000000000000000000000000000000000000000000000000000000000\n      dup2\n      mstore\n      0x04\n      add\n      tag_30\n      swap1\n      tag_31\n      jump\t// in\n    tag_30:\n      mload(0x40)\n      dup1\n      swap2\n      sub\n      swap1\n      revert\n    tag_29:\n        /* \"contract/3-4/AccessControl.sol\":1210:1215  false */\n      0x00\n        /* \"contract/3-4/AccessControl.sol\":1188:1193  roles */\n      0x02\n        /* \"contract/3-4/AccessControl.sol\":1188:1200  roles[_role] */\n      0x00\n        /* \"contract/3-4/AccessControl.sol\":1194:1199  _role */\n      dup5\n        /* \"contract/3-4/AccessControl.sol\":1188:1200  roles[_role] */\n      dup2\n      mstore\n      0x20\n      add\n      swap1\n      dup2\n      mstore\n      0x20\n      add\n      0x00\n      keccak256\n        /* \"contract/3-4/AccessControl.sol\":1188:1207  roles[_role][_user] */\n      0x00\n        /* \"contract/3-4/AccessControl.sol\":1201:1206  _user */\n      dup6\n        /* \"contract/3-4/AccessControl.sol\":1188:1207  roles[_role][_user] */\n      0xffffffffffffffffffffffffffffffffffffffff\n      and\n      0xffffffffffffffffffffffffffffffffffffffff\n      and\n      dup2\n      mstore\n      0x20\n      add\n      swap1\n      dup2\n      mstore\n      0x20\n      add\n      0x00\n      keccak256\n      0x00\n        /* \"contract/3-4/AccessControl.sol\":1188:1215  roles[_role][_user] = false */\n      0x0100\n      exp\n      dup2\n      sload\n      dup2\n      0xff\n      mul\n      not\n      and\n      swap1\n      dup4\n      iszero\n      iszero\n      mul\n      or\n      swap1\n      sstore\n      pop\n        /* \"contract/3-4/AccessControl.sol\":1230:1252  grant(\"revoke access\") */\n      0x1e97f5faca3e9aaacd5e0de01a59c5da084fedb8c8244db7bf6eb47078f9f038\n      mload(0x40)\n      tag_33\n      swap1\n      tag_34\n      jump\t// in\n    tag_33:\n      mload(0x40)\n      dup1\n      swap2\n      sub\n      swap1\n      log1\n        /* \"contract/3-4/AccessControl.sol\":1083:1259  function revokeRole(address _user, bytes32 _role)... */\n      pop\n      pop\n      pop\n      jump\t// out\n        /* \"contract/3-4/AccessControl.sol\":358:411  bytes32 public ADMIN = keccak256(abi.encode(\"admin\")) */\n    tag_13:\n      sload(0x00)\n      dup2\n      jump\t// out\n        /* \"contract/3-4/AccessControl.sol\":417:468  bytes32 public USER = keccak256(abi.encode(\"user\")) */\n    tag_17:\n      sload(0x01)\n      dup2\n      jump\t// out\n        /* \"contract/3-4/AccessControl.sol\":943:1077  function grantRole(address _user, bytes32 _role)... */\n    tag_21:\n        /* \"contract/3-4/AccessControl.sol\":1026:1031  ADMIN */\n      sload(0x00)\n        /* \"contract/3-4/AccessControl.sol\":734:738  true */\n      0x01\n        /* \"contract/3-4/AccessControl.sol\":707:738  roles[role][msg.sender] == true */\n      iszero\n      iszero\n        /* \"contract/3-4/AccessControl.sol\":707:712  roles */\n      0x02\n        /* \"contract/3-4/AccessControl.sol\":707:718  roles[role] */\n      0x00\n        /* \"contract/3-4/AccessControl.sol\":713:717  role */\n      dup4\n        /* \"contract/3-4/AccessControl.sol\":707:718  roles[role] */\n      dup2\n      mstore\n      0x20\n      add\n      swap1\n      dup2\n      mstore\n      0x20\n      add\n      0x00\n      keccak256\n        /* \"contract/3-4/AccessControl.sol\":707:730  roles[role][msg.sender] */\n      0x00\n        /* \"contract/3-4/AccessControl.sol\":719:729  msg.sender */\n      caller\n        /* \"contract/3-4/AccessControl.sol\":707:730  roles[role][msg.sender] */\n      0xffffffffffffffffffffffffffffffffffffffff\n      and\n      0xffffffffffffffffffffffffffffffffffffffff\n      and\n      dup2\n      mstore\n      0x20\n      add\n      swap1\n      dup2\n      mstore\n      0x20\n      add\n      0x00\n      keccak256\n      0x00\n      swap1\n      sload\n      swap1\n      0x0100\n      exp\n      swap1\n      div\n      0xff\n      and\n        /* \"contract/3-4/AccessControl.sol\":707:738  roles[role][msg.sender] == true */\n      iszero\n      iszero\n      eq\n        /* \"contract/3-4/AccessControl.sol\":699:763  require(roles[role][msg.sender] == true, \"You must be an admin\") */\n      tag_36\n      jumpi\n      mload(0x40)\n      0x08c379a000000000000000000000000000000000000000000000000000000000\n      dup2\n      mstore\n      0x04\n      add\n      tag_37\n      swap1\n      tag_31\n      jump\t// in\n    tag_37:\n      mload(0x40)\n      dup1\n      swap2\n      sub\n      swap1\n      revert\n    tag_36:\n        /* \"contract/3-4/AccessControl.sol\":1047:1070  _grantRole(_user,_role) */\n      tag_39\n        /* \"contract/3-4/AccessControl.sol\":1058:1063  _user */\n      dup4\n        /* \"contract/3-4/AccessControl.sol\":1064:1069  _role */\n      dup4\n        /* \"contract/3-4/AccessControl.sol\":1047:1057  _grantRole */\n      tag_40\n        /* \"contract/3-4/AccessControl.sol\":1047:1070  _grantRole(_user,_role) */\n      jump\t// in\n    tag_39:\n        /* \"contract/3-4/AccessControl.sol\":943:1077  function grantRole(address _user, bytes32 _role)... */\n      pop\n      pop\n      pop\n      jump\t// out\n        /* \"contract/3-4/AccessControl.sol\":475:532  mapping(bytes32 => mapping(address => bool)) public roles */\n    tag_25:\n      mstore(0x20, 0x02)\n      dup2\n      0x00\n      mstore\n      mstore(0x20, keccak256(0x00, 0x40))\n      dup1\n      0x00\n      mstore\n      keccak256(0x00, 0x40)\n      0x00\n      swap2\n      pop\n      swap2\n      pop\n      swap1\n      sload\n      swap1\n      0x0100\n      exp\n      swap1\n      div\n      0xff\n      and\n      dup2\n      jump\t// out\n        /* \"contract/3-4/AccessControl.sol\":787:937  function _grantRole(address _user, bytes32 _role) internal {... */\n    tag_40:\n        /* \"contract/3-4/AccessControl.sol\":878:882  true */\n      0x01\n        /* \"contract/3-4/AccessControl.sol\":856:861  roles */\n      0x02\n        /* \"contract/3-4/AccessControl.sol\":856:868  roles[_role] */\n      0x00\n        /* \"contract/3-4/AccessControl.sol\":862:867  _role */\n      dup4\n        /* \"contract/3-4/AccessControl.sol\":856:868  roles[_role] */\n      dup2\n      mstore\n      0x20\n      add\n      swap1\n      dup2\n      mstore\n      0x20\n      add\n      0x00\n      keccak256\n        /* \"contract/3-4/AccessControl.sol\":856:875  roles[_role][_user] */\n      0x00\n        /* \"contract/3-4/AccessControl.sol\":869:874  _user */\n      dup5\n        /* \"contract/3-4/AccessControl.sol\":856:875  roles[_role][_user] */\n      0xffffffffffffffffffffffffffffffffffffffff\n      and\n      0xffffffffffffffffffffffffffffffffffffffff\n      and\n      dup2\n      mstore\n      0x20\n      add\n      swap1\n      dup2\n      mstore\n      0x20\n      add\n      0x00\n      keccak256\n      0x00\n        /* \"contract/3-4/AccessControl.sol\":856:882  roles[_role][_user] = true */\n      0x0100\n      exp\n      dup2\n      sload\n      dup2\n      0xff\n      mul\n      not\n      and\n      swap1\n      dup4\n      iszero\n      iszero\n      mul\n      or\n      swap1\n      sstore\n      pop\n        /* \"contract/3-4/AccessControl.sol\":897:930  grant(\"constructor grant access\") */\n      0x1e97f5faca3e9aaacd5e0de01a59c5da084fedb8c8244db7bf6eb47078f9f038\n      mload(0x40)\n      tag_42\n      swap1\n      tag_43\n      jump\t// in\n    tag_42:\n      mload(0x40)\n      dup1\n      swap2\n      sub\n      swap1\n      log1\n        /* \"contract/3-4/AccessControl.sol\":787:937  function _grantRole(address _user, bytes32 _role) internal {... */\n      pop\n      pop\n      jump\t// out\n        /* \"#utility.yul\":88:205   */\n    tag_45:\n        /* \"#utility.yul\":197:198   */\n      0x00\n        /* \"#utility.yul\":194:195   */\n      dup1\n        /* \"#utility.yul\":187:199   */\n      revert\n        /* \"#utility.yul\":334:460   */\n    tag_47:\n        /* \"#utility.yul\":371:378   */\n      0x00\n        /* \"#utility.yul\":411:453   */\n      0xffffffffffffffffffffffffffffffffffffffff\n        /* \"#utility.yul\":404:409   */\n      dup3\n        /* \"#utility.yul\":400:454   */\n      and\n        /* \"#utility.yul\":389:454   */\n      swap1\n      pop\n        /* \"#utility.yul\":334:460   */\n      swap2\n      swap1\n      pop\n      jump\t// out\n        /* \"#utility.yul\":466:562   */\n    tag_48:\n        /* \"#utility.yul\":503:510   */\n      0x00\n        /* \"#utility.yul\":532:556   */\n      tag_70\n        /* \"#utility.yul\":550:555   */\n      dup3\n        /* \"#utility.yul\":532:556   */\n      tag_47\n      jump\t// in\n    tag_70:\n        /* \"#utility.yul\":521:556   */\n      swap1\n      pop\n        /* \"#utility.yul\":466:562   */\n      swap2\n      swap1\n      pop\n      jump\t// out\n        /* \"#utility.yul\":568:690   */\n    tag_49:\n        /* \"#utility.yul\":641:665   */\n      tag_72\n        /* \"#utility.yul\":659:664   */\n      dup2\n        /* \"#utility.yul\":641:665   */\n      tag_48\n      jump\t// in\n    tag_72:\n        /* \"#utility.yul\":634:639   */\n      dup2\n        /* \"#utility.yul\":631:666   */\n      eq\n        /* \"#utility.yul\":621:684   */\n      tag_73\n      jumpi\n        /* \"#utility.yul\":680:681   */\n      0x00\n        /* \"#utility.yul\":677:678   */\n      dup1\n        /* \"#utility.yul\":670:682   */\n      revert\n        /* \"#utility.yul\":621:684   */\n    tag_73:\n        /* \"#utility.yul\":568:690   */\n      pop\n      jump\t// out\n        /* \"#utility.yul\":696:835   */\n    tag_50:\n        /* \"#utility.yul\":742:747   */\n      0x00\n        /* \"#utility.yul\":780:786   */\n      dup2\n        /* \"#utility.yul\":767:787   */\n      calldataload\n        /* \"#utility.yul\":758:787   */\n      swap1\n      pop\n        /* \"#utility.yul\":796:829   */\n      tag_75\n        /* \"#utility.yul\":823:828   */\n      dup2\n        /* \"#utility.yul\":796:829   */\n      tag_49\n      jump\t// in\n    tag_75:\n        /* \"#utility.yul\":696:835   */\n      swap3\n      swap2\n      pop\n      pop\n      jump\t// out\n        /* \"#utility.yul\":841:918   */\n    tag_51:\n        /* \"#utility.yul\":878:885   */\n      0x00\n        /* \"#utility.yul\":907:912   */\n      dup2\n        /* \"#utility.yul\":896:912   */\n      swap1\n      pop\n        /* \"#utility.yul\":841:918   */\n      swap2\n      swap1\n      pop\n      jump\t// out\n        /* \"#utility.yul\":924:1046   */\n    tag_52:\n        /* \"#utility.yul\":997:1021   */\n      tag_78\n        /* \"#utility.yul\":1015:1020   */\n      dup2\n        /* \"#utility.yul\":997:1021   */\n      tag_51\n      jump\t// in\n    tag_78:\n        /* \"#utility.yul\":990:995   */\n      dup2\n        /* \"#utility.yul\":987:1022   */\n      eq\n        /* \"#utility.yul\":977:1040   */\n      tag_79\n      jumpi\n        /* \"#utility.yul\":1036:1037   */\n      0x00\n        /* \"#utility.yul\":1033:1034   */\n      dup1\n        /* \"#utility.yul\":1026:1038   */\n      revert\n        /* \"#utility.yul\":977:1040   */\n    tag_79:\n        /* \"#utility.yul\":924:1046   */\n      pop\n      jump\t// out\n        /* \"#utility.yul\":1052:1191   */\n    tag_53:\n        /* \"#utility.yul\":1098:1103   */\n      0x00\n        /* \"#utility.yul\":1136:1142   */\n      dup2\n        /* \"#utility.yul\":1123:1143   */\n      calldataload\n        /* \"#utility.yul\":1114:1143   */\n      swap1\n      pop\n        /* \"#utility.yul\":1152:1185   */\n      tag_81\n        /* \"#utility.yul\":1179:1184   */\n      dup2\n        /* \"#utility.yul\":1152:1185   */\n      tag_52\n      jump\t// in\n    tag_81:\n        /* \"#utility.yul\":1052:1191   */\n      swap3\n      swap2\n      pop\n      pop\n      jump\t// out\n        /* \"#utility.yul\":1197:1671   */\n    tag_10:\n        /* \"#utility.yul\":1265:1271   */\n      0x00\n        /* \"#utility.yul\":1273:1279   */\n      dup1\n        /* \"#utility.yul\":1322:1324   */\n      0x40\n        /* \"#utility.yul\":1310:1319   */\n      dup4\n        /* \"#utility.yul\":1301:1308   */\n      dup6\n        /* \"#utility.yul\":1297:1320   */\n      sub\n        /* \"#utility.yul\":1293:1325   */\n      slt\n        /* \"#utility.yul\":1290:1409   */\n      iszero\n      tag_83\n      jumpi\n        /* \"#utility.yul\":1328:1407   */\n      tag_84\n      tag_45\n      jump\t// in\n    tag_84:\n        /* \"#utility.yul\":1290:1409   */\n    tag_83:\n        /* \"#utility.yul\":1448:1449   */\n      0x00\n        /* \"#utility.yul\":1473:1526   */\n      tag_85\n        /* \"#utility.yul\":1518:1525   */\n      dup6\n        /* \"#utility.yul\":1509:1515   */\n      dup3\n        /* \"#utility.yul\":1498:1507   */\n      dup7\n        /* \"#utility.yul\":1494:1516   */\n      add\n        /* \"#utility.yul\":1473:1526   */\n      tag_50\n      jump\t// in\n    tag_85:\n        /* \"#utility.yul\":1463:1526   */\n      swap3\n      pop\n        /* \"#utility.yul\":1419:1536   */\n      pop\n        /* \"#utility.yul\":1575:1577   */\n      0x20\n        /* \"#utility.yul\":1601:1654   */\n      tag_86\n        /* \"#utility.yul\":1646:1653   */\n      dup6\n        /* \"#utility.yul\":1637:1643   */\n      dup3\n        /* \"#utility.yul\":1626:1635   */\n      dup7\n        /* \"#utility.yul\":1622:1644   */\n      add\n        /* \"#utility.yul\":1601:1654   */\n      tag_53\n      jump\t// in\n    tag_86:\n        /* \"#utility.yul\":1591:1654   */\n      swap2\n      pop\n        /* \"#utility.yul\":1546:1664   */\n      pop\n        /* \"#utility.yul\":1197:1671   */\n      swap3\n      pop\n      swap3\n      swap1\n      pop\n      jump\t// out\n        /* \"#utility.yul\":1677:1795   */\n    tag_54:\n        /* \"#utility.yul\":1764:1788   */\n      tag_88\n        /* \"#utility.yul\":1782:1787   */\n      dup2\n        /* \"#utility.yul\":1764:1788   */\n      tag_51\n      jump\t// in\n    tag_88:\n        /* \"#utility.yul\":1759:1762   */\n      dup3\n        /* \"#utility.yul\":1752:1789   */\n      mstore\n        /* \"#utility.yul\":1677:1795   */\n      pop\n      pop\n      jump\t// out\n        /* \"#utility.yul\":1801:2023   */\n    tag_15:\n        /* \"#utility.yul\":1894:1898   */\n      0x00\n        /* \"#utility.yul\":1932:1934   */\n      0x20\n        /* \"#utility.yul\":1921:1930   */\n      dup3\n        /* \"#utility.yul\":1917:1935   */\n      add\n        /* \"#utility.yul\":1909:1935   */\n      swap1\n      pop\n        /* \"#utility.yul\":1945:2016   */\n      tag_90\n        /* \"#utility.yul\":2013:2014   */\n      0x00\n        /* \"#utility.yul\":2002:2011   */\n      dup4\n        /* \"#utility.yul\":1998:2015   */\n      add\n        /* \"#utility.yul\":1989:1995   */\n      dup5\n        /* \"#utility.yul\":1945:2016   */\n      tag_54\n      jump\t// in\n    tag_90:\n        /* \"#utility.yul\":1801:2023   */\n      swap3\n      swap2\n      pop\n      pop\n      jump\t// out\n        /* \"#utility.yul\":2029:2503   */\n    tag_24:\n        /* \"#utility.yul\":2097:2103   */\n      0x00\n        /* \"#utility.yul\":2105:2111   */\n      dup1\n        /* \"#utility.yul\":2154:2156   */\n      0x40\n        /* \"#utility.yul\":2142:2151   */\n      dup4\n        /* \"#utility.yul\":2133:2140   */\n      dup6\n        /* \"#utility.yul\":2129:2152   */\n      sub\n        /* \"#utility.yul\":2125:2157   */\n      slt\n        /* \"#utility.yul\":2122:2241   */\n      iszero\n      tag_92\n      jumpi\n        /* \"#utility.yul\":2160:2239   */\n      tag_93\n      tag_45\n      jump\t// in\n    tag_93:\n        /* \"#utility.yul\":2122:2241   */\n    tag_92:\n        /* \"#utility.yul\":2280:2281   */\n      0x00\n        /* \"#utility.yul\":2305:2358   */\n      tag_94\n        /* \"#utility.yul\":2350:2357   */\n      dup6\n        /* \"#utility.yul\":2341:2347   */\n      dup3\n        /* \"#utility.yul\":2330:2339   */\n      dup7\n        /* \"#utility.yul\":2326:2348   */\n      add\n        /* \"#utility.yul\":2305:2358   */\n      tag_53\n      jump\t// in\n    tag_94:\n        /* \"#utility.yul\":2295:2358   */\n      swap3\n      pop\n        /* \"#utility.yul\":2251:2368   */\n      pop\n        /* \"#utility.yul\":2407:2409   */\n      0x20\n        /* \"#utility.yul\":2433:2486   */\n      tag_95\n        /* \"#utility.yul\":2478:2485   */\n      dup6\n        /* \"#utility.yul\":2469:2475   */\n      dup3\n        /* \"#utility.yul\":2458:2467   */\n      dup7\n        /* \"#utility.yul\":2454:2476   */\n      add\n        /* \"#utility.yul\":2433:2486   */\n      tag_50\n      jump\t// in\n    tag_95:\n        /* \"#utility.yul\":2423:2486   */\n      swap2\n      pop\n        /* \"#utility.yul\":2378:2496   */\n      pop\n        /* \"#utility.yul\":2029:2503   */\n      swap3\n      pop\n      swap3\n      swap1\n      pop\n      jump\t// out\n        /* \"#utility.yul\":2509:2599   */\n    tag_55:\n        /* \"#utility.yul\":2543:2550   */\n      0x00\n        /* \"#utility.yul\":2586:2591   */\n      dup2\n        /* \"#utility.yul\":2579:2592   */\n      iszero\n        /* \"#utility.yul\":2572:2593   */\n      iszero\n        /* \"#utility.yul\":2561:2593   */\n      swap1\n      pop\n        /* \"#utility.yul\":2509:2599   */\n      swap2\n      swap1\n      pop\n      jump\t// out\n        /* \"#utility.yul\":2605:2714   */\n    tag_56:\n        /* \"#utility.yul\":2686:2707   */\n      tag_98\n        /* \"#utility.yul\":2701:2706   */\n      dup2\n        /* \"#utility.yul\":2686:2707   */\n      tag_55\n      jump\t// in\n    tag_98:\n        /* \"#utility.yul\":2681:2684   */\n      dup3\n        /* \"#utility.yul\":2674:2708   */\n      mstore\n        /* \"#utility.yul\":2605:2714   */\n      pop\n      pop\n      jump\t// out\n        /* \"#utility.yul\":2720:2930   */\n    tag_27:\n        /* \"#utility.yul\":2807:2811   */\n      0x00\n        /* \"#utility.yul\":2845:2847   */\n      0x20\n        /* \"#utility.yul\":2834:2843   */\n      dup3\n        /* \"#utility.yul\":2830:2848   */\n      add\n        /* \"#utility.yul\":2822:2848   */\n      swap1\n      pop\n        /* \"#utility.yul\":2858:2923   */\n      tag_100\n        /* \"#utility.yul\":2920:2921   */\n      0x00\n        /* \"#utility.yul\":2909:2918   */\n      dup4\n        /* \"#utility.yul\":2905:2922   */\n      add\n        /* \"#utility.yul\":2896:2902   */\n      dup5\n        /* \"#utility.yul\":2858:2923   */\n      tag_56\n      jump\t// in\n    tag_100:\n        /* \"#utility.yul\":2720:2930   */\n      swap3\n      swap2\n      pop\n      pop\n      jump\t// out\n        /* \"#utility.yul\":2936:3105   */\n    tag_57:\n        /* \"#utility.yul\":3020:3031   */\n      0x00\n        /* \"#utility.yul\":3054:3060   */\n      dup3\n        /* \"#utility.yul\":3049:3052   */\n      dup3\n        /* \"#utility.yul\":3042:3061   */\n      mstore\n        /* \"#utility.yul\":3094:3098   */\n      0x20\n        /* \"#utility.yul\":3089:3092   */\n      dup3\n        /* \"#utility.yul\":3085:3099   */\n      add\n        /* \"#utility.yul\":3070:3099   */\n      swap1\n      pop\n        /* \"#utility.yul\":2936:3105   */\n      swap3\n      swap2\n      pop\n      pop\n      jump\t// out\n        /* \"#utility.yul\":3111:3281   */\n    tag_58:\n        /* \"#utility.yul\":3251:3273   */\n      0x596f75206d75737420626520616e2061646d696e000000000000000000000000\n        /* \"#utility.yul\":3247:3248   */\n      0x00\n        /* \"#utility.yul\":3239:3245   */\n      dup3\n        /* \"#utility.yul\":3235:3249   */\n      add\n        /* \"#utility.yul\":3228:3274   */\n      mstore\n        /* \"#utility.yul\":3111:3281   */\n      pop\n      jump\t// out\n        /* \"#utility.yul\":3287:3653   */\n    tag_59:\n        /* \"#utility.yul\":3429:3432   */\n      0x00\n        /* \"#utility.yul\":3450:3517   */\n      tag_104\n        /* \"#utility.yul\":3514:3516   */\n      0x14\n        /* \"#utility.yul\":3509:3512   */\n      dup4\n        /* \"#utility.yul\":3450:3517   */\n      tag_57\n      jump\t// in\n    tag_104:\n        /* \"#utility.yul\":3443:3517   */\n      swap2\n      pop\n        /* \"#utility.yul\":3526:3619   */\n      tag_105\n        /* \"#utility.yul\":3615:3618   */\n      dup3\n        /* \"#utility.yul\":3526:3619   */\n      tag_58\n      jump\t// in\n    tag_105:\n        /* \"#utility.yul\":3644:3646   */\n      0x20\n        /* \"#utility.yul\":3639:3642   */\n      dup3\n        /* \"#utility.yul\":3635:3647   */\n      add\n        /* \"#utility.yul\":3628:3647   */\n      swap1\n      pop\n        /* \"#utility.yul\":3287:3653   */\n      swap2\n      swap1\n      pop\n      jump\t// out\n        /* \"#utility.yul\":3659:4078   */\n    tag_31:\n        /* \"#utility.yul\":3825:3829   */\n      0x00\n        /* \"#utility.yul\":3863:3865   */\n      0x20\n        /* \"#utility.yul\":3852:3861   */\n      dup3\n        /* \"#utility.yul\":3848:3866   */\n      add\n        /* \"#utility.yul\":3840:3866   */\n      swap1\n      pop\n        /* \"#utility.yul\":3912:3921   */\n      dup2\n        /* \"#utility.yul\":3906:3910   */\n      dup2\n        /* \"#utility.yul\":3902:3922   */\n      sub\n        /* \"#utility.yul\":3898:3899   */\n      0x00\n        /* \"#utility.yul\":3887:3896   */\n      dup4\n        /* \"#utility.yul\":3883:3900   */\n      add\n        /* \"#utility.yul\":3876:3923   */\n      mstore\n        /* \"#utility.yul\":3940:4071   */\n      tag_107\n        /* \"#utility.yul\":4066:4070   */\n      dup2\n        /* \"#utility.yul\":3940:4071   */\n      tag_59\n      jump\t// in\n    tag_107:\n        /* \"#utility.yul\":3932:4071   */\n      swap1\n      pop\n        /* \"#utility.yul\":3659:4078   */\n      swap2\n      swap1\n      pop\n      jump\t// out\n        /* \"#utility.yul\":4084:4247   */\n    tag_60:\n        /* \"#utility.yul\":4224:4239   */\n      0x7265766f6b652061636365737300000000000000000000000000000000000000\n        /* \"#utility.yul\":4220:4221   */\n      0x00\n        /* \"#utility.yul\":4212:4218   */\n      dup3\n        /* \"#utility.yul\":4208:4222   */\n      add\n        /* \"#utility.yul\":4201:4240   */\n      mstore\n        /* \"#utility.yul\":4084:4247   */\n      pop\n      jump\t// out\n        /* \"#utility.yul\":4253:4619   */\n    tag_61:\n        /* \"#utility.yul\":4395:4398   */\n      0x00\n        /* \"#utility.yul\":4416:4483   */\n      tag_110\n        /* \"#utility.yul\":4480:4482   */\n      0x0d\n        /* \"#utility.yul\":4475:4478   */\n      dup4\n        /* \"#utility.yul\":4416:4483   */\n      tag_57\n      jump\t// in\n    tag_110:\n        /* \"#utility.yul\":4409:4483   */\n      swap2\n      pop\n        /* \"#utility.yul\":4492:4585   */\n      tag_111\n        /* \"#utility.yul\":4581:4584   */\n      dup3\n        /* \"#utility.yul\":4492:4585   */\n      tag_60\n      jump\t// in\n    tag_111:\n        /* \"#utility.yul\":4610:4612   */\n      0x20\n        /* \"#utility.yul\":4605:4608   */\n      dup3\n        /* \"#utility.yul\":4601:4613   */\n      add\n        /* \"#utility.yul\":4594:4613   */\n      swap1\n      pop\n        /* \"#utility.yul\":4253:4619   */\n      swap2\n      swap1\n      pop\n      jump\t// out\n        /* \"#utility.yul\":4625:5044   */\n    tag_34:\n        /* \"#utility.yul\":4791:4795   */\n      0x00\n        /* \"#utility.yul\":4829:4831   */\n      0x20\n        /* \"#utility.yul\":4818:4827   */\n      dup3\n        /* \"#utility.yul\":4814:4832   */\n      add\n        /* \"#utility.yul\":4806:4832   */\n      swap1\n      pop\n        /* \"#utility.yul\":4878:4887   */\n      dup2\n        /* \"#utility.yul\":4872:4876   */\n      dup2\n        /* \"#utility.yul\":4868:4888   */\n      sub\n        /* \"#utility.yul\":4864:4865   */\n      0x00\n        /* \"#utility.yul\":4853:4862   */\n      dup4\n        /* \"#utility.yul\":4849:4866   */\n      add\n        /* \"#utility.yul\":4842:4889   */\n      mstore\n        /* \"#utility.yul\":4906:5037   */\n      tag_113\n        /* \"#utility.yul\":5032:5036   */\n      dup2\n        /* \"#utility.yul\":4906:5037   */\n      tag_61\n      jump\t// in\n    tag_113:\n        /* \"#utility.yul\":4898:5037   */\n      swap1\n      pop\n        /* \"#utility.yul\":4625:5044   */\n      swap2\n      swap1\n      pop\n      jump\t// out\n        /* \"#utility.yul\":5050:5224   */\n    tag_62:\n        /* \"#utility.yul\":5190:5216   */\n      0x636f6e7374727563746f72206772616e74206163636573730000000000000000\n        /* \"#utility.yul\":5186:5187   */\n      0x00\n        /* \"#utility.yul\":5178:5184   */\n      dup3\n        /* \"#utility.yul\":5174:5188   */\n      add\n        /* \"#utility.yul\":5167:5217   */\n      mstore\n        /* \"#utility.yul\":5050:5224   */\n      pop\n      jump\t// out\n        /* \"#utility.yul\":5230:5596   */\n    tag_63:\n        /* \"#utility.yul\":5372:5375   */\n      0x00\n        /* \"#utility.yul\":5393:5460   */\n      tag_116\n        /* \"#utility.yul\":5457:5459   */\n      0x18\n        /* \"#utility.yul\":5452:5455   */\n      dup4\n        /* \"#utility.yul\":5393:5460   */\n      tag_57\n      jump\t// in\n    tag_116:\n        /* \"#utility.yul\":5386:5460   */\n      swap2\n      pop\n        /* \"#utility.yul\":5469:5562   */\n      tag_117\n        /* \"#utility.yul\":5558:5561   */\n      dup3\n        /* \"#utility.yul\":5469:5562   */\n      tag_62\n      jump\t// in\n    tag_117:\n        /* \"#utility.yul\":5587:5589   */\n      0x20\n        /* \"#utility.yul\":5582:5585   */\n      dup3\n        /* \"#utility.yul\":5578:5590   */\n      add\n        /* \"#utility.yul\":5571:5590   */\n      swap1\n      pop\n        /* \"#utility.yul\":5230:5596   */\n      swap2\n      swap1\n      pop\n      jump\t// out\n        /* \"#utility.yul\":5602:6021   */\n    tag_43:\n        /* \"#utility.yul\":5768:5772   */\n      0x00\n        /* \"#utility.yul\":5806:5808   */\n      0x20\n        /* \"#utility.yul\":5795:5804   */\n      dup3\n        /* \"#utility.yul\":5791:5809   */\n      add\n        /* \"#utility.yul\":5783:5809   */\n      swap1\n      pop\n        /* \"#utility.yul\":5855:5864   */\n      dup2\n        /* \"#utility.yul\":5849:5853   */\n      dup2\n        /* \"#utility.yul\":5845:5865   */\n      sub\n        /* \"#utility.yul\":5841:5842   */\n      0x00\n        /* \"#utility.yul\":5830:5839   */\n      dup4\n        /* \"#utility.yul\":5826:5843   */\n      add\n        /* \"#utility.yul\":5819:5866   */\n      mstore\n        /* \"#utility.yul\":5883:6014   */\n      tag_119\n        /* \"#utility.yul\":6009:6013   */\n      dup2\n        /* \"#utility.yul\":5883:6014   */\n      tag_63\n      jump\t// in\n    tag_119:\n        /* \"#utility.yul\":5875:6014   */\n      swap1\n      pop\n        /* \"#utility.yul\":5602:6021   */\n      swap2\n      swap1\n      pop\n      jump\t// out\n\n    auxdata: 0xa2646970667358221220dcaf99b2e1b5bcbc8054e3a2b8026ad247dcfca4129833a150e09eb10c0c9d5964736f6c634300081a0033\n}\n",
				"bytecode": {
					"linkReferences": {},
					"object": "60806040526040516020016100139061016c565b604051602081830303815290604052805190602001205f5560405160200161003a906101d4565b6040516020818303038152906040528051906020012060015534801561005e575f80fd5b50610070335f5461007560201b60201c565b61025a565b600160025f8381526020019081526020015f205f8473ffffffffffffffffffffffffffffffffffffffff1673ffffffffffffffffffffffffffffffffffffffff1681526020019081526020015f205f6101000a81548160ff0219169083151502179055507f1e97f5faca3e9aaacd5e0de01a59c5da084fedb8c8244db7bf6eb47078f9f0386040516101069061023c565b60405180910390a15050565b5f82825260208201905092915050565b7f61646d696e0000000000000000000000000000000000000000000000000000005f82015250565b5f610156600583610112565b915061016182610122565b602082019050919050565b5f6020820190508181035f8301526101838161014a565b9050919050565b7f75736572000000000000000000000000000000000000000000000000000000005f82015250565b5f6101be600483610112565b91506101c98261018a565b602082019050919050565b5f6020820190508181035f8301526101eb816101b2565b9050919050565b7f636f6e7374727563746f72206772616e742061636365737300000000000000005f82015250565b5f610226601883610112565b9150610231826101f2565b602082019050919050565b5f6020820190508181035f8301526102538161021a565b9050919050565b6106a3806102675f395ff3fe608060405234801561000f575f80fd5b5060043610610055575f3560e01c8063208dd1ff146100595780632a0acc6a1461007557806381e167cf14610093578063ab2742dc146100b1578063f8fc08b9146100cd575b5f80fd5b610073600480360381019061006e919061044e565b6100fd565b005b61007d61023b565b60405161008a919061049b565b60405180910390f35b61009b610240565b6040516100a8919061049b565b60405180910390f35b6100cb60048036038101906100c6919061044e565b610246565b005b6100e760048036038101906100e291906104b4565b6102f6565b6040516100f4919061050c565b60405180910390f35b5f546001151560025f8381526020019081526020015f205f3373ffffffffffffffffffffffffffffffffffffffff1673ffffffffffffffffffffffffffffffffffffffff1681526020019081526020015f205f9054906101000a900460ff1615151461019e576040517f08c379a00000000000000000000000000000000000000000000000000000000081526004016101959061057f565b60405180910390fd5b5f60025f8481526020019081526020015f205f8573ffffffffffffffffffffffffffffffffffffffff1673ffffffffffffffffffffffffffffffffffffffff1681526020019081526020015f205f6101000a81548160ff0219169083151502179055507f1e97f5faca3e9aaacd5e0de01a59c5da084fedb8c8244db7bf6eb47078f9f03860405161022e906105e7565b60405180910390a1505050565b5f5481565b60015481565b5f546001151560025f8381526020019081526020015f205f3373ffffffffffffffffffffffffffffffffffffffff1673ffffffffffffffffffffffffffffffffffffffff1681526020019081526020015f205f9054906101000a900460ff161515146102e7576040517f08c379a00000000000000000000000000000000000000000000000000000000081526004016102de9061057f565b60405180910390fd5b6102f18383610320565b505050565b6002602052815f5260405f20602052805f5260405f205f915091509054906101000a900460ff1681565b600160025f8381526020019081526020015f205f8473ffffffffffffffffffffffffffffffffffffffff1673ffffffffffffffffffffffffffffffffffffffff1681526020019081526020015f205f6101000a81548160ff0219169083151502179055507f1e97f5faca3e9aaacd5e0de01a59c5da084fedb8c8244db7bf6eb47078f9f0386040516103b19061064f565b60405180910390a15050565b5f80fd5b5f73ffffffffffffffffffffffffffffffffffffffff82169050919050565b5f6103ea826103c1565b9050919050565b6103fa816103e0565b8114610404575f80fd5b50565b5f81359050610415816103f1565b92915050565b5f819050919050565b61042d8161041b565b8114610437575f80fd5b50565b5f8135905061044881610424565b92915050565b5f8060408385031215610464576104636103bd565b5b5f61047185828601610407565b92505060206104828582860161043a565b9150509250929050565b6104958161041b565b82525050565b5f6020820190506104ae5f83018461048c565b92915050565b5f80604083850312156104ca576104c96103bd565b5b5f6104d78582860161043a565b92505060206104e885828601610407565b9150509250929050565b5f8115159050919050565b610506816104f2565b82525050565b5f60208201905061051f5f8301846104fd565b92915050565b5f82825260208201905092915050565b7f596f75206d75737420626520616e2061646d696e0000000000000000000000005f82015250565b5f610569601483610525565b915061057482610535565b602082019050919050565b5f6020820190508181035f8301526105968161055d565b9050919050565b7f7265766f6b6520616363657373000000000000000000000000000000000000005f82015250565b5f6105d1600d83610525565b91506105dc8261059d565b602082019050919050565b5f6020820190508181035f8301526105fe816105c5565b9050919050565b7f636f6e7374727563746f72206772616e742061636365737300000000000000005f82015250565b5f610639601883610525565b915061064482610605565b602082019050919050565b5f6020820190508181035f8301526106668161062d565b905091905056fea2646970667358221220dcaf99b2e1b5bcbc8054e3a2b8026ad247dcfca4129833a150e09eb10c0c9d5964736f6c634300081a0033",
					"opcodes": "PUSH1 0x80 PUSH1 0x40 MSTORE PUSH1 0x40 MLOAD PUSH1 0x20 ADD PUSH2 0x13 SWAP1 PUSH2 0x16C JUMP JUMPDEST PUSH1 0x40 MLOAD PUSH1 0x20 DUP2 DUP4 SUB SUB DUP2 MSTORE SWAP1 PUSH1 0x40 MSTORE DUP1 MLOAD SWAP1 PUSH1 0x20 ADD KECCAK256 PUSH0 SSTORE PUSH1 0x40 MLOAD PUSH1 0x20 ADD PUSH2 0x3A SWAP1 PUSH2 0x1D4 JUMP JUMPDEST PUSH1 0x40 MLOAD PUSH1 0x20 DUP2 DUP4 SUB SUB DUP2 MSTORE SWAP1 PUSH1 0x40 MSTORE DUP1 MLOAD SWAP1 PUSH1 0x20 ADD KECCAK256 PUSH1 0x1 SSTORE CALLVALUE DUP1 ISZERO PUSH2 0x5E JUMPI PUSH0 DUP1 REVERT JUMPDEST POP PUSH2 0x70 CALLER PUSH0 SLOAD PUSH2 0x75 PUSH1 0x20 SHL PUSH1 0x20 SHR JUMP JUMPDEST PUSH2 0x25A JUMP JUMPDEST PUSH1 0x1 PUSH1 0x2 PUSH0 DUP4 DUP2 MSTORE PUSH1 0x20 ADD SWAP1 DUP2 MSTORE PUSH1 0x20 ADD PUSH0 KECCAK256 PUSH0 DUP5 PUSH20 0xFFFFFFFFFFFFFFFFFFFFFFFFFFFFFFFFFFFFFFFF AND PUSH20 0xFFFFFFFFFFFFFFFFFFFFFFFFFFFFFFFFFFFFFFFF AND DUP2 MSTORE PUSH1 0x20 ADD SWAP1 DUP2 MSTORE PUSH1 0x20 ADD PUSH0 KECCAK256 PUSH0 PUSH2 0x100 EXP DUP2 SLOAD DUP2 PUSH1 0xFF MUL NOT AND SWAP1 DUP4 ISZERO ISZERO MUL OR SWAP1 SSTORE POP PUSH32 0x1E97F5FACA3E9AAACD5E0DE01A59C5DA084FEDB8C8244DB7BF6EB47078F9F038 PUSH1 0x40 MLOAD PUSH2 0x106 SWAP1 PUSH2 0x23C JUMP JUMPDEST PUSH1 0x40 MLOAD DUP1 SWAP2 SUB SWAP1 LOG1 POP POP JUMP JUMPDEST PUSH0 DUP3 DUP3 MSTORE PUSH1 0x20 DUP3 ADD SWAP1 POP SWAP3 SWAP2 POP POP JUMP JUMPDEST PUSH32 0x61646D696E000000000000000000000000000000000000000000000000000000 PUSH0 DUP3 ADD MSTORE POP JUMP JUMPDEST PUSH0 PUSH2 0x156 PUSH1 0x5 DUP4 PUSH2 0x112 JUMP JUMPDEST SWAP2 POP PUSH2 0x161 DUP3 PUSH2 0x122 JUMP JUMPDEST PUSH1 0x20 DUP3 ADD SWAP1 POP SWAP2 SWAP1 POP JUMP JUMPDEST PUSH0 PUSH1 0x20 DUP3 ADD SWAP1 POP DUP2 DUP2 SUB PUSH0 DUP4 ADD MSTORE PUSH2 0x183 DUP2 PUSH2 0x14A JUMP JUMPDEST SWAP1 POP SWAP2 SWAP1 POP JUMP JUMPDEST PUSH32 0x7573657200000000000000000000000000000000000000000000000000000000 PUSH0 DUP3 ADD MSTORE POP JUMP JUMPDEST PUSH0 PUSH2 0x1BE PUSH1 0x4 DUP4 PUSH2 0x112 JUMP JUMPDEST SWAP2 POP PUSH2 0x1C9 DUP3 PUSH2 0x18A JUMP JUMPDEST PUSH1 0x20 DUP3 ADD SWAP1 POP SWAP2 SWAP1 POP JUMP JUMPDEST PUSH0 PUSH1 0x20 DUP3 ADD SWAP1 POP DUP2 DUP2 SUB PUSH0 DUP4 ADD MSTORE PUSH2 0x1EB DUP2 PUSH2 0x1B2 JUMP JUMPDEST SWAP1 POP SWAP2 SWAP1 POP JUMP JUMPDEST PUSH32 0x636F6E7374727563746F72206772616E74206163636573730000000000000000 PUSH0 DUP3 ADD MSTORE POP JUMP JUMPDEST PUSH0 PUSH2 0x226 PUSH1 0x18 DUP4 PUSH2 0x112 JUMP JUMPDEST SWAP2 POP PUSH2 0x231 DUP3 PUSH2 0x1F2 JUMP JUMPDEST PUSH1 0x20 DUP3 ADD SWAP1 POP SWAP2 SWAP1 POP JUMP JUMPDEST PUSH0 PUSH1 0x20 DUP3 ADD SWAP1 POP DUP2 DUP2 SUB PUSH0 DUP4 ADD MSTORE PUSH2 0x253 DUP2 PUSH2 0x21A JUMP JUMPDEST SWAP1 POP SWAP2 SWAP1 POP JUMP JUMPDEST PUSH2 0x6A3 DUP1 PUSH2 0x267 PUSH0 CODECOPY PUSH0 RETURN INVALID PUSH1 0x80 PUSH1 0x40 MSTORE CALLVALUE DUP1 ISZERO PUSH2 0xF JUMPI PUSH0 DUP1 REVERT JUMPDEST POP PUSH1 0x4 CALLDATASIZE LT PUSH2 0x55 JUMPI PUSH0 CALLDATALOAD PUSH1 0xE0 SHR DUP1 PUSH4 0x208DD1FF EQ PUSH2 0x59 JUMPI DUP1 PUSH4 0x2A0ACC6A EQ PUSH2 0x75 JUMPI DUP1 PUSH4 0x81E167CF EQ PUSH2 0x93 JUMPI DUP1 PUSH4 0xAB2742DC EQ PUSH2 0xB1 JUMPI DUP1 PUSH4 0xF8FC08B9 EQ PUSH2 0xCD JUMPI JUMPDEST PUSH0 DUP1 REVERT JUMPDEST PUSH2 0x73 PUSH1 0x4 DUP1 CALLDATASIZE SUB DUP2 ADD SWAP1 PUSH2 0x6E SWAP2 SWAP1 PUSH2 0x44E JUMP JUMPDEST PUSH2 0xFD JUMP JUMPDEST STOP JUMPDEST PUSH2 0x7D PUSH2 0x23B JUMP JUMPDEST PUSH1 0x40 MLOAD PUSH2 0x8A SWAP2 SWAP1 PUSH2 0x49B JUMP JUMPDEST PUSH1 0x40 MLOAD DUP1 SWAP2 SUB SWAP1 RETURN JUMPDEST PUSH2 0x9B PUSH2 0x240 JUMP JUMPDEST PUSH1 0x40 MLOAD PUSH2 0xA8 SWAP2 SWAP1 PUSH2 0x49B JUMP JUMPDEST PUSH1 0x40 MLOAD DUP1 SWAP2 SUB SWAP1 RETURN JUMPDEST PUSH2 0xCB PUSH1 0x4 DUP1 CALLDATASIZE SUB DUP2 ADD SWAP1 PUSH2 0xC6 SWAP2 SWAP1 PUSH2 0x44E JUMP JUMPDEST PUSH2 0x246 JUMP JUMPDEST STOP JUMPDEST PUSH2 0xE7 PUSH1 0x4 DUP1 CALLDATASIZE SUB DUP2 ADD SWAP1 PUSH2 0xE2 SWAP2 SWAP1 PUSH2 0x4B4 JUMP JUMPDEST PUSH2 0x2F6 JUMP JUMPDEST PUSH1 0x40 MLOAD PUSH2 0xF4 SWAP2 SWAP1 PUSH2 0x50C JUMP JUMPDEST PUSH1 0x40 MLOAD DUP1 SWAP2 SUB SWAP1 RETURN JUMPDEST PUSH0 SLOAD PUSH1 0x1 ISZERO ISZERO PUSH1 0x2 PUSH0 DUP4 DUP2 MSTORE PUSH1 0x20 ADD SWAP1 DUP2 MSTORE PUSH1 0x20 ADD PUSH0 KECCAK256 PUSH0 CALLER PUSH20 0xFFFFFFFFFFFFFFFFFFFFFFFFFFFFFFFFFFFFFFFF AND PUSH20 0xFFFFFFFFFFFFFFFFFFFFFFFFFFFFFFFFFFFFFFFF AND DUP2 MSTORE PUSH1 0x20 ADD SWAP1 DUP2 MSTORE PUSH1 0x20 ADD PUSH0 KECCAK256 PUSH0 SWAP1 SLOAD SWAP1 PUSH2 0x100 EXP SWAP1 DIV PUSH1 0xFF AND ISZERO ISZERO EQ PUSH2 0x19E JUMPI PUSH1 0x40 MLOAD PUSH32 0x8C379A000000000000000000000000000000000000000000000000000000000 DUP2 MSTORE PUSH1 0x4 ADD PUSH2 0x195 SWAP1 PUSH2 0x57F JUMP JUMPDEST PUSH1 0x40 MLOAD DUP1 SWAP2 SUB SWAP1 REVERT JUMPDEST PUSH0 PUSH1 0x2 PUSH0 DUP5 DUP2 MSTORE PUSH1 0x20 ADD SWAP1 DUP2 MSTORE PUSH1 0x20 ADD PUSH0 KECCAK256 PUSH0 DUP6 PUSH20 0xFFFFFFFFFFFFFFFFFFFFFFFFFFFFFFFFFFFFFFFF AND PUSH20 0xFFFFFFFFFFFFFFFFFFFFFFFFFFFFFFFFFFFFFFFF AND DUP2 MSTORE PUSH1 0x20 ADD SWAP1 DUP2 MSTORE PUSH1 0x20 ADD PUSH0 KECCAK256 PUSH0 PUSH2 0x100 EXP DUP2 SLOAD DUP2 PUSH1 0xFF MUL NOT AND SWAP1 DUP4 ISZERO ISZERO MUL OR SWAP1 SSTORE POP PUSH32 0x1E97F5FACA3E9AAACD5E0DE01A59C5DA084FEDB8C8244DB7BF6EB47078F9F038 PUSH1 0x40 MLOAD PUSH2 0x22E SWAP1 PUSH2 0x5E7 JUMP JUMPDEST PUSH1 0x40 MLOAD DUP1 SWAP2 SUB SWAP1 LOG1 POP POP POP JUMP JUMPDEST PUSH0 SLOAD DUP2 JUMP JUMPDEST PUSH1 0x1 SLOAD DUP2 JUMP JUMPDEST PUSH0 SLOAD PUSH1 0x1 ISZERO ISZERO PUSH1 0x2 PUSH0 DUP4 DUP2 MSTORE PUSH1 0x20 ADD SWAP1 DUP2 MSTORE PUSH1 0x20 ADD PUSH0 KECCAK256 PUSH0 CALLER PUSH20 0xFFFFFFFFFFFFFFFFFFFFFFFFFFFFFFFFFFFFFFFF AND PUSH20 0xFFFFFFFFFFFFFFFFFFFFFFFFFFFFFFFFFFFFFFFF AND DUP2 MSTORE PUSH1 0x20 ADD SWAP1 DUP2 MSTORE PUSH1 0x20 ADD PUSH0 KECCAK256 PUSH0 SWAP1 SLOAD SWAP1 PUSH2 0x100 EXP SWAP1 DIV PUSH1 0xFF AND ISZERO ISZERO EQ PUSH2 0x2E7 JUMPI PUSH1 0x40 MLOAD PUSH32 0x8C379A000000000000000000000000000000000000000000000000000000000 DUP2 MSTORE PUSH1 0x4 ADD PUSH2 0x2DE SWAP1 PUSH2 0x57F JUMP JUMPDEST PUSH1 0x40 MLOAD DUP1 SWAP2 SUB SWAP1 REVERT JUMPDEST PUSH2 0x2F1 DUP4 DUP4 PUSH2 0x320 JUMP JUMPDEST POP POP POP JUMP JUMPDEST PUSH1 0x2 PUSH1 0x20 MSTORE DUP2 PUSH0 MSTORE PUSH1 0x40 PUSH0 KECCAK256 PUSH1 0x20 MSTORE DUP1 PUSH0 MSTORE PUSH1 0x40 PUSH0 KECCAK256 PUSH0 SWAP2 POP SWAP2 POP SWAP1 SLOAD SWAP1 PUSH2 0x100 EXP SWAP1 DIV PUSH1 0xFF AND DUP2 JUMP JUMPDEST PUSH1 0x1 PUSH1 0x2 PUSH0 DUP4 DUP2 MSTORE PUSH1 0x20 ADD SWAP1 DUP2 MSTORE PUSH1 0x20 ADD PUSH0 KECCAK256 PUSH0 DUP5 PUSH20 0xFFFFFFFFFFFFFFFFFFFFFFFFFFFFFFFFFFFFFFFF AND PUSH20 0xFFFFFFFFFFFFFFFFFFFFFFFFFFFFFFFFFFFFFFFF AND DUP2 MSTORE PUSH1 0x20 ADD SWAP1 DUP2 MSTORE PUSH1 0x20 ADD PUSH0 KECCAK256 PUSH0 PUSH2 0x100 EXP DUP2 SLOAD DUP2 PUSH1 0xFF MUL NOT AND SWAP1 DUP4 ISZERO ISZERO MUL OR SWAP1 SSTORE POP PUSH32 0x1E97F5FACA3E9AAACD5E0DE01A59C5DA084FEDB8C8244DB7BF6EB47078F9F038 PUSH1 0x40 MLOAD PUSH2 0x3B1 SWAP1 PUSH2 0x64F JUMP JUMPDEST PUSH1 0x40 MLOAD DUP1 SWAP2 SUB SWAP1 LOG1 POP POP JUMP JUMPDEST PUSH0 DUP1 REVERT JUMPDEST PUSH0 PUSH20 0xFFFFFFFFFFFFFFFFFFFFFFFFFFFFFFFFFFFFFFFF DUP3 AND SWAP1 POP SWAP2 SWAP1 POP JUMP JUMPDEST PUSH0 PUSH2 0x3EA DUP3 PUSH2 0x3C1 JUMP JUMPDEST SWAP1 POP SWAP2 SWAP1 POP JUMP JUMPDEST PUSH2 0x3FA DUP2 PUSH2 0x3E0 JUMP JUMPDEST DUP2 EQ PUSH2 0x404 JUMPI PUSH0 DUP1 REVERT JUMPDEST POP JUMP JUMPDEST PUSH0 DUP2 CALLDATALOAD SWAP1 POP PUSH2 0x415 DUP2 PUSH2 0x3F1 JUMP JUMPDEST SWAP3 SWAP2 POP POP JUMP JUMPDEST PUSH0 DUP2 SWAP1 POP SWAP2 SWAP1 POP JUMP JUMPDEST PUSH2 0x42D DUP2 PUSH2 0x41B JUMP JUMPDEST DUP2 EQ PUSH2 0x437 JUMPI PUSH0 DUP1 REVERT JUMPDEST POP JUMP JUMPDEST PUSH0 DUP2 CALLDATALOAD SWAP1 POP PUSH2 0x448 DUP2 PUSH2 0x424 JUMP JUMPDEST SWAP3 SWAP2 POP POP JUMP JUMPDEST PUSH0 DUP1 PUSH1 0x40 DUP4 DUP6 SUB SLT ISZERO PUSH2 0x464 JUMPI PUSH2 0x463 PUSH2 0x3BD JUMP JUMPDEST JUMPDEST PUSH0 PUSH2 0x471 DUP6 DUP3 DUP7 ADD PUSH2 0x407 JUMP JUMPDEST SWAP3 POP POP PUSH1 0x20 PUSH2 0x482 DUP6 DUP3 DUP7 ADD PUSH2 0x43A JUMP JUMPDEST SWAP2 POP POP SWAP3 POP SWAP3 SWAP1 POP JUMP JUMPDEST PUSH2 0x495 DUP2 PUSH2 0x41B JUMP JUMPDEST DUP3 MSTORE POP POP JUMP JUMPDEST PUSH0 PUSH1 0x20 DUP3 ADD SWAP1 POP PUSH2 0x4AE PUSH0 DUP4 ADD DUP5 PUSH2 0x48C JUMP JUMPDEST SWAP3 SWAP2 POP POP JUMP JUMPDEST PUSH0 DUP1 PUSH1 0x40 DUP4 DUP6 SUB SLT ISZERO PUSH2 0x4CA JUMPI PUSH2 0x4C9 PUSH2 0x3BD JUMP JUMPDEST JUMPDEST PUSH0 PUSH2 0x4D7 DUP6 DUP3 DUP7 ADD PUSH2 0x43A JUMP JUMPDEST SWAP3 POP POP PUSH1 0x20 PUSH2 0x4E8 DUP6 DUP3 DUP7 ADD PUSH2 0x407 JUMP JUMPDEST SWAP2 POP POP SWAP3 POP SWAP3 SWAP1 POP JUMP JUMPDEST PUSH0 DUP2 ISZERO ISZERO SWAP1 POP SWAP2 SWAP1 POP JUMP JUMPDEST PUSH2 0x506 DUP2 PUSH2 0x4F2 JUMP JUMPDEST DUP3 MSTORE POP POP JUMP JUMPDEST PUSH0 PUSH1 0x20 DUP3 ADD SWAP1 POP PUSH2 0x51F PUSH0 DUP4 ADD DUP5 PUSH2 0x4FD JUMP JUMPDEST SWAP3 SWAP2 POP POP JUMP JUMPDEST PUSH0 DUP3 DUP3 MSTORE PUSH1 0x20 DUP3 ADD SWAP1 POP SWAP3 SWAP2 POP POP JUMP JUMPDEST PUSH32 0x596F75206D75737420626520616E2061646D696E000000000000000000000000 PUSH0 DUP3 ADD MSTORE POP JUMP JUMPDEST PUSH0 PUSH2 0x569 PUSH1 0x14 DUP4 PUSH2 0x525 JUMP JUMPDEST SWAP2 POP PUSH2 0x574 DUP3 PUSH2 0x535 JUMP JUMPDEST PUSH1 0x20 DUP3 ADD SWAP1 POP SWAP2 SWAP1 POP JUMP JUMPDEST PUSH0 PUSH1 0x20 DUP3 ADD SWAP1 POP DUP2 DUP2 SUB PUSH0 DUP4 ADD MSTORE PUSH2 0x596 DUP2 PUSH2 0x55D JUMP JUMPDEST SWAP1 POP SWAP2 SWAP1 POP JUMP JUMPDEST PUSH32 0x7265766F6B652061636365737300000000000000000000000000000000000000 PUSH0 DUP3 ADD MSTORE POP JUMP JUMPDEST PUSH0 PUSH2 0x5D1 PUSH1 0xD DUP4 PUSH2 0x525 JUMP JUMPDEST SWAP2 POP PUSH2 0x5DC DUP3 PUSH2 0x59D JUMP JUMPDEST PUSH1 0x20 DUP3 ADD SWAP1 POP SWAP2 SWAP1 POP JUMP JUMPDEST PUSH0 PUSH1 0x20 DUP3 ADD SWAP1 POP DUP2 DUP2 SUB PUSH0 DUP4 ADD MSTORE PUSH2 0x5FE DUP2 PUSH2 0x5C5 JUMP JUMPDEST SWAP1 POP SWAP2 SWAP1 POP JUMP JUMPDEST PUSH32 0x636F6E7374727563746F72206772616E74206163636573730000000000000000 PUSH0 DUP3 ADD MSTORE POP JUMP JUMPDEST PUSH0 PUSH2 0x639 PUSH1 0x18 DUP4 PUSH2 0x525 JUMP JUMPDEST SWAP2 POP PUSH2 0x644 DUP3 PUSH2 0x605 JUMP JUMPDEST PUSH1 0x20 DUP3 ADD SWAP1 POP SWAP2 SWAP1 POP JUMP JUMPDEST PUSH0 PUSH1 0x20 DUP3 ADD SWAP1 POP DUP2 DUP2 SUB PUSH0 DUP4 ADD MSTORE PUSH2 0x666 DUP2 PUSH2 0x62D JUMP JUMPDEST SWAP1 POP SWAP2 SWAP1 POP JUMP INVALID LOG2 PUSH5 0x6970667358 0x22 SLT KECCAK256 0xDC 0xAF SWAP10 0xB2 0xE1 0xB5 0xBC 0xBC DUP1 SLOAD 0xE3 LOG2 0xB8 MUL PUSH11 0xD247DCFCA4129833A150E0 SWAP15 0xB1 0xC 0xC SWAP14 MSIZE PUSH5 0x736F6C6343 STOP ADDMOD BYTE STOP CALLER "
				},
				"gasEstimates": {
					"creation": {
						"codeDepositCost": "339800",
						"executionCost": "infinite",
						"totalCost": "infinite"
					},
					"external": {
						"ADMIN()": "2424",
						"USER()": "2447",
						"grantRole(address,bytes32)": "31362",
						"revokeRole(address,bytes32)": "31261",
						"roles(bytes32,address)": "3137"
					},
					"internal": {
						"_grantRole(address,bytes32)": "infinite"
					}
				},
				"methodIdentifiers": {
					"ADMIN()": "2a0acc6a",
					"USER()": "81e167cf",
					"grantRole(address,bytes32)": "ab2742dc",
					"revokeRole(address,bytes32)": "208dd1ff",
					"roles(bytes32,address)": "f8fc08b9"
				}
			},
			"storageLayout": {
				"storage": [
					{
						"astId": 9,
						"contract": "contract/3-4/AccessControl.sol:AccsessControl",
						"label": "ADMIN",
						"offset": 0,
						"slot": "0",
						"type": "t_bytes32"
					},
					{
						"astId": 17,
						"contract": "contract/3-4/AccessControl.sol:AccsessControl",
						"label": "USER",
						"offset": 0,
						"slot": "1",
						"type": "t_bytes32"
					},
					{
						"astId": 23,
						"contract": "contract/3-4/AccessControl.sol:AccsessControl",
						"label": "roles",
						"offset": 0,
						"slot": "2",
						"type": "t_mapping(t_bytes32,t_mapping(t_address,t_bool))"
					}
				],
				"types": {
					"t_address": {
						"encoding": "inplace",
						"label": "address",
						"numberOfBytes": "20"
					},
					"t_bool": {
						"encoding": "inplace",
						"label": "bool",
						"numberOfBytes": "1"
					},
					"t_bytes32": {
						"encoding": "inplace",
						"label": "bytes32",
						"numberOfBytes": "32"
					},
					"t_mapping(t_address,t_bool)": {
						"encoding": "mapping",
						"key": "t_address",
						"label": "mapping(address => bool)",
						"numberOfBytes": "32",
						"value": "t_bool"
					},
					"t_mapping(t_bytes32,t_mapping(t_address,t_bool))": {
						"encoding": "mapping",
						"key": "t_bytes32",
						"label": "mapping(bytes32 => mapping(address => bool))",
						"numberOfBytes": "32",
						"value": "t_mapping(t_address,t_bool)"
					}
				}
			},
			"userdoc": {
				"kind": "user",
				"methods": {},
				"version": 1
			}
		}
	}
}