{
	"contract/3-4/ERC721Demo.sol": {
		"MyNFT": {
			"abi": [
				{
					"anonymous": false,
					"inputs": [
						{
							"indexed": true,
							"internalType": "address",
							"name": "owner",
							"type": "address"
						},
						{
							"indexed": true,
							"internalType": "address",
							"name": "spender",
							"type": "address"
						},
						{
							"indexed": true,
							"internalType": "uint256",
							"name": "id",
							"type": "uint256"
						}
					],
					"name": "Approval",
					"type": "event"
				},
				{
					"anonymous": false,
					"inputs": [
						{
							"indexed": true,
							"internalType": "address",
							"name": "owner",
							"type": "address"
						},
						{
							"indexed": true,
							"internalType": "address",
							"name": "operator",
							"type": "address"
						},
						{
							"indexed": false,
							"internalType": "bool",
							"name": "approvaled",
							"type": "bool"
						}
					],
					"name": "ApprovalForAll",
					"type": "event"
				},
				{
					"anonymous": false,
					"inputs": [
						{
							"indexed": true,
							"internalType": "address",
							"name": "from",
							"type": "address"
						},
						{
							"indexed": true,
							"internalType": "address",
							"name": "to",
							"type": "address"
						},
						{
							"indexed": true,
							"internalType": "uint256",
							"name": "id",
							"type": "uint256"
						}
					],
					"name": "Transfer",
					"type": "event"
				},
				{
					"inputs": [
						{
							"internalType": "address",
							"name": "to",
							"type": "address"
						},
						{
							"internalType": "uint256",
							"name": "tokenId",
							"type": "uint256"
						}
					],
					"name": "approve",
					"outputs": [],
					"stateMutability": "nonpayable",
					"type": "function"
				},
				{
					"inputs": [
						{
							"internalType": "address",
							"name": "owner",
							"type": "address"
						}
					],
					"name": "balanceOf",
					"outputs": [
						{
							"internalType": "uint256",
							"name": "",
							"type": "uint256"
						}
					],
					"stateMutability": "view",
					"type": "function"
				},
				{
					"inputs": [
						{
							"internalType": "uint256",
							"name": "tokenId",
							"type": "uint256"
						}
					],
					"name": "burn",
					"outputs": [],
					"stateMutability": "nonpayable",
					"type": "function"
				},
				{
					"inputs": [
						{
							"internalType": "uint256",
							"name": "tokenId",
							"type": "uint256"
						}
					],
					"name": "getApprove",
					"outputs": [
						{
							"internalType": "address",
							"name": "operator",
							"type": "address"
						}
					],
					"stateMutability": "view",
					"type": "function"
				},
				{
					"inputs": [
						{
							"internalType": "address",
							"name": "",
							"type": "address"
						},
						{
							"internalType": "address",
							"name": "",
							"type": "address"
						}
					],
					"name": "isApprovalForAll",
					"outputs": [
						{
							"internalType": "bool",
							"name": "",
							"type": "bool"
						}
					],
					"stateMutability": "view",
					"type": "function"
				},
				{
					"inputs": [
						{
							"internalType": "address",
							"name": "owner",
							"type": "address"
						},
						{
							"internalType": "address",
							"name": "operator",
							"type": "address"
						}
					],
					"name": "isApproveForAll",
					"outputs": [
						{
							"internalType": "bool",
							"name": "",
							"type": "bool"
						}
					],
					"stateMutability": "view",
					"type": "function"
				},
				{
					"inputs": [
						{
							"internalType": "address",
							"name": "to",
							"type": "address"
						},
						{
							"internalType": "uint256",
							"name": "tokenId",
							"type": "uint256"
						}
					],
					"name": "mint",
					"outputs": [],
					"stateMutability": "nonpayable",
					"type": "function"
				},
				{
					"inputs": [
						{
							"internalType": "uint256",
							"name": "tokenId",
							"type": "uint256"
						}
					],
					"name": "ownerOf",
					"outputs": [
						{
							"internalType": "address",
							"name": "result",
							"type": "address"
						}
					],
					"stateMutability": "view",
					"type": "function"
				},
				{
					"inputs": [
						{
							"internalType": "address",
							"name": "from",
							"type": "address"
						},
						{
							"internalType": "address",
							"name": "to",
							"type": "address"
						},
						{
							"internalType": "uint256",
							"name": "tokenId",
							"type": "uint256"
						}
					],
					"name": "safeTransferFrom",
					"outputs": [],
					"stateMutability": "nonpayable",
					"type": "function"
				},
				{
					"inputs": [
						{
							"internalType": "address",
							"name": "from",
							"type": "address"
						},
						{
							"internalType": "address",
							"name": "to",
							"type": "address"
						},
						{
							"internalType": "uint256",
							"name": "tokenId",
							"type": "uint256"
						},
						{
							"internalType": "bytes",
							"name": "data",
							"type": "bytes"
						}
					],
					"name": "safeTransferFrom",
					"outputs": [],
					"stateMutability": "nonpayable",
					"type": "function"
				},
				{
					"inputs": [
						{
							"internalType": "address",
							"name": "operator",
							"type": "address"
						},
						{
							"internalType": "bool",
							"name": "_approved",
							"type": "bool"
						}
					],
					"name": "setApproveForAll",
					"outputs": [],
					"stateMutability": "nonpayable",
					"type": "function"
				},
				{
					"inputs": [
						{
							"internalType": "bytes4",
							"name": "interfaceId",
							"type": "bytes4"
						}
					],
					"name": "supportsInterface",
					"outputs": [
						{
							"internalType": "bool",
							"name": "",
							"type": "bool"
						}
					],
					"stateMutability": "pure",
					"type": "function"
				},
				{
					"inputs": [
						{
							"internalType": "address",
							"name": "from",
							"type": "address"
						},
						{
							"internalType": "address",
							"name": "to",
							"type": "address"
						},
						{
							"internalType": "uint256",
							"name": "tokenId",
							"type": "uint256"
						}
					],
					"name": "transferFrom",
					"outputs": [],
					"stateMutability": "nonpayable",
					"type": "function"
				}
			],
			"devdoc": {
				"kind": "dev",
				"methods": {},
				"version": 1
			},
			"evm": {
				"assembly": "    /* \"contract/3-4/ERC721Demo.sol\":5591:5852  contract MyNFT is ERC721 {... */\n  mstore(0x40, 0x80)\n  callvalue\n  dup1\n  iszero\n  tag_1\n  jumpi\n  0x00\n  dup1\n  revert\ntag_1:\n  pop\n  dataSize(sub_0)\n  dup1\n  dataOffset(sub_0)\n  0x00\n  codecopy\n  0x00\n  return\nstop\n\nsub_0: assembly {\n        /* \"contract/3-4/ERC721Demo.sol\":5591:5852  contract MyNFT is ERC721 {... */\n      mstore(0x40, 0x80)\n      callvalue\n      dup1\n      iszero\n      tag_1\n      jumpi\n      0x00\n      dup1\n      revert\n    tag_1:\n      pop\n      jumpi(tag_2, lt(calldatasize, 0x04))\n      shr(0xe0, calldataload(0x00))\n      dup1\n      0x42966c68\n      gt\n      tag_16\n      jumpi\n      dup1\n      0x7ac8f518\n      gt\n      tag_17\n      jumpi\n      dup1\n      0x7ac8f518\n      eq\n      tag_12\n      jumpi\n      dup1\n      0xb4989c3f\n      eq\n      tag_13\n      jumpi\n      dup1\n      0xb88d4fde\n      eq\n      tag_14\n      jumpi\n      dup1\n      0xebd1d359\n      eq\n      tag_15\n      jumpi\n      jump(tag_2)\n    tag_17:\n      dup1\n      0x42966c68\n      eq\n      tag_9\n      jumpi\n      dup1\n      0x6352211e\n      eq\n      tag_10\n      jumpi\n      dup1\n      0x70a08231\n      eq\n      tag_11\n      jumpi\n      jump(tag_2)\n    tag_16:\n      dup1\n      0x01ffc9a7\n      eq\n      tag_3\n      jumpi\n      dup1\n      0x095ea7b3\n      eq\n      tag_4\n      jumpi\n      dup1\n      0x230e85c7\n      eq\n      tag_5\n      jumpi\n      dup1\n      0x23b872dd\n      eq\n      tag_6\n      jumpi\n      dup1\n      0x40c10f19\n      eq\n      tag_7\n      jumpi\n      dup1\n      0x42842e0e\n      eq\n      tag_8\n      jumpi\n    tag_2:\n      0x00\n      dup1\n      revert\n        /* \"contract/3-4/ERC721Demo.sol\":1890:2126  function supportsInterface(bytes4 interfaceId)... */\n    tag_3:\n      tag_18\n      0x04\n      dup1\n      calldatasize\n      sub\n      dup2\n      add\n      swap1\n      tag_19\n      swap2\n      swap1\n      tag_20\n      jump\t// in\n    tag_19:\n      tag_21\n      jump\t// in\n    tag_18:\n      mload(0x40)\n      tag_22\n      swap2\n      swap1\n      tag_23\n      jump\t// in\n    tag_22:\n      mload(0x40)\n      dup1\n      swap2\n      sub\n      swap1\n      return\n        /* \"contract/3-4/ERC721Demo.sol\":3910:4216  function approve(address to, uint256 tokenId) external {... */\n    tag_4:\n      tag_24\n      0x04\n      dup1\n      calldatasize\n      sub\n      dup2\n      add\n      swap1\n      tag_25\n      swap2\n      swap1\n      tag_26\n      jump\t// in\n    tag_25:\n      tag_27\n      jump\t// in\n    tag_24:\n      stop\n        /* \"contract/3-4/ERC721Demo.sol\":4591:4708  function isApproveForAll(address owner, address operator)... */\n    tag_5:\n      tag_28\n      0x04\n      dup1\n      calldatasize\n      sub\n      dup2\n      add\n      swap1\n      tag_29\n      swap2\n      swap1\n      tag_30\n      jump\t// in\n    tag_29:\n      tag_31\n      jump\t// in\n    tag_28:\n      mload(0x40)\n      tag_32\n      swap2\n      swap1\n      tag_23\n      jump\t// in\n    tag_32:\n      mload(0x40)\n      dup1\n      swap2\n      sub\n      swap1\n      return\n        /* \"contract/3-4/ERC721Demo.sol\":3510:3904  function transferFrom(... */\n    tag_6:\n      tag_33\n      0x04\n      dup1\n      calldatasize\n      sub\n      dup2\n      add\n      swap1\n      tag_34\n      swap2\n      swap1\n      tag_35\n      jump\t// in\n    tag_34:\n      tag_36\n      jump\t// in\n    tag_33:\n      stop\n        /* \"contract/3-4/ERC721Demo.sol\":5622:5709  function mint(address to, uint256 tokenId) external {... */\n    tag_7:\n      tag_37\n      0x04\n      dup1\n      calldatasize\n      sub\n      dup2\n      add\n      swap1\n      tag_38\n      swap2\n      swap1\n      tag_26\n      jump\t// in\n    tag_38:\n      tag_39\n      jump\t// in\n    tag_37:\n      stop\n        /* \"contract/3-4/ERC721Demo.sol\":2473:2970  function safeTransferFrom(... */\n    tag_8:\n      tag_40\n      0x04\n      dup1\n      calldatasize\n      sub\n      dup2\n      add\n      swap1\n      tag_41\n      swap2\n      swap1\n      tag_35\n      jump\t// in\n    tag_41:\n      tag_42\n      jump\t// in\n    tag_40:\n      stop\n        /* \"contract/3-4/ERC721Demo.sol\":5715:5850  function burn(uint256 tokenId) external {... */\n    tag_9:\n      tag_43\n      0x04\n      dup1\n      calldatasize\n      sub\n      dup2\n      add\n      swap1\n      tag_44\n      swap2\n      swap1\n      tag_45\n      jump\t// in\n    tag_44:\n      tag_46\n      jump\t// in\n    tag_43:\n      stop\n        /* \"contract/3-4/ERC721Demo.sol\":2298:2467  function ownerOf(uint256 tokenId) external view returns (address result) {... */\n    tag_10:\n      tag_47\n      0x04\n      dup1\n      calldatasize\n      sub\n      dup2\n      add\n      swap1\n      tag_48\n      swap2\n      swap1\n      tag_45\n      jump\t// in\n    tag_48:\n      tag_49\n      jump\t// in\n    tag_47:\n      mload(0x40)\n      tag_50\n      swap2\n      swap1\n      tag_51\n      jump\t// in\n    tag_50:\n      mload(0x40)\n      dup1\n      swap2\n      sub\n      swap1\n      return\n        /* \"contract/3-4/ERC721Demo.sol\":2132:2292  function balanceOf(address owner) external view returns (uint256) {... */\n    tag_11:\n      tag_52\n      0x04\n      dup1\n      calldatasize\n      sub\n      dup2\n      add\n      swap1\n      tag_53\n      swap2\n      swap1\n      tag_54\n      jump\t// in\n    tag_53:\n      tag_55\n      jump\t// in\n    tag_52:\n      mload(0x40)\n      tag_56\n      swap2\n      swap1\n      tag_57\n      jump\t// in\n    tag_56:\n      mload(0x40)\n      dup1\n      swap2\n      sub\n      swap1\n      return\n        /* \"contract/3-4/ERC721Demo.sol\":4222:4443  function getApprove(uint256 tokenId)... */\n    tag_12:\n      tag_58\n      0x04\n      dup1\n      calldatasize\n      sub\n      dup2\n      add\n      swap1\n      tag_59\n      swap2\n      swap1\n      tag_45\n      jump\t// in\n    tag_59:\n      tag_60\n      jump\t// in\n    tag_58:\n      mload(0x40)\n      tag_61\n      swap2\n      swap1\n      tag_51\n      jump\t// in\n    tag_61:\n      mload(0x40)\n      dup1\n      swap2\n      sub\n      swap1\n      return\n        /* \"contract/3-4/ERC721Demo.sol\":4449:4585  function setApproveForAll(address operator, bool _approved) external {... */\n    tag_13:\n      tag_62\n      0x04\n      dup1\n      calldatasize\n      sub\n      dup2\n      add\n      swap1\n      tag_63\n      swap2\n      swap1\n      tag_64\n      jump\t// in\n    tag_63:\n      tag_65\n      jump\t// in\n    tag_62:\n      stop\n        /* \"contract/3-4/ERC721Demo.sol\":2976:3504  function safeTransferFrom(... */\n    tag_14:\n      tag_66\n      0x04\n      dup1\n      calldatasize\n      sub\n      dup2\n      add\n      swap1\n      tag_67\n      swap2\n      swap1\n      tag_68\n      jump\t// in\n    tag_67:\n      tag_69\n      jump\t// in\n    tag_66:\n      stop\n        /* \"contract/3-4/ERC721Demo.sol\":1815:1883  mapping(address => mapping(address => bool)) public isApprovalForAll */\n    tag_15:\n      tag_70\n      0x04\n      dup1\n      calldatasize\n      sub\n      dup2\n      add\n      swap1\n      tag_71\n      swap2\n      swap1\n      tag_30\n      jump\t// in\n    tag_71:\n      tag_72\n      jump\t// in\n    tag_70:\n      mload(0x40)\n      tag_73\n      swap2\n      swap1\n      tag_23\n      jump\t// in\n    tag_73:\n      mload(0x40)\n      dup1\n      swap2\n      sub\n      swap1\n      return\n        /* \"contract/3-4/ERC721Demo.sol\":1890:2126  function supportsInterface(bytes4 interfaceId)... */\n    tag_21:\n        /* \"contract/3-4/ERC721Demo.sol\":1984:1988  bool */\n      0x00\n        /* \"contract/3-4/ERC721Demo.sol\":2038:2063  type(IERC721).interfaceId */\n      0x2e43fb7100000000000000000000000000000000000000000000000000000000\n        /* \"contract/3-4/ERC721Demo.sol\":2023:2063  interfaceId == type(IERC721).interfaceId */\n      not(0xffffffffffffffffffffffffffffffffffffffffffffffffffffffff)\n      and\n        /* \"contract/3-4/ERC721Demo.sol\":2023:2034  interfaceId */\n      dup3\n        /* \"contract/3-4/ERC721Demo.sol\":2023:2063  interfaceId == type(IERC721).interfaceId */\n      not(0xffffffffffffffffffffffffffffffffffffffffffffffffffffffff)\n      and\n      eq\n        /* \"contract/3-4/ERC721Demo.sol\":2023:2119  interfaceId == type(IERC721).interfaceId ||... */\n      dup1\n      tag_75\n      jumpi\n      pop\n        /* \"contract/3-4/ERC721Demo.sol\":2094:2119  type(IERC165).interfaceId */\n      0x01ffc9a700000000000000000000000000000000000000000000000000000000\n        /* \"contract/3-4/ERC721Demo.sol\":2079:2119  interfaceId == type(IERC165).interfaceId */\n      not(0xffffffffffffffffffffffffffffffffffffffffffffffffffffffff)\n      and\n        /* \"contract/3-4/ERC721Demo.sol\":2079:2090  interfaceId */\n      dup3\n        /* \"contract/3-4/ERC721Demo.sol\":2079:2119  interfaceId == type(IERC165).interfaceId */\n      not(0xffffffffffffffffffffffffffffffffffffffffffffffffffffffff)\n      and\n      eq\n        /* \"contract/3-4/ERC721Demo.sol\":2023:2119  interfaceId == type(IERC721).interfaceId ||... */\n    tag_75:\n        /* \"contract/3-4/ERC721Demo.sol\":2004:2119  return... */\n      swap1\n      pop\n        /* \"contract/3-4/ERC721Demo.sol\":1890:2126  function supportsInterface(bytes4 interfaceId)... */\n      swap2\n      swap1\n      pop\n      jump\t// out\n        /* \"contract/3-4/ERC721Demo.sol\":3910:4216  function approve(address to, uint256 tokenId) external {... */\n    tag_27:\n        /* \"contract/3-4/ERC721Demo.sol\":3975:3988  address owner */\n      0x00\n        /* \"contract/3-4/ERC721Demo.sol\":3991:3999  _ownerOf */\n      dup1\n        /* \"contract/3-4/ERC721Demo.sol\":3991:4008  _ownerOf[tokenId] */\n      0x00\n        /* \"contract/3-4/ERC721Demo.sol\":4000:4007  tokenId */\n      dup4\n        /* \"contract/3-4/ERC721Demo.sol\":3991:4008  _ownerOf[tokenId] */\n      dup2\n      mstore\n      0x20\n      add\n      swap1\n      dup2\n      mstore\n      0x20\n      add\n      0x00\n      keccak256\n      0x00\n      swap1\n      sload\n      swap1\n      0x0100\n      exp\n      swap1\n      div\n      0xffffffffffffffffffffffffffffffffffffffff\n      and\n        /* \"contract/3-4/ERC721Demo.sol\":3975:4008  address owner = _ownerOf[tokenId] */\n      swap1\n      pop\n        /* \"contract/3-4/ERC721Demo.sol\":4053:4058  owner */\n      dup1\n        /* \"contract/3-4/ERC721Demo.sol\":4039:4058  msg.sender == owner */\n      0xffffffffffffffffffffffffffffffffffffffff\n      and\n        /* \"contract/3-4/ERC721Demo.sol\":4039:4049  msg.sender */\n      caller\n        /* \"contract/3-4/ERC721Demo.sol\":4039:4058  msg.sender == owner */\n      0xffffffffffffffffffffffffffffffffffffffff\n      and\n      eq\n        /* \"contract/3-4/ERC721Demo.sol\":4039:4097  msg.sender == owner || isApprovalForAll[owner][msg.sender] */\n      dup1\n      tag_77\n      jumpi\n      pop\n        /* \"contract/3-4/ERC721Demo.sol\":4062:4078  isApprovalForAll */\n      0x03\n        /* \"contract/3-4/ERC721Demo.sol\":4062:4085  isApprovalForAll[owner] */\n      0x00\n        /* \"contract/3-4/ERC721Demo.sol\":4079:4084  owner */\n      dup3\n        /* \"contract/3-4/ERC721Demo.sol\":4062:4085  isApprovalForAll[owner] */\n      0xffffffffffffffffffffffffffffffffffffffff\n      and\n      0xffffffffffffffffffffffffffffffffffffffff\n      and\n      dup2\n      mstore\n      0x20\n      add\n      swap1\n      dup2\n      mstore\n      0x20\n      add\n      0x00\n      keccak256\n        /* \"contract/3-4/ERC721Demo.sol\":4062:4097  isApprovalForAll[owner][msg.sender] */\n      0x00\n        /* \"contract/3-4/ERC721Demo.sol\":4086:4096  msg.sender */\n      caller\n        /* \"contract/3-4/ERC721Demo.sol\":4062:4097  isApprovalForAll[owner][msg.sender] */\n      0xffffffffffffffffffffffffffffffffffffffff\n      and\n      0xffffffffffffffffffffffffffffffffffffffff\n      and\n      dup2\n      mstore\n      0x20\n      add\n      swap1\n      dup2\n      mstore\n      0x20\n      add\n      0x00\n      keccak256\n      0x00\n      swap1\n      sload\n      swap1\n      0x0100\n      exp\n      swap1\n      div\n      0xff\n      and\n        /* \"contract/3-4/ERC721Demo.sol\":4039:4097  msg.sender == owner || isApprovalForAll[owner][msg.sender] */\n    tag_77:\n        /* \"contract/3-4/ERC721Demo.sol\":4018:4132  require(... */\n      tag_78\n      jumpi\n      mload(0x40)\n      0x08c379a000000000000000000000000000000000000000000000000000000000\n      dup2\n      mstore\n      0x04\n      add\n      tag_79\n      swap1\n      tag_80\n      jump\t// in\n    tag_79:\n      mload(0x40)\n      dup1\n      swap2\n      sub\n      swap1\n      revert\n    tag_78:\n        /* \"contract/3-4/ERC721Demo.sol\":4164:4166  to */\n      dup3\n        /* \"contract/3-4/ERC721Demo.sol\":4142:4152  _approvals */\n      0x02\n        /* \"contract/3-4/ERC721Demo.sol\":4142:4161  _approvals[tokenId] */\n      0x00\n        /* \"contract/3-4/ERC721Demo.sol\":4153:4160  tokenId */\n      dup5\n        /* \"contract/3-4/ERC721Demo.sol\":4142:4161  _approvals[tokenId] */\n      dup2\n      mstore\n      0x20\n      add\n      swap1\n      dup2\n      mstore\n      0x20\n      add\n      0x00\n      keccak256\n      0x00\n        /* \"contract/3-4/ERC721Demo.sol\":4142:4166  _approvals[tokenId] = to */\n      0x0100\n      exp\n      dup2\n      sload\n      dup2\n      0xffffffffffffffffffffffffffffffffffffffff\n      mul\n      not\n      and\n      swap1\n      dup4\n      0xffffffffffffffffffffffffffffffffffffffff\n      and\n      mul\n      or\n      swap1\n      sstore\n      pop\n        /* \"contract/3-4/ERC721Demo.sol\":4201:4208  tokenId */\n      dup2\n        /* \"contract/3-4/ERC721Demo.sol\":4197:4199  to */\n      dup4\n        /* \"contract/3-4/ERC721Demo.sol\":4181:4209  Approval(owner, to, tokenId) */\n      0xffffffffffffffffffffffffffffffffffffffff\n      and\n        /* \"contract/3-4/ERC721Demo.sol\":4190:4195  owner */\n      dup3\n        /* \"contract/3-4/ERC721Demo.sol\":4181:4209  Approval(owner, to, tokenId) */\n      0xffffffffffffffffffffffffffffffffffffffff\n      and\n      0x8c5be1e5ebec7d5bd14f71427d1e84f3dd0314c0f7b2291e5b200ac8c7c3b925\n      mload(0x40)\n      mload(0x40)\n      dup1\n      swap2\n      sub\n      swap1\n      log4\n        /* \"contract/3-4/ERC721Demo.sol\":3965:4216  {... */\n      pop\n        /* \"contract/3-4/ERC721Demo.sol\":3910:4216  function approve(address to, uint256 tokenId) external {... */\n      pop\n      pop\n      jump\t// out\n        /* \"contract/3-4/ERC721Demo.sol\":4591:4708  function isApproveForAll(address owner, address operator)... */\n    tag_31:\n        /* \"contract/3-4/ERC721Demo.sol\":4696:4700  bool */\n      0x00\n        /* \"contract/3-4/ERC721Demo.sol\":4591:4708  function isApproveForAll(address owner, address operator)... */\n      swap3\n      swap2\n      pop\n      pop\n      jump\t// out\n        /* \"contract/3-4/ERC721Demo.sol\":3510:3904  function transferFrom(... */\n    tag_36:\n        /* \"contract/3-4/ERC721Demo.sol\":3638:3646  _ownerOf */\n      0x00\n        /* \"contract/3-4/ERC721Demo.sol\":3638:3655  _ownerOf[tokenId] */\n      dup1\n        /* \"contract/3-4/ERC721Demo.sol\":3647:3654  tokenId */\n      dup3\n        /* \"contract/3-4/ERC721Demo.sol\":3638:3655  _ownerOf[tokenId] */\n      dup2\n      mstore\n      0x20\n      add\n      swap1\n      dup2\n      mstore\n      0x20\n      add\n      0x00\n      keccak256\n      0x00\n      swap1\n      sload\n      swap1\n      0x0100\n      exp\n      swap1\n      div\n      0xffffffffffffffffffffffffffffffffffffffff\n      and\n        /* \"contract/3-4/ERC721Demo.sol\":3630:3655  from == _ownerOf[tokenId] */\n      0xffffffffffffffffffffffffffffffffffffffff\n      and\n        /* \"contract/3-4/ERC721Demo.sol\":3630:3634  from */\n      dup4\n        /* \"contract/3-4/ERC721Demo.sol\":3630:3655  from == _ownerOf[tokenId] */\n      0xffffffffffffffffffffffffffffffffffffffff\n      and\n      eq\n        /* \"contract/3-4/ERC721Demo.sol\":3622:3669  require(from == _ownerOf[tokenId], \"not owner\") */\n      tag_83\n      jumpi\n      mload(0x40)\n      0x08c379a000000000000000000000000000000000000000000000000000000000\n      dup2\n      mstore\n      0x04\n      add\n      tag_84\n      swap1\n      tag_80\n      jump\t// in\n    tag_84:\n      mload(0x40)\n      dup1\n      swap2\n      sub\n      swap1\n      revert\n    tag_83:\n        /* \"contract/3-4/ERC721Demo.sol\":3701:3702  0 */\n      0x00\n        /* \"contract/3-4/ERC721Demo.sol\":3687:3703  to != address(0) */\n      0xffffffffffffffffffffffffffffffffffffffff\n      and\n        /* \"contract/3-4/ERC721Demo.sol\":3687:3689  to */\n      dup3\n        /* \"contract/3-4/ERC721Demo.sol\":3687:3703  to != address(0) */\n      0xffffffffffffffffffffffffffffffffffffffff\n      and\n      sub\n        /* \"contract/3-4/ERC721Demo.sol\":3679:3720  require(to != address(0), \"can not zero\") */\n      tag_85\n      jumpi\n      mload(0x40)\n      0x08c379a000000000000000000000000000000000000000000000000000000000\n      dup2\n      mstore\n      0x04\n      add\n      tag_86\n      swap1\n      tag_87\n      jump\t// in\n    tag_86:\n      mload(0x40)\n      dup1\n      swap2\n      sub\n      swap1\n      revert\n    tag_85:\n        /* \"contract/3-4/ERC721Demo.sol\":3738:3785  _isApprovaledOrOwner(from, msg.sender, tokenId) */\n      tag_88\n        /* \"contract/3-4/ERC721Demo.sol\":3759:3763  from */\n      dup4\n        /* \"contract/3-4/ERC721Demo.sol\":3765:3775  msg.sender */\n      caller\n        /* \"contract/3-4/ERC721Demo.sol\":3777:3784  tokenId */\n      dup4\n        /* \"contract/3-4/ERC721Demo.sol\":3738:3758  _isApprovaledOrOwner */\n      tag_89\n        /* \"contract/3-4/ERC721Demo.sol\":3738:3785  _isApprovaledOrOwner(from, msg.sender, tokenId) */\n      jump\t// in\n    tag_88:\n        /* \"contract/3-4/ERC721Demo.sol\":3730:3786  require(_isApprovaledOrOwner(from, msg.sender, tokenId)) */\n      tag_90\n      jumpi\n      0x00\n      dup1\n      revert\n    tag_90:\n        /* \"contract/3-4/ERC721Demo.sol\":3817:3819  to */\n      dup2\n        /* \"contract/3-4/ERC721Demo.sol\":3797:3805  _ownerOf */\n      0x00\n        /* \"contract/3-4/ERC721Demo.sol\":3797:3814  _ownerOf[tokenId] */\n      dup1\n        /* \"contract/3-4/ERC721Demo.sol\":3806:3813  tokenId */\n      dup4\n        /* \"contract/3-4/ERC721Demo.sol\":3797:3814  _ownerOf[tokenId] */\n      dup2\n      mstore\n      0x20\n      add\n      swap1\n      dup2\n      mstore\n      0x20\n      add\n      0x00\n      keccak256\n      0x00\n        /* \"contract/3-4/ERC721Demo.sol\":3797:3819  _ownerOf[tokenId] = to */\n      0x0100\n      exp\n      dup2\n      sload\n      dup2\n      0xffffffffffffffffffffffffffffffffffffffff\n      mul\n      not\n      and\n      swap1\n      dup4\n      0xffffffffffffffffffffffffffffffffffffffff\n      and\n      mul\n      or\n      swap1\n      sstore\n      pop\n        /* \"contract/3-4/ERC721Demo.sol\":3836:3846  _approvals */\n      0x02\n        /* \"contract/3-4/ERC721Demo.sol\":3836:3855  _approvals[tokenId] */\n      0x00\n        /* \"contract/3-4/ERC721Demo.sol\":3847:3854  tokenId */\n      dup3\n        /* \"contract/3-4/ERC721Demo.sol\":3836:3855  _approvals[tokenId] */\n      dup2\n      mstore\n      0x20\n      add\n      swap1\n      dup2\n      mstore\n      0x20\n      add\n      0x00\n      keccak256\n      0x00\n        /* \"contract/3-4/ERC721Demo.sol\":3829:3855  delete _approvals[tokenId] */\n      0x0100\n      exp\n      dup2\n      sload\n      swap1\n      0xffffffffffffffffffffffffffffffffffffffff\n      mul\n      not\n      and\n      swap1\n      sstore\n        /* \"contract/3-4/ERC721Demo.sol\":3889:3896  tokenId */\n      dup1\n        /* \"contract/3-4/ERC721Demo.sol\":3885:3887  to */\n      dup3\n        /* \"contract/3-4/ERC721Demo.sol\":3870:3897  Transfer(from, to, tokenId) */\n      0xffffffffffffffffffffffffffffffffffffffff\n      and\n        /* \"contract/3-4/ERC721Demo.sol\":3879:3883  from */\n      dup5\n        /* \"contract/3-4/ERC721Demo.sol\":3870:3897  Transfer(from, to, tokenId) */\n      0xffffffffffffffffffffffffffffffffffffffff\n      and\n      0xddf252ad1be2c89b69c2b068fc378daa952ba7f163c4a11628f55a4df523b3ef\n      mload(0x40)\n      mload(0x40)\n      dup1\n      swap2\n      sub\n      swap1\n      log4\n        /* \"contract/3-4/ERC721Demo.sol\":3510:3904  function transferFrom(... */\n      pop\n      pop\n      pop\n      jump\t// out\n        /* \"contract/3-4/ERC721Demo.sol\":5622:5709  function mint(address to, uint256 tokenId) external {... */\n    tag_39:\n        /* \"contract/3-4/ERC721Demo.sol\":5684:5702  _mint(to, tokenId) */\n      tag_92\n        /* \"contract/3-4/ERC721Demo.sol\":5690:5692  to */\n      dup3\n        /* \"contract/3-4/ERC721Demo.sol\":5694:5701  tokenId */\n      dup3\n        /* \"contract/3-4/ERC721Demo.sol\":5684:5689  _mint */\n      tag_93\n        /* \"contract/3-4/ERC721Demo.sol\":5684:5702  _mint(to, tokenId) */\n      jump\t// in\n    tag_92:\n        /* \"contract/3-4/ERC721Demo.sol\":5622:5709  function mint(address to, uint256 tokenId) external {... */\n      pop\n      pop\n      jump\t// out\n        /* \"contract/3-4/ERC721Demo.sol\":2473:2970  function safeTransferFrom(... */\n    tag_42:\n        /* \"contract/3-4/ERC721Demo.sol\":2591:2622  transferFrom(from, to, tokenId) */\n      tag_95\n        /* \"contract/3-4/ERC721Demo.sol\":2604:2608  from */\n      dup4\n        /* \"contract/3-4/ERC721Demo.sol\":2610:2612  to */\n      dup4\n        /* \"contract/3-4/ERC721Demo.sol\":2614:2621  tokenId */\n      dup4\n        /* \"contract/3-4/ERC721Demo.sol\":2591:2603  transferFrom */\n      tag_36\n        /* \"contract/3-4/ERC721Demo.sol\":2591:2622  transferFrom(from, to, tokenId) */\n      jump\t// in\n    tag_95:\n        /* \"contract/3-4/ERC721Demo.sol\":2672:2673  0 */\n      0x00\n        /* \"contract/3-4/ERC721Demo.sol\":2654:2656  to */\n      dup3\n        /* \"contract/3-4/ERC721Demo.sol\":2654:2668  to.code.length */\n      0xffffffffffffffffffffffffffffffffffffffff\n      and\n      extcodesize\n        /* \"contract/3-4/ERC721Demo.sol\":2654:2673  to.code.length == 0 */\n      eq\n        /* \"contract/3-4/ERC721Demo.sol\":2654:2921  to.code.length == 0 ||... */\n      dup1\n      tag_96\n      jumpi\n      pop\n        /* \"contract/3-4/ERC721Demo.sol\":2879:2921  IERC721Receiver.onIERC721Received.selector */\n      shl(0xe0, 0xc3d7027a)\n        /* \"contract/3-4/ERC721Demo.sol\":2693:2921  IERC721Receiver(to).onIERC721Received(... */\n      not(0xffffffffffffffffffffffffffffffffffffffffffffffffffffffff)\n      and\n        /* \"contract/3-4/ERC721Demo.sol\":2709:2711  to */\n      dup3\n        /* \"contract/3-4/ERC721Demo.sol\":2693:2730  IERC721Receiver(to).onIERC721Received */\n      0xffffffffffffffffffffffffffffffffffffffff\n      and\n      0xc3d7027a\n        /* \"contract/3-4/ERC721Demo.sol\":2752:2762  msg.sender */\n      caller\n        /* \"contract/3-4/ERC721Demo.sol\":2784:2788  from */\n      dup7\n        /* \"contract/3-4/ERC721Demo.sol\":2810:2817  tokenId */\n      dup6\n        /* \"contract/3-4/ERC721Demo.sol\":2693:2859  IERC721Receiver(to).onIERC721Received(... */\n      mload(0x40)\n      dup5\n      0xffffffff\n      and\n      0xe0\n      shl\n      dup2\n      mstore\n      0x04\n      add\n      tag_97\n      swap4\n      swap3\n      swap2\n      swap1\n      tag_98\n      jump\t// in\n    tag_97:\n      0x20\n      mload(0x40)\n      dup1\n      dup4\n      sub\n      dup2\n      0x00\n      dup8\n      gas\n      call\n      iszero\n      dup1\n      iszero\n      tag_100\n      jumpi\n      returndatasize\n      0x00\n      dup1\n      returndatacopy\n      revert(0x00, returndatasize)\n    tag_100:\n      pop\n      pop\n      pop\n      pop\n      mload(0x40)\n      returndatasize\n      not(0x1f)\n      0x1f\n      dup3\n      add\n      and\n      dup3\n      add\n      dup1\n      0x40\n      mstore\n      pop\n      dup2\n      add\n      swap1\n      tag_101\n      swap2\n      swap1\n      tag_102\n      jump\t// in\n    tag_101:\n        /* \"contract/3-4/ERC721Demo.sol\":2693:2921  IERC721Receiver(to).onIERC721Received(... */\n      not(0xffffffffffffffffffffffffffffffffffffffffffffffffffffffff)\n      and\n      eq\n        /* \"contract/3-4/ERC721Demo.sol\":2654:2921  to.code.length == 0 ||... */\n    tag_96:\n        /* \"contract/3-4/ERC721Demo.sol\":2633:2963  require(... */\n      tag_103\n      jumpi\n      mload(0x40)\n      0x08c379a000000000000000000000000000000000000000000000000000000000\n      dup2\n      mstore\n      0x04\n      add\n      tag_104\n      swap1\n      tag_105\n      jump\t// in\n    tag_104:\n      mload(0x40)\n      dup1\n      swap2\n      sub\n      swap1\n      revert\n    tag_103:\n        /* \"contract/3-4/ERC721Demo.sol\":2473:2970  function safeTransferFrom(... */\n      pop\n      pop\n      pop\n      jump\t// out\n        /* \"contract/3-4/ERC721Demo.sol\":5715:5850  function burn(uint256 tokenId) external {... */\n    tag_46:\n        /* \"contract/3-4/ERC721Demo.sol\":5787:5795  _ownerOf */\n      0x00\n        /* \"contract/3-4/ERC721Demo.sol\":5787:5804  _ownerOf[tokenId] */\n      dup1\n        /* \"contract/3-4/ERC721Demo.sol\":5796:5803  tokenId */\n      dup3\n        /* \"contract/3-4/ERC721Demo.sol\":5787:5804  _ownerOf[tokenId] */\n      dup2\n      mstore\n      0x20\n      add\n      swap1\n      dup2\n      mstore\n      0x20\n      add\n      0x00\n      keccak256\n      0x00\n      swap1\n      sload\n      swap1\n      0x0100\n      exp\n      swap1\n      div\n      0xffffffffffffffffffffffffffffffffffffffff\n      and\n        /* \"contract/3-4/ERC721Demo.sol\":5773:5804  msg.sender == _ownerOf[tokenId] */\n      0xffffffffffffffffffffffffffffffffffffffff\n      and\n        /* \"contract/3-4/ERC721Demo.sol\":5773:5783  msg.sender */\n      caller\n        /* \"contract/3-4/ERC721Demo.sol\":5773:5804  msg.sender == _ownerOf[tokenId] */\n      0xffffffffffffffffffffffffffffffffffffffff\n      and\n      eq\n        /* \"contract/3-4/ERC721Demo.sol\":5765:5819  require(msg.sender == _ownerOf[tokenId], \"not owner!\") */\n      tag_107\n      jumpi\n      mload(0x40)\n      0x08c379a000000000000000000000000000000000000000000000000000000000\n      dup2\n      mstore\n      0x04\n      add\n      tag_108\n      swap1\n      tag_109\n      jump\t// in\n    tag_108:\n      mload(0x40)\n      dup1\n      swap2\n      sub\n      swap1\n      revert\n    tag_107:\n        /* \"contract/3-4/ERC721Demo.sol\":5829:5843  _burn(tokenId) */\n      tag_110\n        /* \"contract/3-4/ERC721Demo.sol\":5835:5842  tokenId */\n      dup2\n        /* \"contract/3-4/ERC721Demo.sol\":5829:5834  _burn */\n      tag_111\n        /* \"contract/3-4/ERC721Demo.sol\":5829:5843  _burn(tokenId) */\n      jump\t// in\n    tag_110:\n        /* \"contract/3-4/ERC721Demo.sol\":5715:5850  function burn(uint256 tokenId) external {... */\n      pop\n      jump\t// out\n        /* \"contract/3-4/ERC721Demo.sol\":2298:2467  function ownerOf(uint256 tokenId) external view returns (address result) {... */\n    tag_49:\n        /* \"contract/3-4/ERC721Demo.sol\":2355:2369  address result */\n      0x00\n        /* \"contract/3-4/ERC721Demo.sol\":2390:2398  _ownerOf */\n      dup1\n        /* \"contract/3-4/ERC721Demo.sol\":2390:2407  _ownerOf[tokenId] */\n      0x00\n        /* \"contract/3-4/ERC721Demo.sol\":2399:2406  tokenId */\n      dup4\n        /* \"contract/3-4/ERC721Demo.sol\":2390:2407  _ownerOf[tokenId] */\n      dup2\n      mstore\n      0x20\n      add\n      swap1\n      dup2\n      mstore\n      0x20\n      add\n      0x00\n      keccak256\n      0x00\n      swap1\n      sload\n      swap1\n      0x0100\n      exp\n      swap1\n      div\n      0xffffffffffffffffffffffffffffffffffffffff\n      and\n        /* \"contract/3-4/ERC721Demo.sol\":2381:2407  result = _ownerOf[tokenId] */\n      swap1\n      pop\n        /* \"contract/3-4/ERC721Demo.sol\":2443:2444  0 */\n      0x00\n        /* \"contract/3-4/ERC721Demo.sol\":2425:2445  result != address(0) */\n      0xffffffffffffffffffffffffffffffffffffffff\n      and\n        /* \"contract/3-4/ERC721Demo.sol\":2425:2431  result */\n      dup2\n        /* \"contract/3-4/ERC721Demo.sol\":2425:2445  result != address(0) */\n      0xffffffffffffffffffffffffffffffffffffffff\n      and\n      sub\n        /* \"contract/3-4/ERC721Demo.sol\":2417:2460  require(result != address(0), \"address 0!\") */\n      tag_113\n      jumpi\n      mload(0x40)\n      0x08c379a000000000000000000000000000000000000000000000000000000000\n      dup2\n      mstore\n      0x04\n      add\n      tag_114\n      swap1\n      tag_115\n      jump\t// in\n    tag_114:\n      mload(0x40)\n      dup1\n      swap2\n      sub\n      swap1\n      revert\n    tag_113:\n        /* \"contract/3-4/ERC721Demo.sol\":2298:2467  function ownerOf(uint256 tokenId) external view returns (address result) {... */\n      swap2\n      swap1\n      pop\n      jump\t// out\n        /* \"contract/3-4/ERC721Demo.sol\":2132:2292  function balanceOf(address owner) external view returns (uint256) {... */\n    tag_55:\n        /* \"contract/3-4/ERC721Demo.sol\":2189:2196  uint256 */\n      0x00\n        /* \"contract/3-4/ERC721Demo.sol\":2233:2234  0 */\n      dup1\n        /* \"contract/3-4/ERC721Demo.sol\":2216:2235  owner != address(0) */\n      0xffffffffffffffffffffffffffffffffffffffff\n      and\n        /* \"contract/3-4/ERC721Demo.sol\":2216:2221  owner */\n      dup3\n        /* \"contract/3-4/ERC721Demo.sol\":2216:2235  owner != address(0) */\n      0xffffffffffffffffffffffffffffffffffffffff\n      and\n      sub\n        /* \"contract/3-4/ERC721Demo.sol\":2208:2250  require(owner != address(0), \"address 0!\") */\n      tag_117\n      jumpi\n      mload(0x40)\n      0x08c379a000000000000000000000000000000000000000000000000000000000\n      dup2\n      mstore\n      0x04\n      add\n      tag_118\n      swap1\n      tag_115\n      jump\t// in\n    tag_118:\n      mload(0x40)\n      dup1\n      swap2\n      sub\n      swap1\n      revert\n    tag_117:\n        /* \"contract/3-4/ERC721Demo.sol\":2267:2278  _banlanceOf */\n      0x01\n        /* \"contract/3-4/ERC721Demo.sol\":2267:2285  _banlanceOf[owner] */\n      0x00\n        /* \"contract/3-4/ERC721Demo.sol\":2279:2284  owner */\n      dup4\n        /* \"contract/3-4/ERC721Demo.sol\":2267:2285  _banlanceOf[owner] */\n      0xffffffffffffffffffffffffffffffffffffffff\n      and\n      0xffffffffffffffffffffffffffffffffffffffff\n      and\n      dup2\n      mstore\n      0x20\n      add\n      swap1\n      dup2\n      mstore\n      0x20\n      add\n      0x00\n      keccak256\n      sload\n        /* \"contract/3-4/ERC721Demo.sol\":2260:2285  return _banlanceOf[owner] */\n      swap1\n      pop\n        /* \"contract/3-4/ERC721Demo.sol\":2132:2292  function balanceOf(address owner) external view returns (uint256) {... */\n      swap2\n      swap1\n      pop\n      jump\t// out\n        /* \"contract/3-4/ERC721Demo.sol\":4222:4443  function getApprove(uint256 tokenId)... */\n    tag_60:\n        /* \"contract/3-4/ERC721Demo.sol\":4306:4322  address operator */\n      0x00\n        /* \"contract/3-4/ERC721Demo.sol\":4375:4376  0 */\n      dup1\n        /* \"contract/3-4/ERC721Demo.sol\":4346:4377  _ownerOf[tokenId] != address(0) */\n      0xffffffffffffffffffffffffffffffffffffffff\n      and\n        /* \"contract/3-4/ERC721Demo.sol\":4346:4354  _ownerOf */\n      0x00\n        /* \"contract/3-4/ERC721Demo.sol\":4346:4363  _ownerOf[tokenId] */\n      dup1\n        /* \"contract/3-4/ERC721Demo.sol\":4355:4362  tokenId */\n      dup5\n        /* \"contract/3-4/ERC721Demo.sol\":4346:4363  _ownerOf[tokenId] */\n      dup2\n      mstore\n      0x20\n      add\n      swap1\n      dup2\n      mstore\n      0x20\n      add\n      0x00\n      keccak256\n      0x00\n      swap1\n      sload\n      swap1\n      0x0100\n      exp\n      swap1\n      div\n      0xffffffffffffffffffffffffffffffffffffffff\n      and\n        /* \"contract/3-4/ERC721Demo.sol\":4346:4377  _ownerOf[tokenId] != address(0) */\n      0xffffffffffffffffffffffffffffffffffffffff\n      and\n      sub\n        /* \"contract/3-4/ERC721Demo.sol\":4338:4396  require(_ownerOf[tokenId] != address(0), \"zero address !\") */\n      tag_120\n      jumpi\n      mload(0x40)\n      0x08c379a000000000000000000000000000000000000000000000000000000000\n      dup2\n      mstore\n      0x04\n      add\n      tag_121\n      swap1\n      tag_122\n      jump\t// in\n    tag_121:\n      mload(0x40)\n      dup1\n      swap2\n      sub\n      swap1\n      revert\n    tag_120:\n        /* \"contract/3-4/ERC721Demo.sol\":4417:4427  _approvals */\n      0x02\n        /* \"contract/3-4/ERC721Demo.sol\":4417:4436  _approvals[tokenId] */\n      0x00\n        /* \"contract/3-4/ERC721Demo.sol\":4428:4435  tokenId */\n      dup4\n        /* \"contract/3-4/ERC721Demo.sol\":4417:4436  _approvals[tokenId] */\n      dup2\n      mstore\n      0x20\n      add\n      swap1\n      dup2\n      mstore\n      0x20\n      add\n      0x00\n      keccak256\n      0x00\n      swap1\n      sload\n      swap1\n      0x0100\n      exp\n      swap1\n      div\n      0xffffffffffffffffffffffffffffffffffffffff\n      and\n        /* \"contract/3-4/ERC721Demo.sol\":4406:4436  operator = _approvals[tokenId] */\n      swap1\n      pop\n        /* \"contract/3-4/ERC721Demo.sol\":4222:4443  function getApprove(uint256 tokenId)... */\n      swap2\n      swap1\n      pop\n      jump\t// out\n        /* \"contract/3-4/ERC721Demo.sol\":4449:4585  function setApproveForAll(address operator, bool _approved) external {... */\n    tag_65:\n        /* \"contract/3-4/ERC721Demo.sol\":4569:4578  _approved */\n      dup1\n        /* \"contract/3-4/ERC721Demo.sol\":4528:4544  isApprovalForAll */\n      0x03\n        /* \"contract/3-4/ERC721Demo.sol\":4528:4556  isApprovalForAll[msg.sender] */\n      0x00\n        /* \"contract/3-4/ERC721Demo.sol\":4545:4555  msg.sender */\n      caller\n        /* \"contract/3-4/ERC721Demo.sol\":4528:4556  isApprovalForAll[msg.sender] */\n      0xffffffffffffffffffffffffffffffffffffffff\n      and\n      0xffffffffffffffffffffffffffffffffffffffff\n      and\n      dup2\n      mstore\n      0x20\n      add\n      swap1\n      dup2\n      mstore\n      0x20\n      add\n      0x00\n      keccak256\n        /* \"contract/3-4/ERC721Demo.sol\":4528:4566  isApprovalForAll[msg.sender][operator] */\n      0x00\n        /* \"contract/3-4/ERC721Demo.sol\":4557:4565  operator */\n      dup5\n        /* \"contract/3-4/ERC721Demo.sol\":4528:4566  isApprovalForAll[msg.sender][operator] */\n      0xffffffffffffffffffffffffffffffffffffffff\n      and\n      0xffffffffffffffffffffffffffffffffffffffff\n      and\n      dup2\n      mstore\n      0x20\n      add\n      swap1\n      dup2\n      mstore\n      0x20\n      add\n      0x00\n      keccak256\n      0x00\n        /* \"contract/3-4/ERC721Demo.sol\":4528:4578  isApprovalForAll[msg.sender][operator] = _approved */\n      0x0100\n      exp\n      dup2\n      sload\n      dup2\n      0xff\n      mul\n      not\n      and\n      swap1\n      dup4\n      iszero\n      iszero\n      mul\n      or\n      swap1\n      sstore\n      pop\n        /* \"contract/3-4/ERC721Demo.sol\":4449:4585  function setApproveForAll(address operator, bool _approved) external {... */\n      pop\n      pop\n      jump\t// out\n        /* \"contract/3-4/ERC721Demo.sol\":2976:3504  function safeTransferFrom(... */\n    tag_69:\n        /* \"contract/3-4/ERC721Demo.sol\":3123:3154  transferFrom(from, to, tokenId) */\n      tag_125\n        /* \"contract/3-4/ERC721Demo.sol\":3136:3140  from */\n      dup6\n        /* \"contract/3-4/ERC721Demo.sol\":3142:3144  to */\n      dup6\n        /* \"contract/3-4/ERC721Demo.sol\":3146:3153  tokenId */\n      dup6\n        /* \"contract/3-4/ERC721Demo.sol\":3123:3135  transferFrom */\n      tag_36\n        /* \"contract/3-4/ERC721Demo.sol\":3123:3154  transferFrom(from, to, tokenId) */\n      jump\t// in\n    tag_125:\n        /* \"contract/3-4/ERC721Demo.sol\":3204:3205  0 */\n      0x00\n        /* \"contract/3-4/ERC721Demo.sol\":3186:3188  to */\n      dup5\n        /* \"contract/3-4/ERC721Demo.sol\":3186:3200  to.code.length */\n      0xffffffffffffffffffffffffffffffffffffffff\n      and\n      extcodesize\n        /* \"contract/3-4/ERC721Demo.sol\":3186:3205  to.code.length == 0 */\n      eq\n        /* \"contract/3-4/ERC721Demo.sol\":3186:3455  to.code.length == 0 ||... */\n      dup1\n      tag_126\n      jumpi\n      pop\n        /* \"contract/3-4/ERC721Demo.sol\":3413:3455  IERC721Receiver.onIERC721Received.selector */\n      shl(0xe0, 0xc3d7027a)\n        /* \"contract/3-4/ERC721Demo.sol\":3225:3455  IERC721Receiver(to).onIERC721Received(... */\n      not(0xffffffffffffffffffffffffffffffffffffffffffffffffffffffff)\n      and\n        /* \"contract/3-4/ERC721Demo.sol\":3241:3243  to */\n      dup5\n        /* \"contract/3-4/ERC721Demo.sol\":3225:3262  IERC721Receiver(to).onIERC721Received */\n      0xffffffffffffffffffffffffffffffffffffffff\n      and\n      0xc3d7027a\n        /* \"contract/3-4/ERC721Demo.sol\":3284:3294  msg.sender */\n      caller\n        /* \"contract/3-4/ERC721Demo.sol\":3316:3320  from */\n      dup9\n        /* \"contract/3-4/ERC721Demo.sol\":3342:3349  tokenId */\n      dup8\n        /* \"contract/3-4/ERC721Demo.sol\":3371:3375  data */\n      dup8\n      dup8\n        /* \"contract/3-4/ERC721Demo.sol\":3225:3393  IERC721Receiver(to).onIERC721Received(... */\n      mload(0x40)\n      dup7\n      0xffffffff\n      and\n      0xe0\n      shl\n      dup2\n      mstore\n      0x04\n      add\n      tag_127\n      swap6\n      swap5\n      swap4\n      swap3\n      swap2\n      swap1\n      tag_128\n      jump\t// in\n    tag_127:\n      0x20\n      mload(0x40)\n      dup1\n      dup4\n      sub\n      dup2\n      0x00\n      dup8\n      gas\n      call\n      iszero\n      dup1\n      iszero\n      tag_130\n      jumpi\n      returndatasize\n      0x00\n      dup1\n      returndatacopy\n      revert(0x00, returndatasize)\n    tag_130:\n      pop\n      pop\n      pop\n      pop\n      mload(0x40)\n      returndatasize\n      not(0x1f)\n      0x1f\n      dup3\n      add\n      and\n      dup3\n      add\n      dup1\n      0x40\n      mstore\n      pop\n      dup2\n      add\n      swap1\n      tag_131\n      swap2\n      swap1\n      tag_102\n      jump\t// in\n    tag_131:\n        /* \"contract/3-4/ERC721Demo.sol\":3225:3455  IERC721Receiver(to).onIERC721Received(... */\n      not(0xffffffffffffffffffffffffffffffffffffffffffffffffffffffff)\n      and\n      eq\n        /* \"contract/3-4/ERC721Demo.sol\":3186:3455  to.code.length == 0 ||... */\n    tag_126:\n        /* \"contract/3-4/ERC721Demo.sol\":3165:3497  require(... */\n      tag_132\n      jumpi\n      mload(0x40)\n      0x08c379a000000000000000000000000000000000000000000000000000000000\n      dup2\n      mstore\n      0x04\n      add\n      tag_133\n      swap1\n      tag_105\n      jump\t// in\n    tag_133:\n      mload(0x40)\n      dup1\n      swap2\n      sub\n      swap1\n      revert\n    tag_132:\n        /* \"contract/3-4/ERC721Demo.sol\":2976:3504  function safeTransferFrom(... */\n      pop\n      pop\n      pop\n      pop\n      pop\n      jump\t// out\n        /* \"contract/3-4/ERC721Demo.sol\":1815:1883  mapping(address => mapping(address => bool)) public isApprovalForAll */\n    tag_72:\n      mstore(0x20, 0x03)\n      dup2\n      0x00\n      mstore\n      mstore(0x20, keccak256(0x00, 0x40))\n      dup1\n      0x00\n      mstore\n      keccak256(0x00, 0x40)\n      0x00\n      swap2\n      pop\n      swap2\n      pop\n      swap1\n      sload\n      swap1\n      0x0100\n      exp\n      swap1\n      div\n      0xff\n      and\n      dup2\n      jump\t// out\n        /* \"contract/3-4/ERC721Demo.sol\":4714:4988  function _isApprovaledOrOwner(... */\n    tag_89:\n        /* \"contract/3-4/ERC721Demo.sol\":4846:4850  bool */\n      0x00\n        /* \"contract/3-4/ERC721Demo.sol\":4881:4886  owner */\n      dup4\n        /* \"contract/3-4/ERC721Demo.sol\":4870:4886  spender == owner */\n      0xffffffffffffffffffffffffffffffffffffffff\n      and\n        /* \"contract/3-4/ERC721Demo.sol\":4870:4877  spender */\n      dup4\n        /* \"contract/3-4/ERC721Demo.sol\":4870:4886  spender == owner */\n      0xffffffffffffffffffffffffffffffffffffffff\n      and\n      eq\n        /* \"contract/3-4/ERC721Demo.sol\":4870:4934  spender == owner ||... */\n      dup1\n      tag_135\n      jumpi\n      pop\n        /* \"contract/3-4/ERC721Demo.sol\":4902:4918  isApprovalForAll */\n      0x03\n        /* \"contract/3-4/ERC721Demo.sol\":4902:4925  isApprovalForAll[owner] */\n      0x00\n        /* \"contract/3-4/ERC721Demo.sol\":4919:4924  owner */\n      dup6\n        /* \"contract/3-4/ERC721Demo.sol\":4902:4925  isApprovalForAll[owner] */\n      0xffffffffffffffffffffffffffffffffffffffff\n      and\n      0xffffffffffffffffffffffffffffffffffffffff\n      and\n      dup2\n      mstore\n      0x20\n      add\n      swap1\n      dup2\n      mstore\n      0x20\n      add\n      0x00\n      keccak256\n        /* \"contract/3-4/ERC721Demo.sol\":4902:4934  isApprovalForAll[owner][spender] */\n      0x00\n        /* \"contract/3-4/ERC721Demo.sol\":4926:4933  spender */\n      dup5\n        /* \"contract/3-4/ERC721Demo.sol\":4902:4934  isApprovalForAll[owner][spender] */\n      0xffffffffffffffffffffffffffffffffffffffff\n      and\n      0xffffffffffffffffffffffffffffffffffffffff\n      and\n      dup2\n      mstore\n      0x20\n      add\n      swap1\n      dup2\n      mstore\n      0x20\n      add\n      0x00\n      keccak256\n      0x00\n      swap1\n      sload\n      swap1\n      0x0100\n      exp\n      swap1\n      div\n      0xff\n      and\n        /* \"contract/3-4/ERC721Demo.sol\":4870:4934  spender == owner ||... */\n    tag_135:\n        /* \"contract/3-4/ERC721Demo.sol\":4870:4980  spender == owner ||... */\n      dup1\n      tag_136\n      jumpi\n      pop\n        /* \"contract/3-4/ERC721Demo.sol\":4961:4971  _approvals */\n      0x02\n        /* \"contract/3-4/ERC721Demo.sol\":4961:4980  _approvals[tokenId] */\n      0x00\n        /* \"contract/3-4/ERC721Demo.sol\":4972:4979  tokenId */\n      dup4\n        /* \"contract/3-4/ERC721Demo.sol\":4961:4980  _approvals[tokenId] */\n      dup2\n      mstore\n      0x20\n      add\n      swap1\n      dup2\n      mstore\n      0x20\n      add\n      0x00\n      keccak256\n      0x00\n      swap1\n      sload\n      swap1\n      0x0100\n      exp\n      swap1\n      div\n      0xffffffffffffffffffffffffffffffffffffffff\n      and\n        /* \"contract/3-4/ERC721Demo.sol\":4950:4980  spender == _approvals[tokenId] */\n      0xffffffffffffffffffffffffffffffffffffffff\n      and\n        /* \"contract/3-4/ERC721Demo.sol\":4950:4957  spender */\n      dup4\n        /* \"contract/3-4/ERC721Demo.sol\":4950:4980  spender == _approvals[tokenId] */\n      0xffffffffffffffffffffffffffffffffffffffff\n      and\n      eq\n        /* \"contract/3-4/ERC721Demo.sol\":4870:4980  spender == owner ||... */\n    tag_136:\n        /* \"contract/3-4/ERC721Demo.sol\":4862:4981  return (spender == owner ||... */\n      swap1\n      pop\n        /* \"contract/3-4/ERC721Demo.sol\":4714:4988  function _isApprovaledOrOwner(... */\n      swap4\n      swap3\n      pop\n      pop\n      pop\n      jump\t// out\n        /* \"contract/3-4/ERC721Demo.sol\":4994:5282  function _mint(address to, uint256 tokenId) internal {... */\n    tag_93:\n        /* \"contract/3-4/ERC721Demo.sol\":5079:5080  0 */\n      0x00\n        /* \"contract/3-4/ERC721Demo.sol\":5065:5081  to != address(0) */\n      0xffffffffffffffffffffffffffffffffffffffff\n      and\n        /* \"contract/3-4/ERC721Demo.sol\":5065:5067  to */\n      dup3\n        /* \"contract/3-4/ERC721Demo.sol\":5065:5081  to != address(0) */\n      0xffffffffffffffffffffffffffffffffffffffff\n      and\n      sub\n        /* \"contract/3-4/ERC721Demo.sol\":5057:5099  require(to != address(0), \"zero address!\") */\n      tag_138\n      jumpi\n      mload(0x40)\n      0x08c379a000000000000000000000000000000000000000000000000000000000\n      dup2\n      mstore\n      0x04\n      add\n      tag_139\n      swap1\n      tag_140\n      jump\t// in\n    tag_139:\n      mload(0x40)\n      dup1\n      swap2\n      sub\n      swap1\n      revert\n    tag_138:\n        /* \"contract/3-4/ERC721Demo.sol\":5146:5147  0 */\n      0x00\n        /* \"contract/3-4/ERC721Demo.sol\":5117:5148  _ownerOf[tokenId] != address(0) */\n      0xffffffffffffffffffffffffffffffffffffffff\n      and\n        /* \"contract/3-4/ERC721Demo.sol\":5117:5125  _ownerOf */\n      0x00\n        /* \"contract/3-4/ERC721Demo.sol\":5117:5134  _ownerOf[tokenId] */\n      dup1\n        /* \"contract/3-4/ERC721Demo.sol\":5126:5133  tokenId */\n      dup4\n        /* \"contract/3-4/ERC721Demo.sol\":5117:5134  _ownerOf[tokenId] */\n      dup2\n      mstore\n      0x20\n      add\n      swap1\n      dup2\n      mstore\n      0x20\n      add\n      0x00\n      keccak256\n      0x00\n      swap1\n      sload\n      swap1\n      0x0100\n      exp\n      swap1\n      div\n      0xffffffffffffffffffffffffffffffffffffffff\n      and\n        /* \"contract/3-4/ERC721Demo.sol\":5117:5148  _ownerOf[tokenId] != address(0) */\n      0xffffffffffffffffffffffffffffffffffffffff\n      and\n      sub\n        /* \"contract/3-4/ERC721Demo.sol\":5109:5166  require(_ownerOf[tokenId] != address(0), \"zero address!\") */\n      tag_141\n      jumpi\n      mload(0x40)\n      0x08c379a000000000000000000000000000000000000000000000000000000000\n      dup2\n      mstore\n      0x04\n      add\n      tag_142\n      swap1\n      tag_140\n      jump\t// in\n    tag_142:\n      mload(0x40)\n      dup1\n      swap2\n      sub\n      swap1\n      revert\n    tag_141:\n        /* \"contract/3-4/ERC721Demo.sol\":5177:5188  _banlanceOf */\n      0x01\n        /* \"contract/3-4/ERC721Demo.sol\":5177:5192  _banlanceOf[to] */\n      0x00\n        /* \"contract/3-4/ERC721Demo.sol\":5189:5191  to */\n      dup4\n        /* \"contract/3-4/ERC721Demo.sol\":5177:5192  _banlanceOf[to] */\n      0xffffffffffffffffffffffffffffffffffffffff\n      and\n      0xffffffffffffffffffffffffffffffffffffffff\n      and\n      dup2\n      mstore\n      0x20\n      add\n      swap1\n      dup2\n      mstore\n      0x20\n      add\n      0x00\n      keccak256\n      0x00\n        /* \"contract/3-4/ERC721Demo.sol\":5177:5194  _banlanceOf[to]++ */\n      dup2\n      sload\n      dup1\n      swap3\n      swap2\n      swap1\n      tag_143\n      swap1\n      tag_144\n      jump\t// in\n    tag_143:\n      swap2\n      swap1\n      pop\n      sstore\n      pop\n        /* \"contract/3-4/ERC721Demo.sol\":5224:5226  to */\n      dup2\n        /* \"contract/3-4/ERC721Demo.sol\":5204:5212  _ownerOf */\n      0x00\n        /* \"contract/3-4/ERC721Demo.sol\":5204:5221  _ownerOf[tokenId] */\n      dup1\n        /* \"contract/3-4/ERC721Demo.sol\":5213:5220  tokenId */\n      dup4\n        /* \"contract/3-4/ERC721Demo.sol\":5204:5221  _ownerOf[tokenId] */\n      dup2\n      mstore\n      0x20\n      add\n      swap1\n      dup2\n      mstore\n      0x20\n      add\n      0x00\n      keccak256\n      0x00\n        /* \"contract/3-4/ERC721Demo.sol\":5204:5226  _ownerOf[tokenId] = to */\n      0x0100\n      exp\n      dup2\n      sload\n      dup2\n      0xffffffffffffffffffffffffffffffffffffffff\n      mul\n      not\n      and\n      swap1\n      dup4\n      0xffffffffffffffffffffffffffffffffffffffff\n      and\n      mul\n      or\n      swap1\n      sstore\n      pop\n        /* \"contract/3-4/ERC721Demo.sol\":5267:5274  tokenId */\n      dup1\n        /* \"contract/3-4/ERC721Demo.sol\":5263:5265  to */\n      dup3\n        /* \"contract/3-4/ERC721Demo.sol\":5242:5275  Transfer(address(0), to, tokenId) */\n      0xffffffffffffffffffffffffffffffffffffffff\n      and\n        /* \"contract/3-4/ERC721Demo.sol\":5259:5260  0 */\n      0x00\n        /* \"contract/3-4/ERC721Demo.sol\":5242:5275  Transfer(address(0), to, tokenId) */\n      0xffffffffffffffffffffffffffffffffffffffff\n      and\n      0xddf252ad1be2c89b69c2b068fc378daa952ba7f163c4a11628f55a4df523b3ef\n      mload(0x40)\n      mload(0x40)\n      dup1\n      swap2\n      sub\n      swap1\n      log4\n        /* \"contract/3-4/ERC721Demo.sol\":4994:5282  function _mint(address to, uint256 tokenId) internal {... */\n      pop\n      pop\n      jump\t// out\n        /* \"contract/3-4/ERC721Demo.sol\":5288:5587  function _burn(uint256 tokenId) internal {... */\n    tag_111:\n        /* \"contract/3-4/ERC721Demo.sol\":5339:5352  address owner */\n      0x00\n        /* \"contract/3-4/ERC721Demo.sol\":5355:5363  _ownerOf */\n      dup1\n        /* \"contract/3-4/ERC721Demo.sol\":5355:5372  _ownerOf[tokenId] */\n      0x00\n        /* \"contract/3-4/ERC721Demo.sol\":5364:5371  tokenId */\n      dup4\n        /* \"contract/3-4/ERC721Demo.sol\":5355:5372  _ownerOf[tokenId] */\n      dup2\n      mstore\n      0x20\n      add\n      swap1\n      dup2\n      mstore\n      0x20\n      add\n      0x00\n      keccak256\n      0x00\n      swap1\n      sload\n      swap1\n      0x0100\n      exp\n      swap1\n      div\n      0xffffffffffffffffffffffffffffffffffffffff\n      and\n        /* \"contract/3-4/ERC721Demo.sol\":5339:5372  address owner = _ownerOf[tokenId] */\n      swap1\n      pop\n        /* \"contract/3-4/ERC721Demo.sol\":5407:5408  0 */\n      0x00\n        /* \"contract/3-4/ERC721Demo.sol\":5390:5409  owner != address(0) */\n      0xffffffffffffffffffffffffffffffffffffffff\n      and\n        /* \"contract/3-4/ERC721Demo.sol\":5390:5395  owner */\n      dup2\n        /* \"contract/3-4/ERC721Demo.sol\":5390:5409  owner != address(0) */\n      0xffffffffffffffffffffffffffffffffffffffff\n      and\n      sub\n        /* \"contract/3-4/ERC721Demo.sol\":5382:5427  require(owner != address(0), \"zero address!\") */\n      tag_146\n      jumpi\n      mload(0x40)\n      0x08c379a000000000000000000000000000000000000000000000000000000000\n      dup2\n      mstore\n      0x04\n      add\n      tag_147\n      swap1\n      tag_140\n      jump\t// in\n    tag_147:\n      mload(0x40)\n      dup1\n      swap2\n      sub\n      swap1\n      revert\n    tag_146:\n        /* \"contract/3-4/ERC721Demo.sol\":5438:5449  _banlanceOf */\n      0x01\n        /* \"contract/3-4/ERC721Demo.sol\":5438:5456  _banlanceOf[owner] */\n      0x00\n        /* \"contract/3-4/ERC721Demo.sol\":5450:5455  owner */\n      dup3\n        /* \"contract/3-4/ERC721Demo.sol\":5438:5456  _banlanceOf[owner] */\n      0xffffffffffffffffffffffffffffffffffffffff\n      and\n      0xffffffffffffffffffffffffffffffffffffffff\n      and\n      dup2\n      mstore\n      0x20\n      add\n      swap1\n      dup2\n      mstore\n      0x20\n      add\n      0x00\n      keccak256\n      0x00\n        /* \"contract/3-4/ERC721Demo.sol\":5438:5458  _banlanceOf[owner]-- */\n      dup2\n      sload\n      dup1\n      swap3\n      swap2\n      swap1\n      tag_148\n      swap1\n      tag_149\n      jump\t// in\n    tag_148:\n      swap2\n      swap1\n      pop\n      sstore\n      pop\n        /* \"contract/3-4/ERC721Demo.sol\":5475:5483  _ownerOf */\n      0x00\n        /* \"contract/3-4/ERC721Demo.sol\":5475:5492  _ownerOf[tokenId] */\n      dup1\n        /* \"contract/3-4/ERC721Demo.sol\":5484:5491  tokenId */\n      dup4\n        /* \"contract/3-4/ERC721Demo.sol\":5475:5492  _ownerOf[tokenId] */\n      dup2\n      mstore\n      0x20\n      add\n      swap1\n      dup2\n      mstore\n      0x20\n      add\n      0x00\n      keccak256\n      0x00\n        /* \"contract/3-4/ERC721Demo.sol\":5468:5492  delete _ownerOf[tokenId] */\n      0x0100\n      exp\n      dup2\n      sload\n      swap1\n      0xffffffffffffffffffffffffffffffffffffffff\n      mul\n      not\n      and\n      swap1\n      sstore\n        /* \"contract/3-4/ERC721Demo.sol\":5509:5519  _approvals */\n      0x02\n        /* \"contract/3-4/ERC721Demo.sol\":5509:5528  _approvals[tokenId] */\n      0x00\n        /* \"contract/3-4/ERC721Demo.sol\":5520:5527  tokenId */\n      dup4\n        /* \"contract/3-4/ERC721Demo.sol\":5509:5528  _approvals[tokenId] */\n      dup2\n      mstore\n      0x20\n      add\n      swap1\n      dup2\n      mstore\n      0x20\n      add\n      0x00\n      keccak256\n      0x00\n        /* \"contract/3-4/ERC721Demo.sol\":5502:5528  delete _approvals[tokenId] */\n      0x0100\n      exp\n      dup2\n      sload\n      swap1\n      0xffffffffffffffffffffffffffffffffffffffff\n      mul\n      not\n      and\n      swap1\n      sstore\n        /* \"contract/3-4/ERC721Demo.sol\":5572:5579  tokenId */\n      dup2\n        /* \"contract/3-4/ERC721Demo.sol\":5568:5569  0 */\n      0x00\n        /* \"contract/3-4/ERC721Demo.sol\":5544:5580  Transfer(owner, address(0), tokenId) */\n      0xffffffffffffffffffffffffffffffffffffffff\n      and\n        /* \"contract/3-4/ERC721Demo.sol\":5553:5558  owner */\n      dup3\n        /* \"contract/3-4/ERC721Demo.sol\":5544:5580  Transfer(owner, address(0), tokenId) */\n      0xffffffffffffffffffffffffffffffffffffffff\n      and\n      0xddf252ad1be2c89b69c2b068fc378daa952ba7f163c4a11628f55a4df523b3ef\n      mload(0x40)\n      mload(0x40)\n      dup1\n      swap2\n      sub\n      swap1\n      log4\n        /* \"contract/3-4/ERC721Demo.sol\":5329:5587  {... */\n      pop\n        /* \"contract/3-4/ERC721Demo.sol\":5288:5587  function _burn(uint256 tokenId) internal {... */\n      pop\n      jump\t// out\n        /* \"#utility.yul\":88:205   */\n    tag_151:\n        /* \"#utility.yul\":197:198   */\n      0x00\n        /* \"#utility.yul\":194:195   */\n      dup1\n        /* \"#utility.yul\":187:199   */\n      revert\n        /* \"#utility.yul\":211:328   */\n    tag_152:\n        /* \"#utility.yul\":320:321   */\n      0x00\n        /* \"#utility.yul\":317:318   */\n      dup1\n        /* \"#utility.yul\":310:322   */\n      revert\n        /* \"#utility.yul\":334:483   */\n    tag_153:\n        /* \"#utility.yul\":370:377   */\n      0x00\n        /* \"#utility.yul\":410:476   */\n      0xffffffff00000000000000000000000000000000000000000000000000000000\n        /* \"#utility.yul\":403:408   */\n      dup3\n        /* \"#utility.yul\":399:477   */\n      and\n        /* \"#utility.yul\":388:477   */\n      swap1\n      pop\n        /* \"#utility.yul\":334:483   */\n      swap2\n      swap1\n      pop\n      jump\t// out\n        /* \"#utility.yul\":489:609   */\n    tag_154:\n        /* \"#utility.yul\":561:584   */\n      tag_202\n        /* \"#utility.yul\":578:583   */\n      dup2\n        /* \"#utility.yul\":561:584   */\n      tag_153\n      jump\t// in\n    tag_202:\n        /* \"#utility.yul\":554:559   */\n      dup2\n        /* \"#utility.yul\":551:585   */\n      eq\n        /* \"#utility.yul\":541:603   */\n      tag_203\n      jumpi\n        /* \"#utility.yul\":599:600   */\n      0x00\n        /* \"#utility.yul\":596:597   */\n      dup1\n        /* \"#utility.yul\":589:601   */\n      revert\n        /* \"#utility.yul\":541:603   */\n    tag_203:\n        /* \"#utility.yul\":489:609   */\n      pop\n      jump\t// out\n        /* \"#utility.yul\":615:752   */\n    tag_155:\n        /* \"#utility.yul\":660:665   */\n      0x00\n        /* \"#utility.yul\":698:704   */\n      dup2\n        /* \"#utility.yul\":685:705   */\n      calldataload\n        /* \"#utility.yul\":676:705   */\n      swap1\n      pop\n        /* \"#utility.yul\":714:746   */\n      tag_205\n        /* \"#utility.yul\":740:745   */\n      dup2\n        /* \"#utility.yul\":714:746   */\n      tag_154\n      jump\t// in\n    tag_205:\n        /* \"#utility.yul\":615:752   */\n      swap3\n      swap2\n      pop\n      pop\n      jump\t// out\n        /* \"#utility.yul\":758:1085   */\n    tag_20:\n        /* \"#utility.yul\":816:822   */\n      0x00\n        /* \"#utility.yul\":865:867   */\n      0x20\n        /* \"#utility.yul\":853:862   */\n      dup3\n        /* \"#utility.yul\":844:851   */\n      dup5\n        /* \"#utility.yul\":840:863   */\n      sub\n        /* \"#utility.yul\":836:868   */\n      slt\n        /* \"#utility.yul\":833:952   */\n      iszero\n      tag_207\n      jumpi\n        /* \"#utility.yul\":871:950   */\n      tag_208\n      tag_151\n      jump\t// in\n    tag_208:\n        /* \"#utility.yul\":833:952   */\n    tag_207:\n        /* \"#utility.yul\":991:992   */\n      0x00\n        /* \"#utility.yul\":1016:1068   */\n      tag_209\n        /* \"#utility.yul\":1060:1067   */\n      dup5\n        /* \"#utility.yul\":1051:1057   */\n      dup3\n        /* \"#utility.yul\":1040:1049   */\n      dup6\n        /* \"#utility.yul\":1036:1058   */\n      add\n        /* \"#utility.yul\":1016:1068   */\n      tag_155\n      jump\t// in\n    tag_209:\n        /* \"#utility.yul\":1006:1068   */\n      swap2\n      pop\n        /* \"#utility.yul\":962:1078   */\n      pop\n        /* \"#utility.yul\":758:1085   */\n      swap3\n      swap2\n      pop\n      pop\n      jump\t// out\n        /* \"#utility.yul\":1091:1181   */\n    tag_156:\n        /* \"#utility.yul\":1125:1132   */\n      0x00\n        /* \"#utility.yul\":1168:1173   */\n      dup2\n        /* \"#utility.yul\":1161:1174   */\n      iszero\n        /* \"#utility.yul\":1154:1175   */\n      iszero\n        /* \"#utility.yul\":1143:1175   */\n      swap1\n      pop\n        /* \"#utility.yul\":1091:1181   */\n      swap2\n      swap1\n      pop\n      jump\t// out\n        /* \"#utility.yul\":1187:1296   */\n    tag_157:\n        /* \"#utility.yul\":1268:1289   */\n      tag_212\n        /* \"#utility.yul\":1283:1288   */\n      dup2\n        /* \"#utility.yul\":1268:1289   */\n      tag_156\n      jump\t// in\n    tag_212:\n        /* \"#utility.yul\":1263:1266   */\n      dup3\n        /* \"#utility.yul\":1256:1290   */\n      mstore\n        /* \"#utility.yul\":1187:1296   */\n      pop\n      pop\n      jump\t// out\n        /* \"#utility.yul\":1302:1512   */\n    tag_23:\n        /* \"#utility.yul\":1389:1393   */\n      0x00\n        /* \"#utility.yul\":1427:1429   */\n      0x20\n        /* \"#utility.yul\":1416:1425   */\n      dup3\n        /* \"#utility.yul\":1412:1430   */\n      add\n        /* \"#utility.yul\":1404:1430   */\n      swap1\n      pop\n        /* \"#utility.yul\":1440:1505   */\n      tag_214\n        /* \"#utility.yul\":1502:1503   */\n      0x00\n        /* \"#utility.yul\":1491:1500   */\n      dup4\n        /* \"#utility.yul\":1487:1504   */\n      add\n        /* \"#utility.yul\":1478:1484   */\n      dup5\n        /* \"#utility.yul\":1440:1505   */\n      tag_157\n      jump\t// in\n    tag_214:\n        /* \"#utility.yul\":1302:1512   */\n      swap3\n      swap2\n      pop\n      pop\n      jump\t// out\n        /* \"#utility.yul\":1518:1644   */\n    tag_158:\n        /* \"#utility.yul\":1555:1562   */\n      0x00\n        /* \"#utility.yul\":1595:1637   */\n      0xffffffffffffffffffffffffffffffffffffffff\n        /* \"#utility.yul\":1588:1593   */\n      dup3\n        /* \"#utility.yul\":1584:1638   */\n      and\n        /* \"#utility.yul\":1573:1638   */\n      swap1\n      pop\n        /* \"#utility.yul\":1518:1644   */\n      swap2\n      swap1\n      pop\n      jump\t// out\n        /* \"#utility.yul\":1650:1746   */\n    tag_159:\n        /* \"#utility.yul\":1687:1694   */\n      0x00\n        /* \"#utility.yul\":1716:1740   */\n      tag_217\n        /* \"#utility.yul\":1734:1739   */\n      dup3\n        /* \"#utility.yul\":1716:1740   */\n      tag_158\n      jump\t// in\n    tag_217:\n        /* \"#utility.yul\":1705:1740   */\n      swap1\n      pop\n        /* \"#utility.yul\":1650:1746   */\n      swap2\n      swap1\n      pop\n      jump\t// out\n        /* \"#utility.yul\":1752:1874   */\n    tag_160:\n        /* \"#utility.yul\":1825:1849   */\n      tag_219\n        /* \"#utility.yul\":1843:1848   */\n      dup2\n        /* \"#utility.yul\":1825:1849   */\n      tag_159\n      jump\t// in\n    tag_219:\n        /* \"#utility.yul\":1818:1823   */\n      dup2\n        /* \"#utility.yul\":1815:1850   */\n      eq\n        /* \"#utility.yul\":1805:1868   */\n      tag_220\n      jumpi\n        /* \"#utility.yul\":1864:1865   */\n      0x00\n        /* \"#utility.yul\":1861:1862   */\n      dup1\n        /* \"#utility.yul\":1854:1866   */\n      revert\n        /* \"#utility.yul\":1805:1868   */\n    tag_220:\n        /* \"#utility.yul\":1752:1874   */\n      pop\n      jump\t// out\n        /* \"#utility.yul\":1880:2019   */\n    tag_161:\n        /* \"#utility.yul\":1926:1931   */\n      0x00\n        /* \"#utility.yul\":1964:1970   */\n      dup2\n        /* \"#utility.yul\":1951:1971   */\n      calldataload\n        /* \"#utility.yul\":1942:1971   */\n      swap1\n      pop\n        /* \"#utility.yul\":1980:2013   */\n      tag_222\n        /* \"#utility.yul\":2007:2012   */\n      dup2\n        /* \"#utility.yul\":1980:2013   */\n      tag_160\n      jump\t// in\n    tag_222:\n        /* \"#utility.yul\":1880:2019   */\n      swap3\n      swap2\n      pop\n      pop\n      jump\t// out\n        /* \"#utility.yul\":2025:2102   */\n    tag_162:\n        /* \"#utility.yul\":2062:2069   */\n      0x00\n        /* \"#utility.yul\":2091:2096   */\n      dup2\n        /* \"#utility.yul\":2080:2096   */\n      swap1\n      pop\n        /* \"#utility.yul\":2025:2102   */\n      swap2\n      swap1\n      pop\n      jump\t// out\n        /* \"#utility.yul\":2108:2230   */\n    tag_163:\n        /* \"#utility.yul\":2181:2205   */\n      tag_225\n        /* \"#utility.yul\":2199:2204   */\n      dup2\n        /* \"#utility.yul\":2181:2205   */\n      tag_162\n      jump\t// in\n    tag_225:\n        /* \"#utility.yul\":2174:2179   */\n      dup2\n        /* \"#utility.yul\":2171:2206   */\n      eq\n        /* \"#utility.yul\":2161:2224   */\n      tag_226\n      jumpi\n        /* \"#utility.yul\":2220:2221   */\n      0x00\n        /* \"#utility.yul\":2217:2218   */\n      dup1\n        /* \"#utility.yul\":2210:2222   */\n      revert\n        /* \"#utility.yul\":2161:2224   */\n    tag_226:\n        /* \"#utility.yul\":2108:2230   */\n      pop\n      jump\t// out\n        /* \"#utility.yul\":2236:2375   */\n    tag_164:\n        /* \"#utility.yul\":2282:2287   */\n      0x00\n        /* \"#utility.yul\":2320:2326   */\n      dup2\n        /* \"#utility.yul\":2307:2327   */\n      calldataload\n        /* \"#utility.yul\":2298:2327   */\n      swap1\n      pop\n        /* \"#utility.yul\":2336:2369   */\n      tag_228\n        /* \"#utility.yul\":2363:2368   */\n      dup2\n        /* \"#utility.yul\":2336:2369   */\n      tag_163\n      jump\t// in\n    tag_228:\n        /* \"#utility.yul\":2236:2375   */\n      swap3\n      swap2\n      pop\n      pop\n      jump\t// out\n        /* \"#utility.yul\":2381:2855   */\n    tag_26:\n        /* \"#utility.yul\":2449:2455   */\n      0x00\n        /* \"#utility.yul\":2457:2463   */\n      dup1\n        /* \"#utility.yul\":2506:2508   */\n      0x40\n        /* \"#utility.yul\":2494:2503   */\n      dup4\n        /* \"#utility.yul\":2485:2492   */\n      dup6\n        /* \"#utility.yul\":2481:2504   */\n      sub\n        /* \"#utility.yul\":2477:2509   */\n      slt\n        /* \"#utility.yul\":2474:2593   */\n      iszero\n      tag_230\n      jumpi\n        /* \"#utility.yul\":2512:2591   */\n      tag_231\n      tag_151\n      jump\t// in\n    tag_231:\n        /* \"#utility.yul\":2474:2593   */\n    tag_230:\n        /* \"#utility.yul\":2632:2633   */\n      0x00\n        /* \"#utility.yul\":2657:2710   */\n      tag_232\n        /* \"#utility.yul\":2702:2709   */\n      dup6\n        /* \"#utility.yul\":2693:2699   */\n      dup3\n        /* \"#utility.yul\":2682:2691   */\n      dup7\n        /* \"#utility.yul\":2678:2700   */\n      add\n        /* \"#utility.yul\":2657:2710   */\n      tag_161\n      jump\t// in\n    tag_232:\n        /* \"#utility.yul\":2647:2710   */\n      swap3\n      pop\n        /* \"#utility.yul\":2603:2720   */\n      pop\n        /* \"#utility.yul\":2759:2761   */\n      0x20\n        /* \"#utility.yul\":2785:2838   */\n      tag_233\n        /* \"#utility.yul\":2830:2837   */\n      dup6\n        /* \"#utility.yul\":2821:2827   */\n      dup3\n        /* \"#utility.yul\":2810:2819   */\n      dup7\n        /* \"#utility.yul\":2806:2828   */\n      add\n        /* \"#utility.yul\":2785:2838   */\n      tag_164\n      jump\t// in\n    tag_233:\n        /* \"#utility.yul\":2775:2838   */\n      swap2\n      pop\n        /* \"#utility.yul\":2730:2848   */\n      pop\n        /* \"#utility.yul\":2381:2855   */\n      swap3\n      pop\n      swap3\n      swap1\n      pop\n      jump\t// out\n        /* \"#utility.yul\":2861:3335   */\n    tag_30:\n        /* \"#utility.yul\":2929:2935   */\n      0x00\n        /* \"#utility.yul\":2937:2943   */\n      dup1\n        /* \"#utility.yul\":2986:2988   */\n      0x40\n        /* \"#utility.yul\":2974:2983   */\n      dup4\n        /* \"#utility.yul\":2965:2972   */\n      dup6\n        /* \"#utility.yul\":2961:2984   */\n      sub\n        /* \"#utility.yul\":2957:2989   */\n      slt\n        /* \"#utility.yul\":2954:3073   */\n      iszero\n      tag_235\n      jumpi\n        /* \"#utility.yul\":2992:3071   */\n      tag_236\n      tag_151\n      jump\t// in\n    tag_236:\n        /* \"#utility.yul\":2954:3073   */\n    tag_235:\n        /* \"#utility.yul\":3112:3113   */\n      0x00\n        /* \"#utility.yul\":3137:3190   */\n      tag_237\n        /* \"#utility.yul\":3182:3189   */\n      dup6\n        /* \"#utility.yul\":3173:3179   */\n      dup3\n        /* \"#utility.yul\":3162:3171   */\n      dup7\n        /* \"#utility.yul\":3158:3180   */\n      add\n        /* \"#utility.yul\":3137:3190   */\n      tag_161\n      jump\t// in\n    tag_237:\n        /* \"#utility.yul\":3127:3190   */\n      swap3\n      pop\n        /* \"#utility.yul\":3083:3200   */\n      pop\n        /* \"#utility.yul\":3239:3241   */\n      0x20\n        /* \"#utility.yul\":3265:3318   */\n      tag_238\n        /* \"#utility.yul\":3310:3317   */\n      dup6\n        /* \"#utility.yul\":3301:3307   */\n      dup3\n        /* \"#utility.yul\":3290:3299   */\n      dup7\n        /* \"#utility.yul\":3286:3308   */\n      add\n        /* \"#utility.yul\":3265:3318   */\n      tag_161\n      jump\t// in\n    tag_238:\n        /* \"#utility.yul\":3255:3318   */\n      swap2\n      pop\n        /* \"#utility.yul\":3210:3328   */\n      pop\n        /* \"#utility.yul\":2861:3335   */\n      swap3\n      pop\n      swap3\n      swap1\n      pop\n      jump\t// out\n        /* \"#utility.yul\":3341:3960   */\n    tag_35:\n        /* \"#utility.yul\":3418:3424   */\n      0x00\n        /* \"#utility.yul\":3426:3432   */\n      dup1\n        /* \"#utility.yul\":3434:3440   */\n      0x00\n        /* \"#utility.yul\":3483:3485   */\n      0x60\n        /* \"#utility.yul\":3471:3480   */\n      dup5\n        /* \"#utility.yul\":3462:3469   */\n      dup7\n        /* \"#utility.yul\":3458:3481   */\n      sub\n        /* \"#utility.yul\":3454:3486   */\n      slt\n        /* \"#utility.yul\":3451:3570   */\n      iszero\n      tag_240\n      jumpi\n        /* \"#utility.yul\":3489:3568   */\n      tag_241\n      tag_151\n      jump\t// in\n    tag_241:\n        /* \"#utility.yul\":3451:3570   */\n    tag_240:\n        /* \"#utility.yul\":3609:3610   */\n      0x00\n        /* \"#utility.yul\":3634:3687   */\n      tag_242\n        /* \"#utility.yul\":3679:3686   */\n      dup7\n        /* \"#utility.yul\":3670:3676   */\n      dup3\n        /* \"#utility.yul\":3659:3668   */\n      dup8\n        /* \"#utility.yul\":3655:3677   */\n      add\n        /* \"#utility.yul\":3634:3687   */\n      tag_161\n      jump\t// in\n    tag_242:\n        /* \"#utility.yul\":3624:3687   */\n      swap4\n      pop\n        /* \"#utility.yul\":3580:3697   */\n      pop\n        /* \"#utility.yul\":3736:3738   */\n      0x20\n        /* \"#utility.yul\":3762:3815   */\n      tag_243\n        /* \"#utility.yul\":3807:3814   */\n      dup7\n        /* \"#utility.yul\":3798:3804   */\n      dup3\n        /* \"#utility.yul\":3787:3796   */\n      dup8\n        /* \"#utility.yul\":3783:3805   */\n      add\n        /* \"#utility.yul\":3762:3815   */\n      tag_161\n      jump\t// in\n    tag_243:\n        /* \"#utility.yul\":3752:3815   */\n      swap3\n      pop\n        /* \"#utility.yul\":3707:3825   */\n      pop\n        /* \"#utility.yul\":3864:3866   */\n      0x40\n        /* \"#utility.yul\":3890:3943   */\n      tag_244\n        /* \"#utility.yul\":3935:3942   */\n      dup7\n        /* \"#utility.yul\":3926:3932   */\n      dup3\n        /* \"#utility.yul\":3915:3924   */\n      dup8\n        /* \"#utility.yul\":3911:3933   */\n      add\n        /* \"#utility.yul\":3890:3943   */\n      tag_164\n      jump\t// in\n    tag_244:\n        /* \"#utility.yul\":3880:3943   */\n      swap2\n      pop\n        /* \"#utility.yul\":3835:3953   */\n      pop\n        /* \"#utility.yul\":3341:3960   */\n      swap3\n      pop\n      swap3\n      pop\n      swap3\n      jump\t// out\n        /* \"#utility.yul\":3966:4295   */\n    tag_45:\n        /* \"#utility.yul\":4025:4031   */\n      0x00\n        /* \"#utility.yul\":4074:4076   */\n      0x20\n        /* \"#utility.yul\":4062:4071   */\n      dup3\n        /* \"#utility.yul\":4053:4060   */\n      dup5\n        /* \"#utility.yul\":4049:4072   */\n      sub\n        /* \"#utility.yul\":4045:4077   */\n      slt\n        /* \"#utility.yul\":4042:4161   */\n      iszero\n      tag_246\n      jumpi\n        /* \"#utility.yul\":4080:4159   */\n      tag_247\n      tag_151\n      jump\t// in\n    tag_247:\n        /* \"#utility.yul\":4042:4161   */\n    tag_246:\n        /* \"#utility.yul\":4200:4201   */\n      0x00\n        /* \"#utility.yul\":4225:4278   */\n      tag_248\n        /* \"#utility.yul\":4270:4277   */\n      dup5\n        /* \"#utility.yul\":4261:4267   */\n      dup3\n        /* \"#utility.yul\":4250:4259   */\n      dup6\n        /* \"#utility.yul\":4246:4268   */\n      add\n        /* \"#utility.yul\":4225:4278   */\n      tag_164\n      jump\t// in\n    tag_248:\n        /* \"#utility.yul\":4215:4278   */\n      swap2\n      pop\n        /* \"#utility.yul\":4171:4288   */\n      pop\n        /* \"#utility.yul\":3966:4295   */\n      swap3\n      swap2\n      pop\n      pop\n      jump\t// out\n        /* \"#utility.yul\":4301:4419   */\n    tag_165:\n        /* \"#utility.yul\":4388:4412   */\n      tag_250\n        /* \"#utility.yul\":4406:4411   */\n      dup2\n        /* \"#utility.yul\":4388:4412   */\n      tag_159\n      jump\t// in\n    tag_250:\n        /* \"#utility.yul\":4383:4386   */\n      dup3\n        /* \"#utility.yul\":4376:4413   */\n      mstore\n        /* \"#utility.yul\":4301:4419   */\n      pop\n      pop\n      jump\t// out\n        /* \"#utility.yul\":4425:4647   */\n    tag_51:\n        /* \"#utility.yul\":4518:4522   */\n      0x00\n        /* \"#utility.yul\":4556:4558   */\n      0x20\n        /* \"#utility.yul\":4545:4554   */\n      dup3\n        /* \"#utility.yul\":4541:4559   */\n      add\n        /* \"#utility.yul\":4533:4559   */\n      swap1\n      pop\n        /* \"#utility.yul\":4569:4640   */\n      tag_252\n        /* \"#utility.yul\":4637:4638   */\n      0x00\n        /* \"#utility.yul\":4626:4635   */\n      dup4\n        /* \"#utility.yul\":4622:4639   */\n      add\n        /* \"#utility.yul\":4613:4619   */\n      dup5\n        /* \"#utility.yul\":4569:4640   */\n      tag_165\n      jump\t// in\n    tag_252:\n        /* \"#utility.yul\":4425:4647   */\n      swap3\n      swap2\n      pop\n      pop\n      jump\t// out\n        /* \"#utility.yul\":4653:4982   */\n    tag_54:\n        /* \"#utility.yul\":4712:4718   */\n      0x00\n        /* \"#utility.yul\":4761:4763   */\n      0x20\n        /* \"#utility.yul\":4749:4758   */\n      dup3\n        /* \"#utility.yul\":4740:4747   */\n      dup5\n        /* \"#utility.yul\":4736:4759   */\n      sub\n        /* \"#utility.yul\":4732:4764   */\n      slt\n        /* \"#utility.yul\":4729:4848   */\n      iszero\n      tag_254\n      jumpi\n        /* \"#utility.yul\":4767:4846   */\n      tag_255\n      tag_151\n      jump\t// in\n    tag_255:\n        /* \"#utility.yul\":4729:4848   */\n    tag_254:\n        /* \"#utility.yul\":4887:4888   */\n      0x00\n        /* \"#utility.yul\":4912:4965   */\n      tag_256\n        /* \"#utility.yul\":4957:4964   */\n      dup5\n        /* \"#utility.yul\":4948:4954   */\n      dup3\n        /* \"#utility.yul\":4937:4946   */\n      dup6\n        /* \"#utility.yul\":4933:4955   */\n      add\n        /* \"#utility.yul\":4912:4965   */\n      tag_161\n      jump\t// in\n    tag_256:\n        /* \"#utility.yul\":4902:4965   */\n      swap2\n      pop\n        /* \"#utility.yul\":4858:4975   */\n      pop\n        /* \"#utility.yul\":4653:4982   */\n      swap3\n      swap2\n      pop\n      pop\n      jump\t// out\n        /* \"#utility.yul\":4988:5106   */\n    tag_166:\n        /* \"#utility.yul\":5075:5099   */\n      tag_258\n        /* \"#utility.yul\":5093:5098   */\n      dup2\n        /* \"#utility.yul\":5075:5099   */\n      tag_162\n      jump\t// in\n    tag_258:\n        /* \"#utility.yul\":5070:5073   */\n      dup3\n        /* \"#utility.yul\":5063:5100   */\n      mstore\n        /* \"#utility.yul\":4988:5106   */\n      pop\n      pop\n      jump\t// out\n        /* \"#utility.yul\":5112:5334   */\n    tag_57:\n        /* \"#utility.yul\":5205:5209   */\n      0x00\n        /* \"#utility.yul\":5243:5245   */\n      0x20\n        /* \"#utility.yul\":5232:5241   */\n      dup3\n        /* \"#utility.yul\":5228:5246   */\n      add\n        /* \"#utility.yul\":5220:5246   */\n      swap1\n      pop\n        /* \"#utility.yul\":5256:5327   */\n      tag_260\n        /* \"#utility.yul\":5324:5325   */\n      0x00\n        /* \"#utility.yul\":5313:5322   */\n      dup4\n        /* \"#utility.yul\":5309:5326   */\n      add\n        /* \"#utility.yul\":5300:5306   */\n      dup5\n        /* \"#utility.yul\":5256:5327   */\n      tag_166\n      jump\t// in\n    tag_260:\n        /* \"#utility.yul\":5112:5334   */\n      swap3\n      swap2\n      pop\n      pop\n      jump\t// out\n        /* \"#utility.yul\":5340:5456   */\n    tag_167:\n        /* \"#utility.yul\":5410:5431   */\n      tag_262\n        /* \"#utility.yul\":5425:5430   */\n      dup2\n        /* \"#utility.yul\":5410:5431   */\n      tag_156\n      jump\t// in\n    tag_262:\n        /* \"#utility.yul\":5403:5408   */\n      dup2\n        /* \"#utility.yul\":5400:5432   */\n      eq\n        /* \"#utility.yul\":5390:5450   */\n      tag_263\n      jumpi\n        /* \"#utility.yul\":5446:5447   */\n      0x00\n        /* \"#utility.yul\":5443:5444   */\n      dup1\n        /* \"#utility.yul\":5436:5448   */\n      revert\n        /* \"#utility.yul\":5390:5450   */\n    tag_263:\n        /* \"#utility.yul\":5340:5456   */\n      pop\n      jump\t// out\n        /* \"#utility.yul\":5462:5595   */\n    tag_168:\n        /* \"#utility.yul\":5505:5510   */\n      0x00\n        /* \"#utility.yul\":5543:5549   */\n      dup2\n        /* \"#utility.yul\":5530:5550   */\n      calldataload\n        /* \"#utility.yul\":5521:5550   */\n      swap1\n      pop\n        /* \"#utility.yul\":5559:5589   */\n      tag_265\n        /* \"#utility.yul\":5583:5588   */\n      dup2\n        /* \"#utility.yul\":5559:5589   */\n      tag_167\n      jump\t// in\n    tag_265:\n        /* \"#utility.yul\":5462:5595   */\n      swap3\n      swap2\n      pop\n      pop\n      jump\t// out\n        /* \"#utility.yul\":5601:6069   */\n    tag_64:\n        /* \"#utility.yul\":5666:5672   */\n      0x00\n        /* \"#utility.yul\":5674:5680   */\n      dup1\n        /* \"#utility.yul\":5723:5725   */\n      0x40\n        /* \"#utility.yul\":5711:5720   */\n      dup4\n        /* \"#utility.yul\":5702:5709   */\n      dup6\n        /* \"#utility.yul\":5698:5721   */\n      sub\n        /* \"#utility.yul\":5694:5726   */\n      slt\n        /* \"#utility.yul\":5691:5810   */\n      iszero\n      tag_267\n      jumpi\n        /* \"#utility.yul\":5729:5808   */\n      tag_268\n      tag_151\n      jump\t// in\n    tag_268:\n        /* \"#utility.yul\":5691:5810   */\n    tag_267:\n        /* \"#utility.yul\":5849:5850   */\n      0x00\n        /* \"#utility.yul\":5874:5927   */\n      tag_269\n        /* \"#utility.yul\":5919:5926   */\n      dup6\n        /* \"#utility.yul\":5910:5916   */\n      dup3\n        /* \"#utility.yul\":5899:5908   */\n      dup7\n        /* \"#utility.yul\":5895:5917   */\n      add\n        /* \"#utility.yul\":5874:5927   */\n      tag_161\n      jump\t// in\n    tag_269:\n        /* \"#utility.yul\":5864:5927   */\n      swap3\n      pop\n        /* \"#utility.yul\":5820:5937   */\n      pop\n        /* \"#utility.yul\":5976:5978   */\n      0x20\n        /* \"#utility.yul\":6002:6052   */\n      tag_270\n        /* \"#utility.yul\":6044:6051   */\n      dup6\n        /* \"#utility.yul\":6035:6041   */\n      dup3\n        /* \"#utility.yul\":6024:6033   */\n      dup7\n        /* \"#utility.yul\":6020:6042   */\n      add\n        /* \"#utility.yul\":6002:6052   */\n      tag_168\n      jump\t// in\n    tag_270:\n        /* \"#utility.yul\":5992:6052   */\n      swap2\n      pop\n        /* \"#utility.yul\":5947:6062   */\n      pop\n        /* \"#utility.yul\":5601:6069   */\n      swap3\n      pop\n      swap3\n      swap1\n      pop\n      jump\t// out\n        /* \"#utility.yul\":6075:6192   */\n    tag_169:\n        /* \"#utility.yul\":6184:6185   */\n      0x00\n        /* \"#utility.yul\":6181:6182   */\n      dup1\n        /* \"#utility.yul\":6174:6186   */\n      revert\n        /* \"#utility.yul\":6198:6315   */\n    tag_170:\n        /* \"#utility.yul\":6307:6308   */\n      0x00\n        /* \"#utility.yul\":6304:6305   */\n      dup1\n        /* \"#utility.yul\":6297:6309   */\n      revert\n        /* \"#utility.yul\":6321:6438   */\n    tag_171:\n        /* \"#utility.yul\":6430:6431   */\n      0x00\n        /* \"#utility.yul\":6427:6428   */\n      dup1\n        /* \"#utility.yul\":6420:6432   */\n      revert\n        /* \"#utility.yul\":6457:7009   */\n    tag_172:\n        /* \"#utility.yul\":6514:6522   */\n      0x00\n        /* \"#utility.yul\":6524:6530   */\n      dup1\n        /* \"#utility.yul\":6574:6577   */\n      dup4\n        /* \"#utility.yul\":6567:6571   */\n      0x1f\n        /* \"#utility.yul\":6559:6565   */\n      dup5\n        /* \"#utility.yul\":6555:6572   */\n      add\n        /* \"#utility.yul\":6551:6578   */\n      slt\n        /* \"#utility.yul\":6541:6663   */\n      tag_275\n      jumpi\n        /* \"#utility.yul\":6582:6661   */\n      tag_276\n      tag_169\n      jump\t// in\n    tag_276:\n        /* \"#utility.yul\":6541:6663   */\n    tag_275:\n        /* \"#utility.yul\":6695:6701   */\n      dup3\n        /* \"#utility.yul\":6682:6702   */\n      calldataload\n        /* \"#utility.yul\":6672:6702   */\n      swap1\n      pop\n        /* \"#utility.yul\":6725:6743   */\n      0xffffffffffffffff\n        /* \"#utility.yul\":6717:6723   */\n      dup2\n        /* \"#utility.yul\":6714:6744   */\n      gt\n        /* \"#utility.yul\":6711:6828   */\n      iszero\n      tag_277\n      jumpi\n        /* \"#utility.yul\":6747:6826   */\n      tag_278\n      tag_170\n      jump\t// in\n    tag_278:\n        /* \"#utility.yul\":6711:6828   */\n    tag_277:\n        /* \"#utility.yul\":6861:6865   */\n      0x20\n        /* \"#utility.yul\":6853:6859   */\n      dup4\n        /* \"#utility.yul\":6849:6866   */\n      add\n        /* \"#utility.yul\":6837:6866   */\n      swap2\n      pop\n        /* \"#utility.yul\":6915:6918   */\n      dup4\n        /* \"#utility.yul\":6907:6911   */\n      0x01\n        /* \"#utility.yul\":6899:6905   */\n      dup3\n        /* \"#utility.yul\":6895:6912   */\n      mul\n        /* \"#utility.yul\":6885:6893   */\n      dup4\n        /* \"#utility.yul\":6881:6913   */\n      add\n        /* \"#utility.yul\":6878:6919   */\n      gt\n        /* \"#utility.yul\":6875:7003   */\n      iszero\n      tag_279\n      jumpi\n        /* \"#utility.yul\":6922:7001   */\n      tag_280\n      tag_171\n      jump\t// in\n    tag_280:\n        /* \"#utility.yul\":6875:7003   */\n    tag_279:\n        /* \"#utility.yul\":6457:7009   */\n      swap3\n      pop\n      swap3\n      swap1\n      pop\n      jump\t// out\n        /* \"#utility.yul\":7015:7978   */\n    tag_68:\n        /* \"#utility.yul\":7112:7118   */\n      0x00\n        /* \"#utility.yul\":7120:7126   */\n      dup1\n        /* \"#utility.yul\":7128:7134   */\n      0x00\n        /* \"#utility.yul\":7136:7142   */\n      dup1\n        /* \"#utility.yul\":7144:7150   */\n      0x00\n        /* \"#utility.yul\":7193:7196   */\n      0x80\n        /* \"#utility.yul\":7181:7190   */\n      dup7\n        /* \"#utility.yul\":7172:7179   */\n      dup9\n        /* \"#utility.yul\":7168:7191   */\n      sub\n        /* \"#utility.yul\":7164:7197   */\n      slt\n        /* \"#utility.yul\":7161:7281   */\n      iszero\n      tag_282\n      jumpi\n        /* \"#utility.yul\":7200:7279   */\n      tag_283\n      tag_151\n      jump\t// in\n    tag_283:\n        /* \"#utility.yul\":7161:7281   */\n    tag_282:\n        /* \"#utility.yul\":7320:7321   */\n      0x00\n        /* \"#utility.yul\":7345:7398   */\n      tag_284\n        /* \"#utility.yul\":7390:7397   */\n      dup9\n        /* \"#utility.yul\":7381:7387   */\n      dup3\n        /* \"#utility.yul\":7370:7379   */\n      dup10\n        /* \"#utility.yul\":7366:7388   */\n      add\n        /* \"#utility.yul\":7345:7398   */\n      tag_161\n      jump\t// in\n    tag_284:\n        /* \"#utility.yul\":7335:7398   */\n      swap6\n      pop\n        /* \"#utility.yul\":7291:7408   */\n      pop\n        /* \"#utility.yul\":7447:7449   */\n      0x20\n        /* \"#utility.yul\":7473:7526   */\n      tag_285\n        /* \"#utility.yul\":7518:7525   */\n      dup9\n        /* \"#utility.yul\":7509:7515   */\n      dup3\n        /* \"#utility.yul\":7498:7507   */\n      dup10\n        /* \"#utility.yul\":7494:7516   */\n      add\n        /* \"#utility.yul\":7473:7526   */\n      tag_161\n      jump\t// in\n    tag_285:\n        /* \"#utility.yul\":7463:7526   */\n      swap5\n      pop\n        /* \"#utility.yul\":7418:7536   */\n      pop\n        /* \"#utility.yul\":7575:7577   */\n      0x40\n        /* \"#utility.yul\":7601:7654   */\n      tag_286\n        /* \"#utility.yul\":7646:7653   */\n      dup9\n        /* \"#utility.yul\":7637:7643   */\n      dup3\n        /* \"#utility.yul\":7626:7635   */\n      dup10\n        /* \"#utility.yul\":7622:7644   */\n      add\n        /* \"#utility.yul\":7601:7654   */\n      tag_164\n      jump\t// in\n    tag_286:\n        /* \"#utility.yul\":7591:7654   */\n      swap4\n      pop\n        /* \"#utility.yul\":7546:7664   */\n      pop\n        /* \"#utility.yul\":7731:7733   */\n      0x60\n        /* \"#utility.yul\":7720:7729   */\n      dup7\n        /* \"#utility.yul\":7716:7734   */\n      add\n        /* \"#utility.yul\":7703:7735   */\n      calldataload\n        /* \"#utility.yul\":7762:7780   */\n      0xffffffffffffffff\n        /* \"#utility.yul\":7754:7760   */\n      dup2\n        /* \"#utility.yul\":7751:7781   */\n      gt\n        /* \"#utility.yul\":7748:7865   */\n      iszero\n      tag_287\n      jumpi\n        /* \"#utility.yul\":7784:7863   */\n      tag_288\n      tag_152\n      jump\t// in\n    tag_288:\n        /* \"#utility.yul\":7748:7865   */\n    tag_287:\n        /* \"#utility.yul\":7897:7961   */\n      tag_289\n        /* \"#utility.yul\":7953:7960   */\n      dup9\n        /* \"#utility.yul\":7944:7950   */\n      dup3\n        /* \"#utility.yul\":7933:7942   */\n      dup10\n        /* \"#utility.yul\":7929:7951   */\n      add\n        /* \"#utility.yul\":7897:7961   */\n      tag_172\n      jump\t// in\n    tag_289:\n        /* \"#utility.yul\":7879:7961   */\n      swap3\n      pop\n      swap3\n      pop\n        /* \"#utility.yul\":7674:7971   */\n      pop\n        /* \"#utility.yul\":7015:7978   */\n      swap3\n      swap6\n      pop\n      swap3\n      swap6\n      swap1\n      swap4\n      pop\n      jump\t// out\n        /* \"#utility.yul\":7984:8153   */\n    tag_173:\n        /* \"#utility.yul\":8068:8079   */\n      0x00\n        /* \"#utility.yul\":8102:8108   */\n      dup3\n        /* \"#utility.yul\":8097:8100   */\n      dup3\n        /* \"#utility.yul\":8090:8109   */\n      mstore\n        /* \"#utility.yul\":8142:8146   */\n      0x20\n        /* \"#utility.yul\":8137:8140   */\n      dup3\n        /* \"#utility.yul\":8133:8147   */\n      add\n        /* \"#utility.yul\":8118:8147   */\n      swap1\n      pop\n        /* \"#utility.yul\":7984:8153   */\n      swap3\n      swap2\n      pop\n      pop\n      jump\t// out\n        /* \"#utility.yul\":8159:8318   */\n    tag_174:\n        /* \"#utility.yul\":8299:8310   */\n      0x6e6f74206f776e65720000000000000000000000000000000000000000000000\n        /* \"#utility.yul\":8295:8296   */\n      0x00\n        /* \"#utility.yul\":8287:8293   */\n      dup3\n        /* \"#utility.yul\":8283:8297   */\n      add\n        /* \"#utility.yul\":8276:8311   */\n      mstore\n        /* \"#utility.yul\":8159:8318   */\n      pop\n      jump\t// out\n        /* \"#utility.yul\":8324:8689   */\n    tag_175:\n        /* \"#utility.yul\":8466:8469   */\n      0x00\n        /* \"#utility.yul\":8487:8553   */\n      tag_293\n        /* \"#utility.yul\":8551:8552   */\n      0x09\n        /* \"#utility.yul\":8546:8549   */\n      dup4\n        /* \"#utility.yul\":8487:8553   */\n      tag_173\n      jump\t// in\n    tag_293:\n        /* \"#utility.yul\":8480:8553   */\n      swap2\n      pop\n        /* \"#utility.yul\":8562:8655   */\n      tag_294\n        /* \"#utility.yul\":8651:8654   */\n      dup3\n        /* \"#utility.yul\":8562:8655   */\n      tag_174\n      jump\t// in\n    tag_294:\n        /* \"#utility.yul\":8680:8682   */\n      0x20\n        /* \"#utility.yul\":8675:8678   */\n      dup3\n        /* \"#utility.yul\":8671:8683   */\n      add\n        /* \"#utility.yul\":8664:8683   */\n      swap1\n      pop\n        /* \"#utility.yul\":8324:8689   */\n      swap2\n      swap1\n      pop\n      jump\t// out\n        /* \"#utility.yul\":8695:9114   */\n    tag_80:\n        /* \"#utility.yul\":8861:8865   */\n      0x00\n        /* \"#utility.yul\":8899:8901   */\n      0x20\n        /* \"#utility.yul\":8888:8897   */\n      dup3\n        /* \"#utility.yul\":8884:8902   */\n      add\n        /* \"#utility.yul\":8876:8902   */\n      swap1\n      pop\n        /* \"#utility.yul\":8948:8957   */\n      dup2\n        /* \"#utility.yul\":8942:8946   */\n      dup2\n        /* \"#utility.yul\":8938:8958   */\n      sub\n        /* \"#utility.yul\":8934:8935   */\n      0x00\n        /* \"#utility.yul\":8923:8932   */\n      dup4\n        /* \"#utility.yul\":8919:8936   */\n      add\n        /* \"#utility.yul\":8912:8959   */\n      mstore\n        /* \"#utility.yul\":8976:9107   */\n      tag_296\n        /* \"#utility.yul\":9102:9106   */\n      dup2\n        /* \"#utility.yul\":8976:9107   */\n      tag_175\n      jump\t// in\n    tag_296:\n        /* \"#utility.yul\":8968:9107   */\n      swap1\n      pop\n        /* \"#utility.yul\":8695:9114   */\n      swap2\n      swap1\n      pop\n      jump\t// out\n        /* \"#utility.yul\":9120:9282   */\n    tag_176:\n        /* \"#utility.yul\":9260:9274   */\n      0x63616e206e6f74207a65726f0000000000000000000000000000000000000000\n        /* \"#utility.yul\":9256:9257   */\n      0x00\n        /* \"#utility.yul\":9248:9254   */\n      dup3\n        /* \"#utility.yul\":9244:9258   */\n      add\n        /* \"#utility.yul\":9237:9275   */\n      mstore\n        /* \"#utility.yul\":9120:9282   */\n      pop\n      jump\t// out\n        /* \"#utility.yul\":9288:9654   */\n    tag_177:\n        /* \"#utility.yul\":9430:9433   */\n      0x00\n        /* \"#utility.yul\":9451:9518   */\n      tag_299\n        /* \"#utility.yul\":9515:9517   */\n      0x0c\n        /* \"#utility.yul\":9510:9513   */\n      dup4\n        /* \"#utility.yul\":9451:9518   */\n      tag_173\n      jump\t// in\n    tag_299:\n        /* \"#utility.yul\":9444:9518   */\n      swap2\n      pop\n        /* \"#utility.yul\":9527:9620   */\n      tag_300\n        /* \"#utility.yul\":9616:9619   */\n      dup3\n        /* \"#utility.yul\":9527:9620   */\n      tag_176\n      jump\t// in\n    tag_300:\n        /* \"#utility.yul\":9645:9647   */\n      0x20\n        /* \"#utility.yul\":9640:9643   */\n      dup3\n        /* \"#utility.yul\":9636:9648   */\n      add\n        /* \"#utility.yul\":9629:9648   */\n      swap1\n      pop\n        /* \"#utility.yul\":9288:9654   */\n      swap2\n      swap1\n      pop\n      jump\t// out\n        /* \"#utility.yul\":9660:10079   */\n    tag_87:\n        /* \"#utility.yul\":9826:9830   */\n      0x00\n        /* \"#utility.yul\":9864:9866   */\n      0x20\n        /* \"#utility.yul\":9853:9862   */\n      dup3\n        /* \"#utility.yul\":9849:9867   */\n      add\n        /* \"#utility.yul\":9841:9867   */\n      swap1\n      pop\n        /* \"#utility.yul\":9913:9922   */\n      dup2\n        /* \"#utility.yul\":9907:9911   */\n      dup2\n        /* \"#utility.yul\":9903:9923   */\n      sub\n        /* \"#utility.yul\":9899:9900   */\n      0x00\n        /* \"#utility.yul\":9888:9897   */\n      dup4\n        /* \"#utility.yul\":9884:9901   */\n      add\n        /* \"#utility.yul\":9877:9924   */\n      mstore\n        /* \"#utility.yul\":9941:10072   */\n      tag_302\n        /* \"#utility.yul\":10067:10071   */\n      dup2\n        /* \"#utility.yul\":9941:10072   */\n      tag_177\n      jump\t// in\n    tag_302:\n        /* \"#utility.yul\":9933:10072   */\n      swap1\n      pop\n        /* \"#utility.yul\":9660:10079   */\n      swap2\n      swap1\n      pop\n      jump\t// out\n        /* \"#utility.yul\":10085:10253   */\n    tag_178:\n        /* \"#utility.yul\":10168:10179   */\n      0x00\n        /* \"#utility.yul\":10202:10208   */\n      dup3\n        /* \"#utility.yul\":10197:10200   */\n      dup3\n        /* \"#utility.yul\":10190:10209   */\n      mstore\n        /* \"#utility.yul\":10242:10246   */\n      0x20\n        /* \"#utility.yul\":10237:10240   */\n      dup3\n        /* \"#utility.yul\":10233:10247   */\n      add\n        /* \"#utility.yul\":10218:10247   */\n      swap1\n      pop\n        /* \"#utility.yul\":10085:10253   */\n      swap3\n      swap2\n      pop\n      pop\n      jump\t// out\n        /* \"#utility.yul\":10259:10373   */\n    tag_179:\n      pop\n      jump\t// out\n        /* \"#utility.yul\":10379:10741   */\n    tag_180:\n        /* \"#utility.yul\":10520:10523   */\n      0x00\n        /* \"#utility.yul\":10541:10606   */\n      tag_306\n        /* \"#utility.yul\":10604:10605   */\n      0x00\n        /* \"#utility.yul\":10599:10602   */\n      dup4\n        /* \"#utility.yul\":10541:10606   */\n      tag_178\n      jump\t// in\n    tag_306:\n        /* \"#utility.yul\":10534:10606   */\n      swap2\n      pop\n        /* \"#utility.yul\":10615:10708   */\n      tag_307\n        /* \"#utility.yul\":10704:10707   */\n      dup3\n        /* \"#utility.yul\":10615:10708   */\n      tag_179\n      jump\t// in\n    tag_307:\n        /* \"#utility.yul\":10733:10734   */\n      0x00\n        /* \"#utility.yul\":10728:10731   */\n      dup3\n        /* \"#utility.yul\":10724:10735   */\n      add\n        /* \"#utility.yul\":10717:10735   */\n      swap1\n      pop\n        /* \"#utility.yul\":10379:10741   */\n      swap2\n      swap1\n      pop\n      jump\t// out\n        /* \"#utility.yul\":10747:11495   */\n    tag_98:\n        /* \"#utility.yul\":10996:11000   */\n      0x00\n        /* \"#utility.yul\":11034:11037   */\n      0x80\n        /* \"#utility.yul\":11023:11032   */\n      dup3\n        /* \"#utility.yul\":11019:11038   */\n      add\n        /* \"#utility.yul\":11011:11038   */\n      swap1\n      pop\n        /* \"#utility.yul\":11048:11119   */\n      tag_309\n        /* \"#utility.yul\":11116:11117   */\n      0x00\n        /* \"#utility.yul\":11105:11114   */\n      dup4\n        /* \"#utility.yul\":11101:11118   */\n      add\n        /* \"#utility.yul\":11092:11098   */\n      dup7\n        /* \"#utility.yul\":11048:11119   */\n      tag_165\n      jump\t// in\n    tag_309:\n        /* \"#utility.yul\":11129:11201   */\n      tag_310\n        /* \"#utility.yul\":11197:11199   */\n      0x20\n        /* \"#utility.yul\":11186:11195   */\n      dup4\n        /* \"#utility.yul\":11182:11200   */\n      add\n        /* \"#utility.yul\":11173:11179   */\n      dup6\n        /* \"#utility.yul\":11129:11201   */\n      tag_165\n      jump\t// in\n    tag_310:\n        /* \"#utility.yul\":11211:11283   */\n      tag_311\n        /* \"#utility.yul\":11279:11281   */\n      0x40\n        /* \"#utility.yul\":11268:11277   */\n      dup4\n        /* \"#utility.yul\":11264:11282   */\n      add\n        /* \"#utility.yul\":11255:11261   */\n      dup5\n        /* \"#utility.yul\":11211:11283   */\n      tag_166\n      jump\t// in\n    tag_311:\n        /* \"#utility.yul\":11330:11339   */\n      dup2\n        /* \"#utility.yul\":11324:11328   */\n      dup2\n        /* \"#utility.yul\":11320:11340   */\n      sub\n        /* \"#utility.yul\":11315:11317   */\n      0x60\n        /* \"#utility.yul\":11304:11313   */\n      dup4\n        /* \"#utility.yul\":11300:11318   */\n      add\n        /* \"#utility.yul\":11293:11341   */\n      mstore\n        /* \"#utility.yul\":11358:11488   */\n      tag_312\n        /* \"#utility.yul\":11483:11487   */\n      dup2\n        /* \"#utility.yul\":11358:11488   */\n      tag_180\n      jump\t// in\n    tag_312:\n        /* \"#utility.yul\":11350:11488   */\n      swap1\n      pop\n        /* \"#utility.yul\":10747:11495   */\n      swap5\n      swap4\n      pop\n      pop\n      pop\n      pop\n      jump\t// out\n        /* \"#utility.yul\":11501:11642   */\n    tag_181:\n        /* \"#utility.yul\":11557:11562   */\n      0x00\n        /* \"#utility.yul\":11588:11594   */\n      dup2\n        /* \"#utility.yul\":11582:11595   */\n      mload\n        /* \"#utility.yul\":11573:11595   */\n      swap1\n      pop\n        /* \"#utility.yul\":11604:11636   */\n      tag_314\n        /* \"#utility.yul\":11630:11635   */\n      dup2\n        /* \"#utility.yul\":11604:11636   */\n      tag_154\n      jump\t// in\n    tag_314:\n        /* \"#utility.yul\":11501:11642   */\n      swap3\n      swap2\n      pop\n      pop\n      jump\t// out\n        /* \"#utility.yul\":11648:11997   */\n    tag_102:\n        /* \"#utility.yul\":11717:11723   */\n      0x00\n        /* \"#utility.yul\":11766:11768   */\n      0x20\n        /* \"#utility.yul\":11754:11763   */\n      dup3\n        /* \"#utility.yul\":11745:11752   */\n      dup5\n        /* \"#utility.yul\":11741:11764   */\n      sub\n        /* \"#utility.yul\":11737:11769   */\n      slt\n        /* \"#utility.yul\":11734:11853   */\n      iszero\n      tag_316\n      jumpi\n        /* \"#utility.yul\":11772:11851   */\n      tag_317\n      tag_151\n      jump\t// in\n    tag_317:\n        /* \"#utility.yul\":11734:11853   */\n    tag_316:\n        /* \"#utility.yul\":11892:11893   */\n      0x00\n        /* \"#utility.yul\":11917:11980   */\n      tag_318\n        /* \"#utility.yul\":11972:11979   */\n      dup5\n        /* \"#utility.yul\":11963:11969   */\n      dup3\n        /* \"#utility.yul\":11952:11961   */\n      dup6\n        /* \"#utility.yul\":11948:11970   */\n      add\n        /* \"#utility.yul\":11917:11980   */\n      tag_181\n      jump\t// in\n    tag_318:\n        /* \"#utility.yul\":11907:11980   */\n      swap2\n      pop\n        /* \"#utility.yul\":11863:11990   */\n      pop\n        /* \"#utility.yul\":11648:11997   */\n      swap3\n      swap2\n      pop\n      pop\n      jump\t// out\n        /* \"#utility.yul\":12003:12169   */\n    tag_182:\n        /* \"#utility.yul\":12143:12161   */\n      0x756e7361666520726563697069656e7400000000000000000000000000000000\n        /* \"#utility.yul\":12139:12140   */\n      0x00\n        /* \"#utility.yul\":12131:12137   */\n      dup3\n        /* \"#utility.yul\":12127:12141   */\n      add\n        /* \"#utility.yul\":12120:12162   */\n      mstore\n        /* \"#utility.yul\":12003:12169   */\n      pop\n      jump\t// out\n        /* \"#utility.yul\":12175:12541   */\n    tag_183:\n        /* \"#utility.yul\":12317:12320   */\n      0x00\n        /* \"#utility.yul\":12338:12405   */\n      tag_321\n        /* \"#utility.yul\":12402:12404   */\n      0x10\n        /* \"#utility.yul\":12397:12400   */\n      dup4\n        /* \"#utility.yul\":12338:12405   */\n      tag_173\n      jump\t// in\n    tag_321:\n        /* \"#utility.yul\":12331:12405   */\n      swap2\n      pop\n        /* \"#utility.yul\":12414:12507   */\n      tag_322\n        /* \"#utility.yul\":12503:12506   */\n      dup3\n        /* \"#utility.yul\":12414:12507   */\n      tag_182\n      jump\t// in\n    tag_322:\n        /* \"#utility.yul\":12532:12534   */\n      0x20\n        /* \"#utility.yul\":12527:12530   */\n      dup3\n        /* \"#utility.yul\":12523:12535   */\n      add\n        /* \"#utility.yul\":12516:12535   */\n      swap1\n      pop\n        /* \"#utility.yul\":12175:12541   */\n      swap2\n      swap1\n      pop\n      jump\t// out\n        /* \"#utility.yul\":12547:12966   */\n    tag_105:\n        /* \"#utility.yul\":12713:12717   */\n      0x00\n        /* \"#utility.yul\":12751:12753   */\n      0x20\n        /* \"#utility.yul\":12740:12749   */\n      dup3\n        /* \"#utility.yul\":12736:12754   */\n      add\n        /* \"#utility.yul\":12728:12754   */\n      swap1\n      pop\n        /* \"#utility.yul\":12800:12809   */\n      dup2\n        /* \"#utility.yul\":12794:12798   */\n      dup2\n        /* \"#utility.yul\":12790:12810   */\n      sub\n        /* \"#utility.yul\":12786:12787   */\n      0x00\n        /* \"#utility.yul\":12775:12784   */\n      dup4\n        /* \"#utility.yul\":12771:12788   */\n      add\n        /* \"#utility.yul\":12764:12811   */\n      mstore\n        /* \"#utility.yul\":12828:12959   */\n      tag_324\n        /* \"#utility.yul\":12954:12958   */\n      dup2\n        /* \"#utility.yul\":12828:12959   */\n      tag_183\n      jump\t// in\n    tag_324:\n        /* \"#utility.yul\":12820:12959   */\n      swap1\n      pop\n        /* \"#utility.yul\":12547:12966   */\n      swap2\n      swap1\n      pop\n      jump\t// out\n        /* \"#utility.yul\":12972:13132   */\n    tag_184:\n        /* \"#utility.yul\":13112:13124   */\n      0x6e6f74206f776e65722100000000000000000000000000000000000000000000\n        /* \"#utility.yul\":13108:13109   */\n      0x00\n        /* \"#utility.yul\":13100:13106   */\n      dup3\n        /* \"#utility.yul\":13096:13110   */\n      add\n        /* \"#utility.yul\":13089:13125   */\n      mstore\n        /* \"#utility.yul\":12972:13132   */\n      pop\n      jump\t// out\n        /* \"#utility.yul\":13138:13504   */\n    tag_185:\n        /* \"#utility.yul\":13280:13283   */\n      0x00\n        /* \"#utility.yul\":13301:13368   */\n      tag_327\n        /* \"#utility.yul\":13365:13367   */\n      0x0a\n        /* \"#utility.yul\":13360:13363   */\n      dup4\n        /* \"#utility.yul\":13301:13368   */\n      tag_173\n      jump\t// in\n    tag_327:\n        /* \"#utility.yul\":13294:13368   */\n      swap2\n      pop\n        /* \"#utility.yul\":13377:13470   */\n      tag_328\n        /* \"#utility.yul\":13466:13469   */\n      dup3\n        /* \"#utility.yul\":13377:13470   */\n      tag_184\n      jump\t// in\n    tag_328:\n        /* \"#utility.yul\":13495:13497   */\n      0x20\n        /* \"#utility.yul\":13490:13493   */\n      dup3\n        /* \"#utility.yul\":13486:13498   */\n      add\n        /* \"#utility.yul\":13479:13498   */\n      swap1\n      pop\n        /* \"#utility.yul\":13138:13504   */\n      swap2\n      swap1\n      pop\n      jump\t// out\n        /* \"#utility.yul\":13510:13929   */\n    tag_109:\n        /* \"#utility.yul\":13676:13680   */\n      0x00\n        /* \"#utility.yul\":13714:13716   */\n      0x20\n        /* \"#utility.yul\":13703:13712   */\n      dup3\n        /* \"#utility.yul\":13699:13717   */\n      add\n        /* \"#utility.yul\":13691:13717   */\n      swap1\n      pop\n        /* \"#utility.yul\":13763:13772   */\n      dup2\n        /* \"#utility.yul\":13757:13761   */\n      dup2\n        /* \"#utility.yul\":13753:13773   */\n      sub\n        /* \"#utility.yul\":13749:13750   */\n      0x00\n        /* \"#utility.yul\":13738:13747   */\n      dup4\n        /* \"#utility.yul\":13734:13751   */\n      add\n        /* \"#utility.yul\":13727:13774   */\n      mstore\n        /* \"#utility.yul\":13791:13922   */\n      tag_330\n        /* \"#utility.yul\":13917:13921   */\n      dup2\n        /* \"#utility.yul\":13791:13922   */\n      tag_185\n      jump\t// in\n    tag_330:\n        /* \"#utility.yul\":13783:13922   */\n      swap1\n      pop\n        /* \"#utility.yul\":13510:13929   */\n      swap2\n      swap1\n      pop\n      jump\t// out\n        /* \"#utility.yul\":13935:14095   */\n    tag_186:\n        /* \"#utility.yul\":14075:14087   */\n      0x6164647265737320302100000000000000000000000000000000000000000000\n        /* \"#utility.yul\":14071:14072   */\n      0x00\n        /* \"#utility.yul\":14063:14069   */\n      dup3\n        /* \"#utility.yul\":14059:14073   */\n      add\n        /* \"#utility.yul\":14052:14088   */\n      mstore\n        /* \"#utility.yul\":13935:14095   */\n      pop\n      jump\t// out\n        /* \"#utility.yul\":14101:14467   */\n    tag_187:\n        /* \"#utility.yul\":14243:14246   */\n      0x00\n        /* \"#utility.yul\":14264:14331   */\n      tag_333\n        /* \"#utility.yul\":14328:14330   */\n      0x0a\n        /* \"#utility.yul\":14323:14326   */\n      dup4\n        /* \"#utility.yul\":14264:14331   */\n      tag_173\n      jump\t// in\n    tag_333:\n        /* \"#utility.yul\":14257:14331   */\n      swap2\n      pop\n        /* \"#utility.yul\":14340:14433   */\n      tag_334\n        /* \"#utility.yul\":14429:14432   */\n      dup3\n        /* \"#utility.yul\":14340:14433   */\n      tag_186\n      jump\t// in\n    tag_334:\n        /* \"#utility.yul\":14458:14460   */\n      0x20\n        /* \"#utility.yul\":14453:14456   */\n      dup3\n        /* \"#utility.yul\":14449:14461   */\n      add\n        /* \"#utility.yul\":14442:14461   */\n      swap1\n      pop\n        /* \"#utility.yul\":14101:14467   */\n      swap2\n      swap1\n      pop\n      jump\t// out\n        /* \"#utility.yul\":14473:14892   */\n    tag_115:\n        /* \"#utility.yul\":14639:14643   */\n      0x00\n        /* \"#utility.yul\":14677:14679   */\n      0x20\n        /* \"#utility.yul\":14666:14675   */\n      dup3\n        /* \"#utility.yul\":14662:14680   */\n      add\n        /* \"#utility.yul\":14654:14680   */\n      swap1\n      pop\n        /* \"#utility.yul\":14726:14735   */\n      dup2\n        /* \"#utility.yul\":14720:14724   */\n      dup2\n        /* \"#utility.yul\":14716:14736   */\n      sub\n        /* \"#utility.yul\":14712:14713   */\n      0x00\n        /* \"#utility.yul\":14701:14710   */\n      dup4\n        /* \"#utility.yul\":14697:14714   */\n      add\n        /* \"#utility.yul\":14690:14737   */\n      mstore\n        /* \"#utility.yul\":14754:14885   */\n      tag_336\n        /* \"#utility.yul\":14880:14884   */\n      dup2\n        /* \"#utility.yul\":14754:14885   */\n      tag_187\n      jump\t// in\n    tag_336:\n        /* \"#utility.yul\":14746:14885   */\n      swap1\n      pop\n        /* \"#utility.yul\":14473:14892   */\n      swap2\n      swap1\n      pop\n      jump\t// out\n        /* \"#utility.yul\":14898:15062   */\n    tag_188:\n        /* \"#utility.yul\":15038:15054   */\n      0x7a65726f20616464726573732021000000000000000000000000000000000000\n        /* \"#utility.yul\":15034:15035   */\n      0x00\n        /* \"#utility.yul\":15026:15032   */\n      dup3\n        /* \"#utility.yul\":15022:15036   */\n      add\n        /* \"#utility.yul\":15015:15055   */\n      mstore\n        /* \"#utility.yul\":14898:15062   */\n      pop\n      jump\t// out\n        /* \"#utility.yul\":15068:15434   */\n    tag_189:\n        /* \"#utility.yul\":15210:15213   */\n      0x00\n        /* \"#utility.yul\":15231:15298   */\n      tag_339\n        /* \"#utility.yul\":15295:15297   */\n      0x0e\n        /* \"#utility.yul\":15290:15293   */\n      dup4\n        /* \"#utility.yul\":15231:15298   */\n      tag_173\n      jump\t// in\n    tag_339:\n        /* \"#utility.yul\":15224:15298   */\n      swap2\n      pop\n        /* \"#utility.yul\":15307:15400   */\n      tag_340\n        /* \"#utility.yul\":15396:15399   */\n      dup3\n        /* \"#utility.yul\":15307:15400   */\n      tag_188\n      jump\t// in\n    tag_340:\n        /* \"#utility.yul\":15425:15427   */\n      0x20\n        /* \"#utility.yul\":15420:15423   */\n      dup3\n        /* \"#utility.yul\":15416:15428   */\n      add\n        /* \"#utility.yul\":15409:15428   */\n      swap1\n      pop\n        /* \"#utility.yul\":15068:15434   */\n      swap2\n      swap1\n      pop\n      jump\t// out\n        /* \"#utility.yul\":15440:15859   */\n    tag_122:\n        /* \"#utility.yul\":15606:15610   */\n      0x00\n        /* \"#utility.yul\":15644:15646   */\n      0x20\n        /* \"#utility.yul\":15633:15642   */\n      dup3\n        /* \"#utility.yul\":15629:15647   */\n      add\n        /* \"#utility.yul\":15621:15647   */\n      swap1\n      pop\n        /* \"#utility.yul\":15693:15702   */\n      dup2\n        /* \"#utility.yul\":15687:15691   */\n      dup2\n        /* \"#utility.yul\":15683:15703   */\n      sub\n        /* \"#utility.yul\":15679:15680   */\n      0x00\n        /* \"#utility.yul\":15668:15677   */\n      dup4\n        /* \"#utility.yul\":15664:15681   */\n      add\n        /* \"#utility.yul\":15657:15704   */\n      mstore\n        /* \"#utility.yul\":15721:15852   */\n      tag_342\n        /* \"#utility.yul\":15847:15851   */\n      dup2\n        /* \"#utility.yul\":15721:15852   */\n      tag_189\n      jump\t// in\n    tag_342:\n        /* \"#utility.yul\":15713:15852   */\n      swap1\n      pop\n        /* \"#utility.yul\":15440:15859   */\n      swap2\n      swap1\n      pop\n      jump\t// out\n        /* \"#utility.yul\":15865:16013   */\n    tag_190:\n        /* \"#utility.yul\":15963:15969   */\n      dup3\n        /* \"#utility.yul\":15958:15961   */\n      dup2\n        /* \"#utility.yul\":15953:15956   */\n      dup4\n        /* \"#utility.yul\":15940:15970   */\n      calldatacopy\n        /* \"#utility.yul\":16004:16005   */\n      0x00\n        /* \"#utility.yul\":15995:16001   */\n      dup4\n        /* \"#utility.yul\":15990:15993   */\n      dup4\n        /* \"#utility.yul\":15986:16002   */\n      add\n        /* \"#utility.yul\":15979:16006   */\n      mstore\n        /* \"#utility.yul\":15865:16013   */\n      pop\n      pop\n      pop\n      jump\t// out\n        /* \"#utility.yul\":16019:16121   */\n    tag_191:\n        /* \"#utility.yul\":16060:16066   */\n      0x00\n        /* \"#utility.yul\":16111:16113   */\n      0x1f\n        /* \"#utility.yul\":16107:16114   */\n      not\n        /* \"#utility.yul\":16102:16104   */\n      0x1f\n        /* \"#utility.yul\":16095:16100   */\n      dup4\n        /* \"#utility.yul\":16091:16105   */\n      add\n        /* \"#utility.yul\":16087:16115   */\n      and\n        /* \"#utility.yul\":16077:16115   */\n      swap1\n      pop\n        /* \"#utility.yul\":16019:16121   */\n      swap2\n      swap1\n      pop\n      jump\t// out\n        /* \"#utility.yul\":16149:16463   */\n    tag_192:\n        /* \"#utility.yul\":16245:16248   */\n      0x00\n        /* \"#utility.yul\":16266:16336   */\n      tag_346\n        /* \"#utility.yul\":16329:16335   */\n      dup4\n        /* \"#utility.yul\":16324:16327   */\n      dup6\n        /* \"#utility.yul\":16266:16336   */\n      tag_178\n      jump\t// in\n    tag_346:\n        /* \"#utility.yul\":16259:16336   */\n      swap4\n      pop\n        /* \"#utility.yul\":16346:16402   */\n      tag_347\n        /* \"#utility.yul\":16395:16401   */\n      dup4\n        /* \"#utility.yul\":16390:16393   */\n      dup6\n        /* \"#utility.yul\":16383:16388   */\n      dup5\n        /* \"#utility.yul\":16346:16402   */\n      tag_190\n      jump\t// in\n    tag_347:\n        /* \"#utility.yul\":16427:16456   */\n      tag_348\n        /* \"#utility.yul\":16449:16455   */\n      dup4\n        /* \"#utility.yul\":16427:16456   */\n      tag_191\n      jump\t// in\n    tag_348:\n        /* \"#utility.yul\":16422:16425   */\n      dup5\n        /* \"#utility.yul\":16418:16457   */\n      add\n        /* \"#utility.yul\":16411:16457   */\n      swap1\n      pop\n        /* \"#utility.yul\":16149:16463   */\n      swap4\n      swap3\n      pop\n      pop\n      pop\n      jump\t// out\n        /* \"#utility.yul\":16469:17129   */\n    tag_128:\n        /* \"#utility.yul\":16674:16678   */\n      0x00\n        /* \"#utility.yul\":16712:16715   */\n      0x80\n        /* \"#utility.yul\":16701:16710   */\n      dup3\n        /* \"#utility.yul\":16697:16716   */\n      add\n        /* \"#utility.yul\":16689:16716   */\n      swap1\n      pop\n        /* \"#utility.yul\":16726:16797   */\n      tag_350\n        /* \"#utility.yul\":16794:16795   */\n      0x00\n        /* \"#utility.yul\":16783:16792   */\n      dup4\n        /* \"#utility.yul\":16779:16796   */\n      add\n        /* \"#utility.yul\":16770:16776   */\n      dup9\n        /* \"#utility.yul\":16726:16797   */\n      tag_165\n      jump\t// in\n    tag_350:\n        /* \"#utility.yul\":16807:16879   */\n      tag_351\n        /* \"#utility.yul\":16875:16877   */\n      0x20\n        /* \"#utility.yul\":16864:16873   */\n      dup4\n        /* \"#utility.yul\":16860:16878   */\n      add\n        /* \"#utility.yul\":16851:16857   */\n      dup8\n        /* \"#utility.yul\":16807:16879   */\n      tag_165\n      jump\t// in\n    tag_351:\n        /* \"#utility.yul\":16889:16961   */\n      tag_352\n        /* \"#utility.yul\":16957:16959   */\n      0x40\n        /* \"#utility.yul\":16946:16955   */\n      dup4\n        /* \"#utility.yul\":16942:16960   */\n      add\n        /* \"#utility.yul\":16933:16939   */\n      dup7\n        /* \"#utility.yul\":16889:16961   */\n      tag_166\n      jump\t// in\n    tag_352:\n        /* \"#utility.yul\":17008:17017   */\n      dup2\n        /* \"#utility.yul\":17002:17006   */\n      dup2\n        /* \"#utility.yul\":16998:17018   */\n      sub\n        /* \"#utility.yul\":16993:16995   */\n      0x60\n        /* \"#utility.yul\":16982:16991   */\n      dup4\n        /* \"#utility.yul\":16978:16996   */\n      add\n        /* \"#utility.yul\":16971:17019   */\n      mstore\n        /* \"#utility.yul\":17036:17122   */\n      tag_353\n        /* \"#utility.yul\":17117:17121   */\n      dup2\n        /* \"#utility.yul\":17108:17114   */\n      dup5\n        /* \"#utility.yul\":17100:17106   */\n      dup7\n        /* \"#utility.yul\":17036:17122   */\n      tag_192\n      jump\t// in\n    tag_353:\n        /* \"#utility.yul\":17028:17122   */\n      swap1\n      pop\n        /* \"#utility.yul\":16469:17129   */\n      swap7\n      swap6\n      pop\n      pop\n      pop\n      pop\n      pop\n      pop\n      jump\t// out\n        /* \"#utility.yul\":17135:17298   */\n    tag_193:\n        /* \"#utility.yul\":17275:17290   */\n      0x7a65726f20616464726573732100000000000000000000000000000000000000\n        /* \"#utility.yul\":17271:17272   */\n      0x00\n        /* \"#utility.yul\":17263:17269   */\n      dup3\n        /* \"#utility.yul\":17259:17273   */\n      add\n        /* \"#utility.yul\":17252:17291   */\n      mstore\n        /* \"#utility.yul\":17135:17298   */\n      pop\n      jump\t// out\n        /* \"#utility.yul\":17304:17670   */\n    tag_194:\n        /* \"#utility.yul\":17446:17449   */\n      0x00\n        /* \"#utility.yul\":17467:17534   */\n      tag_356\n        /* \"#utility.yul\":17531:17533   */\n      0x0d\n        /* \"#utility.yul\":17526:17529   */\n      dup4\n        /* \"#utility.yul\":17467:17534   */\n      tag_173\n      jump\t// in\n    tag_356:\n        /* \"#utility.yul\":17460:17534   */\n      swap2\n      pop\n        /* \"#utility.yul\":17543:17636   */\n      tag_357\n        /* \"#utility.yul\":17632:17635   */\n      dup3\n        /* \"#utility.yul\":17543:17636   */\n      tag_193\n      jump\t// in\n    tag_357:\n        /* \"#utility.yul\":17661:17663   */\n      0x20\n        /* \"#utility.yul\":17656:17659   */\n      dup3\n        /* \"#utility.yul\":17652:17664   */\n      add\n        /* \"#utility.yul\":17645:17664   */\n      swap1\n      pop\n        /* \"#utility.yul\":17304:17670   */\n      swap2\n      swap1\n      pop\n      jump\t// out\n        /* \"#utility.yul\":17676:18095   */\n    tag_140:\n        /* \"#utility.yul\":17842:17846   */\n      0x00\n        /* \"#utility.yul\":17880:17882   */\n      0x20\n        /* \"#utility.yul\":17869:17878   */\n      dup3\n        /* \"#utility.yul\":17865:17883   */\n      add\n        /* \"#utility.yul\":17857:17883   */\n      swap1\n      pop\n        /* \"#utility.yul\":17929:17938   */\n      dup2\n        /* \"#utility.yul\":17923:17927   */\n      dup2\n        /* \"#utility.yul\":17919:17939   */\n      sub\n        /* \"#utility.yul\":17915:17916   */\n      0x00\n        /* \"#utility.yul\":17904:17913   */\n      dup4\n        /* \"#utility.yul\":17900:17917   */\n      add\n        /* \"#utility.yul\":17893:17940   */\n      mstore\n        /* \"#utility.yul\":17957:18088   */\n      tag_359\n        /* \"#utility.yul\":18083:18087   */\n      dup2\n        /* \"#utility.yul\":17957:18088   */\n      tag_194\n      jump\t// in\n    tag_359:\n        /* \"#utility.yul\":17949:18088   */\n      swap1\n      pop\n        /* \"#utility.yul\":17676:18095   */\n      swap2\n      swap1\n      pop\n      jump\t// out\n        /* \"#utility.yul\":18101:18281   */\n    tag_195:\n        /* \"#utility.yul\":18149:18226   */\n      0x4e487b7100000000000000000000000000000000000000000000000000000000\n        /* \"#utility.yul\":18146:18147   */\n      0x00\n        /* \"#utility.yul\":18139:18227   */\n      mstore\n        /* \"#utility.yul\":18246:18250   */\n      0x11\n        /* \"#utility.yul\":18243:18244   */\n      0x04\n        /* \"#utility.yul\":18236:18251   */\n      mstore\n        /* \"#utility.yul\":18270:18274   */\n      0x24\n        /* \"#utility.yul\":18267:18268   */\n      0x00\n        /* \"#utility.yul\":18260:18275   */\n      revert\n        /* \"#utility.yul\":18287:18520   */\n    tag_144:\n        /* \"#utility.yul\":18326:18329   */\n      0x00\n        /* \"#utility.yul\":18349:18373   */\n      tag_362\n        /* \"#utility.yul\":18367:18372   */\n      dup3\n        /* \"#utility.yul\":18349:18373   */\n      tag_162\n      jump\t// in\n    tag_362:\n        /* \"#utility.yul\":18340:18373   */\n      swap2\n      pop\n        /* \"#utility.yul\":18395:18461   */\n      0xffffffffffffffffffffffffffffffffffffffffffffffffffffffffffffffff\n        /* \"#utility.yul\":18388:18393   */\n      dup3\n        /* \"#utility.yul\":18385:18462   */\n      sub\n        /* \"#utility.yul\":18382:18485   */\n      tag_363\n      jumpi\n        /* \"#utility.yul\":18465:18483   */\n      tag_364\n      tag_195\n      jump\t// in\n    tag_364:\n        /* \"#utility.yul\":18382:18485   */\n    tag_363:\n        /* \"#utility.yul\":18512:18513   */\n      0x01\n        /* \"#utility.yul\":18505:18510   */\n      dup3\n        /* \"#utility.yul\":18501:18514   */\n      add\n        /* \"#utility.yul\":18494:18514   */\n      swap1\n      pop\n        /* \"#utility.yul\":18287:18520   */\n      swap2\n      swap1\n      pop\n      jump\t// out\n        /* \"#utility.yul\":18526:18697   */\n    tag_149:\n        /* \"#utility.yul\":18565:18568   */\n      0x00\n        /* \"#utility.yul\":18588:18612   */\n      tag_366\n        /* \"#utility.yul\":18606:18611   */\n      dup3\n        /* \"#utility.yul\":18588:18612   */\n      tag_162\n      jump\t// in\n    tag_366:\n        /* \"#utility.yul\":18579:18612   */\n      swap2\n      pop\n        /* \"#utility.yul\":18634:18638   */\n      0x00\n        /* \"#utility.yul\":18627:18632   */\n      dup3\n        /* \"#utility.yul\":18624:18639   */\n      sub\n        /* \"#utility.yul\":18621:18662   */\n      tag_367\n      jumpi\n        /* \"#utility.yul\":18642:18660   */\n      tag_368\n      tag_195\n      jump\t// in\n    tag_368:\n        /* \"#utility.yul\":18621:18662   */\n    tag_367:\n        /* \"#utility.yul\":18689:18690   */\n      0x01\n        /* \"#utility.yul\":18682:18687   */\n      dup3\n        /* \"#utility.yul\":18678:18691   */\n      sub\n        /* \"#utility.yul\":18671:18691   */\n      swap1\n      pop\n        /* \"#utility.yul\":18526:18697   */\n      swap2\n      swap1\n      pop\n      jump\t// out\n\n    auxdata: 0xa2646970667358221220157a4dad3ff419752d8757a1bf92a1ac1ee59fd9bc9bc0278cd587bb5234681d64736f6c634300081a0033\n}\n",
				"bytecode": {
					"linkReferences": {},
					"object": "6080604052348015600e575f80fd5b50611b768061001c5f395ff3fe608060405234801561000f575f80fd5b50600436106100cd575f3560e01c806342966c681161008a5780637ac8f518116100645780637ac8f5181461021d578063b4989c3f1461024d578063b88d4fde14610269578063ebd1d35914610285576100cd565b806342966c68146101a15780636352211e146101bd57806370a08231146101ed576100cd565b806301ffc9a7146100d1578063095ea7b314610101578063230e85c71461011d57806323b872dd1461014d57806340c10f191461016957806342842e0e14610185575b5f80fd5b6100eb60048036038101906100e691906112c3565b6102b5565b6040516100f89190611308565b60405180910390f35b61011b600480360381019061011691906113ae565b610386565b005b610137600480360381019061013291906113ec565b610562565b6040516101449190611308565b60405180910390f35b6101676004803603810190610162919061142a565b610569565b005b610183600480360381019061017e91906113ae565b610768565b005b61019f600480360381019061019a919061142a565b610776565b005b6101bb60048036038101906101b6919061147a565b6108aa565b005b6101d760048036038101906101d2919061147a565b610953565b6040516101e491906114b4565b60405180910390f35b610207600480360381019061020291906114cd565b6109f9565b6040516102149190611507565b60405180910390f35b6102376004803603810190610232919061147a565b610aad565b60405161024491906114b4565b60405180910390f35b6102676004803603810190610262919061154a565b610b83565b005b610283600480360381019061027e91906115e9565b610c16565b005b61029f600480360381019061029a91906113ec565b610d50565b6040516102ac9190611308565b60405180910390f35b5f7f2e43fb71000000000000000000000000000000000000000000000000000000007bffffffffffffffffffffffffffffffffffffffffffffffffffffffff1916827bffffffffffffffffffffffffffffffffffffffffffffffffffffffff1916148061037f57507f01ffc9a7000000000000000000000000000000000000000000000000000000007bffffffffffffffffffffffffffffffffffffffffffffffffffffffff1916827bffffffffffffffffffffffffffffffffffffffffffffffffffffffff1916145b9050919050565b5f805f8381526020019081526020015f205f9054906101000a900473ffffffffffffffffffffffffffffffffffffffff1690508073ffffffffffffffffffffffffffffffffffffffff163373ffffffffffffffffffffffffffffffffffffffff161480610474575060035f8273ffffffffffffffffffffffffffffffffffffffff1673ffffffffffffffffffffffffffffffffffffffff1681526020019081526020015f205f3373ffffffffffffffffffffffffffffffffffffffff1673ffffffffffffffffffffffffffffffffffffffff1681526020019081526020015f205f9054906101000a900460ff165b6104b3576040517f08c379a00000000000000000000000000000000000000000000000000000000081526004016104aa906116c7565b60405180910390fd5b8260025f8481526020019081526020015f205f6101000a81548173ffffffffffffffffffffffffffffffffffffffff021916908373ffffffffffffffffffffffffffffffffffffffff160217905550818373ffffffffffffffffffffffffffffffffffffffff168273ffffffffffffffffffffffffffffffffffffffff167f8c5be1e5ebec7d5bd14f71427d1e84f3dd0314c0f7b2291e5b200ac8c7c3b92560405160405180910390a4505050565b5f92915050565b5f808281526020019081526020015f205f9054906101000a900473ffffffffffffffffffffffffffffffffffffffff1673ffffffffffffffffffffffffffffffffffffffff168373ffffffffffffffffffffffffffffffffffffffff1614610606576040517f08c379a00000000000000000000000000000000000000000000000000000000081526004016105fd906116c7565b60405180910390fd5b5f73ffffffffffffffffffffffffffffffffffffffff168273ffffffffffffffffffffffffffffffffffffffff1603610674576040517f08c379a000000000000000000000000000000000000000000000000000000000815260040161066b9061172f565b60405180910390fd5b61067f833383610d7a565b610687575f80fd5b815f808381526020019081526020015f205f6101000a81548173ffffffffffffffffffffffffffffffffffffffff021916908373ffffffffffffffffffffffffffffffffffffffff16021790555060025f8281526020019081526020015f205f6101000a81549073ffffffffffffffffffffffffffffffffffffffff0219169055808273ffffffffffffffffffffffffffffffffffffffff168473ffffffffffffffffffffffffffffffffffffffff167fddf252ad1be2c89b69c2b068fc378daa952ba7f163c4a11628f55a4df523b3ef60405160405180910390a4505050565b6107728282610ea5565b5050565b610781838383610569565b5f8273ffffffffffffffffffffffffffffffffffffffff163b1480610866575063c3d7027a60e01b7bffffffffffffffffffffffffffffffffffffffffffffffffffffffff19168273ffffffffffffffffffffffffffffffffffffffff1663c3d7027a3386856040518463ffffffff1660e01b815260040161080593929190611780565b6020604051808303815f875af1158015610821573d5f803e3d5ffd5b505050506040513d601f19601f8201168201806040525081019061084591906117dc565b7bffffffffffffffffffffffffffffffffffffffffffffffffffffffff1916145b6108a5576040517f08c379a000000000000000000000000000000000000000000000000000000000815260040161089c90611851565b60405180910390fd5b505050565b5f808281526020019081526020015f205f9054906101000a900473ffffffffffffffffffffffffffffffffffffffff1673ffffffffffffffffffffffffffffffffffffffff163373ffffffffffffffffffffffffffffffffffffffff1614610947576040517f08c379a000000000000000000000000000000000000000000000000000000000815260040161093e906118b9565b60405180910390fd5b610950816110af565b50565b5f805f8381526020019081526020015f205f9054906101000a900473ffffffffffffffffffffffffffffffffffffffff1690505f73ffffffffffffffffffffffffffffffffffffffff168173ffffffffffffffffffffffffffffffffffffffff16036109f4576040517f08c379a00000000000000000000000000000000000000000000000000000000081526004016109eb90611921565b60405180910390fd5b919050565b5f8073ffffffffffffffffffffffffffffffffffffffff168273ffffffffffffffffffffffffffffffffffffffff1603610a68576040517f08c379a0000000000000000000000000000000000000000000000000000000008152600401610a5f90611921565b60405180910390fd5b60015f8373ffffffffffffffffffffffffffffffffffffffff1673ffffffffffffffffffffffffffffffffffffffff1681526020019081526020015f20549050919050565b5f8073ffffffffffffffffffffffffffffffffffffffff165f808481526020019081526020015f205f9054906101000a900473ffffffffffffffffffffffffffffffffffffffff1673ffffffffffffffffffffffffffffffffffffffff1603610b4b576040517f08c379a0000000000000000000000000000000000000000000000000000000008152600401610b4290611989565b60405180910390fd5b60025f8381526020019081526020015f205f9054906101000a900473ffffffffffffffffffffffffffffffffffffffff169050919050565b8060035f3373ffffffffffffffffffffffffffffffffffffffff1673ffffffffffffffffffffffffffffffffffffffff1681526020019081526020015f205f8473ffffffffffffffffffffffffffffffffffffffff1673ffffffffffffffffffffffffffffffffffffffff1681526020019081526020015f205f6101000a81548160ff0219169083151502179055505050565b610c21858585610569565b5f8473ffffffffffffffffffffffffffffffffffffffff163b1480610d0a575063c3d7027a60e01b7bffffffffffffffffffffffffffffffffffffffffffffffffffffffff19168473ffffffffffffffffffffffffffffffffffffffff1663c3d7027a33888787876040518663ffffffff1660e01b8152600401610ca99594939291906119f1565b6020604051808303815f875af1158015610cc5573d5f803e3d5ffd5b505050506040513d601f19601f82011682018060405250810190610ce991906117dc565b7bffffffffffffffffffffffffffffffffffffffffffffffffffffffff1916145b610d49576040517f08c379a0000000000000000000000000000000000000000000000000000000008152600401610d4090611851565b60405180910390fd5b5050505050565b6003602052815f5260405f20602052805f5260405f205f915091509054906101000a900460ff1681565b5f8373ffffffffffffffffffffffffffffffffffffffff168373ffffffffffffffffffffffffffffffffffffffff161480610e36575060035f8573ffffffffffffffffffffffffffffffffffffffff1673ffffffffffffffffffffffffffffffffffffffff1681526020019081526020015f205f8473ffffffffffffffffffffffffffffffffffffffff1673ffffffffffffffffffffffffffffffffffffffff1681526020019081526020015f205f9054906101000a900460ff165b80610e9c575060025f8381526020019081526020015f205f9054906101000a900473ffffffffffffffffffffffffffffffffffffffff1673ffffffffffffffffffffffffffffffffffffffff168373ffffffffffffffffffffffffffffffffffffffff16145b90509392505050565b5f73ffffffffffffffffffffffffffffffffffffffff168273ffffffffffffffffffffffffffffffffffffffff1603610f13576040517f08c379a0000000000000000000000000000000000000000000000000000000008152600401610f0a90611a87565b60405180910390fd5b5f73ffffffffffffffffffffffffffffffffffffffff165f808381526020019081526020015f205f9054906101000a900473ffffffffffffffffffffffffffffffffffffffff1673ffffffffffffffffffffffffffffffffffffffff1603610fb0576040517f08c379a0000000000000000000000000000000000000000000000000000000008152600401610fa790611a87565b60405180910390fd5b60015f8373ffffffffffffffffffffffffffffffffffffffff1673ffffffffffffffffffffffffffffffffffffffff1681526020019081526020015f205f815480929190610ffd90611ad2565b9190505550815f808381526020019081526020015f205f6101000a81548173ffffffffffffffffffffffffffffffffffffffff021916908373ffffffffffffffffffffffffffffffffffffffff160217905550808273ffffffffffffffffffffffffffffffffffffffff165f73ffffffffffffffffffffffffffffffffffffffff167fddf252ad1be2c89b69c2b068fc378daa952ba7f163c4a11628f55a4df523b3ef60405160405180910390a45050565b5f805f8381526020019081526020015f205f9054906101000a900473ffffffffffffffffffffffffffffffffffffffff1690505f73ffffffffffffffffffffffffffffffffffffffff168173ffffffffffffffffffffffffffffffffffffffff1603611150576040517f08c379a000000000000000000000000000000000000000000000000000000000815260040161114790611a87565b60405180910390fd5b60015f8273ffffffffffffffffffffffffffffffffffffffff1673ffffffffffffffffffffffffffffffffffffffff1681526020019081526020015f205f81548092919061119d90611b19565b91905055505f808381526020019081526020015f205f6101000a81549073ffffffffffffffffffffffffffffffffffffffff021916905560025f8381526020019081526020015f205f6101000a81549073ffffffffffffffffffffffffffffffffffffffff0219169055815f73ffffffffffffffffffffffffffffffffffffffff168273ffffffffffffffffffffffffffffffffffffffff167fddf252ad1be2c89b69c2b068fc378daa952ba7f163c4a11628f55a4df523b3ef60405160405180910390a45050565b5f80fd5b5f80fd5b5f7fffffffff0000000000000000000000000000000000000000000000000000000082169050919050565b6112a28161126e565b81146112ac575f80fd5b50565b5f813590506112bd81611299565b92915050565b5f602082840312156112d8576112d7611266565b5b5f6112e5848285016112af565b91505092915050565b5f8115159050919050565b611302816112ee565b82525050565b5f60208201905061131b5f8301846112f9565b92915050565b5f73ffffffffffffffffffffffffffffffffffffffff82169050919050565b5f61134a82611321565b9050919050565b61135a81611340565b8114611364575f80fd5b50565b5f8135905061137581611351565b92915050565b5f819050919050565b61138d8161137b565b8114611397575f80fd5b50565b5f813590506113a881611384565b92915050565b5f80604083850312156113c4576113c3611266565b5b5f6113d185828601611367565b92505060206113e28582860161139a565b9150509250929050565b5f806040838503121561140257611401611266565b5b5f61140f85828601611367565b925050602061142085828601611367565b9150509250929050565b5f805f6060848603121561144157611440611266565b5b5f61144e86828701611367565b935050602061145f86828701611367565b92505060406114708682870161139a565b9150509250925092565b5f6020828403121561148f5761148e611266565b5b5f61149c8482850161139a565b91505092915050565b6114ae81611340565b82525050565b5f6020820190506114c75f8301846114a5565b92915050565b5f602082840312156114e2576114e1611266565b5b5f6114ef84828501611367565b91505092915050565b6115018161137b565b82525050565b5f60208201905061151a5f8301846114f8565b92915050565b611529816112ee565b8114611533575f80fd5b50565b5f8135905061154481611520565b92915050565b5f80604083850312156115605761155f611266565b5b5f61156d85828601611367565b925050602061157e85828601611536565b9150509250929050565b5f80fd5b5f80fd5b5f80fd5b5f8083601f8401126115a9576115a8611588565b5b8235905067ffffffffffffffff8111156115c6576115c561158c565b5b6020830191508360018202830111156115e2576115e1611590565b5b9250929050565b5f805f805f6080868803121561160257611601611266565b5b5f61160f88828901611367565b955050602061162088828901611367565b94505060406116318882890161139a565b935050606086013567ffffffffffffffff8111156116525761165161126a565b5b61165e88828901611594565b92509250509295509295909350565b5f82825260208201905092915050565b7f6e6f74206f776e657200000000000000000000000000000000000000000000005f82015250565b5f6116b160098361166d565b91506116bc8261167d565b602082019050919050565b5f6020820190508181035f8301526116de816116a5565b9050919050565b7f63616e206e6f74207a65726f00000000000000000000000000000000000000005f82015250565b5f611719600c8361166d565b9150611724826116e5565b602082019050919050565b5f6020820190508181035f8301526117468161170d565b9050919050565b5f82825260208201905092915050565b50565b5f61176b5f8361174d565b91506117768261175d565b5f82019050919050565b5f6080820190506117935f8301866114a5565b6117a060208301856114a5565b6117ad60408301846114f8565b81810360608301526117be81611760565b9050949350505050565b5f815190506117d681611299565b92915050565b5f602082840312156117f1576117f0611266565b5b5f6117fe848285016117c8565b91505092915050565b7f756e7361666520726563697069656e74000000000000000000000000000000005f82015250565b5f61183b60108361166d565b915061184682611807565b602082019050919050565b5f6020820190508181035f8301526118688161182f565b9050919050565b7f6e6f74206f776e657221000000000000000000000000000000000000000000005f82015250565b5f6118a3600a8361166d565b91506118ae8261186f565b602082019050919050565b5f6020820190508181035f8301526118d081611897565b9050919050565b7f61646472657373203021000000000000000000000000000000000000000000005f82015250565b5f61190b600a8361166d565b9150611916826118d7565b602082019050919050565b5f6020820190508181035f830152611938816118ff565b9050919050565b7f7a65726f206164647265737320210000000000000000000000000000000000005f82015250565b5f611973600e8361166d565b915061197e8261193f565b602082019050919050565b5f6020820190508181035f8301526119a081611967565b9050919050565b828183375f83830152505050565b5f601f19601f8301169050919050565b5f6119d0838561174d565b93506119dd8385846119a7565b6119e6836119b5565b840190509392505050565b5f608082019050611a045f8301886114a5565b611a1160208301876114a5565b611a1e60408301866114f8565b8181036060830152611a318184866119c5565b90509695505050505050565b7f7a65726f206164647265737321000000000000000000000000000000000000005f82015250565b5f611a71600d8361166d565b9150611a7c82611a3d565b602082019050919050565b5f6020820190508181035f830152611a9e81611a65565b9050919050565b7f4e487b71000000000000000000000000000000000000000000000000000000005f52601160045260245ffd5b5f611adc8261137b565b91507fffffffffffffffffffffffffffffffffffffffffffffffffffffffffffffffff8203611b0e57611b0d611aa5565b5b600182019050919050565b5f611b238261137b565b91505f8203611b3557611b34611aa5565b5b60018203905091905056fea2646970667358221220157a4dad3ff419752d8757a1bf92a1ac1ee59fd9bc9bc0278cd587bb5234681d64736f6c634300081a0033",
					"opcodes": "PUSH1 0x80 PUSH1 0x40 MSTORE CALLVALUE DUP1 ISZERO PUSH1 0xE JUMPI PUSH0 DUP1 REVERT JUMPDEST POP PUSH2 0x1B76 DUP1 PUSH2 0x1C PUSH0 CODECOPY PUSH0 RETURN INVALID PUSH1 0x80 PUSH1 0x40 MSTORE CALLVALUE DUP1 ISZERO PUSH2 0xF JUMPI PUSH0 DUP1 REVERT JUMPDEST POP PUSH1 0x4 CALLDATASIZE LT PUSH2 0xCD JUMPI PUSH0 CALLDATALOAD PUSH1 0xE0 SHR DUP1 PUSH4 0x42966C68 GT PUSH2 0x8A JUMPI DUP1 PUSH4 0x7AC8F518 GT PUSH2 0x64 JUMPI DUP1 PUSH4 0x7AC8F518 EQ PUSH2 0x21D JUMPI DUP1 PUSH4 0xB4989C3F EQ PUSH2 0x24D JUMPI DUP1 PUSH4 0xB88D4FDE EQ PUSH2 0x269 JUMPI DUP1 PUSH4 0xEBD1D359 EQ PUSH2 0x285 JUMPI PUSH2 0xCD JUMP JUMPDEST DUP1 PUSH4 0x42966C68 EQ PUSH2 0x1A1 JUMPI DUP1 PUSH4 0x6352211E EQ PUSH2 0x1BD JUMPI DUP1 PUSH4 0x70A08231 EQ PUSH2 0x1ED JUMPI PUSH2 0xCD JUMP JUMPDEST DUP1 PUSH4 0x1FFC9A7 EQ PUSH2 0xD1 JUMPI DUP1 PUSH4 0x95EA7B3 EQ PUSH2 0x101 JUMPI DUP1 PUSH4 0x230E85C7 EQ PUSH2 0x11D JUMPI DUP1 PUSH4 0x23B872DD EQ PUSH2 0x14D JUMPI DUP1 PUSH4 0x40C10F19 EQ PUSH2 0x169 JUMPI DUP1 PUSH4 0x42842E0E EQ PUSH2 0x185 JUMPI JUMPDEST PUSH0 DUP1 REVERT JUMPDEST PUSH2 0xEB PUSH1 0x4 DUP1 CALLDATASIZE SUB DUP2 ADD SWAP1 PUSH2 0xE6 SWAP2 SWAP1 PUSH2 0x12C3 JUMP JUMPDEST PUSH2 0x2B5 JUMP JUMPDEST PUSH1 0x40 MLOAD PUSH2 0xF8 SWAP2 SWAP1 PUSH2 0x1308 JUMP JUMPDEST PUSH1 0x40 MLOAD DUP1 SWAP2 SUB SWAP1 RETURN JUMPDEST PUSH2 0x11B PUSH1 0x4 DUP1 CALLDATASIZE SUB DUP2 ADD SWAP1 PUSH2 0x116 SWAP2 SWAP1 PUSH2 0x13AE JUMP JUMPDEST PUSH2 0x386 JUMP JUMPDEST STOP JUMPDEST PUSH2 0x137 PUSH1 0x4 DUP1 CALLDATASIZE SUB DUP2 ADD SWAP1 PUSH2 0x132 SWAP2 SWAP1 PUSH2 0x13EC JUMP JUMPDEST PUSH2 0x562 JUMP JUMPDEST PUSH1 0x40 MLOAD PUSH2 0x144 SWAP2 SWAP1 PUSH2 0x1308 JUMP JUMPDEST PUSH1 0x40 MLOAD DUP1 SWAP2 SUB SWAP1 RETURN JUMPDEST PUSH2 0x167 PUSH1 0x4 DUP1 CALLDATASIZE SUB DUP2 ADD SWAP1 PUSH2 0x162 SWAP2 SWAP1 PUSH2 0x142A JUMP JUMPDEST PUSH2 0x569 JUMP JUMPDEST STOP JUMPDEST PUSH2 0x183 PUSH1 0x4 DUP1 CALLDATASIZE SUB DUP2 ADD SWAP1 PUSH2 0x17E SWAP2 SWAP1 PUSH2 0x13AE JUMP JUMPDEST PUSH2 0x768 JUMP JUMPDEST STOP JUMPDEST PUSH2 0x19F PUSH1 0x4 DUP1 CALLDATASIZE SUB DUP2 ADD SWAP1 PUSH2 0x19A SWAP2 SWAP1 PUSH2 0x142A JUMP JUMPDEST PUSH2 0x776 JUMP JUMPDEST STOP JUMPDEST PUSH2 0x1BB PUSH1 0x4 DUP1 CALLDATASIZE SUB DUP2 ADD SWAP1 PUSH2 0x1B6 SWAP2 SWAP1 PUSH2 0x147A JUMP JUMPDEST PUSH2 0x8AA JUMP JUMPDEST STOP JUMPDEST PUSH2 0x1D7 PUSH1 0x4 DUP1 CALLDATASIZE SUB DUP2 ADD SWAP1 PUSH2 0x1D2 SWAP2 SWAP1 PUSH2 0x147A JUMP JUMPDEST PUSH2 0x953 JUMP JUMPDEST PUSH1 0x40 MLOAD PUSH2 0x1E4 SWAP2 SWAP1 PUSH2 0x14B4 JUMP JUMPDEST PUSH1 0x40 MLOAD DUP1 SWAP2 SUB SWAP1 RETURN JUMPDEST PUSH2 0x207 PUSH1 0x4 DUP1 CALLDATASIZE SUB DUP2 ADD SWAP1 PUSH2 0x202 SWAP2 SWAP1 PUSH2 0x14CD JUMP JUMPDEST PUSH2 0x9F9 JUMP JUMPDEST PUSH1 0x40 MLOAD PUSH2 0x214 SWAP2 SWAP1 PUSH2 0x1507 JUMP JUMPDEST PUSH1 0x40 MLOAD DUP1 SWAP2 SUB SWAP1 RETURN JUMPDEST PUSH2 0x237 PUSH1 0x4 DUP1 CALLDATASIZE SUB DUP2 ADD SWAP1 PUSH2 0x232 SWAP2 SWAP1 PUSH2 0x147A JUMP JUMPDEST PUSH2 0xAAD JUMP JUMPDEST PUSH1 0x40 MLOAD PUSH2 0x244 SWAP2 SWAP1 PUSH2 0x14B4 JUMP JUMPDEST PUSH1 0x40 MLOAD DUP1 SWAP2 SUB SWAP1 RETURN JUMPDEST PUSH2 0x267 PUSH1 0x4 DUP1 CALLDATASIZE SUB DUP2 ADD SWAP1 PUSH2 0x262 SWAP2 SWAP1 PUSH2 0x154A JUMP JUMPDEST PUSH2 0xB83 JUMP JUMPDEST STOP JUMPDEST PUSH2 0x283 PUSH1 0x4 DUP1 CALLDATASIZE SUB DUP2 ADD SWAP1 PUSH2 0x27E SWAP2 SWAP1 PUSH2 0x15E9 JUMP JUMPDEST PUSH2 0xC16 JUMP JUMPDEST STOP JUMPDEST PUSH2 0x29F PUSH1 0x4 DUP1 CALLDATASIZE SUB DUP2 ADD SWAP1 PUSH2 0x29A SWAP2 SWAP1 PUSH2 0x13EC JUMP JUMPDEST PUSH2 0xD50 JUMP JUMPDEST PUSH1 0x40 MLOAD PUSH2 0x2AC SWAP2 SWAP1 PUSH2 0x1308 JUMP JUMPDEST PUSH1 0x40 MLOAD DUP1 SWAP2 SUB SWAP1 RETURN JUMPDEST PUSH0 PUSH32 0x2E43FB7100000000000000000000000000000000000000000000000000000000 PUSH28 0xFFFFFFFFFFFFFFFFFFFFFFFFFFFFFFFFFFFFFFFFFFFFFFFFFFFFFFFF NOT AND DUP3 PUSH28 0xFFFFFFFFFFFFFFFFFFFFFFFFFFFFFFFFFFFFFFFFFFFFFFFFFFFFFFFF NOT AND EQ DUP1 PUSH2 0x37F JUMPI POP PUSH32 0x1FFC9A700000000000000000000000000000000000000000000000000000000 PUSH28 0xFFFFFFFFFFFFFFFFFFFFFFFFFFFFFFFFFFFFFFFFFFFFFFFFFFFFFFFF NOT AND DUP3 PUSH28 0xFFFFFFFFFFFFFFFFFFFFFFFFFFFFFFFFFFFFFFFFFFFFFFFFFFFFFFFF NOT AND EQ JUMPDEST SWAP1 POP SWAP2 SWAP1 POP JUMP JUMPDEST PUSH0 DUP1 PUSH0 DUP4 DUP2 MSTORE PUSH1 0x20 ADD SWAP1 DUP2 MSTORE PUSH1 0x20 ADD PUSH0 KECCAK256 PUSH0 SWAP1 SLOAD SWAP1 PUSH2 0x100 EXP SWAP1 DIV PUSH20 0xFFFFFFFFFFFFFFFFFFFFFFFFFFFFFFFFFFFFFFFF AND SWAP1 POP DUP1 PUSH20 0xFFFFFFFFFFFFFFFFFFFFFFFFFFFFFFFFFFFFFFFF AND CALLER PUSH20 0xFFFFFFFFFFFFFFFFFFFFFFFFFFFFFFFFFFFFFFFF AND EQ DUP1 PUSH2 0x474 JUMPI POP PUSH1 0x3 PUSH0 DUP3 PUSH20 0xFFFFFFFFFFFFFFFFFFFFFFFFFFFFFFFFFFFFFFFF AND PUSH20 0xFFFFFFFFFFFFFFFFFFFFFFFFFFFFFFFFFFFFFFFF AND DUP2 MSTORE PUSH1 0x20 ADD SWAP1 DUP2 MSTORE PUSH1 0x20 ADD PUSH0 KECCAK256 PUSH0 CALLER PUSH20 0xFFFFFFFFFFFFFFFFFFFFFFFFFFFFFFFFFFFFFFFF AND PUSH20 0xFFFFFFFFFFFFFFFFFFFFFFFFFFFFFFFFFFFFFFFF AND DUP2 MSTORE PUSH1 0x20 ADD SWAP1 DUP2 MSTORE PUSH1 0x20 ADD PUSH0 KECCAK256 PUSH0 SWAP1 SLOAD SWAP1 PUSH2 0x100 EXP SWAP1 DIV PUSH1 0xFF AND JUMPDEST PUSH2 0x4B3 JUMPI PUSH1 0x40 MLOAD PUSH32 0x8C379A000000000000000000000000000000000000000000000000000000000 DUP2 MSTORE PUSH1 0x4 ADD PUSH2 0x4AA SWAP1 PUSH2 0x16C7 JUMP JUMPDEST PUSH1 0x40 MLOAD DUP1 SWAP2 SUB SWAP1 REVERT JUMPDEST DUP3 PUSH1 0x2 PUSH0 DUP5 DUP2 MSTORE PUSH1 0x20 ADD SWAP1 DUP2 MSTORE PUSH1 0x20 ADD PUSH0 KECCAK256 PUSH0 PUSH2 0x100 EXP DUP2 SLOAD DUP2 PUSH20 0xFFFFFFFFFFFFFFFFFFFFFFFFFFFFFFFFFFFFFFFF MUL NOT AND SWAP1 DUP4 PUSH20 0xFFFFFFFFFFFFFFFFFFFFFFFFFFFFFFFFFFFFFFFF AND MUL OR SWAP1 SSTORE POP DUP2 DUP4 PUSH20 0xFFFFFFFFFFFFFFFFFFFFFFFFFFFFFFFFFFFFFFFF AND DUP3 PUSH20 0xFFFFFFFFFFFFFFFFFFFFFFFFFFFFFFFFFFFFFFFF AND PUSH32 0x8C5BE1E5EBEC7D5BD14F71427D1E84F3DD0314C0F7B2291E5B200AC8C7C3B925 PUSH1 0x40 MLOAD PUSH1 0x40 MLOAD DUP1 SWAP2 SUB SWAP1 LOG4 POP POP POP JUMP JUMPDEST PUSH0 SWAP3 SWAP2 POP POP JUMP JUMPDEST PUSH0 DUP1 DUP3 DUP2 MSTORE PUSH1 0x20 ADD SWAP1 DUP2 MSTORE PUSH1 0x20 ADD PUSH0 KECCAK256 PUSH0 SWAP1 SLOAD SWAP1 PUSH2 0x100 EXP SWAP1 DIV PUSH20 0xFFFFFFFFFFFFFFFFFFFFFFFFFFFFFFFFFFFFFFFF AND PUSH20 0xFFFFFFFFFFFFFFFFFFFFFFFFFFFFFFFFFFFFFFFF AND DUP4 PUSH20 0xFFFFFFFFFFFFFFFFFFFFFFFFFFFFFFFFFFFFFFFF AND EQ PUSH2 0x606 JUMPI PUSH1 0x40 MLOAD PUSH32 0x8C379A000000000000000000000000000000000000000000000000000000000 DUP2 MSTORE PUSH1 0x4 ADD PUSH2 0x5FD SWAP1 PUSH2 0x16C7 JUMP JUMPDEST PUSH1 0x40 MLOAD DUP1 SWAP2 SUB SWAP1 REVERT JUMPDEST PUSH0 PUSH20 0xFFFFFFFFFFFFFFFFFFFFFFFFFFFFFFFFFFFFFFFF AND DUP3 PUSH20 0xFFFFFFFFFFFFFFFFFFFFFFFFFFFFFFFFFFFFFFFF AND SUB PUSH2 0x674 JUMPI PUSH1 0x40 MLOAD PUSH32 0x8C379A000000000000000000000000000000000000000000000000000000000 DUP2 MSTORE PUSH1 0x4 ADD PUSH2 0x66B SWAP1 PUSH2 0x172F JUMP JUMPDEST PUSH1 0x40 MLOAD DUP1 SWAP2 SUB SWAP1 REVERT JUMPDEST PUSH2 0x67F DUP4 CALLER DUP4 PUSH2 0xD7A JUMP JUMPDEST PUSH2 0x687 JUMPI PUSH0 DUP1 REVERT JUMPDEST DUP2 PUSH0 DUP1 DUP4 DUP2 MSTORE PUSH1 0x20 ADD SWAP1 DUP2 MSTORE PUSH1 0x20 ADD PUSH0 KECCAK256 PUSH0 PUSH2 0x100 EXP DUP2 SLOAD DUP2 PUSH20 0xFFFFFFFFFFFFFFFFFFFFFFFFFFFFFFFFFFFFFFFF MUL NOT AND SWAP1 DUP4 PUSH20 0xFFFFFFFFFFFFFFFFFFFFFFFFFFFFFFFFFFFFFFFF AND MUL OR SWAP1 SSTORE POP PUSH1 0x2 PUSH0 DUP3 DUP2 MSTORE PUSH1 0x20 ADD SWAP1 DUP2 MSTORE PUSH1 0x20 ADD PUSH0 KECCAK256 PUSH0 PUSH2 0x100 EXP DUP2 SLOAD SWAP1 PUSH20 0xFFFFFFFFFFFFFFFFFFFFFFFFFFFFFFFFFFFFFFFF MUL NOT AND SWAP1 SSTORE DUP1 DUP3 PUSH20 0xFFFFFFFFFFFFFFFFFFFFFFFFFFFFFFFFFFFFFFFF AND DUP5 PUSH20 0xFFFFFFFFFFFFFFFFFFFFFFFFFFFFFFFFFFFFFFFF AND PUSH32 0xDDF252AD1BE2C89B69C2B068FC378DAA952BA7F163C4A11628F55A4DF523B3EF PUSH1 0x40 MLOAD PUSH1 0x40 MLOAD DUP1 SWAP2 SUB SWAP1 LOG4 POP POP POP JUMP JUMPDEST PUSH2 0x772 DUP3 DUP3 PUSH2 0xEA5 JUMP JUMPDEST POP POP JUMP JUMPDEST PUSH2 0x781 DUP4 DUP4 DUP4 PUSH2 0x569 JUMP JUMPDEST PUSH0 DUP3 PUSH20 0xFFFFFFFFFFFFFFFFFFFFFFFFFFFFFFFFFFFFFFFF AND EXTCODESIZE EQ DUP1 PUSH2 0x866 JUMPI POP PUSH4 0xC3D7027A PUSH1 0xE0 SHL PUSH28 0xFFFFFFFFFFFFFFFFFFFFFFFFFFFFFFFFFFFFFFFFFFFFFFFFFFFFFFFF NOT AND DUP3 PUSH20 0xFFFFFFFFFFFFFFFFFFFFFFFFFFFFFFFFFFFFFFFF AND PUSH4 0xC3D7027A CALLER DUP7 DUP6 PUSH1 0x40 MLOAD DUP5 PUSH4 0xFFFFFFFF AND PUSH1 0xE0 SHL DUP2 MSTORE PUSH1 0x4 ADD PUSH2 0x805 SWAP4 SWAP3 SWAP2 SWAP1 PUSH2 0x1780 JUMP JUMPDEST PUSH1 0x20 PUSH1 0x40 MLOAD DUP1 DUP4 SUB DUP2 PUSH0 DUP8 GAS CALL ISZERO DUP1 ISZERO PUSH2 0x821 JUMPI RETURNDATASIZE PUSH0 DUP1 RETURNDATACOPY RETURNDATASIZE PUSH0 REVERT JUMPDEST POP POP POP POP PUSH1 0x40 MLOAD RETURNDATASIZE PUSH1 0x1F NOT PUSH1 0x1F DUP3 ADD AND DUP3 ADD DUP1 PUSH1 0x40 MSTORE POP DUP2 ADD SWAP1 PUSH2 0x845 SWAP2 SWAP1 PUSH2 0x17DC JUMP JUMPDEST PUSH28 0xFFFFFFFFFFFFFFFFFFFFFFFFFFFFFFFFFFFFFFFFFFFFFFFFFFFFFFFF NOT AND EQ JUMPDEST PUSH2 0x8A5 JUMPI PUSH1 0x40 MLOAD PUSH32 0x8C379A000000000000000000000000000000000000000000000000000000000 DUP2 MSTORE PUSH1 0x4 ADD PUSH2 0x89C SWAP1 PUSH2 0x1851 JUMP JUMPDEST PUSH1 0x40 MLOAD DUP1 SWAP2 SUB SWAP1 REVERT JUMPDEST POP POP POP JUMP JUMPDEST PUSH0 DUP1 DUP3 DUP2 MSTORE PUSH1 0x20 ADD SWAP1 DUP2 MSTORE PUSH1 0x20 ADD PUSH0 KECCAK256 PUSH0 SWAP1 SLOAD SWAP1 PUSH2 0x100 EXP SWAP1 DIV PUSH20 0xFFFFFFFFFFFFFFFFFFFFFFFFFFFFFFFFFFFFFFFF AND PUSH20 0xFFFFFFFFFFFFFFFFFFFFFFFFFFFFFFFFFFFFFFFF AND CALLER PUSH20 0xFFFFFFFFFFFFFFFFFFFFFFFFFFFFFFFFFFFFFFFF AND EQ PUSH2 0x947 JUMPI PUSH1 0x40 MLOAD PUSH32 0x8C379A000000000000000000000000000000000000000000000000000000000 DUP2 MSTORE PUSH1 0x4 ADD PUSH2 0x93E SWAP1 PUSH2 0x18B9 JUMP JUMPDEST PUSH1 0x40 MLOAD DUP1 SWAP2 SUB SWAP1 REVERT JUMPDEST PUSH2 0x950 DUP2 PUSH2 0x10AF JUMP JUMPDEST POP JUMP JUMPDEST PUSH0 DUP1 PUSH0 DUP4 DUP2 MSTORE PUSH1 0x20 ADD SWAP1 DUP2 MSTORE PUSH1 0x20 ADD PUSH0 KECCAK256 PUSH0 SWAP1 SLOAD SWAP1 PUSH2 0x100 EXP SWAP1 DIV PUSH20 0xFFFFFFFFFFFFFFFFFFFFFFFFFFFFFFFFFFFFFFFF AND SWAP1 POP PUSH0 PUSH20 0xFFFFFFFFFFFFFFFFFFFFFFFFFFFFFFFFFFFFFFFF AND DUP2 PUSH20 0xFFFFFFFFFFFFFFFFFFFFFFFFFFFFFFFFFFFFFFFF AND SUB PUSH2 0x9F4 JUMPI PUSH1 0x40 MLOAD PUSH32 0x8C379A000000000000000000000000000000000000000000000000000000000 DUP2 MSTORE PUSH1 0x4 ADD PUSH2 0x9EB SWAP1 PUSH2 0x1921 JUMP JUMPDEST PUSH1 0x40 MLOAD DUP1 SWAP2 SUB SWAP1 REVERT JUMPDEST SWAP2 SWAP1 POP JUMP JUMPDEST PUSH0 DUP1 PUSH20 0xFFFFFFFFFFFFFFFFFFFFFFFFFFFFFFFFFFFFFFFF AND DUP3 PUSH20 0xFFFFFFFFFFFFFFFFFFFFFFFFFFFFFFFFFFFFFFFF AND SUB PUSH2 0xA68 JUMPI PUSH1 0x40 MLOAD PUSH32 0x8C379A000000000000000000000000000000000000000000000000000000000 DUP2 MSTORE PUSH1 0x4 ADD PUSH2 0xA5F SWAP1 PUSH2 0x1921 JUMP JUMPDEST PUSH1 0x40 MLOAD DUP1 SWAP2 SUB SWAP1 REVERT JUMPDEST PUSH1 0x1 PUSH0 DUP4 PUSH20 0xFFFFFFFFFFFFFFFFFFFFFFFFFFFFFFFFFFFFFFFF AND PUSH20 0xFFFFFFFFFFFFFFFFFFFFFFFFFFFFFFFFFFFFFFFF AND DUP2 MSTORE PUSH1 0x20 ADD SWAP1 DUP2 MSTORE PUSH1 0x20 ADD PUSH0 KECCAK256 SLOAD SWAP1 POP SWAP2 SWAP1 POP JUMP JUMPDEST PUSH0 DUP1 PUSH20 0xFFFFFFFFFFFFFFFFFFFFFFFFFFFFFFFFFFFFFFFF AND PUSH0 DUP1 DUP5 DUP2 MSTORE PUSH1 0x20 ADD SWAP1 DUP2 MSTORE PUSH1 0x20 ADD PUSH0 KECCAK256 PUSH0 SWAP1 SLOAD SWAP1 PUSH2 0x100 EXP SWAP1 DIV PUSH20 0xFFFFFFFFFFFFFFFFFFFFFFFFFFFFFFFFFFFFFFFF AND PUSH20 0xFFFFFFFFFFFFFFFFFFFFFFFFFFFFFFFFFFFFFFFF AND SUB PUSH2 0xB4B JUMPI PUSH1 0x40 MLOAD PUSH32 0x8C379A000000000000000000000000000000000000000000000000000000000 DUP2 MSTORE PUSH1 0x4 ADD PUSH2 0xB42 SWAP1 PUSH2 0x1989 JUMP JUMPDEST PUSH1 0x40 MLOAD DUP1 SWAP2 SUB SWAP1 REVERT JUMPDEST PUSH1 0x2 PUSH0 DUP4 DUP2 MSTORE PUSH1 0x20 ADD SWAP1 DUP2 MSTORE PUSH1 0x20 ADD PUSH0 KECCAK256 PUSH0 SWAP1 SLOAD SWAP1 PUSH2 0x100 EXP SWAP1 DIV PUSH20 0xFFFFFFFFFFFFFFFFFFFFFFFFFFFFFFFFFFFFFFFF AND SWAP1 POP SWAP2 SWAP1 POP JUMP JUMPDEST DUP1 PUSH1 0x3 PUSH0 CALLER PUSH20 0xFFFFFFFFFFFFFFFFFFFFFFFFFFFFFFFFFFFFFFFF AND PUSH20 0xFFFFFFFFFFFFFFFFFFFFFFFFFFFFFFFFFFFFFFFF AND DUP2 MSTORE PUSH1 0x20 ADD SWAP1 DUP2 MSTORE PUSH1 0x20 ADD PUSH0 KECCAK256 PUSH0 DUP5 PUSH20 0xFFFFFFFFFFFFFFFFFFFFFFFFFFFFFFFFFFFFFFFF AND PUSH20 0xFFFFFFFFFFFFFFFFFFFFFFFFFFFFFFFFFFFFFFFF AND DUP2 MSTORE PUSH1 0x20 ADD SWAP1 DUP2 MSTORE PUSH1 0x20 ADD PUSH0 KECCAK256 PUSH0 PUSH2 0x100 EXP DUP2 SLOAD DUP2 PUSH1 0xFF MUL NOT AND SWAP1 DUP4 ISZERO ISZERO MUL OR SWAP1 SSTORE POP POP POP JUMP JUMPDEST PUSH2 0xC21 DUP6 DUP6 DUP6 PUSH2 0x569 JUMP JUMPDEST PUSH0 DUP5 PUSH20 0xFFFFFFFFFFFFFFFFFFFFFFFFFFFFFFFFFFFFFFFF AND EXTCODESIZE EQ DUP1 PUSH2 0xD0A JUMPI POP PUSH4 0xC3D7027A PUSH1 0xE0 SHL PUSH28 0xFFFFFFFFFFFFFFFFFFFFFFFFFFFFFFFFFFFFFFFFFFFFFFFFFFFFFFFF NOT AND DUP5 PUSH20 0xFFFFFFFFFFFFFFFFFFFFFFFFFFFFFFFFFFFFFFFF AND PUSH4 0xC3D7027A CALLER DUP9 DUP8 DUP8 DUP8 PUSH1 0x40 MLOAD DUP7 PUSH4 0xFFFFFFFF AND PUSH1 0xE0 SHL DUP2 MSTORE PUSH1 0x4 ADD PUSH2 0xCA9 SWAP6 SWAP5 SWAP4 SWAP3 SWAP2 SWAP1 PUSH2 0x19F1 JUMP JUMPDEST PUSH1 0x20 PUSH1 0x40 MLOAD DUP1 DUP4 SUB DUP2 PUSH0 DUP8 GAS CALL ISZERO DUP1 ISZERO PUSH2 0xCC5 JUMPI RETURNDATASIZE PUSH0 DUP1 RETURNDATACOPY RETURNDATASIZE PUSH0 REVERT JUMPDEST POP POP POP POP PUSH1 0x40 MLOAD RETURNDATASIZE PUSH1 0x1F NOT PUSH1 0x1F DUP3 ADD AND DUP3 ADD DUP1 PUSH1 0x40 MSTORE POP DUP2 ADD SWAP1 PUSH2 0xCE9 SWAP2 SWAP1 PUSH2 0x17DC JUMP JUMPDEST PUSH28 0xFFFFFFFFFFFFFFFFFFFFFFFFFFFFFFFFFFFFFFFFFFFFFFFFFFFFFFFF NOT AND EQ JUMPDEST PUSH2 0xD49 JUMPI PUSH1 0x40 MLOAD PUSH32 0x8C379A000000000000000000000000000000000000000000000000000000000 DUP2 MSTORE PUSH1 0x4 ADD PUSH2 0xD40 SWAP1 PUSH2 0x1851 JUMP JUMPDEST PUSH1 0x40 MLOAD DUP1 SWAP2 SUB SWAP1 REVERT JUMPDEST POP POP POP POP POP JUMP JUMPDEST PUSH1 0x3 PUSH1 0x20 MSTORE DUP2 PUSH0 MSTORE PUSH1 0x40 PUSH0 KECCAK256 PUSH1 0x20 MSTORE DUP1 PUSH0 MSTORE PUSH1 0x40 PUSH0 KECCAK256 PUSH0 SWAP2 POP SWAP2 POP SWAP1 SLOAD SWAP1 PUSH2 0x100 EXP SWAP1 DIV PUSH1 0xFF AND DUP2 JUMP JUMPDEST PUSH0 DUP4 PUSH20 0xFFFFFFFFFFFFFFFFFFFFFFFFFFFFFFFFFFFFFFFF AND DUP4 PUSH20 0xFFFFFFFFFFFFFFFFFFFFFFFFFFFFFFFFFFFFFFFF AND EQ DUP1 PUSH2 0xE36 JUMPI POP PUSH1 0x3 PUSH0 DUP6 PUSH20 0xFFFFFFFFFFFFFFFFFFFFFFFFFFFFFFFFFFFFFFFF AND PUSH20 0xFFFFFFFFFFFFFFFFFFFFFFFFFFFFFFFFFFFFFFFF AND DUP2 MSTORE PUSH1 0x20 ADD SWAP1 DUP2 MSTORE PUSH1 0x20 ADD PUSH0 KECCAK256 PUSH0 DUP5 PUSH20 0xFFFFFFFFFFFFFFFFFFFFFFFFFFFFFFFFFFFFFFFF AND PUSH20 0xFFFFFFFFFFFFFFFFFFFFFFFFFFFFFFFFFFFFFFFF AND DUP2 MSTORE PUSH1 0x20 ADD SWAP1 DUP2 MSTORE PUSH1 0x20 ADD PUSH0 KECCAK256 PUSH0 SWAP1 SLOAD SWAP1 PUSH2 0x100 EXP SWAP1 DIV PUSH1 0xFF AND JUMPDEST DUP1 PUSH2 0xE9C JUMPI POP PUSH1 0x2 PUSH0 DUP4 DUP2 MSTORE PUSH1 0x20 ADD SWAP1 DUP2 MSTORE PUSH1 0x20 ADD PUSH0 KECCAK256 PUSH0 SWAP1 SLOAD SWAP1 PUSH2 0x100 EXP SWAP1 DIV PUSH20 0xFFFFFFFFFFFFFFFFFFFFFFFFFFFFFFFFFFFFFFFF AND PUSH20 0xFFFFFFFFFFFFFFFFFFFFFFFFFFFFFFFFFFFFFFFF AND DUP4 PUSH20 0xFFFFFFFFFFFFFFFFFFFFFFFFFFFFFFFFFFFFFFFF AND EQ JUMPDEST SWAP1 POP SWAP4 SWAP3 POP POP POP JUMP JUMPDEST PUSH0 PUSH20 0xFFFFFFFFFFFFFFFFFFFFFFFFFFFFFFFFFFFFFFFF AND DUP3 PUSH20 0xFFFFFFFFFFFFFFFFFFFFFFFFFFFFFFFFFFFFFFFF AND SUB PUSH2 0xF13 JUMPI PUSH1 0x40 MLOAD PUSH32 0x8C379A000000000000000000000000000000000000000000000000000000000 DUP2 MSTORE PUSH1 0x4 ADD PUSH2 0xF0A SWAP1 PUSH2 0x1A87 JUMP JUMPDEST PUSH1 0x40 MLOAD DUP1 SWAP2 SUB SWAP1 REVERT JUMPDEST PUSH0 PUSH20 0xFFFFFFFFFFFFFFFFFFFFFFFFFFFFFFFFFFFFFFFF AND PUSH0 DUP1 DUP4 DUP2 MSTORE PUSH1 0x20 ADD SWAP1 DUP2 MSTORE PUSH1 0x20 ADD PUSH0 KECCAK256 PUSH0 SWAP1 SLOAD SWAP1 PUSH2 0x100 EXP SWAP1 DIV PUSH20 0xFFFFFFFFFFFFFFFFFFFFFFFFFFFFFFFFFFFFFFFF AND PUSH20 0xFFFFFFFFFFFFFFFFFFFFFFFFFFFFFFFFFFFFFFFF AND SUB PUSH2 0xFB0 JUMPI PUSH1 0x40 MLOAD PUSH32 0x8C379A000000000000000000000000000000000000000000000000000000000 DUP2 MSTORE PUSH1 0x4 ADD PUSH2 0xFA7 SWAP1 PUSH2 0x1A87 JUMP JUMPDEST PUSH1 0x40 MLOAD DUP1 SWAP2 SUB SWAP1 REVERT JUMPDEST PUSH1 0x1 PUSH0 DUP4 PUSH20 0xFFFFFFFFFFFFFFFFFFFFFFFFFFFFFFFFFFFFFFFF AND PUSH20 0xFFFFFFFFFFFFFFFFFFFFFFFFFFFFFFFFFFFFFFFF AND DUP2 MSTORE PUSH1 0x20 ADD SWAP1 DUP2 MSTORE PUSH1 0x20 ADD PUSH0 KECCAK256 PUSH0 DUP2 SLOAD DUP1 SWAP3 SWAP2 SWAP1 PUSH2 0xFFD SWAP1 PUSH2 0x1AD2 JUMP JUMPDEST SWAP2 SWAP1 POP SSTORE POP DUP2 PUSH0 DUP1 DUP4 DUP2 MSTORE PUSH1 0x20 ADD SWAP1 DUP2 MSTORE PUSH1 0x20 ADD PUSH0 KECCAK256 PUSH0 PUSH2 0x100 EXP DUP2 SLOAD DUP2 PUSH20 0xFFFFFFFFFFFFFFFFFFFFFFFFFFFFFFFFFFFFFFFF MUL NOT AND SWAP1 DUP4 PUSH20 0xFFFFFFFFFFFFFFFFFFFFFFFFFFFFFFFFFFFFFFFF AND MUL OR SWAP1 SSTORE POP DUP1 DUP3 PUSH20 0xFFFFFFFFFFFFFFFFFFFFFFFFFFFFFFFFFFFFFFFF AND PUSH0 PUSH20 0xFFFFFFFFFFFFFFFFFFFFFFFFFFFFFFFFFFFFFFFF AND PUSH32 0xDDF252AD1BE2C89B69C2B068FC378DAA952BA7F163C4A11628F55A4DF523B3EF PUSH1 0x40 MLOAD PUSH1 0x40 MLOAD DUP1 SWAP2 SUB SWAP1 LOG4 POP POP JUMP JUMPDEST PUSH0 DUP1 PUSH0 DUP4 DUP2 MSTORE PUSH1 0x20 ADD SWAP1 DUP2 MSTORE PUSH1 0x20 ADD PUSH0 KECCAK256 PUSH0 SWAP1 SLOAD SWAP1 PUSH2 0x100 EXP SWAP1 DIV PUSH20 0xFFFFFFFFFFFFFFFFFFFFFFFFFFFFFFFFFFFFFFFF AND SWAP1 POP PUSH0 PUSH20 0xFFFFFFFFFFFFFFFFFFFFFFFFFFFFFFFFFFFFFFFF AND DUP2 PUSH20 0xFFFFFFFFFFFFFFFFFFFFFFFFFFFFFFFFFFFFFFFF AND SUB PUSH2 0x1150 JUMPI PUSH1 0x40 MLOAD PUSH32 0x8C379A000000000000000000000000000000000000000000000000000000000 DUP2 MSTORE PUSH1 0x4 ADD PUSH2 0x1147 SWAP1 PUSH2 0x1A87 JUMP JUMPDEST PUSH1 0x40 MLOAD DUP1 SWAP2 SUB SWAP1 REVERT JUMPDEST PUSH1 0x1 PUSH0 DUP3 PUSH20 0xFFFFFFFFFFFFFFFFFFFFFFFFFFFFFFFFFFFFFFFF AND PUSH20 0xFFFFFFFFFFFFFFFFFFFFFFFFFFFFFFFFFFFFFFFF AND DUP2 MSTORE PUSH1 0x20 ADD SWAP1 DUP2 MSTORE PUSH1 0x20 ADD PUSH0 KECCAK256 PUSH0 DUP2 SLOAD DUP1 SWAP3 SWAP2 SWAP1 PUSH2 0x119D SWAP1 PUSH2 0x1B19 JUMP JUMPDEST SWAP2 SWAP1 POP SSTORE POP PUSH0 DUP1 DUP4 DUP2 MSTORE PUSH1 0x20 ADD SWAP1 DUP2 MSTORE PUSH1 0x20 ADD PUSH0 KECCAK256 PUSH0 PUSH2 0x100 EXP DUP2 SLOAD SWAP1 PUSH20 0xFFFFFFFFFFFFFFFFFFFFFFFFFFFFFFFFFFFFFFFF MUL NOT AND SWAP1 SSTORE PUSH1 0x2 PUSH0 DUP4 DUP2 MSTORE PUSH1 0x20 ADD SWAP1 DUP2 MSTORE PUSH1 0x20 ADD PUSH0 KECCAK256 PUSH0 PUSH2 0x100 EXP DUP2 SLOAD SWAP1 PUSH20 0xFFFFFFFFFFFFFFFFFFFFFFFFFFFFFFFFFFFFFFFF MUL NOT AND SWAP1 SSTORE DUP2 PUSH0 PUSH20 0xFFFFFFFFFFFFFFFFFFFFFFFFFFFFFFFFFFFFFFFF AND DUP3 PUSH20 0xFFFFFFFFFFFFFFFFFFFFFFFFFFFFFFFFFFFFFFFF AND PUSH32 0xDDF252AD1BE2C89B69C2B068FC378DAA952BA7F163C4A11628F55A4DF523B3EF PUSH1 0x40 MLOAD PUSH1 0x40 MLOAD DUP1 SWAP2 SUB SWAP1 LOG4 POP POP JUMP JUMPDEST PUSH0 DUP1 REVERT JUMPDEST PUSH0 DUP1 REVERT JUMPDEST PUSH0 PUSH32 0xFFFFFFFF00000000000000000000000000000000000000000000000000000000 DUP3 AND SWAP1 POP SWAP2 SWAP1 POP JUMP JUMPDEST PUSH2 0x12A2 DUP2 PUSH2 0x126E JUMP JUMPDEST DUP2 EQ PUSH2 0x12AC JUMPI PUSH0 DUP1 REVERT JUMPDEST POP JUMP JUMPDEST PUSH0 DUP2 CALLDATALOAD SWAP1 POP PUSH2 0x12BD DUP2 PUSH2 0x1299 JUMP JUMPDEST SWAP3 SWAP2 POP POP JUMP JUMPDEST PUSH0 PUSH1 0x20 DUP3 DUP5 SUB SLT ISZERO PUSH2 0x12D8 JUMPI PUSH2 0x12D7 PUSH2 0x1266 JUMP JUMPDEST JUMPDEST PUSH0 PUSH2 0x12E5 DUP5 DUP3 DUP6 ADD PUSH2 0x12AF JUMP JUMPDEST SWAP2 POP POP SWAP3 SWAP2 POP POP JUMP JUMPDEST PUSH0 DUP2 ISZERO ISZERO SWAP1 POP SWAP2 SWAP1 POP JUMP JUMPDEST PUSH2 0x1302 DUP2 PUSH2 0x12EE JUMP JUMPDEST DUP3 MSTORE POP POP JUMP JUMPDEST PUSH0 PUSH1 0x20 DUP3 ADD SWAP1 POP PUSH2 0x131B PUSH0 DUP4 ADD DUP5 PUSH2 0x12F9 JUMP JUMPDEST SWAP3 SWAP2 POP POP JUMP JUMPDEST PUSH0 PUSH20 0xFFFFFFFFFFFFFFFFFFFFFFFFFFFFFFFFFFFFFFFF DUP3 AND SWAP1 POP SWAP2 SWAP1 POP JUMP JUMPDEST PUSH0 PUSH2 0x134A DUP3 PUSH2 0x1321 JUMP JUMPDEST SWAP1 POP SWAP2 SWAP1 POP JUMP JUMPDEST PUSH2 0x135A DUP2 PUSH2 0x1340 JUMP JUMPDEST DUP2 EQ PUSH2 0x1364 JUMPI PUSH0 DUP1 REVERT JUMPDEST POP JUMP JUMPDEST PUSH0 DUP2 CALLDATALOAD SWAP1 POP PUSH2 0x1375 DUP2 PUSH2 0x1351 JUMP JUMPDEST SWAP3 SWAP2 POP POP JUMP JUMPDEST PUSH0 DUP2 SWAP1 POP SWAP2 SWAP1 POP JUMP JUMPDEST PUSH2 0x138D DUP2 PUSH2 0x137B JUMP JUMPDEST DUP2 EQ PUSH2 0x1397 JUMPI PUSH0 DUP1 REVERT JUMPDEST POP JUMP JUMPDEST PUSH0 DUP2 CALLDATALOAD SWAP1 POP PUSH2 0x13A8 DUP2 PUSH2 0x1384 JUMP JUMPDEST SWAP3 SWAP2 POP POP JUMP JUMPDEST PUSH0 DUP1 PUSH1 0x40 DUP4 DUP6 SUB SLT ISZERO PUSH2 0x13C4 JUMPI PUSH2 0x13C3 PUSH2 0x1266 JUMP JUMPDEST JUMPDEST PUSH0 PUSH2 0x13D1 DUP6 DUP3 DUP7 ADD PUSH2 0x1367 JUMP JUMPDEST SWAP3 POP POP PUSH1 0x20 PUSH2 0x13E2 DUP6 DUP3 DUP7 ADD PUSH2 0x139A JUMP JUMPDEST SWAP2 POP POP SWAP3 POP SWAP3 SWAP1 POP JUMP JUMPDEST PUSH0 DUP1 PUSH1 0x40 DUP4 DUP6 SUB SLT ISZERO PUSH2 0x1402 JUMPI PUSH2 0x1401 PUSH2 0x1266 JUMP JUMPDEST JUMPDEST PUSH0 PUSH2 0x140F DUP6 DUP3 DUP7 ADD PUSH2 0x1367 JUMP JUMPDEST SWAP3 POP POP PUSH1 0x20 PUSH2 0x1420 DUP6 DUP3 DUP7 ADD PUSH2 0x1367 JUMP JUMPDEST SWAP2 POP POP SWAP3 POP SWAP3 SWAP1 POP JUMP JUMPDEST PUSH0 DUP1 PUSH0 PUSH1 0x60 DUP5 DUP7 SUB SLT ISZERO PUSH2 0x1441 JUMPI PUSH2 0x1440 PUSH2 0x1266 JUMP JUMPDEST JUMPDEST PUSH0 PUSH2 0x144E DUP7 DUP3 DUP8 ADD PUSH2 0x1367 JUMP JUMPDEST SWAP4 POP POP PUSH1 0x20 PUSH2 0x145F DUP7 DUP3 DUP8 ADD PUSH2 0x1367 JUMP JUMPDEST SWAP3 POP POP PUSH1 0x40 PUSH2 0x1470 DUP7 DUP3 DUP8 ADD PUSH2 0x139A JUMP JUMPDEST SWAP2 POP POP SWAP3 POP SWAP3 POP SWAP3 JUMP JUMPDEST PUSH0 PUSH1 0x20 DUP3 DUP5 SUB SLT ISZERO PUSH2 0x148F JUMPI PUSH2 0x148E PUSH2 0x1266 JUMP JUMPDEST JUMPDEST PUSH0 PUSH2 0x149C DUP5 DUP3 DUP6 ADD PUSH2 0x139A JUMP JUMPDEST SWAP2 POP POP SWAP3 SWAP2 POP POP JUMP JUMPDEST PUSH2 0x14AE DUP2 PUSH2 0x1340 JUMP JUMPDEST DUP3 MSTORE POP POP JUMP JUMPDEST PUSH0 PUSH1 0x20 DUP3 ADD SWAP1 POP PUSH2 0x14C7 PUSH0 DUP4 ADD DUP5 PUSH2 0x14A5 JUMP JUMPDEST SWAP3 SWAP2 POP POP JUMP JUMPDEST PUSH0 PUSH1 0x20 DUP3 DUP5 SUB SLT ISZERO PUSH2 0x14E2 JUMPI PUSH2 0x14E1 PUSH2 0x1266 JUMP JUMPDEST JUMPDEST PUSH0 PUSH2 0x14EF DUP5 DUP3 DUP6 ADD PUSH2 0x1367 JUMP JUMPDEST SWAP2 POP POP SWAP3 SWAP2 POP POP JUMP JUMPDEST PUSH2 0x1501 DUP2 PUSH2 0x137B JUMP JUMPDEST DUP3 MSTORE POP POP JUMP JUMPDEST PUSH0 PUSH1 0x20 DUP3 ADD SWAP1 POP PUSH2 0x151A PUSH0 DUP4 ADD DUP5 PUSH2 0x14F8 JUMP JUMPDEST SWAP3 SWAP2 POP POP JUMP JUMPDEST PUSH2 0x1529 DUP2 PUSH2 0x12EE JUMP JUMPDEST DUP2 EQ PUSH2 0x1533 JUMPI PUSH0 DUP1 REVERT JUMPDEST POP JUMP JUMPDEST PUSH0 DUP2 CALLDATALOAD SWAP1 POP PUSH2 0x1544 DUP2 PUSH2 0x1520 JUMP JUMPDEST SWAP3 SWAP2 POP POP JUMP JUMPDEST PUSH0 DUP1 PUSH1 0x40 DUP4 DUP6 SUB SLT ISZERO PUSH2 0x1560 JUMPI PUSH2 0x155F PUSH2 0x1266 JUMP JUMPDEST JUMPDEST PUSH0 PUSH2 0x156D DUP6 DUP3 DUP7 ADD PUSH2 0x1367 JUMP JUMPDEST SWAP3 POP POP PUSH1 0x20 PUSH2 0x157E DUP6 DUP3 DUP7 ADD PUSH2 0x1536 JUMP JUMPDEST SWAP2 POP POP SWAP3 POP SWAP3 SWAP1 POP JUMP JUMPDEST PUSH0 DUP1 REVERT JUMPDEST PUSH0 DUP1 REVERT JUMPDEST PUSH0 DUP1 REVERT JUMPDEST PUSH0 DUP1 DUP4 PUSH1 0x1F DUP5 ADD SLT PUSH2 0x15A9 JUMPI PUSH2 0x15A8 PUSH2 0x1588 JUMP JUMPDEST JUMPDEST DUP3 CALLDATALOAD SWAP1 POP PUSH8 0xFFFFFFFFFFFFFFFF DUP2 GT ISZERO PUSH2 0x15C6 JUMPI PUSH2 0x15C5 PUSH2 0x158C JUMP JUMPDEST JUMPDEST PUSH1 0x20 DUP4 ADD SWAP2 POP DUP4 PUSH1 0x1 DUP3 MUL DUP4 ADD GT ISZERO PUSH2 0x15E2 JUMPI PUSH2 0x15E1 PUSH2 0x1590 JUMP JUMPDEST JUMPDEST SWAP3 POP SWAP3 SWAP1 POP JUMP JUMPDEST PUSH0 DUP1 PUSH0 DUP1 PUSH0 PUSH1 0x80 DUP7 DUP9 SUB SLT ISZERO PUSH2 0x1602 JUMPI PUSH2 0x1601 PUSH2 0x1266 JUMP JUMPDEST JUMPDEST PUSH0 PUSH2 0x160F DUP9 DUP3 DUP10 ADD PUSH2 0x1367 JUMP JUMPDEST SWAP6 POP POP PUSH1 0x20 PUSH2 0x1620 DUP9 DUP3 DUP10 ADD PUSH2 0x1367 JUMP JUMPDEST SWAP5 POP POP PUSH1 0x40 PUSH2 0x1631 DUP9 DUP3 DUP10 ADD PUSH2 0x139A JUMP JUMPDEST SWAP4 POP POP PUSH1 0x60 DUP7 ADD CALLDATALOAD PUSH8 0xFFFFFFFFFFFFFFFF DUP2 GT ISZERO PUSH2 0x1652 JUMPI PUSH2 0x1651 PUSH2 0x126A JUMP JUMPDEST JUMPDEST PUSH2 0x165E DUP9 DUP3 DUP10 ADD PUSH2 0x1594 JUMP JUMPDEST SWAP3 POP SWAP3 POP POP SWAP3 SWAP6 POP SWAP3 SWAP6 SWAP1 SWAP4 POP JUMP JUMPDEST PUSH0 DUP3 DUP3 MSTORE PUSH1 0x20 DUP3 ADD SWAP1 POP SWAP3 SWAP2 POP POP JUMP JUMPDEST PUSH32 0x6E6F74206F776E65720000000000000000000000000000000000000000000000 PUSH0 DUP3 ADD MSTORE POP JUMP JUMPDEST PUSH0 PUSH2 0x16B1 PUSH1 0x9 DUP4 PUSH2 0x166D JUMP JUMPDEST SWAP2 POP PUSH2 0x16BC DUP3 PUSH2 0x167D JUMP JUMPDEST PUSH1 0x20 DUP3 ADD SWAP1 POP SWAP2 SWAP1 POP JUMP JUMPDEST PUSH0 PUSH1 0x20 DUP3 ADD SWAP1 POP DUP2 DUP2 SUB PUSH0 DUP4 ADD MSTORE PUSH2 0x16DE DUP2 PUSH2 0x16A5 JUMP JUMPDEST SWAP1 POP SWAP2 SWAP1 POP JUMP JUMPDEST PUSH32 0x63616E206E6F74207A65726F0000000000000000000000000000000000000000 PUSH0 DUP3 ADD MSTORE POP JUMP JUMPDEST PUSH0 PUSH2 0x1719 PUSH1 0xC DUP4 PUSH2 0x166D JUMP JUMPDEST SWAP2 POP PUSH2 0x1724 DUP3 PUSH2 0x16E5 JUMP JUMPDEST PUSH1 0x20 DUP3 ADD SWAP1 POP SWAP2 SWAP1 POP JUMP JUMPDEST PUSH0 PUSH1 0x20 DUP3 ADD SWAP1 POP DUP2 DUP2 SUB PUSH0 DUP4 ADD MSTORE PUSH2 0x1746 DUP2 PUSH2 0x170D JUMP JUMPDEST SWAP1 POP SWAP2 SWAP1 POP JUMP JUMPDEST PUSH0 DUP3 DUP3 MSTORE PUSH1 0x20 DUP3 ADD SWAP1 POP SWAP3 SWAP2 POP POP JUMP JUMPDEST POP JUMP JUMPDEST PUSH0 PUSH2 0x176B PUSH0 DUP4 PUSH2 0x174D JUMP JUMPDEST SWAP2 POP PUSH2 0x1776 DUP3 PUSH2 0x175D JUMP JUMPDEST PUSH0 DUP3 ADD SWAP1 POP SWAP2 SWAP1 POP JUMP JUMPDEST PUSH0 PUSH1 0x80 DUP3 ADD SWAP1 POP PUSH2 0x1793 PUSH0 DUP4 ADD DUP7 PUSH2 0x14A5 JUMP JUMPDEST PUSH2 0x17A0 PUSH1 0x20 DUP4 ADD DUP6 PUSH2 0x14A5 JUMP JUMPDEST PUSH2 0x17AD PUSH1 0x40 DUP4 ADD DUP5 PUSH2 0x14F8 JUMP JUMPDEST DUP2 DUP2 SUB PUSH1 0x60 DUP4 ADD MSTORE PUSH2 0x17BE DUP2 PUSH2 0x1760 JUMP JUMPDEST SWAP1 POP SWAP5 SWAP4 POP POP POP POP JUMP JUMPDEST PUSH0 DUP2 MLOAD SWAP1 POP PUSH2 0x17D6 DUP2 PUSH2 0x1299 JUMP JUMPDEST SWAP3 SWAP2 POP POP JUMP JUMPDEST PUSH0 PUSH1 0x20 DUP3 DUP5 SUB SLT ISZERO PUSH2 0x17F1 JUMPI PUSH2 0x17F0 PUSH2 0x1266 JUMP JUMPDEST JUMPDEST PUSH0 PUSH2 0x17FE DUP5 DUP3 DUP6 ADD PUSH2 0x17C8 JUMP JUMPDEST SWAP2 POP POP SWAP3 SWAP2 POP POP JUMP JUMPDEST PUSH32 0x756E7361666520726563697069656E7400000000000000000000000000000000 PUSH0 DUP3 ADD MSTORE POP JUMP JUMPDEST PUSH0 PUSH2 0x183B PUSH1 0x10 DUP4 PUSH2 0x166D JUMP JUMPDEST SWAP2 POP PUSH2 0x1846 DUP3 PUSH2 0x1807 JUMP JUMPDEST PUSH1 0x20 DUP3 ADD SWAP1 POP SWAP2 SWAP1 POP JUMP JUMPDEST PUSH0 PUSH1 0x20 DUP3 ADD SWAP1 POP DUP2 DUP2 SUB PUSH0 DUP4 ADD MSTORE PUSH2 0x1868 DUP2 PUSH2 0x182F JUMP JUMPDEST SWAP1 POP SWAP2 SWAP1 POP JUMP JUMPDEST PUSH32 0x6E6F74206F776E65722100000000000000000000000000000000000000000000 PUSH0 DUP3 ADD MSTORE POP JUMP JUMPDEST PUSH0 PUSH2 0x18A3 PUSH1 0xA DUP4 PUSH2 0x166D JUMP JUMPDEST SWAP2 POP PUSH2 0x18AE DUP3 PUSH2 0x186F JUMP JUMPDEST PUSH1 0x20 DUP3 ADD SWAP1 POP SWAP2 SWAP1 POP JUMP JUMPDEST PUSH0 PUSH1 0x20 DUP3 ADD SWAP1 POP DUP2 DUP2 SUB PUSH0 DUP4 ADD MSTORE PUSH2 0x18D0 DUP2 PUSH2 0x1897 JUMP JUMPDEST SWAP1 POP SWAP2 SWAP1 POP JUMP JUMPDEST PUSH32 0x6164647265737320302100000000000000000000000000000000000000000000 PUSH0 DUP3 ADD MSTORE POP JUMP JUMPDEST PUSH0 PUSH2 0x190B PUSH1 0xA DUP4 PUSH2 0x166D JUMP JUMPDEST SWAP2 POP PUSH2 0x1916 DUP3 PUSH2 0x18D7 JUMP JUMPDEST PUSH1 0x20 DUP3 ADD SWAP1 POP SWAP2 SWAP1 POP JUMP JUMPDEST PUSH0 PUSH1 0x20 DUP3 ADD SWAP1 POP DUP2 DUP2 SUB PUSH0 DUP4 ADD MSTORE PUSH2 0x1938 DUP2 PUSH2 0x18FF JUMP JUMPDEST SWAP1 POP SWAP2 SWAP1 POP JUMP JUMPDEST PUSH32 0x7A65726F20616464726573732021000000000000000000000000000000000000 PUSH0 DUP3 ADD MSTORE POP JUMP JUMPDEST PUSH0 PUSH2 0x1973 PUSH1 0xE DUP4 PUSH2 0x166D JUMP JUMPDEST SWAP2 POP PUSH2 0x197E DUP3 PUSH2 0x193F JUMP JUMPDEST PUSH1 0x20 DUP3 ADD SWAP1 POP SWAP2 SWAP1 POP JUMP JUMPDEST PUSH0 PUSH1 0x20 DUP3 ADD SWAP1 POP DUP2 DUP2 SUB PUSH0 DUP4 ADD MSTORE PUSH2 0x19A0 DUP2 PUSH2 0x1967 JUMP JUMPDEST SWAP1 POP SWAP2 SWAP1 POP JUMP JUMPDEST DUP3 DUP2 DUP4 CALLDATACOPY PUSH0 DUP4 DUP4 ADD MSTORE POP POP POP JUMP JUMPDEST PUSH0 PUSH1 0x1F NOT PUSH1 0x1F DUP4 ADD AND SWAP1 POP SWAP2 SWAP1 POP JUMP JUMPDEST PUSH0 PUSH2 0x19D0 DUP4 DUP6 PUSH2 0x174D JUMP JUMPDEST SWAP4 POP PUSH2 0x19DD DUP4 DUP6 DUP5 PUSH2 0x19A7 JUMP JUMPDEST PUSH2 0x19E6 DUP4 PUSH2 0x19B5 JUMP JUMPDEST DUP5 ADD SWAP1 POP SWAP4 SWAP3 POP POP POP JUMP JUMPDEST PUSH0 PUSH1 0x80 DUP3 ADD SWAP1 POP PUSH2 0x1A04 PUSH0 DUP4 ADD DUP9 PUSH2 0x14A5 JUMP JUMPDEST PUSH2 0x1A11 PUSH1 0x20 DUP4 ADD DUP8 PUSH2 0x14A5 JUMP JUMPDEST PUSH2 0x1A1E PUSH1 0x40 DUP4 ADD DUP7 PUSH2 0x14F8 JUMP JUMPDEST DUP2 DUP2 SUB PUSH1 0x60 DUP4 ADD MSTORE PUSH2 0x1A31 DUP2 DUP5 DUP7 PUSH2 0x19C5 JUMP JUMPDEST SWAP1 POP SWAP7 SWAP6 POP POP POP POP POP POP JUMP JUMPDEST PUSH32 0x7A65726F20616464726573732100000000000000000000000000000000000000 PUSH0 DUP3 ADD MSTORE POP JUMP JUMPDEST PUSH0 PUSH2 0x1A71 PUSH1 0xD DUP4 PUSH2 0x166D JUMP JUMPDEST SWAP2 POP PUSH2 0x1A7C DUP3 PUSH2 0x1A3D JUMP JUMPDEST PUSH1 0x20 DUP3 ADD SWAP1 POP SWAP2 SWAP1 POP JUMP JUMPDEST PUSH0 PUSH1 0x20 DUP3 ADD SWAP1 POP DUP2 DUP2 SUB PUSH0 DUP4 ADD MSTORE PUSH2 0x1A9E DUP2 PUSH2 0x1A65 JUMP JUMPDEST SWAP1 POP SWAP2 SWAP1 POP JUMP JUMPDEST PUSH32 0x4E487B7100000000000000000000000000000000000000000000000000000000 PUSH0 MSTORE PUSH1 0x11 PUSH1 0x4 MSTORE PUSH1 0x24 PUSH0 REVERT JUMPDEST PUSH0 PUSH2 0x1ADC DUP3 PUSH2 0x137B JUMP JUMPDEST SWAP2 POP PUSH32 0xFFFFFFFFFFFFFFFFFFFFFFFFFFFFFFFFFFFFFFFFFFFFFFFFFFFFFFFFFFFFFFFF DUP3 SUB PUSH2 0x1B0E JUMPI PUSH2 0x1B0D PUSH2 0x1AA5 JUMP JUMPDEST JUMPDEST PUSH1 0x1 DUP3 ADD SWAP1 POP SWAP2 SWAP1 POP JUMP JUMPDEST PUSH0 PUSH2 0x1B23 DUP3 PUSH2 0x137B JUMP JUMPDEST SWAP2 POP PUSH0 DUP3 SUB PUSH2 0x1B35 JUMPI PUSH2 0x1B34 PUSH2 0x1AA5 JUMP JUMPDEST JUMPDEST PUSH1 0x1 DUP3 SUB SWAP1 POP SWAP2 SWAP1 POP JUMP INVALID LOG2 PUSH5 0x6970667358 0x22 SLT KECCAK256 ISZERO PUSH27 0x4DAD3FF419752D8757A1BF92A1AC1EE59FD9BC9BC0278CD587BB52 CALLVALUE PUSH9 0x1D64736F6C63430008 BYTE STOP CALLER "
				},
				"gasEstimates": {
					"creation": {
						"codeDepositCost": "1406000",
						"executionCost": "1463",
						"totalCost": "1407463"
					},
					"external": {
						"approve(address,uint256)": "31497",
						"balanceOf(address)": "2931",
						"burn(uint256)": "infinite",
						"getApprove(uint256)": "5120",
						"isApprovalForAll(address,address)": "infinite",
						"isApproveForAll(address,address)": "infinite",
						"mint(address,uint256)": "infinite",
						"ownerOf(uint256)": "2983",
						"safeTransferFrom(address,address,uint256)": "infinite",
						"safeTransferFrom(address,address,uint256,bytes)": "infinite",
						"setApproveForAll(address,bool)": "25111",
						"supportsInterface(bytes4)": "676",
						"transferFrom(address,address,uint256)": "infinite"
					}
				},
				"methodIdentifiers": {
					"approve(address,uint256)": "095ea7b3",
					"balanceOf(address)": "70a08231",
					"burn(uint256)": "42966c68",
					"getApprove(uint256)": "7ac8f518",
					"isApprovalForAll(address,address)": "ebd1d359",
					"isApproveForAll(address,address)": "230e85c7",
					"mint(address,uint256)": "40c10f19",
					"ownerOf(uint256)": "6352211e",
					"safeTransferFrom(address,address,uint256)": "42842e0e",
					"safeTransferFrom(address,address,uint256,bytes)": "b88d4fde",
					"setApproveForAll(address,bool)": "b4989c3f",
					"supportsInterface(bytes4)": "01ffc9a7",
					"transferFrom(address,address,uint256)": "23b872dd"
				}
			},
			"storageLayout": {
				"storage": [
					{
						"astId": 129,
						"contract": "contract/3-4/ERC721Demo.sol:MyNFT",
						"label": "_ownerOf",
						"offset": 0,
						"slot": "0",
						"type": "t_mapping(t_uint256,t_address)"
					},
					{
						"astId": 133,
						"contract": "contract/3-4/ERC721Demo.sol:MyNFT",
						"label": "_banlanceOf",
						"offset": 0,
						"slot": "1",
						"type": "t_mapping(t_address,t_uint256)"
					},
					{
						"astId": 137,
						"contract": "contract/3-4/ERC721Demo.sol:MyNFT",
						"label": "_approvals",
						"offset": 0,
						"slot": "2",
						"type": "t_mapping(t_uint256,t_address)"
					},
					{
						"astId": 143,
						"contract": "contract/3-4/ERC721Demo.sol:MyNFT",
						"label": "isApprovalForAll",
						"offset": 0,
						"slot": "3",
						"type": "t_mapping(t_address,t_mapping(t_address,t_bool))"
					}
				],
				"types": {
					"t_address": {
						"encoding": "inplace",
						"label": "address",
						"numberOfBytes": "20"
					},
					"t_bool": {
						"encoding": "inplace",
						"label": "bool",
						"numberOfBytes": "1"
					},
					"t_mapping(t_address,t_bool)": {
						"encoding": "mapping",
						"key": "t_address",
						"label": "mapping(address => bool)",
						"numberOfBytes": "32",
						"value": "t_bool"
					},
					"t_mapping(t_address,t_mapping(t_address,t_bool))": {
						"encoding": "mapping",
						"key": "t_address",
						"label": "mapping(address => mapping(address => bool))",
						"numberOfBytes": "32",
						"value": "t_mapping(t_address,t_bool)"
					},
					"t_mapping(t_address,t_uint256)": {
						"encoding": "mapping",
						"key": "t_address",
						"label": "mapping(address => uint256)",
						"numberOfBytes": "32",
						"value": "t_uint256"
					},
					"t_mapping(t_uint256,t_address)": {
						"encoding": "mapping",
						"key": "t_uint256",
						"label": "mapping(uint256 => address)",
						"numberOfBytes": "32",
						"value": "t_address"
					},
					"t_uint256": {
						"encoding": "inplace",
						"label": "uint256",
						"numberOfBytes": "32"
					}
				}
			},
			"userdoc": {
				"kind": "user",
				"methods": {},
				"version": 1
			}
		}
	}
}