{
	"contract/3-4/EtherWallet.sol": {
		"EtherWallet": {
			"abi": [
				{
					"inputs": [],
					"stateMutability": "nonpayable",
					"type": "constructor"
				},
				{
					"anonymous": false,
					"inputs": [
						{
							"indexed": true,
							"internalType": "address",
							"name": "",
							"type": "address"
						},
						{
							"indexed": false,
							"internalType": "string",
							"name": "",
							"type": "string"
						},
						{
							"indexed": false,
							"internalType": "uint256",
							"name": "",
							"type": "uint256"
						}
					],
					"name": "LOG",
					"type": "event"
				},
				{
					"inputs": [],
					"name": "despose",
					"outputs": [],
					"stateMutability": "payable",
					"type": "function"
				},
				{
					"inputs": [],
					"name": "getBalanceOfEtherWallet",
					"outputs": [
						{
							"internalType": "uint256",
							"name": "",
							"type": "uint256"
						}
					],
					"stateMutability": "view",
					"type": "function"
				},
				{
					"inputs": [],
					"name": "owner",
					"outputs": [
						{
							"internalType": "address",
							"name": "",
							"type": "address"
						}
					],
					"stateMutability": "view",
					"type": "function"
				},
				{
					"inputs": [
						{
							"internalType": "uint256",
							"name": "_amount",
							"type": "uint256"
						}
					],
					"name": "tiqu",
					"outputs": [],
					"stateMutability": "payable",
					"type": "function"
				},
				{
					"stateMutability": "payable",
					"type": "receive"
				}
			],
			"devdoc": {
				"kind": "dev",
				"methods": {},
				"version": 1
			},
			"evm": {
				"assembly": "    /* \"contract/3-4/EtherWallet.sol\":70:744  contract EtherWallet {... */\n  mstore(0x40, 0x80)\n    /* \"contract/3-4/EtherWallet.sol\":173:222  constructor() {... */\n  callvalue\n  dup1\n  iszero\n  tag_1\n  jumpi\n  0x00\n  dup1\n  revert\ntag_1:\n  pop\n    /* \"contract/3-4/EtherWallet.sol\":205:215  msg.sender */\n  caller\n    /* \"contract/3-4/EtherWallet.sol\":197:202  owner */\n  0x00\n  dup1\n    /* \"contract/3-4/EtherWallet.sol\":197:215  owner = msg.sender */\n  0x0100\n  exp\n  dup2\n  sload\n  dup2\n  0xffffffffffffffffffffffffffffffffffffffff\n  mul\n  not\n  and\n  swap1\n  dup4\n  0xffffffffffffffffffffffffffffffffffffffff\n  and\n  mul\n  or\n  swap1\n  sstore\n  pop\n    /* \"contract/3-4/EtherWallet.sol\":70:744  contract EtherWallet {... */\n  dataSize(sub_0)\n  dup1\n  dataOffset(sub_0)\n  0x00\n  codecopy\n  0x00\n  return\nstop\n\nsub_0: assembly {\n        /* \"contract/3-4/EtherWallet.sol\":70:744  contract EtherWallet {... */\n      mstore(0x40, 0x80)\n      jumpi(tag_1, lt(calldatasize, 0x04))\n      shr(0xe0, calldataload(0x00))\n      dup1\n      0x35ba81b9\n      eq\n      tag_3\n      jumpi\n      dup1\n      0x53152b6f\n      eq\n      tag_4\n      jumpi\n      dup1\n      0x63da46ff\n      eq\n      tag_5\n      jumpi\n      dup1\n      0x8da5cb5b\n      eq\n      tag_6\n      jumpi\n      jump(tag_2)\n    tag_1:\n      jumpi(tag_2, calldatasize)\n        /* \"contract/3-4/EtherWallet.sol\":274:284  msg.sender */\n      caller\n        /* \"contract/3-4/EtherWallet.sol\":270:309  LOG(msg.sender, \"hava send\", msg.value) */\n      0xffffffffffffffffffffffffffffffffffffffff\n      and\n      0xd7a13c0601bdf8466789ce1b2b1e8f956611a7a9b47e4e84be20ea3d7c087e9b\n        /* \"contract/3-4/EtherWallet.sol\":299:308  msg.value */\n      callvalue\n        /* \"contract/3-4/EtherWallet.sol\":270:309  LOG(msg.sender, \"hava send\", msg.value) */\n      mload(0x40)\n      tag_9\n      swap2\n      swap1\n      tag_10\n      jump\t// in\n    tag_9:\n      mload(0x40)\n      dup1\n      swap2\n      sub\n      swap1\n      log2\n        /* \"contract/3-4/EtherWallet.sol\":70:744  contract EtherWallet {... */\n      stop\n    tag_2:\n      0x00\n      dup1\n      revert\n        /* \"contract/3-4/EtherWallet.sol\":418:456  function despose() external payable {} */\n    tag_3:\n      tag_11\n      tag_12\n      jump\t// in\n    tag_11:\n      stop\n        /* \"contract/3-4/EtherWallet.sol\":578:742  function tiqu(uint256 _amount) external payable onlyOwner {... */\n    tag_4:\n      tag_13\n      0x04\n      dup1\n      calldatasize\n      sub\n      dup2\n      add\n      swap1\n      tag_14\n      swap2\n      swap1\n      tag_15\n      jump\t// in\n    tag_14:\n      tag_16\n      jump\t// in\n    tag_13:\n      stop\n        /* \"contract/3-4/EtherWallet.sol\":462:572  function getBalanceOfEtherWallet() public view returns (uint256) {... */\n    tag_5:\n      callvalue\n      dup1\n      iszero\n      tag_17\n      jumpi\n      0x00\n      dup1\n      revert\n    tag_17:\n      pop\n      tag_18\n      tag_19\n      jump\t// in\n    tag_18:\n      mload(0x40)\n      tag_20\n      swap2\n      swap1\n      tag_21\n      jump\t// in\n    tag_20:\n      mload(0x40)\n      dup1\n      swap2\n      sub\n      swap1\n      return\n        /* \"contract/3-4/EtherWallet.sol\":97:117  address public owner */\n    tag_6:\n      callvalue\n      dup1\n      iszero\n      tag_22\n      jumpi\n      0x00\n      dup1\n      revert\n    tag_22:\n      pop\n      tag_23\n      tag_24\n      jump\t// in\n    tag_23:\n      mload(0x40)\n      tag_25\n      swap2\n      swap1\n      tag_26\n      jump\t// in\n    tag_25:\n      mload(0x40)\n      dup1\n      swap2\n      sub\n      swap1\n      return\n        /* \"contract/3-4/EtherWallet.sol\":418:456  function despose() external payable {} */\n    tag_12:\n      jump\t// out\n        /* \"contract/3-4/EtherWallet.sol\":578:742  function tiqu(uint256 _amount) external payable onlyOwner {... */\n    tag_16:\n        /* \"contract/3-4/EtherWallet.sol\":375:380  owner */\n      0x00\n      dup1\n      sload\n      swap1\n      0x0100\n      exp\n      swap1\n      div\n      0xffffffffffffffffffffffffffffffffffffffff\n      and\n        /* \"contract/3-4/EtherWallet.sol\":361:380  msg.sender == owner */\n      0xffffffffffffffffffffffffffffffffffffffff\n      and\n        /* \"contract/3-4/EtherWallet.sol\":361:371  msg.sender */\n      caller\n        /* \"contract/3-4/EtherWallet.sol\":361:380  msg.sender == owner */\n      0xffffffffffffffffffffffffffffffffffffffff\n      and\n      eq\n        /* \"contract/3-4/EtherWallet.sol\":353:394  require(msg.sender == owner, \"not owner\") */\n      tag_29\n      jumpi\n      mload(0x40)\n      0x08c379a000000000000000000000000000000000000000000000000000000000\n      dup2\n      mstore\n      0x04\n      add\n      tag_30\n      swap1\n      tag_31\n      jump\t// in\n    tag_30:\n      mload(0x40)\n      dup1\n      swap2\n      sub\n      swap1\n      revert\n    tag_29:\n        /* \"contract/3-4/EtherWallet.sol\":654:664  msg.sender */\n      caller\n        /* \"contract/3-4/EtherWallet.sol\":646:674  payable(msg.sender).transfer */\n      0xffffffffffffffffffffffffffffffffffffffff\n      and\n        /* \"contract/3-4/EtherWallet.sol\":646:683  payable(msg.sender).transfer(_amount) */\n      0x08fc\n        /* \"contract/3-4/EtherWallet.sol\":675:682  _amount */\n      dup3\n        /* \"contract/3-4/EtherWallet.sol\":646:683  payable(msg.sender).transfer(_amount) */\n      swap1\n      dup2\n      iszero\n      mul\n      swap1\n      mload(0x40)\n      0x00\n      mload(0x40)\n      dup1\n      dup4\n      sub\n      dup2\n      dup6\n      dup9\n      dup9\n      call\n      swap4\n      pop\n      pop\n      pop\n      pop\n      iszero\n      dup1\n      iszero\n      tag_34\n      jumpi\n      returndatasize\n      0x00\n      dup1\n      returndatacopy\n      revert(0x00, returndatasize)\n    tag_34:\n      pop\n        /* \"contract/3-4/EtherWallet.sol\":702:712  msg.sender */\n      caller\n        /* \"contract/3-4/EtherWallet.sol\":698:735  LOG(msg.sender, \"hava tiqu\", _amount) */\n      0xffffffffffffffffffffffffffffffffffffffff\n      and\n      0xd7a13c0601bdf8466789ce1b2b1e8f956611a7a9b47e4e84be20ea3d7c087e9b\n        /* \"contract/3-4/EtherWallet.sol\":727:734  _amount */\n      dup3\n        /* \"contract/3-4/EtherWallet.sol\":698:735  LOG(msg.sender, \"hava tiqu\", _amount) */\n      mload(0x40)\n      tag_35\n      swap2\n      swap1\n      tag_36\n      jump\t// in\n    tag_35:\n      mload(0x40)\n      dup1\n      swap2\n      sub\n      swap1\n      log2\n        /* \"contract/3-4/EtherWallet.sol\":578:742  function tiqu(uint256 _amount) external payable onlyOwner {... */\n      pop\n      jump\t// out\n        /* \"contract/3-4/EtherWallet.sol\":462:572  function getBalanceOfEtherWallet() public view returns (uint256) {... */\n    tag_19:\n        /* \"contract/3-4/EtherWallet.sol\":518:525  uint256 */\n      0x00\n        /* \"contract/3-4/EtherWallet.sol\":544:565  address(this).balance */\n      selfbalance\n        /* \"contract/3-4/EtherWallet.sol\":537:565  return address(this).balance */\n      swap1\n      pop\n        /* \"contract/3-4/EtherWallet.sol\":462:572  function getBalanceOfEtherWallet() public view returns (uint256) {... */\n      swap1\n      jump\t// out\n        /* \"contract/3-4/EtherWallet.sol\":97:117  address public owner */\n    tag_24:\n      0x00\n      dup1\n      sload\n      swap1\n      0x0100\n      exp\n      swap1\n      div\n      0xffffffffffffffffffffffffffffffffffffffff\n      and\n      dup2\n      jump\t// out\n        /* \"#utility.yul\":7:176   */\n    tag_38:\n        /* \"#utility.yul\":91:102   */\n      0x00\n        /* \"#utility.yul\":125:131   */\n      dup3\n        /* \"#utility.yul\":120:123   */\n      dup3\n        /* \"#utility.yul\":113:132   */\n      mstore\n        /* \"#utility.yul\":165:169   */\n      0x20\n        /* \"#utility.yul\":160:163   */\n      dup3\n        /* \"#utility.yul\":156:170   */\n      add\n        /* \"#utility.yul\":141:170   */\n      swap1\n      pop\n        /* \"#utility.yul\":7:176   */\n      swap3\n      swap2\n      pop\n      pop\n      jump\t// out\n        /* \"#utility.yul\":182:341   */\n    tag_39:\n        /* \"#utility.yul\":322:333   */\n      0x686176612073656e640000000000000000000000000000000000000000000000\n        /* \"#utility.yul\":318:319   */\n      0x00\n        /* \"#utility.yul\":310:316   */\n      dup3\n        /* \"#utility.yul\":306:320   */\n      add\n        /* \"#utility.yul\":299:334   */\n      mstore\n        /* \"#utility.yul\":182:341   */\n      pop\n      jump\t// out\n        /* \"#utility.yul\":347:712   */\n    tag_40:\n        /* \"#utility.yul\":489:492   */\n      0x00\n        /* \"#utility.yul\":510:576   */\n      tag_59\n        /* \"#utility.yul\":574:575   */\n      0x09\n        /* \"#utility.yul\":569:572   */\n      dup4\n        /* \"#utility.yul\":510:576   */\n      tag_38\n      jump\t// in\n    tag_59:\n        /* \"#utility.yul\":503:576   */\n      swap2\n      pop\n        /* \"#utility.yul\":585:678   */\n      tag_60\n        /* \"#utility.yul\":674:677   */\n      dup3\n        /* \"#utility.yul\":585:678   */\n      tag_39\n      jump\t// in\n    tag_60:\n        /* \"#utility.yul\":703:705   */\n      0x20\n        /* \"#utility.yul\":698:701   */\n      dup3\n        /* \"#utility.yul\":694:706   */\n      add\n        /* \"#utility.yul\":687:706   */\n      swap1\n      pop\n        /* \"#utility.yul\":347:712   */\n      swap2\n      swap1\n      pop\n      jump\t// out\n        /* \"#utility.yul\":718:795   */\n    tag_41:\n        /* \"#utility.yul\":755:762   */\n      0x00\n        /* \"#utility.yul\":784:789   */\n      dup2\n        /* \"#utility.yul\":773:789   */\n      swap1\n      pop\n        /* \"#utility.yul\":718:795   */\n      swap2\n      swap1\n      pop\n      jump\t// out\n        /* \"#utility.yul\":801:919   */\n    tag_42:\n        /* \"#utility.yul\":888:912   */\n      tag_63\n        /* \"#utility.yul\":906:911   */\n      dup2\n        /* \"#utility.yul\":888:912   */\n      tag_41\n      jump\t// in\n    tag_63:\n        /* \"#utility.yul\":883:886   */\n      dup3\n        /* \"#utility.yul\":876:913   */\n      mstore\n        /* \"#utility.yul\":801:919   */\n      pop\n      pop\n      jump\t// out\n        /* \"#utility.yul\":925:1454   */\n    tag_10:\n        /* \"#utility.yul\":1119:1123   */\n      0x00\n        /* \"#utility.yul\":1157:1159   */\n      0x40\n        /* \"#utility.yul\":1146:1155   */\n      dup3\n        /* \"#utility.yul\":1142:1160   */\n      add\n        /* \"#utility.yul\":1134:1160   */\n      swap1\n      pop\n        /* \"#utility.yul\":1206:1215   */\n      dup2\n        /* \"#utility.yul\":1200:1204   */\n      dup2\n        /* \"#utility.yul\":1196:1216   */\n      sub\n        /* \"#utility.yul\":1192:1193   */\n      0x00\n        /* \"#utility.yul\":1181:1190   */\n      dup4\n        /* \"#utility.yul\":1177:1194   */\n      add\n        /* \"#utility.yul\":1170:1217   */\n      mstore\n        /* \"#utility.yul\":1234:1365   */\n      tag_65\n        /* \"#utility.yul\":1360:1364   */\n      dup2\n        /* \"#utility.yul\":1234:1365   */\n      tag_40\n      jump\t// in\n    tag_65:\n        /* \"#utility.yul\":1226:1365   */\n      swap1\n      pop\n        /* \"#utility.yul\":1375:1447   */\n      tag_66\n        /* \"#utility.yul\":1443:1445   */\n      0x20\n        /* \"#utility.yul\":1432:1441   */\n      dup4\n        /* \"#utility.yul\":1428:1446   */\n      add\n        /* \"#utility.yul\":1419:1425   */\n      dup5\n        /* \"#utility.yul\":1375:1447   */\n      tag_42\n      jump\t// in\n    tag_66:\n        /* \"#utility.yul\":925:1454   */\n      swap3\n      swap2\n      pop\n      pop\n      jump\t// out\n        /* \"#utility.yul\":1541:1658   */\n    tag_44:\n        /* \"#utility.yul\":1650:1651   */\n      0x00\n        /* \"#utility.yul\":1647:1648   */\n      dup1\n        /* \"#utility.yul\":1640:1652   */\n      revert\n        /* \"#utility.yul\":1787:1909   */\n    tag_46:\n        /* \"#utility.yul\":1860:1884   */\n      tag_71\n        /* \"#utility.yul\":1878:1883   */\n      dup2\n        /* \"#utility.yul\":1860:1884   */\n      tag_41\n      jump\t// in\n    tag_71:\n        /* \"#utility.yul\":1853:1858   */\n      dup2\n        /* \"#utility.yul\":1850:1885   */\n      eq\n        /* \"#utility.yul\":1840:1903   */\n      tag_72\n      jumpi\n        /* \"#utility.yul\":1899:1900   */\n      0x00\n        /* \"#utility.yul\":1896:1897   */\n      dup1\n        /* \"#utility.yul\":1889:1901   */\n      revert\n        /* \"#utility.yul\":1840:1903   */\n    tag_72:\n        /* \"#utility.yul\":1787:1909   */\n      pop\n      jump\t// out\n        /* \"#utility.yul\":1915:2054   */\n    tag_47:\n        /* \"#utility.yul\":1961:1966   */\n      0x00\n        /* \"#utility.yul\":1999:2005   */\n      dup2\n        /* \"#utility.yul\":1986:2006   */\n      calldataload\n        /* \"#utility.yul\":1977:2006   */\n      swap1\n      pop\n        /* \"#utility.yul\":2015:2048   */\n      tag_74\n        /* \"#utility.yul\":2042:2047   */\n      dup2\n        /* \"#utility.yul\":2015:2048   */\n      tag_46\n      jump\t// in\n    tag_74:\n        /* \"#utility.yul\":1915:2054   */\n      swap3\n      swap2\n      pop\n      pop\n      jump\t// out\n        /* \"#utility.yul\":2060:2389   */\n    tag_15:\n        /* \"#utility.yul\":2119:2125   */\n      0x00\n        /* \"#utility.yul\":2168:2170   */\n      0x20\n        /* \"#utility.yul\":2156:2165   */\n      dup3\n        /* \"#utility.yul\":2147:2154   */\n      dup5\n        /* \"#utility.yul\":2143:2166   */\n      sub\n        /* \"#utility.yul\":2139:2171   */\n      slt\n        /* \"#utility.yul\":2136:2255   */\n      iszero\n      tag_76\n      jumpi\n        /* \"#utility.yul\":2174:2253   */\n      tag_77\n      tag_44\n      jump\t// in\n    tag_77:\n        /* \"#utility.yul\":2136:2255   */\n    tag_76:\n        /* \"#utility.yul\":2294:2295   */\n      0x00\n        /* \"#utility.yul\":2319:2372   */\n      tag_78\n        /* \"#utility.yul\":2364:2371   */\n      dup5\n        /* \"#utility.yul\":2355:2361   */\n      dup3\n        /* \"#utility.yul\":2344:2353   */\n      dup6\n        /* \"#utility.yul\":2340:2362   */\n      add\n        /* \"#utility.yul\":2319:2372   */\n      tag_47\n      jump\t// in\n    tag_78:\n        /* \"#utility.yul\":2309:2372   */\n      swap2\n      pop\n        /* \"#utility.yul\":2265:2382   */\n      pop\n        /* \"#utility.yul\":2060:2389   */\n      swap3\n      swap2\n      pop\n      pop\n      jump\t// out\n        /* \"#utility.yul\":2395:2617   */\n    tag_21:\n        /* \"#utility.yul\":2488:2492   */\n      0x00\n        /* \"#utility.yul\":2526:2528   */\n      0x20\n        /* \"#utility.yul\":2515:2524   */\n      dup3\n        /* \"#utility.yul\":2511:2529   */\n      add\n        /* \"#utility.yul\":2503:2529   */\n      swap1\n      pop\n        /* \"#utility.yul\":2539:2610   */\n      tag_80\n        /* \"#utility.yul\":2607:2608   */\n      0x00\n        /* \"#utility.yul\":2596:2605   */\n      dup4\n        /* \"#utility.yul\":2592:2609   */\n      add\n        /* \"#utility.yul\":2583:2589   */\n      dup5\n        /* \"#utility.yul\":2539:2610   */\n      tag_42\n      jump\t// in\n    tag_80:\n        /* \"#utility.yul\":2395:2617   */\n      swap3\n      swap2\n      pop\n      pop\n      jump\t// out\n        /* \"#utility.yul\":2623:2749   */\n    tag_48:\n        /* \"#utility.yul\":2660:2667   */\n      0x00\n        /* \"#utility.yul\":2700:2742   */\n      0xffffffffffffffffffffffffffffffffffffffff\n        /* \"#utility.yul\":2693:2698   */\n      dup3\n        /* \"#utility.yul\":2689:2743   */\n      and\n        /* \"#utility.yul\":2678:2743   */\n      swap1\n      pop\n        /* \"#utility.yul\":2623:2749   */\n      swap2\n      swap1\n      pop\n      jump\t// out\n        /* \"#utility.yul\":2755:2851   */\n    tag_49:\n        /* \"#utility.yul\":2792:2799   */\n      0x00\n        /* \"#utility.yul\":2821:2845   */\n      tag_83\n        /* \"#utility.yul\":2839:2844   */\n      dup3\n        /* \"#utility.yul\":2821:2845   */\n      tag_48\n      jump\t// in\n    tag_83:\n        /* \"#utility.yul\":2810:2845   */\n      swap1\n      pop\n        /* \"#utility.yul\":2755:2851   */\n      swap2\n      swap1\n      pop\n      jump\t// out\n        /* \"#utility.yul\":2857:2975   */\n    tag_50:\n        /* \"#utility.yul\":2944:2968   */\n      tag_85\n        /* \"#utility.yul\":2962:2967   */\n      dup2\n        /* \"#utility.yul\":2944:2968   */\n      tag_49\n      jump\t// in\n    tag_85:\n        /* \"#utility.yul\":2939:2942   */\n      dup3\n        /* \"#utility.yul\":2932:2969   */\n      mstore\n        /* \"#utility.yul\":2857:2975   */\n      pop\n      pop\n      jump\t// out\n        /* \"#utility.yul\":2981:3203   */\n    tag_26:\n        /* \"#utility.yul\":3074:3078   */\n      0x00\n        /* \"#utility.yul\":3112:3114   */\n      0x20\n        /* \"#utility.yul\":3101:3110   */\n      dup3\n        /* \"#utility.yul\":3097:3115   */\n      add\n        /* \"#utility.yul\":3089:3115   */\n      swap1\n      pop\n        /* \"#utility.yul\":3125:3196   */\n      tag_87\n        /* \"#utility.yul\":3193:3194   */\n      0x00\n        /* \"#utility.yul\":3182:3191   */\n      dup4\n        /* \"#utility.yul\":3178:3195   */\n      add\n        /* \"#utility.yul\":3169:3175   */\n      dup5\n        /* \"#utility.yul\":3125:3196   */\n      tag_50\n      jump\t// in\n    tag_87:\n        /* \"#utility.yul\":2981:3203   */\n      swap3\n      swap2\n      pop\n      pop\n      jump\t// out\n        /* \"#utility.yul\":3209:3368   */\n    tag_51:\n        /* \"#utility.yul\":3349:3360   */\n      0x6e6f74206f776e65720000000000000000000000000000000000000000000000\n        /* \"#utility.yul\":3345:3346   */\n      0x00\n        /* \"#utility.yul\":3337:3343   */\n      dup3\n        /* \"#utility.yul\":3333:3347   */\n      add\n        /* \"#utility.yul\":3326:3361   */\n      mstore\n        /* \"#utility.yul\":3209:3368   */\n      pop\n      jump\t// out\n        /* \"#utility.yul\":3374:3739   */\n    tag_52:\n        /* \"#utility.yul\":3516:3519   */\n      0x00\n        /* \"#utility.yul\":3537:3603   */\n      tag_90\n        /* \"#utility.yul\":3601:3602   */\n      0x09\n        /* \"#utility.yul\":3596:3599   */\n      dup4\n        /* \"#utility.yul\":3537:3603   */\n      tag_38\n      jump\t// in\n    tag_90:\n        /* \"#utility.yul\":3530:3603   */\n      swap2\n      pop\n        /* \"#utility.yul\":3612:3705   */\n      tag_91\n        /* \"#utility.yul\":3701:3704   */\n      dup3\n        /* \"#utility.yul\":3612:3705   */\n      tag_51\n      jump\t// in\n    tag_91:\n        /* \"#utility.yul\":3730:3732   */\n      0x20\n        /* \"#utility.yul\":3725:3728   */\n      dup3\n        /* \"#utility.yul\":3721:3733   */\n      add\n        /* \"#utility.yul\":3714:3733   */\n      swap1\n      pop\n        /* \"#utility.yul\":3374:3739   */\n      swap2\n      swap1\n      pop\n      jump\t// out\n        /* \"#utility.yul\":3745:4164   */\n    tag_31:\n        /* \"#utility.yul\":3911:3915   */\n      0x00\n        /* \"#utility.yul\":3949:3951   */\n      0x20\n        /* \"#utility.yul\":3938:3947   */\n      dup3\n        /* \"#utility.yul\":3934:3952   */\n      add\n        /* \"#utility.yul\":3926:3952   */\n      swap1\n      pop\n        /* \"#utility.yul\":3998:4007   */\n      dup2\n        /* \"#utility.yul\":3992:3996   */\n      dup2\n        /* \"#utility.yul\":3988:4008   */\n      sub\n        /* \"#utility.yul\":3984:3985   */\n      0x00\n        /* \"#utility.yul\":3973:3982   */\n      dup4\n        /* \"#utility.yul\":3969:3986   */\n      add\n        /* \"#utility.yul\":3962:4009   */\n      mstore\n        /* \"#utility.yul\":4026:4157   */\n      tag_93\n        /* \"#utility.yul\":4152:4156   */\n      dup2\n        /* \"#utility.yul\":4026:4157   */\n      tag_52\n      jump\t// in\n    tag_93:\n        /* \"#utility.yul\":4018:4157   */\n      swap1\n      pop\n        /* \"#utility.yul\":3745:4164   */\n      swap2\n      swap1\n      pop\n      jump\t// out\n        /* \"#utility.yul\":4170:4329   */\n    tag_53:\n        /* \"#utility.yul\":4310:4321   */\n      0x6861766120746971750000000000000000000000000000000000000000000000\n        /* \"#utility.yul\":4306:4307   */\n      0x00\n        /* \"#utility.yul\":4298:4304   */\n      dup3\n        /* \"#utility.yul\":4294:4308   */\n      add\n        /* \"#utility.yul\":4287:4322   */\n      mstore\n        /* \"#utility.yul\":4170:4329   */\n      pop\n      jump\t// out\n        /* \"#utility.yul\":4335:4700   */\n    tag_54:\n        /* \"#utility.yul\":4477:4480   */\n      0x00\n        /* \"#utility.yul\":4498:4564   */\n      tag_96\n        /* \"#utility.yul\":4562:4563   */\n      0x09\n        /* \"#utility.yul\":4557:4560   */\n      dup4\n        /* \"#utility.yul\":4498:4564   */\n      tag_38\n      jump\t// in\n    tag_96:\n        /* \"#utility.yul\":4491:4564   */\n      swap2\n      pop\n        /* \"#utility.yul\":4573:4666   */\n      tag_97\n        /* \"#utility.yul\":4662:4665   */\n      dup3\n        /* \"#utility.yul\":4573:4666   */\n      tag_53\n      jump\t// in\n    tag_97:\n        /* \"#utility.yul\":4691:4693   */\n      0x20\n        /* \"#utility.yul\":4686:4689   */\n      dup3\n        /* \"#utility.yul\":4682:4694   */\n      add\n        /* \"#utility.yul\":4675:4694   */\n      swap1\n      pop\n        /* \"#utility.yul\":4335:4700   */\n      swap2\n      swap1\n      pop\n      jump\t// out\n        /* \"#utility.yul\":4706:5235   */\n    tag_36:\n        /* \"#utility.yul\":4900:4904   */\n      0x00\n        /* \"#utility.yul\":4938:4940   */\n      0x40\n        /* \"#utility.yul\":4927:4936   */\n      dup3\n        /* \"#utility.yul\":4923:4941   */\n      add\n        /* \"#utility.yul\":4915:4941   */\n      swap1\n      pop\n        /* \"#utility.yul\":4987:4996   */\n      dup2\n        /* \"#utility.yul\":4981:4985   */\n      dup2\n        /* \"#utility.yul\":4977:4997   */\n      sub\n        /* \"#utility.yul\":4973:4974   */\n      0x00\n        /* \"#utility.yul\":4962:4971   */\n      dup4\n        /* \"#utility.yul\":4958:4975   */\n      add\n        /* \"#utility.yul\":4951:4998   */\n      mstore\n        /* \"#utility.yul\":5015:5146   */\n      tag_99\n        /* \"#utility.yul\":5141:5145   */\n      dup2\n        /* \"#utility.yul\":5015:5146   */\n      tag_54\n      jump\t// in\n    tag_99:\n        /* \"#utility.yul\":5007:5146   */\n      swap1\n      pop\n        /* \"#utility.yul\":5156:5228   */\n      tag_100\n        /* \"#utility.yul\":5224:5226   */\n      0x20\n        /* \"#utility.yul\":5213:5222   */\n      dup4\n        /* \"#utility.yul\":5209:5227   */\n      add\n        /* \"#utility.yul\":5200:5206   */\n      dup5\n        /* \"#utility.yul\":5156:5228   */\n      tag_42\n      jump\t// in\n    tag_100:\n        /* \"#utility.yul\":4706:5235   */\n      swap3\n      swap2\n      pop\n      pop\n      jump\t// out\n\n    auxdata: 0xa26469706673582212206c69aa8c5c56d0f70a866cdaeb853064e9af8a17c0bbf8fba946b1adeb49017264736f6c634300081a0033\n}\n",
				"bytecode": {
					"linkReferences": {},
					"object": "6080604052348015600e575f80fd5b50335f806101000a81548173ffffffffffffffffffffffffffffffffffffffff021916908373ffffffffffffffffffffffffffffffffffffffff1602179055506104df8061005b5f395ff3fe608060405260043610610042575f3560e01c806335ba81b91461009b57806353152b6f146100a557806363da46ff146100c15780638da5cb5b146100eb57610097565b36610097573373ffffffffffffffffffffffffffffffffffffffff167fd7a13c0601bdf8466789ce1b2b1e8f956611a7a9b47e4e84be20ea3d7c087e9b3460405161008d91906102d5565b60405180910390a2005b5f80fd5b6100a3610115565b005b6100bf60048036038101906100ba919061032f565b610117565b005b3480156100cc575f80fd5b506100d5610239565b6040516100e2919061035a565b60405180910390f35b3480156100f6575f80fd5b506100ff610240565b60405161010c91906103b2565b60405180910390f35b565b5f8054906101000a900473ffffffffffffffffffffffffffffffffffffffff1673ffffffffffffffffffffffffffffffffffffffff163373ffffffffffffffffffffffffffffffffffffffff16146101a4576040517f08c379a000000000000000000000000000000000000000000000000000000000815260040161019b90610415565b60405180910390fd5b3373ffffffffffffffffffffffffffffffffffffffff166108fc8290811502906040515f60405180830381858888f193505050501580156101e7573d5f803e3d5ffd5b503373ffffffffffffffffffffffffffffffffffffffff167fd7a13c0601bdf8466789ce1b2b1e8f956611a7a9b47e4e84be20ea3d7c087e9b8260405161022e919061047d565b60405180910390a250565b5f47905090565b5f8054906101000a900473ffffffffffffffffffffffffffffffffffffffff1681565b5f82825260208201905092915050565b7f686176612073656e6400000000000000000000000000000000000000000000005f82015250565b5f6102a7600983610263565b91506102b282610273565b602082019050919050565b5f819050919050565b6102cf816102bd565b82525050565b5f6040820190508181035f8301526102ec8161029b565b90506102fb60208301846102c6565b92915050565b5f80fd5b61030e816102bd565b8114610318575f80fd5b50565b5f8135905061032981610305565b92915050565b5f6020828403121561034457610343610301565b5b5f6103518482850161031b565b91505092915050565b5f60208201905061036d5f8301846102c6565b92915050565b5f73ffffffffffffffffffffffffffffffffffffffff82169050919050565b5f61039c82610373565b9050919050565b6103ac81610392565b82525050565b5f6020820190506103c55f8301846103a3565b92915050565b7f6e6f74206f776e657200000000000000000000000000000000000000000000005f82015250565b5f6103ff600983610263565b915061040a826103cb565b602082019050919050565b5f6020820190508181035f83015261042c816103f3565b9050919050565b7f68617661207469717500000000000000000000000000000000000000000000005f82015250565b5f610467600983610263565b915061047282610433565b602082019050919050565b5f6040820190508181035f8301526104948161045b565b90506104a360208301846102c6565b9291505056fea26469706673582212206c69aa8c5c56d0f70a866cdaeb853064e9af8a17c0bbf8fba946b1adeb49017264736f6c634300081a0033",
					"opcodes": "PUSH1 0x80 PUSH1 0x40 MSTORE CALLVALUE DUP1 ISZERO PUSH1 0xE JUMPI PUSH0 DUP1 REVERT JUMPDEST POP CALLER PUSH0 DUP1 PUSH2 0x100 EXP DUP2 SLOAD DUP2 PUSH20 0xFFFFFFFFFFFFFFFFFFFFFFFFFFFFFFFFFFFFFFFF MUL NOT AND SWAP1 DUP4 PUSH20 0xFFFFFFFFFFFFFFFFFFFFFFFFFFFFFFFFFFFFFFFF AND MUL OR SWAP1 SSTORE POP PUSH2 0x4DF DUP1 PUSH2 0x5B PUSH0 CODECOPY PUSH0 RETURN INVALID PUSH1 0x80 PUSH1 0x40 MSTORE PUSH1 0x4 CALLDATASIZE LT PUSH2 0x42 JUMPI PUSH0 CALLDATALOAD PUSH1 0xE0 SHR DUP1 PUSH4 0x35BA81B9 EQ PUSH2 0x9B JUMPI DUP1 PUSH4 0x53152B6F EQ PUSH2 0xA5 JUMPI DUP1 PUSH4 0x63DA46FF EQ PUSH2 0xC1 JUMPI DUP1 PUSH4 0x8DA5CB5B EQ PUSH2 0xEB JUMPI PUSH2 0x97 JUMP JUMPDEST CALLDATASIZE PUSH2 0x97 JUMPI CALLER PUSH20 0xFFFFFFFFFFFFFFFFFFFFFFFFFFFFFFFFFFFFFFFF AND PUSH32 0xD7A13C0601BDF8466789CE1B2B1E8F956611A7A9B47E4E84BE20EA3D7C087E9B CALLVALUE PUSH1 0x40 MLOAD PUSH2 0x8D SWAP2 SWAP1 PUSH2 0x2D5 JUMP JUMPDEST PUSH1 0x40 MLOAD DUP1 SWAP2 SUB SWAP1 LOG2 STOP JUMPDEST PUSH0 DUP1 REVERT JUMPDEST PUSH2 0xA3 PUSH2 0x115 JUMP JUMPDEST STOP JUMPDEST PUSH2 0xBF PUSH1 0x4 DUP1 CALLDATASIZE SUB DUP2 ADD SWAP1 PUSH2 0xBA SWAP2 SWAP1 PUSH2 0x32F JUMP JUMPDEST PUSH2 0x117 JUMP JUMPDEST STOP JUMPDEST CALLVALUE DUP1 ISZERO PUSH2 0xCC JUMPI PUSH0 DUP1 REVERT JUMPDEST POP PUSH2 0xD5 PUSH2 0x239 JUMP JUMPDEST PUSH1 0x40 MLOAD PUSH2 0xE2 SWAP2 SWAP1 PUSH2 0x35A JUMP JUMPDEST PUSH1 0x40 MLOAD DUP1 SWAP2 SUB SWAP1 RETURN JUMPDEST CALLVALUE DUP1 ISZERO PUSH2 0xF6 JUMPI PUSH0 DUP1 REVERT JUMPDEST POP PUSH2 0xFF PUSH2 0x240 JUMP JUMPDEST PUSH1 0x40 MLOAD PUSH2 0x10C SWAP2 SWAP1 PUSH2 0x3B2 JUMP JUMPDEST PUSH1 0x40 MLOAD DUP1 SWAP2 SUB SWAP1 RETURN JUMPDEST JUMP JUMPDEST PUSH0 DUP1 SLOAD SWAP1 PUSH2 0x100 EXP SWAP1 DIV PUSH20 0xFFFFFFFFFFFFFFFFFFFFFFFFFFFFFFFFFFFFFFFF AND PUSH20 0xFFFFFFFFFFFFFFFFFFFFFFFFFFFFFFFFFFFFFFFF AND CALLER PUSH20 0xFFFFFFFFFFFFFFFFFFFFFFFFFFFFFFFFFFFFFFFF AND EQ PUSH2 0x1A4 JUMPI PUSH1 0x40 MLOAD PUSH32 0x8C379A000000000000000000000000000000000000000000000000000000000 DUP2 MSTORE PUSH1 0x4 ADD PUSH2 0x19B SWAP1 PUSH2 0x415 JUMP JUMPDEST PUSH1 0x40 MLOAD DUP1 SWAP2 SUB SWAP1 REVERT JUMPDEST CALLER PUSH20 0xFFFFFFFFFFFFFFFFFFFFFFFFFFFFFFFFFFFFFFFF AND PUSH2 0x8FC DUP3 SWAP1 DUP2 ISZERO MUL SWAP1 PUSH1 0x40 MLOAD PUSH0 PUSH1 0x40 MLOAD DUP1 DUP4 SUB DUP2 DUP6 DUP9 DUP9 CALL SWAP4 POP POP POP POP ISZERO DUP1 ISZERO PUSH2 0x1E7 JUMPI RETURNDATASIZE PUSH0 DUP1 RETURNDATACOPY RETURNDATASIZE PUSH0 REVERT JUMPDEST POP CALLER PUSH20 0xFFFFFFFFFFFFFFFFFFFFFFFFFFFFFFFFFFFFFFFF AND PUSH32 0xD7A13C0601BDF8466789CE1B2B1E8F956611A7A9B47E4E84BE20EA3D7C087E9B DUP3 PUSH1 0x40 MLOAD PUSH2 0x22E SWAP2 SWAP1 PUSH2 0x47D JUMP JUMPDEST PUSH1 0x40 MLOAD DUP1 SWAP2 SUB SWAP1 LOG2 POP JUMP JUMPDEST PUSH0 SELFBALANCE SWAP1 POP SWAP1 JUMP JUMPDEST PUSH0 DUP1 SLOAD SWAP1 PUSH2 0x100 EXP SWAP1 DIV PUSH20 0xFFFFFFFFFFFFFFFFFFFFFFFFFFFFFFFFFFFFFFFF AND DUP2 JUMP JUMPDEST PUSH0 DUP3 DUP3 MSTORE PUSH1 0x20 DUP3 ADD SWAP1 POP SWAP3 SWAP2 POP POP JUMP JUMPDEST PUSH32 0x686176612073656E640000000000000000000000000000000000000000000000 PUSH0 DUP3 ADD MSTORE POP JUMP JUMPDEST PUSH0 PUSH2 0x2A7 PUSH1 0x9 DUP4 PUSH2 0x263 JUMP JUMPDEST SWAP2 POP PUSH2 0x2B2 DUP3 PUSH2 0x273 JUMP JUMPDEST PUSH1 0x20 DUP3 ADD SWAP1 POP SWAP2 SWAP1 POP JUMP JUMPDEST PUSH0 DUP2 SWAP1 POP SWAP2 SWAP1 POP JUMP JUMPDEST PUSH2 0x2CF DUP2 PUSH2 0x2BD JUMP JUMPDEST DUP3 MSTORE POP POP JUMP JUMPDEST PUSH0 PUSH1 0x40 DUP3 ADD SWAP1 POP DUP2 DUP2 SUB PUSH0 DUP4 ADD MSTORE PUSH2 0x2EC DUP2 PUSH2 0x29B JUMP JUMPDEST SWAP1 POP PUSH2 0x2FB PUSH1 0x20 DUP4 ADD DUP5 PUSH2 0x2C6 JUMP JUMPDEST SWAP3 SWAP2 POP POP JUMP JUMPDEST PUSH0 DUP1 REVERT JUMPDEST PUSH2 0x30E DUP2 PUSH2 0x2BD JUMP JUMPDEST DUP2 EQ PUSH2 0x318 JUMPI PUSH0 DUP1 REVERT JUMPDEST POP JUMP JUMPDEST PUSH0 DUP2 CALLDATALOAD SWAP1 POP PUSH2 0x329 DUP2 PUSH2 0x305 JUMP JUMPDEST SWAP3 SWAP2 POP POP JUMP JUMPDEST PUSH0 PUSH1 0x20 DUP3 DUP5 SUB SLT ISZERO PUSH2 0x344 JUMPI PUSH2 0x343 PUSH2 0x301 JUMP JUMPDEST JUMPDEST PUSH0 PUSH2 0x351 DUP5 DUP3 DUP6 ADD PUSH2 0x31B JUMP JUMPDEST SWAP2 POP POP SWAP3 SWAP2 POP POP JUMP JUMPDEST PUSH0 PUSH1 0x20 DUP3 ADD SWAP1 POP PUSH2 0x36D PUSH0 DUP4 ADD DUP5 PUSH2 0x2C6 JUMP JUMPDEST SWAP3 SWAP2 POP POP JUMP JUMPDEST PUSH0 PUSH20 0xFFFFFFFFFFFFFFFFFFFFFFFFFFFFFFFFFFFFFFFF DUP3 AND SWAP1 POP SWAP2 SWAP1 POP JUMP JUMPDEST PUSH0 PUSH2 0x39C DUP3 PUSH2 0x373 JUMP JUMPDEST SWAP1 POP SWAP2 SWAP1 POP JUMP JUMPDEST PUSH2 0x3AC DUP2 PUSH2 0x392 JUMP JUMPDEST DUP3 MSTORE POP POP JUMP JUMPDEST PUSH0 PUSH1 0x20 DUP3 ADD SWAP1 POP PUSH2 0x3C5 PUSH0 DUP4 ADD DUP5 PUSH2 0x3A3 JUMP JUMPDEST SWAP3 SWAP2 POP POP JUMP JUMPDEST PUSH32 0x6E6F74206F776E65720000000000000000000000000000000000000000000000 PUSH0 DUP3 ADD MSTORE POP JUMP JUMPDEST PUSH0 PUSH2 0x3FF PUSH1 0x9 DUP4 PUSH2 0x263 JUMP JUMPDEST SWAP2 POP PUSH2 0x40A DUP3 PUSH2 0x3CB JUMP JUMPDEST PUSH1 0x20 DUP3 ADD SWAP1 POP SWAP2 SWAP1 POP JUMP JUMPDEST PUSH0 PUSH1 0x20 DUP3 ADD SWAP1 POP DUP2 DUP2 SUB PUSH0 DUP4 ADD MSTORE PUSH2 0x42C DUP2 PUSH2 0x3F3 JUMP JUMPDEST SWAP1 POP SWAP2 SWAP1 POP JUMP JUMPDEST PUSH32 0x6861766120746971750000000000000000000000000000000000000000000000 PUSH0 DUP3 ADD MSTORE POP JUMP JUMPDEST PUSH0 PUSH2 0x467 PUSH1 0x9 DUP4 PUSH2 0x263 JUMP JUMPDEST SWAP2 POP PUSH2 0x472 DUP3 PUSH2 0x433 JUMP JUMPDEST PUSH1 0x20 DUP3 ADD SWAP1 POP SWAP2 SWAP1 POP JUMP JUMPDEST PUSH0 PUSH1 0x40 DUP3 ADD SWAP1 POP DUP2 DUP2 SUB PUSH0 DUP4 ADD MSTORE PUSH2 0x494 DUP2 PUSH2 0x45B JUMP JUMPDEST SWAP1 POP PUSH2 0x4A3 PUSH1 0x20 DUP4 ADD DUP5 PUSH2 0x2C6 JUMP JUMPDEST SWAP3 SWAP2 POP POP JUMP INVALID LOG2 PUSH5 0x6970667358 0x22 SLT KECCAK256 PUSH13 0x69AA8C5C56D0F70A866CDAEB85 ADDRESS PUSH5 0xE9AF8A17C0 0xBB 0xF8 0xFB 0xA9 CHAINID 0xB1 0xAD 0xEB BLOBHASH ADD PUSH19 0x64736F6C634300081A00330000000000000000 "
				},
				"gasEstimates": {
					"creation": {
						"codeDepositCost": "249400",
						"executionCost": "24550",
						"totalCost": "273950"
					},
					"external": {
						"despose()": "97",
						"getBalanceOfEtherWallet()": "356",
						"owner()": "2549",
						"tiqu(uint256)": "infinite"
					}
				},
				"methodIdentifiers": {
					"despose()": "35ba81b9",
					"getBalanceOfEtherWallet()": "63da46ff",
					"owner()": "8da5cb5b",
					"tiqu(uint256)": "53152b6f"
				}
			},
			"storageLayout": {
				"storage": [
					{
						"astId": 3,
						"contract": "contract/3-4/EtherWallet.sol:EtherWallet",
						"label": "owner",
						"offset": 0,
						"slot": "0",
						"type": "t_address"
					}
				],
				"types": {
					"t_address": {
						"encoding": "inplace",
						"label": "address",
						"numberOfBytes": "20"
					}
				}
			},
			"userdoc": {
				"kind": "user",
				"methods": {},
				"version": 1
			}
		}
	}
}