{
	"contract/wtf/ERC20/Airdrop.sol": {
		"AirDrop": {
			"abi": [
				{
					"inputs": [
						{
							"internalType": "address payable[]",
							"name": "_addresses",
							"type": "address[]"
						},
						{
							"internalType": "uint256[]",
							"name": "_amounts",
							"type": "uint256[]"
						}
					],
					"name": "multiTransferETH",
					"outputs": [],
					"stateMutability": "payable",
					"type": "function"
				},
				{
					"inputs": [
						{
							"internalType": "address",
							"name": "_token",
							"type": "address"
						},
						{
							"internalType": "address[]",
							"name": "_addresses",
							"type": "address[]"
						},
						{
							"internalType": "uint256[]",
							"name": "_amounts",
							"type": "uint256[]"
						}
					],
					"name": "multiTransferToken",
					"outputs": [],
					"stateMutability": "nonpayable",
					"type": "function"
				}
			],
			"devdoc": {
				"kind": "dev",
				"methods": {},
				"version": 1
			},
			"evm": {
				"assembly": "    /* \"contract/wtf/ERC20/Airdrop.sol\":106:2991  contract AirDrop {... */\n  mstore(0x40, 0x80)\n  callvalue\n  dup1\n  iszero\n  tag_1\n  jumpi\n  0x00\n  dup1\n  revert\ntag_1:\n  pop\n  dataSize(sub_0)\n  dup1\n  dataOffset(sub_0)\n  0x00\n  codecopy\n  0x00\n  return\nstop\n\nsub_0: assembly {\n        /* \"contract/wtf/ERC20/Airdrop.sol\":106:2991  contract AirDrop {... */\n      mstore(0x40, 0x80)\n      jumpi(tag_1, lt(calldatasize, 0x04))\n      shr(0xe0, calldataload(0x00))\n      dup1\n      0x41ed24a2\n      eq\n      tag_2\n      jumpi\n      dup1\n      0x77988cf8\n      eq\n      tag_3\n      jumpi\n    tag_1:\n      0x00\n      dup1\n      revert\n        /* \"contract/wtf/ERC20/Airdrop.sol\":1108:1634  function multiTransferToken(... */\n    tag_2:\n      callvalue\n      dup1\n      iszero\n      tag_4\n      jumpi\n      0x00\n      dup1\n      revert\n    tag_4:\n      pop\n      tag_5\n      0x04\n      dup1\n      calldatasize\n      sub\n      dup2\n      add\n      swap1\n      tag_6\n      swap2\n      swap1\n      tag_7\n      jump\t// in\n    tag_6:\n      tag_8\n      jump\t// in\n    tag_5:\n      stop\n        /* \"contract/wtf/ERC20/Airdrop.sol\":1923:2989  function multiTransferETH(... */\n    tag_3:\n      tag_9\n      0x04\n      dup1\n      calldatasize\n      sub\n      dup2\n      add\n      swap1\n      tag_10\n      swap2\n      swap1\n      tag_11\n      jump\t// in\n    tag_10:\n      tag_12\n      jump\t// in\n    tag_9:\n      stop\n        /* \"contract/wtf/ERC20/Airdrop.sol\":1108:1634  function multiTransferToken(... */\n    tag_8:\n        /* \"contract/wtf/ERC20/Airdrop.sol\":1290:1298  _amounts */\n      dup2\n      dup2\n        /* \"contract/wtf/ERC20/Airdrop.sol\":1290:1305  _amounts.length */\n      swap1\n      pop\n        /* \"contract/wtf/ERC20/Airdrop.sol\":1269:1279  _addresses */\n      dup5\n      dup5\n        /* \"contract/wtf/ERC20/Airdrop.sol\":1269:1286  _addresses.length */\n      swap1\n      pop\n        /* \"contract/wtf/ERC20/Airdrop.sol\":1269:1305  _addresses.length == _amounts.length */\n      eq\n        /* \"contract/wtf/ERC20/Airdrop.sol\":1261:1319  require(_addresses.length == _amounts.length, \"not equal\") */\n      tag_14\n      jumpi\n      mload(0x40)\n      0x08c379a000000000000000000000000000000000000000000000000000000000\n      dup2\n      mstore\n      0x04\n      add\n      tag_15\n      swap1\n      tag_16\n      jump\t// in\n    tag_15:\n      mload(0x40)\n      dup1\n      swap2\n      sub\n      swap1\n      revert\n    tag_14:\n        /* \"contract/wtf/ERC20/Airdrop.sol\":1329:1342  IERC20 ierc20 */\n      0x00\n        /* \"contract/wtf/ERC20/Airdrop.sol\":1352:1358  _token */\n      dup6\n        /* \"contract/wtf/ERC20/Airdrop.sol\":1329:1359  IERC20 ierc20 = IERC20(_token) */\n      swap1\n      pop\n        /* \"contract/wtf/ERC20/Airdrop.sol\":1436:1452  getSum(_amounts) */\n      tag_17\n        /* \"contract/wtf/ERC20/Airdrop.sol\":1443:1451  _amounts */\n      dup4\n      dup4\n        /* \"contract/wtf/ERC20/Airdrop.sol\":1436:1442  getSum */\n      tag_18\n        /* \"contract/wtf/ERC20/Airdrop.sol\":1436:1452  getSum(_amounts) */\n      jump\t// in\n    tag_17:\n        /* \"contract/wtf/ERC20/Airdrop.sol\":1390:1396  ierc20 */\n      dup2\n        /* \"contract/wtf/ERC20/Airdrop.sol\":1390:1406  ierc20.allowance */\n      0xffffffffffffffffffffffffffffffffffffffff\n      and\n      0xdd62ed3e\n        /* \"contract/wtf/ERC20/Airdrop.sol\":1407:1417  msg.sender */\n      caller\n        /* \"contract/wtf/ERC20/Airdrop.sol\":1427:1431  this */\n      address\n        /* \"contract/wtf/ERC20/Airdrop.sol\":1390:1433  ierc20.allowance(msg.sender, address(this)) */\n      mload(0x40)\n      dup4\n      0xffffffff\n      and\n      0xe0\n      shl\n      dup2\n      mstore\n      0x04\n      add\n      tag_19\n      swap3\n      swap2\n      swap1\n      tag_20\n      jump\t// in\n    tag_19:\n      0x20\n      mload(0x40)\n      dup1\n      dup4\n      sub\n      dup2\n      dup7\n      gas\n      staticcall\n      iszero\n      dup1\n      iszero\n      tag_22\n      jumpi\n      returndatasize\n      0x00\n      dup1\n      returndatacopy\n      revert(0x00, returndatasize)\n    tag_22:\n      pop\n      pop\n      pop\n      pop\n      mload(0x40)\n      returndatasize\n      not(0x1f)\n      0x1f\n      dup3\n      add\n      and\n      dup3\n      add\n      dup1\n      0x40\n      mstore\n      pop\n      dup2\n      add\n      swap1\n      tag_23\n      swap2\n      swap1\n      tag_24\n      jump\t// in\n    tag_23:\n        /* \"contract/wtf/ERC20/Airdrop.sol\":1390:1452  ierc20.allowance(msg.sender, address(this)) < getSum(_amounts) */\n      lt\n        /* \"contract/wtf/ERC20/Airdrop.sol\":1369:1485  require(... */\n      tag_25\n      jumpi\n      mload(0x40)\n      0x08c379a000000000000000000000000000000000000000000000000000000000\n      dup2\n      mstore\n      0x04\n      add\n      tag_26\n      swap1\n      tag_27\n      jump\t// in\n    tag_26:\n      mload(0x40)\n      dup1\n      swap2\n      sub\n      swap1\n      revert\n    tag_25:\n        /* \"contract/wtf/ERC20/Airdrop.sol\":1501:1510  uint256 i */\n      0x00\n        /* \"contract/wtf/ERC20/Airdrop.sol\":1496:1628  for (uint256 i = 0; i < _addresses.length; i++) {... */\n    tag_28:\n        /* \"contract/wtf/ERC20/Airdrop.sol\":1520:1530  _addresses */\n      dup6\n      dup6\n        /* \"contract/wtf/ERC20/Airdrop.sol\":1520:1537  _addresses.length */\n      swap1\n      pop\n        /* \"contract/wtf/ERC20/Airdrop.sol\":1516:1517  i */\n      dup2\n        /* \"contract/wtf/ERC20/Airdrop.sol\":1516:1537  i < _addresses.length */\n      lt\n        /* \"contract/wtf/ERC20/Airdrop.sol\":1496:1628  for (uint256 i = 0; i < _addresses.length; i++) {... */\n      iszero\n      tag_29\n      jumpi\n        /* \"contract/wtf/ERC20/Airdrop.sol\":1558:1564  ierc20 */\n      dup2\n        /* \"contract/wtf/ERC20/Airdrop.sol\":1558:1577  ierc20.transferFrom */\n      0xffffffffffffffffffffffffffffffffffffffff\n      and\n      0x23b872dd\n        /* \"contract/wtf/ERC20/Airdrop.sol\":1578:1588  msg.sender */\n      caller\n        /* \"contract/wtf/ERC20/Airdrop.sol\":1590:1600  _addresses */\n      dup9\n      dup9\n        /* \"contract/wtf/ERC20/Airdrop.sol\":1601:1602  i */\n      dup6\n        /* \"contract/wtf/ERC20/Airdrop.sol\":1590:1603  _addresses[i] */\n      dup2\n      dup2\n      lt\n      tag_31\n      jumpi\n      tag_32\n      tag_33\n      jump\t// in\n    tag_32:\n    tag_31:\n      swap1\n      pop\n      0x20\n      mul\n      add\n      0x20\n      dup2\n      add\n      swap1\n      tag_34\n      swap2\n      swap1\n      tag_35\n      jump\t// in\n    tag_34:\n        /* \"contract/wtf/ERC20/Airdrop.sol\":1605:1613  _amounts */\n      dup8\n      dup8\n        /* \"contract/wtf/ERC20/Airdrop.sol\":1614:1615  i */\n      dup7\n        /* \"contract/wtf/ERC20/Airdrop.sol\":1605:1616  _amounts[i] */\n      dup2\n      dup2\n      lt\n      tag_36\n      jumpi\n      tag_37\n      tag_33\n      jump\t// in\n    tag_37:\n    tag_36:\n      swap1\n      pop\n      0x20\n      mul\n      add\n      calldataload\n        /* \"contract/wtf/ERC20/Airdrop.sol\":1558:1617  ierc20.transferFrom(msg.sender, _addresses[i], _amounts[i]) */\n      mload(0x40)\n      dup5\n      0xffffffff\n      and\n      0xe0\n      shl\n      dup2\n      mstore\n      0x04\n      add\n      tag_38\n      swap4\n      swap3\n      swap2\n      swap1\n      tag_39\n      jump\t// in\n    tag_38:\n      0x20\n      mload(0x40)\n      dup1\n      dup4\n      sub\n      dup2\n      0x00\n      dup8\n      gas\n      call\n      iszero\n      dup1\n      iszero\n      tag_41\n      jumpi\n      returndatasize\n      0x00\n      dup1\n      returndatacopy\n      revert(0x00, returndatasize)\n    tag_41:\n      pop\n      pop\n      pop\n      pop\n      mload(0x40)\n      returndatasize\n      not(0x1f)\n      0x1f\n      dup3\n      add\n      and\n      dup3\n      add\n      dup1\n      0x40\n      mstore\n      pop\n      dup2\n      add\n      swap1\n      tag_42\n      swap2\n      swap1\n      tag_43\n      jump\t// in\n    tag_42:\n      pop\n        /* \"contract/wtf/ERC20/Airdrop.sol\":1539:1542  i++ */\n      dup1\n      dup1\n      0x01\n      add\n      swap2\n      pop\n      pop\n        /* \"contract/wtf/ERC20/Airdrop.sol\":1496:1628  for (uint256 i = 0; i < _addresses.length; i++) {... */\n      jump(tag_28)\n    tag_29:\n      pop\n        /* \"contract/wtf/ERC20/Airdrop.sol\":1251:1634  {... */\n      pop\n        /* \"contract/wtf/ERC20/Airdrop.sol\":1108:1634  function multiTransferToken(... */\n      pop\n      pop\n      pop\n      pop\n      pop\n      jump\t// out\n        /* \"contract/wtf/ERC20/Airdrop.sol\":1923:2989  function multiTransferETH(... */\n    tag_12:\n        /* \"contract/wtf/ERC20/Airdrop.sol\":2169:2177  _amounts */\n      dup2\n      dup2\n        /* \"contract/wtf/ERC20/Airdrop.sol\":2169:2184  _amounts.length */\n      swap1\n      pop\n        /* \"contract/wtf/ERC20/Airdrop.sol\":2148:2158  _addresses */\n      dup5\n      dup5\n        /* \"contract/wtf/ERC20/Airdrop.sol\":2148:2165  _addresses.length */\n      swap1\n      pop\n        /* \"contract/wtf/ERC20/Airdrop.sol\":2148:2184  _addresses.length == _amounts.length */\n      eq\n        /* \"contract/wtf/ERC20/Airdrop.sol\":2127:2252  require(... */\n      tag_45\n      jumpi\n      mload(0x40)\n      0x08c379a000000000000000000000000000000000000000000000000000000000\n      dup2\n      mstore\n      0x04\n      add\n      tag_46\n      swap1\n      tag_47\n      jump\t// in\n    tag_46:\n      mload(0x40)\n      dup1\n      swap2\n      sub\n      swap1\n      revert\n    tag_45:\n        /* \"contract/wtf/ERC20/Airdrop.sol\":2262:2280  uint256 _amountSum */\n      0x00\n        /* \"contract/wtf/ERC20/Airdrop.sol\":2283:2299  getSum(_amounts) */\n      tag_48\n        /* \"contract/wtf/ERC20/Airdrop.sol\":2290:2298  _amounts */\n      dup4\n      dup4\n        /* \"contract/wtf/ERC20/Airdrop.sol\":2283:2289  getSum */\n      tag_18\n        /* \"contract/wtf/ERC20/Airdrop.sol\":2283:2299  getSum(_amounts) */\n      jump\t// in\n    tag_48:\n        /* \"contract/wtf/ERC20/Airdrop.sol\":2262:2299  uint256 _amountSum = getSum(_amounts) */\n      swap1\n      pop\n        /* \"contract/wtf/ERC20/Airdrop.sol\":2400:2410  _amountSum */\n      dup1\n        /* \"contract/wtf/ERC20/Airdrop.sol\":2387:2396  msg.value */\n      callvalue\n        /* \"contract/wtf/ERC20/Airdrop.sol\":2387:2410  msg.value == _amountSum */\n      eq\n        /* \"contract/wtf/ERC20/Airdrop.sol\":2379:2436  require(msg.value == _amountSum, \"Transfer amount error\") */\n      tag_49\n      jumpi\n      mload(0x40)\n      0x08c379a000000000000000000000000000000000000000000000000000000000\n      dup2\n      mstore\n      0x04\n      add\n      tag_50\n      swap1\n      tag_51\n      jump\t// in\n    tag_50:\n      mload(0x40)\n      dup1\n      swap2\n      sub\n      swap1\n      revert\n    tag_49:\n        /* \"contract/wtf/ERC20/Airdrop.sol\":2504:2513  uint256 i */\n      0x00\n        /* \"contract/wtf/ERC20/Airdrop.sol\":2499:2983  for (uint256 i = 0; i < _addresses.length; i++) {... */\n    tag_52:\n        /* \"contract/wtf/ERC20/Airdrop.sol\":2523:2533  _addresses */\n      dup6\n      dup6\n        /* \"contract/wtf/ERC20/Airdrop.sol\":2523:2540  _addresses.length */\n      swap1\n      pop\n        /* \"contract/wtf/ERC20/Airdrop.sol\":2519:2520  i */\n      dup2\n        /* \"contract/wtf/ERC20/Airdrop.sol\":2519:2540  i < _addresses.length */\n      lt\n        /* \"contract/wtf/ERC20/Airdrop.sol\":2499:2983  for (uint256 i = 0; i < _addresses.length; i++) {... */\n      iszero\n      tag_53\n      jumpi\n        /* \"contract/wtf/ERC20/Airdrop.sol\":2807:2819  bool success */\n      0x00\n        /* \"contract/wtf/ERC20/Airdrop.sol\":2825:2835  _addresses */\n      dup7\n      dup7\n        /* \"contract/wtf/ERC20/Airdrop.sol\":2836:2837  i */\n      dup4\n        /* \"contract/wtf/ERC20/Airdrop.sol\":2825:2838  _addresses[i] */\n      dup2\n      dup2\n      lt\n      tag_55\n      jumpi\n      tag_56\n      tag_33\n      jump\t// in\n    tag_56:\n    tag_55:\n      swap1\n      pop\n      0x20\n      mul\n      add\n      0x20\n      dup2\n      add\n      swap1\n      tag_57\n      swap2\n      swap1\n      tag_58\n      jump\t// in\n    tag_57:\n        /* \"contract/wtf/ERC20/Airdrop.sol\":2825:2843  _addresses[i].call */\n      0xffffffffffffffffffffffffffffffffffffffff\n      and\n        /* \"contract/wtf/ERC20/Airdrop.sol\":2851:2859  _amounts */\n      dup6\n      dup6\n        /* \"contract/wtf/ERC20/Airdrop.sol\":2860:2861  i */\n      dup5\n        /* \"contract/wtf/ERC20/Airdrop.sol\":2851:2862  _amounts[i] */\n      dup2\n      dup2\n      lt\n      tag_59\n      jumpi\n      tag_60\n      tag_33\n      jump\t// in\n    tag_60:\n    tag_59:\n      swap1\n      pop\n      0x20\n      mul\n      add\n      calldataload\n        /* \"contract/wtf/ERC20/Airdrop.sol\":2825:2867  _addresses[i].call{value: _amounts[i]}(\"\") */\n      mload(0x40)\n      tag_61\n      swap1\n      tag_62\n      jump\t// in\n    tag_61:\n      0x00\n      mload(0x40)\n      dup1\n      dup4\n      sub\n      dup2\n      dup6\n      dup8\n      gas\n      call\n      swap3\n      pop\n      pop\n      pop\n      returndatasize\n      dup1\n      0x00\n      dup2\n      eq\n      tag_65\n      jumpi\n      mload(0x40)\n      swap2\n      pop\n      and(add(returndatasize, 0x3f), not(0x1f))\n      dup3\n      add\n      0x40\n      mstore\n      returndatasize\n      dup3\n      mstore\n      returndatasize\n      0x00\n      0x20\n      dup5\n      add\n      returndatacopy\n      jump(tag_64)\n    tag_65:\n      0x60\n      swap2\n      pop\n    tag_64:\n      pop\n        /* \"contract/wtf/ERC20/Airdrop.sol\":2806:2867  (bool success, ) = _addresses[i].call{value: _amounts[i]}(\"\") */\n      pop\n      swap1\n      pop\n        /* \"contract/wtf/ERC20/Airdrop.sol\":2886:2893  success */\n      dup1\n        /* \"contract/wtf/ERC20/Airdrop.sol\":2881:2973  if (!success) {... */\n      tag_66\n      jumpi\n        /* \"contract/wtf/ERC20/Airdrop.sol\":2947:2955  _amounts */\n      dup5\n      dup5\n        /* \"contract/wtf/ERC20/Airdrop.sol\":2956:2957  i */\n      dup4\n        /* \"contract/wtf/ERC20/Airdrop.sol\":2947:2958  _amounts[i] */\n      dup2\n      dup2\n      lt\n      tag_67\n      jumpi\n      tag_68\n      tag_33\n      jump\t// in\n    tag_68:\n    tag_67:\n      swap1\n      pop\n      0x20\n      mul\n      add\n      calldataload\n        /* \"contract/wtf/ERC20/Airdrop.sol\":2913:2929  failTransferList */\n      0x00\n        /* \"contract/wtf/ERC20/Airdrop.sol\":2913:2944  failTransferList[_addresses[i]] */\n      dup1\n        /* \"contract/wtf/ERC20/Airdrop.sol\":2930:2940  _addresses */\n      dup10\n      dup10\n        /* \"contract/wtf/ERC20/Airdrop.sol\":2941:2942  i */\n      dup7\n        /* \"contract/wtf/ERC20/Airdrop.sol\":2930:2943  _addresses[i] */\n      dup2\n      dup2\n      lt\n      tag_69\n      jumpi\n      tag_70\n      tag_33\n      jump\t// in\n    tag_70:\n    tag_69:\n      swap1\n      pop\n      0x20\n      mul\n      add\n      0x20\n      dup2\n      add\n      swap1\n      tag_71\n      swap2\n      swap1\n      tag_58\n      jump\t// in\n    tag_71:\n        /* \"contract/wtf/ERC20/Airdrop.sol\":2913:2944  failTransferList[_addresses[i]] */\n      0xffffffffffffffffffffffffffffffffffffffff\n      and\n      0xffffffffffffffffffffffffffffffffffffffff\n      and\n      dup2\n      mstore\n      0x20\n      add\n      swap1\n      dup2\n      mstore\n      0x20\n      add\n      0x00\n      keccak256\n        /* \"contract/wtf/ERC20/Airdrop.sol\":2913:2958  failTransferList[_addresses[i]] = _amounts[i] */\n      dup2\n      swap1\n      sstore\n      pop\n        /* \"contract/wtf/ERC20/Airdrop.sol\":2881:2973  if (!success) {... */\n    tag_66:\n        /* \"contract/wtf/ERC20/Airdrop.sol\":2547:2983  {... */\n      pop\n        /* \"contract/wtf/ERC20/Airdrop.sol\":2542:2545  i++ */\n      dup1\n      dup1\n      0x01\n      add\n      swap2\n      pop\n      pop\n        /* \"contract/wtf/ERC20/Airdrop.sol\":2499:2983  for (uint256 i = 0; i < _addresses.length; i++) {... */\n      jump(tag_52)\n    tag_53:\n      pop\n        /* \"contract/wtf/ERC20/Airdrop.sol\":2054:2989  {... */\n      pop\n        /* \"contract/wtf/ERC20/Airdrop.sol\":1923:2989  function multiTransferETH(... */\n      pop\n      pop\n      pop\n      pop\n      jump\t// out\n        /* \"contract/wtf/ERC20/Airdrop.sol\":371:579  function getSum(uint256[] calldata _arr)... */\n    tag_18:\n        /* \"contract/wtf/ERC20/Airdrop.sol\":459:473  uint256 result */\n      0x00\n        /* \"contract/wtf/ERC20/Airdrop.sol\":494:503  uint256 i */\n      dup1\n        /* \"contract/wtf/ERC20/Airdrop.sol\":506:507  0 */\n      0x00\n        /* \"contract/wtf/ERC20/Airdrop.sol\":494:507  uint256 i = 0 */\n      swap1\n      pop\n        /* \"contract/wtf/ERC20/Airdrop.sol\":489:573  for (uint256 i = 0; i < _arr.length; i++) {... */\n    tag_73:\n        /* \"contract/wtf/ERC20/Airdrop.sol\":513:517  _arr */\n      dup4\n      dup4\n        /* \"contract/wtf/ERC20/Airdrop.sol\":513:524  _arr.length */\n      swap1\n      pop\n        /* \"contract/wtf/ERC20/Airdrop.sol\":509:510  i */\n      dup2\n        /* \"contract/wtf/ERC20/Airdrop.sol\":509:524  i < _arr.length */\n      lt\n        /* \"contract/wtf/ERC20/Airdrop.sol\":489:573  for (uint256 i = 0; i < _arr.length; i++) {... */\n      iszero\n      tag_74\n      jumpi\n        /* \"contract/wtf/ERC20/Airdrop.sol\":555:559  _arr */\n      dup4\n      dup4\n        /* \"contract/wtf/ERC20/Airdrop.sol\":560:561  i */\n      dup3\n        /* \"contract/wtf/ERC20/Airdrop.sol\":555:562  _arr[i] */\n      dup2\n      dup2\n      lt\n      tag_76\n      jumpi\n      tag_77\n      tag_33\n      jump\t// in\n    tag_77:\n    tag_76:\n      swap1\n      pop\n      0x20\n      mul\n      add\n      calldataload\n        /* \"contract/wtf/ERC20/Airdrop.sol\":545:562  result += _arr[i] */\n      dup3\n      tag_78\n      swap2\n      swap1\n      tag_79\n      jump\t// in\n    tag_78:\n      swap2\n      pop\n        /* \"contract/wtf/ERC20/Airdrop.sol\":526:529  i++ */\n      dup1\n      dup1\n      0x01\n      add\n      swap2\n      pop\n      pop\n        /* \"contract/wtf/ERC20/Airdrop.sol\":489:573  for (uint256 i = 0; i < _arr.length; i++) {... */\n      jump(tag_73)\n    tag_74:\n      pop\n        /* \"contract/wtf/ERC20/Airdrop.sol\":371:579  function getSum(uint256[] calldata _arr)... */\n      swap3\n      swap2\n      pop\n      pop\n      jump\t// out\n        /* \"#utility.yul\":88:205   */\n    tag_81:\n        /* \"#utility.yul\":197:198   */\n      0x00\n        /* \"#utility.yul\":194:195   */\n      dup1\n        /* \"#utility.yul\":187:199   */\n      revert\n        /* \"#utility.yul\":211:328   */\n    tag_82:\n        /* \"#utility.yul\":320:321   */\n      0x00\n        /* \"#utility.yul\":317:318   */\n      dup1\n        /* \"#utility.yul\":310:322   */\n      revert\n        /* \"#utility.yul\":334:460   */\n    tag_83:\n        /* \"#utility.yul\":371:378   */\n      0x00\n        /* \"#utility.yul\":411:453   */\n      0xffffffffffffffffffffffffffffffffffffffff\n        /* \"#utility.yul\":404:409   */\n      dup3\n        /* \"#utility.yul\":400:454   */\n      and\n        /* \"#utility.yul\":389:454   */\n      swap1\n      pop\n        /* \"#utility.yul\":334:460   */\n      swap2\n      swap1\n      pop\n      jump\t// out\n        /* \"#utility.yul\":466:562   */\n    tag_84:\n        /* \"#utility.yul\":503:510   */\n      0x00\n        /* \"#utility.yul\":532:556   */\n      tag_123\n        /* \"#utility.yul\":550:555   */\n      dup3\n        /* \"#utility.yul\":532:556   */\n      tag_83\n      jump\t// in\n    tag_123:\n        /* \"#utility.yul\":521:556   */\n      swap1\n      pop\n        /* \"#utility.yul\":466:562   */\n      swap2\n      swap1\n      pop\n      jump\t// out\n        /* \"#utility.yul\":568:690   */\n    tag_85:\n        /* \"#utility.yul\":641:665   */\n      tag_125\n        /* \"#utility.yul\":659:664   */\n      dup2\n        /* \"#utility.yul\":641:665   */\n      tag_84\n      jump\t// in\n    tag_125:\n        /* \"#utility.yul\":634:639   */\n      dup2\n        /* \"#utility.yul\":631:666   */\n      eq\n        /* \"#utility.yul\":621:684   */\n      tag_126\n      jumpi\n        /* \"#utility.yul\":680:681   */\n      0x00\n        /* \"#utility.yul\":677:678   */\n      dup1\n        /* \"#utility.yul\":670:682   */\n      revert\n        /* \"#utility.yul\":621:684   */\n    tag_126:\n        /* \"#utility.yul\":568:690   */\n      pop\n      jump\t// out\n        /* \"#utility.yul\":696:835   */\n    tag_86:\n        /* \"#utility.yul\":742:747   */\n      0x00\n        /* \"#utility.yul\":780:786   */\n      dup2\n        /* \"#utility.yul\":767:787   */\n      calldataload\n        /* \"#utility.yul\":758:787   */\n      swap1\n      pop\n        /* \"#utility.yul\":796:829   */\n      tag_128\n        /* \"#utility.yul\":823:828   */\n      dup2\n        /* \"#utility.yul\":796:829   */\n      tag_85\n      jump\t// in\n    tag_128:\n        /* \"#utility.yul\":696:835   */\n      swap3\n      swap2\n      pop\n      pop\n      jump\t// out\n        /* \"#utility.yul\":841:958   */\n    tag_87:\n        /* \"#utility.yul\":950:951   */\n      0x00\n        /* \"#utility.yul\":947:948   */\n      dup1\n        /* \"#utility.yul\":940:952   */\n      revert\n        /* \"#utility.yul\":964:1081   */\n    tag_88:\n        /* \"#utility.yul\":1073:1074   */\n      0x00\n        /* \"#utility.yul\":1070:1071   */\n      dup1\n        /* \"#utility.yul\":1063:1075   */\n      revert\n        /* \"#utility.yul\":1087:1204   */\n    tag_89:\n        /* \"#utility.yul\":1196:1197   */\n      0x00\n        /* \"#utility.yul\":1193:1194   */\n      dup1\n        /* \"#utility.yul\":1186:1198   */\n      revert\n        /* \"#utility.yul\":1227:1795   */\n    tag_90:\n        /* \"#utility.yul\":1300:1308   */\n      0x00\n        /* \"#utility.yul\":1310:1316   */\n      dup1\n        /* \"#utility.yul\":1360:1363   */\n      dup4\n        /* \"#utility.yul\":1353:1357   */\n      0x1f\n        /* \"#utility.yul\":1345:1351   */\n      dup5\n        /* \"#utility.yul\":1341:1358   */\n      add\n        /* \"#utility.yul\":1337:1364   */\n      slt\n        /* \"#utility.yul\":1327:1449   */\n      tag_133\n      jumpi\n        /* \"#utility.yul\":1368:1447   */\n      tag_134\n      tag_87\n      jump\t// in\n    tag_134:\n        /* \"#utility.yul\":1327:1449   */\n    tag_133:\n        /* \"#utility.yul\":1481:1487   */\n      dup3\n        /* \"#utility.yul\":1468:1488   */\n      calldataload\n        /* \"#utility.yul\":1458:1488   */\n      swap1\n      pop\n        /* \"#utility.yul\":1511:1529   */\n      0xffffffffffffffff\n        /* \"#utility.yul\":1503:1509   */\n      dup2\n        /* \"#utility.yul\":1500:1530   */\n      gt\n        /* \"#utility.yul\":1497:1614   */\n      iszero\n      tag_135\n      jumpi\n        /* \"#utility.yul\":1533:1612   */\n      tag_136\n      tag_88\n      jump\t// in\n    tag_136:\n        /* \"#utility.yul\":1497:1614   */\n    tag_135:\n        /* \"#utility.yul\":1647:1651   */\n      0x20\n        /* \"#utility.yul\":1639:1645   */\n      dup4\n        /* \"#utility.yul\":1635:1652   */\n      add\n        /* \"#utility.yul\":1623:1652   */\n      swap2\n      pop\n        /* \"#utility.yul\":1701:1704   */\n      dup4\n        /* \"#utility.yul\":1693:1697   */\n      0x20\n        /* \"#utility.yul\":1685:1691   */\n      dup3\n        /* \"#utility.yul\":1681:1698   */\n      mul\n        /* \"#utility.yul\":1671:1679   */\n      dup4\n        /* \"#utility.yul\":1667:1699   */\n      add\n        /* \"#utility.yul\":1664:1705   */\n      gt\n        /* \"#utility.yul\":1661:1789   */\n      iszero\n      tag_137\n      jumpi\n        /* \"#utility.yul\":1708:1787   */\n      tag_138\n      tag_89\n      jump\t// in\n    tag_138:\n        /* \"#utility.yul\":1661:1789   */\n    tag_137:\n        /* \"#utility.yul\":1227:1795   */\n      swap3\n      pop\n      swap3\n      swap1\n      pop\n      jump\t// out\n        /* \"#utility.yul\":1818:2386   */\n    tag_91:\n        /* \"#utility.yul\":1891:1899   */\n      0x00\n        /* \"#utility.yul\":1901:1907   */\n      dup1\n        /* \"#utility.yul\":1951:1954   */\n      dup4\n        /* \"#utility.yul\":1944:1948   */\n      0x1f\n        /* \"#utility.yul\":1936:1942   */\n      dup5\n        /* \"#utility.yul\":1932:1949   */\n      add\n        /* \"#utility.yul\":1928:1955   */\n      slt\n        /* \"#utility.yul\":1918:2040   */\n      tag_140\n      jumpi\n        /* \"#utility.yul\":1959:2038   */\n      tag_141\n      tag_87\n      jump\t// in\n    tag_141:\n        /* \"#utility.yul\":1918:2040   */\n    tag_140:\n        /* \"#utility.yul\":2072:2078   */\n      dup3\n        /* \"#utility.yul\":2059:2079   */\n      calldataload\n        /* \"#utility.yul\":2049:2079   */\n      swap1\n      pop\n        /* \"#utility.yul\":2102:2120   */\n      0xffffffffffffffff\n        /* \"#utility.yul\":2094:2100   */\n      dup2\n        /* \"#utility.yul\":2091:2121   */\n      gt\n        /* \"#utility.yul\":2088:2205   */\n      iszero\n      tag_142\n      jumpi\n        /* \"#utility.yul\":2124:2203   */\n      tag_143\n      tag_88\n      jump\t// in\n    tag_143:\n        /* \"#utility.yul\":2088:2205   */\n    tag_142:\n        /* \"#utility.yul\":2238:2242   */\n      0x20\n        /* \"#utility.yul\":2230:2236   */\n      dup4\n        /* \"#utility.yul\":2226:2243   */\n      add\n        /* \"#utility.yul\":2214:2243   */\n      swap2\n      pop\n        /* \"#utility.yul\":2292:2295   */\n      dup4\n        /* \"#utility.yul\":2284:2288   */\n      0x20\n        /* \"#utility.yul\":2276:2282   */\n      dup3\n        /* \"#utility.yul\":2272:2289   */\n      mul\n        /* \"#utility.yul\":2262:2270   */\n      dup4\n        /* \"#utility.yul\":2258:2290   */\n      add\n        /* \"#utility.yul\":2255:2296   */\n      gt\n        /* \"#utility.yul\":2252:2380   */\n      iszero\n      tag_144\n      jumpi\n        /* \"#utility.yul\":2299:2378   */\n      tag_145\n      tag_89\n      jump\t// in\n    tag_145:\n        /* \"#utility.yul\":2252:2380   */\n    tag_144:\n        /* \"#utility.yul\":1818:2386   */\n      swap3\n      pop\n      swap3\n      swap1\n      pop\n      jump\t// out\n        /* \"#utility.yul\":2392:3471   */\n    tag_7:\n        /* \"#utility.yul\":2523:2529   */\n      0x00\n        /* \"#utility.yul\":2531:2537   */\n      dup1\n        /* \"#utility.yul\":2539:2545   */\n      0x00\n        /* \"#utility.yul\":2547:2553   */\n      dup1\n        /* \"#utility.yul\":2555:2561   */\n      0x00\n        /* \"#utility.yul\":2604:2606   */\n      0x60\n        /* \"#utility.yul\":2592:2601   */\n      dup7\n        /* \"#utility.yul\":2583:2590   */\n      dup9\n        /* \"#utility.yul\":2579:2602   */\n      sub\n        /* \"#utility.yul\":2575:2607   */\n      slt\n        /* \"#utility.yul\":2572:2691   */\n      iszero\n      tag_147\n      jumpi\n        /* \"#utility.yul\":2610:2689   */\n      tag_148\n      tag_81\n      jump\t// in\n    tag_148:\n        /* \"#utility.yul\":2572:2691   */\n    tag_147:\n        /* \"#utility.yul\":2730:2731   */\n      0x00\n        /* \"#utility.yul\":2755:2808   */\n      tag_149\n        /* \"#utility.yul\":2800:2807   */\n      dup9\n        /* \"#utility.yul\":2791:2797   */\n      dup3\n        /* \"#utility.yul\":2780:2789   */\n      dup10\n        /* \"#utility.yul\":2776:2798   */\n      add\n        /* \"#utility.yul\":2755:2808   */\n      tag_86\n      jump\t// in\n    tag_149:\n        /* \"#utility.yul\":2745:2808   */\n      swap6\n      pop\n        /* \"#utility.yul\":2701:2818   */\n      pop\n        /* \"#utility.yul\":2885:2887   */\n      0x20\n        /* \"#utility.yul\":2874:2883   */\n      dup7\n        /* \"#utility.yul\":2870:2888   */\n      add\n        /* \"#utility.yul\":2857:2889   */\n      calldataload\n        /* \"#utility.yul\":2916:2934   */\n      0xffffffffffffffff\n        /* \"#utility.yul\":2908:2914   */\n      dup2\n        /* \"#utility.yul\":2905:2935   */\n      gt\n        /* \"#utility.yul\":2902:3019   */\n      iszero\n      tag_150\n      jumpi\n        /* \"#utility.yul\":2938:3017   */\n      tag_151\n      tag_82\n      jump\t// in\n    tag_151:\n        /* \"#utility.yul\":2902:3019   */\n    tag_150:\n        /* \"#utility.yul\":3051:3131   */\n      tag_152\n        /* \"#utility.yul\":3123:3130   */\n      dup9\n        /* \"#utility.yul\":3114:3120   */\n      dup3\n        /* \"#utility.yul\":3103:3112   */\n      dup10\n        /* \"#utility.yul\":3099:3121   */\n      add\n        /* \"#utility.yul\":3051:3131   */\n      tag_90\n      jump\t// in\n    tag_152:\n        /* \"#utility.yul\":3033:3131   */\n      swap5\n      pop\n      swap5\n      pop\n        /* \"#utility.yul\":2828:3141   */\n      pop\n        /* \"#utility.yul\":3208:3210   */\n      0x40\n        /* \"#utility.yul\":3197:3206   */\n      dup7\n        /* \"#utility.yul\":3193:3211   */\n      add\n        /* \"#utility.yul\":3180:3212   */\n      calldataload\n        /* \"#utility.yul\":3239:3257   */\n      0xffffffffffffffff\n        /* \"#utility.yul\":3231:3237   */\n      dup2\n        /* \"#utility.yul\":3228:3258   */\n      gt\n        /* \"#utility.yul\":3225:3342   */\n      iszero\n      tag_153\n      jumpi\n        /* \"#utility.yul\":3261:3340   */\n      tag_154\n      tag_82\n      jump\t// in\n    tag_154:\n        /* \"#utility.yul\":3225:3342   */\n    tag_153:\n        /* \"#utility.yul\":3374:3454   */\n      tag_155\n        /* \"#utility.yul\":3446:3453   */\n      dup9\n        /* \"#utility.yul\":3437:3443   */\n      dup3\n        /* \"#utility.yul\":3426:3435   */\n      dup10\n        /* \"#utility.yul\":3422:3444   */\n      add\n        /* \"#utility.yul\":3374:3454   */\n      tag_91\n      jump\t// in\n    tag_155:\n        /* \"#utility.yul\":3356:3454   */\n      swap3\n      pop\n      swap3\n      pop\n        /* \"#utility.yul\":3151:3464   */\n      pop\n        /* \"#utility.yul\":2392:3471   */\n      swap3\n      swap6\n      pop\n      swap3\n      swap6\n      swap1\n      swap4\n      pop\n      jump\t// out\n        /* \"#utility.yul\":3502:4078   */\n    tag_92:\n        /* \"#utility.yul\":3583:3591   */\n      0x00\n        /* \"#utility.yul\":3593:3599   */\n      dup1\n        /* \"#utility.yul\":3643:3646   */\n      dup4\n        /* \"#utility.yul\":3636:3640   */\n      0x1f\n        /* \"#utility.yul\":3628:3634   */\n      dup5\n        /* \"#utility.yul\":3624:3641   */\n      add\n        /* \"#utility.yul\":3620:3647   */\n      slt\n        /* \"#utility.yul\":3610:3732   */\n      tag_157\n      jumpi\n        /* \"#utility.yul\":3651:3730   */\n      tag_158\n      tag_87\n      jump\t// in\n    tag_158:\n        /* \"#utility.yul\":3610:3732   */\n    tag_157:\n        /* \"#utility.yul\":3764:3770   */\n      dup3\n        /* \"#utility.yul\":3751:3771   */\n      calldataload\n        /* \"#utility.yul\":3741:3771   */\n      swap1\n      pop\n        /* \"#utility.yul\":3794:3812   */\n      0xffffffffffffffff\n        /* \"#utility.yul\":3786:3792   */\n      dup2\n        /* \"#utility.yul\":3783:3813   */\n      gt\n        /* \"#utility.yul\":3780:3897   */\n      iszero\n      tag_159\n      jumpi\n        /* \"#utility.yul\":3816:3895   */\n      tag_160\n      tag_88\n      jump\t// in\n    tag_160:\n        /* \"#utility.yul\":3780:3897   */\n    tag_159:\n        /* \"#utility.yul\":3930:3934   */\n      0x20\n        /* \"#utility.yul\":3922:3928   */\n      dup4\n        /* \"#utility.yul\":3918:3935   */\n      add\n        /* \"#utility.yul\":3906:3935   */\n      swap2\n      pop\n        /* \"#utility.yul\":3984:3987   */\n      dup4\n        /* \"#utility.yul\":3976:3980   */\n      0x20\n        /* \"#utility.yul\":3968:3974   */\n      dup3\n        /* \"#utility.yul\":3964:3981   */\n      mul\n        /* \"#utility.yul\":3954:3962   */\n      dup4\n        /* \"#utility.yul\":3950:3982   */\n      add\n        /* \"#utility.yul\":3947:3988   */\n      gt\n        /* \"#utility.yul\":3944:4072   */\n      iszero\n      tag_161\n      jumpi\n        /* \"#utility.yul\":3991:4070   */\n      tag_162\n      tag_89\n      jump\t// in\n    tag_162:\n        /* \"#utility.yul\":3944:4072   */\n    tag_161:\n        /* \"#utility.yul\":3502:4078   */\n      swap3\n      pop\n      swap3\n      swap1\n      pop\n      jump\t// out\n        /* \"#utility.yul\":4084:5034   */\n    tag_11:\n        /* \"#utility.yul\":4214:4220   */\n      0x00\n        /* \"#utility.yul\":4222:4228   */\n      dup1\n        /* \"#utility.yul\":4230:4236   */\n      0x00\n        /* \"#utility.yul\":4238:4244   */\n      dup1\n        /* \"#utility.yul\":4287:4289   */\n      0x40\n        /* \"#utility.yul\":4275:4284   */\n      dup6\n        /* \"#utility.yul\":4266:4273   */\n      dup8\n        /* \"#utility.yul\":4262:4285   */\n      sub\n        /* \"#utility.yul\":4258:4290   */\n      slt\n        /* \"#utility.yul\":4255:4374   */\n      iszero\n      tag_164\n      jumpi\n        /* \"#utility.yul\":4293:4372   */\n      tag_165\n      tag_81\n      jump\t// in\n    tag_165:\n        /* \"#utility.yul\":4255:4374   */\n    tag_164:\n        /* \"#utility.yul\":4441:4442   */\n      0x00\n        /* \"#utility.yul\":4430:4439   */\n      dup6\n        /* \"#utility.yul\":4426:4443   */\n      add\n        /* \"#utility.yul\":4413:4444   */\n      calldataload\n        /* \"#utility.yul\":4471:4489   */\n      0xffffffffffffffff\n        /* \"#utility.yul\":4463:4469   */\n      dup2\n        /* \"#utility.yul\":4460:4490   */\n      gt\n        /* \"#utility.yul\":4457:4574   */\n      iszero\n      tag_166\n      jumpi\n        /* \"#utility.yul\":4493:4572   */\n      tag_167\n      tag_82\n      jump\t// in\n    tag_167:\n        /* \"#utility.yul\":4457:4574   */\n    tag_166:\n        /* \"#utility.yul\":4606:4694   */\n      tag_168\n        /* \"#utility.yul\":4686:4693   */\n      dup8\n        /* \"#utility.yul\":4677:4683   */\n      dup3\n        /* \"#utility.yul\":4666:4675   */\n      dup9\n        /* \"#utility.yul\":4662:4684   */\n      add\n        /* \"#utility.yul\":4606:4694   */\n      tag_92\n      jump\t// in\n    tag_168:\n        /* \"#utility.yul\":4588:4694   */\n      swap5\n      pop\n      swap5\n      pop\n        /* \"#utility.yul\":4384:4704   */\n      pop\n        /* \"#utility.yul\":4771:4773   */\n      0x20\n        /* \"#utility.yul\":4760:4769   */\n      dup6\n        /* \"#utility.yul\":4756:4774   */\n      add\n        /* \"#utility.yul\":4743:4775   */\n      calldataload\n        /* \"#utility.yul\":4802:4820   */\n      0xffffffffffffffff\n        /* \"#utility.yul\":4794:4800   */\n      dup2\n        /* \"#utility.yul\":4791:4821   */\n      gt\n        /* \"#utility.yul\":4788:4905   */\n      iszero\n      tag_169\n      jumpi\n        /* \"#utility.yul\":4824:4903   */\n      tag_170\n      tag_82\n      jump\t// in\n    tag_170:\n        /* \"#utility.yul\":4788:4905   */\n    tag_169:\n        /* \"#utility.yul\":4937:5017   */\n      tag_171\n        /* \"#utility.yul\":5009:5016   */\n      dup8\n        /* \"#utility.yul\":5000:5006   */\n      dup3\n        /* \"#utility.yul\":4989:4998   */\n      dup9\n        /* \"#utility.yul\":4985:5007   */\n      add\n        /* \"#utility.yul\":4937:5017   */\n      tag_91\n      jump\t// in\n    tag_171:\n        /* \"#utility.yul\":4919:5017   */\n      swap3\n      pop\n      swap3\n      pop\n        /* \"#utility.yul\":4714:5027   */\n      pop\n        /* \"#utility.yul\":4084:5034   */\n      swap3\n      swap6\n      swap2\n      swap5\n      pop\n      swap3\n      pop\n      jump\t// out\n        /* \"#utility.yul\":5040:5209   */\n    tag_93:\n        /* \"#utility.yul\":5124:5135   */\n      0x00\n        /* \"#utility.yul\":5158:5164   */\n      dup3\n        /* \"#utility.yul\":5153:5156   */\n      dup3\n        /* \"#utility.yul\":5146:5165   */\n      mstore\n        /* \"#utility.yul\":5198:5202   */\n      0x20\n        /* \"#utility.yul\":5193:5196   */\n      dup3\n        /* \"#utility.yul\":5189:5203   */\n      add\n        /* \"#utility.yul\":5174:5203   */\n      swap1\n      pop\n        /* \"#utility.yul\":5040:5209   */\n      swap3\n      swap2\n      pop\n      pop\n      jump\t// out\n        /* \"#utility.yul\":5215:5374   */\n    tag_94:\n        /* \"#utility.yul\":5355:5366   */\n      0x6e6f7420657175616c0000000000000000000000000000000000000000000000\n        /* \"#utility.yul\":5351:5352   */\n      0x00\n        /* \"#utility.yul\":5343:5349   */\n      dup3\n        /* \"#utility.yul\":5339:5353   */\n      add\n        /* \"#utility.yul\":5332:5367   */\n      mstore\n        /* \"#utility.yul\":5215:5374   */\n      pop\n      jump\t// out\n        /* \"#utility.yul\":5380:5745   */\n    tag_95:\n        /* \"#utility.yul\":5522:5525   */\n      0x00\n        /* \"#utility.yul\":5543:5609   */\n      tag_175\n        /* \"#utility.yul\":5607:5608   */\n      0x09\n        /* \"#utility.yul\":5602:5605   */\n      dup4\n        /* \"#utility.yul\":5543:5609   */\n      tag_93\n      jump\t// in\n    tag_175:\n        /* \"#utility.yul\":5536:5609   */\n      swap2\n      pop\n        /* \"#utility.yul\":5618:5711   */\n      tag_176\n        /* \"#utility.yul\":5707:5710   */\n      dup3\n        /* \"#utility.yul\":5618:5711   */\n      tag_94\n      jump\t// in\n    tag_176:\n        /* \"#utility.yul\":5736:5738   */\n      0x20\n        /* \"#utility.yul\":5731:5734   */\n      dup3\n        /* \"#utility.yul\":5727:5739   */\n      add\n        /* \"#utility.yul\":5720:5739   */\n      swap1\n      pop\n        /* \"#utility.yul\":5380:5745   */\n      swap2\n      swap1\n      pop\n      jump\t// out\n        /* \"#utility.yul\":5751:6170   */\n    tag_16:\n        /* \"#utility.yul\":5917:5921   */\n      0x00\n        /* \"#utility.yul\":5955:5957   */\n      0x20\n        /* \"#utility.yul\":5944:5953   */\n      dup3\n        /* \"#utility.yul\":5940:5958   */\n      add\n        /* \"#utility.yul\":5932:5958   */\n      swap1\n      pop\n        /* \"#utility.yul\":6004:6013   */\n      dup2\n        /* \"#utility.yul\":5998:6002   */\n      dup2\n        /* \"#utility.yul\":5994:6014   */\n      sub\n        /* \"#utility.yul\":5990:5991   */\n      0x00\n        /* \"#utility.yul\":5979:5988   */\n      dup4\n        /* \"#utility.yul\":5975:5992   */\n      add\n        /* \"#utility.yul\":5968:6015   */\n      mstore\n        /* \"#utility.yul\":6032:6163   */\n      tag_178\n        /* \"#utility.yul\":6158:6162   */\n      dup2\n        /* \"#utility.yul\":6032:6163   */\n      tag_95\n      jump\t// in\n    tag_178:\n        /* \"#utility.yul\":6024:6163   */\n      swap1\n      pop\n        /* \"#utility.yul\":5751:6170   */\n      swap2\n      swap1\n      pop\n      jump\t// out\n        /* \"#utility.yul\":6176:6294   */\n    tag_96:\n        /* \"#utility.yul\":6263:6287   */\n      tag_180\n        /* \"#utility.yul\":6281:6286   */\n      dup2\n        /* \"#utility.yul\":6263:6287   */\n      tag_84\n      jump\t// in\n    tag_180:\n        /* \"#utility.yul\":6258:6261   */\n      dup3\n        /* \"#utility.yul\":6251:6288   */\n      mstore\n        /* \"#utility.yul\":6176:6294   */\n      pop\n      pop\n      jump\t// out\n        /* \"#utility.yul\":6300:6632   */\n    tag_20:\n        /* \"#utility.yul\":6421:6425   */\n      0x00\n        /* \"#utility.yul\":6459:6461   */\n      0x40\n        /* \"#utility.yul\":6448:6457   */\n      dup3\n        /* \"#utility.yul\":6444:6462   */\n      add\n        /* \"#utility.yul\":6436:6462   */\n      swap1\n      pop\n        /* \"#utility.yul\":6472:6543   */\n      tag_182\n        /* \"#utility.yul\":6540:6541   */\n      0x00\n        /* \"#utility.yul\":6529:6538   */\n      dup4\n        /* \"#utility.yul\":6525:6542   */\n      add\n        /* \"#utility.yul\":6516:6522   */\n      dup6\n        /* \"#utility.yul\":6472:6543   */\n      tag_96\n      jump\t// in\n    tag_182:\n        /* \"#utility.yul\":6553:6625   */\n      tag_183\n        /* \"#utility.yul\":6621:6623   */\n      0x20\n        /* \"#utility.yul\":6610:6619   */\n      dup4\n        /* \"#utility.yul\":6606:6624   */\n      add\n        /* \"#utility.yul\":6597:6603   */\n      dup5\n        /* \"#utility.yul\":6553:6625   */\n      tag_96\n      jump\t// in\n    tag_183:\n        /* \"#utility.yul\":6300:6632   */\n      swap4\n      swap3\n      pop\n      pop\n      pop\n      jump\t// out\n        /* \"#utility.yul\":6638:6715   */\n    tag_97:\n        /* \"#utility.yul\":6675:6682   */\n      0x00\n        /* \"#utility.yul\":6704:6709   */\n      dup2\n        /* \"#utility.yul\":6693:6709   */\n      swap1\n      pop\n        /* \"#utility.yul\":6638:6715   */\n      swap2\n      swap1\n      pop\n      jump\t// out\n        /* \"#utility.yul\":6721:6843   */\n    tag_98:\n        /* \"#utility.yul\":6794:6818   */\n      tag_186\n        /* \"#utility.yul\":6812:6817   */\n      dup2\n        /* \"#utility.yul\":6794:6818   */\n      tag_97\n      jump\t// in\n    tag_186:\n        /* \"#utility.yul\":6787:6792   */\n      dup2\n        /* \"#utility.yul\":6784:6819   */\n      eq\n        /* \"#utility.yul\":6774:6837   */\n      tag_187\n      jumpi\n        /* \"#utility.yul\":6833:6834   */\n      0x00\n        /* \"#utility.yul\":6830:6831   */\n      dup1\n        /* \"#utility.yul\":6823:6835   */\n      revert\n        /* \"#utility.yul\":6774:6837   */\n    tag_187:\n        /* \"#utility.yul\":6721:6843   */\n      pop\n      jump\t// out\n        /* \"#utility.yul\":6849:6992   */\n    tag_99:\n        /* \"#utility.yul\":6906:6911   */\n      0x00\n        /* \"#utility.yul\":6937:6943   */\n      dup2\n        /* \"#utility.yul\":6931:6944   */\n      mload\n        /* \"#utility.yul\":6922:6944   */\n      swap1\n      pop\n        /* \"#utility.yul\":6953:6986   */\n      tag_189\n        /* \"#utility.yul\":6980:6985   */\n      dup2\n        /* \"#utility.yul\":6953:6986   */\n      tag_98\n      jump\t// in\n    tag_189:\n        /* \"#utility.yul\":6849:6992   */\n      swap3\n      swap2\n      pop\n      pop\n      jump\t// out\n        /* \"#utility.yul\":6998:7349   */\n    tag_24:\n        /* \"#utility.yul\":7068:7074   */\n      0x00\n        /* \"#utility.yul\":7117:7119   */\n      0x20\n        /* \"#utility.yul\":7105:7114   */\n      dup3\n        /* \"#utility.yul\":7096:7103   */\n      dup5\n        /* \"#utility.yul\":7092:7115   */\n      sub\n        /* \"#utility.yul\":7088:7120   */\n      slt\n        /* \"#utility.yul\":7085:7204   */\n      iszero\n      tag_191\n      jumpi\n        /* \"#utility.yul\":7123:7202   */\n      tag_192\n      tag_81\n      jump\t// in\n    tag_192:\n        /* \"#utility.yul\":7085:7204   */\n    tag_191:\n        /* \"#utility.yul\":7243:7244   */\n      0x00\n        /* \"#utility.yul\":7268:7332   */\n      tag_193\n        /* \"#utility.yul\":7324:7331   */\n      dup5\n        /* \"#utility.yul\":7315:7321   */\n      dup3\n        /* \"#utility.yul\":7304:7313   */\n      dup6\n        /* \"#utility.yul\":7300:7322   */\n      add\n        /* \"#utility.yul\":7268:7332   */\n      tag_99\n      jump\t// in\n    tag_193:\n        /* \"#utility.yul\":7258:7332   */\n      swap2\n      pop\n        /* \"#utility.yul\":7214:7342   */\n      pop\n        /* \"#utility.yul\":6998:7349   */\n      swap3\n      swap2\n      pop\n      pop\n      jump\t// out\n        /* \"#utility.yul\":7355:7512   */\n    tag_100:\n        /* \"#utility.yul\":7495:7504   */\n      0x6e6f206c65667400000000000000000000000000000000000000000000000000\n        /* \"#utility.yul\":7491:7492   */\n      0x00\n        /* \"#utility.yul\":7483:7489   */\n      dup3\n        /* \"#utility.yul\":7479:7493   */\n      add\n        /* \"#utility.yul\":7472:7505   */\n      mstore\n        /* \"#utility.yul\":7355:7512   */\n      pop\n      jump\t// out\n        /* \"#utility.yul\":7518:7883   */\n    tag_101:\n        /* \"#utility.yul\":7660:7663   */\n      0x00\n        /* \"#utility.yul\":7681:7747   */\n      tag_196\n        /* \"#utility.yul\":7745:7746   */\n      0x07\n        /* \"#utility.yul\":7740:7743   */\n      dup4\n        /* \"#utility.yul\":7681:7747   */\n      tag_93\n      jump\t// in\n    tag_196:\n        /* \"#utility.yul\":7674:7747   */\n      swap2\n      pop\n        /* \"#utility.yul\":7756:7849   */\n      tag_197\n        /* \"#utility.yul\":7845:7848   */\n      dup3\n        /* \"#utility.yul\":7756:7849   */\n      tag_100\n      jump\t// in\n    tag_197:\n        /* \"#utility.yul\":7874:7876   */\n      0x20\n        /* \"#utility.yul\":7869:7872   */\n      dup3\n        /* \"#utility.yul\":7865:7877   */\n      add\n        /* \"#utility.yul\":7858:7877   */\n      swap1\n      pop\n        /* \"#utility.yul\":7518:7883   */\n      swap2\n      swap1\n      pop\n      jump\t// out\n        /* \"#utility.yul\":7889:8308   */\n    tag_27:\n        /* \"#utility.yul\":8055:8059   */\n      0x00\n        /* \"#utility.yul\":8093:8095   */\n      0x20\n        /* \"#utility.yul\":8082:8091   */\n      dup3\n        /* \"#utility.yul\":8078:8096   */\n      add\n        /* \"#utility.yul\":8070:8096   */\n      swap1\n      pop\n        /* \"#utility.yul\":8142:8151   */\n      dup2\n        /* \"#utility.yul\":8136:8140   */\n      dup2\n        /* \"#utility.yul\":8132:8152   */\n      sub\n        /* \"#utility.yul\":8128:8129   */\n      0x00\n        /* \"#utility.yul\":8117:8126   */\n      dup4\n        /* \"#utility.yul\":8113:8130   */\n      add\n        /* \"#utility.yul\":8106:8153   */\n      mstore\n        /* \"#utility.yul\":8170:8301   */\n      tag_199\n        /* \"#utility.yul\":8296:8300   */\n      dup2\n        /* \"#utility.yul\":8170:8301   */\n      tag_101\n      jump\t// in\n    tag_199:\n        /* \"#utility.yul\":8162:8301   */\n      swap1\n      pop\n        /* \"#utility.yul\":7889:8308   */\n      swap2\n      swap1\n      pop\n      jump\t// out\n        /* \"#utility.yul\":8314:8494   */\n    tag_33:\n        /* \"#utility.yul\":8362:8439   */\n      0x4e487b7100000000000000000000000000000000000000000000000000000000\n        /* \"#utility.yul\":8359:8360   */\n      0x00\n        /* \"#utility.yul\":8352:8440   */\n      mstore\n        /* \"#utility.yul\":8459:8463   */\n      0x32\n        /* \"#utility.yul\":8456:8457   */\n      0x04\n        /* \"#utility.yul\":8449:8464   */\n      mstore\n        /* \"#utility.yul\":8483:8487   */\n      0x24\n        /* \"#utility.yul\":8480:8481   */\n      0x00\n        /* \"#utility.yul\":8473:8488   */\n      revert\n        /* \"#utility.yul\":8500:8829   */\n    tag_35:\n        /* \"#utility.yul\":8559:8565   */\n      0x00\n        /* \"#utility.yul\":8608:8610   */\n      0x20\n        /* \"#utility.yul\":8596:8605   */\n      dup3\n        /* \"#utility.yul\":8587:8594   */\n      dup5\n        /* \"#utility.yul\":8583:8606   */\n      sub\n        /* \"#utility.yul\":8579:8611   */\n      slt\n        /* \"#utility.yul\":8576:8695   */\n      iszero\n      tag_202\n      jumpi\n        /* \"#utility.yul\":8614:8693   */\n      tag_203\n      tag_81\n      jump\t// in\n    tag_203:\n        /* \"#utility.yul\":8576:8695   */\n    tag_202:\n        /* \"#utility.yul\":8734:8735   */\n      0x00\n        /* \"#utility.yul\":8759:8812   */\n      tag_204\n        /* \"#utility.yul\":8804:8811   */\n      dup5\n        /* \"#utility.yul\":8795:8801   */\n      dup3\n        /* \"#utility.yul\":8784:8793   */\n      dup6\n        /* \"#utility.yul\":8780:8802   */\n      add\n        /* \"#utility.yul\":8759:8812   */\n      tag_86\n      jump\t// in\n    tag_204:\n        /* \"#utility.yul\":8749:8812   */\n      swap2\n      pop\n        /* \"#utility.yul\":8705:8822   */\n      pop\n        /* \"#utility.yul\":8500:8829   */\n      swap3\n      swap2\n      pop\n      pop\n      jump\t// out\n        /* \"#utility.yul\":8835:8953   */\n    tag_102:\n        /* \"#utility.yul\":8922:8946   */\n      tag_206\n        /* \"#utility.yul\":8940:8945   */\n      dup2\n        /* \"#utility.yul\":8922:8946   */\n      tag_97\n      jump\t// in\n    tag_206:\n        /* \"#utility.yul\":8917:8920   */\n      dup3\n        /* \"#utility.yul\":8910:8947   */\n      mstore\n        /* \"#utility.yul\":8835:8953   */\n      pop\n      pop\n      jump\t// out\n        /* \"#utility.yul\":8959:9401   */\n    tag_39:\n        /* \"#utility.yul\":9108:9112   */\n      0x00\n        /* \"#utility.yul\":9146:9148   */\n      0x60\n        /* \"#utility.yul\":9135:9144   */\n      dup3\n        /* \"#utility.yul\":9131:9149   */\n      add\n        /* \"#utility.yul\":9123:9149   */\n      swap1\n      pop\n        /* \"#utility.yul\":9159:9230   */\n      tag_208\n        /* \"#utility.yul\":9227:9228   */\n      0x00\n        /* \"#utility.yul\":9216:9225   */\n      dup4\n        /* \"#utility.yul\":9212:9229   */\n      add\n        /* \"#utility.yul\":9203:9209   */\n      dup7\n        /* \"#utility.yul\":9159:9230   */\n      tag_96\n      jump\t// in\n    tag_208:\n        /* \"#utility.yul\":9240:9312   */\n      tag_209\n        /* \"#utility.yul\":9308:9310   */\n      0x20\n        /* \"#utility.yul\":9297:9306   */\n      dup4\n        /* \"#utility.yul\":9293:9311   */\n      add\n        /* \"#utility.yul\":9284:9290   */\n      dup6\n        /* \"#utility.yul\":9240:9312   */\n      tag_96\n      jump\t// in\n    tag_209:\n        /* \"#utility.yul\":9322:9394   */\n      tag_210\n        /* \"#utility.yul\":9390:9392   */\n      0x40\n        /* \"#utility.yul\":9379:9388   */\n      dup4\n        /* \"#utility.yul\":9375:9393   */\n      add\n        /* \"#utility.yul\":9366:9372   */\n      dup5\n        /* \"#utility.yul\":9322:9394   */\n      tag_102\n      jump\t// in\n    tag_210:\n        /* \"#utility.yul\":8959:9401   */\n      swap5\n      swap4\n      pop\n      pop\n      pop\n      pop\n      jump\t// out\n        /* \"#utility.yul\":9407:9497   */\n    tag_103:\n        /* \"#utility.yul\":9441:9448   */\n      0x00\n        /* \"#utility.yul\":9484:9489   */\n      dup2\n        /* \"#utility.yul\":9477:9490   */\n      iszero\n        /* \"#utility.yul\":9470:9491   */\n      iszero\n        /* \"#utility.yul\":9459:9491   */\n      swap1\n      pop\n        /* \"#utility.yul\":9407:9497   */\n      swap2\n      swap1\n      pop\n      jump\t// out\n        /* \"#utility.yul\":9503:9619   */\n    tag_104:\n        /* \"#utility.yul\":9573:9594   */\n      tag_213\n        /* \"#utility.yul\":9588:9593   */\n      dup2\n        /* \"#utility.yul\":9573:9594   */\n      tag_103\n      jump\t// in\n    tag_213:\n        /* \"#utility.yul\":9566:9571   */\n      dup2\n        /* \"#utility.yul\":9563:9595   */\n      eq\n        /* \"#utility.yul\":9553:9613   */\n      tag_214\n      jumpi\n        /* \"#utility.yul\":9609:9610   */\n      0x00\n        /* \"#utility.yul\":9606:9607   */\n      dup1\n        /* \"#utility.yul\":9599:9611   */\n      revert\n        /* \"#utility.yul\":9553:9613   */\n    tag_214:\n        /* \"#utility.yul\":9503:9619   */\n      pop\n      jump\t// out\n        /* \"#utility.yul\":9625:9762   */\n    tag_105:\n        /* \"#utility.yul\":9679:9684   */\n      0x00\n        /* \"#utility.yul\":9710:9716   */\n      dup2\n        /* \"#utility.yul\":9704:9717   */\n      mload\n        /* \"#utility.yul\":9695:9717   */\n      swap1\n      pop\n        /* \"#utility.yul\":9726:9756   */\n      tag_216\n        /* \"#utility.yul\":9750:9755   */\n      dup2\n        /* \"#utility.yul\":9726:9756   */\n      tag_104\n      jump\t// in\n    tag_216:\n        /* \"#utility.yul\":9625:9762   */\n      swap3\n      swap2\n      pop\n      pop\n      jump\t// out\n        /* \"#utility.yul\":9768:10113   */\n    tag_43:\n        /* \"#utility.yul\":9835:9841   */\n      0x00\n        /* \"#utility.yul\":9884:9886   */\n      0x20\n        /* \"#utility.yul\":9872:9881   */\n      dup3\n        /* \"#utility.yul\":9863:9870   */\n      dup5\n        /* \"#utility.yul\":9859:9882   */\n      sub\n        /* \"#utility.yul\":9855:9887   */\n      slt\n        /* \"#utility.yul\":9852:9971   */\n      iszero\n      tag_218\n      jumpi\n        /* \"#utility.yul\":9890:9969   */\n      tag_219\n      tag_81\n      jump\t// in\n    tag_219:\n        /* \"#utility.yul\":9852:9971   */\n    tag_218:\n        /* \"#utility.yul\":10010:10011   */\n      0x00\n        /* \"#utility.yul\":10035:10096   */\n      tag_220\n        /* \"#utility.yul\":10088:10095   */\n      dup5\n        /* \"#utility.yul\":10079:10085   */\n      dup3\n        /* \"#utility.yul\":10068:10077   */\n      dup6\n        /* \"#utility.yul\":10064:10086   */\n      add\n        /* \"#utility.yul\":10035:10096   */\n      tag_105\n      jump\t// in\n    tag_220:\n        /* \"#utility.yul\":10025:10096   */\n      swap2\n      pop\n        /* \"#utility.yul\":9981:10106   */\n      pop\n        /* \"#utility.yul\":9768:10113   */\n      swap3\n      swap2\n      pop\n      pop\n      jump\t// out\n        /* \"#utility.yul\":10119:10348   */\n    tag_106:\n        /* \"#utility.yul\":10259:10293   */\n      0x4c656e67746873206f662041646472657373657320616e6420416d6f756e7473\n        /* \"#utility.yul\":10255:10256   */\n      0x00\n        /* \"#utility.yul\":10247:10253   */\n      dup3\n        /* \"#utility.yul\":10243:10257   */\n      add\n        /* \"#utility.yul\":10236:10294   */\n      mstore\n        /* \"#utility.yul\":10328:10340   */\n      0x204e4f5420455155414c00000000000000000000000000000000000000000000\n        /* \"#utility.yul\":10323:10325   */\n      0x20\n        /* \"#utility.yul\":10315:10321   */\n      dup3\n        /* \"#utility.yul\":10311:10326   */\n      add\n        /* \"#utility.yul\":10304:10341   */\n      mstore\n        /* \"#utility.yul\":10119:10348   */\n      pop\n      jump\t// out\n        /* \"#utility.yul\":10354:10720   */\n    tag_107:\n        /* \"#utility.yul\":10496:10499   */\n      0x00\n        /* \"#utility.yul\":10517:10584   */\n      tag_223\n        /* \"#utility.yul\":10581:10583   */\n      0x2a\n        /* \"#utility.yul\":10576:10579   */\n      dup4\n        /* \"#utility.yul\":10517:10584   */\n      tag_93\n      jump\t// in\n    tag_223:\n        /* \"#utility.yul\":10510:10584   */\n      swap2\n      pop\n        /* \"#utility.yul\":10593:10686   */\n      tag_224\n        /* \"#utility.yul\":10682:10685   */\n      dup3\n        /* \"#utility.yul\":10593:10686   */\n      tag_106\n      jump\t// in\n    tag_224:\n        /* \"#utility.yul\":10711:10713   */\n      0x40\n        /* \"#utility.yul\":10706:10709   */\n      dup3\n        /* \"#utility.yul\":10702:10714   */\n      add\n        /* \"#utility.yul\":10695:10714   */\n      swap1\n      pop\n        /* \"#utility.yul\":10354:10720   */\n      swap2\n      swap1\n      pop\n      jump\t// out\n        /* \"#utility.yul\":10726:11145   */\n    tag_47:\n        /* \"#utility.yul\":10892:10896   */\n      0x00\n        /* \"#utility.yul\":10930:10932   */\n      0x20\n        /* \"#utility.yul\":10919:10928   */\n      dup3\n        /* \"#utility.yul\":10915:10933   */\n      add\n        /* \"#utility.yul\":10907:10933   */\n      swap1\n      pop\n        /* \"#utility.yul\":10979:10988   */\n      dup2\n        /* \"#utility.yul\":10973:10977   */\n      dup2\n        /* \"#utility.yul\":10969:10989   */\n      sub\n        /* \"#utility.yul\":10965:10966   */\n      0x00\n        /* \"#utility.yul\":10954:10963   */\n      dup4\n        /* \"#utility.yul\":10950:10967   */\n      add\n        /* \"#utility.yul\":10943:10990   */\n      mstore\n        /* \"#utility.yul\":11007:11138   */\n      tag_226\n        /* \"#utility.yul\":11133:11137   */\n      dup2\n        /* \"#utility.yul\":11007:11138   */\n      tag_107\n      jump\t// in\n    tag_226:\n        /* \"#utility.yul\":10999:11138   */\n      swap1\n      pop\n        /* \"#utility.yul\":10726:11145   */\n      swap2\n      swap1\n      pop\n      jump\t// out\n        /* \"#utility.yul\":11151:11322   */\n    tag_108:\n        /* \"#utility.yul\":11291:11314   */\n      0x5472616e7366657220616d6f756e74206572726f720000000000000000000000\n        /* \"#utility.yul\":11287:11288   */\n      0x00\n        /* \"#utility.yul\":11279:11285   */\n      dup3\n        /* \"#utility.yul\":11275:11289   */\n      add\n        /* \"#utility.yul\":11268:11315   */\n      mstore\n        /* \"#utility.yul\":11151:11322   */\n      pop\n      jump\t// out\n        /* \"#utility.yul\":11328:11694   */\n    tag_109:\n        /* \"#utility.yul\":11470:11473   */\n      0x00\n        /* \"#utility.yul\":11491:11558   */\n      tag_229\n        /* \"#utility.yul\":11555:11557   */\n      0x15\n        /* \"#utility.yul\":11550:11553   */\n      dup4\n        /* \"#utility.yul\":11491:11558   */\n      tag_93\n      jump\t// in\n    tag_229:\n        /* \"#utility.yul\":11484:11558   */\n      swap2\n      pop\n        /* \"#utility.yul\":11567:11660   */\n      tag_230\n        /* \"#utility.yul\":11656:11659   */\n      dup3\n        /* \"#utility.yul\":11567:11660   */\n      tag_108\n      jump\t// in\n    tag_230:\n        /* \"#utility.yul\":11685:11687   */\n      0x20\n        /* \"#utility.yul\":11680:11683   */\n      dup3\n        /* \"#utility.yul\":11676:11688   */\n      add\n        /* \"#utility.yul\":11669:11688   */\n      swap1\n      pop\n        /* \"#utility.yul\":11328:11694   */\n      swap2\n      swap1\n      pop\n      jump\t// out\n        /* \"#utility.yul\":11700:12119   */\n    tag_51:\n        /* \"#utility.yul\":11866:11870   */\n      0x00\n        /* \"#utility.yul\":11904:11906   */\n      0x20\n        /* \"#utility.yul\":11893:11902   */\n      dup3\n        /* \"#utility.yul\":11889:11907   */\n      add\n        /* \"#utility.yul\":11881:11907   */\n      swap1\n      pop\n        /* \"#utility.yul\":11953:11962   */\n      dup2\n        /* \"#utility.yul\":11947:11951   */\n      dup2\n        /* \"#utility.yul\":11943:11963   */\n      sub\n        /* \"#utility.yul\":11939:11940   */\n      0x00\n        /* \"#utility.yul\":11928:11937   */\n      dup4\n        /* \"#utility.yul\":11924:11941   */\n      add\n        /* \"#utility.yul\":11917:11964   */\n      mstore\n        /* \"#utility.yul\":11981:12112   */\n      tag_232\n        /* \"#utility.yul\":12107:12111   */\n      dup2\n        /* \"#utility.yul\":11981:12112   */\n      tag_109\n      jump\t// in\n    tag_232:\n        /* \"#utility.yul\":11973:12112   */\n      swap1\n      pop\n        /* \"#utility.yul\":11700:12119   */\n      swap2\n      swap1\n      pop\n      jump\t// out\n        /* \"#utility.yul\":12125:12229   */\n    tag_110:\n        /* \"#utility.yul\":12170:12177   */\n      0x00\n        /* \"#utility.yul\":12199:12223   */\n      tag_234\n        /* \"#utility.yul\":12217:12222   */\n      dup3\n        /* \"#utility.yul\":12199:12223   */\n      tag_83\n      jump\t// in\n    tag_234:\n        /* \"#utility.yul\":12188:12223   */\n      swap1\n      pop\n        /* \"#utility.yul\":12125:12229   */\n      swap2\n      swap1\n      pop\n      jump\t// out\n        /* \"#utility.yul\":12235:12373   */\n    tag_111:\n        /* \"#utility.yul\":12316:12348   */\n      tag_236\n        /* \"#utility.yul\":12342:12347   */\n      dup2\n        /* \"#utility.yul\":12316:12348   */\n      tag_110\n      jump\t// in\n    tag_236:\n        /* \"#utility.yul\":12309:12314   */\n      dup2\n        /* \"#utility.yul\":12306:12349   */\n      eq\n        /* \"#utility.yul\":12296:12367   */\n      tag_237\n      jumpi\n        /* \"#utility.yul\":12363:12364   */\n      0x00\n        /* \"#utility.yul\":12360:12361   */\n      dup1\n        /* \"#utility.yul\":12353:12365   */\n      revert\n        /* \"#utility.yul\":12296:12367   */\n    tag_237:\n        /* \"#utility.yul\":12235:12373   */\n      pop\n      jump\t// out\n        /* \"#utility.yul\":12379:12534   */\n    tag_112:\n        /* \"#utility.yul\":12433:12438   */\n      0x00\n        /* \"#utility.yul\":12471:12477   */\n      dup2\n        /* \"#utility.yul\":12458:12478   */\n      calldataload\n        /* \"#utility.yul\":12449:12478   */\n      swap1\n      pop\n        /* \"#utility.yul\":12487:12528   */\n      tag_239\n        /* \"#utility.yul\":12522:12527   */\n      dup2\n        /* \"#utility.yul\":12487:12528   */\n      tag_111\n      jump\t// in\n    tag_239:\n        /* \"#utility.yul\":12379:12534   */\n      swap3\n      swap2\n      pop\n      pop\n      jump\t// out\n        /* \"#utility.yul\":12540:12885   */\n    tag_58:\n        /* \"#utility.yul\":12607:12613   */\n      0x00\n        /* \"#utility.yul\":12656:12658   */\n      0x20\n        /* \"#utility.yul\":12644:12653   */\n      dup3\n        /* \"#utility.yul\":12635:12642   */\n      dup5\n        /* \"#utility.yul\":12631:12654   */\n      sub\n        /* \"#utility.yul\":12627:12659   */\n      slt\n        /* \"#utility.yul\":12624:12743   */\n      iszero\n      tag_241\n      jumpi\n        /* \"#utility.yul\":12662:12741   */\n      tag_242\n      tag_81\n      jump\t// in\n    tag_242:\n        /* \"#utility.yul\":12624:12743   */\n    tag_241:\n        /* \"#utility.yul\":12782:12783   */\n      0x00\n        /* \"#utility.yul\":12807:12868   */\n      tag_243\n        /* \"#utility.yul\":12860:12867   */\n      dup5\n        /* \"#utility.yul\":12851:12857   */\n      dup3\n        /* \"#utility.yul\":12840:12849   */\n      dup6\n        /* \"#utility.yul\":12836:12858   */\n      add\n        /* \"#utility.yul\":12807:12868   */\n      tag_112\n      jump\t// in\n    tag_243:\n        /* \"#utility.yul\":12797:12868   */\n      swap2\n      pop\n        /* \"#utility.yul\":12753:12878   */\n      pop\n        /* \"#utility.yul\":12540:12885   */\n      swap3\n      swap2\n      pop\n      pop\n      jump\t// out\n        /* \"#utility.yul\":12891:13038   */\n    tag_113:\n        /* \"#utility.yul\":12992:13003   */\n      0x00\n        /* \"#utility.yul\":13029:13032   */\n      dup2\n        /* \"#utility.yul\":13014:13032   */\n      swap1\n      pop\n        /* \"#utility.yul\":12891:13038   */\n      swap3\n      swap2\n      pop\n      pop\n      jump\t// out\n        /* \"#utility.yul\":13044:13158   */\n    tag_114:\n      pop\n      jump\t// out\n        /* \"#utility.yul\":13164:13562   */\n    tag_115:\n        /* \"#utility.yul\":13323:13326   */\n      0x00\n        /* \"#utility.yul\":13344:13427   */\n      tag_247\n        /* \"#utility.yul\":13425:13426   */\n      0x00\n        /* \"#utility.yul\":13420:13423   */\n      dup4\n        /* \"#utility.yul\":13344:13427   */\n      tag_113\n      jump\t// in\n    tag_247:\n        /* \"#utility.yul\":13337:13427   */\n      swap2\n      pop\n        /* \"#utility.yul\":13436:13529   */\n      tag_248\n        /* \"#utility.yul\":13525:13528   */\n      dup3\n        /* \"#utility.yul\":13436:13529   */\n      tag_114\n      jump\t// in\n    tag_248:\n        /* \"#utility.yul\":13554:13555   */\n      0x00\n        /* \"#utility.yul\":13549:13552   */\n      dup3\n        /* \"#utility.yul\":13545:13556   */\n      add\n        /* \"#utility.yul\":13538:13556   */\n      swap1\n      pop\n        /* \"#utility.yul\":13164:13562   */\n      swap2\n      swap1\n      pop\n      jump\t// out\n        /* \"#utility.yul\":13568:13947   */\n    tag_62:\n        /* \"#utility.yul\":13752:13755   */\n      0x00\n        /* \"#utility.yul\":13774:13921   */\n      tag_250\n        /* \"#utility.yul\":13917:13920   */\n      dup3\n        /* \"#utility.yul\":13774:13921   */\n      tag_115\n      jump\t// in\n    tag_250:\n        /* \"#utility.yul\":13767:13921   */\n      swap2\n      pop\n        /* \"#utility.yul\":13938:13941   */\n      dup2\n        /* \"#utility.yul\":13931:13941   */\n      swap1\n      pop\n        /* \"#utility.yul\":13568:13947   */\n      swap2\n      swap1\n      pop\n      jump\t// out\n        /* \"#utility.yul\":13953:14133   */\n    tag_116:\n        /* \"#utility.yul\":14001:14078   */\n      0x4e487b7100000000000000000000000000000000000000000000000000000000\n        /* \"#utility.yul\":13998:13999   */\n      0x00\n        /* \"#utility.yul\":13991:14079   */\n      mstore\n        /* \"#utility.yul\":14098:14102   */\n      0x11\n        /* \"#utility.yul\":14095:14096   */\n      0x04\n        /* \"#utility.yul\":14088:14103   */\n      mstore\n        /* \"#utility.yul\":14122:14126   */\n      0x24\n        /* \"#utility.yul\":14119:14120   */\n      0x00\n        /* \"#utility.yul\":14112:14127   */\n      revert\n        /* \"#utility.yul\":14139:14330   */\n    tag_79:\n        /* \"#utility.yul\":14179:14182   */\n      0x00\n        /* \"#utility.yul\":14198:14218   */\n      tag_253\n        /* \"#utility.yul\":14216:14217   */\n      dup3\n        /* \"#utility.yul\":14198:14218   */\n      tag_97\n      jump\t// in\n    tag_253:\n        /* \"#utility.yul\":14193:14218   */\n      swap2\n      pop\n        /* \"#utility.yul\":14232:14252   */\n      tag_254\n        /* \"#utility.yul\":14250:14251   */\n      dup4\n        /* \"#utility.yul\":14232:14252   */\n      tag_97\n      jump\t// in\n    tag_254:\n        /* \"#utility.yul\":14227:14252   */\n      swap3\n      pop\n        /* \"#utility.yul\":14275:14276   */\n      dup3\n        /* \"#utility.yul\":14272:14273   */\n      dup3\n        /* \"#utility.yul\":14268:14277   */\n      add\n        /* \"#utility.yul\":14261:14277   */\n      swap1\n      pop\n        /* \"#utility.yul\":14296:14299   */\n      dup1\n        /* \"#utility.yul\":14293:14294   */\n      dup3\n        /* \"#utility.yul\":14290:14300   */\n      gt\n        /* \"#utility.yul\":14287:14323   */\n      iszero\n      tag_255\n      jumpi\n        /* \"#utility.yul\":14303:14321   */\n      tag_256\n      tag_116\n      jump\t// in\n    tag_256:\n        /* \"#utility.yul\":14287:14323   */\n    tag_255:\n        /* \"#utility.yul\":14139:14330   */\n      swap3\n      swap2\n      pop\n      pop\n      jump\t// out\n\n    auxdata: 0xa2646970667358221220e926bda153672ebd0981e36eecea861b349318db34869565ca4e4b42427c9a4264736f6c634300081a0033\n}\n",
				"bytecode": {
					"linkReferences": {},
					"object": "6080604052348015600e575f80fd5b50610bb58061001c5f395ff3fe608060405260043610610028575f3560e01c806341ed24a21461002c57806377988cf814610054575b5f80fd5b348015610037575f80fd5b50610052600480360381019061004d91906105ae565b610070565b005b61006e60048036038101906100699190610694565b610261565b005b8181905084849050146100b8576040517f08c379a00000000000000000000000000000000000000000000000000000000081526004016100af9061076c565b60405180910390fd5b5f8590506100c6838361044a565b8173ffffffffffffffffffffffffffffffffffffffff1663dd62ed3e33306040518363ffffffff1660e01b8152600401610101929190610799565b602060405180830381865afa15801561011c573d5f803e3d5ffd5b505050506040513d601f19601f8201168201806040525081019061014091906107f3565b10610180576040517f08c379a000000000000000000000000000000000000000000000000000000000815260040161017790610868565b60405180910390fd5b5f5b85859050811015610258578173ffffffffffffffffffffffffffffffffffffffff166323b872dd338888858181106101bd576101bc610886565b5b90506020020160208101906101d291906108b3565b8787868181106101e5576101e4610886565b5b905060200201356040518463ffffffff1660e01b815260040161020a939291906108ed565b6020604051808303815f875af1158015610226573d5f803e3d5ffd5b505050506040513d601f19601f8201168201806040525081019061024a9190610957565b508080600101915050610182565b50505050505050565b8181905084849050146102a9576040517f08c379a00000000000000000000000000000000000000000000000000000000081526004016102a0906109f2565b60405180910390fd5b5f6102b4838361044a565b90508034146102f8576040517f08c379a00000000000000000000000000000000000000000000000000000000081526004016102ef90610a5a565b60405180910390fd5b5f5b85859050811015610442575f86868381811061031957610318610886565b5b905060200201602081019061032e9190610ab3565b73ffffffffffffffffffffffffffffffffffffffff1685858481811061035757610356610886565b5b9050602002013560405161036a90610b0b565b5f6040518083038185875af1925050503d805f81146103a4576040519150601f19603f3d011682016040523d82523d5f602084013e6103a9565b606091505b5050905080610434578484838181106103c5576103c4610886565b5b905060200201355f808989868181106103e1576103e0610886565b5b90506020020160208101906103f69190610ab3565b73ffffffffffffffffffffffffffffffffffffffff1673ffffffffffffffffffffffffffffffffffffffff1681526020019081526020015f20819055505b5080806001019150506102fa565b505050505050565b5f805f90505b8383905081101561048f5783838281811061046e5761046d610886565b5b90506020020135826104809190610b4c565b91508080600101915050610450565b5092915050565b5f80fd5b5f80fd5b5f73ffffffffffffffffffffffffffffffffffffffff82169050919050565b5f6104c78261049e565b9050919050565b6104d7816104bd565b81146104e1575f80fd5b50565b5f813590506104f2816104ce565b92915050565b5f80fd5b5f80fd5b5f80fd5b5f8083601f840112610519576105186104f8565b5b8235905067ffffffffffffffff811115610536576105356104fc565b5b60208301915083602082028301111561055257610551610500565b5b9250929050565b5f8083601f84011261056e5761056d6104f8565b5b8235905067ffffffffffffffff81111561058b5761058a6104fc565b5b6020830191508360208202830111156105a7576105a6610500565b5b9250929050565b5f805f805f606086880312156105c7576105c6610496565b5b5f6105d4888289016104e4565b955050602086013567ffffffffffffffff8111156105f5576105f461049a565b5b61060188828901610504565b9450945050604086013567ffffffffffffffff8111156106245761062361049a565b5b61063088828901610559565b92509250509295509295909350565b5f8083601f840112610654576106536104f8565b5b8235905067ffffffffffffffff811115610671576106706104fc565b5b60208301915083602082028301111561068d5761068c610500565b5b9250929050565b5f805f80604085870312156106ac576106ab610496565b5b5f85013567ffffffffffffffff8111156106c9576106c861049a565b5b6106d58782880161063f565b9450945050602085013567ffffffffffffffff8111156106f8576106f761049a565b5b61070487828801610559565b925092505092959194509250565b5f82825260208201905092915050565b7f6e6f7420657175616c00000000000000000000000000000000000000000000005f82015250565b5f610756600983610712565b915061076182610722565b602082019050919050565b5f6020820190508181035f8301526107838161074a565b9050919050565b610793816104bd565b82525050565b5f6040820190506107ac5f83018561078a565b6107b9602083018461078a565b9392505050565b5f819050919050565b6107d2816107c0565b81146107dc575f80fd5b50565b5f815190506107ed816107c9565b92915050565b5f6020828403121561080857610807610496565b5b5f610815848285016107df565b91505092915050565b7f6e6f206c656674000000000000000000000000000000000000000000000000005f82015250565b5f610852600783610712565b915061085d8261081e565b602082019050919050565b5f6020820190508181035f83015261087f81610846565b9050919050565b7f4e487b71000000000000000000000000000000000000000000000000000000005f52603260045260245ffd5b5f602082840312156108c8576108c7610496565b5b5f6108d5848285016104e4565b91505092915050565b6108e7816107c0565b82525050565b5f6060820190506109005f83018661078a565b61090d602083018561078a565b61091a60408301846108de565b949350505050565b5f8115159050919050565b61093681610922565b8114610940575f80fd5b50565b5f815190506109518161092d565b92915050565b5f6020828403121561096c5761096b610496565b5b5f61097984828501610943565b91505092915050565b7f4c656e67746873206f662041646472657373657320616e6420416d6f756e74735f8201527f204e4f5420455155414c00000000000000000000000000000000000000000000602082015250565b5f6109dc602a83610712565b91506109e782610982565b604082019050919050565b5f6020820190508181035f830152610a09816109d0565b9050919050565b7f5472616e7366657220616d6f756e74206572726f7200000000000000000000005f82015250565b5f610a44601583610712565b9150610a4f82610a10565b602082019050919050565b5f6020820190508181035f830152610a7181610a38565b9050919050565b5f610a828261049e565b9050919050565b610a9281610a78565b8114610a9c575f80fd5b50565b5f81359050610aad81610a89565b92915050565b5f60208284031215610ac857610ac7610496565b5b5f610ad584828501610a9f565b91505092915050565b5f81905092915050565b50565b5f610af65f83610ade565b9150610b0182610ae8565b5f82019050919050565b5f610b1582610aeb565b9150819050919050565b7f4e487b71000000000000000000000000000000000000000000000000000000005f52601160045260245ffd5b5f610b56826107c0565b9150610b61836107c0565b9250828201905080821115610b7957610b78610b1f565b5b9291505056fea2646970667358221220e926bda153672ebd0981e36eecea861b349318db34869565ca4e4b42427c9a4264736f6c634300081a0033",
					"opcodes": "PUSH1 0x80 PUSH1 0x40 MSTORE CALLVALUE DUP1 ISZERO PUSH1 0xE JUMPI PUSH0 DUP1 REVERT JUMPDEST POP PUSH2 0xBB5 DUP1 PUSH2 0x1C PUSH0 CODECOPY PUSH0 RETURN INVALID PUSH1 0x80 PUSH1 0x40 MSTORE PUSH1 0x4 CALLDATASIZE LT PUSH2 0x28 JUMPI PUSH0 CALLDATALOAD PUSH1 0xE0 SHR DUP1 PUSH4 0x41ED24A2 EQ PUSH2 0x2C JUMPI DUP1 PUSH4 0x77988CF8 EQ PUSH2 0x54 JUMPI JUMPDEST PUSH0 DUP1 REVERT JUMPDEST CALLVALUE DUP1 ISZERO PUSH2 0x37 JUMPI PUSH0 DUP1 REVERT JUMPDEST POP PUSH2 0x52 PUSH1 0x4 DUP1 CALLDATASIZE SUB DUP2 ADD SWAP1 PUSH2 0x4D SWAP2 SWAP1 PUSH2 0x5AE JUMP JUMPDEST PUSH2 0x70 JUMP JUMPDEST STOP JUMPDEST PUSH2 0x6E PUSH1 0x4 DUP1 CALLDATASIZE SUB DUP2 ADD SWAP1 PUSH2 0x69 SWAP2 SWAP1 PUSH2 0x694 JUMP JUMPDEST PUSH2 0x261 JUMP JUMPDEST STOP JUMPDEST DUP2 DUP2 SWAP1 POP DUP5 DUP5 SWAP1 POP EQ PUSH2 0xB8 JUMPI PUSH1 0x40 MLOAD PUSH32 0x8C379A000000000000000000000000000000000000000000000000000000000 DUP2 MSTORE PUSH1 0x4 ADD PUSH2 0xAF SWAP1 PUSH2 0x76C JUMP JUMPDEST PUSH1 0x40 MLOAD DUP1 SWAP2 SUB SWAP1 REVERT JUMPDEST PUSH0 DUP6 SWAP1 POP PUSH2 0xC6 DUP4 DUP4 PUSH2 0x44A JUMP JUMPDEST DUP2 PUSH20 0xFFFFFFFFFFFFFFFFFFFFFFFFFFFFFFFFFFFFFFFF AND PUSH4 0xDD62ED3E CALLER ADDRESS PUSH1 0x40 MLOAD DUP4 PUSH4 0xFFFFFFFF AND PUSH1 0xE0 SHL DUP2 MSTORE PUSH1 0x4 ADD PUSH2 0x101 SWAP3 SWAP2 SWAP1 PUSH2 0x799 JUMP JUMPDEST PUSH1 0x20 PUSH1 0x40 MLOAD DUP1 DUP4 SUB DUP2 DUP7 GAS STATICCALL ISZERO DUP1 ISZERO PUSH2 0x11C JUMPI RETURNDATASIZE PUSH0 DUP1 RETURNDATACOPY RETURNDATASIZE PUSH0 REVERT JUMPDEST POP POP POP POP PUSH1 0x40 MLOAD RETURNDATASIZE PUSH1 0x1F NOT PUSH1 0x1F DUP3 ADD AND DUP3 ADD DUP1 PUSH1 0x40 MSTORE POP DUP2 ADD SWAP1 PUSH2 0x140 SWAP2 SWAP1 PUSH2 0x7F3 JUMP JUMPDEST LT PUSH2 0x180 JUMPI PUSH1 0x40 MLOAD PUSH32 0x8C379A000000000000000000000000000000000000000000000000000000000 DUP2 MSTORE PUSH1 0x4 ADD PUSH2 0x177 SWAP1 PUSH2 0x868 JUMP JUMPDEST PUSH1 0x40 MLOAD DUP1 SWAP2 SUB SWAP1 REVERT JUMPDEST PUSH0 JUMPDEST DUP6 DUP6 SWAP1 POP DUP2 LT ISZERO PUSH2 0x258 JUMPI DUP2 PUSH20 0xFFFFFFFFFFFFFFFFFFFFFFFFFFFFFFFFFFFFFFFF AND PUSH4 0x23B872DD CALLER DUP9 DUP9 DUP6 DUP2 DUP2 LT PUSH2 0x1BD JUMPI PUSH2 0x1BC PUSH2 0x886 JUMP JUMPDEST JUMPDEST SWAP1 POP PUSH1 0x20 MUL ADD PUSH1 0x20 DUP2 ADD SWAP1 PUSH2 0x1D2 SWAP2 SWAP1 PUSH2 0x8B3 JUMP JUMPDEST DUP8 DUP8 DUP7 DUP2 DUP2 LT PUSH2 0x1E5 JUMPI PUSH2 0x1E4 PUSH2 0x886 JUMP JUMPDEST JUMPDEST SWAP1 POP PUSH1 0x20 MUL ADD CALLDATALOAD PUSH1 0x40 MLOAD DUP5 PUSH4 0xFFFFFFFF AND PUSH1 0xE0 SHL DUP2 MSTORE PUSH1 0x4 ADD PUSH2 0x20A SWAP4 SWAP3 SWAP2 SWAP1 PUSH2 0x8ED JUMP JUMPDEST PUSH1 0x20 PUSH1 0x40 MLOAD DUP1 DUP4 SUB DUP2 PUSH0 DUP8 GAS CALL ISZERO DUP1 ISZERO PUSH2 0x226 JUMPI RETURNDATASIZE PUSH0 DUP1 RETURNDATACOPY RETURNDATASIZE PUSH0 REVERT JUMPDEST POP POP POP POP PUSH1 0x40 MLOAD RETURNDATASIZE PUSH1 0x1F NOT PUSH1 0x1F DUP3 ADD AND DUP3 ADD DUP1 PUSH1 0x40 MSTORE POP DUP2 ADD SWAP1 PUSH2 0x24A SWAP2 SWAP1 PUSH2 0x957 JUMP JUMPDEST POP DUP1 DUP1 PUSH1 0x1 ADD SWAP2 POP POP PUSH2 0x182 JUMP JUMPDEST POP POP POP POP POP POP POP JUMP JUMPDEST DUP2 DUP2 SWAP1 POP DUP5 DUP5 SWAP1 POP EQ PUSH2 0x2A9 JUMPI PUSH1 0x40 MLOAD PUSH32 0x8C379A000000000000000000000000000000000000000000000000000000000 DUP2 MSTORE PUSH1 0x4 ADD PUSH2 0x2A0 SWAP1 PUSH2 0x9F2 JUMP JUMPDEST PUSH1 0x40 MLOAD DUP1 SWAP2 SUB SWAP1 REVERT JUMPDEST PUSH0 PUSH2 0x2B4 DUP4 DUP4 PUSH2 0x44A JUMP JUMPDEST SWAP1 POP DUP1 CALLVALUE EQ PUSH2 0x2F8 JUMPI PUSH1 0x40 MLOAD PUSH32 0x8C379A000000000000000000000000000000000000000000000000000000000 DUP2 MSTORE PUSH1 0x4 ADD PUSH2 0x2EF SWAP1 PUSH2 0xA5A JUMP JUMPDEST PUSH1 0x40 MLOAD DUP1 SWAP2 SUB SWAP1 REVERT JUMPDEST PUSH0 JUMPDEST DUP6 DUP6 SWAP1 POP DUP2 LT ISZERO PUSH2 0x442 JUMPI PUSH0 DUP7 DUP7 DUP4 DUP2 DUP2 LT PUSH2 0x319 JUMPI PUSH2 0x318 PUSH2 0x886 JUMP JUMPDEST JUMPDEST SWAP1 POP PUSH1 0x20 MUL ADD PUSH1 0x20 DUP2 ADD SWAP1 PUSH2 0x32E SWAP2 SWAP1 PUSH2 0xAB3 JUMP JUMPDEST PUSH20 0xFFFFFFFFFFFFFFFFFFFFFFFFFFFFFFFFFFFFFFFF AND DUP6 DUP6 DUP5 DUP2 DUP2 LT PUSH2 0x357 JUMPI PUSH2 0x356 PUSH2 0x886 JUMP JUMPDEST JUMPDEST SWAP1 POP PUSH1 0x20 MUL ADD CALLDATALOAD PUSH1 0x40 MLOAD PUSH2 0x36A SWAP1 PUSH2 0xB0B JUMP JUMPDEST PUSH0 PUSH1 0x40 MLOAD DUP1 DUP4 SUB DUP2 DUP6 DUP8 GAS CALL SWAP3 POP POP POP RETURNDATASIZE DUP1 PUSH0 DUP2 EQ PUSH2 0x3A4 JUMPI PUSH1 0x40 MLOAD SWAP2 POP PUSH1 0x1F NOT PUSH1 0x3F RETURNDATASIZE ADD AND DUP3 ADD PUSH1 0x40 MSTORE RETURNDATASIZE DUP3 MSTORE RETURNDATASIZE PUSH0 PUSH1 0x20 DUP5 ADD RETURNDATACOPY PUSH2 0x3A9 JUMP JUMPDEST PUSH1 0x60 SWAP2 POP JUMPDEST POP POP SWAP1 POP DUP1 PUSH2 0x434 JUMPI DUP5 DUP5 DUP4 DUP2 DUP2 LT PUSH2 0x3C5 JUMPI PUSH2 0x3C4 PUSH2 0x886 JUMP JUMPDEST JUMPDEST SWAP1 POP PUSH1 0x20 MUL ADD CALLDATALOAD PUSH0 DUP1 DUP10 DUP10 DUP7 DUP2 DUP2 LT PUSH2 0x3E1 JUMPI PUSH2 0x3E0 PUSH2 0x886 JUMP JUMPDEST JUMPDEST SWAP1 POP PUSH1 0x20 MUL ADD PUSH1 0x20 DUP2 ADD SWAP1 PUSH2 0x3F6 SWAP2 SWAP1 PUSH2 0xAB3 JUMP JUMPDEST PUSH20 0xFFFFFFFFFFFFFFFFFFFFFFFFFFFFFFFFFFFFFFFF AND PUSH20 0xFFFFFFFFFFFFFFFFFFFFFFFFFFFFFFFFFFFFFFFF AND DUP2 MSTORE PUSH1 0x20 ADD SWAP1 DUP2 MSTORE PUSH1 0x20 ADD PUSH0 KECCAK256 DUP2 SWAP1 SSTORE POP JUMPDEST POP DUP1 DUP1 PUSH1 0x1 ADD SWAP2 POP POP PUSH2 0x2FA JUMP JUMPDEST POP POP POP POP POP POP JUMP JUMPDEST PUSH0 DUP1 PUSH0 SWAP1 POP JUMPDEST DUP4 DUP4 SWAP1 POP DUP2 LT ISZERO PUSH2 0x48F JUMPI DUP4 DUP4 DUP3 DUP2 DUP2 LT PUSH2 0x46E JUMPI PUSH2 0x46D PUSH2 0x886 JUMP JUMPDEST JUMPDEST SWAP1 POP PUSH1 0x20 MUL ADD CALLDATALOAD DUP3 PUSH2 0x480 SWAP2 SWAP1 PUSH2 0xB4C JUMP JUMPDEST SWAP2 POP DUP1 DUP1 PUSH1 0x1 ADD SWAP2 POP POP PUSH2 0x450 JUMP JUMPDEST POP SWAP3 SWAP2 POP POP JUMP JUMPDEST PUSH0 DUP1 REVERT JUMPDEST PUSH0 DUP1 REVERT JUMPDEST PUSH0 PUSH20 0xFFFFFFFFFFFFFFFFFFFFFFFFFFFFFFFFFFFFFFFF DUP3 AND SWAP1 POP SWAP2 SWAP1 POP JUMP JUMPDEST PUSH0 PUSH2 0x4C7 DUP3 PUSH2 0x49E JUMP JUMPDEST SWAP1 POP SWAP2 SWAP1 POP JUMP JUMPDEST PUSH2 0x4D7 DUP2 PUSH2 0x4BD JUMP JUMPDEST DUP2 EQ PUSH2 0x4E1 JUMPI PUSH0 DUP1 REVERT JUMPDEST POP JUMP JUMPDEST PUSH0 DUP2 CALLDATALOAD SWAP1 POP PUSH2 0x4F2 DUP2 PUSH2 0x4CE JUMP JUMPDEST SWAP3 SWAP2 POP POP JUMP JUMPDEST PUSH0 DUP1 REVERT JUMPDEST PUSH0 DUP1 REVERT JUMPDEST PUSH0 DUP1 REVERT JUMPDEST PUSH0 DUP1 DUP4 PUSH1 0x1F DUP5 ADD SLT PUSH2 0x519 JUMPI PUSH2 0x518 PUSH2 0x4F8 JUMP JUMPDEST JUMPDEST DUP3 CALLDATALOAD SWAP1 POP PUSH8 0xFFFFFFFFFFFFFFFF DUP2 GT ISZERO PUSH2 0x536 JUMPI PUSH2 0x535 PUSH2 0x4FC JUMP JUMPDEST JUMPDEST PUSH1 0x20 DUP4 ADD SWAP2 POP DUP4 PUSH1 0x20 DUP3 MUL DUP4 ADD GT ISZERO PUSH2 0x552 JUMPI PUSH2 0x551 PUSH2 0x500 JUMP JUMPDEST JUMPDEST SWAP3 POP SWAP3 SWAP1 POP JUMP JUMPDEST PUSH0 DUP1 DUP4 PUSH1 0x1F DUP5 ADD SLT PUSH2 0x56E JUMPI PUSH2 0x56D PUSH2 0x4F8 JUMP JUMPDEST JUMPDEST DUP3 CALLDATALOAD SWAP1 POP PUSH8 0xFFFFFFFFFFFFFFFF DUP2 GT ISZERO PUSH2 0x58B JUMPI PUSH2 0x58A PUSH2 0x4FC JUMP JUMPDEST JUMPDEST PUSH1 0x20 DUP4 ADD SWAP2 POP DUP4 PUSH1 0x20 DUP3 MUL DUP4 ADD GT ISZERO PUSH2 0x5A7 JUMPI PUSH2 0x5A6 PUSH2 0x500 JUMP JUMPDEST JUMPDEST SWAP3 POP SWAP3 SWAP1 POP JUMP JUMPDEST PUSH0 DUP1 PUSH0 DUP1 PUSH0 PUSH1 0x60 DUP7 DUP9 SUB SLT ISZERO PUSH2 0x5C7 JUMPI PUSH2 0x5C6 PUSH2 0x496 JUMP JUMPDEST JUMPDEST PUSH0 PUSH2 0x5D4 DUP9 DUP3 DUP10 ADD PUSH2 0x4E4 JUMP JUMPDEST SWAP6 POP POP PUSH1 0x20 DUP7 ADD CALLDATALOAD PUSH8 0xFFFFFFFFFFFFFFFF DUP2 GT ISZERO PUSH2 0x5F5 JUMPI PUSH2 0x5F4 PUSH2 0x49A JUMP JUMPDEST JUMPDEST PUSH2 0x601 DUP9 DUP3 DUP10 ADD PUSH2 0x504 JUMP JUMPDEST SWAP5 POP SWAP5 POP POP PUSH1 0x40 DUP7 ADD CALLDATALOAD PUSH8 0xFFFFFFFFFFFFFFFF DUP2 GT ISZERO PUSH2 0x624 JUMPI PUSH2 0x623 PUSH2 0x49A JUMP JUMPDEST JUMPDEST PUSH2 0x630 DUP9 DUP3 DUP10 ADD PUSH2 0x559 JUMP JUMPDEST SWAP3 POP SWAP3 POP POP SWAP3 SWAP6 POP SWAP3 SWAP6 SWAP1 SWAP4 POP JUMP JUMPDEST PUSH0 DUP1 DUP4 PUSH1 0x1F DUP5 ADD SLT PUSH2 0x654 JUMPI PUSH2 0x653 PUSH2 0x4F8 JUMP JUMPDEST JUMPDEST DUP3 CALLDATALOAD SWAP1 POP PUSH8 0xFFFFFFFFFFFFFFFF DUP2 GT ISZERO PUSH2 0x671 JUMPI PUSH2 0x670 PUSH2 0x4FC JUMP JUMPDEST JUMPDEST PUSH1 0x20 DUP4 ADD SWAP2 POP DUP4 PUSH1 0x20 DUP3 MUL DUP4 ADD GT ISZERO PUSH2 0x68D JUMPI PUSH2 0x68C PUSH2 0x500 JUMP JUMPDEST JUMPDEST SWAP3 POP SWAP3 SWAP1 POP JUMP JUMPDEST PUSH0 DUP1 PUSH0 DUP1 PUSH1 0x40 DUP6 DUP8 SUB SLT ISZERO PUSH2 0x6AC JUMPI PUSH2 0x6AB PUSH2 0x496 JUMP JUMPDEST JUMPDEST PUSH0 DUP6 ADD CALLDATALOAD PUSH8 0xFFFFFFFFFFFFFFFF DUP2 GT ISZERO PUSH2 0x6C9 JUMPI PUSH2 0x6C8 PUSH2 0x49A JUMP JUMPDEST JUMPDEST PUSH2 0x6D5 DUP8 DUP3 DUP9 ADD PUSH2 0x63F JUMP JUMPDEST SWAP5 POP SWAP5 POP POP PUSH1 0x20 DUP6 ADD CALLDATALOAD PUSH8 0xFFFFFFFFFFFFFFFF DUP2 GT ISZERO PUSH2 0x6F8 JUMPI PUSH2 0x6F7 PUSH2 0x49A JUMP JUMPDEST JUMPDEST PUSH2 0x704 DUP8 DUP3 DUP9 ADD PUSH2 0x559 JUMP JUMPDEST SWAP3 POP SWAP3 POP POP SWAP3 SWAP6 SWAP2 SWAP5 POP SWAP3 POP JUMP JUMPDEST PUSH0 DUP3 DUP3 MSTORE PUSH1 0x20 DUP3 ADD SWAP1 POP SWAP3 SWAP2 POP POP JUMP JUMPDEST PUSH32 0x6E6F7420657175616C0000000000000000000000000000000000000000000000 PUSH0 DUP3 ADD MSTORE POP JUMP JUMPDEST PUSH0 PUSH2 0x756 PUSH1 0x9 DUP4 PUSH2 0x712 JUMP JUMPDEST SWAP2 POP PUSH2 0x761 DUP3 PUSH2 0x722 JUMP JUMPDEST PUSH1 0x20 DUP3 ADD SWAP1 POP SWAP2 SWAP1 POP JUMP JUMPDEST PUSH0 PUSH1 0x20 DUP3 ADD SWAP1 POP DUP2 DUP2 SUB PUSH0 DUP4 ADD MSTORE PUSH2 0x783 DUP2 PUSH2 0x74A JUMP JUMPDEST SWAP1 POP SWAP2 SWAP1 POP JUMP JUMPDEST PUSH2 0x793 DUP2 PUSH2 0x4BD JUMP JUMPDEST DUP3 MSTORE POP POP JUMP JUMPDEST PUSH0 PUSH1 0x40 DUP3 ADD SWAP1 POP PUSH2 0x7AC PUSH0 DUP4 ADD DUP6 PUSH2 0x78A JUMP JUMPDEST PUSH2 0x7B9 PUSH1 0x20 DUP4 ADD DUP5 PUSH2 0x78A JUMP JUMPDEST SWAP4 SWAP3 POP POP POP JUMP JUMPDEST PUSH0 DUP2 SWAP1 POP SWAP2 SWAP1 POP JUMP JUMPDEST PUSH2 0x7D2 DUP2 PUSH2 0x7C0 JUMP JUMPDEST DUP2 EQ PUSH2 0x7DC JUMPI PUSH0 DUP1 REVERT JUMPDEST POP JUMP JUMPDEST PUSH0 DUP2 MLOAD SWAP1 POP PUSH2 0x7ED DUP2 PUSH2 0x7C9 JUMP JUMPDEST SWAP3 SWAP2 POP POP JUMP JUMPDEST PUSH0 PUSH1 0x20 DUP3 DUP5 SUB SLT ISZERO PUSH2 0x808 JUMPI PUSH2 0x807 PUSH2 0x496 JUMP JUMPDEST JUMPDEST PUSH0 PUSH2 0x815 DUP5 DUP3 DUP6 ADD PUSH2 0x7DF JUMP JUMPDEST SWAP2 POP POP SWAP3 SWAP2 POP POP JUMP JUMPDEST PUSH32 0x6E6F206C65667400000000000000000000000000000000000000000000000000 PUSH0 DUP3 ADD MSTORE POP JUMP JUMPDEST PUSH0 PUSH2 0x852 PUSH1 0x7 DUP4 PUSH2 0x712 JUMP JUMPDEST SWAP2 POP PUSH2 0x85D DUP3 PUSH2 0x81E JUMP JUMPDEST PUSH1 0x20 DUP3 ADD SWAP1 POP SWAP2 SWAP1 POP JUMP JUMPDEST PUSH0 PUSH1 0x20 DUP3 ADD SWAP1 POP DUP2 DUP2 SUB PUSH0 DUP4 ADD MSTORE PUSH2 0x87F DUP2 PUSH2 0x846 JUMP JUMPDEST SWAP1 POP SWAP2 SWAP1 POP JUMP JUMPDEST PUSH32 0x4E487B7100000000000000000000000000000000000000000000000000000000 PUSH0 MSTORE PUSH1 0x32 PUSH1 0x4 MSTORE PUSH1 0x24 PUSH0 REVERT JUMPDEST PUSH0 PUSH1 0x20 DUP3 DUP5 SUB SLT ISZERO PUSH2 0x8C8 JUMPI PUSH2 0x8C7 PUSH2 0x496 JUMP JUMPDEST JUMPDEST PUSH0 PUSH2 0x8D5 DUP5 DUP3 DUP6 ADD PUSH2 0x4E4 JUMP JUMPDEST SWAP2 POP POP SWAP3 SWAP2 POP POP JUMP JUMPDEST PUSH2 0x8E7 DUP2 PUSH2 0x7C0 JUMP JUMPDEST DUP3 MSTORE POP POP JUMP JUMPDEST PUSH0 PUSH1 0x60 DUP3 ADD SWAP1 POP PUSH2 0x900 PUSH0 DUP4 ADD DUP7 PUSH2 0x78A JUMP JUMPDEST PUSH2 0x90D PUSH1 0x20 DUP4 ADD DUP6 PUSH2 0x78A JUMP JUMPDEST PUSH2 0x91A PUSH1 0x40 DUP4 ADD DUP5 PUSH2 0x8DE JUMP JUMPDEST SWAP5 SWAP4 POP POP POP POP JUMP JUMPDEST PUSH0 DUP2 ISZERO ISZERO SWAP1 POP SWAP2 SWAP1 POP JUMP JUMPDEST PUSH2 0x936 DUP2 PUSH2 0x922 JUMP JUMPDEST DUP2 EQ PUSH2 0x940 JUMPI PUSH0 DUP1 REVERT JUMPDEST POP JUMP JUMPDEST PUSH0 DUP2 MLOAD SWAP1 POP PUSH2 0x951 DUP2 PUSH2 0x92D JUMP JUMPDEST SWAP3 SWAP2 POP POP JUMP JUMPDEST PUSH0 PUSH1 0x20 DUP3 DUP5 SUB SLT ISZERO PUSH2 0x96C JUMPI PUSH2 0x96B PUSH2 0x496 JUMP JUMPDEST JUMPDEST PUSH0 PUSH2 0x979 DUP5 DUP3 DUP6 ADD PUSH2 0x943 JUMP JUMPDEST SWAP2 POP POP SWAP3 SWAP2 POP POP JUMP JUMPDEST PUSH32 0x4C656E67746873206F662041646472657373657320616E6420416D6F756E7473 PUSH0 DUP3 ADD MSTORE PUSH32 0x204E4F5420455155414C00000000000000000000000000000000000000000000 PUSH1 0x20 DUP3 ADD MSTORE POP JUMP JUMPDEST PUSH0 PUSH2 0x9DC PUSH1 0x2A DUP4 PUSH2 0x712 JUMP JUMPDEST SWAP2 POP PUSH2 0x9E7 DUP3 PUSH2 0x982 JUMP JUMPDEST PUSH1 0x40 DUP3 ADD SWAP1 POP SWAP2 SWAP1 POP JUMP JUMPDEST PUSH0 PUSH1 0x20 DUP3 ADD SWAP1 POP DUP2 DUP2 SUB PUSH0 DUP4 ADD MSTORE PUSH2 0xA09 DUP2 PUSH2 0x9D0 JUMP JUMPDEST SWAP1 POP SWAP2 SWAP1 POP JUMP JUMPDEST PUSH32 0x5472616E7366657220616D6F756E74206572726F720000000000000000000000 PUSH0 DUP3 ADD MSTORE POP JUMP JUMPDEST PUSH0 PUSH2 0xA44 PUSH1 0x15 DUP4 PUSH2 0x712 JUMP JUMPDEST SWAP2 POP PUSH2 0xA4F DUP3 PUSH2 0xA10 JUMP JUMPDEST PUSH1 0x20 DUP3 ADD SWAP1 POP SWAP2 SWAP1 POP JUMP JUMPDEST PUSH0 PUSH1 0x20 DUP3 ADD SWAP1 POP DUP2 DUP2 SUB PUSH0 DUP4 ADD MSTORE PUSH2 0xA71 DUP2 PUSH2 0xA38 JUMP JUMPDEST SWAP1 POP SWAP2 SWAP1 POP JUMP JUMPDEST PUSH0 PUSH2 0xA82 DUP3 PUSH2 0x49E JUMP JUMPDEST SWAP1 POP SWAP2 SWAP1 POP JUMP JUMPDEST PUSH2 0xA92 DUP2 PUSH2 0xA78 JUMP JUMPDEST DUP2 EQ PUSH2 0xA9C JUMPI PUSH0 DUP1 REVERT JUMPDEST POP JUMP JUMPDEST PUSH0 DUP2 CALLDATALOAD SWAP1 POP PUSH2 0xAAD DUP2 PUSH2 0xA89 JUMP JUMPDEST SWAP3 SWAP2 POP POP JUMP JUMPDEST PUSH0 PUSH1 0x20 DUP3 DUP5 SUB SLT ISZERO PUSH2 0xAC8 JUMPI PUSH2 0xAC7 PUSH2 0x496 JUMP JUMPDEST JUMPDEST PUSH0 PUSH2 0xAD5 DUP5 DUP3 DUP6 ADD PUSH2 0xA9F JUMP JUMPDEST SWAP2 POP POP SWAP3 SWAP2 POP POP JUMP JUMPDEST PUSH0 DUP2 SWAP1 POP SWAP3 SWAP2 POP POP JUMP JUMPDEST POP JUMP JUMPDEST PUSH0 PUSH2 0xAF6 PUSH0 DUP4 PUSH2 0xADE JUMP JUMPDEST SWAP2 POP PUSH2 0xB01 DUP3 PUSH2 0xAE8 JUMP JUMPDEST PUSH0 DUP3 ADD SWAP1 POP SWAP2 SWAP1 POP JUMP JUMPDEST PUSH0 PUSH2 0xB15 DUP3 PUSH2 0xAEB JUMP JUMPDEST SWAP2 POP DUP2 SWAP1 POP SWAP2 SWAP1 POP JUMP JUMPDEST PUSH32 0x4E487B7100000000000000000000000000000000000000000000000000000000 PUSH0 MSTORE PUSH1 0x11 PUSH1 0x4 MSTORE PUSH1 0x24 PUSH0 REVERT JUMPDEST PUSH0 PUSH2 0xB56 DUP3 PUSH2 0x7C0 JUMP JUMPDEST SWAP2 POP PUSH2 0xB61 DUP4 PUSH2 0x7C0 JUMP JUMPDEST SWAP3 POP DUP3 DUP3 ADD SWAP1 POP DUP1 DUP3 GT ISZERO PUSH2 0xB79 JUMPI PUSH2 0xB78 PUSH2 0xB1F JUMP JUMPDEST JUMPDEST SWAP3 SWAP2 POP POP JUMP INVALID LOG2 PUSH5 0x6970667358 0x22 SLT KECCAK256 0xE9 0x26 0xBD LOG1 MSTORE8 PUSH8 0x2EBD0981E36EECEA DUP7 SHL CALLVALUE SWAP4 XOR 0xDB CALLVALUE DUP7 SWAP6 PUSH6 0xCA4E4B42427C SWAP11 TIMESTAMP PUSH5 0x736F6C6343 STOP ADDMOD BYTE STOP CALLER "
				},
				"gasEstimates": {
					"creation": {
						"codeDepositCost": "599400",
						"executionCost": "630",
						"totalCost": "600030"
					},
					"external": {
						"multiTransferETH(address[],uint256[])": "infinite",
						"multiTransferToken(address,address[],uint256[])": "infinite"
					},
					"internal": {
						"getSum(uint256[] calldata)": "infinite"
					}
				},
				"methodIdentifiers": {
					"multiTransferETH(address[],uint256[])": "77988cf8",
					"multiTransferToken(address,address[],uint256[])": "41ed24a2"
				}
			},
			"storageLayout": {
				"storage": [
					{
						"astId": 6,
						"contract": "contract/wtf/ERC20/Airdrop.sol:AirDrop",
						"label": "failTransferList",
						"offset": 0,
						"slot": "0",
						"type": "t_mapping(t_address,t_uint256)"
					}
				],
				"types": {
					"t_address": {
						"encoding": "inplace",
						"label": "address",
						"numberOfBytes": "20"
					},
					"t_mapping(t_address,t_uint256)": {
						"encoding": "mapping",
						"key": "t_address",
						"label": "mapping(address => uint256)",
						"numberOfBytes": "32",
						"value": "t_uint256"
					},
					"t_uint256": {
						"encoding": "inplace",
						"label": "uint256",
						"numberOfBytes": "32"
					}
				}
			},
			"userdoc": {
				"kind": "user",
				"methods": {
					"multiTransferETH(address[],uint256[])": {
						"notice": "向多个地址转账ETH"
					}
				},
				"version": 1
			}
		}
	}
}