{
	"data": {
		"bytecode": {
			"linkReferences": {},
			"object": "608060405234801561001057600080fd5b506101c7806100206000396000f3fe608060405234801561001057600080fd5b50600436106100415760003560e01c8063343a6f93146100465780633dece51114610066578063f550211d14610085575b600080fd5b61004e6100a4565b60405161005d93929190610144565b60405180910390f35b61006e6100db565b60405161007c92919061011b565b60405180910390f35b61008d6100ee565b60405161009b92919061011b565b60405180910390f35b6000806000806000806100b56100ee565b80935081945050506100c56100ee565b5080915050828282955095509550505050909192565b6000806001915060019050600291509091565b60008060646001915091509091565b6101068161017b565b82525050565b61011581610187565b82525050565b6000604082019050610130600083018561010c565b61013d60208301846100fd565b9392505050565b6000606082019050610159600083018661010c565b61016660208301856100fd565b610173604083018461010c565b949350505050565b60008115159050919050565b600081905091905056fea264697066735822122092e805bf2b6bb9cf2595b602a12b3cba3051f63bd28401e12052fca4c9257ef364736f6c63430008070033",
			"opcodes": "PUSH1 0x80 PUSH1 0x40 MSTORE CALLVALUE DUP1 ISZERO PUSH2 0x10 JUMPI PUSH1 0x0 DUP1 REVERT JUMPDEST POP PUSH2 0x1C7 DUP1 PUSH2 0x20 PUSH1 0x0 CODECOPY PUSH1 0x0 RETURN INVALID PUSH1 0x80 PUSH1 0x40 MSTORE CALLVALUE DUP1 ISZERO PUSH2 0x10 JUMPI PUSH1 0x0 DUP1 REVERT JUMPDEST POP PUSH1 0x4 CALLDATASIZE LT PUSH2 0x41 JUMPI PUSH1 0x0 CALLDATALOAD PUSH1 0xE0 SHR DUP1 PUSH4 0x343A6F93 EQ PUSH2 0x46 JUMPI DUP1 PUSH4 0x3DECE511 EQ PUSH2 0x66 JUMPI DUP1 PUSH4 0xF550211D EQ PUSH2 0x85 JUMPI JUMPDEST PUSH1 0x0 DUP1 REVERT JUMPDEST PUSH2 0x4E PUSH2 0xA4 JUMP JUMPDEST PUSH1 0x40 MLOAD PUSH2 0x5D SWAP4 SWAP3 SWAP2 SWAP1 PUSH2 0x144 JUMP JUMPDEST PUSH1 0x40 MLOAD DUP1 SWAP2 SUB SWAP1 RETURN JUMPDEST PUSH2 0x6E PUSH2 0xDB JUMP JUMPDEST PUSH1 0x40 MLOAD PUSH2 0x7C SWAP3 SWAP2 SWAP1 PUSH2 0x11B JUMP JUMPDEST PUSH1 0x40 MLOAD DUP1 SWAP2 SUB SWAP1 RETURN JUMPDEST PUSH2 0x8D PUSH2 0xEE JUMP JUMPDEST PUSH1 0x40 MLOAD PUSH2 0x9B SWAP3 SWAP2 SWAP1 PUSH2 0x11B JUMP JUMPDEST PUSH1 0x40 MLOAD DUP1 SWAP2 SUB SWAP1 RETURN JUMPDEST PUSH1 0x0 DUP1 PUSH1 0x0 DUP1 PUSH1 0x0 DUP1 PUSH2 0xB5 PUSH2 0xEE JUMP JUMPDEST DUP1 SWAP4 POP DUP2 SWAP5 POP POP POP PUSH2 0xC5 PUSH2 0xEE JUMP JUMPDEST POP DUP1 SWAP2 POP POP DUP3 DUP3 DUP3 SWAP6 POP SWAP6 POP SWAP6 POP POP POP POP SWAP1 SWAP2 SWAP3 JUMP JUMPDEST PUSH1 0x0 DUP1 PUSH1 0x1 SWAP2 POP PUSH1 0x1 SWAP1 POP PUSH1 0x2 SWAP2 POP SWAP1 SWAP2 JUMP JUMPDEST PUSH1 0x0 DUP1 PUSH1 0x64 PUSH1 0x1 SWAP2 POP SWAP2 POP SWAP1 SWAP2 JUMP JUMPDEST PUSH2 0x106 DUP2 PUSH2 0x17B JUMP JUMPDEST DUP3 MSTORE POP POP JUMP JUMPDEST PUSH2 0x115 DUP2 PUSH2 0x187 JUMP JUMPDEST DUP3 MSTORE POP POP JUMP JUMPDEST PUSH1 0x0 PUSH1 0x40 DUP3 ADD SWAP1 POP PUSH2 0x130 PUSH1 0x0 DUP4 ADD DUP6 PUSH2 0x10C JUMP JUMPDEST PUSH2 0x13D PUSH1 0x20 DUP4 ADD DUP5 PUSH2 0xFD JUMP JUMPDEST SWAP4 SWAP3 POP POP POP JUMP JUMPDEST PUSH1 0x0 PUSH1 0x60 DUP3 ADD SWAP1 POP PUSH2 0x159 PUSH1 0x0 DUP4 ADD DUP7 PUSH2 0x10C JUMP JUMPDEST PUSH2 0x166 PUSH1 0x20 DUP4 ADD DUP6 PUSH2 0xFD JUMP JUMPDEST PUSH2 0x173 PUSH1 0x40 DUP4 ADD DUP5 PUSH2 0x10C JUMP JUMPDEST SWAP5 SWAP4 POP POP POP POP JUMP JUMPDEST PUSH1 0x0 DUP2 ISZERO ISZERO SWAP1 POP SWAP2 SWAP1 POP JUMP JUMPDEST PUSH1 0x0 DUP2 SWAP1 POP SWAP2 SWAP1 POP JUMP INVALID LOG2 PUSH5 0x6970667358 0x22 SLT KECCAK256 SWAP3 0xE8 SDIV 0xBF 0x2B PUSH12 0xB9CF2595B602A12B3CBA3051 0xF6 EXTCODESIZE 0xD2 DUP5 ADD 0xE1 KECCAK256 MSTORE 0xFC LOG4 0xC9 0x25 PUSH31 0xF364736F6C6343000807003300000000000000000000000000000000000000 "
		},
		"gasEstimates": {
			"creation": {
				"codeDepositCost": "91000",
				"executionCost": "141",
				"totalCost": "91141"
			},
			"external": {
				"destructuringAssignment()": "infinite",
				"returnMenu()": "479",
				"returnNamed()": "465"
			}
		},
		"methodIdentifiers": {
			"destructuringAssignment()": "343a6f93",
			"returnMenu()": "f550211d",
			"returnNamed()": "3dece511"
		}
	},
	"abi": [
		{
			"inputs": [],
			"name": "destructuringAssignment",
			"outputs": [
				{
					"internalType": "uint256",
					"name": "",
					"type": "uint256"
				},
				{
					"internalType": "bool",
					"name": "",
					"type": "bool"
				},
				{
					"internalType": "uint256",
					"name": "",
					"type": "uint256"
				}
			],
			"stateMutability": "pure",
			"type": "function"
		},
		{
			"inputs": [],
			"name": "returnMenu",
			"outputs": [
				{
					"internalType": "uint256",
					"name": "",
					"type": "uint256"
				},
				{
					"internalType": "bool",
					"name": "",
					"type": "bool"
				}
			],
			"stateMutability": "pure",
			"type": "function"
		},
		{
			"inputs": [],
			"name": "returnNamed",
			"outputs": [
				{
					"internalType": "uint256",
					"name": "x",
					"type": "uint256"
				},
				{
					"internalType": "bool",
					"name": "b",
					"type": "bool"
				}
			],
			"stateMutability": "pure",
			"type": "function"
		}
	]
}