{
	"data": {
		"bytecode": {
			"linkReferences": {},
			"object": "608060405260016000556001805560016002556000600360006101000a81548160ff02191690831515021790555034801561003957600080fd5b5061059b806100496000396000f3fe608060405234801561001057600080fd5b50600436106100885760003560e01c8063603625141161005b57806360362514146100ef5780638381f58a146100f957806390c5244314610117578063b79877ea1461013557610088565b806306661abd1461008d57806321b13c48146100ab5780635035df81146100c75780635c975abb146100d1575b600080fd5b610095610151565b6040516100a291906103d6565b60405180910390f35b6100c560048036038101906100c091906102ea565b610157565b005b6100cf6101b9565b005b6100d9610207565b6040516100e6919061037b565b60405180910390f35b6100f761021a565b005b61010161027a565b60405161010e91906103d6565b60405180910390f35b61011f610280565b60405161012c91906103d6565b60405180910390f35b61014f600480360381019061014a91906102ea565b610286565b005b60025481565b80606481111561019c576040517f08c379a000000000000000000000000000000000000000000000000000000000815260040161019390610396565b60405180910390fd5b81600160008282546101ae9190610402565b925050819055505050565b6000805414156101fe576040517f08c379a00000000000000000000000000000000000000000000000000000000081526004016101f5906103b6565b60405180910390fd5b60008081905550565b600360009054906101000a900460ff1681565b60008054141561025f576040517f08c379a0000000000000000000000000000000000000000000000000000000008152600401610256906103b6565b60405180910390fd5b60026000808282546102719190610458565b92505081905550565b60005481565b60015481565b6001600260008282546102999190610402565b9250508190555080600260008282546102b29190610402565b9250508190555060028060008282546102cb9190610458565b9250508190555050565b6000813590506102e48161054e565b92915050565b600060208284031215610300576102ff6104f7565b5b600061030e848285016102d5565b91505092915050565b610320816104b2565b82525050565b60006103336016836103f1565b915061033e826104fc565b602082019050919050565b60006103566017836103f1565b915061036182610525565b602082019050919050565b610375816104be565b82525050565b60006020820190506103906000830184610317565b92915050565b600060208201905081810360008301526103af81610326565b9050919050565b600060208201905081810360008301526103cf81610349565b9050919050565b60006020820190506103eb600083018461036c565b92915050565b600082825260208201905092915050565b600061040d826104be565b9150610418836104be565b9250827fffffffffffffffffffffffffffffffffffffffffffffffffffffffffffffffff0382111561044d5761044c6104c8565b5b828201905092915050565b6000610463826104be565b915061046e836104be565b9250817fffffffffffffffffffffffffffffffffffffffffffffffffffffffffffffffff04831182151516156104a7576104a66104c8565b5b828202905092915050565b60008115159050919050565b6000819050919050565b7f4e487b7100000000000000000000000000000000000000000000000000000000600052601160045260246000fd5b600080fd5b7f63616e206e6f74206d6f7265207468616e203130302100000000000000000000600082015250565b7f6e756d626572206d757374206e6f74206265207a65726f000000000000000000600082015250565b610557816104be565b811461056257600080fd5b5056fea2646970667358221220ab162a4ec1439363e397fb8d88d0d6a17abd790848cc72aaf1fa7abbb71604d064736f6c63430008070033",
			"opcodes": "PUSH1 0x80 PUSH1 0x40 MSTORE PUSH1 0x1 PUSH1 0x0 SSTORE PUSH1 0x1 DUP1 SSTORE PUSH1 0x1 PUSH1 0x2 SSTORE PUSH1 0x0 PUSH1 0x3 PUSH1 0x0 PUSH2 0x100 EXP DUP2 SLOAD DUP2 PUSH1 0xFF MUL NOT AND SWAP1 DUP4 ISZERO ISZERO MUL OR SWAP1 SSTORE POP CALLVALUE DUP1 ISZERO PUSH2 0x39 JUMPI PUSH1 0x0 DUP1 REVERT JUMPDEST POP PUSH2 0x59B DUP1 PUSH2 0x49 PUSH1 0x0 CODECOPY PUSH1 0x0 RETURN INVALID PUSH1 0x80 PUSH1 0x40 MSTORE CALLVALUE DUP1 ISZERO PUSH2 0x10 JUMPI PUSH1 0x0 DUP1 REVERT JUMPDEST POP PUSH1 0x4 CALLDATASIZE LT PUSH2 0x88 JUMPI PUSH1 0x0 CALLDATALOAD PUSH1 0xE0 SHR DUP1 PUSH4 0x60362514 GT PUSH2 0x5B JUMPI DUP1 PUSH4 0x60362514 EQ PUSH2 0xEF JUMPI DUP1 PUSH4 0x8381F58A EQ PUSH2 0xF9 JUMPI DUP1 PUSH4 0x90C52443 EQ PUSH2 0x117 JUMPI DUP1 PUSH4 0xB79877EA EQ PUSH2 0x135 JUMPI PUSH2 0x88 JUMP JUMPDEST DUP1 PUSH4 0x6661ABD EQ PUSH2 0x8D JUMPI DUP1 PUSH4 0x21B13C48 EQ PUSH2 0xAB JUMPI DUP1 PUSH4 0x5035DF81 EQ PUSH2 0xC7 JUMPI DUP1 PUSH4 0x5C975ABB EQ PUSH2 0xD1 JUMPI JUMPDEST PUSH1 0x0 DUP1 REVERT JUMPDEST PUSH2 0x95 PUSH2 0x151 JUMP JUMPDEST PUSH1 0x40 MLOAD PUSH2 0xA2 SWAP2 SWAP1 PUSH2 0x3D6 JUMP JUMPDEST PUSH1 0x40 MLOAD DUP1 SWAP2 SUB SWAP1 RETURN JUMPDEST PUSH2 0xC5 PUSH1 0x4 DUP1 CALLDATASIZE SUB DUP2 ADD SWAP1 PUSH2 0xC0 SWAP2 SWAP1 PUSH2 0x2EA JUMP JUMPDEST PUSH2 0x157 JUMP JUMPDEST STOP JUMPDEST PUSH2 0xCF PUSH2 0x1B9 JUMP JUMPDEST STOP JUMPDEST PUSH2 0xD9 PUSH2 0x207 JUMP JUMPDEST PUSH1 0x40 MLOAD PUSH2 0xE6 SWAP2 SWAP1 PUSH2 0x37B JUMP JUMPDEST PUSH1 0x40 MLOAD DUP1 SWAP2 SUB SWAP1 RETURN JUMPDEST PUSH2 0xF7 PUSH2 0x21A JUMP JUMPDEST STOP JUMPDEST PUSH2 0x101 PUSH2 0x27A JUMP JUMPDEST PUSH1 0x40 MLOAD PUSH2 0x10E SWAP2 SWAP1 PUSH2 0x3D6 JUMP JUMPDEST PUSH1 0x40 MLOAD DUP1 SWAP2 SUB SWAP1 RETURN JUMPDEST PUSH2 0x11F PUSH2 0x280 JUMP JUMPDEST PUSH1 0x40 MLOAD PUSH2 0x12C SWAP2 SWAP1 PUSH2 0x3D6 JUMP JUMPDEST PUSH1 0x40 MLOAD DUP1 SWAP2 SUB SWAP1 RETURN JUMPDEST PUSH2 0x14F PUSH1 0x4 DUP1 CALLDATASIZE SUB DUP2 ADD SWAP1 PUSH2 0x14A SWAP2 SWAP1 PUSH2 0x2EA JUMP JUMPDEST PUSH2 0x286 JUMP JUMPDEST STOP JUMPDEST PUSH1 0x2 SLOAD DUP2 JUMP JUMPDEST DUP1 PUSH1 0x64 DUP2 GT ISZERO PUSH2 0x19C JUMPI PUSH1 0x40 MLOAD PUSH32 0x8C379A000000000000000000000000000000000000000000000000000000000 DUP2 MSTORE PUSH1 0x4 ADD PUSH2 0x193 SWAP1 PUSH2 0x396 JUMP JUMPDEST PUSH1 0x40 MLOAD DUP1 SWAP2 SUB SWAP1 REVERT JUMPDEST DUP2 PUSH1 0x1 PUSH1 0x0 DUP3 DUP3 SLOAD PUSH2 0x1AE SWAP2 SWAP1 PUSH2 0x402 JUMP JUMPDEST SWAP3 POP POP DUP2 SWAP1 SSTORE POP POP POP JUMP JUMPDEST PUSH1 0x0 DUP1 SLOAD EQ ISZERO PUSH2 0x1FE JUMPI PUSH1 0x40 MLOAD PUSH32 0x8C379A000000000000000000000000000000000000000000000000000000000 DUP2 MSTORE PUSH1 0x4 ADD PUSH2 0x1F5 SWAP1 PUSH2 0x3B6 JUMP JUMPDEST PUSH1 0x40 MLOAD DUP1 SWAP2 SUB SWAP1 REVERT JUMPDEST PUSH1 0x0 DUP1 DUP2 SWAP1 SSTORE POP JUMP JUMPDEST PUSH1 0x3 PUSH1 0x0 SWAP1 SLOAD SWAP1 PUSH2 0x100 EXP SWAP1 DIV PUSH1 0xFF AND DUP2 JUMP JUMPDEST PUSH1 0x0 DUP1 SLOAD EQ ISZERO PUSH2 0x25F JUMPI PUSH1 0x40 MLOAD PUSH32 0x8C379A000000000000000000000000000000000000000000000000000000000 DUP2 MSTORE PUSH1 0x4 ADD PUSH2 0x256 SWAP1 PUSH2 0x3B6 JUMP JUMPDEST PUSH1 0x40 MLOAD DUP1 SWAP2 SUB SWAP1 REVERT JUMPDEST PUSH1 0x2 PUSH1 0x0 DUP1 DUP3 DUP3 SLOAD PUSH2 0x271 SWAP2 SWAP1 PUSH2 0x458 JUMP JUMPDEST SWAP3 POP POP DUP2 SWAP1 SSTORE POP JUMP JUMPDEST PUSH1 0x0 SLOAD DUP2 JUMP JUMPDEST PUSH1 0x1 SLOAD DUP2 JUMP JUMPDEST PUSH1 0x1 PUSH1 0x2 PUSH1 0x0 DUP3 DUP3 SLOAD PUSH2 0x299 SWAP2 SWAP1 PUSH2 0x402 JUMP JUMPDEST SWAP3 POP POP DUP2 SWAP1 SSTORE POP DUP1 PUSH1 0x2 PUSH1 0x0 DUP3 DUP3 SLOAD PUSH2 0x2B2 SWAP2 SWAP1 PUSH2 0x402 JUMP JUMPDEST SWAP3 POP POP DUP2 SWAP1 SSTORE POP PUSH1 0x2 DUP1 PUSH1 0x0 DUP3 DUP3 SLOAD PUSH2 0x2CB SWAP2 SWAP1 PUSH2 0x458 JUMP JUMPDEST SWAP3 POP POP DUP2 SWAP1 SSTORE POP POP JUMP JUMPDEST PUSH1 0x0 DUP2 CALLDATALOAD SWAP1 POP PUSH2 0x2E4 DUP2 PUSH2 0x54E JUMP JUMPDEST SWAP3 SWAP2 POP POP JUMP JUMPDEST PUSH1 0x0 PUSH1 0x20 DUP3 DUP5 SUB SLT ISZERO PUSH2 0x300 JUMPI PUSH2 0x2FF PUSH2 0x4F7 JUMP JUMPDEST JUMPDEST PUSH1 0x0 PUSH2 0x30E DUP5 DUP3 DUP6 ADD PUSH2 0x2D5 JUMP JUMPDEST SWAP2 POP POP SWAP3 SWAP2 POP POP JUMP JUMPDEST PUSH2 0x320 DUP2 PUSH2 0x4B2 JUMP JUMPDEST DUP3 MSTORE POP POP JUMP JUMPDEST PUSH1 0x0 PUSH2 0x333 PUSH1 0x16 DUP4 PUSH2 0x3F1 JUMP JUMPDEST SWAP2 POP PUSH2 0x33E DUP3 PUSH2 0x4FC JUMP JUMPDEST PUSH1 0x20 DUP3 ADD SWAP1 POP SWAP2 SWAP1 POP JUMP JUMPDEST PUSH1 0x0 PUSH2 0x356 PUSH1 0x17 DUP4 PUSH2 0x3F1 JUMP JUMPDEST SWAP2 POP PUSH2 0x361 DUP3 PUSH2 0x525 JUMP JUMPDEST PUSH1 0x20 DUP3 ADD SWAP1 POP SWAP2 SWAP1 POP JUMP JUMPDEST PUSH2 0x375 DUP2 PUSH2 0x4BE JUMP JUMPDEST DUP3 MSTORE POP POP JUMP JUMPDEST PUSH1 0x0 PUSH1 0x20 DUP3 ADD SWAP1 POP PUSH2 0x390 PUSH1 0x0 DUP4 ADD DUP5 PUSH2 0x317 JUMP JUMPDEST SWAP3 SWAP2 POP POP JUMP JUMPDEST PUSH1 0x0 PUSH1 0x20 DUP3 ADD SWAP1 POP DUP2 DUP2 SUB PUSH1 0x0 DUP4 ADD MSTORE PUSH2 0x3AF DUP2 PUSH2 0x326 JUMP JUMPDEST SWAP1 POP SWAP2 SWAP1 POP JUMP JUMPDEST PUSH1 0x0 PUSH1 0x20 DUP3 ADD SWAP1 POP DUP2 DUP2 SUB PUSH1 0x0 DUP4 ADD MSTORE PUSH2 0x3CF DUP2 PUSH2 0x349 JUMP JUMPDEST SWAP1 POP SWAP2 SWAP1 POP JUMP JUMPDEST PUSH1 0x0 PUSH1 0x20 DUP3 ADD SWAP1 POP PUSH2 0x3EB PUSH1 0x0 DUP4 ADD DUP5 PUSH2 0x36C JUMP JUMPDEST SWAP3 SWAP2 POP POP JUMP JUMPDEST PUSH1 0x0 DUP3 DUP3 MSTORE PUSH1 0x20 DUP3 ADD SWAP1 POP SWAP3 SWAP2 POP POP JUMP JUMPDEST PUSH1 0x0 PUSH2 0x40D DUP3 PUSH2 0x4BE JUMP JUMPDEST SWAP2 POP PUSH2 0x418 DUP4 PUSH2 0x4BE JUMP JUMPDEST SWAP3 POP DUP3 PUSH32 0xFFFFFFFFFFFFFFFFFFFFFFFFFFFFFFFFFFFFFFFFFFFFFFFFFFFFFFFFFFFFFFFF SUB DUP3 GT ISZERO PUSH2 0x44D JUMPI PUSH2 0x44C PUSH2 0x4C8 JUMP JUMPDEST JUMPDEST DUP3 DUP3 ADD SWAP1 POP SWAP3 SWAP2 POP POP JUMP JUMPDEST PUSH1 0x0 PUSH2 0x463 DUP3 PUSH2 0x4BE JUMP JUMPDEST SWAP2 POP PUSH2 0x46E DUP4 PUSH2 0x4BE JUMP JUMPDEST SWAP3 POP DUP2 PUSH32 0xFFFFFFFFFFFFFFFFFFFFFFFFFFFFFFFFFFFFFFFFFFFFFFFFFFFFFFFFFFFFFFFF DIV DUP4 GT DUP3 ISZERO ISZERO AND ISZERO PUSH2 0x4A7 JUMPI PUSH2 0x4A6 PUSH2 0x4C8 JUMP JUMPDEST JUMPDEST DUP3 DUP3 MUL SWAP1 POP SWAP3 SWAP2 POP POP JUMP JUMPDEST PUSH1 0x0 DUP2 ISZERO ISZERO SWAP1 POP SWAP2 SWAP1 POP JUMP JUMPDEST PUSH1 0x0 DUP2 SWAP1 POP SWAP2 SWAP1 POP JUMP JUMPDEST PUSH32 0x4E487B7100000000000000000000000000000000000000000000000000000000 PUSH1 0x0 MSTORE PUSH1 0x11 PUSH1 0x4 MSTORE PUSH1 0x24 PUSH1 0x0 REVERT JUMPDEST PUSH1 0x0 DUP1 REVERT JUMPDEST PUSH32 0x63616E206E6F74206D6F7265207468616E203130302100000000000000000000 PUSH1 0x0 DUP3 ADD MSTORE POP JUMP JUMPDEST PUSH32 0x6E756D626572206D757374206E6F74206265207A65726F000000000000000000 PUSH1 0x0 DUP3 ADD MSTORE POP JUMP JUMPDEST PUSH2 0x557 DUP2 PUSH2 0x4BE JUMP JUMPDEST DUP2 EQ PUSH2 0x562 JUMPI PUSH1 0x0 DUP1 REVERT JUMPDEST POP JUMP INVALID LOG2 PUSH5 0x6970667358 0x22 SLT KECCAK256 0xAB AND 0x2A 0x4E 0xC1 NUMBER SWAP4 PUSH4 0xE397FB8D DUP9 0xD0 0xD6 LOG1 PUSH27 0xBD790848CC72AAF1FA7ABBB71604D064736F6C6343000807003300 "
		},
		"gasEstimates": {
			"creation": {
				"codeDepositCost": "287000",
				"executionCost": "90909",
				"totalCost": "377909"
			},
			"external": {
				"bySandwich(uint256)": "infinite",
				"count()": "2430",
				"doubleNumber()": "infinite",
				"incr(uint256)": "infinite",
				"number()": "2451",
				"number2()": "2473",
				"paused()": "2538",
				"resetNumber()": "7329"
			}
		},
		"methodIdentifiers": {
			"bySandwich(uint256)": "b79877ea",
			"count()": "06661abd",
			"doubleNumber()": "60362514",
			"incr(uint256)": "21b13c48",
			"number()": "8381f58a",
			"number2()": "90c52443",
			"paused()": "5c975abb",
			"resetNumber()": "5035df81"
		}
	},
	"abi": [
		{
			"inputs": [
				{
					"internalType": "uint256",
					"name": "_x",
					"type": "uint256"
				}
			],
			"name": "bySandwich",
			"outputs": [],
			"stateMutability": "nonpayable",
			"type": "function"
		},
		{
			"inputs": [],
			"name": "count",
			"outputs": [
				{
					"internalType": "uint256",
					"name": "",
					"type": "uint256"
				}
			],
			"stateMutability": "view",
			"type": "function"
		},
		{
			"inputs": [],
			"name": "doubleNumber",
			"outputs": [],
			"stateMutability": "nonpayable",
			"type": "function"
		},
		{
			"inputs": [
				{
					"internalType": "uint256",
					"name": "_x",
					"type": "uint256"
				}
			],
			"name": "incr",
			"outputs": [],
			"stateMutability": "nonpayable",
			"type": "function"
		},
		{
			"inputs": [],
			"name": "number",
			"outputs": [
				{
					"internalType": "uint256",
					"name": "",
					"type": "uint256"
				}
			],
			"stateMutability": "view",
			"type": "function"
		},
		{
			"inputs": [],
			"name": "number2",
			"outputs": [
				{
					"internalType": "uint256",
					"name": "",
					"type": "uint256"
				}
			],
			"stateMutability": "view",
			"type": "function"
		},
		{
			"inputs": [],
			"name": "paused",
			"outputs": [
				{
					"internalType": "bool",
					"name": "",
					"type": "bool"
				}
			],
			"stateMutability": "view",
			"type": "function"
		},
		{
			"inputs": [],
			"name": "resetNumber",
			"outputs": [],
			"stateMutability": "nonpayable",
			"type": "function"
		}
	]
}