{
	"data": {
		"bytecode": {
			"linkReferences": {},
			"object": "6080604052348015600e575f80fd5b5061016b8061001c5f395ff3fe608060405234801561000f575f80fd5b5060043610610029575f3560e01c8063107ae2791461002d575b5f80fd5b610035610037565b005b7fb32176d17075eed8b3928b6074acca3be6f7932af328157d97cdb73ba7b2b025336040516100669190610109565b60405180910390a1565b5f73ffffffffffffffffffffffffffffffffffffffff82169050919050565b5f61009982610070565b9050919050565b6100a98161008f565b82525050565b5f82825260208201905092915050565b7f6576656e7420656d6974746564000000000000000000000000000000000000005f82015250565b5f6100f3600d836100af565b91506100fe826100bf565b602082019050919050565b5f60408201905061011c5f8301846100a0565b818103602083015261012d816100e7565b90509291505056fea2646970667358221220ab5e6425caf2cdc2c76380ff081639e86ed79b3a2501380ce941a059e41c468364736f6c634300081a0033",
			"opcodes": "PUSH1 0x80 PUSH1 0x40 MSTORE CALLVALUE DUP1 ISZERO PUSH1 0xE JUMPI PUSH0 DUP1 REVERT JUMPDEST POP PUSH2 0x16B DUP1 PUSH2 0x1C PUSH0 CODECOPY PUSH0 RETURN INVALID PUSH1 0x80 PUSH1 0x40 MSTORE CALLVALUE DUP1 ISZERO PUSH2 0xF JUMPI PUSH0 DUP1 REVERT JUMPDEST POP PUSH1 0x4 CALLDATASIZE LT PUSH2 0x29 JUMPI PUSH0 CALLDATALOAD PUSH1 0xE0 SHR DUP1 PUSH4 0x107AE279 EQ PUSH2 0x2D JUMPI JUMPDEST PUSH0 DUP1 REVERT JUMPDEST PUSH2 0x35 PUSH2 0x37 JUMP JUMPDEST STOP JUMPDEST PUSH32 0xB32176D17075EED8B3928B6074ACCA3BE6F7932AF328157D97CDB73BA7B2B025 CALLER PUSH1 0x40 MLOAD PUSH2 0x66 SWAP2 SWAP1 PUSH2 0x109 JUMP JUMPDEST PUSH1 0x40 MLOAD DUP1 SWAP2 SUB SWAP1 LOG1 JUMP JUMPDEST PUSH0 PUSH20 0xFFFFFFFFFFFFFFFFFFFFFFFFFFFFFFFFFFFFFFFF DUP3 AND SWAP1 POP SWAP2 SWAP1 POP JUMP JUMPDEST PUSH0 PUSH2 0x99 DUP3 PUSH2 0x70 JUMP JUMPDEST SWAP1 POP SWAP2 SWAP1 POP JUMP JUMPDEST PUSH2 0xA9 DUP2 PUSH2 0x8F JUMP JUMPDEST DUP3 MSTORE POP POP JUMP JUMPDEST PUSH0 DUP3 DUP3 MSTORE PUSH1 0x20 DUP3 ADD SWAP1 POP SWAP3 SWAP2 POP POP JUMP JUMPDEST PUSH32 0x6576656E7420656D697474656400000000000000000000000000000000000000 PUSH0 DUP3 ADD MSTORE POP JUMP JUMPDEST PUSH0 PUSH2 0xF3 PUSH1 0xD DUP4 PUSH2 0xAF JUMP JUMPDEST SWAP2 POP PUSH2 0xFE DUP3 PUSH2 0xBF JUMP JUMPDEST PUSH1 0x20 DUP3 ADD SWAP1 POP SWAP2 SWAP1 POP JUMP JUMPDEST PUSH0 PUSH1 0x40 DUP3 ADD SWAP1 POP PUSH2 0x11C PUSH0 DUP4 ADD DUP5 PUSH2 0xA0 JUMP JUMPDEST DUP2 DUP2 SUB PUSH1 0x20 DUP4 ADD MSTORE PUSH2 0x12D DUP2 PUSH2 0xE7 JUMP JUMPDEST SWAP1 POP SWAP3 SWAP2 POP POP JUMP INVALID LOG2 PUSH5 0x6970667358 0x22 SLT KECCAK256 0xAB MCOPY PUSH5 0x25CAF2CDC2 0xC7 PUSH4 0x80FF0816 CODECOPY 0xE8 PUSH15 0xD79B3A2501380CE941A059E41C4683 PUSH5 0x736F6C6343 STOP ADDMOD BYTE STOP CALLER "
		},
		"gasEstimates": {
			"creation": {
				"codeDepositCost": "72600",
				"executionCost": "121",
				"totalCost": "72721"
			},
			"external": {
				"emitMsg()": "2323"
			}
		},
		"methodIdentifiers": {
			"emitMsg()": "107ae279"
		}
	},
	"abi": [
		{
			"anonymous": false,
			"inputs": [
				{
					"indexed": false,
					"internalType": "address",
					"name": "sender",
					"type": "address"
				},
				{
					"indexed": false,
					"internalType": "string",
					"name": "msg",
					"type": "string"
				}
			],
			"name": "MyEvent",
			"type": "event"
		},
		{
			"inputs": [],
			"name": "emitMsg",
			"outputs": [],
			"stateMutability": "nonpayable",
			"type": "function"
		}
	]
}