{
	"contract/MyOwnable.sol": {
		"MyOwner": {
			"abi": [
				{
					"inputs": [],
					"stateMutability": "nonpayable",
					"type": "constructor"
				},
				{
					"inputs": [],
					"name": "anyOneCall",
					"outputs": [],
					"stateMutability": "nonpayable",
					"type": "function"
				},
				{
					"inputs": [],
					"name": "count",
					"outputs": [
						{
							"internalType": "uint256",
							"name": "",
							"type": "uint256"
						}
					],
					"stateMutability": "view",
					"type": "function"
				},
				{
					"inputs": [],
					"name": "owner",
					"outputs": [
						{
							"internalType": "address",
							"name": "",
							"type": "address"
						}
					],
					"stateMutability": "view",
					"type": "function"
				},
				{
					"inputs": [],
					"name": "resetCount",
					"outputs": [],
					"stateMutability": "nonpayable",
					"type": "function"
				},
				{
					"inputs": [
						{
							"internalType": "address",
							"name": "_addr",
							"type": "address"
						}
					],
					"name": "setOwner",
					"outputs": [],
					"stateMutability": "nonpayable",
					"type": "function"
				},
				{
					"inputs": [
						{
							"internalType": "address",
							"name": "_addr",
							"type": "address"
						}
					],
					"name": "transferOwnership",
					"outputs": [],
					"stateMutability": "nonpayable",
					"type": "function"
				}
			],
			"devdoc": {
				"kind": "dev",
				"methods": {},
				"version": 1
			},
			"evm": {
				"assembly": "    /* \"contract/MyOwnable.sol\":61:869  contract MyOwner {... */\n  mstore(0x40, 0x80)\n    /* \"contract/MyOwnable.sol\":137:226  constructor() {... */\n  callvalue\n  dup1\n  iszero\n  tag_1\n  jumpi\n  0x00\n  dup1\n  revert\ntag_1:\n  pop\n    /* \"contract/MyOwnable.sol\":169:179  msg.sender */\n  caller\n    /* \"contract/MyOwnable.sol\":161:166  owner */\n  0x00\n  dup1\n    /* \"contract/MyOwnable.sol\":161:179  owner = msg.sender */\n  0x0100\n  exp\n  dup2\n  sload\n  dup2\n  0xffffffffffffffffffffffffffffffffffffffff\n  mul\n  not\n  and\n  swap1\n  dup4\n  0xffffffffffffffffffffffffffffffffffffffff\n  and\n  mul\n  or\n  swap1\n  sstore\n  pop\n    /* \"contract/MyOwnable.sol\":61:869  contract MyOwner {... */\n  dataSize(sub_0)\n  dup1\n  dataOffset(sub_0)\n  0x00\n  codecopy\n  0x00\n  return\nstop\n\nsub_0: assembly {\n        /* \"contract/MyOwnable.sol\":61:869  contract MyOwner {... */\n      mstore(0x40, 0x80)\n      callvalue\n      dup1\n      iszero\n      tag_1\n      jumpi\n      0x00\n      dup1\n      revert\n    tag_1:\n      pop\n      jumpi(tag_2, lt(calldatasize, 0x04))\n      shr(0xe0, calldataload(0x00))\n      dup1\n      0x06661abd\n      eq\n      tag_3\n      jumpi\n      dup1\n      0x13af4035\n      eq\n      tag_4\n      jumpi\n      dup1\n      0x8da5cb5b\n      eq\n      tag_5\n      jumpi\n      dup1\n      0xb39cdb26\n      eq\n      tag_6\n      jumpi\n      dup1\n      0xf2fde38b\n      eq\n      tag_7\n      jumpi\n      dup1\n      0xfd895292\n      eq\n      tag_8\n      jumpi\n    tag_2:\n      0x00\n      dup1\n      revert\n        /* \"contract/MyOwnable.sol\":110:130  uint256 public count */\n    tag_3:\n      tag_9\n      tag_10\n      jump\t// in\n    tag_9:\n      mload(0x40)\n      tag_11\n      swap2\n      swap1\n      tag_12\n      jump\t// in\n    tag_11:\n      mload(0x40)\n      dup1\n      swap2\n      sub\n      swap1\n      return\n        /* \"contract/MyOwnable.sol\":356:509  function setOwner(address _addr) external onlyOwner(_addr) {... */\n    tag_4:\n      tag_13\n      0x04\n      dup1\n      calldatasize\n      sub\n      dup2\n      add\n      swap1\n      tag_14\n      swap2\n      swap1\n      tag_15\n      jump\t// in\n    tag_14:\n      tag_16\n      jump\t// in\n    tag_13:\n      stop\n        /* \"contract/MyOwnable.sol\":84:104  address public owner */\n    tag_5:\n      tag_17\n      tag_18\n      jump\t// in\n    tag_17:\n      mload(0x40)\n      tag_19\n      swap2\n      swap1\n      tag_20\n      jump\t// in\n    tag_19:\n      mload(0x40)\n      dup1\n      swap2\n      sub\n      swap1\n      return\n        /* \"contract/MyOwnable.sol\":683:741  function anyOneCall() external {... */\n    tag_6:\n      tag_21\n      tag_22\n      jump\t// in\n    tag_21:\n      stop\n        /* \"contract/MyOwnable.sol\":515:677  function transferOwnership(address _addr) external onlyOwner(_addr) {... */\n    tag_7:\n      tag_23\n      0x04\n      dup1\n      calldatasize\n      sub\n      dup2\n      add\n      swap1\n      tag_24\n      swap2\n      swap1\n      tag_15\n      jump\t// in\n    tag_24:\n      tag_25\n      jump\t// in\n    tag_23:\n      stop\n        /* \"contract/MyOwnable.sol\":747:867  function resetCount() external {... */\n    tag_8:\n      tag_26\n      tag_27\n      jump\t// in\n    tag_26:\n      stop\n        /* \"contract/MyOwnable.sol\":110:130  uint256 public count */\n    tag_10:\n      sload(0x01)\n      dup2\n      jump\t// out\n        /* \"contract/MyOwnable.sol\":356:509  function setOwner(address _addr) external onlyOwner(_addr) {... */\n    tag_16:\n        /* \"contract/MyOwnable.sol\":408:413  _addr */\n      dup1\n        /* \"contract/MyOwnable.sol\":297:302  owner */\n      0x00\n      dup1\n      sload\n      swap1\n      0x0100\n      exp\n      swap1\n      div\n      0xffffffffffffffffffffffffffffffffffffffff\n      and\n        /* \"contract/MyOwnable.sol\":283:302  msg.sender == owner */\n      0xffffffffffffffffffffffffffffffffffffffff\n      and\n        /* \"contract/MyOwnable.sol\":283:293  msg.sender */\n      caller\n        /* \"contract/MyOwnable.sol\":283:302  msg.sender == owner */\n      0xffffffffffffffffffffffffffffffffffffffff\n      and\n      eq\n        /* \"contract/MyOwnable.sol\":275:332  require(msg.sender == owner, \"You do not have authority\") */\n      tag_29\n      jumpi\n      mload(0x40)\n      0x08c379a000000000000000000000000000000000000000000000000000000000\n      dup2\n      mstore\n      0x04\n      add\n      tag_30\n      swap1\n      tag_31\n      jump\t// in\n    tag_30:\n      mload(0x40)\n      dup1\n      swap2\n      sub\n      swap1\n      revert\n    tag_29:\n        /* \"contract/MyOwnable.sol\":450:451  0 */\n      0x00\n        /* \"contract/MyOwnable.sol\":433:452  _addr != address(0) */\n      0xffffffffffffffffffffffffffffffffffffffff\n      and\n        /* \"contract/MyOwnable.sol\":433:438  _addr */\n      dup3\n        /* \"contract/MyOwnable.sol\":433:452  _addr != address(0) */\n      0xffffffffffffffffffffffffffffffffffffffff\n      and\n      eq\n      iszero\n        /* \"contract/MyOwnable.sol\":425:479  require(_addr != address(0), \"Address cannot be null\") */\n      tag_33\n      jumpi\n      mload(0x40)\n      0x08c379a000000000000000000000000000000000000000000000000000000000\n      dup2\n      mstore\n      0x04\n      add\n      tag_34\n      swap1\n      tag_35\n      jump\t// in\n    tag_34:\n      mload(0x40)\n      dup1\n      swap2\n      sub\n      swap1\n      revert\n    tag_33:\n        /* \"contract/MyOwnable.sol\":497:502  _addr */\n      dup2\n        /* \"contract/MyOwnable.sol\":489:494  owner */\n      0x00\n      dup1\n        /* \"contract/MyOwnable.sol\":489:502  owner = _addr */\n      0x0100\n      exp\n      dup2\n      sload\n      dup2\n      0xffffffffffffffffffffffffffffffffffffffff\n      mul\n      not\n      and\n      swap1\n      dup4\n      0xffffffffffffffffffffffffffffffffffffffff\n      and\n      mul\n      or\n      swap1\n      sstore\n      pop\n        /* \"contract/MyOwnable.sol\":356:509  function setOwner(address _addr) external onlyOwner(_addr) {... */\n      pop\n      pop\n      jump\t// out\n        /* \"contract/MyOwnable.sol\":84:104  address public owner */\n    tag_18:\n      0x00\n      dup1\n      sload\n      swap1\n      0x0100\n      exp\n      swap1\n      div\n      0xffffffffffffffffffffffffffffffffffffffff\n      and\n      dup2\n      jump\t// out\n        /* \"contract/MyOwnable.sol\":683:741  function anyOneCall() external {... */\n    tag_22:\n        /* \"contract/MyOwnable.sol\":733:734  1 */\n      0x01\n        /* \"contract/MyOwnable.sol\":724:729  count */\n      dup1\n      0x00\n        /* \"contract/MyOwnable.sol\":724:734  count += 1 */\n      dup3\n      dup3\n      sload\n      tag_37\n      swap2\n      swap1\n      tag_38\n      jump\t// in\n    tag_37:\n      swap3\n      pop\n      pop\n      dup2\n      swap1\n      sstore\n      pop\n        /* \"contract/MyOwnable.sol\":683:741  function anyOneCall() external {... */\n      jump\t// out\n        /* \"contract/MyOwnable.sol\":515:677  function transferOwnership(address _addr) external onlyOwner(_addr) {... */\n    tag_25:\n        /* \"contract/MyOwnable.sol\":576:581  _addr */\n      dup1\n        /* \"contract/MyOwnable.sol\":297:302  owner */\n      0x00\n      dup1\n      sload\n      swap1\n      0x0100\n      exp\n      swap1\n      div\n      0xffffffffffffffffffffffffffffffffffffffff\n      and\n        /* \"contract/MyOwnable.sol\":283:302  msg.sender == owner */\n      0xffffffffffffffffffffffffffffffffffffffff\n      and\n        /* \"contract/MyOwnable.sol\":283:293  msg.sender */\n      caller\n        /* \"contract/MyOwnable.sol\":283:302  msg.sender == owner */\n      0xffffffffffffffffffffffffffffffffffffffff\n      and\n      eq\n        /* \"contract/MyOwnable.sol\":275:332  require(msg.sender == owner, \"You do not have authority\") */\n      tag_40\n      jumpi\n      mload(0x40)\n      0x08c379a000000000000000000000000000000000000000000000000000000000\n      dup2\n      mstore\n      0x04\n      add\n      tag_41\n      swap1\n      tag_31\n      jump\t// in\n    tag_41:\n      mload(0x40)\n      dup1\n      swap2\n      sub\n      swap1\n      revert\n    tag_40:\n        /* \"contract/MyOwnable.sol\":618:619  0 */\n      0x00\n        /* \"contract/MyOwnable.sol\":601:620  _addr != address(0) */\n      0xffffffffffffffffffffffffffffffffffffffff\n      and\n        /* \"contract/MyOwnable.sol\":601:606  _addr */\n      dup3\n        /* \"contract/MyOwnable.sol\":601:620  _addr != address(0) */\n      0xffffffffffffffffffffffffffffffffffffffff\n      and\n      eq\n      iszero\n        /* \"contract/MyOwnable.sol\":593:647  require(_addr != address(0), \"Address cannot be null\") */\n      tag_43\n      jumpi\n      mload(0x40)\n      0x08c379a000000000000000000000000000000000000000000000000000000000\n      dup2\n      mstore\n      0x04\n      add\n      tag_44\n      swap1\n      tag_35\n      jump\t// in\n    tag_44:\n      mload(0x40)\n      dup1\n      swap2\n      sub\n      swap1\n      revert\n    tag_43:\n        /* \"contract/MyOwnable.sol\":665:670  _addr */\n      dup2\n        /* \"contract/MyOwnable.sol\":657:662  owner */\n      0x00\n      dup1\n        /* \"contract/MyOwnable.sol\":657:670  owner = _addr */\n      0x0100\n      exp\n      dup2\n      sload\n      dup2\n      0xffffffffffffffffffffffffffffffffffffffff\n      mul\n      not\n      and\n      swap1\n      dup4\n      0xffffffffffffffffffffffffffffffffffffffff\n      and\n      mul\n      or\n      swap1\n      sstore\n      pop\n        /* \"contract/MyOwnable.sol\":515:677  function transferOwnership(address _addr) external onlyOwner(_addr) {... */\n      pop\n      pop\n      jump\t// out\n        /* \"contract/MyOwnable.sol\":747:867  function resetCount() external {... */\n    tag_27:\n        /* \"contract/MyOwnable.sol\":805:815  msg.sender */\n      caller\n        /* \"contract/MyOwnable.sol\":796:815  owner == msg.sender */\n      0xffffffffffffffffffffffffffffffffffffffff\n      and\n        /* \"contract/MyOwnable.sol\":796:801  owner */\n      0x00\n      dup1\n      sload\n      swap1\n      0x0100\n      exp\n      swap1\n      div\n      0xffffffffffffffffffffffffffffffffffffffff\n      and\n        /* \"contract/MyOwnable.sol\":796:815  owner == msg.sender */\n      0xffffffffffffffffffffffffffffffffffffffff\n      and\n      eq\n        /* \"contract/MyOwnable.sol\":788:841  require(owner == msg.sender, \"Address must be owner\") */\n      tag_46\n      jumpi\n      mload(0x40)\n      0x08c379a000000000000000000000000000000000000000000000000000000000\n      dup2\n      mstore\n      0x04\n      add\n      tag_47\n      swap1\n      tag_48\n      jump\t// in\n    tag_47:\n      mload(0x40)\n      dup1\n      swap2\n      sub\n      swap1\n      revert\n    tag_46:\n        /* \"contract/MyOwnable.sol\":859:860  0 */\n      0x00\n        /* \"contract/MyOwnable.sol\":851:856  count */\n      0x01\n        /* \"contract/MyOwnable.sol\":851:860  count = 0 */\n      dup2\n      swap1\n      sstore\n      pop\n        /* \"contract/MyOwnable.sol\":747:867  function resetCount() external {... */\n      jump\t// out\n        /* \"#utility.yul\":7:146   */\n    tag_50:\n        /* \"#utility.yul\":53:58   */\n      0x00\n        /* \"#utility.yul\":91:97   */\n      dup2\n        /* \"#utility.yul\":78:98   */\n      calldataload\n        /* \"#utility.yul\":69:98   */\n      swap1\n      pop\n        /* \"#utility.yul\":107:140   */\n      tag_52\n        /* \"#utility.yul\":134:139   */\n      dup2\n        /* \"#utility.yul\":107:140   */\n      tag_53\n      jump\t// in\n    tag_52:\n        /* \"#utility.yul\":7:146   */\n      swap3\n      swap2\n      pop\n      pop\n      jump\t// out\n        /* \"#utility.yul\":152:481   */\n    tag_15:\n        /* \"#utility.yul\":211:217   */\n      0x00\n        /* \"#utility.yul\":260:262   */\n      0x20\n        /* \"#utility.yul\":248:257   */\n      dup3\n        /* \"#utility.yul\":239:246   */\n      dup5\n        /* \"#utility.yul\":235:258   */\n      sub\n        /* \"#utility.yul\":231:263   */\n      slt\n        /* \"#utility.yul\":228:347   */\n      iszero\n      tag_55\n      jumpi\n        /* \"#utility.yul\":266:345   */\n      tag_56\n      tag_57\n      jump\t// in\n    tag_56:\n        /* \"#utility.yul\":228:347   */\n    tag_55:\n        /* \"#utility.yul\":386:387   */\n      0x00\n        /* \"#utility.yul\":411:464   */\n      tag_58\n        /* \"#utility.yul\":456:463   */\n      dup5\n        /* \"#utility.yul\":447:453   */\n      dup3\n        /* \"#utility.yul\":436:445   */\n      dup6\n        /* \"#utility.yul\":432:454   */\n      add\n        /* \"#utility.yul\":411:464   */\n      tag_50\n      jump\t// in\n    tag_58:\n        /* \"#utility.yul\":401:464   */\n      swap2\n      pop\n        /* \"#utility.yul\":357:474   */\n      pop\n        /* \"#utility.yul\":152:481   */\n      swap3\n      swap2\n      pop\n      pop\n      jump\t// out\n        /* \"#utility.yul\":487:605   */\n    tag_59:\n        /* \"#utility.yul\":574:598   */\n      tag_61\n        /* \"#utility.yul\":592:597   */\n      dup2\n        /* \"#utility.yul\":574:598   */\n      tag_62\n      jump\t// in\n    tag_61:\n        /* \"#utility.yul\":569:572   */\n      dup3\n        /* \"#utility.yul\":562:599   */\n      mstore\n        /* \"#utility.yul\":487:605   */\n      pop\n      pop\n      jump\t// out\n        /* \"#utility.yul\":611:977   */\n    tag_63:\n        /* \"#utility.yul\":753:756   */\n      0x00\n        /* \"#utility.yul\":774:841   */\n      tag_65\n        /* \"#utility.yul\":838:840   */\n      0x16\n        /* \"#utility.yul\":833:836   */\n      dup4\n        /* \"#utility.yul\":774:841   */\n      tag_66\n      jump\t// in\n    tag_65:\n        /* \"#utility.yul\":767:841   */\n      swap2\n      pop\n        /* \"#utility.yul\":850:943   */\n      tag_67\n        /* \"#utility.yul\":939:942   */\n      dup3\n        /* \"#utility.yul\":850:943   */\n      tag_68\n      jump\t// in\n    tag_67:\n        /* \"#utility.yul\":968:970   */\n      0x20\n        /* \"#utility.yul\":963:966   */\n      dup3\n        /* \"#utility.yul\":959:971   */\n      add\n        /* \"#utility.yul\":952:971   */\n      swap1\n      pop\n        /* \"#utility.yul\":611:977   */\n      swap2\n      swap1\n      pop\n      jump\t// out\n        /* \"#utility.yul\":983:1349   */\n    tag_69:\n        /* \"#utility.yul\":1125:1128   */\n      0x00\n        /* \"#utility.yul\":1146:1213   */\n      tag_71\n        /* \"#utility.yul\":1210:1212   */\n      0x19\n        /* \"#utility.yul\":1205:1208   */\n      dup4\n        /* \"#utility.yul\":1146:1213   */\n      tag_66\n      jump\t// in\n    tag_71:\n        /* \"#utility.yul\":1139:1213   */\n      swap2\n      pop\n        /* \"#utility.yul\":1222:1315   */\n      tag_72\n        /* \"#utility.yul\":1311:1314   */\n      dup3\n        /* \"#utility.yul\":1222:1315   */\n      tag_73\n      jump\t// in\n    tag_72:\n        /* \"#utility.yul\":1340:1342   */\n      0x20\n        /* \"#utility.yul\":1335:1338   */\n      dup3\n        /* \"#utility.yul\":1331:1343   */\n      add\n        /* \"#utility.yul\":1324:1343   */\n      swap1\n      pop\n        /* \"#utility.yul\":983:1349   */\n      swap2\n      swap1\n      pop\n      jump\t// out\n        /* \"#utility.yul\":1355:1721   */\n    tag_74:\n        /* \"#utility.yul\":1497:1500   */\n      0x00\n        /* \"#utility.yul\":1518:1585   */\n      tag_76\n        /* \"#utility.yul\":1582:1584   */\n      0x15\n        /* \"#utility.yul\":1577:1580   */\n      dup4\n        /* \"#utility.yul\":1518:1585   */\n      tag_66\n      jump\t// in\n    tag_76:\n        /* \"#utility.yul\":1511:1585   */\n      swap2\n      pop\n        /* \"#utility.yul\":1594:1687   */\n      tag_77\n        /* \"#utility.yul\":1683:1686   */\n      dup3\n        /* \"#utility.yul\":1594:1687   */\n      tag_78\n      jump\t// in\n    tag_77:\n        /* \"#utility.yul\":1712:1714   */\n      0x20\n        /* \"#utility.yul\":1707:1710   */\n      dup3\n        /* \"#utility.yul\":1703:1715   */\n      add\n        /* \"#utility.yul\":1696:1715   */\n      swap1\n      pop\n        /* \"#utility.yul\":1355:1721   */\n      swap2\n      swap1\n      pop\n      jump\t// out\n        /* \"#utility.yul\":1727:1845   */\n    tag_79:\n        /* \"#utility.yul\":1814:1838   */\n      tag_81\n        /* \"#utility.yul\":1832:1837   */\n      dup2\n        /* \"#utility.yul\":1814:1838   */\n      tag_82\n      jump\t// in\n    tag_81:\n        /* \"#utility.yul\":1809:1812   */\n      dup3\n        /* \"#utility.yul\":1802:1839   */\n      mstore\n        /* \"#utility.yul\":1727:1845   */\n      pop\n      pop\n      jump\t// out\n        /* \"#utility.yul\":1851:2073   */\n    tag_20:\n        /* \"#utility.yul\":1944:1948   */\n      0x00\n        /* \"#utility.yul\":1982:1984   */\n      0x20\n        /* \"#utility.yul\":1971:1980   */\n      dup3\n        /* \"#utility.yul\":1967:1985   */\n      add\n        /* \"#utility.yul\":1959:1985   */\n      swap1\n      pop\n        /* \"#utility.yul\":1995:2066   */\n      tag_84\n        /* \"#utility.yul\":2063:2064   */\n      0x00\n        /* \"#utility.yul\":2052:2061   */\n      dup4\n        /* \"#utility.yul\":2048:2065   */\n      add\n        /* \"#utility.yul\":2039:2045   */\n      dup5\n        /* \"#utility.yul\":1995:2066   */\n      tag_59\n      jump\t// in\n    tag_84:\n        /* \"#utility.yul\":1851:2073   */\n      swap3\n      swap2\n      pop\n      pop\n      jump\t// out\n        /* \"#utility.yul\":2079:2498   */\n    tag_35:\n        /* \"#utility.yul\":2245:2249   */\n      0x00\n        /* \"#utility.yul\":2283:2285   */\n      0x20\n        /* \"#utility.yul\":2272:2281   */\n      dup3\n        /* \"#utility.yul\":2268:2286   */\n      add\n        /* \"#utility.yul\":2260:2286   */\n      swap1\n      pop\n        /* \"#utility.yul\":2332:2341   */\n      dup2\n        /* \"#utility.yul\":2326:2330   */\n      dup2\n        /* \"#utility.yul\":2322:2342   */\n      sub\n        /* \"#utility.yul\":2318:2319   */\n      0x00\n        /* \"#utility.yul\":2307:2316   */\n      dup4\n        /* \"#utility.yul\":2303:2320   */\n      add\n        /* \"#utility.yul\":2296:2343   */\n      mstore\n        /* \"#utility.yul\":2360:2491   */\n      tag_86\n        /* \"#utility.yul\":2486:2490   */\n      dup2\n        /* \"#utility.yul\":2360:2491   */\n      tag_63\n      jump\t// in\n    tag_86:\n        /* \"#utility.yul\":2352:2491   */\n      swap1\n      pop\n        /* \"#utility.yul\":2079:2498   */\n      swap2\n      swap1\n      pop\n      jump\t// out\n        /* \"#utility.yul\":2504:2923   */\n    tag_31:\n        /* \"#utility.yul\":2670:2674   */\n      0x00\n        /* \"#utility.yul\":2708:2710   */\n      0x20\n        /* \"#utility.yul\":2697:2706   */\n      dup3\n        /* \"#utility.yul\":2693:2711   */\n      add\n        /* \"#utility.yul\":2685:2711   */\n      swap1\n      pop\n        /* \"#utility.yul\":2757:2766   */\n      dup2\n        /* \"#utility.yul\":2751:2755   */\n      dup2\n        /* \"#utility.yul\":2747:2767   */\n      sub\n        /* \"#utility.yul\":2743:2744   */\n      0x00\n        /* \"#utility.yul\":2732:2741   */\n      dup4\n        /* \"#utility.yul\":2728:2745   */\n      add\n        /* \"#utility.yul\":2721:2768   */\n      mstore\n        /* \"#utility.yul\":2785:2916   */\n      tag_88\n        /* \"#utility.yul\":2911:2915   */\n      dup2\n        /* \"#utility.yul\":2785:2916   */\n      tag_69\n      jump\t// in\n    tag_88:\n        /* \"#utility.yul\":2777:2916   */\n      swap1\n      pop\n        /* \"#utility.yul\":2504:2923   */\n      swap2\n      swap1\n      pop\n      jump\t// out\n        /* \"#utility.yul\":2929:3348   */\n    tag_48:\n        /* \"#utility.yul\":3095:3099   */\n      0x00\n        /* \"#utility.yul\":3133:3135   */\n      0x20\n        /* \"#utility.yul\":3122:3131   */\n      dup3\n        /* \"#utility.yul\":3118:3136   */\n      add\n        /* \"#utility.yul\":3110:3136   */\n      swap1\n      pop\n        /* \"#utility.yul\":3182:3191   */\n      dup2\n        /* \"#utility.yul\":3176:3180   */\n      dup2\n        /* \"#utility.yul\":3172:3192   */\n      sub\n        /* \"#utility.yul\":3168:3169   */\n      0x00\n        /* \"#utility.yul\":3157:3166   */\n      dup4\n        /* \"#utility.yul\":3153:3170   */\n      add\n        /* \"#utility.yul\":3146:3193   */\n      mstore\n        /* \"#utility.yul\":3210:3341   */\n      tag_90\n        /* \"#utility.yul\":3336:3340   */\n      dup2\n        /* \"#utility.yul\":3210:3341   */\n      tag_74\n      jump\t// in\n    tag_90:\n        /* \"#utility.yul\":3202:3341   */\n      swap1\n      pop\n        /* \"#utility.yul\":2929:3348   */\n      swap2\n      swap1\n      pop\n      jump\t// out\n        /* \"#utility.yul\":3354:3576   */\n    tag_12:\n        /* \"#utility.yul\":3447:3451   */\n      0x00\n        /* \"#utility.yul\":3485:3487   */\n      0x20\n        /* \"#utility.yul\":3474:3483   */\n      dup3\n        /* \"#utility.yul\":3470:3488   */\n      add\n        /* \"#utility.yul\":3462:3488   */\n      swap1\n      pop\n        /* \"#utility.yul\":3498:3569   */\n      tag_92\n        /* \"#utility.yul\":3566:3567   */\n      0x00\n        /* \"#utility.yul\":3555:3564   */\n      dup4\n        /* \"#utility.yul\":3551:3568   */\n      add\n        /* \"#utility.yul\":3542:3548   */\n      dup5\n        /* \"#utility.yul\":3498:3569   */\n      tag_79\n      jump\t// in\n    tag_92:\n        /* \"#utility.yul\":3354:3576   */\n      swap3\n      swap2\n      pop\n      pop\n      jump\t// out\n        /* \"#utility.yul\":3663:3832   */\n    tag_66:\n        /* \"#utility.yul\":3747:3758   */\n      0x00\n        /* \"#utility.yul\":3781:3787   */\n      dup3\n        /* \"#utility.yul\":3776:3779   */\n      dup3\n        /* \"#utility.yul\":3769:3788   */\n      mstore\n        /* \"#utility.yul\":3821:3825   */\n      0x20\n        /* \"#utility.yul\":3816:3819   */\n      dup3\n        /* \"#utility.yul\":3812:3826   */\n      add\n        /* \"#utility.yul\":3797:3826   */\n      swap1\n      pop\n        /* \"#utility.yul\":3663:3832   */\n      swap3\n      swap2\n      pop\n      pop\n      jump\t// out\n        /* \"#utility.yul\":3838:4143   */\n    tag_38:\n        /* \"#utility.yul\":3878:3881   */\n      0x00\n        /* \"#utility.yul\":3897:3917   */\n      tag_97\n        /* \"#utility.yul\":3915:3916   */\n      dup3\n        /* \"#utility.yul\":3897:3917   */\n      tag_82\n      jump\t// in\n    tag_97:\n        /* \"#utility.yul\":3892:3917   */\n      swap2\n      pop\n        /* \"#utility.yul\":3931:3951   */\n      tag_98\n        /* \"#utility.yul\":3949:3950   */\n      dup4\n        /* \"#utility.yul\":3931:3951   */\n      tag_82\n      jump\t// in\n    tag_98:\n        /* \"#utility.yul\":3926:3951   */\n      swap3\n      pop\n        /* \"#utility.yul\":4085:4086   */\n      dup3\n        /* \"#utility.yul\":4017:4083   */\n      0xffffffffffffffffffffffffffffffffffffffffffffffffffffffffffffffff\n        /* \"#utility.yul\":4013:4087   */\n      sub\n        /* \"#utility.yul\":4010:4011   */\n      dup3\n        /* \"#utility.yul\":4007:4088   */\n      gt\n        /* \"#utility.yul\":4004:4111   */\n      iszero\n      tag_99\n      jumpi\n        /* \"#utility.yul\":4091:4109   */\n      tag_100\n      tag_101\n      jump\t// in\n    tag_100:\n        /* \"#utility.yul\":4004:4111   */\n    tag_99:\n        /* \"#utility.yul\":4135:4136   */\n      dup3\n        /* \"#utility.yul\":4132:4133   */\n      dup3\n        /* \"#utility.yul\":4128:4137   */\n      add\n        /* \"#utility.yul\":4121:4137   */\n      swap1\n      pop\n        /* \"#utility.yul\":3838:4143   */\n      swap3\n      swap2\n      pop\n      pop\n      jump\t// out\n        /* \"#utility.yul\":4149:4245   */\n    tag_62:\n        /* \"#utility.yul\":4186:4193   */\n      0x00\n        /* \"#utility.yul\":4215:4239   */\n      tag_103\n        /* \"#utility.yul\":4233:4238   */\n      dup3\n        /* \"#utility.yul\":4215:4239   */\n      tag_104\n      jump\t// in\n    tag_103:\n        /* \"#utility.yul\":4204:4239   */\n      swap1\n      pop\n        /* \"#utility.yul\":4149:4245   */\n      swap2\n      swap1\n      pop\n      jump\t// out\n        /* \"#utility.yul\":4251:4377   */\n    tag_104:\n        /* \"#utility.yul\":4288:4295   */\n      0x00\n        /* \"#utility.yul\":4328:4370   */\n      0xffffffffffffffffffffffffffffffffffffffff\n        /* \"#utility.yul\":4321:4326   */\n      dup3\n        /* \"#utility.yul\":4317:4371   */\n      and\n        /* \"#utility.yul\":4306:4371   */\n      swap1\n      pop\n        /* \"#utility.yul\":4251:4377   */\n      swap2\n      swap1\n      pop\n      jump\t// out\n        /* \"#utility.yul\":4383:4460   */\n    tag_82:\n        /* \"#utility.yul\":4420:4427   */\n      0x00\n        /* \"#utility.yul\":4449:4454   */\n      dup2\n        /* \"#utility.yul\":4438:4454   */\n      swap1\n      pop\n        /* \"#utility.yul\":4383:4460   */\n      swap2\n      swap1\n      pop\n      jump\t// out\n        /* \"#utility.yul\":4466:4646   */\n    tag_101:\n        /* \"#utility.yul\":4514:4591   */\n      0x4e487b7100000000000000000000000000000000000000000000000000000000\n        /* \"#utility.yul\":4511:4512   */\n      0x00\n        /* \"#utility.yul\":4504:4592   */\n      mstore\n        /* \"#utility.yul\":4611:4615   */\n      0x11\n        /* \"#utility.yul\":4608:4609   */\n      0x04\n        /* \"#utility.yul\":4601:4616   */\n      mstore\n        /* \"#utility.yul\":4635:4639   */\n      0x24\n        /* \"#utility.yul\":4632:4633   */\n      0x00\n        /* \"#utility.yul\":4625:4640   */\n      revert\n        /* \"#utility.yul\":4775:4892   */\n    tag_57:\n        /* \"#utility.yul\":4884:4885   */\n      0x00\n        /* \"#utility.yul\":4881:4882   */\n      dup1\n        /* \"#utility.yul\":4874:4886   */\n      revert\n        /* \"#utility.yul\":4898:5070   */\n    tag_68:\n        /* \"#utility.yul\":5038:5062   */\n      0x416464726573732063616e6e6f74206265206e756c6c00000000000000000000\n        /* \"#utility.yul\":5034:5035   */\n      0x00\n        /* \"#utility.yul\":5026:5032   */\n      dup3\n        /* \"#utility.yul\":5022:5036   */\n      add\n        /* \"#utility.yul\":5015:5063   */\n      mstore\n        /* \"#utility.yul\":4898:5070   */\n      pop\n      jump\t// out\n        /* \"#utility.yul\":5076:5251   */\n    tag_73:\n        /* \"#utility.yul\":5216:5243   */\n      0x596f7520646f206e6f74206861766520617574686f7269747900000000000000\n        /* \"#utility.yul\":5212:5213   */\n      0x00\n        /* \"#utility.yul\":5204:5210   */\n      dup3\n        /* \"#utility.yul\":5200:5214   */\n      add\n        /* \"#utility.yul\":5193:5244   */\n      mstore\n        /* \"#utility.yul\":5076:5251   */\n      pop\n      jump\t// out\n        /* \"#utility.yul\":5257:5428   */\n    tag_78:\n        /* \"#utility.yul\":5397:5420   */\n      0x41646472657373206d757374206265206f776e65720000000000000000000000\n        /* \"#utility.yul\":5393:5394   */\n      0x00\n        /* \"#utility.yul\":5385:5391   */\n      dup3\n        /* \"#utility.yul\":5381:5395   */\n      add\n        /* \"#utility.yul\":5374:5421   */\n      mstore\n        /* \"#utility.yul\":5257:5428   */\n      pop\n      jump\t// out\n        /* \"#utility.yul\":5434:5556   */\n    tag_53:\n        /* \"#utility.yul\":5507:5531   */\n      tag_115\n        /* \"#utility.yul\":5525:5530   */\n      dup2\n        /* \"#utility.yul\":5507:5531   */\n      tag_62\n      jump\t// in\n    tag_115:\n        /* \"#utility.yul\":5500:5505   */\n      dup2\n        /* \"#utility.yul\":5497:5532   */\n      eq\n        /* \"#utility.yul\":5487:5550   */\n      tag_116\n      jumpi\n        /* \"#utility.yul\":5546:5547   */\n      0x00\n        /* \"#utility.yul\":5543:5544   */\n      dup1\n        /* \"#utility.yul\":5536:5548   */\n      revert\n        /* \"#utility.yul\":5487:5550   */\n    tag_116:\n        /* \"#utility.yul\":5434:5556   */\n      pop\n      jump\t// out\n\n    auxdata: 0xa26469706673582212201f2cb92fcc25e8ec6973c3f5fa55b43059b06bb35b7d1d2365ed2e20757227d664736f6c63430008070033\n}\n",
				"bytecode": {
					"linkReferences": {},
					"object": "608060405234801561001057600080fd5b50336000806101000a81548173ffffffffffffffffffffffffffffffffffffffff021916908373ffffffffffffffffffffffffffffffffffffffff160217905550610750806100606000396000f3fe608060405234801561001057600080fd5b50600436106100625760003560e01c806306661abd1461006757806313af4035146100855780638da5cb5b146100a1578063b39cdb26146100bf578063f2fde38b146100c9578063fd895292146100e5575b600080fd5b61006f6100ef565b60405161007c9190610596565b60405180910390f35b61009f600480360381019061009a9190610467565b6100f5565b005b6100a9610238565b6040516100b6919061051b565b60405180910390f35b6100c761025c565b005b6100e360048036038101906100de9190610467565b610277565b005b6100ed6103ba565b005b60015481565b8060008054906101000a900473ffffffffffffffffffffffffffffffffffffffff1673ffffffffffffffffffffffffffffffffffffffff163373ffffffffffffffffffffffffffffffffffffffff1614610184576040517f08c379a000000000000000000000000000000000000000000000000000000000815260040161017b90610556565b60405180910390fd5b600073ffffffffffffffffffffffffffffffffffffffff168273ffffffffffffffffffffffffffffffffffffffff1614156101f4576040517f08c379a00000000000000000000000000000000000000000000000000000000081526004016101eb90610536565b60405180910390fd5b816000806101000a81548173ffffffffffffffffffffffffffffffffffffffff021916908373ffffffffffffffffffffffffffffffffffffffff1602179055505050565b60008054906101000a900473ffffffffffffffffffffffffffffffffffffffff1681565b600180600082825461026e91906105c2565b92505081905550565b8060008054906101000a900473ffffffffffffffffffffffffffffffffffffffff1673ffffffffffffffffffffffffffffffffffffffff163373ffffffffffffffffffffffffffffffffffffffff1614610306576040517f08c379a00000000000000000000000000000000000000000000000000000000081526004016102fd90610556565b60405180910390fd5b600073ffffffffffffffffffffffffffffffffffffffff168273ffffffffffffffffffffffffffffffffffffffff161415610376576040517f08c379a000000000000000000000000000000000000000000000000000000000815260040161036d90610536565b60405180910390fd5b816000806101000a81548173ffffffffffffffffffffffffffffffffffffffff021916908373ffffffffffffffffffffffffffffffffffffffff1602179055505050565b3373ffffffffffffffffffffffffffffffffffffffff1660008054906101000a900473ffffffffffffffffffffffffffffffffffffffff1673ffffffffffffffffffffffffffffffffffffffff1614610448576040517f08c379a000000000000000000000000000000000000000000000000000000000815260040161043f90610576565b60405180910390fd5b6000600181905550565b60008135905061046181610703565b92915050565b60006020828403121561047d5761047c610683565b5b600061048b84828501610452565b91505092915050565b61049d81610618565b82525050565b60006104b06016836105b1565b91506104bb82610688565b602082019050919050565b60006104d36019836105b1565b91506104de826106b1565b602082019050919050565b60006104f66015836105b1565b9150610501826106da565b602082019050919050565b6105158161064a565b82525050565b60006020820190506105306000830184610494565b92915050565b6000602082019050818103600083015261054f816104a3565b9050919050565b6000602082019050818103600083015261056f816104c6565b9050919050565b6000602082019050818103600083015261058f816104e9565b9050919050565b60006020820190506105ab600083018461050c565b92915050565b600082825260208201905092915050565b60006105cd8261064a565b91506105d88361064a565b9250827fffffffffffffffffffffffffffffffffffffffffffffffffffffffffffffffff0382111561060d5761060c610654565b5b828201905092915050565b60006106238261062a565b9050919050565b600073ffffffffffffffffffffffffffffffffffffffff82169050919050565b6000819050919050565b7f4e487b7100000000000000000000000000000000000000000000000000000000600052601160045260246000fd5b600080fd5b7f416464726573732063616e6e6f74206265206e756c6c00000000000000000000600082015250565b7f596f7520646f206e6f74206861766520617574686f7269747900000000000000600082015250565b7f41646472657373206d757374206265206f776e65720000000000000000000000600082015250565b61070c81610618565b811461071757600080fd5b5056fea26469706673582212201f2cb92fcc25e8ec6973c3f5fa55b43059b06bb35b7d1d2365ed2e20757227d664736f6c63430008070033",
					"opcodes": "PUSH1 0x80 PUSH1 0x40 MSTORE CALLVALUE DUP1 ISZERO PUSH2 0x10 JUMPI PUSH1 0x0 DUP1 REVERT JUMPDEST POP CALLER PUSH1 0x0 DUP1 PUSH2 0x100 EXP DUP2 SLOAD DUP2 PUSH20 0xFFFFFFFFFFFFFFFFFFFFFFFFFFFFFFFFFFFFFFFF MUL NOT AND SWAP1 DUP4 PUSH20 0xFFFFFFFFFFFFFFFFFFFFFFFFFFFFFFFFFFFFFFFF AND MUL OR SWAP1 SSTORE POP PUSH2 0x750 DUP1 PUSH2 0x60 PUSH1 0x0 CODECOPY PUSH1 0x0 RETURN INVALID PUSH1 0x80 PUSH1 0x40 MSTORE CALLVALUE DUP1 ISZERO PUSH2 0x10 JUMPI PUSH1 0x0 DUP1 REVERT JUMPDEST POP PUSH1 0x4 CALLDATASIZE LT PUSH2 0x62 JUMPI PUSH1 0x0 CALLDATALOAD PUSH1 0xE0 SHR DUP1 PUSH4 0x6661ABD EQ PUSH2 0x67 JUMPI DUP1 PUSH4 0x13AF4035 EQ PUSH2 0x85 JUMPI DUP1 PUSH4 0x8DA5CB5B EQ PUSH2 0xA1 JUMPI DUP1 PUSH4 0xB39CDB26 EQ PUSH2 0xBF JUMPI DUP1 PUSH4 0xF2FDE38B EQ PUSH2 0xC9 JUMPI DUP1 PUSH4 0xFD895292 EQ PUSH2 0xE5 JUMPI JUMPDEST PUSH1 0x0 DUP1 REVERT JUMPDEST PUSH2 0x6F PUSH2 0xEF JUMP JUMPDEST PUSH1 0x40 MLOAD PUSH2 0x7C SWAP2 SWAP1 PUSH2 0x596 JUMP JUMPDEST PUSH1 0x40 MLOAD DUP1 SWAP2 SUB SWAP1 RETURN JUMPDEST PUSH2 0x9F PUSH1 0x4 DUP1 CALLDATASIZE SUB DUP2 ADD SWAP1 PUSH2 0x9A SWAP2 SWAP1 PUSH2 0x467 JUMP JUMPDEST PUSH2 0xF5 JUMP JUMPDEST STOP JUMPDEST PUSH2 0xA9 PUSH2 0x238 JUMP JUMPDEST PUSH1 0x40 MLOAD PUSH2 0xB6 SWAP2 SWAP1 PUSH2 0x51B JUMP JUMPDEST PUSH1 0x40 MLOAD DUP1 SWAP2 SUB SWAP1 RETURN JUMPDEST PUSH2 0xC7 PUSH2 0x25C JUMP JUMPDEST STOP JUMPDEST PUSH2 0xE3 PUSH1 0x4 DUP1 CALLDATASIZE SUB DUP2 ADD SWAP1 PUSH2 0xDE SWAP2 SWAP1 PUSH2 0x467 JUMP JUMPDEST PUSH2 0x277 JUMP JUMPDEST STOP JUMPDEST PUSH2 0xED PUSH2 0x3BA JUMP JUMPDEST STOP JUMPDEST PUSH1 0x1 SLOAD DUP2 JUMP JUMPDEST DUP1 PUSH1 0x0 DUP1 SLOAD SWAP1 PUSH2 0x100 EXP SWAP1 DIV PUSH20 0xFFFFFFFFFFFFFFFFFFFFFFFFFFFFFFFFFFFFFFFF AND PUSH20 0xFFFFFFFFFFFFFFFFFFFFFFFFFFFFFFFFFFFFFFFF AND CALLER PUSH20 0xFFFFFFFFFFFFFFFFFFFFFFFFFFFFFFFFFFFFFFFF AND EQ PUSH2 0x184 JUMPI PUSH1 0x40 MLOAD PUSH32 0x8C379A000000000000000000000000000000000000000000000000000000000 DUP2 MSTORE PUSH1 0x4 ADD PUSH2 0x17B SWAP1 PUSH2 0x556 JUMP JUMPDEST PUSH1 0x40 MLOAD DUP1 SWAP2 SUB SWAP1 REVERT JUMPDEST PUSH1 0x0 PUSH20 0xFFFFFFFFFFFFFFFFFFFFFFFFFFFFFFFFFFFFFFFF AND DUP3 PUSH20 0xFFFFFFFFFFFFFFFFFFFFFFFFFFFFFFFFFFFFFFFF AND EQ ISZERO PUSH2 0x1F4 JUMPI PUSH1 0x40 MLOAD PUSH32 0x8C379A000000000000000000000000000000000000000000000000000000000 DUP2 MSTORE PUSH1 0x4 ADD PUSH2 0x1EB SWAP1 PUSH2 0x536 JUMP JUMPDEST PUSH1 0x40 MLOAD DUP1 SWAP2 SUB SWAP1 REVERT JUMPDEST DUP2 PUSH1 0x0 DUP1 PUSH2 0x100 EXP DUP2 SLOAD DUP2 PUSH20 0xFFFFFFFFFFFFFFFFFFFFFFFFFFFFFFFFFFFFFFFF MUL NOT AND SWAP1 DUP4 PUSH20 0xFFFFFFFFFFFFFFFFFFFFFFFFFFFFFFFFFFFFFFFF AND MUL OR SWAP1 SSTORE POP POP POP JUMP JUMPDEST PUSH1 0x0 DUP1 SLOAD SWAP1 PUSH2 0x100 EXP SWAP1 DIV PUSH20 0xFFFFFFFFFFFFFFFFFFFFFFFFFFFFFFFFFFFFFFFF AND DUP2 JUMP JUMPDEST PUSH1 0x1 DUP1 PUSH1 0x0 DUP3 DUP3 SLOAD PUSH2 0x26E SWAP2 SWAP1 PUSH2 0x5C2 JUMP JUMPDEST SWAP3 POP POP DUP2 SWAP1 SSTORE POP JUMP JUMPDEST DUP1 PUSH1 0x0 DUP1 SLOAD SWAP1 PUSH2 0x100 EXP SWAP1 DIV PUSH20 0xFFFFFFFFFFFFFFFFFFFFFFFFFFFFFFFFFFFFFFFF AND PUSH20 0xFFFFFFFFFFFFFFFFFFFFFFFFFFFFFFFFFFFFFFFF AND CALLER PUSH20 0xFFFFFFFFFFFFFFFFFFFFFFFFFFFFFFFFFFFFFFFF AND EQ PUSH2 0x306 JUMPI PUSH1 0x40 MLOAD PUSH32 0x8C379A000000000000000000000000000000000000000000000000000000000 DUP2 MSTORE PUSH1 0x4 ADD PUSH2 0x2FD SWAP1 PUSH2 0x556 JUMP JUMPDEST PUSH1 0x40 MLOAD DUP1 SWAP2 SUB SWAP1 REVERT JUMPDEST PUSH1 0x0 PUSH20 0xFFFFFFFFFFFFFFFFFFFFFFFFFFFFFFFFFFFFFFFF AND DUP3 PUSH20 0xFFFFFFFFFFFFFFFFFFFFFFFFFFFFFFFFFFFFFFFF AND EQ ISZERO PUSH2 0x376 JUMPI PUSH1 0x40 MLOAD PUSH32 0x8C379A000000000000000000000000000000000000000000000000000000000 DUP2 MSTORE PUSH1 0x4 ADD PUSH2 0x36D SWAP1 PUSH2 0x536 JUMP JUMPDEST PUSH1 0x40 MLOAD DUP1 SWAP2 SUB SWAP1 REVERT JUMPDEST DUP2 PUSH1 0x0 DUP1 PUSH2 0x100 EXP DUP2 SLOAD DUP2 PUSH20 0xFFFFFFFFFFFFFFFFFFFFFFFFFFFFFFFFFFFFFFFF MUL NOT AND SWAP1 DUP4 PUSH20 0xFFFFFFFFFFFFFFFFFFFFFFFFFFFFFFFFFFFFFFFF AND MUL OR SWAP1 SSTORE POP POP POP JUMP JUMPDEST CALLER PUSH20 0xFFFFFFFFFFFFFFFFFFFFFFFFFFFFFFFFFFFFFFFF AND PUSH1 0x0 DUP1 SLOAD SWAP1 PUSH2 0x100 EXP SWAP1 DIV PUSH20 0xFFFFFFFFFFFFFFFFFFFFFFFFFFFFFFFFFFFFFFFF AND PUSH20 0xFFFFFFFFFFFFFFFFFFFFFFFFFFFFFFFFFFFFFFFF AND EQ PUSH2 0x448 JUMPI PUSH1 0x40 MLOAD PUSH32 0x8C379A000000000000000000000000000000000000000000000000000000000 DUP2 MSTORE PUSH1 0x4 ADD PUSH2 0x43F SWAP1 PUSH2 0x576 JUMP JUMPDEST PUSH1 0x40 MLOAD DUP1 SWAP2 SUB SWAP1 REVERT JUMPDEST PUSH1 0x0 PUSH1 0x1 DUP2 SWAP1 SSTORE POP JUMP JUMPDEST PUSH1 0x0 DUP2 CALLDATALOAD SWAP1 POP PUSH2 0x461 DUP2 PUSH2 0x703 JUMP JUMPDEST SWAP3 SWAP2 POP POP JUMP JUMPDEST PUSH1 0x0 PUSH1 0x20 DUP3 DUP5 SUB SLT ISZERO PUSH2 0x47D JUMPI PUSH2 0x47C PUSH2 0x683 JUMP JUMPDEST JUMPDEST PUSH1 0x0 PUSH2 0x48B DUP5 DUP3 DUP6 ADD PUSH2 0x452 JUMP JUMPDEST SWAP2 POP POP SWAP3 SWAP2 POP POP JUMP JUMPDEST PUSH2 0x49D DUP2 PUSH2 0x618 JUMP JUMPDEST DUP3 MSTORE POP POP JUMP JUMPDEST PUSH1 0x0 PUSH2 0x4B0 PUSH1 0x16 DUP4 PUSH2 0x5B1 JUMP JUMPDEST SWAP2 POP PUSH2 0x4BB DUP3 PUSH2 0x688 JUMP JUMPDEST PUSH1 0x20 DUP3 ADD SWAP1 POP SWAP2 SWAP1 POP JUMP JUMPDEST PUSH1 0x0 PUSH2 0x4D3 PUSH1 0x19 DUP4 PUSH2 0x5B1 JUMP JUMPDEST SWAP2 POP PUSH2 0x4DE DUP3 PUSH2 0x6B1 JUMP JUMPDEST PUSH1 0x20 DUP3 ADD SWAP1 POP SWAP2 SWAP1 POP JUMP JUMPDEST PUSH1 0x0 PUSH2 0x4F6 PUSH1 0x15 DUP4 PUSH2 0x5B1 JUMP JUMPDEST SWAP2 POP PUSH2 0x501 DUP3 PUSH2 0x6DA JUMP JUMPDEST PUSH1 0x20 DUP3 ADD SWAP1 POP SWAP2 SWAP1 POP JUMP JUMPDEST PUSH2 0x515 DUP2 PUSH2 0x64A JUMP JUMPDEST DUP3 MSTORE POP POP JUMP JUMPDEST PUSH1 0x0 PUSH1 0x20 DUP3 ADD SWAP1 POP PUSH2 0x530 PUSH1 0x0 DUP4 ADD DUP5 PUSH2 0x494 JUMP JUMPDEST SWAP3 SWAP2 POP POP JUMP JUMPDEST PUSH1 0x0 PUSH1 0x20 DUP3 ADD SWAP1 POP DUP2 DUP2 SUB PUSH1 0x0 DUP4 ADD MSTORE PUSH2 0x54F DUP2 PUSH2 0x4A3 JUMP JUMPDEST SWAP1 POP SWAP2 SWAP1 POP JUMP JUMPDEST PUSH1 0x0 PUSH1 0x20 DUP3 ADD SWAP1 POP DUP2 DUP2 SUB PUSH1 0x0 DUP4 ADD MSTORE PUSH2 0x56F DUP2 PUSH2 0x4C6 JUMP JUMPDEST SWAP1 POP SWAP2 SWAP1 POP JUMP JUMPDEST PUSH1 0x0 PUSH1 0x20 DUP3 ADD SWAP1 POP DUP2 DUP2 SUB PUSH1 0x0 DUP4 ADD MSTORE PUSH2 0x58F DUP2 PUSH2 0x4E9 JUMP JUMPDEST SWAP1 POP SWAP2 SWAP1 POP JUMP JUMPDEST PUSH1 0x0 PUSH1 0x20 DUP3 ADD SWAP1 POP PUSH2 0x5AB PUSH1 0x0 DUP4 ADD DUP5 PUSH2 0x50C JUMP JUMPDEST SWAP3 SWAP2 POP POP JUMP JUMPDEST PUSH1 0x0 DUP3 DUP3 MSTORE PUSH1 0x20 DUP3 ADD SWAP1 POP SWAP3 SWAP2 POP POP JUMP JUMPDEST PUSH1 0x0 PUSH2 0x5CD DUP3 PUSH2 0x64A JUMP JUMPDEST SWAP2 POP PUSH2 0x5D8 DUP4 PUSH2 0x64A JUMP JUMPDEST SWAP3 POP DUP3 PUSH32 0xFFFFFFFFFFFFFFFFFFFFFFFFFFFFFFFFFFFFFFFFFFFFFFFFFFFFFFFFFFFFFFFF SUB DUP3 GT ISZERO PUSH2 0x60D JUMPI PUSH2 0x60C PUSH2 0x654 JUMP JUMPDEST JUMPDEST DUP3 DUP3 ADD SWAP1 POP SWAP3 SWAP2 POP POP JUMP JUMPDEST PUSH1 0x0 PUSH2 0x623 DUP3 PUSH2 0x62A JUMP JUMPDEST SWAP1 POP SWAP2 SWAP1 POP JUMP JUMPDEST PUSH1 0x0 PUSH20 0xFFFFFFFFFFFFFFFFFFFFFFFFFFFFFFFFFFFFFFFF DUP3 AND SWAP1 POP SWAP2 SWAP1 POP JUMP JUMPDEST PUSH1 0x0 DUP2 SWAP1 POP SWAP2 SWAP1 POP JUMP JUMPDEST PUSH32 0x4E487B7100000000000000000000000000000000000000000000000000000000 PUSH1 0x0 MSTORE PUSH1 0x11 PUSH1 0x4 MSTORE PUSH1 0x24 PUSH1 0x0 REVERT JUMPDEST PUSH1 0x0 DUP1 REVERT JUMPDEST PUSH32 0x416464726573732063616E6E6F74206265206E756C6C00000000000000000000 PUSH1 0x0 DUP3 ADD MSTORE POP JUMP JUMPDEST PUSH32 0x596F7520646F206E6F74206861766520617574686F7269747900000000000000 PUSH1 0x0 DUP3 ADD MSTORE POP JUMP JUMPDEST PUSH32 0x41646472657373206D757374206265206F776E65720000000000000000000000 PUSH1 0x0 DUP3 ADD MSTORE POP JUMP JUMPDEST PUSH2 0x70C DUP2 PUSH2 0x618 JUMP JUMPDEST DUP2 EQ PUSH2 0x717 JUMPI PUSH1 0x0 DUP1 REVERT JUMPDEST POP JUMP INVALID LOG2 PUSH5 0x6970667358 0x22 SLT KECCAK256 0x1F 0x2C 0xB9 0x2F 0xCC 0x25 0xE8 0xEC PUSH10 0x73C3F5FA55B43059B06B 0xB3 JUMPDEST PUSH30 0x1D2365ED2E20757227D664736F6C63430008070033000000000000000000 "
				},
				"gasEstimates": {
					"creation": {
						"codeDepositCost": "374400",
						"executionCost": "24677",
						"totalCost": "399077"
					},
					"external": {
						"anyOneCall()": "infinite",
						"count()": "2407",
						"owner()": "2533",
						"resetCount()": "7413",
						"setOwner(address)": "26932",
						"transferOwnership(address)": "26998"
					}
				},
				"methodIdentifiers": {
					"anyOneCall()": "b39cdb26",
					"count()": "06661abd",
					"owner()": "8da5cb5b",
					"resetCount()": "fd895292",
					"setOwner(address)": "13af4035",
					"transferOwnership(address)": "f2fde38b"
				}
			},
			"storageLayout": {
				"storage": [
					{
						"astId": 3,
						"contract": "contract/MyOwnable.sol:MyOwner",
						"label": "owner",
						"offset": 0,
						"slot": "0",
						"type": "t_address"
					},
					{
						"astId": 5,
						"contract": "contract/MyOwnable.sol:MyOwner",
						"label": "count",
						"offset": 0,
						"slot": "1",
						"type": "t_uint256"
					}
				],
				"types": {
					"t_address": {
						"encoding": "inplace",
						"label": "address",
						"numberOfBytes": "20"
					},
					"t_uint256": {
						"encoding": "inplace",
						"label": "uint256",
						"numberOfBytes": "32"
					}
				}
			},
			"userdoc": {
				"kind": "user",
				"methods": {},
				"version": 1
			}
		}
	}
}