{
	"contract/ErrorDemo.sol": {
		"ErrorDemo": {
			"abi": [
				{
					"inputs": [
						{
							"internalType": "address",
							"name": "caller",
							"type": "address"
						},
						{
							"internalType": "uint256",
							"name": "i",
							"type": "uint256"
						}
					],
					"name": "MyError",
					"type": "error"
				},
				{
					"inputs": [
						{
							"internalType": "uint256",
							"name": "i",
							"type": "uint256"
						}
					],
					"name": "testAssert",
					"outputs": [],
					"stateMutability": "pure",
					"type": "function"
				},
				{
					"inputs": [
						{
							"internalType": "uint256",
							"name": "i",
							"type": "uint256"
						}
					],
					"name": "testCustomerError",
					"outputs": [],
					"stateMutability": "view",
					"type": "function"
				},
				{
					"inputs": [
						{
							"internalType": "uint256",
							"name": "i",
							"type": "uint256"
						}
					],
					"name": "testRequire",
					"outputs": [
						{
							"internalType": "uint256",
							"name": "",
							"type": "uint256"
						}
					],
					"stateMutability": "pure",
					"type": "function"
				},
				{
					"inputs": [
						{
							"internalType": "uint256",
							"name": "i",
							"type": "uint256"
						}
					],
					"name": "testRevert",
					"outputs": [
						{
							"internalType": "uint256",
							"name": "",
							"type": "uint256"
						}
					],
					"stateMutability": "pure",
					"type": "function"
				},
				{
					"inputs": [],
					"name": "u",
					"outputs": [
						{
							"internalType": "uint256",
							"name": "",
							"type": "uint256"
						}
					],
					"stateMutability": "view",
					"type": "function"
				}
			],
			"devdoc": {
				"kind": "dev",
				"methods": {},
				"version": 1
			},
			"evm": {
				"assembly": "    /* \"contract/ErrorDemo.sol\":62:681  contract ErrorDemo {... */\n  mstore(0x40, 0x80)\n    /* \"contract/ErrorDemo.sol\":106:109  456 */\n  0x01c8\n    /* \"contract/ErrorDemo.sol\":87:109  uint256 public u = 456 */\n  0x00\n  sstore\n    /* \"contract/ErrorDemo.sol\":62:681  contract ErrorDemo {... */\n  callvalue\n  dup1\n  iszero\n  tag_1\n  jumpi\n  0x00\n  dup1\n  revert\ntag_1:\n  pop\n  dataSize(sub_0)\n  dup1\n  dataOffset(sub_0)\n  0x00\n  codecopy\n  0x00\n  return\nstop\n\nsub_0: assembly {\n        /* \"contract/ErrorDemo.sol\":62:681  contract ErrorDemo {... */\n      mstore(0x40, 0x80)\n      callvalue\n      dup1\n      iszero\n      tag_1\n      jumpi\n      0x00\n      dup1\n      revert\n    tag_1:\n      pop\n      jumpi(tag_2, lt(calldatasize, 0x04))\n      shr(0xe0, calldataload(0x00))\n      dup1\n      0x20987767\n      eq\n      tag_3\n      jumpi\n      dup1\n      0x246ce3f9\n      eq\n      tag_4\n      jumpi\n      dup1\n      0xaa243e05\n      eq\n      tag_5\n      jumpi\n      dup1\n      0xb8bd717f\n      eq\n      tag_6\n      jumpi\n      dup1\n      0xc6a898c5\n      eq\n      tag_7\n      jumpi\n    tag_2:\n      0x00\n      dup1\n      revert\n        /* \"contract/ErrorDemo.sol\":302:459  function testRevert(uint256 i) external pure returns (uint256) {... */\n    tag_3:\n      tag_8\n      0x04\n      dup1\n      calldatasize\n      sub\n      dup2\n      add\n      swap1\n      tag_9\n      swap2\n      swap1\n      tag_10\n      jump\t// in\n    tag_9:\n      tag_11\n      jump\t// in\n    tag_8:\n      mload(0x40)\n      tag_12\n      swap2\n      swap1\n      tag_13\n      jump\t// in\n    tag_12:\n      mload(0x40)\n      dup1\n      swap2\n      sub\n      swap1\n      return\n        /* \"contract/ErrorDemo.sol\":465:543  function testAssert(uint256 i) external pure {... */\n    tag_4:\n      tag_14\n      0x04\n      dup1\n      calldatasize\n      sub\n      dup2\n      add\n      swap1\n      tag_15\n      swap2\n      swap1\n      tag_10\n      jump\t// in\n    tag_15:\n      tag_16\n      jump\t// in\n    tag_14:\n      stop\n        /* \"contract/ErrorDemo.sol\":549:679  function testCustomerError(uint256 i) external view{... */\n    tag_5:\n      tag_17\n      0x04\n      dup1\n      calldatasize\n      sub\n      dup2\n      add\n      swap1\n      tag_18\n      swap2\n      swap1\n      tag_10\n      jump\t// in\n    tag_18:\n      tag_19\n      jump\t// in\n    tag_17:\n      stop\n        /* \"contract/ErrorDemo.sol\":163:296  function testRequire(uint256 i) external pure returns (uint256) {... */\n    tag_6:\n      tag_20\n      0x04\n      dup1\n      calldatasize\n      sub\n      dup2\n      add\n      swap1\n      tag_21\n      swap2\n      swap1\n      tag_10\n      jump\t// in\n    tag_21:\n      tag_22\n      jump\t// in\n    tag_20:\n      mload(0x40)\n      tag_23\n      swap2\n      swap1\n      tag_13\n      jump\t// in\n    tag_23:\n      mload(0x40)\n      dup1\n      swap2\n      sub\n      swap1\n      return\n        /* \"contract/ErrorDemo.sol\":87:109  uint256 public u = 456 */\n    tag_7:\n      tag_24\n      tag_25\n      jump\t// in\n    tag_24:\n      mload(0x40)\n      tag_26\n      swap2\n      swap1\n      tag_13\n      jump\t// in\n    tag_26:\n      mload(0x40)\n      dup1\n      swap2\n      sub\n      swap1\n      return\n        /* \"contract/ErrorDemo.sol\":302:459  function testRevert(uint256 i) external pure returns (uint256) {... */\n    tag_11:\n        /* \"contract/ErrorDemo.sol\":356:363  uint256 */\n      0x00\n        /* \"contract/ErrorDemo.sol\":382:384  10 */\n      0x0a\n        /* \"contract/ErrorDemo.sol\":379:380  i */\n      dup3\n        /* \"contract/ErrorDemo.sol\":379:384  i >10 */\n      gt\n        /* \"contract/ErrorDemo.sol\":375:435  if (i >10){... */\n      iszero\n      tag_28\n      jumpi\n        /* \"contract/ErrorDemo.sol\":399:424  revert (\"i is too high!\") */\n      mload(0x40)\n      0x08c379a000000000000000000000000000000000000000000000000000000000\n      dup2\n      mstore\n      0x04\n      add\n      tag_29\n      swap1\n      tag_30\n      jump\t// in\n    tag_29:\n      mload(0x40)\n      dup1\n      swap2\n      sub\n      swap1\n      revert\n        /* \"contract/ErrorDemo.sol\":375:435  if (i >10){... */\n    tag_28:\n        /* \"contract/ErrorDemo.sol\":451:452  i */\n      dup2\n        /* \"contract/ErrorDemo.sol\":444:452  return i */\n      swap1\n      pop\n        /* \"contract/ErrorDemo.sol\":302:459  function testRevert(uint256 i) external pure returns (uint256) {... */\n      swap2\n      swap1\n      pop\n      jump\t// out\n        /* \"contract/ErrorDemo.sol\":465:543  function testAssert(uint256 i) external pure {... */\n    tag_16:\n        /* \"contract/ErrorDemo.sol\":532:535  123 */\n      0x7b\n        /* \"contract/ErrorDemo.sol\":527:528  i */\n      dup2\n        /* \"contract/ErrorDemo.sol\":527:535  i == 123 */\n      eq\n        /* \"contract/ErrorDemo.sol\":520:536  assert(i == 123) */\n      tag_32\n      jumpi\n      tag_33\n      tag_34\n      jump\t// in\n    tag_33:\n    tag_32:\n        /* \"contract/ErrorDemo.sol\":465:543  function testAssert(uint256 i) external pure {... */\n      pop\n      jump\t// out\n        /* \"contract/ErrorDemo.sol\":549:679  function testCustomerError(uint256 i) external view{... */\n    tag_19:\n        /* \"contract/ErrorDemo.sol\":617:619  10 */\n      0x0a\n        /* \"contract/ErrorDemo.sol\":614:615  i */\n      dup2\n        /* \"contract/ErrorDemo.sol\":614:619  i >10 */\n      gt\n        /* \"contract/ErrorDemo.sol\":610:673  if (i >10){... */\n      iszero\n      tag_36\n      jumpi\n        /* \"contract/ErrorDemo.sol\":649:659  msg.sender */\n      caller\n        /* \"contract/ErrorDemo.sol\":660:661  i */\n      dup2\n        /* \"contract/ErrorDemo.sol\":641:662  MyError(msg.sender,i) */\n      mload(0x40)\n      0xe2399bb800000000000000000000000000000000000000000000000000000000\n      dup2\n      mstore\n      0x04\n      add\n      tag_37\n      swap3\n      swap2\n      swap1\n      tag_38\n      jump\t// in\n    tag_37:\n      mload(0x40)\n      dup1\n      swap2\n      sub\n      swap1\n      revert\n        /* \"contract/ErrorDemo.sol\":610:673  if (i >10){... */\n    tag_36:\n        /* \"contract/ErrorDemo.sol\":549:679  function testCustomerError(uint256 i) external view{... */\n      pop\n      jump\t// out\n        /* \"contract/ErrorDemo.sol\":163:296  function testRequire(uint256 i) external pure returns (uint256) {... */\n    tag_22:\n        /* \"contract/ErrorDemo.sol\":218:225  uint256 */\n      0x00\n        /* \"contract/ErrorDemo.sol\":250:253  123 */\n      0x7b\n        /* \"contract/ErrorDemo.sol\":245:246  i */\n      dup3\n        /* \"contract/ErrorDemo.sol\":245:253  i == 123 */\n      eq\n        /* \"contract/ErrorDemo.sol\":237:271  require(i == 123, \"u is not 123!\") */\n      tag_40\n      jumpi\n      mload(0x40)\n      0x08c379a000000000000000000000000000000000000000000000000000000000\n      dup2\n      mstore\n      0x04\n      add\n      tag_41\n      swap1\n      tag_42\n      jump\t// in\n    tag_41:\n      mload(0x40)\n      dup1\n      swap2\n      sub\n      swap1\n      revert\n    tag_40:\n        /* \"contract/ErrorDemo.sol\":288:289  i */\n      dup2\n        /* \"contract/ErrorDemo.sol\":281:289  return i */\n      swap1\n      pop\n        /* \"contract/ErrorDemo.sol\":163:296  function testRequire(uint256 i) external pure returns (uint256) {... */\n      swap2\n      swap1\n      pop\n      jump\t// out\n        /* \"contract/ErrorDemo.sol\":87:109  uint256 public u = 456 */\n    tag_25:\n      sload(0x00)\n      dup2\n      jump\t// out\n        /* \"#utility.yul\":7:146   */\n    tag_44:\n        /* \"#utility.yul\":53:58   */\n      0x00\n        /* \"#utility.yul\":91:97   */\n      dup2\n        /* \"#utility.yul\":78:98   */\n      calldataload\n        /* \"#utility.yul\":69:98   */\n      swap1\n      pop\n        /* \"#utility.yul\":107:140   */\n      tag_46\n        /* \"#utility.yul\":134:139   */\n      dup2\n        /* \"#utility.yul\":107:140   */\n      tag_47\n      jump\t// in\n    tag_46:\n        /* \"#utility.yul\":7:146   */\n      swap3\n      swap2\n      pop\n      pop\n      jump\t// out\n        /* \"#utility.yul\":152:481   */\n    tag_10:\n        /* \"#utility.yul\":211:217   */\n      0x00\n        /* \"#utility.yul\":260:262   */\n      0x20\n        /* \"#utility.yul\":248:257   */\n      dup3\n        /* \"#utility.yul\":239:246   */\n      dup5\n        /* \"#utility.yul\":235:258   */\n      sub\n        /* \"#utility.yul\":231:263   */\n      slt\n        /* \"#utility.yul\":228:347   */\n      iszero\n      tag_49\n      jumpi\n        /* \"#utility.yul\":266:345   */\n      tag_50\n      tag_51\n      jump\t// in\n    tag_50:\n        /* \"#utility.yul\":228:347   */\n    tag_49:\n        /* \"#utility.yul\":386:387   */\n      0x00\n        /* \"#utility.yul\":411:464   */\n      tag_52\n        /* \"#utility.yul\":456:463   */\n      dup5\n        /* \"#utility.yul\":447:453   */\n      dup3\n        /* \"#utility.yul\":436:445   */\n      dup6\n        /* \"#utility.yul\":432:454   */\n      add\n        /* \"#utility.yul\":411:464   */\n      tag_44\n      jump\t// in\n    tag_52:\n        /* \"#utility.yul\":401:464   */\n      swap2\n      pop\n        /* \"#utility.yul\":357:474   */\n      pop\n        /* \"#utility.yul\":152:481   */\n      swap3\n      swap2\n      pop\n      pop\n      jump\t// out\n        /* \"#utility.yul\":487:605   */\n    tag_53:\n        /* \"#utility.yul\":574:598   */\n      tag_55\n        /* \"#utility.yul\":592:597   */\n      dup2\n        /* \"#utility.yul\":574:598   */\n      tag_56\n      jump\t// in\n    tag_55:\n        /* \"#utility.yul\":569:572   */\n      dup3\n        /* \"#utility.yul\":562:599   */\n      mstore\n        /* \"#utility.yul\":487:605   */\n      pop\n      pop\n      jump\t// out\n        /* \"#utility.yul\":611:977   */\n    tag_57:\n        /* \"#utility.yul\":753:756   */\n      0x00\n        /* \"#utility.yul\":774:841   */\n      tag_59\n        /* \"#utility.yul\":838:840   */\n      0x0d\n        /* \"#utility.yul\":833:836   */\n      dup4\n        /* \"#utility.yul\":774:841   */\n      tag_60\n      jump\t// in\n    tag_59:\n        /* \"#utility.yul\":767:841   */\n      swap2\n      pop\n        /* \"#utility.yul\":850:943   */\n      tag_61\n        /* \"#utility.yul\":939:942   */\n      dup3\n        /* \"#utility.yul\":850:943   */\n      tag_62\n      jump\t// in\n    tag_61:\n        /* \"#utility.yul\":968:970   */\n      0x20\n        /* \"#utility.yul\":963:966   */\n      dup3\n        /* \"#utility.yul\":959:971   */\n      add\n        /* \"#utility.yul\":952:971   */\n      swap1\n      pop\n        /* \"#utility.yul\":611:977   */\n      swap2\n      swap1\n      pop\n      jump\t// out\n        /* \"#utility.yul\":983:1349   */\n    tag_63:\n        /* \"#utility.yul\":1125:1128   */\n      0x00\n        /* \"#utility.yul\":1146:1213   */\n      tag_65\n        /* \"#utility.yul\":1210:1212   */\n      0x0e\n        /* \"#utility.yul\":1205:1208   */\n      dup4\n        /* \"#utility.yul\":1146:1213   */\n      tag_60\n      jump\t// in\n    tag_65:\n        /* \"#utility.yul\":1139:1213   */\n      swap2\n      pop\n        /* \"#utility.yul\":1222:1315   */\n      tag_66\n        /* \"#utility.yul\":1311:1314   */\n      dup3\n        /* \"#utility.yul\":1222:1315   */\n      tag_67\n      jump\t// in\n    tag_66:\n        /* \"#utility.yul\":1340:1342   */\n      0x20\n        /* \"#utility.yul\":1335:1338   */\n      dup3\n        /* \"#utility.yul\":1331:1343   */\n      add\n        /* \"#utility.yul\":1324:1343   */\n      swap1\n      pop\n        /* \"#utility.yul\":983:1349   */\n      swap2\n      swap1\n      pop\n      jump\t// out\n        /* \"#utility.yul\":1355:1473   */\n    tag_68:\n        /* \"#utility.yul\":1442:1466   */\n      tag_70\n        /* \"#utility.yul\":1460:1465   */\n      dup2\n        /* \"#utility.yul\":1442:1466   */\n      tag_71\n      jump\t// in\n    tag_70:\n        /* \"#utility.yul\":1437:1440   */\n      dup3\n        /* \"#utility.yul\":1430:1467   */\n      mstore\n        /* \"#utility.yul\":1355:1473   */\n      pop\n      pop\n      jump\t// out\n        /* \"#utility.yul\":1479:1811   */\n    tag_38:\n        /* \"#utility.yul\":1600:1604   */\n      0x00\n        /* \"#utility.yul\":1638:1640   */\n      0x40\n        /* \"#utility.yul\":1627:1636   */\n      dup3\n        /* \"#utility.yul\":1623:1641   */\n      add\n        /* \"#utility.yul\":1615:1641   */\n      swap1\n      pop\n        /* \"#utility.yul\":1651:1722   */\n      tag_73\n        /* \"#utility.yul\":1719:1720   */\n      0x00\n        /* \"#utility.yul\":1708:1717   */\n      dup4\n        /* \"#utility.yul\":1704:1721   */\n      add\n        /* \"#utility.yul\":1695:1701   */\n      dup6\n        /* \"#utility.yul\":1651:1722   */\n      tag_53\n      jump\t// in\n    tag_73:\n        /* \"#utility.yul\":1732:1804   */\n      tag_74\n        /* \"#utility.yul\":1800:1802   */\n      0x20\n        /* \"#utility.yul\":1789:1798   */\n      dup4\n        /* \"#utility.yul\":1785:1803   */\n      add\n        /* \"#utility.yul\":1776:1782   */\n      dup5\n        /* \"#utility.yul\":1732:1804   */\n      tag_68\n      jump\t// in\n    tag_74:\n        /* \"#utility.yul\":1479:1811   */\n      swap4\n      swap3\n      pop\n      pop\n      pop\n      jump\t// out\n        /* \"#utility.yul\":1817:2236   */\n    tag_42:\n        /* \"#utility.yul\":1983:1987   */\n      0x00\n        /* \"#utility.yul\":2021:2023   */\n      0x20\n        /* \"#utility.yul\":2010:2019   */\n      dup3\n        /* \"#utility.yul\":2006:2024   */\n      add\n        /* \"#utility.yul\":1998:2024   */\n      swap1\n      pop\n        /* \"#utility.yul\":2070:2079   */\n      dup2\n        /* \"#utility.yul\":2064:2068   */\n      dup2\n        /* \"#utility.yul\":2060:2080   */\n      sub\n        /* \"#utility.yul\":2056:2057   */\n      0x00\n        /* \"#utility.yul\":2045:2054   */\n      dup4\n        /* \"#utility.yul\":2041:2058   */\n      add\n        /* \"#utility.yul\":2034:2081   */\n      mstore\n        /* \"#utility.yul\":2098:2229   */\n      tag_76\n        /* \"#utility.yul\":2224:2228   */\n      dup2\n        /* \"#utility.yul\":2098:2229   */\n      tag_57\n      jump\t// in\n    tag_76:\n        /* \"#utility.yul\":2090:2229   */\n      swap1\n      pop\n        /* \"#utility.yul\":1817:2236   */\n      swap2\n      swap1\n      pop\n      jump\t// out\n        /* \"#utility.yul\":2242:2661   */\n    tag_30:\n        /* \"#utility.yul\":2408:2412   */\n      0x00\n        /* \"#utility.yul\":2446:2448   */\n      0x20\n        /* \"#utility.yul\":2435:2444   */\n      dup3\n        /* \"#utility.yul\":2431:2449   */\n      add\n        /* \"#utility.yul\":2423:2449   */\n      swap1\n      pop\n        /* \"#utility.yul\":2495:2504   */\n      dup2\n        /* \"#utility.yul\":2489:2493   */\n      dup2\n        /* \"#utility.yul\":2485:2505   */\n      sub\n        /* \"#utility.yul\":2481:2482   */\n      0x00\n        /* \"#utility.yul\":2470:2479   */\n      dup4\n        /* \"#utility.yul\":2466:2483   */\n      add\n        /* \"#utility.yul\":2459:2506   */\n      mstore\n        /* \"#utility.yul\":2523:2654   */\n      tag_78\n        /* \"#utility.yul\":2649:2653   */\n      dup2\n        /* \"#utility.yul\":2523:2654   */\n      tag_63\n      jump\t// in\n    tag_78:\n        /* \"#utility.yul\":2515:2654   */\n      swap1\n      pop\n        /* \"#utility.yul\":2242:2661   */\n      swap2\n      swap1\n      pop\n      jump\t// out\n        /* \"#utility.yul\":2667:2889   */\n    tag_13:\n        /* \"#utility.yul\":2760:2764   */\n      0x00\n        /* \"#utility.yul\":2798:2800   */\n      0x20\n        /* \"#utility.yul\":2787:2796   */\n      dup3\n        /* \"#utility.yul\":2783:2801   */\n      add\n        /* \"#utility.yul\":2775:2801   */\n      swap1\n      pop\n        /* \"#utility.yul\":2811:2882   */\n      tag_80\n        /* \"#utility.yul\":2879:2880   */\n      0x00\n        /* \"#utility.yul\":2868:2877   */\n      dup4\n        /* \"#utility.yul\":2864:2881   */\n      add\n        /* \"#utility.yul\":2855:2861   */\n      dup5\n        /* \"#utility.yul\":2811:2882   */\n      tag_68\n      jump\t// in\n    tag_80:\n        /* \"#utility.yul\":2667:2889   */\n      swap3\n      swap2\n      pop\n      pop\n      jump\t// out\n        /* \"#utility.yul\":2976:3145   */\n    tag_60:\n        /* \"#utility.yul\":3060:3071   */\n      0x00\n        /* \"#utility.yul\":3094:3100   */\n      dup3\n        /* \"#utility.yul\":3089:3092   */\n      dup3\n        /* \"#utility.yul\":3082:3101   */\n      mstore\n        /* \"#utility.yul\":3134:3138   */\n      0x20\n        /* \"#utility.yul\":3129:3132   */\n      dup3\n        /* \"#utility.yul\":3125:3139   */\n      add\n        /* \"#utility.yul\":3110:3139   */\n      swap1\n      pop\n        /* \"#utility.yul\":2976:3145   */\n      swap3\n      swap2\n      pop\n      pop\n      jump\t// out\n        /* \"#utility.yul\":3151:3247   */\n    tag_56:\n        /* \"#utility.yul\":3188:3195   */\n      0x00\n        /* \"#utility.yul\":3217:3241   */\n      tag_85\n        /* \"#utility.yul\":3235:3240   */\n      dup3\n        /* \"#utility.yul\":3217:3241   */\n      tag_86\n      jump\t// in\n    tag_85:\n        /* \"#utility.yul\":3206:3241   */\n      swap1\n      pop\n        /* \"#utility.yul\":3151:3247   */\n      swap2\n      swap1\n      pop\n      jump\t// out\n        /* \"#utility.yul\":3253:3379   */\n    tag_86:\n        /* \"#utility.yul\":3290:3297   */\n      0x00\n        /* \"#utility.yul\":3330:3372   */\n      0xffffffffffffffffffffffffffffffffffffffff\n        /* \"#utility.yul\":3323:3328   */\n      dup3\n        /* \"#utility.yul\":3319:3373   */\n      and\n        /* \"#utility.yul\":3308:3373   */\n      swap1\n      pop\n        /* \"#utility.yul\":3253:3379   */\n      swap2\n      swap1\n      pop\n      jump\t// out\n        /* \"#utility.yul\":3385:3462   */\n    tag_71:\n        /* \"#utility.yul\":3422:3429   */\n      0x00\n        /* \"#utility.yul\":3451:3456   */\n      dup2\n        /* \"#utility.yul\":3440:3456   */\n      swap1\n      pop\n        /* \"#utility.yul\":3385:3462   */\n      swap2\n      swap1\n      pop\n      jump\t// out\n        /* \"#utility.yul\":3468:3648   */\n    tag_34:\n        /* \"#utility.yul\":3516:3593   */\n      0x4e487b7100000000000000000000000000000000000000000000000000000000\n        /* \"#utility.yul\":3513:3514   */\n      0x00\n        /* \"#utility.yul\":3506:3594   */\n      mstore\n        /* \"#utility.yul\":3613:3617   */\n      0x01\n        /* \"#utility.yul\":3610:3611   */\n      0x04\n        /* \"#utility.yul\":3603:3618   */\n      mstore\n        /* \"#utility.yul\":3637:3641   */\n      0x24\n        /* \"#utility.yul\":3634:3635   */\n      0x00\n        /* \"#utility.yul\":3627:3642   */\n      revert\n        /* \"#utility.yul\":3777:3894   */\n    tag_51:\n        /* \"#utility.yul\":3886:3887   */\n      0x00\n        /* \"#utility.yul\":3883:3884   */\n      dup1\n        /* \"#utility.yul\":3876:3888   */\n      revert\n        /* \"#utility.yul\":3900:4063   */\n    tag_62:\n        /* \"#utility.yul\":4040:4055   */\n      0x75206973206e6f74203132332100000000000000000000000000000000000000\n        /* \"#utility.yul\":4036:4037   */\n      0x00\n        /* \"#utility.yul\":4028:4034   */\n      dup3\n        /* \"#utility.yul\":4024:4038   */\n      add\n        /* \"#utility.yul\":4017:4056   */\n      mstore\n        /* \"#utility.yul\":3900:4063   */\n      pop\n      jump\t// out\n        /* \"#utility.yul\":4069:4233   */\n    tag_67:\n        /* \"#utility.yul\":4209:4225   */\n      0x6920697320746f6f206869676821000000000000000000000000000000000000\n        /* \"#utility.yul\":4205:4206   */\n      0x00\n        /* \"#utility.yul\":4197:4203   */\n      dup3\n        /* \"#utility.yul\":4193:4207   */\n      add\n        /* \"#utility.yul\":4186:4226   */\n      mstore\n        /* \"#utility.yul\":4069:4233   */\n      pop\n      jump\t// out\n        /* \"#utility.yul\":4239:4361   */\n    tag_47:\n        /* \"#utility.yul\":4312:4336   */\n      tag_96\n        /* \"#utility.yul\":4330:4335   */\n      dup2\n        /* \"#utility.yul\":4312:4336   */\n      tag_71\n      jump\t// in\n    tag_96:\n        /* \"#utility.yul\":4305:4310   */\n      dup2\n        /* \"#utility.yul\":4302:4337   */\n      eq\n        /* \"#utility.yul\":4292:4355   */\n      tag_97\n      jumpi\n        /* \"#utility.yul\":4351:4352   */\n      0x00\n        /* \"#utility.yul\":4348:4349   */\n      dup1\n        /* \"#utility.yul\":4341:4353   */\n      revert\n        /* \"#utility.yul\":4292:4355   */\n    tag_97:\n        /* \"#utility.yul\":4239:4361   */\n      pop\n      jump\t// out\n\n    auxdata: 0xa26469706673582212209463d9487d37cecf05c926c5ed79a417a3ad71956760d4b5375796e856c4b4d464736f6c63430008070033\n}\n",
				"bytecode": {
					"linkReferences": {},
					"object": "60806040526101c860005534801561001657600080fd5b5061045c806100266000396000f3fe608060405234801561001057600080fd5b50600436106100575760003560e01c8063209877671461005c578063246ce3f91461008c578063aa243e05146100a8578063b8bd717f146100c4578063c6a898c5146100f4575b600080fd5b61007660048036038101906100719190610227565b610112565b6040516100839190610321565b60405180910390f35b6100a660048036038101906100a19190610227565b610160565b005b6100c260048036038101906100bd9190610227565b610174565b005b6100de60048036038101906100d99190610227565b6101bf565b6040516100eb9190610321565b60405180910390f35b6100fc61020c565b6040516101099190610321565b60405180910390f35b6000600a821115610158576040517f08c379a000000000000000000000000000000000000000000000000000000000815260040161014f90610301565b60405180910390fd5b819050919050565b607b811461017157610170610389565b5b50565b600a8111156101bc5733816040517fe2399bb80000000000000000000000000000000000000000000000000000000081526004016101b39291906102b8565b60405180910390fd5b50565b6000607b8214610204576040517f08c379a00000000000000000000000000000000000000000000000000000000081526004016101fb906102e1565b60405180910390fd5b819050919050565b60005481565b6000813590506102218161040f565b92915050565b60006020828403121561023d5761023c6103b8565b5b600061024b84828501610212565b91505092915050565b61025d8161034d565b82525050565b6000610270600d8361033c565b915061027b826103bd565b602082019050919050565b6000610293600e8361033c565b915061029e826103e6565b602082019050919050565b6102b28161037f565b82525050565b60006040820190506102cd6000830185610254565b6102da60208301846102a9565b9392505050565b600060208201905081810360008301526102fa81610263565b9050919050565b6000602082019050818103600083015261031a81610286565b9050919050565b600060208201905061033660008301846102a9565b92915050565b600082825260208201905092915050565b60006103588261035f565b9050919050565b600073ffffffffffffffffffffffffffffffffffffffff82169050919050565b6000819050919050565b7f4e487b7100000000000000000000000000000000000000000000000000000000600052600160045260246000fd5b600080fd5b7f75206973206e6f74203132332100000000000000000000000000000000000000600082015250565b7f6920697320746f6f206869676821000000000000000000000000000000000000600082015250565b6104188161037f565b811461042357600080fd5b5056fea26469706673582212209463d9487d37cecf05c926c5ed79a417a3ad71956760d4b5375796e856c4b4d464736f6c63430008070033",
					"opcodes": "PUSH1 0x80 PUSH1 0x40 MSTORE PUSH2 0x1C8 PUSH1 0x0 SSTORE CALLVALUE DUP1 ISZERO PUSH2 0x16 JUMPI PUSH1 0x0 DUP1 REVERT JUMPDEST POP PUSH2 0x45C DUP1 PUSH2 0x26 PUSH1 0x0 CODECOPY PUSH1 0x0 RETURN INVALID PUSH1 0x80 PUSH1 0x40 MSTORE CALLVALUE DUP1 ISZERO PUSH2 0x10 JUMPI PUSH1 0x0 DUP1 REVERT JUMPDEST POP PUSH1 0x4 CALLDATASIZE LT PUSH2 0x57 JUMPI PUSH1 0x0 CALLDATALOAD PUSH1 0xE0 SHR DUP1 PUSH4 0x20987767 EQ PUSH2 0x5C JUMPI DUP1 PUSH4 0x246CE3F9 EQ PUSH2 0x8C JUMPI DUP1 PUSH4 0xAA243E05 EQ PUSH2 0xA8 JUMPI DUP1 PUSH4 0xB8BD717F EQ PUSH2 0xC4 JUMPI DUP1 PUSH4 0xC6A898C5 EQ PUSH2 0xF4 JUMPI JUMPDEST PUSH1 0x0 DUP1 REVERT JUMPDEST PUSH2 0x76 PUSH1 0x4 DUP1 CALLDATASIZE SUB DUP2 ADD SWAP1 PUSH2 0x71 SWAP2 SWAP1 PUSH2 0x227 JUMP JUMPDEST PUSH2 0x112 JUMP JUMPDEST PUSH1 0x40 MLOAD PUSH2 0x83 SWAP2 SWAP1 PUSH2 0x321 JUMP JUMPDEST PUSH1 0x40 MLOAD DUP1 SWAP2 SUB SWAP1 RETURN JUMPDEST PUSH2 0xA6 PUSH1 0x4 DUP1 CALLDATASIZE SUB DUP2 ADD SWAP1 PUSH2 0xA1 SWAP2 SWAP1 PUSH2 0x227 JUMP JUMPDEST PUSH2 0x160 JUMP JUMPDEST STOP JUMPDEST PUSH2 0xC2 PUSH1 0x4 DUP1 CALLDATASIZE SUB DUP2 ADD SWAP1 PUSH2 0xBD SWAP2 SWAP1 PUSH2 0x227 JUMP JUMPDEST PUSH2 0x174 JUMP JUMPDEST STOP JUMPDEST PUSH2 0xDE PUSH1 0x4 DUP1 CALLDATASIZE SUB DUP2 ADD SWAP1 PUSH2 0xD9 SWAP2 SWAP1 PUSH2 0x227 JUMP JUMPDEST PUSH2 0x1BF JUMP JUMPDEST PUSH1 0x40 MLOAD PUSH2 0xEB SWAP2 SWAP1 PUSH2 0x321 JUMP JUMPDEST PUSH1 0x40 MLOAD DUP1 SWAP2 SUB SWAP1 RETURN JUMPDEST PUSH2 0xFC PUSH2 0x20C JUMP JUMPDEST PUSH1 0x40 MLOAD PUSH2 0x109 SWAP2 SWAP1 PUSH2 0x321 JUMP JUMPDEST PUSH1 0x40 MLOAD DUP1 SWAP2 SUB SWAP1 RETURN JUMPDEST PUSH1 0x0 PUSH1 0xA DUP3 GT ISZERO PUSH2 0x158 JUMPI PUSH1 0x40 MLOAD PUSH32 0x8C379A000000000000000000000000000000000000000000000000000000000 DUP2 MSTORE PUSH1 0x4 ADD PUSH2 0x14F SWAP1 PUSH2 0x301 JUMP JUMPDEST PUSH1 0x40 MLOAD DUP1 SWAP2 SUB SWAP1 REVERT JUMPDEST DUP2 SWAP1 POP SWAP2 SWAP1 POP JUMP JUMPDEST PUSH1 0x7B DUP2 EQ PUSH2 0x171 JUMPI PUSH2 0x170 PUSH2 0x389 JUMP JUMPDEST JUMPDEST POP JUMP JUMPDEST PUSH1 0xA DUP2 GT ISZERO PUSH2 0x1BC JUMPI CALLER DUP2 PUSH1 0x40 MLOAD PUSH32 0xE2399BB800000000000000000000000000000000000000000000000000000000 DUP2 MSTORE PUSH1 0x4 ADD PUSH2 0x1B3 SWAP3 SWAP2 SWAP1 PUSH2 0x2B8 JUMP JUMPDEST PUSH1 0x40 MLOAD DUP1 SWAP2 SUB SWAP1 REVERT JUMPDEST POP JUMP JUMPDEST PUSH1 0x0 PUSH1 0x7B DUP3 EQ PUSH2 0x204 JUMPI PUSH1 0x40 MLOAD PUSH32 0x8C379A000000000000000000000000000000000000000000000000000000000 DUP2 MSTORE PUSH1 0x4 ADD PUSH2 0x1FB SWAP1 PUSH2 0x2E1 JUMP JUMPDEST PUSH1 0x40 MLOAD DUP1 SWAP2 SUB SWAP1 REVERT JUMPDEST DUP2 SWAP1 POP SWAP2 SWAP1 POP JUMP JUMPDEST PUSH1 0x0 SLOAD DUP2 JUMP JUMPDEST PUSH1 0x0 DUP2 CALLDATALOAD SWAP1 POP PUSH2 0x221 DUP2 PUSH2 0x40F JUMP JUMPDEST SWAP3 SWAP2 POP POP JUMP JUMPDEST PUSH1 0x0 PUSH1 0x20 DUP3 DUP5 SUB SLT ISZERO PUSH2 0x23D JUMPI PUSH2 0x23C PUSH2 0x3B8 JUMP JUMPDEST JUMPDEST PUSH1 0x0 PUSH2 0x24B DUP5 DUP3 DUP6 ADD PUSH2 0x212 JUMP JUMPDEST SWAP2 POP POP SWAP3 SWAP2 POP POP JUMP JUMPDEST PUSH2 0x25D DUP2 PUSH2 0x34D JUMP JUMPDEST DUP3 MSTORE POP POP JUMP JUMPDEST PUSH1 0x0 PUSH2 0x270 PUSH1 0xD DUP4 PUSH2 0x33C JUMP JUMPDEST SWAP2 POP PUSH2 0x27B DUP3 PUSH2 0x3BD JUMP JUMPDEST PUSH1 0x20 DUP3 ADD SWAP1 POP SWAP2 SWAP1 POP JUMP JUMPDEST PUSH1 0x0 PUSH2 0x293 PUSH1 0xE DUP4 PUSH2 0x33C JUMP JUMPDEST SWAP2 POP PUSH2 0x29E DUP3 PUSH2 0x3E6 JUMP JUMPDEST PUSH1 0x20 DUP3 ADD SWAP1 POP SWAP2 SWAP1 POP JUMP JUMPDEST PUSH2 0x2B2 DUP2 PUSH2 0x37F JUMP JUMPDEST DUP3 MSTORE POP POP JUMP JUMPDEST PUSH1 0x0 PUSH1 0x40 DUP3 ADD SWAP1 POP PUSH2 0x2CD PUSH1 0x0 DUP4 ADD DUP6 PUSH2 0x254 JUMP JUMPDEST PUSH2 0x2DA PUSH1 0x20 DUP4 ADD DUP5 PUSH2 0x2A9 JUMP JUMPDEST SWAP4 SWAP3 POP POP POP JUMP JUMPDEST PUSH1 0x0 PUSH1 0x20 DUP3 ADD SWAP1 POP DUP2 DUP2 SUB PUSH1 0x0 DUP4 ADD MSTORE PUSH2 0x2FA DUP2 PUSH2 0x263 JUMP JUMPDEST SWAP1 POP SWAP2 SWAP1 POP JUMP JUMPDEST PUSH1 0x0 PUSH1 0x20 DUP3 ADD SWAP1 POP DUP2 DUP2 SUB PUSH1 0x0 DUP4 ADD MSTORE PUSH2 0x31A DUP2 PUSH2 0x286 JUMP JUMPDEST SWAP1 POP SWAP2 SWAP1 POP JUMP JUMPDEST PUSH1 0x0 PUSH1 0x20 DUP3 ADD SWAP1 POP PUSH2 0x336 PUSH1 0x0 DUP4 ADD DUP5 PUSH2 0x2A9 JUMP JUMPDEST SWAP3 SWAP2 POP POP JUMP JUMPDEST PUSH1 0x0 DUP3 DUP3 MSTORE PUSH1 0x20 DUP3 ADD SWAP1 POP SWAP3 SWAP2 POP POP JUMP JUMPDEST PUSH1 0x0 PUSH2 0x358 DUP3 PUSH2 0x35F JUMP JUMPDEST SWAP1 POP SWAP2 SWAP1 POP JUMP JUMPDEST PUSH1 0x0 PUSH20 0xFFFFFFFFFFFFFFFFFFFFFFFFFFFFFFFFFFFFFFFF DUP3 AND SWAP1 POP SWAP2 SWAP1 POP JUMP JUMPDEST PUSH1 0x0 DUP2 SWAP1 POP SWAP2 SWAP1 POP JUMP JUMPDEST PUSH32 0x4E487B7100000000000000000000000000000000000000000000000000000000 PUSH1 0x0 MSTORE PUSH1 0x1 PUSH1 0x4 MSTORE PUSH1 0x24 PUSH1 0x0 REVERT JUMPDEST PUSH1 0x0 DUP1 REVERT JUMPDEST PUSH32 0x75206973206E6F74203132332100000000000000000000000000000000000000 PUSH1 0x0 DUP3 ADD MSTORE POP JUMP JUMPDEST PUSH32 0x6920697320746F6F206869676821000000000000000000000000000000000000 PUSH1 0x0 DUP3 ADD MSTORE POP JUMP JUMPDEST PUSH2 0x418 DUP2 PUSH2 0x37F JUMP JUMPDEST DUP2 EQ PUSH2 0x423 JUMPI PUSH1 0x0 DUP1 REVERT JUMPDEST POP JUMP INVALID LOG2 PUSH5 0x6970667358 0x22 SLT KECCAK256 SWAP5 PUSH4 0xD9487D37 0xCE 0xCF SDIV 0xC9 0x26 0xC5 0xED PUSH26 0xA417A3AD71956760D4B5375796E856C4B4D464736F6C63430008 SMOD STOP CALLER "
				},
				"gasEstimates": {
					"creation": {
						"codeDepositCost": "223200",
						"executionCost": "22369",
						"totalCost": "245569"
					},
					"external": {
						"testAssert(uint256)": "456",
						"testCustomerError(uint256)": "infinite",
						"testRequire(uint256)": "infinite",
						"testRevert(uint256)": "infinite",
						"u()": "2495"
					}
				},
				"methodIdentifiers": {
					"testAssert(uint256)": "246ce3f9",
					"testCustomerError(uint256)": "aa243e05",
					"testRequire(uint256)": "b8bd717f",
					"testRevert(uint256)": "20987767",
					"u()": "c6a898c5"
				}
			},
			"storageLayout": {
				"storage": [
					{
						"astId": 4,
						"contract": "contract/ErrorDemo.sol:ErrorDemo",
						"label": "u",
						"offset": 0,
						"slot": "0",
						"type": "t_uint256"
					}
				],
				"types": {
					"t_uint256": {
						"encoding": "inplace",
						"label": "uint256",
						"numberOfBytes": "32"
					}
				}
			},
			"userdoc": {
				"kind": "user",
				"methods": {},
				"version": 1
			}
		}
	}
}