{
	"contract/Vehicle.sol": {
		"VehicleDemo": {
			"abi": [
				{
					"inputs": [],
					"name": "addToArrays",
					"outputs": [],
					"stateMutability": "nonpayable",
					"type": "function"
				},
				{
					"inputs": [],
					"name": "deleteCar",
					"outputs": [],
					"stateMutability": "nonpayable",
					"type": "function"
				},
				{
					"inputs": [],
					"name": "readAndModify",
					"outputs": [],
					"stateMutability": "nonpayable",
					"type": "function"
				},
				{
					"inputs": [
						{
							"internalType": "uint256",
							"name": "",
							"type": "uint256"
						}
					],
					"name": "vehicleArr",
					"outputs": [
						{
							"internalType": "string",
							"name": "make",
							"type": "string"
						},
						{
							"internalType": "uint16",
							"name": "year",
							"type": "uint16"
						},
						{
							"internalType": "address",
							"name": "owner",
							"type": "address"
						}
					],
					"stateMutability": "view",
					"type": "function"
				}
			],
			"devdoc": {
				"kind": "dev",
				"methods": {},
				"version": 1
			},
			"evm": {
				"assembly": "    /* \"contract/Vehicle.sol\":62:881  contract VehicleDemo {... */\n  mstore(0x40, 0x80)\n  callvalue\n  dup1\n  iszero\n  tag_1\n  jumpi\n  0x00\n  dup1\n  revert\ntag_1:\n  pop\n  dataSize(sub_0)\n  dup1\n  dataOffset(sub_0)\n  0x00\n  codecopy\n  0x00\n  return\nstop\n\nsub_0: assembly {\n        /* \"contract/Vehicle.sol\":62:881  contract VehicleDemo {... */\n      mstore(0x40, 0x80)\n      callvalue\n      dup1\n      iszero\n      tag_1\n      jumpi\n      0x00\n      dup1\n      revert\n    tag_1:\n      pop\n      jumpi(tag_2, lt(calldatasize, 0x04))\n      shr(0xe0, calldataload(0x00))\n      dup1\n      0x13a56e70\n      eq\n      tag_3\n      jumpi\n      dup1\n      0x9375d9a9\n      eq\n      tag_4\n      jumpi\n      dup1\n      0xbcce66c9\n      eq\n      tag_5\n      jumpi\n      dup1\n      0xdb8946ec\n      eq\n      tag_6\n      jumpi\n    tag_2:\n      0x00\n      dup1\n      revert\n        /* \"contract/Vehicle.sol\":637:790  function readAndModify() external {... */\n    tag_3:\n      tag_7\n      tag_8\n      jump\t// in\n    tag_7:\n      stop\n        /* \"contract/Vehicle.sol\":182:209  Vehicle[] public vehicleArr */\n    tag_4:\n      tag_9\n      0x04\n      dup1\n      calldatasize\n      sub\n      dup2\n      add\n      swap1\n      tag_10\n      swap2\n      swap1\n      tag_11\n      jump\t// in\n    tag_10:\n      tag_12\n      jump\t// in\n    tag_9:\n      mload(0x40)\n      tag_13\n      swap4\n      swap3\n      swap2\n      swap1\n      tag_14\n      jump\t// in\n    tag_13:\n      mload(0x40)\n      dup1\n      swap2\n      sub\n      swap1\n      return\n        /* \"contract/Vehicle.sol\":815:879  function deleteCar() external {... */\n    tag_5:\n      tag_15\n      tag_16\n      jump\t// in\n    tag_15:\n      stop\n        /* \"contract/Vehicle.sol\":235:597  function addToArrays() external {... */\n    tag_6:\n      tag_17\n      tag_18\n      jump\t// in\n    tag_17:\n      stop\n        /* \"contract/Vehicle.sol\":637:790  function readAndModify() external {... */\n    tag_8:\n        /* \"contract/Vehicle.sol\":681:704  Vehicle storage _index0 */\n      0x00\n        /* \"contract/Vehicle.sol\":707:717  vehicleArr */\n      dup1\n        /* \"contract/Vehicle.sol\":718:719  0 */\n      0x00\n        /* \"contract/Vehicle.sol\":707:720  vehicleArr[0] */\n      dup2\n      sload\n      dup2\n      lt\n      tag_20\n      jumpi\n      tag_21\n      tag_22\n      jump\t// in\n    tag_21:\n    tag_20:\n      swap1\n      0x00\n      mstore\n      keccak256(0x00, 0x20)\n      swap1\n      0x02\n      mul\n      add\n        /* \"contract/Vehicle.sol\":681:720  Vehicle storage _index0 = vehicleArr[0] */\n      swap1\n      pop\n        /* \"contract/Vehicle.sol\":730:739  uint year */\n      0x00\n        /* \"contract/Vehicle.sol\":742:749  _index0 */\n      dup2\n        /* \"contract/Vehicle.sol\":742:754  _index0.year */\n      0x01\n      add\n      0x00\n      swap1\n      sload\n      swap1\n      0x0100\n      exp\n      swap1\n      div\n      0xffff\n      and\n        /* \"contract/Vehicle.sol\":730:754  uint year = _index0.year */\n      0xffff\n      and\n      swap1\n      pop\n        /* \"contract/Vehicle.sol\":779:783  1000 */\n      0x03e8\n        /* \"contract/Vehicle.sol\":764:771  _index0 */\n      dup3\n        /* \"contract/Vehicle.sol\":764:776  _index0.year */\n      0x01\n      add\n      0x00\n        /* \"contract/Vehicle.sol\":764:783  _index0.year = 1000 */\n      0x0100\n      exp\n      dup2\n      sload\n      dup2\n      0xffff\n      mul\n      not\n      and\n      swap1\n      dup4\n      0xffff\n      and\n      mul\n      or\n      swap1\n      sstore\n      pop\n        /* \"contract/Vehicle.sol\":671:790  {... */\n      pop\n      pop\n        /* \"contract/Vehicle.sol\":637:790  function readAndModify() external {... */\n      jump\t// out\n        /* \"contract/Vehicle.sol\":182:209  Vehicle[] public vehicleArr */\n    tag_12:\n      0x00\n      dup2\n      dup2\n      sload\n      dup2\n      lt\n      tag_24\n      jumpi\n      0x00\n      dup1\n      revert\n    tag_24:\n      swap1\n      0x00\n      mstore\n      keccak256(0x00, 0x20)\n      swap1\n      0x02\n      mul\n      add\n      0x00\n      swap2\n      pop\n      swap1\n      pop\n      dup1\n      0x00\n      add\n      dup1\n      sload\n      tag_26\n      swap1\n      tag_27\n      jump\t// in\n    tag_26:\n      dup1\n      0x1f\n      add\n      0x20\n      dup1\n      swap2\n      div\n      mul\n      0x20\n      add\n      mload(0x40)\n      swap1\n      dup2\n      add\n      0x40\n      mstore\n      dup1\n      swap3\n      swap2\n      swap1\n      dup2\n      dup2\n      mstore\n      0x20\n      add\n      dup3\n      dup1\n      sload\n      tag_28\n      swap1\n      tag_27\n      jump\t// in\n    tag_28:\n      dup1\n      iszero\n      tag_29\n      jumpi\n      dup1\n      0x1f\n      lt\n      tag_30\n      jumpi\n      0x0100\n      dup1\n      dup4\n      sload\n      div\n      mul\n      dup4\n      mstore\n      swap2\n      0x20\n      add\n      swap2\n      jump(tag_29)\n    tag_30:\n      dup3\n      add\n      swap2\n      swap1\n      0x00\n      mstore\n      keccak256(0x00, 0x20)\n      swap1\n    tag_31:\n      dup2\n      sload\n      dup2\n      mstore\n      swap1\n      0x01\n      add\n      swap1\n      0x20\n      add\n      dup1\n      dup4\n      gt\n      tag_31\n      jumpi\n      dup3\n      swap1\n      sub\n      0x1f\n      and\n      dup3\n      add\n      swap2\n    tag_29:\n      pop\n      pop\n      pop\n      pop\n      pop\n      swap1\n      dup1\n      0x01\n      add\n      0x00\n      swap1\n      sload\n      swap1\n      0x0100\n      exp\n      swap1\n      div\n      0xffff\n      and\n      swap1\n      dup1\n      0x01\n      add\n      0x02\n      swap1\n      sload\n      swap1\n      0x0100\n      exp\n      swap1\n      div\n      0xffffffffffffffffffffffffffffffffffffffff\n      and\n      swap1\n      pop\n      dup4\n      jump\t// out\n        /* \"contract/Vehicle.sol\":815:879  function deleteCar() external {... */\n    tag_16:\n        /* \"contract/Vehicle.sol\":862:872  vehicleArr */\n      0x00\n      dup1\n        /* \"contract/Vehicle.sol\":855:872  delete vehicleArr */\n      tag_33\n      swap2\n      swap1\n      tag_34\n      jump\t// in\n    tag_33:\n        /* \"contract/Vehicle.sol\":815:879  function deleteCar() external {... */\n      jump\t// out\n        /* \"contract/Vehicle.sol\":235:597  function addToArrays() external {... */\n    tag_18:\n        /* \"contract/Vehicle.sol\":277:287  vehicleArr */\n      0x00\n        /* \"contract/Vehicle.sol\":306:362  Vehicle({make: \"Toyota\", year: 2000, owner: msg.sender}) */\n      mload(0x40)\n      dup1\n      0x60\n      add\n      0x40\n      mstore\n      dup1\n      mload(0x40)\n      dup1\n      0x40\n      add\n      0x40\n      mstore\n      dup1\n      0x06\n      dup2\n      mstore\n      0x20\n      add\n      0x546f796f74610000000000000000000000000000000000000000000000000000\n      dup2\n      mstore\n      pop\n      dup2\n      mstore\n      0x20\n      add\n        /* \"contract/Vehicle.sol\":337:341  2000 */\n      0x07d0\n        /* \"contract/Vehicle.sol\":306:362  Vehicle({make: \"Toyota\", year: 2000, owner: msg.sender}) */\n      0xffff\n      and\n      dup2\n      mstore\n      0x20\n      add\n        /* \"contract/Vehicle.sol\":350:360  msg.sender */\n      caller\n        /* \"contract/Vehicle.sol\":306:362  Vehicle({make: \"Toyota\", year: 2000, owner: msg.sender}) */\n      0xffffffffffffffffffffffffffffffffffffffff\n      and\n      dup2\n      mstore\n      pop\n        /* \"contract/Vehicle.sol\":277:372  vehicleArr.push(... */\n      swap1\n      dup1\n      0x01\n      dup2\n      sload\n      add\n      dup1\n      dup3\n      sstore\n      dup1\n      swap2\n      pop\n      pop\n      0x01\n      swap1\n      sub\n      swap1\n      0x00\n      mstore\n      keccak256(0x00, 0x20)\n      swap1\n      0x02\n      mul\n      add\n      0x00\n      swap1\n      swap2\n      swap1\n      swap2\n      swap1\n      swap2\n      pop\n      0x00\n      dup3\n      add\n      mload\n      dup2\n      0x00\n      add\n      swap1\n      dup2\n      tag_37\n      swap2\n      swap1\n      tag_38\n      jump\t// in\n    tag_37:\n      pop\n      0x20\n      dup3\n      add\n      mload\n      dup2\n      0x01\n      add\n      exp(0x0100, 0x00)\n      dup2\n      sload\n      dup2\n      0xffff\n      mul\n      not\n      and\n      swap1\n      dup4\n      0xffff\n      and\n      mul\n      or\n      swap1\n      sstore\n      pop\n      0x40\n      dup3\n      add\n      mload\n      dup2\n      0x01\n      add\n      exp(0x0100, 0x02)\n      dup2\n      sload\n      dup2\n      0xffffffffffffffffffffffffffffffffffffffff\n      mul\n      not\n      and\n      swap1\n      dup4\n      0xffffffffffffffffffffffffffffffffffffffff\n      and\n      mul\n      or\n      swap1\n      sstore\n      pop\n      pop\n      pop\n        /* \"contract/Vehicle.sol\":382:392  vehicleArr */\n      0x00\n        /* \"contract/Vehicle.sol\":398:433  Vehicle(\"Toyota\", 2001, msg.sender) */\n      mload(0x40)\n      dup1\n      0x60\n      add\n      0x40\n      mstore\n      dup1\n      mload(0x40)\n      dup1\n      0x40\n      add\n      0x40\n      mstore\n      dup1\n      0x06\n      dup2\n      mstore\n      0x20\n      add\n      0x546f796f74610000000000000000000000000000000000000000000000000000\n      dup2\n      mstore\n      pop\n      dup2\n      mstore\n      0x20\n      add\n        /* \"contract/Vehicle.sol\":416:420  2001 */\n      0x07d1\n        /* \"contract/Vehicle.sol\":398:433  Vehicle(\"Toyota\", 2001, msg.sender) */\n      0xffff\n      and\n      dup2\n      mstore\n      0x20\n      add\n        /* \"contract/Vehicle.sol\":422:432  msg.sender */\n      caller\n        /* \"contract/Vehicle.sol\":398:433  Vehicle(\"Toyota\", 2001, msg.sender) */\n      0xffffffffffffffffffffffffffffffffffffffff\n      and\n      dup2\n      mstore\n      pop\n        /* \"contract/Vehicle.sol\":382:434  vehicleArr.push(Vehicle(\"Toyota\", 2001, msg.sender)) */\n      swap1\n      dup1\n      0x01\n      dup2\n      sload\n      add\n      dup1\n      dup3\n      sstore\n      dup1\n      swap2\n      pop\n      pop\n      0x01\n      swap1\n      sub\n      swap1\n      0x00\n      mstore\n      keccak256(0x00, 0x20)\n      swap1\n      0x02\n      mul\n      add\n      0x00\n      swap1\n      swap2\n      swap1\n      swap2\n      swap1\n      swap2\n      pop\n      0x00\n      dup3\n      add\n      mload\n      dup2\n      0x00\n      add\n      swap1\n      dup2\n      tag_40\n      swap2\n      swap1\n      tag_38\n      jump\t// in\n    tag_40:\n      pop\n      0x20\n      dup3\n      add\n      mload\n      dup2\n      0x01\n      add\n      exp(0x0100, 0x00)\n      dup2\n      sload\n      dup2\n      0xffff\n      mul\n      not\n      and\n      swap1\n      dup4\n      0xffff\n      and\n      mul\n      or\n      swap1\n      sstore\n      pop\n      0x40\n      dup3\n      add\n      mload\n      dup2\n      0x01\n      add\n      exp(0x0100, 0x02)\n      dup2\n      sload\n      dup2\n      0xffffffffffffffffffffffffffffffffffffffff\n      mul\n      not\n      and\n      swap1\n      dup4\n      0xffffffffffffffffffffffffffffffffffffffff\n      and\n      mul\n      or\n      swap1\n      sstore\n      pop\n      pop\n      pop\n        /* \"contract/Vehicle.sol\":444:465  Vehicle memory single */\n      tag_41\n      tag_42\n      jump\t// in\n    tag_41:\n        /* \"contract/Vehicle.sol\":475:494  single.make = \"byd\" */\n      mload(0x40)\n      dup1\n      0x40\n      add\n      0x40\n      mstore\n      dup1\n      0x03\n      dup2\n      mstore\n      0x20\n      add\n      0x6279640000000000000000000000000000000000000000000000000000000000\n      dup2\n      mstore\n      pop\n        /* \"contract/Vehicle.sol\":475:481  single */\n      dup2\n        /* \"contract/Vehicle.sol\":475:486  single.make */\n      0x00\n      add\n        /* \"contract/Vehicle.sol\":475:494  single.make = \"byd\" */\n      dup2\n      swap1\n      mstore\n      pop\n        /* \"contract/Vehicle.sol\":518:522  2002 */\n      0x07d2\n        /* \"contract/Vehicle.sol\":504:510  single */\n      dup2\n        /* \"contract/Vehicle.sol\":504:515  single.year */\n      0x20\n      add\n        /* \"contract/Vehicle.sol\":504:522  single.year = 2002 */\n      swap1\n      0xffff\n      and\n      swap1\n      dup2\n      0xffff\n      and\n      dup2\n      mstore\n      pop\n      pop\n        /* \"contract/Vehicle.sol\":547:557  msg.sender */\n      caller\n        /* \"contract/Vehicle.sol\":532:538  single */\n      dup2\n        /* \"contract/Vehicle.sol\":532:544  single.owner */\n      0x40\n      add\n        /* \"contract/Vehicle.sol\":532:557  single.owner = msg.sender */\n      swap1\n      0xffffffffffffffffffffffffffffffffffffffff\n      and\n      swap1\n      dup2\n      0xffffffffffffffffffffffffffffffffffffffff\n      and\n      dup2\n      mstore\n      pop\n      pop\n        /* \"contract/Vehicle.sol\":567:577  vehicleArr */\n      0x00\n        /* \"contract/Vehicle.sol\":583:589  single */\n      dup2\n        /* \"contract/Vehicle.sol\":567:590  vehicleArr.push(single) */\n      swap1\n      dup1\n      0x01\n      dup2\n      sload\n      add\n      dup1\n      dup3\n      sstore\n      dup1\n      swap2\n      pop\n      pop\n      0x01\n      swap1\n      sub\n      swap1\n      0x00\n      mstore\n      keccak256(0x00, 0x20)\n      swap1\n      0x02\n      mul\n      add\n      0x00\n      swap1\n      swap2\n      swap1\n      swap2\n      swap1\n      swap2\n      pop\n      0x00\n      dup3\n      add\n      mload\n      dup2\n      0x00\n      add\n      swap1\n      dup2\n      tag_44\n      swap2\n      swap1\n      tag_38\n      jump\t// in\n    tag_44:\n      pop\n      0x20\n      dup3\n      add\n      mload\n      dup2\n      0x01\n      add\n      exp(0x0100, 0x00)\n      dup2\n      sload\n      dup2\n      0xffff\n      mul\n      not\n      and\n      swap1\n      dup4\n      0xffff\n      and\n      mul\n      or\n      swap1\n      sstore\n      pop\n      0x40\n      dup3\n      add\n      mload\n      dup2\n      0x01\n      add\n      exp(0x0100, 0x02)\n      dup2\n      sload\n      dup2\n      0xffffffffffffffffffffffffffffffffffffffff\n      mul\n      not\n      and\n      swap1\n      dup4\n      0xffffffffffffffffffffffffffffffffffffffff\n      and\n      mul\n      or\n      swap1\n      sstore\n      pop\n      pop\n      pop\n        /* \"contract/Vehicle.sol\":267:597  {... */\n      pop\n        /* \"contract/Vehicle.sol\":235:597  function addToArrays() external {... */\n      jump\t// out\n    tag_34:\n      pop\n      dup1\n      sload\n      0x00\n      dup3\n      sstore\n      0x02\n      mul\n      swap1\n      0x00\n      mstore\n      keccak256(0x00, 0x20)\n      swap1\n      dup2\n      add\n      swap1\n      tag_46\n      swap2\n      swap1\n      tag_47\n      jump\t// in\n    tag_46:\n      pop\n      jump\t// out\n    tag_42:\n      mload(0x40)\n      dup1\n      0x60\n      add\n      0x40\n      mstore\n      dup1\n      0x60\n      dup2\n      mstore\n      0x20\n      add\n      and(0xffff, 0x00)\n      dup2\n      mstore\n      0x20\n      add\n      and(0xffffffffffffffffffffffffffffffffffffffff, 0x00)\n      dup2\n      mstore\n      pop\n      swap1\n      jump\t// out\n    tag_47:\n    tag_48:\n      dup1\n      dup3\n      gt\n      iszero\n      tag_49\n      jumpi\n      0x00\n      dup1\n      dup3\n      add\n      0x00\n      tag_50\n      swap2\n      swap1\n      tag_51\n      jump\t// in\n    tag_50:\n      0x01\n      dup3\n      add\n      exp(0x0100, 0x00)\n      dup2\n      sload\n      swap1\n      0xffff\n      mul\n      not\n      and\n      swap1\n      sstore\n      0x01\n      dup3\n      add\n      exp(0x0100, 0x02)\n      dup2\n      sload\n      swap1\n      0xffffffffffffffffffffffffffffffffffffffff\n      mul\n      not\n      and\n      swap1\n      sstore\n      pop\n      0x02\n      add\n      jump(tag_48)\n    tag_49:\n      pop\n      swap1\n      jump\t// out\n    tag_51:\n      pop\n      dup1\n      sload\n      tag_52\n      swap1\n      tag_27\n      jump\t// in\n    tag_52:\n      0x00\n      dup3\n      sstore\n      dup1\n      0x1f\n      lt\n      tag_54\n      jumpi\n      pop\n      jump(tag_53)\n    tag_54:\n      0x1f\n      add\n      0x20\n      swap1\n      div\n      swap1\n      0x00\n      mstore\n      keccak256(0x00, 0x20)\n      swap1\n      dup2\n      add\n      swap1\n      tag_55\n      swap2\n      swap1\n      tag_56\n      jump\t// in\n    tag_55:\n    tag_53:\n      pop\n      jump\t// out\n    tag_56:\n    tag_57:\n      dup1\n      dup3\n      gt\n      iszero\n      tag_58\n      jumpi\n      0x00\n      dup2\n      0x00\n      swap1\n      sstore\n      pop\n      0x01\n      add\n      jump(tag_57)\n    tag_58:\n      pop\n      swap1\n      jump\t// out\n        /* \"#utility.yul\":88:205   */\n    tag_60:\n        /* \"#utility.yul\":197:198   */\n      0x00\n        /* \"#utility.yul\":194:195   */\n      dup1\n        /* \"#utility.yul\":187:199   */\n      revert\n        /* \"#utility.yul\":334:411   */\n    tag_62:\n        /* \"#utility.yul\":371:378   */\n      0x00\n        /* \"#utility.yul\":400:405   */\n      dup2\n        /* \"#utility.yul\":389:405   */\n      swap1\n      pop\n        /* \"#utility.yul\":334:411   */\n      swap2\n      swap1\n      pop\n      jump\t// out\n        /* \"#utility.yul\":417:539   */\n    tag_63:\n        /* \"#utility.yul\":490:514   */\n      tag_98\n        /* \"#utility.yul\":508:513   */\n      dup2\n        /* \"#utility.yul\":490:514   */\n      tag_62\n      jump\t// in\n    tag_98:\n        /* \"#utility.yul\":483:488   */\n      dup2\n        /* \"#utility.yul\":480:515   */\n      eq\n        /* \"#utility.yul\":470:533   */\n      tag_99\n      jumpi\n        /* \"#utility.yul\":529:530   */\n      0x00\n        /* \"#utility.yul\":526:527   */\n      dup1\n        /* \"#utility.yul\":519:531   */\n      revert\n        /* \"#utility.yul\":470:533   */\n    tag_99:\n        /* \"#utility.yul\":417:539   */\n      pop\n      jump\t// out\n        /* \"#utility.yul\":545:684   */\n    tag_64:\n        /* \"#utility.yul\":591:596   */\n      0x00\n        /* \"#utility.yul\":629:635   */\n      dup2\n        /* \"#utility.yul\":616:636   */\n      calldataload\n        /* \"#utility.yul\":607:636   */\n      swap1\n      pop\n        /* \"#utility.yul\":645:678   */\n      tag_101\n        /* \"#utility.yul\":672:677   */\n      dup2\n        /* \"#utility.yul\":645:678   */\n      tag_63\n      jump\t// in\n    tag_101:\n        /* \"#utility.yul\":545:684   */\n      swap3\n      swap2\n      pop\n      pop\n      jump\t// out\n        /* \"#utility.yul\":690:1019   */\n    tag_11:\n        /* \"#utility.yul\":749:755   */\n      0x00\n        /* \"#utility.yul\":798:800   */\n      0x20\n        /* \"#utility.yul\":786:795   */\n      dup3\n        /* \"#utility.yul\":777:784   */\n      dup5\n        /* \"#utility.yul\":773:796   */\n      sub\n        /* \"#utility.yul\":769:801   */\n      slt\n        /* \"#utility.yul\":766:885   */\n      iszero\n      tag_103\n      jumpi\n        /* \"#utility.yul\":804:883   */\n      tag_104\n      tag_60\n      jump\t// in\n    tag_104:\n        /* \"#utility.yul\":766:885   */\n    tag_103:\n        /* \"#utility.yul\":924:925   */\n      0x00\n        /* \"#utility.yul\":949:1002   */\n      tag_105\n        /* \"#utility.yul\":994:1001   */\n      dup5\n        /* \"#utility.yul\":985:991   */\n      dup3\n        /* \"#utility.yul\":974:983   */\n      dup6\n        /* \"#utility.yul\":970:992   */\n      add\n        /* \"#utility.yul\":949:1002   */\n      tag_64\n      jump\t// in\n    tag_105:\n        /* \"#utility.yul\":939:1002   */\n      swap2\n      pop\n        /* \"#utility.yul\":895:1012   */\n      pop\n        /* \"#utility.yul\":690:1019   */\n      swap3\n      swap2\n      pop\n      pop\n      jump\t// out\n        /* \"#utility.yul\":1025:1124   */\n    tag_65:\n        /* \"#utility.yul\":1077:1083   */\n      0x00\n        /* \"#utility.yul\":1111:1116   */\n      dup2\n        /* \"#utility.yul\":1105:1117   */\n      mload\n        /* \"#utility.yul\":1095:1117   */\n      swap1\n      pop\n        /* \"#utility.yul\":1025:1124   */\n      swap2\n      swap1\n      pop\n      jump\t// out\n        /* \"#utility.yul\":1130:1299   */\n    tag_66:\n        /* \"#utility.yul\":1214:1225   */\n      0x00\n        /* \"#utility.yul\":1248:1254   */\n      dup3\n        /* \"#utility.yul\":1243:1246   */\n      dup3\n        /* \"#utility.yul\":1236:1255   */\n      mstore\n        /* \"#utility.yul\":1288:1292   */\n      0x20\n        /* \"#utility.yul\":1283:1286   */\n      dup3\n        /* \"#utility.yul\":1279:1293   */\n      add\n        /* \"#utility.yul\":1264:1293   */\n      swap1\n      pop\n        /* \"#utility.yul\":1130:1299   */\n      swap3\n      swap2\n      pop\n      pop\n      jump\t// out\n        /* \"#utility.yul\":1305:1444   */\n    tag_67:\n        /* \"#utility.yul\":1394:1400   */\n      dup3\n        /* \"#utility.yul\":1389:1392   */\n      dup2\n        /* \"#utility.yul\":1384:1387   */\n      dup4\n        /* \"#utility.yul\":1378:1401   */\n      mcopy\n        /* \"#utility.yul\":1435:1436   */\n      0x00\n        /* \"#utility.yul\":1426:1432   */\n      dup4\n        /* \"#utility.yul\":1421:1424   */\n      dup4\n        /* \"#utility.yul\":1417:1433   */\n      add\n        /* \"#utility.yul\":1410:1437   */\n      mstore\n        /* \"#utility.yul\":1305:1444   */\n      pop\n      pop\n      pop\n      jump\t// out\n        /* \"#utility.yul\":1450:1552   */\n    tag_68:\n        /* \"#utility.yul\":1491:1497   */\n      0x00\n        /* \"#utility.yul\":1542:1544   */\n      0x1f\n        /* \"#utility.yul\":1538:1545   */\n      not\n        /* \"#utility.yul\":1533:1535   */\n      0x1f\n        /* \"#utility.yul\":1526:1531   */\n      dup4\n        /* \"#utility.yul\":1522:1536   */\n      add\n        /* \"#utility.yul\":1518:1546   */\n      and\n        /* \"#utility.yul\":1508:1546   */\n      swap1\n      pop\n        /* \"#utility.yul\":1450:1552   */\n      swap2\n      swap1\n      pop\n      jump\t// out\n        /* \"#utility.yul\":1558:1935   */\n    tag_69:\n        /* \"#utility.yul\":1646:1649   */\n      0x00\n        /* \"#utility.yul\":1674:1713   */\n      tag_111\n        /* \"#utility.yul\":1707:1712   */\n      dup3\n        /* \"#utility.yul\":1674:1713   */\n      tag_65\n      jump\t// in\n    tag_111:\n        /* \"#utility.yul\":1729:1800   */\n      tag_112\n        /* \"#utility.yul\":1793:1799   */\n      dup2\n        /* \"#utility.yul\":1788:1791   */\n      dup6\n        /* \"#utility.yul\":1729:1800   */\n      tag_66\n      jump\t// in\n    tag_112:\n        /* \"#utility.yul\":1722:1800   */\n      swap4\n      pop\n        /* \"#utility.yul\":1809:1874   */\n      tag_113\n        /* \"#utility.yul\":1867:1873   */\n      dup2\n        /* \"#utility.yul\":1862:1865   */\n      dup6\n        /* \"#utility.yul\":1855:1859   */\n      0x20\n        /* \"#utility.yul\":1848:1853   */\n      dup7\n        /* \"#utility.yul\":1844:1860   */\n      add\n        /* \"#utility.yul\":1809:1874   */\n      tag_67\n      jump\t// in\n    tag_113:\n        /* \"#utility.yul\":1899:1928   */\n      tag_114\n        /* \"#utility.yul\":1921:1927   */\n      dup2\n        /* \"#utility.yul\":1899:1928   */\n      tag_68\n      jump\t// in\n    tag_114:\n        /* \"#utility.yul\":1894:1897   */\n      dup5\n        /* \"#utility.yul\":1890:1929   */\n      add\n        /* \"#utility.yul\":1883:1929   */\n      swap2\n      pop\n        /* \"#utility.yul\":1650:1935   */\n      pop\n        /* \"#utility.yul\":1558:1935   */\n      swap3\n      swap2\n      pop\n      pop\n      jump\t// out\n        /* \"#utility.yul\":1941:2030   */\n    tag_70:\n        /* \"#utility.yul\":1977:1984   */\n      0x00\n        /* \"#utility.yul\":2017:2023   */\n      0xffff\n        /* \"#utility.yul\":2010:2015   */\n      dup3\n        /* \"#utility.yul\":2006:2024   */\n      and\n        /* \"#utility.yul\":1995:2024   */\n      swap1\n      pop\n        /* \"#utility.yul\":1941:2030   */\n      swap2\n      swap1\n      pop\n      jump\t// out\n        /* \"#utility.yul\":2036:2151   */\n    tag_71:\n        /* \"#utility.yul\":2121:2144   */\n      tag_117\n        /* \"#utility.yul\":2138:2143   */\n      dup2\n        /* \"#utility.yul\":2121:2144   */\n      tag_70\n      jump\t// in\n    tag_117:\n        /* \"#utility.yul\":2116:2119   */\n      dup3\n        /* \"#utility.yul\":2109:2145   */\n      mstore\n        /* \"#utility.yul\":2036:2151   */\n      pop\n      pop\n      jump\t// out\n        /* \"#utility.yul\":2157:2283   */\n    tag_72:\n        /* \"#utility.yul\":2194:2201   */\n      0x00\n        /* \"#utility.yul\":2234:2276   */\n      0xffffffffffffffffffffffffffffffffffffffff\n        /* \"#utility.yul\":2227:2232   */\n      dup3\n        /* \"#utility.yul\":2223:2277   */\n      and\n        /* \"#utility.yul\":2212:2277   */\n      swap1\n      pop\n        /* \"#utility.yul\":2157:2283   */\n      swap2\n      swap1\n      pop\n      jump\t// out\n        /* \"#utility.yul\":2289:2385   */\n    tag_73:\n        /* \"#utility.yul\":2326:2333   */\n      0x00\n        /* \"#utility.yul\":2355:2379   */\n      tag_120\n        /* \"#utility.yul\":2373:2378   */\n      dup3\n        /* \"#utility.yul\":2355:2379   */\n      tag_72\n      jump\t// in\n    tag_120:\n        /* \"#utility.yul\":2344:2379   */\n      swap1\n      pop\n        /* \"#utility.yul\":2289:2385   */\n      swap2\n      swap1\n      pop\n      jump\t// out\n        /* \"#utility.yul\":2391:2509   */\n    tag_74:\n        /* \"#utility.yul\":2478:2502   */\n      tag_122\n        /* \"#utility.yul\":2496:2501   */\n      dup2\n        /* \"#utility.yul\":2478:2502   */\n      tag_73\n      jump\t// in\n    tag_122:\n        /* \"#utility.yul\":2473:2476   */\n      dup3\n        /* \"#utility.yul\":2466:2503   */\n      mstore\n        /* \"#utility.yul\":2391:2509   */\n      pop\n      pop\n      jump\t// out\n        /* \"#utility.yul\":2515:3044   */\n    tag_14:\n        /* \"#utility.yul\":2682:2686   */\n      0x00\n        /* \"#utility.yul\":2720:2722   */\n      0x60\n        /* \"#utility.yul\":2709:2718   */\n      dup3\n        /* \"#utility.yul\":2705:2723   */\n      add\n        /* \"#utility.yul\":2697:2723   */\n      swap1\n      pop\n        /* \"#utility.yul\":2769:2778   */\n      dup2\n        /* \"#utility.yul\":2763:2767   */\n      dup2\n        /* \"#utility.yul\":2759:2779   */\n      sub\n        /* \"#utility.yul\":2755:2756   */\n      0x00\n        /* \"#utility.yul\":2744:2753   */\n      dup4\n        /* \"#utility.yul\":2740:2757   */\n      add\n        /* \"#utility.yul\":2733:2780   */\n      mstore\n        /* \"#utility.yul\":2797:2875   */\n      tag_124\n        /* \"#utility.yul\":2870:2874   */\n      dup2\n        /* \"#utility.yul\":2861:2867   */\n      dup7\n        /* \"#utility.yul\":2797:2875   */\n      tag_69\n      jump\t// in\n    tag_124:\n        /* \"#utility.yul\":2789:2875   */\n      swap1\n      pop\n        /* \"#utility.yul\":2885:2955   */\n      tag_125\n        /* \"#utility.yul\":2951:2953   */\n      0x20\n        /* \"#utility.yul\":2940:2949   */\n      dup4\n        /* \"#utility.yul\":2936:2954   */\n      add\n        /* \"#utility.yul\":2927:2933   */\n      dup6\n        /* \"#utility.yul\":2885:2955   */\n      tag_71\n      jump\t// in\n    tag_125:\n        /* \"#utility.yul\":2965:3037   */\n      tag_126\n        /* \"#utility.yul\":3033:3035   */\n      0x40\n        /* \"#utility.yul\":3022:3031   */\n      dup4\n        /* \"#utility.yul\":3018:3036   */\n      add\n        /* \"#utility.yul\":3009:3015   */\n      dup5\n        /* \"#utility.yul\":2965:3037   */\n      tag_74\n      jump\t// in\n    tag_126:\n        /* \"#utility.yul\":2515:3044   */\n      swap5\n      swap4\n      pop\n      pop\n      pop\n      pop\n      jump\t// out\n        /* \"#utility.yul\":3050:3230   */\n    tag_22:\n        /* \"#utility.yul\":3098:3175   */\n      0x4e487b7100000000000000000000000000000000000000000000000000000000\n        /* \"#utility.yul\":3095:3096   */\n      0x00\n        /* \"#utility.yul\":3088:3176   */\n      mstore\n        /* \"#utility.yul\":3195:3199   */\n      0x32\n        /* \"#utility.yul\":3192:3193   */\n      0x04\n        /* \"#utility.yul\":3185:3200   */\n      mstore\n        /* \"#utility.yul\":3219:3223   */\n      0x24\n        /* \"#utility.yul\":3216:3217   */\n      0x00\n        /* \"#utility.yul\":3209:3224   */\n      revert\n        /* \"#utility.yul\":3236:3416   */\n    tag_75:\n        /* \"#utility.yul\":3284:3361   */\n      0x4e487b7100000000000000000000000000000000000000000000000000000000\n        /* \"#utility.yul\":3281:3282   */\n      0x00\n        /* \"#utility.yul\":3274:3362   */\n      mstore\n        /* \"#utility.yul\":3381:3385   */\n      0x22\n        /* \"#utility.yul\":3378:3379   */\n      0x04\n        /* \"#utility.yul\":3371:3386   */\n      mstore\n        /* \"#utility.yul\":3405:3409   */\n      0x24\n        /* \"#utility.yul\":3402:3403   */\n      0x00\n        /* \"#utility.yul\":3395:3410   */\n      revert\n        /* \"#utility.yul\":3422:3742   */\n    tag_27:\n        /* \"#utility.yul\":3466:3472   */\n      0x00\n        /* \"#utility.yul\":3503:3504   */\n      0x02\n        /* \"#utility.yul\":3497:3501   */\n      dup3\n        /* \"#utility.yul\":3493:3505   */\n      div\n        /* \"#utility.yul\":3483:3505   */\n      swap1\n      pop\n        /* \"#utility.yul\":3550:3551   */\n      0x01\n        /* \"#utility.yul\":3544:3548   */\n      dup3\n        /* \"#utility.yul\":3540:3552   */\n      and\n        /* \"#utility.yul\":3571:3589   */\n      dup1\n        /* \"#utility.yul\":3561:3642   */\n      tag_130\n      jumpi\n        /* \"#utility.yul\":3627:3631   */\n      0x7f\n        /* \"#utility.yul\":3619:3625   */\n      dup3\n        /* \"#utility.yul\":3615:3632   */\n      and\n        /* \"#utility.yul\":3605:3632   */\n      swap2\n      pop\n        /* \"#utility.yul\":3561:3642   */\n    tag_130:\n        /* \"#utility.yul\":3689:3691   */\n      0x20\n        /* \"#utility.yul\":3681:3687   */\n      dup3\n        /* \"#utility.yul\":3678:3692   */\n      lt\n        /* \"#utility.yul\":3658:3676   */\n      dup2\n        /* \"#utility.yul\":3655:3693   */\n      sub\n        /* \"#utility.yul\":3652:3736   */\n      tag_131\n      jumpi\n        /* \"#utility.yul\":3708:3726   */\n      tag_132\n      tag_75\n      jump\t// in\n    tag_132:\n        /* \"#utility.yul\":3652:3736   */\n    tag_131:\n        /* \"#utility.yul\":3473:3742   */\n      pop\n        /* \"#utility.yul\":3422:3742   */\n      swap2\n      swap1\n      pop\n      jump\t// out\n        /* \"#utility.yul\":3748:3928   */\n    tag_76:\n        /* \"#utility.yul\":3796:3873   */\n      0x4e487b7100000000000000000000000000000000000000000000000000000000\n        /* \"#utility.yul\":3793:3794   */\n      0x00\n        /* \"#utility.yul\":3786:3874   */\n      mstore\n        /* \"#utility.yul\":3893:3897   */\n      0x41\n        /* \"#utility.yul\":3890:3891   */\n      0x04\n        /* \"#utility.yul\":3883:3898   */\n      mstore\n        /* \"#utility.yul\":3917:3921   */\n      0x24\n        /* \"#utility.yul\":3914:3915   */\n      0x00\n        /* \"#utility.yul\":3907:3922   */\n      revert\n        /* \"#utility.yul\":3934:4075   */\n    tag_77:\n        /* \"#utility.yul\":3983:3987   */\n      0x00\n        /* \"#utility.yul\":4006:4009   */\n      dup2\n        /* \"#utility.yul\":3998:4009   */\n      swap1\n      pop\n        /* \"#utility.yul\":4029:4032   */\n      dup2\n        /* \"#utility.yul\":4026:4027   */\n      0x00\n        /* \"#utility.yul\":4019:4033   */\n      mstore\n        /* \"#utility.yul\":4063:4067   */\n      0x20\n        /* \"#utility.yul\":4060:4061   */\n      0x00\n        /* \"#utility.yul\":4050:4068   */\n      keccak256\n        /* \"#utility.yul\":4042:4068   */\n      swap1\n      pop\n        /* \"#utility.yul\":3934:4075   */\n      swap2\n      swap1\n      pop\n      jump\t// out\n        /* \"#utility.yul\":4081:4174   */\n    tag_78:\n        /* \"#utility.yul\":4118:4124   */\n      0x00\n        /* \"#utility.yul\":4165:4167   */\n      0x20\n        /* \"#utility.yul\":4160:4162   */\n      0x1f\n        /* \"#utility.yul\":4153:4158   */\n      dup4\n        /* \"#utility.yul\":4149:4163   */\n      add\n        /* \"#utility.yul\":4145:4168   */\n      div\n        /* \"#utility.yul\":4135:4168   */\n      swap1\n      pop\n        /* \"#utility.yul\":4081:4174   */\n      swap2\n      swap1\n      pop\n      jump\t// out\n        /* \"#utility.yul\":4180:4287   */\n    tag_79:\n        /* \"#utility.yul\":4224:4232   */\n      0x00\n        /* \"#utility.yul\":4274:4279   */\n      dup3\n        /* \"#utility.yul\":4268:4272   */\n      dup3\n        /* \"#utility.yul\":4264:4280   */\n      shl\n        /* \"#utility.yul\":4243:4280   */\n      swap1\n      pop\n        /* \"#utility.yul\":4180:4287   */\n      swap3\n      swap2\n      pop\n      pop\n      jump\t// out\n        /* \"#utility.yul\":4293:4686   */\n    tag_80:\n        /* \"#utility.yul\":4362:4368   */\n      0x00\n        /* \"#utility.yul\":4412:4413   */\n      0x08\n        /* \"#utility.yul\":4400:4410   */\n      dup4\n        /* \"#utility.yul\":4396:4414   */\n      mul\n        /* \"#utility.yul\":4435:4532   */\n      tag_138\n        /* \"#utility.yul\":4465:4531   */\n      0xffffffffffffffffffffffffffffffffffffffffffffffffffffffffffffffff\n        /* \"#utility.yul\":4454:4463   */\n      dup3\n        /* \"#utility.yul\":4435:4532   */\n      tag_79\n      jump\t// in\n    tag_138:\n        /* \"#utility.yul\":4553:4592   */\n      tag_139\n        /* \"#utility.yul\":4583:4591   */\n      dup7\n        /* \"#utility.yul\":4572:4581   */\n      dup4\n        /* \"#utility.yul\":4553:4592   */\n      tag_79\n      jump\t// in\n    tag_139:\n        /* \"#utility.yul\":4541:4592   */\n      swap6\n      pop\n        /* \"#utility.yul\":4625:4629   */\n      dup1\n        /* \"#utility.yul\":4621:4630   */\n      not\n        /* \"#utility.yul\":4614:4619   */\n      dup5\n        /* \"#utility.yul\":4610:4631   */\n      and\n        /* \"#utility.yul\":4601:4631   */\n      swap4\n      pop\n        /* \"#utility.yul\":4674:4678   */\n      dup1\n        /* \"#utility.yul\":4664:4672   */\n      dup7\n        /* \"#utility.yul\":4660:4679   */\n      and\n        /* \"#utility.yul\":4653:4658   */\n      dup5\n        /* \"#utility.yul\":4650:4680   */\n      or\n        /* \"#utility.yul\":4640:4680   */\n      swap3\n      pop\n        /* \"#utility.yul\":4369:4686   */\n      pop\n      pop\n        /* \"#utility.yul\":4293:4686   */\n      swap4\n      swap3\n      pop\n      pop\n      pop\n      jump\t// out\n        /* \"#utility.yul\":4692:4752   */\n    tag_81:\n        /* \"#utility.yul\":4720:4723   */\n      0x00\n        /* \"#utility.yul\":4741:4746   */\n      dup2\n        /* \"#utility.yul\":4734:4746   */\n      swap1\n      pop\n        /* \"#utility.yul\":4692:4752   */\n      swap2\n      swap1\n      pop\n      jump\t// out\n        /* \"#utility.yul\":4758:4900   */\n    tag_82:\n        /* \"#utility.yul\":4808:4817   */\n      0x00\n        /* \"#utility.yul\":4841:4894   */\n      tag_142\n        /* \"#utility.yul\":4859:4893   */\n      tag_143\n        /* \"#utility.yul\":4868:4892   */\n      tag_144\n        /* \"#utility.yul\":4886:4891   */\n      dup5\n        /* \"#utility.yul\":4868:4892   */\n      tag_62\n      jump\t// in\n    tag_144:\n        /* \"#utility.yul\":4859:4893   */\n      tag_81\n      jump\t// in\n    tag_143:\n        /* \"#utility.yul\":4841:4894   */\n      tag_62\n      jump\t// in\n    tag_142:\n        /* \"#utility.yul\":4828:4894   */\n      swap1\n      pop\n        /* \"#utility.yul\":4758:4900   */\n      swap2\n      swap1\n      pop\n      jump\t// out\n        /* \"#utility.yul\":4906:4981   */\n    tag_83:\n        /* \"#utility.yul\":4949:4952   */\n      0x00\n        /* \"#utility.yul\":4970:4975   */\n      dup2\n        /* \"#utility.yul\":4963:4975   */\n      swap1\n      pop\n        /* \"#utility.yul\":4906:4981   */\n      swap2\n      swap1\n      pop\n      jump\t// out\n        /* \"#utility.yul\":4987:5256   */\n    tag_84:\n        /* \"#utility.yul\":5097:5136   */\n      tag_147\n        /* \"#utility.yul\":5128:5135   */\n      dup4\n        /* \"#utility.yul\":5097:5136   */\n      tag_82\n      jump\t// in\n    tag_147:\n        /* \"#utility.yul\":5158:5249   */\n      tag_148\n        /* \"#utility.yul\":5207:5248   */\n      tag_149\n        /* \"#utility.yul\":5231:5247   */\n      dup3\n        /* \"#utility.yul\":5207:5248   */\n      tag_83\n      jump\t// in\n    tag_149:\n        /* \"#utility.yul\":5199:5205   */\n      dup5\n        /* \"#utility.yul\":5192:5196   */\n      dup5\n        /* \"#utility.yul\":5186:5197   */\n      sload\n        /* \"#utility.yul\":5158:5249   */\n      tag_80\n      jump\t// in\n    tag_148:\n        /* \"#utility.yul\":5152:5156   */\n      dup3\n        /* \"#utility.yul\":5145:5250   */\n      sstore\n        /* \"#utility.yul\":5063:5256   */\n      pop\n        /* \"#utility.yul\":4987:5256   */\n      pop\n      pop\n      pop\n      jump\t// out\n        /* \"#utility.yul\":5262:5335   */\n    tag_85:\n        /* \"#utility.yul\":5307:5310   */\n      0x00\n        /* \"#utility.yul\":5262:5335   */\n      swap1\n      jump\t// out\n        /* \"#utility.yul\":5341:5530   */\n    tag_86:\n        /* \"#utility.yul\":5418:5450   */\n      tag_152\n      tag_85\n      jump\t// in\n    tag_152:\n        /* \"#utility.yul\":5459:5524   */\n      tag_153\n        /* \"#utility.yul\":5517:5523   */\n      dup2\n        /* \"#utility.yul\":5509:5515   */\n      dup5\n        /* \"#utility.yul\":5503:5507   */\n      dup5\n        /* \"#utility.yul\":5459:5524   */\n      tag_84\n      jump\t// in\n    tag_153:\n        /* \"#utility.yul\":5394:5530   */\n      pop\n        /* \"#utility.yul\":5341:5530   */\n      pop\n      pop\n      jump\t// out\n        /* \"#utility.yul\":5536:5722   */\n    tag_87:\n        /* \"#utility.yul\":5596:5716   */\n    tag_155:\n        /* \"#utility.yul\":5613:5616   */\n      dup2\n        /* \"#utility.yul\":5606:5611   */\n      dup2\n        /* \"#utility.yul\":5603:5617   */\n      lt\n        /* \"#utility.yul\":5596:5716   */\n      iszero\n      tag_157\n      jumpi\n        /* \"#utility.yul\":5667:5706   */\n      tag_158\n        /* \"#utility.yul\":5704:5705   */\n      0x00\n        /* \"#utility.yul\":5697:5702   */\n      dup3\n        /* \"#utility.yul\":5667:5706   */\n      tag_86\n      jump\t// in\n    tag_158:\n        /* \"#utility.yul\":5640:5641   */\n      0x01\n        /* \"#utility.yul\":5633:5638   */\n      dup2\n        /* \"#utility.yul\":5629:5642   */\n      add\n        /* \"#utility.yul\":5620:5642   */\n      swap1\n      pop\n        /* \"#utility.yul\":5596:5716   */\n      jump(tag_155)\n    tag_157:\n        /* \"#utility.yul\":5536:5722   */\n      pop\n      pop\n      jump\t// out\n        /* \"#utility.yul\":5728:6271   */\n    tag_88:\n        /* \"#utility.yul\":5829:5831   */\n      0x1f\n        /* \"#utility.yul\":5824:5827   */\n      dup3\n        /* \"#utility.yul\":5821:5832   */\n      gt\n        /* \"#utility.yul\":5818:6264   */\n      iszero\n      tag_160\n      jumpi\n        /* \"#utility.yul\":5863:5901   */\n      tag_161\n        /* \"#utility.yul\":5895:5900   */\n      dup2\n        /* \"#utility.yul\":5863:5901   */\n      tag_77\n      jump\t// in\n    tag_161:\n        /* \"#utility.yul\":5947:5976   */\n      tag_162\n        /* \"#utility.yul\":5965:5975   */\n      dup5\n        /* \"#utility.yul\":5947:5976   */\n      tag_78\n      jump\t// in\n    tag_162:\n        /* \"#utility.yul\":5937:5945   */\n      dup2\n        /* \"#utility.yul\":5933:5977   */\n      add\n        /* \"#utility.yul\":6130:6132   */\n      0x20\n        /* \"#utility.yul\":6118:6128   */\n      dup6\n        /* \"#utility.yul\":6115:6133   */\n      lt\n        /* \"#utility.yul\":6112:6161   */\n      iszero\n      tag_163\n      jumpi\n        /* \"#utility.yul\":6151:6159   */\n      dup2\n        /* \"#utility.yul\":6136:6159   */\n      swap1\n      pop\n        /* \"#utility.yul\":6112:6161   */\n    tag_163:\n        /* \"#utility.yul\":6174:6254   */\n      tag_164\n        /* \"#utility.yul\":6230:6252   */\n      tag_165\n        /* \"#utility.yul\":6248:6251   */\n      dup6\n        /* \"#utility.yul\":6230:6252   */\n      tag_78\n      jump\t// in\n    tag_165:\n        /* \"#utility.yul\":6220:6228   */\n      dup4\n        /* \"#utility.yul\":6216:6253   */\n      add\n        /* \"#utility.yul\":6203:6214   */\n      dup3\n        /* \"#utility.yul\":6174:6254   */\n      tag_87\n      jump\t// in\n    tag_164:\n        /* \"#utility.yul\":5833:6264   */\n      pop\n      pop\n        /* \"#utility.yul\":5818:6264   */\n    tag_160:\n        /* \"#utility.yul\":5728:6271   */\n      pop\n      pop\n      pop\n      jump\t// out\n        /* \"#utility.yul\":6277:6394   */\n    tag_89:\n        /* \"#utility.yul\":6331:6339   */\n      0x00\n        /* \"#utility.yul\":6381:6386   */\n      dup3\n        /* \"#utility.yul\":6375:6379   */\n      dup3\n        /* \"#utility.yul\":6371:6387   */\n      shr\n        /* \"#utility.yul\":6350:6387   */\n      swap1\n      pop\n        /* \"#utility.yul\":6277:6394   */\n      swap3\n      swap2\n      pop\n      pop\n      jump\t// out\n        /* \"#utility.yul\":6400:6569   */\n    tag_90:\n        /* \"#utility.yul\":6444:6450   */\n      0x00\n        /* \"#utility.yul\":6477:6528   */\n      tag_168\n        /* \"#utility.yul\":6525:6526   */\n      0x00\n        /* \"#utility.yul\":6521:6527   */\n      not\n        /* \"#utility.yul\":6513:6518   */\n      dup5\n        /* \"#utility.yul\":6510:6511   */\n      0x08\n        /* \"#utility.yul\":6506:6519   */\n      mul\n        /* \"#utility.yul\":6477:6528   */\n      tag_89\n      jump\t// in\n    tag_168:\n        /* \"#utility.yul\":6473:6529   */\n      not\n        /* \"#utility.yul\":6558:6562   */\n      dup1\n        /* \"#utility.yul\":6552:6556   */\n      dup4\n        /* \"#utility.yul\":6548:6563   */\n      and\n        /* \"#utility.yul\":6538:6563   */\n      swap2\n      pop\n        /* \"#utility.yul\":6451:6569   */\n      pop\n        /* \"#utility.yul\":6400:6569   */\n      swap3\n      swap2\n      pop\n      pop\n      jump\t// out\n        /* \"#utility.yul\":6574:6869   */\n    tag_91:\n        /* \"#utility.yul\":6650:6654   */\n      0x00\n        /* \"#utility.yul\":6796:6825   */\n      tag_170\n        /* \"#utility.yul\":6821:6824   */\n      dup4\n        /* \"#utility.yul\":6815:6819   */\n      dup4\n        /* \"#utility.yul\":6796:6825   */\n      tag_90\n      jump\t// in\n    tag_170:\n        /* \"#utility.yul\":6788:6825   */\n      swap2\n      pop\n        /* \"#utility.yul\":6858:6861   */\n      dup3\n        /* \"#utility.yul\":6855:6856   */\n      0x02\n        /* \"#utility.yul\":6851:6862   */\n      mul\n        /* \"#utility.yul\":6845:6849   */\n      dup3\n        /* \"#utility.yul\":6842:6863   */\n      or\n        /* \"#utility.yul\":6834:6863   */\n      swap1\n      pop\n        /* \"#utility.yul\":6574:6869   */\n      swap3\n      swap2\n      pop\n      pop\n      jump\t// out\n        /* \"#utility.yul\":6874:8269   */\n    tag_38:\n        /* \"#utility.yul\":6991:7028   */\n      tag_172\n        /* \"#utility.yul\":7024:7027   */\n      dup3\n        /* \"#utility.yul\":6991:7028   */\n      tag_65\n      jump\t// in\n    tag_172:\n        /* \"#utility.yul\":7093:7111   */\n      0xffffffffffffffff\n        /* \"#utility.yul\":7085:7091   */\n      dup2\n        /* \"#utility.yul\":7082:7112   */\n      gt\n        /* \"#utility.yul\":7079:7135   */\n      iszero\n      tag_173\n      jumpi\n        /* \"#utility.yul\":7115:7133   */\n      tag_174\n      tag_76\n      jump\t// in\n    tag_174:\n        /* \"#utility.yul\":7079:7135   */\n    tag_173:\n        /* \"#utility.yul\":7159:7197   */\n      tag_175\n        /* \"#utility.yul\":7191:7195   */\n      dup3\n        /* \"#utility.yul\":7185:7196   */\n      sload\n        /* \"#utility.yul\":7159:7197   */\n      tag_27\n      jump\t// in\n    tag_175:\n        /* \"#utility.yul\":7244:7311   */\n      tag_176\n        /* \"#utility.yul\":7304:7310   */\n      dup3\n        /* \"#utility.yul\":7296:7302   */\n      dup3\n        /* \"#utility.yul\":7290:7294   */\n      dup6\n        /* \"#utility.yul\":7244:7311   */\n      tag_88\n      jump\t// in\n    tag_176:\n        /* \"#utility.yul\":7338:7339   */\n      0x00\n        /* \"#utility.yul\":7362:7366   */\n      0x20\n        /* \"#utility.yul\":7349:7366   */\n      swap1\n      pop\n        /* \"#utility.yul\":7394:7396   */\n      0x1f\n        /* \"#utility.yul\":7386:7392   */\n      dup4\n        /* \"#utility.yul\":7383:7397   */\n      gt\n        /* \"#utility.yul\":7411:7412   */\n      0x01\n        /* \"#utility.yul\":7406:8024   */\n      dup2\n      eq\n      tag_178\n      jumpi\n        /* \"#utility.yul\":8068:8069   */\n      0x00\n        /* \"#utility.yul\":8085:8091   */\n      dup5\n        /* \"#utility.yul\":8082:8159   */\n      iszero\n      tag_179\n      jumpi\n        /* \"#utility.yul\":8134:8143   */\n      dup3\n        /* \"#utility.yul\":8129:8132   */\n      dup8\n        /* \"#utility.yul\":8125:8144   */\n      add\n        /* \"#utility.yul\":8119:8145   */\n      mload\n        /* \"#utility.yul\":8110:8145   */\n      swap1\n      pop\n        /* \"#utility.yul\":8082:8159   */\n    tag_179:\n        /* \"#utility.yul\":8185:8252   */\n      tag_180\n        /* \"#utility.yul\":8245:8251   */\n      dup6\n        /* \"#utility.yul\":8238:8243   */\n      dup3\n        /* \"#utility.yul\":8185:8252   */\n      tag_91\n      jump\t// in\n    tag_180:\n        /* \"#utility.yul\":8179:8183   */\n      dup7\n        /* \"#utility.yul\":8172:8253   */\n      sstore\n        /* \"#utility.yul\":8041:8263   */\n      pop\n        /* \"#utility.yul\":7376:8263   */\n      jump(tag_177)\n        /* \"#utility.yul\":7406:8024   */\n    tag_178:\n        /* \"#utility.yul\":7458:7462   */\n      0x1f\n        /* \"#utility.yul\":7454:7463   */\n      not\n        /* \"#utility.yul\":7446:7452   */\n      dup5\n        /* \"#utility.yul\":7442:7464   */\n      and\n        /* \"#utility.yul\":7492:7529   */\n      tag_181\n        /* \"#utility.yul\":7524:7528   */\n      dup7\n        /* \"#utility.yul\":7492:7529   */\n      tag_77\n      jump\t// in\n    tag_181:\n        /* \"#utility.yul\":7551:7552   */\n      0x00\n        /* \"#utility.yul\":7565:7773   */\n    tag_182:\n        /* \"#utility.yul\":7579:7586   */\n      dup3\n        /* \"#utility.yul\":7576:7577   */\n      dup2\n        /* \"#utility.yul\":7573:7587   */\n      lt\n        /* \"#utility.yul\":7565:7773   */\n      iszero\n      tag_184\n      jumpi\n        /* \"#utility.yul\":7658:7667   */\n      dup5\n        /* \"#utility.yul\":7653:7656   */\n      dup10\n        /* \"#utility.yul\":7649:7668   */\n      add\n        /* \"#utility.yul\":7643:7669   */\n      mload\n        /* \"#utility.yul\":7635:7641   */\n      dup3\n        /* \"#utility.yul\":7628:7670   */\n      sstore\n        /* \"#utility.yul\":7709:7710   */\n      0x01\n        /* \"#utility.yul\":7701:7707   */\n      dup3\n        /* \"#utility.yul\":7697:7711   */\n      add\n        /* \"#utility.yul\":7687:7711   */\n      swap2\n      pop\n        /* \"#utility.yul\":7756:7758   */\n      0x20\n        /* \"#utility.yul\":7745:7754   */\n      dup6\n        /* \"#utility.yul\":7741:7759   */\n      add\n        /* \"#utility.yul\":7728:7759   */\n      swap5\n      pop\n        /* \"#utility.yul\":7602:7606   */\n      0x20\n        /* \"#utility.yul\":7599:7600   */\n      dup2\n        /* \"#utility.yul\":7595:7607   */\n      add\n        /* \"#utility.yul\":7590:7607   */\n      swap1\n      pop\n        /* \"#utility.yul\":7565:7773   */\n      jump(tag_182)\n    tag_184:\n        /* \"#utility.yul\":7801:7807   */\n      dup7\n        /* \"#utility.yul\":7792:7799   */\n      dup4\n        /* \"#utility.yul\":7789:7808   */\n      lt\n        /* \"#utility.yul\":7786:7965   */\n      iszero\n      tag_185\n      jumpi\n        /* \"#utility.yul\":7859:7868   */\n      dup5\n        /* \"#utility.yul\":7854:7857   */\n      dup10\n        /* \"#utility.yul\":7850:7869   */\n      add\n        /* \"#utility.yul\":7844:7870   */\n      mload\n        /* \"#utility.yul\":7902:7950   */\n      tag_186\n        /* \"#utility.yul\":7944:7948   */\n      0x1f\n        /* \"#utility.yul\":7936:7942   */\n      dup10\n        /* \"#utility.yul\":7932:7949   */\n      and\n        /* \"#utility.yul\":7921:7930   */\n      dup3\n        /* \"#utility.yul\":7902:7950   */\n      tag_90\n      jump\t// in\n    tag_186:\n        /* \"#utility.yul\":7894:7900   */\n      dup4\n        /* \"#utility.yul\":7887:7951   */\n      sstore\n        /* \"#utility.yul\":7809:7965   */\n      pop\n        /* \"#utility.yul\":7786:7965   */\n    tag_185:\n        /* \"#utility.yul\":8011:8012   */\n      0x01\n        /* \"#utility.yul\":8007:8008   */\n      0x02\n        /* \"#utility.yul\":7999:8005   */\n      dup9\n        /* \"#utility.yul\":7995:8009   */\n      mul\n        /* \"#utility.yul\":7991:8013   */\n      add\n        /* \"#utility.yul\":7985:7989   */\n      dup9\n        /* \"#utility.yul\":7978:8014   */\n      sstore\n        /* \"#utility.yul\":7413:8024   */\n      pop\n      pop\n      pop\n        /* \"#utility.yul\":7376:8263   */\n    tag_177:\n      pop\n        /* \"#utility.yul\":6966:8269   */\n      pop\n      pop\n      pop\n        /* \"#utility.yul\":6874:8269   */\n      pop\n      pop\n      jump\t// out\n\n    auxdata: 0xa2646970667358221220142f7c83925e727fe2699f01d970f6ea35b51a9323635723404b38e8ef89e5cb64736f6c634300081a0033\n}\n",
				"bytecode": {
					"linkReferences": {},
					"object": "6080604052348015600e575f80fd5b50610b278061001c5f395ff3fe608060405234801561000f575f80fd5b506004361061004a575f3560e01c806313a56e701461004e5780639375d9a914610058578063bcce66c91461008a578063db8946ec14610094575b5f80fd5b61005661009e565b005b610072600480360381019061006d919061069c565b6100fd565b60405161008193929190610792565b60405180910390f35b6100926101e4565b005b61009c6101f2565b005b5f805f815481106100b2576100b16107ce565b5b905f5260205f20906002020190505f816001015f9054906101000a900461ffff1661ffff1690506103e8826001015f6101000a81548161ffff021916908361ffff1602179055505050565b5f818154811061010b575f80fd5b905f5260205f2090600202015f91509050805f01805461012a90610828565b80601f016020809104026020016040519081016040528092919081815260200182805461015690610828565b80156101a15780601f10610178576101008083540402835291602001916101a1565b820191905f5260205f20905b81548152906001019060200180831161018457829003601f168201915b505050505090806001015f9054906101000a900461ffff16908060010160029054906101000a900473ffffffffffffffffffffffffffffffffffffffff16905083565b5f806101f09190610553565b565b5f60405180606001604052806040518060400160405280600681526020017f546f796f7461000000000000000000000000000000000000000000000000000081525081526020016107d061ffff1681526020013373ffffffffffffffffffffffffffffffffffffffff16815250908060018154018082558091505060019003905f5260205f2090600202015f909190919091505f820151815f0190816102989190610a22565b506020820151816001015f6101000a81548161ffff021916908361ffff16021790555060408201518160010160026101000a81548173ffffffffffffffffffffffffffffffffffffffff021916908373ffffffffffffffffffffffffffffffffffffffff16021790555050505f60405180606001604052806040518060400160405280600681526020017f546f796f7461000000000000000000000000000000000000000000000000000081525081526020016107d161ffff1681526020013373ffffffffffffffffffffffffffffffffffffffff16815250908060018154018082558091505060019003905f5260205f2090600202015f909190919091505f820151815f0190816103aa9190610a22565b506020820151816001015f6101000a81548161ffff021916908361ffff16021790555060408201518160010160026101000a81548173ffffffffffffffffffffffffffffffffffffffff021916908373ffffffffffffffffffffffffffffffffffffffff160217905550505061041e610574565b6040518060400160405280600381526020017f6279640000000000000000000000000000000000000000000000000000000000815250815f01819052506107d2816020019061ffff16908161ffff168152505033816040019073ffffffffffffffffffffffffffffffffffffffff16908173ffffffffffffffffffffffffffffffffffffffff16815250505f81908060018154018082558091505060019003905f5260205f2090600202015f909190919091505f820151815f0190816104e49190610a22565b506020820151816001015f6101000a81548161ffff021916908361ffff16021790555060408201518160010160026101000a81548173ffffffffffffffffffffffffffffffffffffffff021916908373ffffffffffffffffffffffffffffffffffffffff160217905550505050565b5080545f8255600202905f5260205f209081019061057191906105ad565b50565b6040518060600160405280606081526020015f61ffff1681526020015f73ffffffffffffffffffffffffffffffffffffffff1681525090565b5b80821115610609575f8082015f6105c5919061060d565b600182015f6101000a81549061ffff02191690556001820160026101000a81549073ffffffffffffffffffffffffffffffffffffffff0219169055506002016105ae565b5090565b50805461061990610828565b5f825580601f1061062a5750610647565b601f0160209004905f5260205f2090810190610646919061064a565b5b50565b5b80821115610661575f815f90555060010161064b565b5090565b5f80fd5b5f819050919050565b61067b81610669565b8114610685575f80fd5b50565b5f8135905061069681610672565b92915050565b5f602082840312156106b1576106b0610665565b5b5f6106be84828501610688565b91505092915050565b5f81519050919050565b5f82825260208201905092915050565b8281835e5f83830152505050565b5f601f19601f8301169050919050565b5f610709826106c7565b61071381856106d1565b93506107238185602086016106e1565b61072c816106ef565b840191505092915050565b5f61ffff82169050919050565b61074d81610737565b82525050565b5f73ffffffffffffffffffffffffffffffffffffffff82169050919050565b5f61077c82610753565b9050919050565b61078c81610772565b82525050565b5f6060820190508181035f8301526107aa81866106ff565b90506107b96020830185610744565b6107c66040830184610783565b949350505050565b7f4e487b71000000000000000000000000000000000000000000000000000000005f52603260045260245ffd5b7f4e487b71000000000000000000000000000000000000000000000000000000005f52602260045260245ffd5b5f600282049050600182168061083f57607f821691505b602082108103610852576108516107fb565b5b50919050565b7f4e487b71000000000000000000000000000000000000000000000000000000005f52604160045260245ffd5b5f819050815f5260205f209050919050565b5f6020601f8301049050919050565b5f82821b905092915050565b5f600883026108e17fffffffffffffffffffffffffffffffffffffffffffffffffffffffffffffffff826108a6565b6108eb86836108a6565b95508019841693508086168417925050509392505050565b5f819050919050565b5f61092661092161091c84610669565b610903565b610669565b9050919050565b5f819050919050565b61093f8361090c565b61095361094b8261092d565b8484546108b2565b825550505050565b5f90565b61096761095b565b610972818484610936565b505050565b5b818110156109955761098a5f8261095f565b600181019050610978565b5050565b601f8211156109da576109ab81610885565b6109b484610897565b810160208510156109c3578190505b6109d76109cf85610897565b830182610977565b50505b505050565b5f82821c905092915050565b5f6109fa5f19846008026109df565b1980831691505092915050565b5f610a1283836109eb565b9150826002028217905092915050565b610a2b826106c7565b67ffffffffffffffff811115610a4457610a43610858565b5b610a4e8254610828565b610a59828285610999565b5f60209050601f831160018114610a8a575f8415610a78578287015190505b610a828582610a07565b865550610ae9565b601f198416610a9886610885565b5f5b82811015610abf57848901518255600182019150602085019450602081019050610a9a565b86831015610adc5784890151610ad8601f8916826109eb565b8355505b6001600288020188555050505b50505050505056fea2646970667358221220142f7c83925e727fe2699f01d970f6ea35b51a9323635723404b38e8ef89e5cb64736f6c634300081a0033",
					"opcodes": "PUSH1 0x80 PUSH1 0x40 MSTORE CALLVALUE DUP1 ISZERO PUSH1 0xE JUMPI PUSH0 DUP1 REVERT JUMPDEST POP PUSH2 0xB27 DUP1 PUSH2 0x1C PUSH0 CODECOPY PUSH0 RETURN INVALID PUSH1 0x80 PUSH1 0x40 MSTORE CALLVALUE DUP1 ISZERO PUSH2 0xF JUMPI PUSH0 DUP1 REVERT JUMPDEST POP PUSH1 0x4 CALLDATASIZE LT PUSH2 0x4A JUMPI PUSH0 CALLDATALOAD PUSH1 0xE0 SHR DUP1 PUSH4 0x13A56E70 EQ PUSH2 0x4E JUMPI DUP1 PUSH4 0x9375D9A9 EQ PUSH2 0x58 JUMPI DUP1 PUSH4 0xBCCE66C9 EQ PUSH2 0x8A JUMPI DUP1 PUSH4 0xDB8946EC EQ PUSH2 0x94 JUMPI JUMPDEST PUSH0 DUP1 REVERT JUMPDEST PUSH2 0x56 PUSH2 0x9E JUMP JUMPDEST STOP JUMPDEST PUSH2 0x72 PUSH1 0x4 DUP1 CALLDATASIZE SUB DUP2 ADD SWAP1 PUSH2 0x6D SWAP2 SWAP1 PUSH2 0x69C JUMP JUMPDEST PUSH2 0xFD JUMP JUMPDEST PUSH1 0x40 MLOAD PUSH2 0x81 SWAP4 SWAP3 SWAP2 SWAP1 PUSH2 0x792 JUMP JUMPDEST PUSH1 0x40 MLOAD DUP1 SWAP2 SUB SWAP1 RETURN JUMPDEST PUSH2 0x92 PUSH2 0x1E4 JUMP JUMPDEST STOP JUMPDEST PUSH2 0x9C PUSH2 0x1F2 JUMP JUMPDEST STOP JUMPDEST PUSH0 DUP1 PUSH0 DUP2 SLOAD DUP2 LT PUSH2 0xB2 JUMPI PUSH2 0xB1 PUSH2 0x7CE JUMP JUMPDEST JUMPDEST SWAP1 PUSH0 MSTORE PUSH1 0x20 PUSH0 KECCAK256 SWAP1 PUSH1 0x2 MUL ADD SWAP1 POP PUSH0 DUP2 PUSH1 0x1 ADD PUSH0 SWAP1 SLOAD SWAP1 PUSH2 0x100 EXP SWAP1 DIV PUSH2 0xFFFF AND PUSH2 0xFFFF AND SWAP1 POP PUSH2 0x3E8 DUP3 PUSH1 0x1 ADD PUSH0 PUSH2 0x100 EXP DUP2 SLOAD DUP2 PUSH2 0xFFFF MUL NOT AND SWAP1 DUP4 PUSH2 0xFFFF AND MUL OR SWAP1 SSTORE POP POP POP JUMP JUMPDEST PUSH0 DUP2 DUP2 SLOAD DUP2 LT PUSH2 0x10B JUMPI PUSH0 DUP1 REVERT JUMPDEST SWAP1 PUSH0 MSTORE PUSH1 0x20 PUSH0 KECCAK256 SWAP1 PUSH1 0x2 MUL ADD PUSH0 SWAP2 POP SWAP1 POP DUP1 PUSH0 ADD DUP1 SLOAD PUSH2 0x12A SWAP1 PUSH2 0x828 JUMP JUMPDEST DUP1 PUSH1 0x1F ADD PUSH1 0x20 DUP1 SWAP2 DIV MUL PUSH1 0x20 ADD PUSH1 0x40 MLOAD SWAP1 DUP2 ADD PUSH1 0x40 MSTORE DUP1 SWAP3 SWAP2 SWAP1 DUP2 DUP2 MSTORE PUSH1 0x20 ADD DUP3 DUP1 SLOAD PUSH2 0x156 SWAP1 PUSH2 0x828 JUMP JUMPDEST DUP1 ISZERO PUSH2 0x1A1 JUMPI DUP1 PUSH1 0x1F LT PUSH2 0x178 JUMPI PUSH2 0x100 DUP1 DUP4 SLOAD DIV MUL DUP4 MSTORE SWAP2 PUSH1 0x20 ADD SWAP2 PUSH2 0x1A1 JUMP JUMPDEST DUP3 ADD SWAP2 SWAP1 PUSH0 MSTORE PUSH1 0x20 PUSH0 KECCAK256 SWAP1 JUMPDEST DUP2 SLOAD DUP2 MSTORE SWAP1 PUSH1 0x1 ADD SWAP1 PUSH1 0x20 ADD DUP1 DUP4 GT PUSH2 0x184 JUMPI DUP3 SWAP1 SUB PUSH1 0x1F AND DUP3 ADD SWAP2 JUMPDEST POP POP POP POP POP SWAP1 DUP1 PUSH1 0x1 ADD PUSH0 SWAP1 SLOAD SWAP1 PUSH2 0x100 EXP SWAP1 DIV PUSH2 0xFFFF AND SWAP1 DUP1 PUSH1 0x1 ADD PUSH1 0x2 SWAP1 SLOAD SWAP1 PUSH2 0x100 EXP SWAP1 DIV PUSH20 0xFFFFFFFFFFFFFFFFFFFFFFFFFFFFFFFFFFFFFFFF AND SWAP1 POP DUP4 JUMP JUMPDEST PUSH0 DUP1 PUSH2 0x1F0 SWAP2 SWAP1 PUSH2 0x553 JUMP JUMPDEST JUMP JUMPDEST PUSH0 PUSH1 0x40 MLOAD DUP1 PUSH1 0x60 ADD PUSH1 0x40 MSTORE DUP1 PUSH1 0x40 MLOAD DUP1 PUSH1 0x40 ADD PUSH1 0x40 MSTORE DUP1 PUSH1 0x6 DUP2 MSTORE PUSH1 0x20 ADD PUSH32 0x546F796F74610000000000000000000000000000000000000000000000000000 DUP2 MSTORE POP DUP2 MSTORE PUSH1 0x20 ADD PUSH2 0x7D0 PUSH2 0xFFFF AND DUP2 MSTORE PUSH1 0x20 ADD CALLER PUSH20 0xFFFFFFFFFFFFFFFFFFFFFFFFFFFFFFFFFFFFFFFF AND DUP2 MSTORE POP SWAP1 DUP1 PUSH1 0x1 DUP2 SLOAD ADD DUP1 DUP3 SSTORE DUP1 SWAP2 POP POP PUSH1 0x1 SWAP1 SUB SWAP1 PUSH0 MSTORE PUSH1 0x20 PUSH0 KECCAK256 SWAP1 PUSH1 0x2 MUL ADD PUSH0 SWAP1 SWAP2 SWAP1 SWAP2 SWAP1 SWAP2 POP PUSH0 DUP3 ADD MLOAD DUP2 PUSH0 ADD SWAP1 DUP2 PUSH2 0x298 SWAP2 SWAP1 PUSH2 0xA22 JUMP JUMPDEST POP PUSH1 0x20 DUP3 ADD MLOAD DUP2 PUSH1 0x1 ADD PUSH0 PUSH2 0x100 EXP DUP2 SLOAD DUP2 PUSH2 0xFFFF MUL NOT AND SWAP1 DUP4 PUSH2 0xFFFF AND MUL OR SWAP1 SSTORE POP PUSH1 0x40 DUP3 ADD MLOAD DUP2 PUSH1 0x1 ADD PUSH1 0x2 PUSH2 0x100 EXP DUP2 SLOAD DUP2 PUSH20 0xFFFFFFFFFFFFFFFFFFFFFFFFFFFFFFFFFFFFFFFF MUL NOT AND SWAP1 DUP4 PUSH20 0xFFFFFFFFFFFFFFFFFFFFFFFFFFFFFFFFFFFFFFFF AND MUL OR SWAP1 SSTORE POP POP POP PUSH0 PUSH1 0x40 MLOAD DUP1 PUSH1 0x60 ADD PUSH1 0x40 MSTORE DUP1 PUSH1 0x40 MLOAD DUP1 PUSH1 0x40 ADD PUSH1 0x40 MSTORE DUP1 PUSH1 0x6 DUP2 MSTORE PUSH1 0x20 ADD PUSH32 0x546F796F74610000000000000000000000000000000000000000000000000000 DUP2 MSTORE POP DUP2 MSTORE PUSH1 0x20 ADD PUSH2 0x7D1 PUSH2 0xFFFF AND DUP2 MSTORE PUSH1 0x20 ADD CALLER PUSH20 0xFFFFFFFFFFFFFFFFFFFFFFFFFFFFFFFFFFFFFFFF AND DUP2 MSTORE POP SWAP1 DUP1 PUSH1 0x1 DUP2 SLOAD ADD DUP1 DUP3 SSTORE DUP1 SWAP2 POP POP PUSH1 0x1 SWAP1 SUB SWAP1 PUSH0 MSTORE PUSH1 0x20 PUSH0 KECCAK256 SWAP1 PUSH1 0x2 MUL ADD PUSH0 SWAP1 SWAP2 SWAP1 SWAP2 SWAP1 SWAP2 POP PUSH0 DUP3 ADD MLOAD DUP2 PUSH0 ADD SWAP1 DUP2 PUSH2 0x3AA SWAP2 SWAP1 PUSH2 0xA22 JUMP JUMPDEST POP PUSH1 0x20 DUP3 ADD MLOAD DUP2 PUSH1 0x1 ADD PUSH0 PUSH2 0x100 EXP DUP2 SLOAD DUP2 PUSH2 0xFFFF MUL NOT AND SWAP1 DUP4 PUSH2 0xFFFF AND MUL OR SWAP1 SSTORE POP PUSH1 0x40 DUP3 ADD MLOAD DUP2 PUSH1 0x1 ADD PUSH1 0x2 PUSH2 0x100 EXP DUP2 SLOAD DUP2 PUSH20 0xFFFFFFFFFFFFFFFFFFFFFFFFFFFFFFFFFFFFFFFF MUL NOT AND SWAP1 DUP4 PUSH20 0xFFFFFFFFFFFFFFFFFFFFFFFFFFFFFFFFFFFFFFFF AND MUL OR SWAP1 SSTORE POP POP POP PUSH2 0x41E PUSH2 0x574 JUMP JUMPDEST PUSH1 0x40 MLOAD DUP1 PUSH1 0x40 ADD PUSH1 0x40 MSTORE DUP1 PUSH1 0x3 DUP2 MSTORE PUSH1 0x20 ADD PUSH32 0x6279640000000000000000000000000000000000000000000000000000000000 DUP2 MSTORE POP DUP2 PUSH0 ADD DUP2 SWAP1 MSTORE POP PUSH2 0x7D2 DUP2 PUSH1 0x20 ADD SWAP1 PUSH2 0xFFFF AND SWAP1 DUP2 PUSH2 0xFFFF AND DUP2 MSTORE POP POP CALLER DUP2 PUSH1 0x40 ADD SWAP1 PUSH20 0xFFFFFFFFFFFFFFFFFFFFFFFFFFFFFFFFFFFFFFFF AND SWAP1 DUP2 PUSH20 0xFFFFFFFFFFFFFFFFFFFFFFFFFFFFFFFFFFFFFFFF AND DUP2 MSTORE POP POP PUSH0 DUP2 SWAP1 DUP1 PUSH1 0x1 DUP2 SLOAD ADD DUP1 DUP3 SSTORE DUP1 SWAP2 POP POP PUSH1 0x1 SWAP1 SUB SWAP1 PUSH0 MSTORE PUSH1 0x20 PUSH0 KECCAK256 SWAP1 PUSH1 0x2 MUL ADD PUSH0 SWAP1 SWAP2 SWAP1 SWAP2 SWAP1 SWAP2 POP PUSH0 DUP3 ADD MLOAD DUP2 PUSH0 ADD SWAP1 DUP2 PUSH2 0x4E4 SWAP2 SWAP1 PUSH2 0xA22 JUMP JUMPDEST POP PUSH1 0x20 DUP3 ADD MLOAD DUP2 PUSH1 0x1 ADD PUSH0 PUSH2 0x100 EXP DUP2 SLOAD DUP2 PUSH2 0xFFFF MUL NOT AND SWAP1 DUP4 PUSH2 0xFFFF AND MUL OR SWAP1 SSTORE POP PUSH1 0x40 DUP3 ADD MLOAD DUP2 PUSH1 0x1 ADD PUSH1 0x2 PUSH2 0x100 EXP DUP2 SLOAD DUP2 PUSH20 0xFFFFFFFFFFFFFFFFFFFFFFFFFFFFFFFFFFFFFFFF MUL NOT AND SWAP1 DUP4 PUSH20 0xFFFFFFFFFFFFFFFFFFFFFFFFFFFFFFFFFFFFFFFF AND MUL OR SWAP1 SSTORE POP POP POP POP JUMP JUMPDEST POP DUP1 SLOAD PUSH0 DUP3 SSTORE PUSH1 0x2 MUL SWAP1 PUSH0 MSTORE PUSH1 0x20 PUSH0 KECCAK256 SWAP1 DUP2 ADD SWAP1 PUSH2 0x571 SWAP2 SWAP1 PUSH2 0x5AD JUMP JUMPDEST POP JUMP JUMPDEST PUSH1 0x40 MLOAD DUP1 PUSH1 0x60 ADD PUSH1 0x40 MSTORE DUP1 PUSH1 0x60 DUP2 MSTORE PUSH1 0x20 ADD PUSH0 PUSH2 0xFFFF AND DUP2 MSTORE PUSH1 0x20 ADD PUSH0 PUSH20 0xFFFFFFFFFFFFFFFFFFFFFFFFFFFFFFFFFFFFFFFF AND DUP2 MSTORE POP SWAP1 JUMP JUMPDEST JUMPDEST DUP1 DUP3 GT ISZERO PUSH2 0x609 JUMPI PUSH0 DUP1 DUP3 ADD PUSH0 PUSH2 0x5C5 SWAP2 SWAP1 PUSH2 0x60D JUMP JUMPDEST PUSH1 0x1 DUP3 ADD PUSH0 PUSH2 0x100 EXP DUP2 SLOAD SWAP1 PUSH2 0xFFFF MUL NOT AND SWAP1 SSTORE PUSH1 0x1 DUP3 ADD PUSH1 0x2 PUSH2 0x100 EXP DUP2 SLOAD SWAP1 PUSH20 0xFFFFFFFFFFFFFFFFFFFFFFFFFFFFFFFFFFFFFFFF MUL NOT AND SWAP1 SSTORE POP PUSH1 0x2 ADD PUSH2 0x5AE JUMP JUMPDEST POP SWAP1 JUMP JUMPDEST POP DUP1 SLOAD PUSH2 0x619 SWAP1 PUSH2 0x828 JUMP JUMPDEST PUSH0 DUP3 SSTORE DUP1 PUSH1 0x1F LT PUSH2 0x62A JUMPI POP PUSH2 0x647 JUMP JUMPDEST PUSH1 0x1F ADD PUSH1 0x20 SWAP1 DIV SWAP1 PUSH0 MSTORE PUSH1 0x20 PUSH0 KECCAK256 SWAP1 DUP2 ADD SWAP1 PUSH2 0x646 SWAP2 SWAP1 PUSH2 0x64A JUMP JUMPDEST JUMPDEST POP JUMP JUMPDEST JUMPDEST DUP1 DUP3 GT ISZERO PUSH2 0x661 JUMPI PUSH0 DUP2 PUSH0 SWAP1 SSTORE POP PUSH1 0x1 ADD PUSH2 0x64B JUMP JUMPDEST POP SWAP1 JUMP JUMPDEST PUSH0 DUP1 REVERT JUMPDEST PUSH0 DUP2 SWAP1 POP SWAP2 SWAP1 POP JUMP JUMPDEST PUSH2 0x67B DUP2 PUSH2 0x669 JUMP JUMPDEST DUP2 EQ PUSH2 0x685 JUMPI PUSH0 DUP1 REVERT JUMPDEST POP JUMP JUMPDEST PUSH0 DUP2 CALLDATALOAD SWAP1 POP PUSH2 0x696 DUP2 PUSH2 0x672 JUMP JUMPDEST SWAP3 SWAP2 POP POP JUMP JUMPDEST PUSH0 PUSH1 0x20 DUP3 DUP5 SUB SLT ISZERO PUSH2 0x6B1 JUMPI PUSH2 0x6B0 PUSH2 0x665 JUMP JUMPDEST JUMPDEST PUSH0 PUSH2 0x6BE DUP5 DUP3 DUP6 ADD PUSH2 0x688 JUMP JUMPDEST SWAP2 POP POP SWAP3 SWAP2 POP POP JUMP JUMPDEST PUSH0 DUP2 MLOAD SWAP1 POP SWAP2 SWAP1 POP JUMP JUMPDEST PUSH0 DUP3 DUP3 MSTORE PUSH1 0x20 DUP3 ADD SWAP1 POP SWAP3 SWAP2 POP POP JUMP JUMPDEST DUP3 DUP2 DUP4 MCOPY PUSH0 DUP4 DUP4 ADD MSTORE POP POP POP JUMP JUMPDEST PUSH0 PUSH1 0x1F NOT PUSH1 0x1F DUP4 ADD AND SWAP1 POP SWAP2 SWAP1 POP JUMP JUMPDEST PUSH0 PUSH2 0x709 DUP3 PUSH2 0x6C7 JUMP JUMPDEST PUSH2 0x713 DUP2 DUP6 PUSH2 0x6D1 JUMP JUMPDEST SWAP4 POP PUSH2 0x723 DUP2 DUP6 PUSH1 0x20 DUP7 ADD PUSH2 0x6E1 JUMP JUMPDEST PUSH2 0x72C DUP2 PUSH2 0x6EF JUMP JUMPDEST DUP5 ADD SWAP2 POP POP SWAP3 SWAP2 POP POP JUMP JUMPDEST PUSH0 PUSH2 0xFFFF DUP3 AND SWAP1 POP SWAP2 SWAP1 POP JUMP JUMPDEST PUSH2 0x74D DUP2 PUSH2 0x737 JUMP JUMPDEST DUP3 MSTORE POP POP JUMP JUMPDEST PUSH0 PUSH20 0xFFFFFFFFFFFFFFFFFFFFFFFFFFFFFFFFFFFFFFFF DUP3 AND SWAP1 POP SWAP2 SWAP1 POP JUMP JUMPDEST PUSH0 PUSH2 0x77C DUP3 PUSH2 0x753 JUMP JUMPDEST SWAP1 POP SWAP2 SWAP1 POP JUMP JUMPDEST PUSH2 0x78C DUP2 PUSH2 0x772 JUMP JUMPDEST DUP3 MSTORE POP POP JUMP JUMPDEST PUSH0 PUSH1 0x60 DUP3 ADD SWAP1 POP DUP2 DUP2 SUB PUSH0 DUP4 ADD MSTORE PUSH2 0x7AA DUP2 DUP7 PUSH2 0x6FF JUMP JUMPDEST SWAP1 POP PUSH2 0x7B9 PUSH1 0x20 DUP4 ADD DUP6 PUSH2 0x744 JUMP JUMPDEST PUSH2 0x7C6 PUSH1 0x40 DUP4 ADD DUP5 PUSH2 0x783 JUMP JUMPDEST SWAP5 SWAP4 POP POP POP POP JUMP JUMPDEST PUSH32 0x4E487B7100000000000000000000000000000000000000000000000000000000 PUSH0 MSTORE PUSH1 0x32 PUSH1 0x4 MSTORE PUSH1 0x24 PUSH0 REVERT JUMPDEST PUSH32 0x4E487B7100000000000000000000000000000000000000000000000000000000 PUSH0 MSTORE PUSH1 0x22 PUSH1 0x4 MSTORE PUSH1 0x24 PUSH0 REVERT JUMPDEST PUSH0 PUSH1 0x2 DUP3 DIV SWAP1 POP PUSH1 0x1 DUP3 AND DUP1 PUSH2 0x83F JUMPI PUSH1 0x7F DUP3 AND SWAP2 POP JUMPDEST PUSH1 0x20 DUP3 LT DUP2 SUB PUSH2 0x852 JUMPI PUSH2 0x851 PUSH2 0x7FB JUMP JUMPDEST JUMPDEST POP SWAP2 SWAP1 POP JUMP JUMPDEST PUSH32 0x4E487B7100000000000000000000000000000000000000000000000000000000 PUSH0 MSTORE PUSH1 0x41 PUSH1 0x4 MSTORE PUSH1 0x24 PUSH0 REVERT JUMPDEST PUSH0 DUP2 SWAP1 POP DUP2 PUSH0 MSTORE PUSH1 0x20 PUSH0 KECCAK256 SWAP1 POP SWAP2 SWAP1 POP JUMP JUMPDEST PUSH0 PUSH1 0x20 PUSH1 0x1F DUP4 ADD DIV SWAP1 POP SWAP2 SWAP1 POP JUMP JUMPDEST PUSH0 DUP3 DUP3 SHL SWAP1 POP SWAP3 SWAP2 POP POP JUMP JUMPDEST PUSH0 PUSH1 0x8 DUP4 MUL PUSH2 0x8E1 PUSH32 0xFFFFFFFFFFFFFFFFFFFFFFFFFFFFFFFFFFFFFFFFFFFFFFFFFFFFFFFFFFFFFFFF DUP3 PUSH2 0x8A6 JUMP JUMPDEST PUSH2 0x8EB DUP7 DUP4 PUSH2 0x8A6 JUMP JUMPDEST SWAP6 POP DUP1 NOT DUP5 AND SWAP4 POP DUP1 DUP7 AND DUP5 OR SWAP3 POP POP POP SWAP4 SWAP3 POP POP POP JUMP JUMPDEST PUSH0 DUP2 SWAP1 POP SWAP2 SWAP1 POP JUMP JUMPDEST PUSH0 PUSH2 0x926 PUSH2 0x921 PUSH2 0x91C DUP5 PUSH2 0x669 JUMP JUMPDEST PUSH2 0x903 JUMP JUMPDEST PUSH2 0x669 JUMP JUMPDEST SWAP1 POP SWAP2 SWAP1 POP JUMP JUMPDEST PUSH0 DUP2 SWAP1 POP SWAP2 SWAP1 POP JUMP JUMPDEST PUSH2 0x93F DUP4 PUSH2 0x90C JUMP JUMPDEST PUSH2 0x953 PUSH2 0x94B DUP3 PUSH2 0x92D JUMP JUMPDEST DUP5 DUP5 SLOAD PUSH2 0x8B2 JUMP JUMPDEST DUP3 SSTORE POP POP POP POP JUMP JUMPDEST PUSH0 SWAP1 JUMP JUMPDEST PUSH2 0x967 PUSH2 0x95B JUMP JUMPDEST PUSH2 0x972 DUP2 DUP5 DUP5 PUSH2 0x936 JUMP JUMPDEST POP POP POP JUMP JUMPDEST JUMPDEST DUP2 DUP2 LT ISZERO PUSH2 0x995 JUMPI PUSH2 0x98A PUSH0 DUP3 PUSH2 0x95F JUMP JUMPDEST PUSH1 0x1 DUP2 ADD SWAP1 POP PUSH2 0x978 JUMP JUMPDEST POP POP JUMP JUMPDEST PUSH1 0x1F DUP3 GT ISZERO PUSH2 0x9DA JUMPI PUSH2 0x9AB DUP2 PUSH2 0x885 JUMP JUMPDEST PUSH2 0x9B4 DUP5 PUSH2 0x897 JUMP JUMPDEST DUP2 ADD PUSH1 0x20 DUP6 LT ISZERO PUSH2 0x9C3 JUMPI DUP2 SWAP1 POP JUMPDEST PUSH2 0x9D7 PUSH2 0x9CF DUP6 PUSH2 0x897 JUMP JUMPDEST DUP4 ADD DUP3 PUSH2 0x977 JUMP JUMPDEST POP POP JUMPDEST POP POP POP JUMP JUMPDEST PUSH0 DUP3 DUP3 SHR SWAP1 POP SWAP3 SWAP2 POP POP JUMP JUMPDEST PUSH0 PUSH2 0x9FA PUSH0 NOT DUP5 PUSH1 0x8 MUL PUSH2 0x9DF JUMP JUMPDEST NOT DUP1 DUP4 AND SWAP2 POP POP SWAP3 SWAP2 POP POP JUMP JUMPDEST PUSH0 PUSH2 0xA12 DUP4 DUP4 PUSH2 0x9EB JUMP JUMPDEST SWAP2 POP DUP3 PUSH1 0x2 MUL DUP3 OR SWAP1 POP SWAP3 SWAP2 POP POP JUMP JUMPDEST PUSH2 0xA2B DUP3 PUSH2 0x6C7 JUMP JUMPDEST PUSH8 0xFFFFFFFFFFFFFFFF DUP2 GT ISZERO PUSH2 0xA44 JUMPI PUSH2 0xA43 PUSH2 0x858 JUMP JUMPDEST JUMPDEST PUSH2 0xA4E DUP3 SLOAD PUSH2 0x828 JUMP JUMPDEST PUSH2 0xA59 DUP3 DUP3 DUP6 PUSH2 0x999 JUMP JUMPDEST PUSH0 PUSH1 0x20 SWAP1 POP PUSH1 0x1F DUP4 GT PUSH1 0x1 DUP2 EQ PUSH2 0xA8A JUMPI PUSH0 DUP5 ISZERO PUSH2 0xA78 JUMPI DUP3 DUP8 ADD MLOAD SWAP1 POP JUMPDEST PUSH2 0xA82 DUP6 DUP3 PUSH2 0xA07 JUMP JUMPDEST DUP7 SSTORE POP PUSH2 0xAE9 JUMP JUMPDEST PUSH1 0x1F NOT DUP5 AND PUSH2 0xA98 DUP7 PUSH2 0x885 JUMP JUMPDEST PUSH0 JUMPDEST DUP3 DUP2 LT ISZERO PUSH2 0xABF JUMPI DUP5 DUP10 ADD MLOAD DUP3 SSTORE PUSH1 0x1 DUP3 ADD SWAP2 POP PUSH1 0x20 DUP6 ADD SWAP5 POP PUSH1 0x20 DUP2 ADD SWAP1 POP PUSH2 0xA9A JUMP JUMPDEST DUP7 DUP4 LT ISZERO PUSH2 0xADC JUMPI DUP5 DUP10 ADD MLOAD PUSH2 0xAD8 PUSH1 0x1F DUP10 AND DUP3 PUSH2 0x9EB JUMP JUMPDEST DUP4 SSTORE POP JUMPDEST PUSH1 0x1 PUSH1 0x2 DUP9 MUL ADD DUP9 SSTORE POP POP POP JUMPDEST POP POP POP POP POP POP JUMP INVALID LOG2 PUSH5 0x6970667358 0x22 SLT KECCAK256 EQ 0x2F PUSH29 0x83925E727FE2699F01D970F6EA35B51A9323635723404B38E8EF89E5CB PUSH5 0x736F6C6343 STOP ADDMOD BYTE STOP CALLER "
				},
				"gasEstimates": {
					"creation": {
						"codeDepositCost": "571000",
						"executionCost": "604",
						"totalCost": "571604"
					},
					"external": {
						"addToArrays()": "infinite",
						"deleteCar()": "infinite",
						"readAndModify()": "28752",
						"vehicleArr(uint256)": "infinite"
					}
				},
				"methodIdentifiers": {
					"addToArrays()": "db8946ec",
					"deleteCar()": "bcce66c9",
					"readAndModify()": "13a56e70",
					"vehicleArr(uint256)": "9375d9a9"
				}
			},
			"storageLayout": {
				"storage": [
					{
						"astId": 12,
						"contract": "contract/Vehicle.sol:VehicleDemo",
						"label": "vehicleArr",
						"offset": 0,
						"slot": "0",
						"type": "t_array(t_struct(Vehicle)8_storage)dyn_storage"
					}
				],
				"types": {
					"t_address": {
						"encoding": "inplace",
						"label": "address",
						"numberOfBytes": "20"
					},
					"t_array(t_struct(Vehicle)8_storage)dyn_storage": {
						"base": "t_struct(Vehicle)8_storage",
						"encoding": "dynamic_array",
						"label": "struct VehicleDemo.Vehicle[]",
						"numberOfBytes": "32"
					},
					"t_string_storage": {
						"encoding": "bytes",
						"label": "string",
						"numberOfBytes": "32"
					},
					"t_struct(Vehicle)8_storage": {
						"encoding": "inplace",
						"label": "struct VehicleDemo.Vehicle",
						"members": [
							{
								"astId": 3,
								"contract": "contract/Vehicle.sol:VehicleDemo",
								"label": "make",
								"offset": 0,
								"slot": "0",
								"type": "t_string_storage"
							},
							{
								"astId": 5,
								"contract": "contract/Vehicle.sol:VehicleDemo",
								"label": "year",
								"offset": 0,
								"slot": "1",
								"type": "t_uint16"
							},
							{
								"astId": 7,
								"contract": "contract/Vehicle.sol:VehicleDemo",
								"label": "owner",
								"offset": 2,
								"slot": "1",
								"type": "t_address"
							}
						],
						"numberOfBytes": "64"
					},
					"t_uint16": {
						"encoding": "inplace",
						"label": "uint16",
						"numberOfBytes": "2"
					}
				}
			},
			"userdoc": {
				"kind": "user",
				"methods": {},
				"version": 1
			}
		}
	}
}