{
	"contract/IterableMapping.sol": {
		"IterableMapping": {
			"abi": [
				{
					"inputs": [
						{
							"internalType": "address",
							"name": "",
							"type": "address"
						}
					],
					"name": "balances",
					"outputs": [
						{
							"internalType": "uint256",
							"name": "",
							"type": "uint256"
						}
					],
					"stateMutability": "view",
					"type": "function"
				},
				{
					"inputs": [],
					"name": "first",
					"outputs": [
						{
							"internalType": "uint256",
							"name": "",
							"type": "uint256"
						}
					],
					"stateMutability": "view",
					"type": "function"
				},
				{
					"inputs": [],
					"name": "getSize",
					"outputs": [
						{
							"internalType": "uint256",
							"name": "",
							"type": "uint256"
						}
					],
					"stateMutability": "view",
					"type": "function"
				},
				{
					"inputs": [
						{
							"internalType": "address",
							"name": "",
							"type": "address"
						}
					],
					"name": "inserted",
					"outputs": [
						{
							"internalType": "bool",
							"name": "",
							"type": "bool"
						}
					],
					"stateMutability": "view",
					"type": "function"
				},
				{
					"inputs": [
						{
							"internalType": "uint256",
							"name": "",
							"type": "uint256"
						}
					],
					"name": "keys",
					"outputs": [
						{
							"internalType": "address",
							"name": "",
							"type": "address"
						}
					],
					"stateMutability": "view",
					"type": "function"
				},
				{
					"inputs": [],
					"name": "last",
					"outputs": [
						{
							"internalType": "uint256",
							"name": "",
							"type": "uint256"
						}
					],
					"stateMutability": "view",
					"type": "function"
				},
				{
					"inputs": [
						{
							"internalType": "uint256",
							"name": "_index",
							"type": "uint256"
						}
					],
					"name": "readFromKeysAndbalances",
					"outputs": [
						{
							"internalType": "uint256",
							"name": "",
							"type": "uint256"
						}
					],
					"stateMutability": "view",
					"type": "function"
				},
				{
					"inputs": [
						{
							"internalType": "address",
							"name": "_k",
							"type": "address"
						},
						{
							"internalType": "uint256",
							"name": "_v",
							"type": "uint256"
						}
					],
					"name": "set",
					"outputs": [],
					"stateMutability": "nonpayable",
					"type": "function"
				}
			],
			"devdoc": {
				"kind": "dev",
				"methods": {},
				"version": 1
			},
			"evm": {
				"assembly": "    /* \"contract/IterableMapping.sol\":62:856  contract IterableMapping {... */\n  mstore(0x40, 0x80)\n  callvalue\n  dup1\n  iszero\n  tag_1\n  jumpi\n  0x00\n  dup1\n  revert\ntag_1:\n  pop\n  dataSize(sub_0)\n  dup1\n  dataOffset(sub_0)\n  0x00\n  codecopy\n  0x00\n  return\nstop\n\nsub_0: assembly {\n        /* \"contract/IterableMapping.sol\":62:856  contract IterableMapping {... */\n      mstore(0x40, 0x80)\n      callvalue\n      dup1\n      iszero\n      tag_1\n      jumpi\n      0x00\n      dup1\n      revert\n    tag_1:\n      pop\n      jumpi(tag_2, lt(calldatasize, 0x04))\n      shr(0xe0, calldataload(0x00))\n      dup1\n      0x47799da8\n      gt\n      tag_11\n      jumpi\n      dup1\n      0x47799da8\n      eq\n      tag_7\n      jumpi\n      dup1\n      0x7cd380f1\n      eq\n      tag_8\n      jumpi\n      dup1\n      0x9a021013\n      eq\n      tag_9\n      jumpi\n      dup1\n      0xde8fa431\n      eq\n      tag_10\n      jumpi\n      jump(tag_2)\n    tag_11:\n      dup1\n      0x0cb6aaf1\n      eq\n      tag_3\n      jumpi\n      dup1\n      0x27e235e3\n      eq\n      tag_4\n      jumpi\n      dup1\n      0x3825d828\n      eq\n      tag_5\n      jumpi\n      dup1\n      0x3df4ddf4\n      eq\n      tag_6\n      jumpi\n    tag_2:\n      0x00\n      dup1\n      revert\n        /* \"contract/IterableMapping.sol\":142:163  address[] public keys */\n    tag_3:\n      tag_12\n      0x04\n      dup1\n      calldatasize\n      sub\n      dup2\n      add\n      swap1\n      tag_13\n      swap2\n      swap1\n      tag_14\n      jump\t// in\n    tag_13:\n      tag_15\n      jump\t// in\n    tag_12:\n      mload(0x40)\n      tag_16\n      swap2\n      swap1\n      tag_17\n      jump\t// in\n    tag_16:\n      mload(0x40)\n      dup1\n      swap2\n      sub\n      swap1\n      return\n        /* \"contract/IterableMapping.sol\":93:136  mapping(address => uint256) public balances */\n    tag_4:\n      tag_18\n      0x04\n      dup1\n      calldatasize\n      sub\n      dup2\n      add\n      swap1\n      tag_19\n      swap2\n      swap1\n      tag_20\n      jump\t// in\n    tag_19:\n      tag_21\n      jump\t// in\n    tag_18:\n      mload(0x40)\n      tag_22\n      swap2\n      swap1\n      tag_23\n      jump\t// in\n    tag_22:\n      mload(0x40)\n      dup1\n      swap2\n      sub\n      swap1\n      return\n        /* \"contract/IterableMapping.sol\":216:396  function set(address _k, uint256 _v) external {... */\n    tag_5:\n      tag_24\n      0x04\n      dup1\n      calldatasize\n      sub\n      dup2\n      add\n      swap1\n      tag_25\n      swap2\n      swap1\n      tag_26\n      jump\t// in\n    tag_25:\n      tag_27\n      jump\t// in\n    tag_24:\n      stop\n        /* \"contract/IterableMapping.sol\":655:745  function first() external view returns (uint256) {... */\n    tag_6:\n      tag_28\n      tag_29\n      jump\t// in\n    tag_28:\n      mload(0x40)\n      tag_30\n      swap2\n      swap1\n      tag_23\n      jump\t// in\n    tag_30:\n      mload(0x40)\n      dup1\n      swap2\n      sub\n      swap1\n      return\n        /* \"contract/IterableMapping.sol\":751:854  function last() external view returns (uint256) {... */\n    tag_7:\n      tag_31\n      tag_32\n      jump\t// in\n    tag_31:\n      mload(0x40)\n      tag_33\n      swap2\n      swap1\n      tag_23\n      jump\t// in\n    tag_33:\n      mload(0x40)\n      dup1\n      swap2\n      sub\n      swap1\n      return\n        /* \"contract/IterableMapping.sol\":169:209  mapping(address => bool) public inserted */\n    tag_8:\n      tag_34\n      0x04\n      dup1\n      calldatasize\n      sub\n      dup2\n      add\n      swap1\n      tag_35\n      swap2\n      swap1\n      tag_20\n      jump\t// in\n    tag_35:\n      tag_36\n      jump\t// in\n    tag_34:\n      mload(0x40)\n      tag_37\n      swap2\n      swap1\n      tag_38\n      jump\t// in\n    tag_37:\n      mload(0x40)\n      dup1\n      swap2\n      sub\n      swap1\n      return\n        /* \"contract/IterableMapping.sol\":494:649  function readFromKeysAndbalances(uint256 _index)... */\n    tag_9:\n      tag_39\n      0x04\n      dup1\n      calldatasize\n      sub\n      dup2\n      add\n      swap1\n      tag_40\n      swap2\n      swap1\n      tag_14\n      jump\t// in\n    tag_40:\n      tag_41\n      jump\t// in\n    tag_39:\n      mload(0x40)\n      tag_42\n      swap2\n      swap1\n      tag_23\n      jump\t// in\n    tag_42:\n      mload(0x40)\n      dup1\n      swap2\n      sub\n      swap1\n      return\n        /* \"contract/IterableMapping.sol\":402:488  function getSize() external view returns (uint256) {... */\n    tag_10:\n      tag_43\n      tag_44\n      jump\t// in\n    tag_43:\n      mload(0x40)\n      tag_45\n      swap2\n      swap1\n      tag_23\n      jump\t// in\n    tag_45:\n      mload(0x40)\n      dup1\n      swap2\n      sub\n      swap1\n      return\n        /* \"contract/IterableMapping.sol\":142:163  address[] public keys */\n    tag_15:\n      0x01\n      dup2\n      dup2\n      sload\n      dup2\n      lt\n      tag_46\n      jumpi\n      0x00\n      dup1\n      revert\n    tag_46:\n      swap1\n      0x00\n      mstore\n      keccak256(0x00, 0x20)\n      add\n      0x00\n      swap2\n      pop\n      sload\n      swap1\n      0x0100\n      exp\n      swap1\n      div\n      0xffffffffffffffffffffffffffffffffffffffff\n      and\n      dup2\n      jump\t// out\n        /* \"contract/IterableMapping.sol\":93:136  mapping(address => uint256) public balances */\n    tag_21:\n      mstore(0x20, 0x00)\n      dup1\n      0x00\n      mstore\n      keccak256(0x00, 0x40)\n      0x00\n      swap2\n      pop\n      swap1\n      pop\n      sload\n      dup2\n      jump\t// out\n        /* \"contract/IterableMapping.sol\":216:396  function set(address _k, uint256 _v) external {... */\n    tag_27:\n        /* \"contract/IterableMapping.sol\":287:289  _v */\n      dup1\n        /* \"contract/IterableMapping.sol\":272:280  balances */\n      0x00\n        /* \"contract/IterableMapping.sol\":272:284  balances[_k] */\n      dup1\n        /* \"contract/IterableMapping.sol\":281:283  _k */\n      dup5\n        /* \"contract/IterableMapping.sol\":272:284  balances[_k] */\n      0xffffffffffffffffffffffffffffffffffffffff\n      and\n      0xffffffffffffffffffffffffffffffffffffffff\n      and\n      dup2\n      mstore\n      0x20\n      add\n      swap1\n      dup2\n      mstore\n      0x20\n      add\n      0x00\n      keccak256\n        /* \"contract/IterableMapping.sol\":272:289  balances[_k] = _v */\n      dup2\n      swap1\n      sstore\n      pop\n        /* \"contract/IterableMapping.sol\":305:313  inserted */\n      0x02\n        /* \"contract/IterableMapping.sol\":305:317  inserted[_k] */\n      0x00\n        /* \"contract/IterableMapping.sol\":314:316  _k */\n      dup4\n        /* \"contract/IterableMapping.sol\":305:317  inserted[_k] */\n      0xffffffffffffffffffffffffffffffffffffffff\n      and\n      0xffffffffffffffffffffffffffffffffffffffff\n      and\n      dup2\n      mstore\n      0x20\n      add\n      swap1\n      dup2\n      mstore\n      0x20\n      add\n      0x00\n      keccak256\n      0x00\n      swap1\n      sload\n      swap1\n      0x0100\n      exp\n      swap1\n      div\n      0xff\n      and\n        /* \"contract/IterableMapping.sol\":300:390  if (!inserted[_k]) {... */\n      tag_49\n      jumpi\n        /* \"contract/IterableMapping.sol\":333:337  keys */\n      0x01\n        /* \"contract/IterableMapping.sol\":343:345  _k */\n      dup3\n        /* \"contract/IterableMapping.sol\":333:346  keys.push(_k) */\n      swap1\n      dup1\n      0x01\n      dup2\n      sload\n      add\n      dup1\n      dup3\n      sstore\n      dup1\n      swap2\n      pop\n      pop\n      0x01\n      swap1\n      sub\n      swap1\n      0x00\n      mstore\n      keccak256(0x00, 0x20)\n      add\n      0x00\n      swap1\n      swap2\n      swap1\n      swap2\n      swap1\n      swap2\n      0x0100\n      exp\n      dup2\n      sload\n      dup2\n      0xffffffffffffffffffffffffffffffffffffffff\n      mul\n      not\n      and\n      swap1\n      dup4\n      0xffffffffffffffffffffffffffffffffffffffff\n      and\n      mul\n      or\n      swap1\n      sstore\n      pop\n        /* \"contract/IterableMapping.sol\":375:379  true */\n      0x01\n        /* \"contract/IterableMapping.sol\":360:368  inserted */\n      0x02\n        /* \"contract/IterableMapping.sol\":360:372  inserted[_k] */\n      0x00\n        /* \"contract/IterableMapping.sol\":369:371  _k */\n      dup5\n        /* \"contract/IterableMapping.sol\":360:372  inserted[_k] */\n      0xffffffffffffffffffffffffffffffffffffffff\n      and\n      0xffffffffffffffffffffffffffffffffffffffff\n      and\n      dup2\n      mstore\n      0x20\n      add\n      swap1\n      dup2\n      mstore\n      0x20\n      add\n      0x00\n      keccak256\n      0x00\n        /* \"contract/IterableMapping.sol\":360:379  inserted[_k] = true */\n      0x0100\n      exp\n      dup2\n      sload\n      dup2\n      0xff\n      mul\n      not\n      and\n      swap1\n      dup4\n      iszero\n      iszero\n      mul\n      or\n      swap1\n      sstore\n      pop\n        /* \"contract/IterableMapping.sol\":300:390  if (!inserted[_k]) {... */\n    tag_49:\n        /* \"contract/IterableMapping.sol\":216:396  function set(address _k, uint256 _v) external {... */\n      pop\n      pop\n      jump\t// out\n        /* \"contract/IterableMapping.sol\":655:745  function first() external view returns (uint256) {... */\n    tag_29:\n        /* \"contract/IterableMapping.sol\":695:702  uint256 */\n      0x00\n        /* \"contract/IterableMapping.sol\":721:729  balances */\n      dup1\n        /* \"contract/IterableMapping.sol\":721:738  balances[keys[0]] */\n      0x00\n        /* \"contract/IterableMapping.sol\":730:734  keys */\n      0x01\n        /* \"contract/IterableMapping.sol\":735:736  0 */\n      0x00\n        /* \"contract/IterableMapping.sol\":730:737  keys[0] */\n      dup2\n      sload\n      dup2\n      lt\n      tag_52\n      jumpi\n      tag_53\n      tag_54\n      jump\t// in\n    tag_53:\n    tag_52:\n      swap1\n      0x00\n      mstore\n      keccak256(0x00, 0x20)\n      add\n      0x00\n      swap1\n      sload\n      swap1\n      0x0100\n      exp\n      swap1\n      div\n      0xffffffffffffffffffffffffffffffffffffffff\n      and\n        /* \"contract/IterableMapping.sol\":721:738  balances[keys[0]] */\n      0xffffffffffffffffffffffffffffffffffffffff\n      and\n      0xffffffffffffffffffffffffffffffffffffffff\n      and\n      dup2\n      mstore\n      0x20\n      add\n      swap1\n      dup2\n      mstore\n      0x20\n      add\n      0x00\n      keccak256\n      sload\n        /* \"contract/IterableMapping.sol\":714:738  return balances[keys[0]] */\n      swap1\n      pop\n        /* \"contract/IterableMapping.sol\":655:745  function first() external view returns (uint256) {... */\n      swap1\n      jump\t// out\n        /* \"contract/IterableMapping.sol\":751:854  function last() external view returns (uint256) {... */\n    tag_32:\n        /* \"contract/IterableMapping.sol\":790:797  uint256 */\n      0x00\n        /* \"contract/IterableMapping.sol\":816:824  balances */\n      dup1\n        /* \"contract/IterableMapping.sol\":816:847  balances[keys[keys.length - 1]] */\n      0x00\n        /* \"contract/IterableMapping.sol\":825:829  keys */\n      0x01\n        /* \"contract/IterableMapping.sol\":844:845  1 */\n      dup1\n        /* \"contract/IterableMapping.sol\":830:834  keys */\n      dup1\n        /* \"contract/IterableMapping.sol\":830:841  keys.length */\n      dup1\n      sload\n      swap1\n      pop\n        /* \"contract/IterableMapping.sol\":830:845  keys.length - 1 */\n      tag_57\n      swap2\n      swap1\n      tag_58\n      jump\t// in\n    tag_57:\n        /* \"contract/IterableMapping.sol\":825:846  keys[keys.length - 1] */\n      dup2\n      sload\n      dup2\n      lt\n      tag_59\n      jumpi\n      tag_60\n      tag_54\n      jump\t// in\n    tag_60:\n    tag_59:\n      swap1\n      0x00\n      mstore\n      keccak256(0x00, 0x20)\n      add\n      0x00\n      swap1\n      sload\n      swap1\n      0x0100\n      exp\n      swap1\n      div\n      0xffffffffffffffffffffffffffffffffffffffff\n      and\n        /* \"contract/IterableMapping.sol\":816:847  balances[keys[keys.length - 1]] */\n      0xffffffffffffffffffffffffffffffffffffffff\n      and\n      0xffffffffffffffffffffffffffffffffffffffff\n      and\n      dup2\n      mstore\n      0x20\n      add\n      swap1\n      dup2\n      mstore\n      0x20\n      add\n      0x00\n      keccak256\n      sload\n        /* \"contract/IterableMapping.sol\":809:847  return balances[keys[keys.length - 1]] */\n      swap1\n      pop\n        /* \"contract/IterableMapping.sol\":751:854  function last() external view returns (uint256) {... */\n      swap1\n      jump\t// out\n        /* \"contract/IterableMapping.sol\":169:209  mapping(address => bool) public inserted */\n    tag_36:\n      mstore(0x20, 0x02)\n      dup1\n      0x00\n      mstore\n      keccak256(0x00, 0x40)\n      0x00\n      swap2\n      pop\n      sload\n      swap1\n      0x0100\n      exp\n      swap1\n      div\n      0xff\n      and\n      dup2\n      jump\t// out\n        /* \"contract/IterableMapping.sol\":494:649  function readFromKeysAndbalances(uint256 _index)... */\n    tag_41:\n        /* \"contract/IterableMapping.sol\":590:597  uint256 */\n      0x00\n        /* \"contract/IterableMapping.sol\":620:628  balances */\n      dup1\n        /* \"contract/IterableMapping.sol\":620:642  balances[keys[_index]] */\n      0x00\n        /* \"contract/IterableMapping.sol\":629:633  keys */\n      0x01\n        /* \"contract/IterableMapping.sol\":634:640  _index */\n      dup5\n        /* \"contract/IterableMapping.sol\":629:641  keys[_index] */\n      dup2\n      sload\n      dup2\n      lt\n      tag_63\n      jumpi\n      tag_64\n      tag_54\n      jump\t// in\n    tag_64:\n    tag_63:\n      swap1\n      0x00\n      mstore\n      keccak256(0x00, 0x20)\n      add\n      0x00\n      swap1\n      sload\n      swap1\n      0x0100\n      exp\n      swap1\n      div\n      0xffffffffffffffffffffffffffffffffffffffff\n      and\n        /* \"contract/IterableMapping.sol\":620:642  balances[keys[_index]] */\n      0xffffffffffffffffffffffffffffffffffffffff\n      and\n      0xffffffffffffffffffffffffffffffffffffffff\n      and\n      dup2\n      mstore\n      0x20\n      add\n      swap1\n      dup2\n      mstore\n      0x20\n      add\n      0x00\n      keccak256\n      sload\n        /* \"contract/IterableMapping.sol\":613:642  return balances[keys[_index]] */\n      swap1\n      pop\n        /* \"contract/IterableMapping.sol\":494:649  function readFromKeysAndbalances(uint256 _index)... */\n      swap2\n      swap1\n      pop\n      jump\t// out\n        /* \"contract/IterableMapping.sol\":402:488  function getSize() external view returns (uint256) {... */\n    tag_44:\n        /* \"contract/IterableMapping.sol\":444:451  uint256 */\n      0x00\n        /* \"contract/IterableMapping.sol\":470:474  keys */\n      0x01\n        /* \"contract/IterableMapping.sol\":470:481  keys.length */\n      dup1\n      sload\n      swap1\n      pop\n        /* \"contract/IterableMapping.sol\":463:481  return keys.length */\n      swap1\n      pop\n        /* \"contract/IterableMapping.sol\":402:488  function getSize() external view returns (uint256) {... */\n      swap1\n      jump\t// out\n        /* \"#utility.yul\":7:146   */\n    tag_68:\n        /* \"#utility.yul\":53:58   */\n      0x00\n        /* \"#utility.yul\":91:97   */\n      dup2\n        /* \"#utility.yul\":78:98   */\n      calldataload\n        /* \"#utility.yul\":69:98   */\n      swap1\n      pop\n        /* \"#utility.yul\":107:140   */\n      tag_70\n        /* \"#utility.yul\":134:139   */\n      dup2\n        /* \"#utility.yul\":107:140   */\n      tag_71\n      jump\t// in\n    tag_70:\n        /* \"#utility.yul\":7:146   */\n      swap3\n      swap2\n      pop\n      pop\n      jump\t// out\n        /* \"#utility.yul\":152:291   */\n    tag_72:\n        /* \"#utility.yul\":198:203   */\n      0x00\n        /* \"#utility.yul\":236:242   */\n      dup2\n        /* \"#utility.yul\":223:243   */\n      calldataload\n        /* \"#utility.yul\":214:243   */\n      swap1\n      pop\n        /* \"#utility.yul\":252:285   */\n      tag_74\n        /* \"#utility.yul\":279:284   */\n      dup2\n        /* \"#utility.yul\":252:285   */\n      tag_75\n      jump\t// in\n    tag_74:\n        /* \"#utility.yul\":152:291   */\n      swap3\n      swap2\n      pop\n      pop\n      jump\t// out\n        /* \"#utility.yul\":297:626   */\n    tag_20:\n        /* \"#utility.yul\":356:362   */\n      0x00\n        /* \"#utility.yul\":405:407   */\n      0x20\n        /* \"#utility.yul\":393:402   */\n      dup3\n        /* \"#utility.yul\":384:391   */\n      dup5\n        /* \"#utility.yul\":380:403   */\n      sub\n        /* \"#utility.yul\":376:408   */\n      slt\n        /* \"#utility.yul\":373:492   */\n      iszero\n      tag_77\n      jumpi\n        /* \"#utility.yul\":411:490   */\n      tag_78\n      tag_79\n      jump\t// in\n    tag_78:\n        /* \"#utility.yul\":373:492   */\n    tag_77:\n        /* \"#utility.yul\":531:532   */\n      0x00\n        /* \"#utility.yul\":556:609   */\n      tag_80\n        /* \"#utility.yul\":601:608   */\n      dup5\n        /* \"#utility.yul\":592:598   */\n      dup3\n        /* \"#utility.yul\":581:590   */\n      dup6\n        /* \"#utility.yul\":577:599   */\n      add\n        /* \"#utility.yul\":556:609   */\n      tag_68\n      jump\t// in\n    tag_80:\n        /* \"#utility.yul\":546:609   */\n      swap2\n      pop\n        /* \"#utility.yul\":502:619   */\n      pop\n        /* \"#utility.yul\":297:626   */\n      swap3\n      swap2\n      pop\n      pop\n      jump\t// out\n        /* \"#utility.yul\":632:1106   */\n    tag_26:\n        /* \"#utility.yul\":700:706   */\n      0x00\n        /* \"#utility.yul\":708:714   */\n      dup1\n        /* \"#utility.yul\":757:759   */\n      0x40\n        /* \"#utility.yul\":745:754   */\n      dup4\n        /* \"#utility.yul\":736:743   */\n      dup6\n        /* \"#utility.yul\":732:755   */\n      sub\n        /* \"#utility.yul\":728:760   */\n      slt\n        /* \"#utility.yul\":725:844   */\n      iszero\n      tag_82\n      jumpi\n        /* \"#utility.yul\":763:842   */\n      tag_83\n      tag_79\n      jump\t// in\n    tag_83:\n        /* \"#utility.yul\":725:844   */\n    tag_82:\n        /* \"#utility.yul\":883:884   */\n      0x00\n        /* \"#utility.yul\":908:961   */\n      tag_84\n        /* \"#utility.yul\":953:960   */\n      dup6\n        /* \"#utility.yul\":944:950   */\n      dup3\n        /* \"#utility.yul\":933:942   */\n      dup7\n        /* \"#utility.yul\":929:951   */\n      add\n        /* \"#utility.yul\":908:961   */\n      tag_68\n      jump\t// in\n    tag_84:\n        /* \"#utility.yul\":898:961   */\n      swap3\n      pop\n        /* \"#utility.yul\":854:971   */\n      pop\n        /* \"#utility.yul\":1010:1012   */\n      0x20\n        /* \"#utility.yul\":1036:1089   */\n      tag_85\n        /* \"#utility.yul\":1081:1088   */\n      dup6\n        /* \"#utility.yul\":1072:1078   */\n      dup3\n        /* \"#utility.yul\":1061:1070   */\n      dup7\n        /* \"#utility.yul\":1057:1079   */\n      add\n        /* \"#utility.yul\":1036:1089   */\n      tag_72\n      jump\t// in\n    tag_85:\n        /* \"#utility.yul\":1026:1089   */\n      swap2\n      pop\n        /* \"#utility.yul\":981:1099   */\n      pop\n        /* \"#utility.yul\":632:1106   */\n      swap3\n      pop\n      swap3\n      swap1\n      pop\n      jump\t// out\n        /* \"#utility.yul\":1112:1441   */\n    tag_14:\n        /* \"#utility.yul\":1171:1177   */\n      0x00\n        /* \"#utility.yul\":1220:1222   */\n      0x20\n        /* \"#utility.yul\":1208:1217   */\n      dup3\n        /* \"#utility.yul\":1199:1206   */\n      dup5\n        /* \"#utility.yul\":1195:1218   */\n      sub\n        /* \"#utility.yul\":1191:1223   */\n      slt\n        /* \"#utility.yul\":1188:1307   */\n      iszero\n      tag_87\n      jumpi\n        /* \"#utility.yul\":1226:1305   */\n      tag_88\n      tag_79\n      jump\t// in\n    tag_88:\n        /* \"#utility.yul\":1188:1307   */\n    tag_87:\n        /* \"#utility.yul\":1346:1347   */\n      0x00\n        /* \"#utility.yul\":1371:1424   */\n      tag_89\n        /* \"#utility.yul\":1416:1423   */\n      dup5\n        /* \"#utility.yul\":1407:1413   */\n      dup3\n        /* \"#utility.yul\":1396:1405   */\n      dup6\n        /* \"#utility.yul\":1392:1414   */\n      add\n        /* \"#utility.yul\":1371:1424   */\n      tag_72\n      jump\t// in\n    tag_89:\n        /* \"#utility.yul\":1361:1424   */\n      swap2\n      pop\n        /* \"#utility.yul\":1317:1434   */\n      pop\n        /* \"#utility.yul\":1112:1441   */\n      swap3\n      swap2\n      pop\n      pop\n      jump\t// out\n        /* \"#utility.yul\":1447:1565   */\n    tag_90:\n        /* \"#utility.yul\":1534:1558   */\n      tag_92\n        /* \"#utility.yul\":1552:1557   */\n      dup2\n        /* \"#utility.yul\":1534:1558   */\n      tag_93\n      jump\t// in\n    tag_92:\n        /* \"#utility.yul\":1529:1532   */\n      dup3\n        /* \"#utility.yul\":1522:1559   */\n      mstore\n        /* \"#utility.yul\":1447:1565   */\n      pop\n      pop\n      jump\t// out\n        /* \"#utility.yul\":1571:1680   */\n    tag_94:\n        /* \"#utility.yul\":1652:1673   */\n      tag_96\n        /* \"#utility.yul\":1667:1672   */\n      dup2\n        /* \"#utility.yul\":1652:1673   */\n      tag_97\n      jump\t// in\n    tag_96:\n        /* \"#utility.yul\":1647:1650   */\n      dup3\n        /* \"#utility.yul\":1640:1674   */\n      mstore\n        /* \"#utility.yul\":1571:1680   */\n      pop\n      pop\n      jump\t// out\n        /* \"#utility.yul\":1686:1804   */\n    tag_98:\n        /* \"#utility.yul\":1773:1797   */\n      tag_100\n        /* \"#utility.yul\":1791:1796   */\n      dup2\n        /* \"#utility.yul\":1773:1797   */\n      tag_101\n      jump\t// in\n    tag_100:\n        /* \"#utility.yul\":1768:1771   */\n      dup3\n        /* \"#utility.yul\":1761:1798   */\n      mstore\n        /* \"#utility.yul\":1686:1804   */\n      pop\n      pop\n      jump\t// out\n        /* \"#utility.yul\":1810:2032   */\n    tag_17:\n        /* \"#utility.yul\":1903:1907   */\n      0x00\n        /* \"#utility.yul\":1941:1943   */\n      0x20\n        /* \"#utility.yul\":1930:1939   */\n      dup3\n        /* \"#utility.yul\":1926:1944   */\n      add\n        /* \"#utility.yul\":1918:1944   */\n      swap1\n      pop\n        /* \"#utility.yul\":1954:2025   */\n      tag_103\n        /* \"#utility.yul\":2022:2023   */\n      0x00\n        /* \"#utility.yul\":2011:2020   */\n      dup4\n        /* \"#utility.yul\":2007:2024   */\n      add\n        /* \"#utility.yul\":1998:2004   */\n      dup5\n        /* \"#utility.yul\":1954:2025   */\n      tag_90\n      jump\t// in\n    tag_103:\n        /* \"#utility.yul\":1810:2032   */\n      swap3\n      swap2\n      pop\n      pop\n      jump\t// out\n        /* \"#utility.yul\":2038:2248   */\n    tag_38:\n        /* \"#utility.yul\":2125:2129   */\n      0x00\n        /* \"#utility.yul\":2163:2165   */\n      0x20\n        /* \"#utility.yul\":2152:2161   */\n      dup3\n        /* \"#utility.yul\":2148:2166   */\n      add\n        /* \"#utility.yul\":2140:2166   */\n      swap1\n      pop\n        /* \"#utility.yul\":2176:2241   */\n      tag_105\n        /* \"#utility.yul\":2238:2239   */\n      0x00\n        /* \"#utility.yul\":2227:2236   */\n      dup4\n        /* \"#utility.yul\":2223:2240   */\n      add\n        /* \"#utility.yul\":2214:2220   */\n      dup5\n        /* \"#utility.yul\":2176:2241   */\n      tag_94\n      jump\t// in\n    tag_105:\n        /* \"#utility.yul\":2038:2248   */\n      swap3\n      swap2\n      pop\n      pop\n      jump\t// out\n        /* \"#utility.yul\":2254:2476   */\n    tag_23:\n        /* \"#utility.yul\":2347:2351   */\n      0x00\n        /* \"#utility.yul\":2385:2387   */\n      0x20\n        /* \"#utility.yul\":2374:2383   */\n      dup3\n        /* \"#utility.yul\":2370:2388   */\n      add\n        /* \"#utility.yul\":2362:2388   */\n      swap1\n      pop\n        /* \"#utility.yul\":2398:2469   */\n      tag_107\n        /* \"#utility.yul\":2466:2467   */\n      0x00\n        /* \"#utility.yul\":2455:2464   */\n      dup4\n        /* \"#utility.yul\":2451:2468   */\n      add\n        /* \"#utility.yul\":2442:2448   */\n      dup5\n        /* \"#utility.yul\":2398:2469   */\n      tag_98\n      jump\t// in\n    tag_107:\n        /* \"#utility.yul\":2254:2476   */\n      swap3\n      swap2\n      pop\n      pop\n      jump\t// out\n        /* \"#utility.yul\":2563:2754   */\n    tag_58:\n        /* \"#utility.yul\":2603:2607   */\n      0x00\n        /* \"#utility.yul\":2623:2643   */\n      tag_111\n        /* \"#utility.yul\":2641:2642   */\n      dup3\n        /* \"#utility.yul\":2623:2643   */\n      tag_101\n      jump\t// in\n    tag_111:\n        /* \"#utility.yul\":2618:2643   */\n      swap2\n      pop\n        /* \"#utility.yul\":2657:2677   */\n      tag_112\n        /* \"#utility.yul\":2675:2676   */\n      dup4\n        /* \"#utility.yul\":2657:2677   */\n      tag_101\n      jump\t// in\n    tag_112:\n        /* \"#utility.yul\":2652:2677   */\n      swap3\n      pop\n        /* \"#utility.yul\":2696:2697   */\n      dup3\n        /* \"#utility.yul\":2693:2694   */\n      dup3\n        /* \"#utility.yul\":2690:2698   */\n      lt\n        /* \"#utility.yul\":2687:2721   */\n      iszero\n      tag_113\n      jumpi\n        /* \"#utility.yul\":2701:2719   */\n      tag_114\n      tag_115\n      jump\t// in\n    tag_114:\n        /* \"#utility.yul\":2687:2721   */\n    tag_113:\n        /* \"#utility.yul\":2746:2747   */\n      dup3\n        /* \"#utility.yul\":2743:2744   */\n      dup3\n        /* \"#utility.yul\":2739:2748   */\n      sub\n        /* \"#utility.yul\":2731:2748   */\n      swap1\n      pop\n        /* \"#utility.yul\":2563:2754   */\n      swap3\n      swap2\n      pop\n      pop\n      jump\t// out\n        /* \"#utility.yul\":2760:2856   */\n    tag_93:\n        /* \"#utility.yul\":2797:2804   */\n      0x00\n        /* \"#utility.yul\":2826:2850   */\n      tag_117\n        /* \"#utility.yul\":2844:2849   */\n      dup3\n        /* \"#utility.yul\":2826:2850   */\n      tag_118\n      jump\t// in\n    tag_117:\n        /* \"#utility.yul\":2815:2850   */\n      swap1\n      pop\n        /* \"#utility.yul\":2760:2856   */\n      swap2\n      swap1\n      pop\n      jump\t// out\n        /* \"#utility.yul\":2862:2952   */\n    tag_97:\n        /* \"#utility.yul\":2896:2903   */\n      0x00\n        /* \"#utility.yul\":2939:2944   */\n      dup2\n        /* \"#utility.yul\":2932:2945   */\n      iszero\n        /* \"#utility.yul\":2925:2946   */\n      iszero\n        /* \"#utility.yul\":2914:2946   */\n      swap1\n      pop\n        /* \"#utility.yul\":2862:2952   */\n      swap2\n      swap1\n      pop\n      jump\t// out\n        /* \"#utility.yul\":2958:3084   */\n    tag_118:\n        /* \"#utility.yul\":2995:3002   */\n      0x00\n        /* \"#utility.yul\":3035:3077   */\n      0xffffffffffffffffffffffffffffffffffffffff\n        /* \"#utility.yul\":3028:3033   */\n      dup3\n        /* \"#utility.yul\":3024:3078   */\n      and\n        /* \"#utility.yul\":3013:3078   */\n      swap1\n      pop\n        /* \"#utility.yul\":2958:3084   */\n      swap2\n      swap1\n      pop\n      jump\t// out\n        /* \"#utility.yul\":3090:3167   */\n    tag_101:\n        /* \"#utility.yul\":3127:3134   */\n      0x00\n        /* \"#utility.yul\":3156:3161   */\n      dup2\n        /* \"#utility.yul\":3145:3161   */\n      swap1\n      pop\n        /* \"#utility.yul\":3090:3167   */\n      swap2\n      swap1\n      pop\n      jump\t// out\n        /* \"#utility.yul\":3173:3353   */\n    tag_115:\n        /* \"#utility.yul\":3221:3298   */\n      0x4e487b7100000000000000000000000000000000000000000000000000000000\n        /* \"#utility.yul\":3218:3219   */\n      0x00\n        /* \"#utility.yul\":3211:3299   */\n      mstore\n        /* \"#utility.yul\":3318:3322   */\n      0x11\n        /* \"#utility.yul\":3315:3316   */\n      0x04\n        /* \"#utility.yul\":3308:3323   */\n      mstore\n        /* \"#utility.yul\":3342:3346   */\n      0x24\n        /* \"#utility.yul\":3339:3340   */\n      0x00\n        /* \"#utility.yul\":3332:3347   */\n      revert\n        /* \"#utility.yul\":3359:3539   */\n    tag_54:\n        /* \"#utility.yul\":3407:3484   */\n      0x4e487b7100000000000000000000000000000000000000000000000000000000\n        /* \"#utility.yul\":3404:3405   */\n      0x00\n        /* \"#utility.yul\":3397:3485   */\n      mstore\n        /* \"#utility.yul\":3504:3508   */\n      0x32\n        /* \"#utility.yul\":3501:3502   */\n      0x04\n        /* \"#utility.yul\":3494:3509   */\n      mstore\n        /* \"#utility.yul\":3528:3532   */\n      0x24\n        /* \"#utility.yul\":3525:3526   */\n      0x00\n        /* \"#utility.yul\":3518:3533   */\n      revert\n        /* \"#utility.yul\":3668:3785   */\n    tag_79:\n        /* \"#utility.yul\":3777:3778   */\n      0x00\n        /* \"#utility.yul\":3774:3775   */\n      dup1\n        /* \"#utility.yul\":3767:3779   */\n      revert\n        /* \"#utility.yul\":3791:3913   */\n    tag_71:\n        /* \"#utility.yul\":3864:3888   */\n      tag_128\n        /* \"#utility.yul\":3882:3887   */\n      dup2\n        /* \"#utility.yul\":3864:3888   */\n      tag_93\n      jump\t// in\n    tag_128:\n        /* \"#utility.yul\":3857:3862   */\n      dup2\n        /* \"#utility.yul\":3854:3889   */\n      eq\n        /* \"#utility.yul\":3844:3907   */\n      tag_129\n      jumpi\n        /* \"#utility.yul\":3903:3904   */\n      0x00\n        /* \"#utility.yul\":3900:3901   */\n      dup1\n        /* \"#utility.yul\":3893:3905   */\n      revert\n        /* \"#utility.yul\":3844:3907   */\n    tag_129:\n        /* \"#utility.yul\":3791:3913   */\n      pop\n      jump\t// out\n        /* \"#utility.yul\":3919:4041   */\n    tag_75:\n        /* \"#utility.yul\":3992:4016   */\n      tag_131\n        /* \"#utility.yul\":4010:4015   */\n      dup2\n        /* \"#utility.yul\":3992:4016   */\n      tag_101\n      jump\t// in\n    tag_131:\n        /* \"#utility.yul\":3985:3990   */\n      dup2\n        /* \"#utility.yul\":3982:4017   */\n      eq\n        /* \"#utility.yul\":3972:4035   */\n      tag_132\n      jumpi\n        /* \"#utility.yul\":4031:4032   */\n      0x00\n        /* \"#utility.yul\":4028:4029   */\n      dup1\n        /* \"#utility.yul\":4021:4033   */\n      revert\n        /* \"#utility.yul\":3972:4035   */\n    tag_132:\n        /* \"#utility.yul\":3919:4041   */\n      pop\n      jump\t// out\n\n    auxdata: 0xa2646970667358221220107b9ea741e1fbc52e7773d7221ac0f49e4f5a56bc89502df617f40e3557e33f64736f6c63430008070033\n}\n",
				"bytecode": {
					"linkReferences": {},
					"object": "608060405234801561001057600080fd5b506107be806100206000396000f3fe608060405234801561001057600080fd5b50600436106100885760003560e01c806347799da81161005b57806347799da8146101275780637cd380f1146101455780639a02101314610175578063de8fa431146101a557610088565b80630cb6aaf11461008d57806327e235e3146100bd5780633825d828146100ed5780633df4ddf414610109575b600080fd5b6100a760048036038101906100a291906105d0565b6101c3565b6040516100b4919061062a565b60405180910390f35b6100d760048036038101906100d29190610563565b610202565b6040516100e49190610660565b60405180910390f35b61010760048036038101906101029190610590565b61021a565b005b61011161036e565b60405161011e9190610660565b60405180910390f35b61012f6103f3565b60405161013c9190610660565b60405180910390f35b61015f600480360381019061015a9190610563565b610486565b60405161016c9190610645565b60405180910390f35b61018f600480360381019061018a91906105d0565b6104a6565b60405161019c9190610660565b60405180910390f35b6101ad61052c565b6040516101ba9190610660565b60405180910390f35b600181815481106101d357600080fd5b906000526020600020016000915054906101000a900473ffffffffffffffffffffffffffffffffffffffff1681565b60006020528060005260406000206000915090505481565b806000808473ffffffffffffffffffffffffffffffffffffffff1673ffffffffffffffffffffffffffffffffffffffff16815260200190815260200160002081905550600260008373ffffffffffffffffffffffffffffffffffffffff1673ffffffffffffffffffffffffffffffffffffffff16815260200190815260200160002060009054906101000a900460ff1661036a576001829080600181540180825580915050600190039060005260206000200160009091909190916101000a81548173ffffffffffffffffffffffffffffffffffffffff021916908373ffffffffffffffffffffffffffffffffffffffff1602179055506001600260008473ffffffffffffffffffffffffffffffffffffffff1673ffffffffffffffffffffffffffffffffffffffff16815260200190815260200160002060006101000a81548160ff0219169083151502179055505b5050565b6000806000600160008154811061038857610387610726565b5b9060005260206000200160009054906101000a900473ffffffffffffffffffffffffffffffffffffffff1673ffffffffffffffffffffffffffffffffffffffff1673ffffffffffffffffffffffffffffffffffffffff16815260200190815260200160002054905090565b6000806000600180808054905061040a919061067b565b8154811061041b5761041a610726565b5b9060005260206000200160009054906101000a900473ffffffffffffffffffffffffffffffffffffffff1673ffffffffffffffffffffffffffffffffffffffff1673ffffffffffffffffffffffffffffffffffffffff16815260200190815260200160002054905090565b60026020528060005260406000206000915054906101000a900460ff1681565b6000806000600184815481106104bf576104be610726565b5b9060005260206000200160009054906101000a900473ffffffffffffffffffffffffffffffffffffffff1673ffffffffffffffffffffffffffffffffffffffff1673ffffffffffffffffffffffffffffffffffffffff168152602001908152602001600020549050919050565b6000600180549050905090565b6000813590506105488161075a565b92915050565b60008135905061055d81610771565b92915050565b60006020828403121561057957610578610755565b5b600061058784828501610539565b91505092915050565b600080604083850312156105a7576105a6610755565b5b60006105b585828601610539565b92505060206105c68582860161054e565b9150509250929050565b6000602082840312156105e6576105e5610755565b5b60006105f48482850161054e565b91505092915050565b610606816106af565b82525050565b610615816106c1565b82525050565b610624816106ed565b82525050565b600060208201905061063f60008301846105fd565b92915050565b600060208201905061065a600083018461060c565b92915050565b6000602082019050610675600083018461061b565b92915050565b6000610686826106ed565b9150610691836106ed565b9250828210156106a4576106a36106f7565b5b828203905092915050565b60006106ba826106cd565b9050919050565b60008115159050919050565b600073ffffffffffffffffffffffffffffffffffffffff82169050919050565b6000819050919050565b7f4e487b7100000000000000000000000000000000000000000000000000000000600052601160045260246000fd5b7f4e487b7100000000000000000000000000000000000000000000000000000000600052603260045260246000fd5b600080fd5b610763816106af565b811461076e57600080fd5b50565b61077a816106ed565b811461078557600080fd5b5056fea2646970667358221220107b9ea741e1fbc52e7773d7221ac0f49e4f5a56bc89502df617f40e3557e33f64736f6c63430008070033",
					"opcodes": "PUSH1 0x80 PUSH1 0x40 MSTORE CALLVALUE DUP1 ISZERO PUSH2 0x10 JUMPI PUSH1 0x0 DUP1 REVERT JUMPDEST POP PUSH2 0x7BE DUP1 PUSH2 0x20 PUSH1 0x0 CODECOPY PUSH1 0x0 RETURN INVALID PUSH1 0x80 PUSH1 0x40 MSTORE CALLVALUE DUP1 ISZERO PUSH2 0x10 JUMPI PUSH1 0x0 DUP1 REVERT JUMPDEST POP PUSH1 0x4 CALLDATASIZE LT PUSH2 0x88 JUMPI PUSH1 0x0 CALLDATALOAD PUSH1 0xE0 SHR DUP1 PUSH4 0x47799DA8 GT PUSH2 0x5B JUMPI DUP1 PUSH4 0x47799DA8 EQ PUSH2 0x127 JUMPI DUP1 PUSH4 0x7CD380F1 EQ PUSH2 0x145 JUMPI DUP1 PUSH4 0x9A021013 EQ PUSH2 0x175 JUMPI DUP1 PUSH4 0xDE8FA431 EQ PUSH2 0x1A5 JUMPI PUSH2 0x88 JUMP JUMPDEST DUP1 PUSH4 0xCB6AAF1 EQ PUSH2 0x8D JUMPI DUP1 PUSH4 0x27E235E3 EQ PUSH2 0xBD JUMPI DUP1 PUSH4 0x3825D828 EQ PUSH2 0xED JUMPI DUP1 PUSH4 0x3DF4DDF4 EQ PUSH2 0x109 JUMPI JUMPDEST PUSH1 0x0 DUP1 REVERT JUMPDEST PUSH2 0xA7 PUSH1 0x4 DUP1 CALLDATASIZE SUB DUP2 ADD SWAP1 PUSH2 0xA2 SWAP2 SWAP1 PUSH2 0x5D0 JUMP JUMPDEST PUSH2 0x1C3 JUMP JUMPDEST PUSH1 0x40 MLOAD PUSH2 0xB4 SWAP2 SWAP1 PUSH2 0x62A JUMP JUMPDEST PUSH1 0x40 MLOAD DUP1 SWAP2 SUB SWAP1 RETURN JUMPDEST PUSH2 0xD7 PUSH1 0x4 DUP1 CALLDATASIZE SUB DUP2 ADD SWAP1 PUSH2 0xD2 SWAP2 SWAP1 PUSH2 0x563 JUMP JUMPDEST PUSH2 0x202 JUMP JUMPDEST PUSH1 0x40 MLOAD PUSH2 0xE4 SWAP2 SWAP1 PUSH2 0x660 JUMP JUMPDEST PUSH1 0x40 MLOAD DUP1 SWAP2 SUB SWAP1 RETURN JUMPDEST PUSH2 0x107 PUSH1 0x4 DUP1 CALLDATASIZE SUB DUP2 ADD SWAP1 PUSH2 0x102 SWAP2 SWAP1 PUSH2 0x590 JUMP JUMPDEST PUSH2 0x21A JUMP JUMPDEST STOP JUMPDEST PUSH2 0x111 PUSH2 0x36E JUMP JUMPDEST PUSH1 0x40 MLOAD PUSH2 0x11E SWAP2 SWAP1 PUSH2 0x660 JUMP JUMPDEST PUSH1 0x40 MLOAD DUP1 SWAP2 SUB SWAP1 RETURN JUMPDEST PUSH2 0x12F PUSH2 0x3F3 JUMP JUMPDEST PUSH1 0x40 MLOAD PUSH2 0x13C SWAP2 SWAP1 PUSH2 0x660 JUMP JUMPDEST PUSH1 0x40 MLOAD DUP1 SWAP2 SUB SWAP1 RETURN JUMPDEST PUSH2 0x15F PUSH1 0x4 DUP1 CALLDATASIZE SUB DUP2 ADD SWAP1 PUSH2 0x15A SWAP2 SWAP1 PUSH2 0x563 JUMP JUMPDEST PUSH2 0x486 JUMP JUMPDEST PUSH1 0x40 MLOAD PUSH2 0x16C SWAP2 SWAP1 PUSH2 0x645 JUMP JUMPDEST PUSH1 0x40 MLOAD DUP1 SWAP2 SUB SWAP1 RETURN JUMPDEST PUSH2 0x18F PUSH1 0x4 DUP1 CALLDATASIZE SUB DUP2 ADD SWAP1 PUSH2 0x18A SWAP2 SWAP1 PUSH2 0x5D0 JUMP JUMPDEST PUSH2 0x4A6 JUMP JUMPDEST PUSH1 0x40 MLOAD PUSH2 0x19C SWAP2 SWAP1 PUSH2 0x660 JUMP JUMPDEST PUSH1 0x40 MLOAD DUP1 SWAP2 SUB SWAP1 RETURN JUMPDEST PUSH2 0x1AD PUSH2 0x52C JUMP JUMPDEST PUSH1 0x40 MLOAD PUSH2 0x1BA SWAP2 SWAP1 PUSH2 0x660 JUMP JUMPDEST PUSH1 0x40 MLOAD DUP1 SWAP2 SUB SWAP1 RETURN JUMPDEST PUSH1 0x1 DUP2 DUP2 SLOAD DUP2 LT PUSH2 0x1D3 JUMPI PUSH1 0x0 DUP1 REVERT JUMPDEST SWAP1 PUSH1 0x0 MSTORE PUSH1 0x20 PUSH1 0x0 KECCAK256 ADD PUSH1 0x0 SWAP2 POP SLOAD SWAP1 PUSH2 0x100 EXP SWAP1 DIV PUSH20 0xFFFFFFFFFFFFFFFFFFFFFFFFFFFFFFFFFFFFFFFF AND DUP2 JUMP JUMPDEST PUSH1 0x0 PUSH1 0x20 MSTORE DUP1 PUSH1 0x0 MSTORE PUSH1 0x40 PUSH1 0x0 KECCAK256 PUSH1 0x0 SWAP2 POP SWAP1 POP SLOAD DUP2 JUMP JUMPDEST DUP1 PUSH1 0x0 DUP1 DUP5 PUSH20 0xFFFFFFFFFFFFFFFFFFFFFFFFFFFFFFFFFFFFFFFF AND PUSH20 0xFFFFFFFFFFFFFFFFFFFFFFFFFFFFFFFFFFFFFFFF AND DUP2 MSTORE PUSH1 0x20 ADD SWAP1 DUP2 MSTORE PUSH1 0x20 ADD PUSH1 0x0 KECCAK256 DUP2 SWAP1 SSTORE POP PUSH1 0x2 PUSH1 0x0 DUP4 PUSH20 0xFFFFFFFFFFFFFFFFFFFFFFFFFFFFFFFFFFFFFFFF AND PUSH20 0xFFFFFFFFFFFFFFFFFFFFFFFFFFFFFFFFFFFFFFFF AND DUP2 MSTORE PUSH1 0x20 ADD SWAP1 DUP2 MSTORE PUSH1 0x20 ADD PUSH1 0x0 KECCAK256 PUSH1 0x0 SWAP1 SLOAD SWAP1 PUSH2 0x100 EXP SWAP1 DIV PUSH1 0xFF AND PUSH2 0x36A JUMPI PUSH1 0x1 DUP3 SWAP1 DUP1 PUSH1 0x1 DUP2 SLOAD ADD DUP1 DUP3 SSTORE DUP1 SWAP2 POP POP PUSH1 0x1 SWAP1 SUB SWAP1 PUSH1 0x0 MSTORE PUSH1 0x20 PUSH1 0x0 KECCAK256 ADD PUSH1 0x0 SWAP1 SWAP2 SWAP1 SWAP2 SWAP1 SWAP2 PUSH2 0x100 EXP DUP2 SLOAD DUP2 PUSH20 0xFFFFFFFFFFFFFFFFFFFFFFFFFFFFFFFFFFFFFFFF MUL NOT AND SWAP1 DUP4 PUSH20 0xFFFFFFFFFFFFFFFFFFFFFFFFFFFFFFFFFFFFFFFF AND MUL OR SWAP1 SSTORE POP PUSH1 0x1 PUSH1 0x2 PUSH1 0x0 DUP5 PUSH20 0xFFFFFFFFFFFFFFFFFFFFFFFFFFFFFFFFFFFFFFFF AND PUSH20 0xFFFFFFFFFFFFFFFFFFFFFFFFFFFFFFFFFFFFFFFF AND DUP2 MSTORE PUSH1 0x20 ADD SWAP1 DUP2 MSTORE PUSH1 0x20 ADD PUSH1 0x0 KECCAK256 PUSH1 0x0 PUSH2 0x100 EXP DUP2 SLOAD DUP2 PUSH1 0xFF MUL NOT AND SWAP1 DUP4 ISZERO ISZERO MUL OR SWAP1 SSTORE POP JUMPDEST POP POP JUMP JUMPDEST PUSH1 0x0 DUP1 PUSH1 0x0 PUSH1 0x1 PUSH1 0x0 DUP2 SLOAD DUP2 LT PUSH2 0x388 JUMPI PUSH2 0x387 PUSH2 0x726 JUMP JUMPDEST JUMPDEST SWAP1 PUSH1 0x0 MSTORE PUSH1 0x20 PUSH1 0x0 KECCAK256 ADD PUSH1 0x0 SWAP1 SLOAD SWAP1 PUSH2 0x100 EXP SWAP1 DIV PUSH20 0xFFFFFFFFFFFFFFFFFFFFFFFFFFFFFFFFFFFFFFFF AND PUSH20 0xFFFFFFFFFFFFFFFFFFFFFFFFFFFFFFFFFFFFFFFF AND PUSH20 0xFFFFFFFFFFFFFFFFFFFFFFFFFFFFFFFFFFFFFFFF AND DUP2 MSTORE PUSH1 0x20 ADD SWAP1 DUP2 MSTORE PUSH1 0x20 ADD PUSH1 0x0 KECCAK256 SLOAD SWAP1 POP SWAP1 JUMP JUMPDEST PUSH1 0x0 DUP1 PUSH1 0x0 PUSH1 0x1 DUP1 DUP1 DUP1 SLOAD SWAP1 POP PUSH2 0x40A SWAP2 SWAP1 PUSH2 0x67B JUMP JUMPDEST DUP2 SLOAD DUP2 LT PUSH2 0x41B JUMPI PUSH2 0x41A PUSH2 0x726 JUMP JUMPDEST JUMPDEST SWAP1 PUSH1 0x0 MSTORE PUSH1 0x20 PUSH1 0x0 KECCAK256 ADD PUSH1 0x0 SWAP1 SLOAD SWAP1 PUSH2 0x100 EXP SWAP1 DIV PUSH20 0xFFFFFFFFFFFFFFFFFFFFFFFFFFFFFFFFFFFFFFFF AND PUSH20 0xFFFFFFFFFFFFFFFFFFFFFFFFFFFFFFFFFFFFFFFF AND PUSH20 0xFFFFFFFFFFFFFFFFFFFFFFFFFFFFFFFFFFFFFFFF AND DUP2 MSTORE PUSH1 0x20 ADD SWAP1 DUP2 MSTORE PUSH1 0x20 ADD PUSH1 0x0 KECCAK256 SLOAD SWAP1 POP SWAP1 JUMP JUMPDEST PUSH1 0x2 PUSH1 0x20 MSTORE DUP1 PUSH1 0x0 MSTORE PUSH1 0x40 PUSH1 0x0 KECCAK256 PUSH1 0x0 SWAP2 POP SLOAD SWAP1 PUSH2 0x100 EXP SWAP1 DIV PUSH1 0xFF AND DUP2 JUMP JUMPDEST PUSH1 0x0 DUP1 PUSH1 0x0 PUSH1 0x1 DUP5 DUP2 SLOAD DUP2 LT PUSH2 0x4BF JUMPI PUSH2 0x4BE PUSH2 0x726 JUMP JUMPDEST JUMPDEST SWAP1 PUSH1 0x0 MSTORE PUSH1 0x20 PUSH1 0x0 KECCAK256 ADD PUSH1 0x0 SWAP1 SLOAD SWAP1 PUSH2 0x100 EXP SWAP1 DIV PUSH20 0xFFFFFFFFFFFFFFFFFFFFFFFFFFFFFFFFFFFFFFFF AND PUSH20 0xFFFFFFFFFFFFFFFFFFFFFFFFFFFFFFFFFFFFFFFF AND PUSH20 0xFFFFFFFFFFFFFFFFFFFFFFFFFFFFFFFFFFFFFFFF AND DUP2 MSTORE PUSH1 0x20 ADD SWAP1 DUP2 MSTORE PUSH1 0x20 ADD PUSH1 0x0 KECCAK256 SLOAD SWAP1 POP SWAP2 SWAP1 POP JUMP JUMPDEST PUSH1 0x0 PUSH1 0x1 DUP1 SLOAD SWAP1 POP SWAP1 POP SWAP1 JUMP JUMPDEST PUSH1 0x0 DUP2 CALLDATALOAD SWAP1 POP PUSH2 0x548 DUP2 PUSH2 0x75A JUMP JUMPDEST SWAP3 SWAP2 POP POP JUMP JUMPDEST PUSH1 0x0 DUP2 CALLDATALOAD SWAP1 POP PUSH2 0x55D DUP2 PUSH2 0x771 JUMP JUMPDEST SWAP3 SWAP2 POP POP JUMP JUMPDEST PUSH1 0x0 PUSH1 0x20 DUP3 DUP5 SUB SLT ISZERO PUSH2 0x579 JUMPI PUSH2 0x578 PUSH2 0x755 JUMP JUMPDEST JUMPDEST PUSH1 0x0 PUSH2 0x587 DUP5 DUP3 DUP6 ADD PUSH2 0x539 JUMP JUMPDEST SWAP2 POP POP SWAP3 SWAP2 POP POP JUMP JUMPDEST PUSH1 0x0 DUP1 PUSH1 0x40 DUP4 DUP6 SUB SLT ISZERO PUSH2 0x5A7 JUMPI PUSH2 0x5A6 PUSH2 0x755 JUMP JUMPDEST JUMPDEST PUSH1 0x0 PUSH2 0x5B5 DUP6 DUP3 DUP7 ADD PUSH2 0x539 JUMP JUMPDEST SWAP3 POP POP PUSH1 0x20 PUSH2 0x5C6 DUP6 DUP3 DUP7 ADD PUSH2 0x54E JUMP JUMPDEST SWAP2 POP POP SWAP3 POP SWAP3 SWAP1 POP JUMP JUMPDEST PUSH1 0x0 PUSH1 0x20 DUP3 DUP5 SUB SLT ISZERO PUSH2 0x5E6 JUMPI PUSH2 0x5E5 PUSH2 0x755 JUMP JUMPDEST JUMPDEST PUSH1 0x0 PUSH2 0x5F4 DUP5 DUP3 DUP6 ADD PUSH2 0x54E JUMP JUMPDEST SWAP2 POP POP SWAP3 SWAP2 POP POP JUMP JUMPDEST PUSH2 0x606 DUP2 PUSH2 0x6AF JUMP JUMPDEST DUP3 MSTORE POP POP JUMP JUMPDEST PUSH2 0x615 DUP2 PUSH2 0x6C1 JUMP JUMPDEST DUP3 MSTORE POP POP JUMP JUMPDEST PUSH2 0x624 DUP2 PUSH2 0x6ED JUMP JUMPDEST DUP3 MSTORE POP POP JUMP JUMPDEST PUSH1 0x0 PUSH1 0x20 DUP3 ADD SWAP1 POP PUSH2 0x63F PUSH1 0x0 DUP4 ADD DUP5 PUSH2 0x5FD JUMP JUMPDEST SWAP3 SWAP2 POP POP JUMP JUMPDEST PUSH1 0x0 PUSH1 0x20 DUP3 ADD SWAP1 POP PUSH2 0x65A PUSH1 0x0 DUP4 ADD DUP5 PUSH2 0x60C JUMP JUMPDEST SWAP3 SWAP2 POP POP JUMP JUMPDEST PUSH1 0x0 PUSH1 0x20 DUP3 ADD SWAP1 POP PUSH2 0x675 PUSH1 0x0 DUP4 ADD DUP5 PUSH2 0x61B JUMP JUMPDEST SWAP3 SWAP2 POP POP JUMP JUMPDEST PUSH1 0x0 PUSH2 0x686 DUP3 PUSH2 0x6ED JUMP JUMPDEST SWAP2 POP PUSH2 0x691 DUP4 PUSH2 0x6ED JUMP JUMPDEST SWAP3 POP DUP3 DUP3 LT ISZERO PUSH2 0x6A4 JUMPI PUSH2 0x6A3 PUSH2 0x6F7 JUMP JUMPDEST JUMPDEST DUP3 DUP3 SUB SWAP1 POP SWAP3 SWAP2 POP POP JUMP JUMPDEST PUSH1 0x0 PUSH2 0x6BA DUP3 PUSH2 0x6CD JUMP JUMPDEST SWAP1 POP SWAP2 SWAP1 POP JUMP JUMPDEST PUSH1 0x0 DUP2 ISZERO ISZERO SWAP1 POP SWAP2 SWAP1 POP JUMP JUMPDEST PUSH1 0x0 PUSH20 0xFFFFFFFFFFFFFFFFFFFFFFFFFFFFFFFFFFFFFFFF DUP3 AND SWAP1 POP SWAP2 SWAP1 POP JUMP JUMPDEST PUSH1 0x0 DUP2 SWAP1 POP SWAP2 SWAP1 POP JUMP JUMPDEST PUSH32 0x4E487B7100000000000000000000000000000000000000000000000000000000 PUSH1 0x0 MSTORE PUSH1 0x11 PUSH1 0x4 MSTORE PUSH1 0x24 PUSH1 0x0 REVERT JUMPDEST PUSH32 0x4E487B7100000000000000000000000000000000000000000000000000000000 PUSH1 0x0 MSTORE PUSH1 0x32 PUSH1 0x4 MSTORE PUSH1 0x24 PUSH1 0x0 REVERT JUMPDEST PUSH1 0x0 DUP1 REVERT JUMPDEST PUSH2 0x763 DUP2 PUSH2 0x6AF JUMP JUMPDEST DUP2 EQ PUSH2 0x76E JUMPI PUSH1 0x0 DUP1 REVERT JUMPDEST POP JUMP JUMPDEST PUSH2 0x77A DUP2 PUSH2 0x6ED JUMP JUMPDEST DUP2 EQ PUSH2 0x785 JUMPI PUSH1 0x0 DUP1 REVERT JUMPDEST POP JUMP INVALID LOG2 PUSH5 0x6970667358 0x22 SLT KECCAK256 LT PUSH28 0x9EA741E1FBC52E7773D7221AC0F49E4F5A56BC89502DF617F40E3557 0xE3 EXTCODEHASH PUSH5 0x736F6C6343 STOP ADDMOD SMOD STOP CALLER "
				},
				"gasEstimates": {
					"creation": {
						"codeDepositCost": "396400",
						"executionCost": "430",
						"totalCost": "396830"
					},
					"external": {
						"balances(address)": "2837",
						"first()": "6910",
						"getSize()": "2511",
						"inserted(address)": "2867",
						"keys(uint256)": "4957",
						"last()": "infinite",
						"readFromKeysAndbalances(uint256)": "infinite",
						"set(address,uint256)": "98056"
					}
				},
				"methodIdentifiers": {
					"balances(address)": "27e235e3",
					"first()": "3df4ddf4",
					"getSize()": "de8fa431",
					"inserted(address)": "7cd380f1",
					"keys(uint256)": "0cb6aaf1",
					"last()": "47799da8",
					"readFromKeysAndbalances(uint256)": "9a021013",
					"set(address,uint256)": "3825d828"
				}
			},
			"storageLayout": {
				"storage": [
					{
						"astId": 5,
						"contract": "contract/IterableMapping.sol:IterableMapping",
						"label": "balances",
						"offset": 0,
						"slot": "0",
						"type": "t_mapping(t_address,t_uint256)"
					},
					{
						"astId": 8,
						"contract": "contract/IterableMapping.sol:IterableMapping",
						"label": "keys",
						"offset": 0,
						"slot": "1",
						"type": "t_array(t_address)dyn_storage"
					},
					{
						"astId": 12,
						"contract": "contract/IterableMapping.sol:IterableMapping",
						"label": "inserted",
						"offset": 0,
						"slot": "2",
						"type": "t_mapping(t_address,t_bool)"
					}
				],
				"types": {
					"t_address": {
						"encoding": "inplace",
						"label": "address",
						"numberOfBytes": "20"
					},
					"t_array(t_address)dyn_storage": {
						"base": "t_address",
						"encoding": "dynamic_array",
						"label": "address[]",
						"numberOfBytes": "32"
					},
					"t_bool": {
						"encoding": "inplace",
						"label": "bool",
						"numberOfBytes": "1"
					},
					"t_mapping(t_address,t_bool)": {
						"encoding": "mapping",
						"key": "t_address",
						"label": "mapping(address => bool)",
						"numberOfBytes": "32",
						"value": "t_bool"
					},
					"t_mapping(t_address,t_uint256)": {
						"encoding": "mapping",
						"key": "t_address",
						"label": "mapping(address => uint256)",
						"numberOfBytes": "32",
						"value": "t_uint256"
					},
					"t_uint256": {
						"encoding": "inplace",
						"label": "uint256",
						"numberOfBytes": "32"
					}
				}
			},
			"userdoc": {
				"kind": "user",
				"methods": {},
				"version": 1
			}
		}
	}
}