{
	"contract/Array.sol": {
		"ArrayDemo": {
			"abi": [
				{
					"inputs": [
						{
							"internalType": "uint256",
							"name": "index",
							"type": "uint256"
						}
					],
					"name": "deleteByIndex",
					"outputs": [],
					"stateMutability": "nonpayable",
					"type": "function"
				},
				{
					"inputs": [
						{
							"internalType": "uint256",
							"name": "_index",
							"type": "uint256"
						}
					],
					"name": "deleteByValue",
					"outputs": [],
					"stateMutability": "nonpayable",
					"type": "function"
				},
				{
					"inputs": [
						{
							"internalType": "uint256",
							"name": "_index",
							"type": "uint256"
						}
					],
					"name": "deleteValueByLasted",
					"outputs": [],
					"stateMutability": "nonpayable",
					"type": "function"
				},
				{
					"inputs": [],
					"name": "insert",
					"outputs": [],
					"stateMutability": "nonpayable",
					"type": "function"
				},
				{
					"inputs": [],
					"name": "length",
					"outputs": [
						{
							"internalType": "uint256",
							"name": "",
							"type": "uint256"
						}
					],
					"stateMutability": "view",
					"type": "function"
				},
				{
					"inputs": [
						{
							"internalType": "uint256",
							"name": "",
							"type": "uint256"
						}
					],
					"name": "nomsFixed",
					"outputs": [
						{
							"internalType": "uint256",
							"name": "",
							"type": "uint256"
						}
					],
					"stateMutability": "view",
					"type": "function"
				},
				{
					"inputs": [
						{
							"internalType": "uint256",
							"name": "",
							"type": "uint256"
						}
					],
					"name": "nums",
					"outputs": [
						{
							"internalType": "uint256",
							"name": "",
							"type": "uint256"
						}
					],
					"stateMutability": "view",
					"type": "function"
				},
				{
					"inputs": [
						{
							"internalType": "uint256",
							"name": "index",
							"type": "uint256"
						},
						{
							"internalType": "uint256",
							"name": "_x",
							"type": "uint256"
						}
					],
					"name": "update",
					"outputs": [],
					"stateMutability": "nonpayable",
					"type": "function"
				}
			],
			"devdoc": {
				"kind": "dev",
				"methods": {},
				"version": 1
			},
			"evm": {
				"assembly": "    /* \"contract/Array.sol\":61:1263  contract ArrayDemo {... */\n  mstore(0x40, 0x80)\n    /* \"contract/Array.sol\":86:119  uint256[] public nums = [1, 2, 3] */\n  mload(0x40)\n  dup1\n  0x60\n  add\n  0x40\n  mstore\n  dup1\n    /* \"contract/Array.sol\":111:112  1 */\n  0x01\n    /* \"contract/Array.sol\":86:119  uint256[] public nums = [1, 2, 3] */\n  0xff\n  and\n  dup2\n  mstore\n  0x20\n  add\n    /* \"contract/Array.sol\":114:115  2 */\n  0x02\n    /* \"contract/Array.sol\":86:119  uint256[] public nums = [1, 2, 3] */\n  0xff\n  and\n  dup2\n  mstore\n  0x20\n  add\n    /* \"contract/Array.sol\":117:118  3 */\n  0x03\n    /* \"contract/Array.sol\":86:119  uint256[] public nums = [1, 2, 3] */\n  0xff\n  and\n  dup2\n  mstore\n  pop\n  0x00\n  swap1\n  0x03\n  tag_1\n  swap3\n  swap2\n  swap1\n  tag_2\n  jump\t// in\ntag_1:\n  pop\n    /* \"contract/Array.sol\":125:164  uint256[3] public nomsFixed = [4, 5, 6] */\n  mload(0x40)\n  dup1\n  0x60\n  add\n  0x40\n  mstore\n  dup1\n    /* \"contract/Array.sol\":156:157  4 */\n  0x04\n    /* \"contract/Array.sol\":125:164  uint256[3] public nomsFixed = [4, 5, 6] */\n  0xff\n  and\n  dup2\n  mstore\n  0x20\n  add\n    /* \"contract/Array.sol\":159:160  5 */\n  0x05\n    /* \"contract/Array.sol\":125:164  uint256[3] public nomsFixed = [4, 5, 6] */\n  0xff\n  and\n  dup2\n  mstore\n  0x20\n  add\n    /* \"contract/Array.sol\":162:163  6 */\n  0x06\n    /* \"contract/Array.sol\":125:164  uint256[3] public nomsFixed = [4, 5, 6] */\n  0xff\n  and\n  dup2\n  mstore\n  pop\n  0x01\n  swap1\n  0x03\n  tag_3\n  swap3\n  swap2\n  swap1\n  tag_4\n  jump\t// in\ntag_3:\n  pop\n    /* \"contract/Array.sol\":61:1263  contract ArrayDemo {... */\n  callvalue\n  dup1\n  iszero\n  tag_5\n  jumpi\n  0x00\n  dup1\n  revert\ntag_5:\n  pop\n  jump(tag_6)\ntag_2:\n  dup3\n  dup1\n  sload\n  dup3\n  dup3\n  sstore\n  swap1\n  0x00\n  mstore\n  keccak256(0x00, 0x20)\n  swap1\n  dup2\n  add\n  swap3\n  dup3\n  iszero\n  tag_7\n  jumpi\n  swap2\n  0x20\n  mul\n  dup3\n  add\ntag_8:\n  dup3\n  dup2\n  gt\n  iszero\n  tag_9\n  jumpi\n  dup3\n  mload\n  dup3\n  swap1\n  0xff\n  and\n  swap1\n  sstore\n  swap2\n  0x20\n  add\n  swap2\n  swap1\n  0x01\n  add\n  swap1\n  jump(tag_8)\ntag_9:\ntag_7:\n  pop\n  swap1\n  pop\n  tag_10\n  swap2\n  swap1\n  tag_11\n  jump\t// in\ntag_10:\n  pop\n  swap1\n  jump\t// out\ntag_4:\n  dup3\n  0x03\n  dup2\n  add\n  swap3\n  dup3\n  iszero\n  tag_12\n  jumpi\n  swap2\n  0x20\n  mul\n  dup3\n  add\ntag_13:\n  dup3\n  dup2\n  gt\n  iszero\n  tag_14\n  jumpi\n  dup3\n  mload\n  dup3\n  swap1\n  0xff\n  and\n  swap1\n  sstore\n  swap2\n  0x20\n  add\n  swap2\n  swap1\n  0x01\n  add\n  swap1\n  jump(tag_13)\ntag_14:\ntag_12:\n  pop\n  swap1\n  pop\n  tag_15\n  swap2\n  swap1\n  tag_11\n  jump\t// in\ntag_15:\n  pop\n  swap1\n  jump\t// out\ntag_11:\ntag_16:\n  dup1\n  dup3\n  gt\n  iszero\n  tag_17\n  jumpi\n  0x00\n  dup2\n  0x00\n  swap1\n  sstore\n  pop\n  0x01\n  add\n  jump(tag_16)\ntag_17:\n  pop\n  swap1\n  jump\t// out\ntag_6:\n  dataSize(sub_0)\n  dup1\n  dataOffset(sub_0)\n  0x00\n  codecopy\n  0x00\n  return\nstop\n\nsub_0: assembly {\n        /* \"contract/Array.sol\":61:1263  contract ArrayDemo {... */\n      mstore(0x40, 0x80)\n      callvalue\n      dup1\n      iszero\n      tag_1\n      jumpi\n      0x00\n      dup1\n      revert\n    tag_1:\n      pop\n      jumpi(tag_2, lt(calldatasize, 0x04))\n      shr(0xe0, calldataload(0x00))\n      dup1\n      0x2fb565e8\n      gt\n      tag_11\n      jumpi\n      dup1\n      0x2fb565e8\n      eq\n      tag_7\n      jumpi\n      dup1\n      0x763085cb\n      eq\n      tag_8\n      jumpi\n      dup1\n      0xcbc013a3\n      eq\n      tag_9\n      jumpi\n      dup1\n      0xfd1ee54c\n      eq\n      tag_10\n      jumpi\n      jump(tag_2)\n    tag_11:\n      dup1\n      0x1e69607e\n      eq\n      tag_3\n      jumpi\n      dup1\n      0x1f7b6d32\n      eq\n      tag_4\n      jumpi\n      dup1\n      0x25f7b1de\n      eq\n      tag_5\n      jumpi\n      dup1\n      0x2c3e7e19\n      eq\n      tag_6\n      jumpi\n    tag_2:\n      0x00\n      dup1\n      revert\n        /* \"contract/Array.sol\":494:641  function deleteByIndex(uint256 index) external {... */\n    tag_3:\n      tag_12\n      0x04\n      dup1\n      calldatasize\n      sub\n      dup2\n      add\n      swap1\n      tag_13\n      swap2\n      swap1\n      tag_14\n      jump\t// in\n    tag_13:\n      tag_15\n      jump\t// in\n    tag_12:\n      stop\n        /* \"contract/Array.sol\":243:332  function length() external view returns (uint256) {... */\n    tag_4:\n      tag_16\n      tag_17\n      jump\t// in\n    tag_16:\n      mload(0x40)\n      tag_18\n      swap2\n      swap1\n      tag_19\n      jump\t// in\n    tag_18:\n      mload(0x40)\n      dup1\n      swap2\n      sub\n      swap1\n      return\n        /* \"contract/Array.sol\":171:237  function insert() external {... */\n    tag_5:\n      tag_20\n      tag_21\n      jump\t// in\n    tag_20:\n      stop\n        /* \"contract/Array.sol\":730:977  function deleteByValue(uint256 _index) external {... */\n    tag_6:\n      tag_22\n      0x04\n      dup1\n      calldatasize\n      sub\n      dup2\n      add\n      swap1\n      tag_23\n      swap2\n      swap1\n      tag_14\n      jump\t// in\n    tag_23:\n      tag_24\n      jump\t// in\n    tag_22:\n      stop\n        /* \"contract/Array.sol\":338:488  function update(uint256 index, uint256 _x) external {... */\n    tag_7:\n      tag_25\n      0x04\n      dup1\n      calldatasize\n      sub\n      dup2\n      add\n      swap1\n      tag_26\n      swap2\n      swap1\n      tag_27\n      jump\t// in\n    tag_26:\n      tag_28\n      jump\t// in\n    tag_25:\n      stop\n        /* \"contract/Array.sol\":125:164  uint256[3] public nomsFixed = [4, 5, 6] */\n    tag_8:\n      tag_29\n      0x04\n      dup1\n      calldatasize\n      sub\n      dup2\n      add\n      swap1\n      tag_30\n      swap2\n      swap1\n      tag_14\n      jump\t// in\n    tag_30:\n      tag_31\n      jump\t// in\n    tag_29:\n      mload(0x40)\n      tag_32\n      swap2\n      swap1\n      tag_19\n      jump\t// in\n    tag_32:\n      mload(0x40)\n      dup1\n      swap2\n      sub\n      swap1\n      return\n        /* \"contract/Array.sol\":1070:1261  function deleteValueByLasted(uint256 _index) external {... */\n    tag_9:\n      tag_33\n      0x04\n      dup1\n      calldatasize\n      sub\n      dup2\n      add\n      swap1\n      tag_34\n      swap2\n      swap1\n      tag_14\n      jump\t// in\n    tag_34:\n      tag_35\n      jump\t// in\n    tag_33:\n      stop\n        /* \"contract/Array.sol\":86:119  uint256[] public nums = [1, 2, 3] */\n    tag_10:\n      tag_36\n      0x04\n      dup1\n      calldatasize\n      sub\n      dup2\n      add\n      swap1\n      tag_37\n      swap2\n      swap1\n      tag_14\n      jump\t// in\n    tag_37:\n      tag_38\n      jump\t// in\n    tag_36:\n      mload(0x40)\n      tag_39\n      swap2\n      swap1\n      tag_19\n      jump\t// in\n    tag_39:\n      mload(0x40)\n      dup1\n      swap2\n      sub\n      swap1\n      return\n        /* \"contract/Array.sol\":494:641  function deleteByIndex(uint256 index) external {... */\n    tag_15:\n        /* \"contract/Array.sol\":582:583  1 */\n      0x01\n        /* \"contract/Array.sol\":568:572  nums */\n      0x00\n        /* \"contract/Array.sol\":568:579  nums.length */\n      dup1\n      sload\n      swap1\n      pop\n        /* \"contract/Array.sol\":568:583  nums.length - 1 */\n      tag_41\n      swap2\n      swap1\n      tag_42\n      jump\t// in\n    tag_41:\n        /* \"contract/Array.sol\":559:564  index */\n      dup2\n        /* \"contract/Array.sol\":559:583  index <= nums.length - 1 */\n      gt\n      iszero\n        /* \"contract/Array.sol\":551:606  require(index <= nums.length - 1, \"Index out of bound\") */\n      tag_43\n      jumpi\n      mload(0x40)\n      0x08c379a000000000000000000000000000000000000000000000000000000000\n      dup2\n      mstore\n      0x04\n      add\n      tag_44\n      swap1\n      tag_45\n      jump\t// in\n    tag_44:\n      mload(0x40)\n      dup1\n      swap2\n      sub\n      swap1\n      revert\n    tag_43:\n        /* \"contract/Array.sol\":623:627  nums */\n      0x00\n        /* \"contract/Array.sol\":628:633  index */\n      dup2\n        /* \"contract/Array.sol\":623:634  nums[index] */\n      dup2\n      sload\n      dup2\n      lt\n      tag_46\n      jumpi\n      tag_47\n      tag_48\n      jump\t// in\n    tag_47:\n    tag_46:\n      swap1\n      0x00\n      mstore\n      keccak256(0x00, 0x20)\n      add\n        /* \"contract/Array.sol\":616:634  delete nums[index] */\n      0x00\n      swap1\n      sstore\n        /* \"contract/Array.sol\":494:641  function deleteByIndex(uint256 index) external {... */\n      pop\n      jump\t// out\n        /* \"contract/Array.sol\":243:332  function length() external view returns (uint256) {... */\n    tag_17:\n        /* \"contract/Array.sol\":284:291  uint256 */\n      0x00\n        /* \"contract/Array.sol\":310:314  nums */\n      dup1\n        /* \"contract/Array.sol\":310:321  nums.length */\n      dup1\n      sload\n      swap1\n      pop\n        /* \"contract/Array.sol\":303:321  return nums.length */\n      swap1\n      pop\n        /* \"contract/Array.sol\":243:332  function length() external view returns (uint256) {... */\n      swap1\n      jump\t// out\n        /* \"contract/Array.sol\":171:237  function insert() external {... */\n    tag_21:\n        /* \"contract/Array.sol\":208:212  nums */\n      0x00\n        /* \"contract/Array.sol\":218:219  4 */\n      0x04\n        /* \"contract/Array.sol\":208:220  nums.push(4) */\n      swap1\n      dup1\n      0x01\n      dup2\n      sload\n      add\n      dup1\n      dup3\n      sstore\n      dup1\n      swap2\n      pop\n      pop\n      0x01\n      swap1\n      sub\n      swap1\n      0x00\n      mstore\n      keccak256(0x00, 0x20)\n      add\n      0x00\n      swap1\n      swap2\n      swap1\n      swap2\n      swap1\n      swap2\n      pop\n      sstore\n        /* \"contract/Array.sol\":171:237  function insert() external {... */\n      jump\t// out\n        /* \"contract/Array.sol\":730:977  function deleteByValue(uint256 _index) external {... */\n    tag_24:\n        /* \"contract/Array.sol\":820:821  1 */\n      0x01\n        /* \"contract/Array.sol\":806:810  nums */\n      0x00\n        /* \"contract/Array.sol\":806:817  nums.length */\n      dup1\n      sload\n      swap1\n      pop\n        /* \"contract/Array.sol\":806:821  nums.length - 1 */\n      tag_54\n      swap2\n      swap1\n      tag_42\n      jump\t// in\n    tag_54:\n        /* \"contract/Array.sol\":796:802  _index */\n      dup2\n        /* \"contract/Array.sol\":796:821  _index <= nums.length - 1 */\n      gt\n      iszero\n        /* \"contract/Array.sol\":788:844  require(_index <= nums.length - 1, \"Index out of bound\") */\n      tag_55\n      jumpi\n      mload(0x40)\n      0x08c379a000000000000000000000000000000000000000000000000000000000\n      dup2\n      mstore\n      0x04\n      add\n      tag_56\n      swap1\n      tag_45\n      jump\t// in\n    tag_56:\n      mload(0x40)\n      dup1\n      swap2\n      sub\n      swap1\n      revert\n    tag_55:\n        /* \"contract/Array.sol\":859:868  uint256 i */\n      0x00\n        /* \"contract/Array.sol\":871:877  _index */\n      dup2\n        /* \"contract/Array.sol\":859:877  uint256 i = _index */\n      swap1\n      pop\n        /* \"contract/Array.sol\":854:951  for (uint256 i = _index; i < nums.length - 1; i++) {... */\n    tag_57:\n        /* \"contract/Array.sol\":897:898  1 */\n      0x01\n        /* \"contract/Array.sol\":883:887  nums */\n      0x00\n        /* \"contract/Array.sol\":883:894  nums.length */\n      dup1\n      sload\n      swap1\n      pop\n        /* \"contract/Array.sol\":883:898  nums.length - 1 */\n      tag_60\n      swap2\n      swap1\n      tag_42\n      jump\t// in\n    tag_60:\n        /* \"contract/Array.sol\":879:880  i */\n      dup2\n        /* \"contract/Array.sol\":879:898  i < nums.length - 1 */\n      lt\n        /* \"contract/Array.sol\":854:951  for (uint256 i = _index; i < nums.length - 1; i++) {... */\n      iszero\n      tag_58\n      jumpi\n        /* \"contract/Array.sol\":929:933  nums */\n      0x00\n        /* \"contract/Array.sol\":938:939  1 */\n      0x01\n        /* \"contract/Array.sol\":934:935  i */\n      dup3\n        /* \"contract/Array.sol\":934:939  i + 1 */\n      tag_61\n      swap2\n      swap1\n      tag_62\n      jump\t// in\n    tag_61:\n        /* \"contract/Array.sol\":929:940  nums[i + 1] */\n      dup2\n      sload\n      dup2\n      lt\n      tag_63\n      jumpi\n      tag_64\n      tag_48\n      jump\t// in\n    tag_64:\n    tag_63:\n      swap1\n      0x00\n      mstore\n      keccak256(0x00, 0x20)\n      add\n      sload\n        /* \"contract/Array.sol\":919:923  nums */\n      0x00\n        /* \"contract/Array.sol\":924:925  i */\n      dup3\n        /* \"contract/Array.sol\":919:926  nums[i] */\n      dup2\n      sload\n      dup2\n      lt\n      tag_66\n      jumpi\n      tag_67\n      tag_48\n      jump\t// in\n    tag_67:\n    tag_66:\n      swap1\n      0x00\n      mstore\n      keccak256(0x00, 0x20)\n      add\n        /* \"contract/Array.sol\":919:940  nums[i] = nums[i + 1] */\n      dup2\n      swap1\n      sstore\n      pop\n        /* \"contract/Array.sol\":900:903  i++ */\n      dup1\n      dup1\n      tag_69\n      swap1\n      tag_70\n      jump\t// in\n    tag_69:\n      swap2\n      pop\n      pop\n        /* \"contract/Array.sol\":854:951  for (uint256 i = _index; i < nums.length - 1; i++) {... */\n      jump(tag_57)\n    tag_58:\n      pop\n        /* \"contract/Array.sol\":960:964  nums */\n      0x00\n        /* \"contract/Array.sol\":960:970  nums.pop() */\n      dup1\n      sload\n      dup1\n      tag_71\n      jumpi\n      tag_72\n      tag_73\n      jump\t// in\n    tag_72:\n    tag_71:\n      0x01\n      swap1\n      sub\n      dup2\n      dup2\n      swap1\n      0x00\n      mstore\n      keccak256(0x00, 0x20)\n      add\n      0x00\n      swap1\n      sstore\n      swap1\n      sstore\n        /* \"contract/Array.sol\":730:977  function deleteByValue(uint256 _index) external {... */\n      pop\n      jump\t// out\n        /* \"contract/Array.sol\":338:488  function update(uint256 index, uint256 _x) external {... */\n    tag_28:\n        /* \"contract/Array.sol\":431:432  1 */\n      0x01\n        /* \"contract/Array.sol\":417:421  nums */\n      0x00\n        /* \"contract/Array.sol\":417:428  nums.length */\n      dup1\n      sload\n      swap1\n      pop\n        /* \"contract/Array.sol\":417:432  nums.length - 1 */\n      tag_76\n      swap2\n      swap1\n      tag_42\n      jump\t// in\n    tag_76:\n        /* \"contract/Array.sol\":408:413  index */\n      dup3\n        /* \"contract/Array.sol\":408:432  index <= nums.length - 1 */\n      gt\n      iszero\n        /* \"contract/Array.sol\":400:455  require(index <= nums.length - 1, \"Index out of bound\") */\n      tag_77\n      jumpi\n      mload(0x40)\n      0x08c379a000000000000000000000000000000000000000000000000000000000\n      dup2\n      mstore\n      0x04\n      add\n      tag_78\n      swap1\n      tag_45\n      jump\t// in\n    tag_78:\n      mload(0x40)\n      dup1\n      swap2\n      sub\n      swap1\n      revert\n    tag_77:\n        /* \"contract/Array.sol\":479:481  _x */\n      dup1\n        /* \"contract/Array.sol\":465:469  nums */\n      0x00\n        /* \"contract/Array.sol\":470:475  index */\n      dup4\n        /* \"contract/Array.sol\":465:476  nums[index] */\n      dup2\n      sload\n      dup2\n      lt\n      tag_79\n      jumpi\n      tag_80\n      tag_48\n      jump\t// in\n    tag_80:\n    tag_79:\n      swap1\n      0x00\n      mstore\n      keccak256(0x00, 0x20)\n      add\n        /* \"contract/Array.sol\":465:481  nums[index] = _x */\n      dup2\n      swap1\n      sstore\n      pop\n        /* \"contract/Array.sol\":338:488  function update(uint256 index, uint256 _x) external {... */\n      pop\n      pop\n      jump\t// out\n        /* \"contract/Array.sol\":125:164  uint256[3] public nomsFixed = [4, 5, 6] */\n    tag_31:\n      0x01\n      dup2\n      0x03\n      dup2\n      lt\n      tag_82\n      jumpi\n      0x00\n      dup1\n      revert\n    tag_82:\n      add\n      0x00\n      swap2\n      pop\n      swap1\n      pop\n      sload\n      dup2\n      jump\t// out\n        /* \"contract/Array.sol\":1070:1261  function deleteValueByLasted(uint256 _index) external {... */\n    tag_35:\n        /* \"contract/Array.sol\":1166:1167  1 */\n      0x01\n        /* \"contract/Array.sol\":1152:1156  nums */\n      0x00\n        /* \"contract/Array.sol\":1152:1163  nums.length */\n      dup1\n      sload\n      swap1\n      pop\n        /* \"contract/Array.sol\":1152:1167  nums.length - 1 */\n      tag_85\n      swap2\n      swap1\n      tag_42\n      jump\t// in\n    tag_85:\n        /* \"contract/Array.sol\":1142:1148  _index */\n      dup2\n        /* \"contract/Array.sol\":1142:1167  _index <= nums.length - 1 */\n      gt\n      iszero\n        /* \"contract/Array.sol\":1134:1190  require(_index <= nums.length - 1, \"Index out of bound\") */\n      tag_86\n      jumpi\n      mload(0x40)\n      0x08c379a000000000000000000000000000000000000000000000000000000000\n      dup2\n      mstore\n      0x04\n      add\n      tag_87\n      swap1\n      tag_45\n      jump\t// in\n    tag_87:\n      mload(0x40)\n      dup1\n      swap2\n      sub\n      swap1\n      revert\n    tag_86:\n        /* \"contract/Array.sol\":1215:1219  nums */\n      0x00\n        /* \"contract/Array.sol\":1232:1233  1 */\n      0x01\n        /* \"contract/Array.sol\":1220:1224  nums */\n      0x00\n        /* \"contract/Array.sol\":1220:1231  nums.length */\n      dup1\n      sload\n      swap1\n      pop\n        /* \"contract/Array.sol\":1220:1233  nums.length-1 */\n      tag_88\n      swap2\n      swap1\n      tag_42\n      jump\t// in\n    tag_88:\n        /* \"contract/Array.sol\":1215:1234  nums[nums.length-1] */\n      dup2\n      sload\n      dup2\n      lt\n      tag_89\n      jumpi\n      tag_90\n      tag_48\n      jump\t// in\n    tag_90:\n    tag_89:\n      swap1\n      0x00\n      mstore\n      keccak256(0x00, 0x20)\n      add\n      sload\n        /* \"contract/Array.sol\":1200:1204  nums */\n      0x00\n        /* \"contract/Array.sol\":1205:1211  _index */\n      dup3\n        /* \"contract/Array.sol\":1200:1212  nums[_index] */\n      dup2\n      sload\n      dup2\n      lt\n      tag_92\n      jumpi\n      tag_93\n      tag_48\n      jump\t// in\n    tag_93:\n    tag_92:\n      swap1\n      0x00\n      mstore\n      keccak256(0x00, 0x20)\n      add\n        /* \"contract/Array.sol\":1200:1234  nums[_index] = nums[nums.length-1] */\n      dup2\n      swap1\n      sstore\n      pop\n        /* \"contract/Array.sol\":1244:1248  nums */\n      0x00\n        /* \"contract/Array.sol\":1244:1254  nums.pop() */\n      dup1\n      sload\n      dup1\n      tag_95\n      jumpi\n      tag_96\n      tag_73\n      jump\t// in\n    tag_96:\n    tag_95:\n      0x01\n      swap1\n      sub\n      dup2\n      dup2\n      swap1\n      0x00\n      mstore\n      keccak256(0x00, 0x20)\n      add\n      0x00\n      swap1\n      sstore\n      swap1\n      sstore\n        /* \"contract/Array.sol\":1070:1261  function deleteValueByLasted(uint256 _index) external {... */\n      pop\n      jump\t// out\n        /* \"contract/Array.sol\":86:119  uint256[] public nums = [1, 2, 3] */\n    tag_38:\n      0x00\n      dup2\n      dup2\n      sload\n      dup2\n      lt\n      tag_98\n      jumpi\n      0x00\n      dup1\n      revert\n    tag_98:\n      swap1\n      0x00\n      mstore\n      keccak256(0x00, 0x20)\n      add\n      0x00\n      swap2\n      pop\n      swap1\n      pop\n      sload\n      dup2\n      jump\t// out\n        /* \"#utility.yul\":7:146   */\n    tag_101:\n        /* \"#utility.yul\":53:58   */\n      0x00\n        /* \"#utility.yul\":91:97   */\n      dup2\n        /* \"#utility.yul\":78:98   */\n      calldataload\n        /* \"#utility.yul\":69:98   */\n      swap1\n      pop\n        /* \"#utility.yul\":107:140   */\n      tag_103\n        /* \"#utility.yul\":134:139   */\n      dup2\n        /* \"#utility.yul\":107:140   */\n      tag_104\n      jump\t// in\n    tag_103:\n        /* \"#utility.yul\":7:146   */\n      swap3\n      swap2\n      pop\n      pop\n      jump\t// out\n        /* \"#utility.yul\":152:481   */\n    tag_14:\n        /* \"#utility.yul\":211:217   */\n      0x00\n        /* \"#utility.yul\":260:262   */\n      0x20\n        /* \"#utility.yul\":248:257   */\n      dup3\n        /* \"#utility.yul\":239:246   */\n      dup5\n        /* \"#utility.yul\":235:258   */\n      sub\n        /* \"#utility.yul\":231:263   */\n      slt\n        /* \"#utility.yul\":228:347   */\n      iszero\n      tag_106\n      jumpi\n        /* \"#utility.yul\":266:345   */\n      tag_107\n      tag_108\n      jump\t// in\n    tag_107:\n        /* \"#utility.yul\":228:347   */\n    tag_106:\n        /* \"#utility.yul\":386:387   */\n      0x00\n        /* \"#utility.yul\":411:464   */\n      tag_109\n        /* \"#utility.yul\":456:463   */\n      dup5\n        /* \"#utility.yul\":447:453   */\n      dup3\n        /* \"#utility.yul\":436:445   */\n      dup6\n        /* \"#utility.yul\":432:454   */\n      add\n        /* \"#utility.yul\":411:464   */\n      tag_101\n      jump\t// in\n    tag_109:\n        /* \"#utility.yul\":401:464   */\n      swap2\n      pop\n        /* \"#utility.yul\":357:474   */\n      pop\n        /* \"#utility.yul\":152:481   */\n      swap3\n      swap2\n      pop\n      pop\n      jump\t// out\n        /* \"#utility.yul\":487:961   */\n    tag_27:\n        /* \"#utility.yul\":555:561   */\n      0x00\n        /* \"#utility.yul\":563:569   */\n      dup1\n        /* \"#utility.yul\":612:614   */\n      0x40\n        /* \"#utility.yul\":600:609   */\n      dup4\n        /* \"#utility.yul\":591:598   */\n      dup6\n        /* \"#utility.yul\":587:610   */\n      sub\n        /* \"#utility.yul\":583:615   */\n      slt\n        /* \"#utility.yul\":580:699   */\n      iszero\n      tag_111\n      jumpi\n        /* \"#utility.yul\":618:697   */\n      tag_112\n      tag_108\n      jump\t// in\n    tag_112:\n        /* \"#utility.yul\":580:699   */\n    tag_111:\n        /* \"#utility.yul\":738:739   */\n      0x00\n        /* \"#utility.yul\":763:816   */\n      tag_113\n        /* \"#utility.yul\":808:815   */\n      dup6\n        /* \"#utility.yul\":799:805   */\n      dup3\n        /* \"#utility.yul\":788:797   */\n      dup7\n        /* \"#utility.yul\":784:806   */\n      add\n        /* \"#utility.yul\":763:816   */\n      tag_101\n      jump\t// in\n    tag_113:\n        /* \"#utility.yul\":753:816   */\n      swap3\n      pop\n        /* \"#utility.yul\":709:826   */\n      pop\n        /* \"#utility.yul\":865:867   */\n      0x20\n        /* \"#utility.yul\":891:944   */\n      tag_114\n        /* \"#utility.yul\":936:943   */\n      dup6\n        /* \"#utility.yul\":927:933   */\n      dup3\n        /* \"#utility.yul\":916:925   */\n      dup7\n        /* \"#utility.yul\":912:934   */\n      add\n        /* \"#utility.yul\":891:944   */\n      tag_101\n      jump\t// in\n    tag_114:\n        /* \"#utility.yul\":881:944   */\n      swap2\n      pop\n        /* \"#utility.yul\":836:954   */\n      pop\n        /* \"#utility.yul\":487:961   */\n      swap3\n      pop\n      swap3\n      swap1\n      pop\n      jump\t// out\n        /* \"#utility.yul\":967:1333   */\n    tag_115:\n        /* \"#utility.yul\":1109:1112   */\n      0x00\n        /* \"#utility.yul\":1130:1197   */\n      tag_117\n        /* \"#utility.yul\":1194:1196   */\n      0x12\n        /* \"#utility.yul\":1189:1192   */\n      dup4\n        /* \"#utility.yul\":1130:1197   */\n      tag_118\n      jump\t// in\n    tag_117:\n        /* \"#utility.yul\":1123:1197   */\n      swap2\n      pop\n        /* \"#utility.yul\":1206:1299   */\n      tag_119\n        /* \"#utility.yul\":1295:1298   */\n      dup3\n        /* \"#utility.yul\":1206:1299   */\n      tag_120\n      jump\t// in\n    tag_119:\n        /* \"#utility.yul\":1324:1326   */\n      0x20\n        /* \"#utility.yul\":1319:1322   */\n      dup3\n        /* \"#utility.yul\":1315:1327   */\n      add\n        /* \"#utility.yul\":1308:1327   */\n      swap1\n      pop\n        /* \"#utility.yul\":967:1333   */\n      swap2\n      swap1\n      pop\n      jump\t// out\n        /* \"#utility.yul\":1339:1457   */\n    tag_121:\n        /* \"#utility.yul\":1426:1450   */\n      tag_123\n        /* \"#utility.yul\":1444:1449   */\n      dup2\n        /* \"#utility.yul\":1426:1450   */\n      tag_124\n      jump\t// in\n    tag_123:\n        /* \"#utility.yul\":1421:1424   */\n      dup3\n        /* \"#utility.yul\":1414:1451   */\n      mstore\n        /* \"#utility.yul\":1339:1457   */\n      pop\n      pop\n      jump\t// out\n        /* \"#utility.yul\":1463:1882   */\n    tag_45:\n        /* \"#utility.yul\":1629:1633   */\n      0x00\n        /* \"#utility.yul\":1667:1669   */\n      0x20\n        /* \"#utility.yul\":1656:1665   */\n      dup3\n        /* \"#utility.yul\":1652:1670   */\n      add\n        /* \"#utility.yul\":1644:1670   */\n      swap1\n      pop\n        /* \"#utility.yul\":1716:1725   */\n      dup2\n        /* \"#utility.yul\":1710:1714   */\n      dup2\n        /* \"#utility.yul\":1706:1726   */\n      sub\n        /* \"#utility.yul\":1702:1703   */\n      0x00\n        /* \"#utility.yul\":1691:1700   */\n      dup4\n        /* \"#utility.yul\":1687:1704   */\n      add\n        /* \"#utility.yul\":1680:1727   */\n      mstore\n        /* \"#utility.yul\":1744:1875   */\n      tag_126\n        /* \"#utility.yul\":1870:1874   */\n      dup2\n        /* \"#utility.yul\":1744:1875   */\n      tag_115\n      jump\t// in\n    tag_126:\n        /* \"#utility.yul\":1736:1875   */\n      swap1\n      pop\n        /* \"#utility.yul\":1463:1882   */\n      swap2\n      swap1\n      pop\n      jump\t// out\n        /* \"#utility.yul\":1888:2110   */\n    tag_19:\n        /* \"#utility.yul\":1981:1985   */\n      0x00\n        /* \"#utility.yul\":2019:2021   */\n      0x20\n        /* \"#utility.yul\":2008:2017   */\n      dup3\n        /* \"#utility.yul\":2004:2022   */\n      add\n        /* \"#utility.yul\":1996:2022   */\n      swap1\n      pop\n        /* \"#utility.yul\":2032:2103   */\n      tag_128\n        /* \"#utility.yul\":2100:2101   */\n      0x00\n        /* \"#utility.yul\":2089:2098   */\n      dup4\n        /* \"#utility.yul\":2085:2102   */\n      add\n        /* \"#utility.yul\":2076:2082   */\n      dup5\n        /* \"#utility.yul\":2032:2103   */\n      tag_121\n      jump\t// in\n    tag_128:\n        /* \"#utility.yul\":1888:2110   */\n      swap3\n      swap2\n      pop\n      pop\n      jump\t// out\n        /* \"#utility.yul\":2197:2366   */\n    tag_118:\n        /* \"#utility.yul\":2281:2292   */\n      0x00\n        /* \"#utility.yul\":2315:2321   */\n      dup3\n        /* \"#utility.yul\":2310:2313   */\n      dup3\n        /* \"#utility.yul\":2303:2322   */\n      mstore\n        /* \"#utility.yul\":2355:2359   */\n      0x20\n        /* \"#utility.yul\":2350:2353   */\n      dup3\n        /* \"#utility.yul\":2346:2360   */\n      add\n        /* \"#utility.yul\":2331:2360   */\n      swap1\n      pop\n        /* \"#utility.yul\":2197:2366   */\n      swap3\n      swap2\n      pop\n      pop\n      jump\t// out\n        /* \"#utility.yul\":2372:2677   */\n    tag_62:\n        /* \"#utility.yul\":2412:2415   */\n      0x00\n        /* \"#utility.yul\":2431:2451   */\n      tag_133\n        /* \"#utility.yul\":2449:2450   */\n      dup3\n        /* \"#utility.yul\":2431:2451   */\n      tag_124\n      jump\t// in\n    tag_133:\n        /* \"#utility.yul\":2426:2451   */\n      swap2\n      pop\n        /* \"#utility.yul\":2465:2485   */\n      tag_134\n        /* \"#utility.yul\":2483:2484   */\n      dup4\n        /* \"#utility.yul\":2465:2485   */\n      tag_124\n      jump\t// in\n    tag_134:\n        /* \"#utility.yul\":2460:2485   */\n      swap3\n      pop\n        /* \"#utility.yul\":2619:2620   */\n      dup3\n        /* \"#utility.yul\":2551:2617   */\n      0xffffffffffffffffffffffffffffffffffffffffffffffffffffffffffffffff\n        /* \"#utility.yul\":2547:2621   */\n      sub\n        /* \"#utility.yul\":2544:2545   */\n      dup3\n        /* \"#utility.yul\":2541:2622   */\n      gt\n        /* \"#utility.yul\":2538:2645   */\n      iszero\n      tag_135\n      jumpi\n        /* \"#utility.yul\":2625:2643   */\n      tag_136\n      tag_137\n      jump\t// in\n    tag_136:\n        /* \"#utility.yul\":2538:2645   */\n    tag_135:\n        /* \"#utility.yul\":2669:2670   */\n      dup3\n        /* \"#utility.yul\":2666:2667   */\n      dup3\n        /* \"#utility.yul\":2662:2671   */\n      add\n        /* \"#utility.yul\":2655:2671   */\n      swap1\n      pop\n        /* \"#utility.yul\":2372:2677   */\n      swap3\n      swap2\n      pop\n      pop\n      jump\t// out\n        /* \"#utility.yul\":2683:2874   */\n    tag_42:\n        /* \"#utility.yul\":2723:2727   */\n      0x00\n        /* \"#utility.yul\":2743:2763   */\n      tag_139\n        /* \"#utility.yul\":2761:2762   */\n      dup3\n        /* \"#utility.yul\":2743:2763   */\n      tag_124\n      jump\t// in\n    tag_139:\n        /* \"#utility.yul\":2738:2763   */\n      swap2\n      pop\n        /* \"#utility.yul\":2777:2797   */\n      tag_140\n        /* \"#utility.yul\":2795:2796   */\n      dup4\n        /* \"#utility.yul\":2777:2797   */\n      tag_124\n      jump\t// in\n    tag_140:\n        /* \"#utility.yul\":2772:2797   */\n      swap3\n      pop\n        /* \"#utility.yul\":2816:2817   */\n      dup3\n        /* \"#utility.yul\":2813:2814   */\n      dup3\n        /* \"#utility.yul\":2810:2818   */\n      lt\n        /* \"#utility.yul\":2807:2841   */\n      iszero\n      tag_141\n      jumpi\n        /* \"#utility.yul\":2821:2839   */\n      tag_142\n      tag_137\n      jump\t// in\n    tag_142:\n        /* \"#utility.yul\":2807:2841   */\n    tag_141:\n        /* \"#utility.yul\":2866:2867   */\n      dup3\n        /* \"#utility.yul\":2863:2864   */\n      dup3\n        /* \"#utility.yul\":2859:2868   */\n      sub\n        /* \"#utility.yul\":2851:2868   */\n      swap1\n      pop\n        /* \"#utility.yul\":2683:2874   */\n      swap3\n      swap2\n      pop\n      pop\n      jump\t// out\n        /* \"#utility.yul\":2880:2957   */\n    tag_124:\n        /* \"#utility.yul\":2917:2924   */\n      0x00\n        /* \"#utility.yul\":2946:2951   */\n      dup2\n        /* \"#utility.yul\":2935:2951   */\n      swap1\n      pop\n        /* \"#utility.yul\":2880:2957   */\n      swap2\n      swap1\n      pop\n      jump\t// out\n        /* \"#utility.yul\":2963:3196   */\n    tag_70:\n        /* \"#utility.yul\":3002:3005   */\n      0x00\n        /* \"#utility.yul\":3025:3049   */\n      tag_145\n        /* \"#utility.yul\":3043:3048   */\n      dup3\n        /* \"#utility.yul\":3025:3049   */\n      tag_124\n      jump\t// in\n    tag_145:\n        /* \"#utility.yul\":3016:3049   */\n      swap2\n      pop\n        /* \"#utility.yul\":3071:3137   */\n      0xffffffffffffffffffffffffffffffffffffffffffffffffffffffffffffffff\n        /* \"#utility.yul\":3064:3069   */\n      dup3\n        /* \"#utility.yul\":3061:3138   */\n      eq\n        /* \"#utility.yul\":3058:3161   */\n      iszero\n      tag_146\n      jumpi\n        /* \"#utility.yul\":3141:3159   */\n      tag_147\n      tag_137\n      jump\t// in\n    tag_147:\n        /* \"#utility.yul\":3058:3161   */\n    tag_146:\n        /* \"#utility.yul\":3188:3189   */\n      0x01\n        /* \"#utility.yul\":3181:3186   */\n      dup3\n        /* \"#utility.yul\":3177:3190   */\n      add\n        /* \"#utility.yul\":3170:3190   */\n      swap1\n      pop\n        /* \"#utility.yul\":2963:3196   */\n      swap2\n      swap1\n      pop\n      jump\t// out\n        /* \"#utility.yul\":3202:3382   */\n    tag_137:\n        /* \"#utility.yul\":3250:3327   */\n      0x4e487b7100000000000000000000000000000000000000000000000000000000\n        /* \"#utility.yul\":3247:3248   */\n      0x00\n        /* \"#utility.yul\":3240:3328   */\n      mstore\n        /* \"#utility.yul\":3347:3351   */\n      0x11\n        /* \"#utility.yul\":3344:3345   */\n      0x04\n        /* \"#utility.yul\":3337:3352   */\n      mstore\n        /* \"#utility.yul\":3371:3375   */\n      0x24\n        /* \"#utility.yul\":3368:3369   */\n      0x00\n        /* \"#utility.yul\":3361:3376   */\n      revert\n        /* \"#utility.yul\":3388:3568   */\n    tag_73:\n        /* \"#utility.yul\":3436:3513   */\n      0x4e487b7100000000000000000000000000000000000000000000000000000000\n        /* \"#utility.yul\":3433:3434   */\n      0x00\n        /* \"#utility.yul\":3426:3514   */\n      mstore\n        /* \"#utility.yul\":3533:3537   */\n      0x31\n        /* \"#utility.yul\":3530:3531   */\n      0x04\n        /* \"#utility.yul\":3523:3538   */\n      mstore\n        /* \"#utility.yul\":3557:3561   */\n      0x24\n        /* \"#utility.yul\":3554:3555   */\n      0x00\n        /* \"#utility.yul\":3547:3562   */\n      revert\n        /* \"#utility.yul\":3574:3754   */\n    tag_48:\n        /* \"#utility.yul\":3622:3699   */\n      0x4e487b7100000000000000000000000000000000000000000000000000000000\n        /* \"#utility.yul\":3619:3620   */\n      0x00\n        /* \"#utility.yul\":3612:3700   */\n      mstore\n        /* \"#utility.yul\":3719:3723   */\n      0x32\n        /* \"#utility.yul\":3716:3717   */\n      0x04\n        /* \"#utility.yul\":3709:3724   */\n      mstore\n        /* \"#utility.yul\":3743:3747   */\n      0x24\n        /* \"#utility.yul\":3740:3741   */\n      0x00\n        /* \"#utility.yul\":3733:3748   */\n      revert\n        /* \"#utility.yul\":3883:4000   */\n    tag_108:\n        /* \"#utility.yul\":3992:3993   */\n      0x00\n        /* \"#utility.yul\":3989:3990   */\n      dup1\n        /* \"#utility.yul\":3982:3994   */\n      revert\n        /* \"#utility.yul\":4006:4174   */\n    tag_120:\n        /* \"#utility.yul\":4146:4166   */\n      0x496e646578206f7574206f6620626f756e640000000000000000000000000000\n        /* \"#utility.yul\":4142:4143   */\n      0x00\n        /* \"#utility.yul\":4134:4140   */\n      dup3\n        /* \"#utility.yul\":4130:4144   */\n      add\n        /* \"#utility.yul\":4123:4167   */\n      mstore\n        /* \"#utility.yul\":4006:4174   */\n      pop\n      jump\t// out\n        /* \"#utility.yul\":4180:4302   */\n    tag_104:\n        /* \"#utility.yul\":4253:4277   */\n      tag_156\n        /* \"#utility.yul\":4271:4276   */\n      dup2\n        /* \"#utility.yul\":4253:4277   */\n      tag_124\n      jump\t// in\n    tag_156:\n        /* \"#utility.yul\":4246:4251   */\n      dup2\n        /* \"#utility.yul\":4243:4278   */\n      eq\n        /* \"#utility.yul\":4233:4296   */\n      tag_157\n      jumpi\n        /* \"#utility.yul\":4292:4293   */\n      0x00\n        /* \"#utility.yul\":4289:4290   */\n      dup1\n        /* \"#utility.yul\":4282:4294   */\n      revert\n        /* \"#utility.yul\":4233:4296   */\n    tag_157:\n        /* \"#utility.yul\":4180:4302   */\n      pop\n      jump\t// out\n\n    auxdata: 0xa2646970667358221220736ac60b0ea4b4d3582826b53b8317355f7e0523c913fd7929630c28782a288264736f6c63430008070033\n}\n",
				"bytecode": {
					"linkReferences": {},
					"object": "60806040526040518060600160405280600160ff168152602001600260ff168152602001600360ff16815250600090600361003b929190610086565b506040518060600160405280600460ff168152602001600560ff168152602001600660ff1681525060019060036100739291906100d8565b5034801561008057600080fd5b5061013a565b8280548282559060005260206000209081019282156100c7579160200282015b828111156100c6578251829060ff169055916020019190600101906100a6565b5b5090506100d4919061011d565b5090565b826003810192821561010c579160200282015b8281111561010b578251829060ff169055916020019190600101906100eb565b5b509050610119919061011d565b5090565b5b8082111561013657600081600090555060010161011e565b5090565b6107a5806101496000396000f3fe608060405234801561001057600080fd5b50600436106100885760003560e01c80632fb565e81161005b5780632fb565e8146100ed578063763085cb14610109578063cbc013a314610139578063fd1ee54c1461015557610088565b80631e69607e1461008d5780631f7b6d32146100a957806325f7b1de146100c75780632c3e7e19146100d1575b600080fd5b6100a760048036038101906100a291906104d5565b610185565b005b6100b16101fe565b6040516100be9190610594565b60405180910390f35b6100cf61020a565b005b6100eb60048036038101906100e691906104d5565b610236565b005b61010760048036038101906101029190610502565b610335565b005b610123600480360381019061011e91906104d5565b6103b0565b6040516101309190610594565b60405180910390f35b610153600480360381019061014e91906104d5565b6103cb565b005b61016f600480360381019061016a91906104d5565b61049c565b60405161017c9190610594565b60405180910390f35b60016000805490506101979190610616565b8111156101d9576040517f08c379a00000000000000000000000000000000000000000000000000000000081526004016101d090610574565b60405180910390fd5b600081815481106101ed576101ec6106fb565b5b906000526020600020016000905550565b60008080549050905090565b600060049080600181540180825580915050600190039060005260206000200160009091909190915055565b60016000805490506102489190610616565b81111561028a576040517f08c379a000000000000000000000000000000000000000000000000000000000815260040161028190610574565b60405180910390fd5b60008190505b60016000805490506102a29190610616565b8110156103095760006001826102b891906105c0565b815481106102c9576102c86106fb565b5b9060005260206000200154600082815481106102e8576102e76106fb565b5b9060005260206000200181905550808061030190610654565b915050610290565b50600080548061031c5761031b6106cc565b5b6001900381819060005260206000200160009055905550565b60016000805490506103479190610616565b821115610389576040517f08c379a000000000000000000000000000000000000000000000000000000000815260040161038090610574565b60405180910390fd5b806000838154811061039e5761039d6106fb565b5b90600052602060002001819055505050565b600181600381106103c057600080fd5b016000915090505481565b60016000805490506103dd9190610616565b81111561041f576040517f08c379a000000000000000000000000000000000000000000000000000000000815260040161041690610574565b60405180910390fd5b600060016000805490506104339190610616565b81548110610444576104436106fb565b5b906000526020600020015460008281548110610463576104626106fb565b5b90600052602060002001819055506000805480610483576104826106cc565b5b6001900381819060005260206000200160009055905550565b600081815481106104ac57600080fd5b906000526020600020016000915090505481565b6000813590506104cf81610758565b92915050565b6000602082840312156104eb576104ea61072a565b5b60006104f9848285016104c0565b91505092915050565b600080604083850312156105195761051861072a565b5b6000610527858286016104c0565b9250506020610538858286016104c0565b9150509250929050565b600061054f6012836105af565b915061055a8261072f565b602082019050919050565b61056e8161064a565b82525050565b6000602082019050818103600083015261058d81610542565b9050919050565b60006020820190506105a96000830184610565565b92915050565b600082825260208201905092915050565b60006105cb8261064a565b91506105d68361064a565b9250827fffffffffffffffffffffffffffffffffffffffffffffffffffffffffffffffff0382111561060b5761060a61069d565b5b828201905092915050565b60006106218261064a565b915061062c8361064a565b92508282101561063f5761063e61069d565b5b828203905092915050565b6000819050919050565b600061065f8261064a565b91507fffffffffffffffffffffffffffffffffffffffffffffffffffffffffffffffff8214156106925761069161069d565b5b600182019050919050565b7f4e487b7100000000000000000000000000000000000000000000000000000000600052601160045260246000fd5b7f4e487b7100000000000000000000000000000000000000000000000000000000600052603160045260246000fd5b7f4e487b7100000000000000000000000000000000000000000000000000000000600052603260045260246000fd5b600080fd5b7f496e646578206f7574206f6620626f756e640000000000000000000000000000600082015250565b6107618161064a565b811461076c57600080fd5b5056fea2646970667358221220736ac60b0ea4b4d3582826b53b8317355f7e0523c913fd7929630c28782a288264736f6c63430008070033",
					"opcodes": "PUSH1 0x80 PUSH1 0x40 MSTORE PUSH1 0x40 MLOAD DUP1 PUSH1 0x60 ADD PUSH1 0x40 MSTORE DUP1 PUSH1 0x1 PUSH1 0xFF AND DUP2 MSTORE PUSH1 0x20 ADD PUSH1 0x2 PUSH1 0xFF AND DUP2 MSTORE PUSH1 0x20 ADD PUSH1 0x3 PUSH1 0xFF AND DUP2 MSTORE POP PUSH1 0x0 SWAP1 PUSH1 0x3 PUSH2 0x3B SWAP3 SWAP2 SWAP1 PUSH2 0x86 JUMP JUMPDEST POP PUSH1 0x40 MLOAD DUP1 PUSH1 0x60 ADD PUSH1 0x40 MSTORE DUP1 PUSH1 0x4 PUSH1 0xFF AND DUP2 MSTORE PUSH1 0x20 ADD PUSH1 0x5 PUSH1 0xFF AND DUP2 MSTORE PUSH1 0x20 ADD PUSH1 0x6 PUSH1 0xFF AND DUP2 MSTORE POP PUSH1 0x1 SWAP1 PUSH1 0x3 PUSH2 0x73 SWAP3 SWAP2 SWAP1 PUSH2 0xD8 JUMP JUMPDEST POP CALLVALUE DUP1 ISZERO PUSH2 0x80 JUMPI PUSH1 0x0 DUP1 REVERT JUMPDEST POP PUSH2 0x13A JUMP JUMPDEST DUP3 DUP1 SLOAD DUP3 DUP3 SSTORE SWAP1 PUSH1 0x0 MSTORE PUSH1 0x20 PUSH1 0x0 KECCAK256 SWAP1 DUP2 ADD SWAP3 DUP3 ISZERO PUSH2 0xC7 JUMPI SWAP2 PUSH1 0x20 MUL DUP3 ADD JUMPDEST DUP3 DUP2 GT ISZERO PUSH2 0xC6 JUMPI DUP3 MLOAD DUP3 SWAP1 PUSH1 0xFF AND SWAP1 SSTORE SWAP2 PUSH1 0x20 ADD SWAP2 SWAP1 PUSH1 0x1 ADD SWAP1 PUSH2 0xA6 JUMP JUMPDEST JUMPDEST POP SWAP1 POP PUSH2 0xD4 SWAP2 SWAP1 PUSH2 0x11D JUMP JUMPDEST POP SWAP1 JUMP JUMPDEST DUP3 PUSH1 0x3 DUP2 ADD SWAP3 DUP3 ISZERO PUSH2 0x10C JUMPI SWAP2 PUSH1 0x20 MUL DUP3 ADD JUMPDEST DUP3 DUP2 GT ISZERO PUSH2 0x10B JUMPI DUP3 MLOAD DUP3 SWAP1 PUSH1 0xFF AND SWAP1 SSTORE SWAP2 PUSH1 0x20 ADD SWAP2 SWAP1 PUSH1 0x1 ADD SWAP1 PUSH2 0xEB JUMP JUMPDEST JUMPDEST POP SWAP1 POP PUSH2 0x119 SWAP2 SWAP1 PUSH2 0x11D JUMP JUMPDEST POP SWAP1 JUMP JUMPDEST JUMPDEST DUP1 DUP3 GT ISZERO PUSH2 0x136 JUMPI PUSH1 0x0 DUP2 PUSH1 0x0 SWAP1 SSTORE POP PUSH1 0x1 ADD PUSH2 0x11E JUMP JUMPDEST POP SWAP1 JUMP JUMPDEST PUSH2 0x7A5 DUP1 PUSH2 0x149 PUSH1 0x0 CODECOPY PUSH1 0x0 RETURN INVALID PUSH1 0x80 PUSH1 0x40 MSTORE CALLVALUE DUP1 ISZERO PUSH2 0x10 JUMPI PUSH1 0x0 DUP1 REVERT JUMPDEST POP PUSH1 0x4 CALLDATASIZE LT PUSH2 0x88 JUMPI PUSH1 0x0 CALLDATALOAD PUSH1 0xE0 SHR DUP1 PUSH4 0x2FB565E8 GT PUSH2 0x5B JUMPI DUP1 PUSH4 0x2FB565E8 EQ PUSH2 0xED JUMPI DUP1 PUSH4 0x763085CB EQ PUSH2 0x109 JUMPI DUP1 PUSH4 0xCBC013A3 EQ PUSH2 0x139 JUMPI DUP1 PUSH4 0xFD1EE54C EQ PUSH2 0x155 JUMPI PUSH2 0x88 JUMP JUMPDEST DUP1 PUSH4 0x1E69607E EQ PUSH2 0x8D JUMPI DUP1 PUSH4 0x1F7B6D32 EQ PUSH2 0xA9 JUMPI DUP1 PUSH4 0x25F7B1DE EQ PUSH2 0xC7 JUMPI DUP1 PUSH4 0x2C3E7E19 EQ PUSH2 0xD1 JUMPI JUMPDEST PUSH1 0x0 DUP1 REVERT JUMPDEST PUSH2 0xA7 PUSH1 0x4 DUP1 CALLDATASIZE SUB DUP2 ADD SWAP1 PUSH2 0xA2 SWAP2 SWAP1 PUSH2 0x4D5 JUMP JUMPDEST PUSH2 0x185 JUMP JUMPDEST STOP JUMPDEST PUSH2 0xB1 PUSH2 0x1FE JUMP JUMPDEST PUSH1 0x40 MLOAD PUSH2 0xBE SWAP2 SWAP1 PUSH2 0x594 JUMP JUMPDEST PUSH1 0x40 MLOAD DUP1 SWAP2 SUB SWAP1 RETURN JUMPDEST PUSH2 0xCF PUSH2 0x20A JUMP JUMPDEST STOP JUMPDEST PUSH2 0xEB PUSH1 0x4 DUP1 CALLDATASIZE SUB DUP2 ADD SWAP1 PUSH2 0xE6 SWAP2 SWAP1 PUSH2 0x4D5 JUMP JUMPDEST PUSH2 0x236 JUMP JUMPDEST STOP JUMPDEST PUSH2 0x107 PUSH1 0x4 DUP1 CALLDATASIZE SUB DUP2 ADD SWAP1 PUSH2 0x102 SWAP2 SWAP1 PUSH2 0x502 JUMP JUMPDEST PUSH2 0x335 JUMP JUMPDEST STOP JUMPDEST PUSH2 0x123 PUSH1 0x4 DUP1 CALLDATASIZE SUB DUP2 ADD SWAP1 PUSH2 0x11E SWAP2 SWAP1 PUSH2 0x4D5 JUMP JUMPDEST PUSH2 0x3B0 JUMP JUMPDEST PUSH1 0x40 MLOAD PUSH2 0x130 SWAP2 SWAP1 PUSH2 0x594 JUMP JUMPDEST PUSH1 0x40 MLOAD DUP1 SWAP2 SUB SWAP1 RETURN JUMPDEST PUSH2 0x153 PUSH1 0x4 DUP1 CALLDATASIZE SUB DUP2 ADD SWAP1 PUSH2 0x14E SWAP2 SWAP1 PUSH2 0x4D5 JUMP JUMPDEST PUSH2 0x3CB JUMP JUMPDEST STOP JUMPDEST PUSH2 0x16F PUSH1 0x4 DUP1 CALLDATASIZE SUB DUP2 ADD SWAP1 PUSH2 0x16A SWAP2 SWAP1 PUSH2 0x4D5 JUMP JUMPDEST PUSH2 0x49C JUMP JUMPDEST PUSH1 0x40 MLOAD PUSH2 0x17C SWAP2 SWAP1 PUSH2 0x594 JUMP JUMPDEST PUSH1 0x40 MLOAD DUP1 SWAP2 SUB SWAP1 RETURN JUMPDEST PUSH1 0x1 PUSH1 0x0 DUP1 SLOAD SWAP1 POP PUSH2 0x197 SWAP2 SWAP1 PUSH2 0x616 JUMP JUMPDEST DUP2 GT ISZERO PUSH2 0x1D9 JUMPI PUSH1 0x40 MLOAD PUSH32 0x8C379A000000000000000000000000000000000000000000000000000000000 DUP2 MSTORE PUSH1 0x4 ADD PUSH2 0x1D0 SWAP1 PUSH2 0x574 JUMP JUMPDEST PUSH1 0x40 MLOAD DUP1 SWAP2 SUB SWAP1 REVERT JUMPDEST PUSH1 0x0 DUP2 DUP2 SLOAD DUP2 LT PUSH2 0x1ED JUMPI PUSH2 0x1EC PUSH2 0x6FB JUMP JUMPDEST JUMPDEST SWAP1 PUSH1 0x0 MSTORE PUSH1 0x20 PUSH1 0x0 KECCAK256 ADD PUSH1 0x0 SWAP1 SSTORE POP JUMP JUMPDEST PUSH1 0x0 DUP1 DUP1 SLOAD SWAP1 POP SWAP1 POP SWAP1 JUMP JUMPDEST PUSH1 0x0 PUSH1 0x4 SWAP1 DUP1 PUSH1 0x1 DUP2 SLOAD ADD DUP1 DUP3 SSTORE DUP1 SWAP2 POP POP PUSH1 0x1 SWAP1 SUB SWAP1 PUSH1 0x0 MSTORE PUSH1 0x20 PUSH1 0x0 KECCAK256 ADD PUSH1 0x0 SWAP1 SWAP2 SWAP1 SWAP2 SWAP1 SWAP2 POP SSTORE JUMP JUMPDEST PUSH1 0x1 PUSH1 0x0 DUP1 SLOAD SWAP1 POP PUSH2 0x248 SWAP2 SWAP1 PUSH2 0x616 JUMP JUMPDEST DUP2 GT ISZERO PUSH2 0x28A JUMPI PUSH1 0x40 MLOAD PUSH32 0x8C379A000000000000000000000000000000000000000000000000000000000 DUP2 MSTORE PUSH1 0x4 ADD PUSH2 0x281 SWAP1 PUSH2 0x574 JUMP JUMPDEST PUSH1 0x40 MLOAD DUP1 SWAP2 SUB SWAP1 REVERT JUMPDEST PUSH1 0x0 DUP2 SWAP1 POP JUMPDEST PUSH1 0x1 PUSH1 0x0 DUP1 SLOAD SWAP1 POP PUSH2 0x2A2 SWAP2 SWAP1 PUSH2 0x616 JUMP JUMPDEST DUP2 LT ISZERO PUSH2 0x309 JUMPI PUSH1 0x0 PUSH1 0x1 DUP3 PUSH2 0x2B8 SWAP2 SWAP1 PUSH2 0x5C0 JUMP JUMPDEST DUP2 SLOAD DUP2 LT PUSH2 0x2C9 JUMPI PUSH2 0x2C8 PUSH2 0x6FB JUMP JUMPDEST JUMPDEST SWAP1 PUSH1 0x0 MSTORE PUSH1 0x20 PUSH1 0x0 KECCAK256 ADD SLOAD PUSH1 0x0 DUP3 DUP2 SLOAD DUP2 LT PUSH2 0x2E8 JUMPI PUSH2 0x2E7 PUSH2 0x6FB JUMP JUMPDEST JUMPDEST SWAP1 PUSH1 0x0 MSTORE PUSH1 0x20 PUSH1 0x0 KECCAK256 ADD DUP2 SWAP1 SSTORE POP DUP1 DUP1 PUSH2 0x301 SWAP1 PUSH2 0x654 JUMP JUMPDEST SWAP2 POP POP PUSH2 0x290 JUMP JUMPDEST POP PUSH1 0x0 DUP1 SLOAD DUP1 PUSH2 0x31C JUMPI PUSH2 0x31B PUSH2 0x6CC JUMP JUMPDEST JUMPDEST PUSH1 0x1 SWAP1 SUB DUP2 DUP2 SWAP1 PUSH1 0x0 MSTORE PUSH1 0x20 PUSH1 0x0 KECCAK256 ADD PUSH1 0x0 SWAP1 SSTORE SWAP1 SSTORE POP JUMP JUMPDEST PUSH1 0x1 PUSH1 0x0 DUP1 SLOAD SWAP1 POP PUSH2 0x347 SWAP2 SWAP1 PUSH2 0x616 JUMP JUMPDEST DUP3 GT ISZERO PUSH2 0x389 JUMPI PUSH1 0x40 MLOAD PUSH32 0x8C379A000000000000000000000000000000000000000000000000000000000 DUP2 MSTORE PUSH1 0x4 ADD PUSH2 0x380 SWAP1 PUSH2 0x574 JUMP JUMPDEST PUSH1 0x40 MLOAD DUP1 SWAP2 SUB SWAP1 REVERT JUMPDEST DUP1 PUSH1 0x0 DUP4 DUP2 SLOAD DUP2 LT PUSH2 0x39E JUMPI PUSH2 0x39D PUSH2 0x6FB JUMP JUMPDEST JUMPDEST SWAP1 PUSH1 0x0 MSTORE PUSH1 0x20 PUSH1 0x0 KECCAK256 ADD DUP2 SWAP1 SSTORE POP POP POP JUMP JUMPDEST PUSH1 0x1 DUP2 PUSH1 0x3 DUP2 LT PUSH2 0x3C0 JUMPI PUSH1 0x0 DUP1 REVERT JUMPDEST ADD PUSH1 0x0 SWAP2 POP SWAP1 POP SLOAD DUP2 JUMP JUMPDEST PUSH1 0x1 PUSH1 0x0 DUP1 SLOAD SWAP1 POP PUSH2 0x3DD SWAP2 SWAP1 PUSH2 0x616 JUMP JUMPDEST DUP2 GT ISZERO PUSH2 0x41F JUMPI PUSH1 0x40 MLOAD PUSH32 0x8C379A000000000000000000000000000000000000000000000000000000000 DUP2 MSTORE PUSH1 0x4 ADD PUSH2 0x416 SWAP1 PUSH2 0x574 JUMP JUMPDEST PUSH1 0x40 MLOAD DUP1 SWAP2 SUB SWAP1 REVERT JUMPDEST PUSH1 0x0 PUSH1 0x1 PUSH1 0x0 DUP1 SLOAD SWAP1 POP PUSH2 0x433 SWAP2 SWAP1 PUSH2 0x616 JUMP JUMPDEST DUP2 SLOAD DUP2 LT PUSH2 0x444 JUMPI PUSH2 0x443 PUSH2 0x6FB JUMP JUMPDEST JUMPDEST SWAP1 PUSH1 0x0 MSTORE PUSH1 0x20 PUSH1 0x0 KECCAK256 ADD SLOAD PUSH1 0x0 DUP3 DUP2 SLOAD DUP2 LT PUSH2 0x463 JUMPI PUSH2 0x462 PUSH2 0x6FB JUMP JUMPDEST JUMPDEST SWAP1 PUSH1 0x0 MSTORE PUSH1 0x20 PUSH1 0x0 KECCAK256 ADD DUP2 SWAP1 SSTORE POP PUSH1 0x0 DUP1 SLOAD DUP1 PUSH2 0x483 JUMPI PUSH2 0x482 PUSH2 0x6CC JUMP JUMPDEST JUMPDEST PUSH1 0x1 SWAP1 SUB DUP2 DUP2 SWAP1 PUSH1 0x0 MSTORE PUSH1 0x20 PUSH1 0x0 KECCAK256 ADD PUSH1 0x0 SWAP1 SSTORE SWAP1 SSTORE POP JUMP JUMPDEST PUSH1 0x0 DUP2 DUP2 SLOAD DUP2 LT PUSH2 0x4AC JUMPI PUSH1 0x0 DUP1 REVERT JUMPDEST SWAP1 PUSH1 0x0 MSTORE PUSH1 0x20 PUSH1 0x0 KECCAK256 ADD PUSH1 0x0 SWAP2 POP SWAP1 POP SLOAD DUP2 JUMP JUMPDEST PUSH1 0x0 DUP2 CALLDATALOAD SWAP1 POP PUSH2 0x4CF DUP2 PUSH2 0x758 JUMP JUMPDEST SWAP3 SWAP2 POP POP JUMP JUMPDEST PUSH1 0x0 PUSH1 0x20 DUP3 DUP5 SUB SLT ISZERO PUSH2 0x4EB JUMPI PUSH2 0x4EA PUSH2 0x72A JUMP JUMPDEST JUMPDEST PUSH1 0x0 PUSH2 0x4F9 DUP5 DUP3 DUP6 ADD PUSH2 0x4C0 JUMP JUMPDEST SWAP2 POP POP SWAP3 SWAP2 POP POP JUMP JUMPDEST PUSH1 0x0 DUP1 PUSH1 0x40 DUP4 DUP6 SUB SLT ISZERO PUSH2 0x519 JUMPI PUSH2 0x518 PUSH2 0x72A JUMP JUMPDEST JUMPDEST PUSH1 0x0 PUSH2 0x527 DUP6 DUP3 DUP7 ADD PUSH2 0x4C0 JUMP JUMPDEST SWAP3 POP POP PUSH1 0x20 PUSH2 0x538 DUP6 DUP3 DUP7 ADD PUSH2 0x4C0 JUMP JUMPDEST SWAP2 POP POP SWAP3 POP SWAP3 SWAP1 POP JUMP JUMPDEST PUSH1 0x0 PUSH2 0x54F PUSH1 0x12 DUP4 PUSH2 0x5AF JUMP JUMPDEST SWAP2 POP PUSH2 0x55A DUP3 PUSH2 0x72F JUMP JUMPDEST PUSH1 0x20 DUP3 ADD SWAP1 POP SWAP2 SWAP1 POP JUMP JUMPDEST PUSH2 0x56E DUP2 PUSH2 0x64A JUMP JUMPDEST DUP3 MSTORE POP POP JUMP JUMPDEST PUSH1 0x0 PUSH1 0x20 DUP3 ADD SWAP1 POP DUP2 DUP2 SUB PUSH1 0x0 DUP4 ADD MSTORE PUSH2 0x58D DUP2 PUSH2 0x542 JUMP JUMPDEST SWAP1 POP SWAP2 SWAP1 POP JUMP JUMPDEST PUSH1 0x0 PUSH1 0x20 DUP3 ADD SWAP1 POP PUSH2 0x5A9 PUSH1 0x0 DUP4 ADD DUP5 PUSH2 0x565 JUMP JUMPDEST SWAP3 SWAP2 POP POP JUMP JUMPDEST PUSH1 0x0 DUP3 DUP3 MSTORE PUSH1 0x20 DUP3 ADD SWAP1 POP SWAP3 SWAP2 POP POP JUMP JUMPDEST PUSH1 0x0 PUSH2 0x5CB DUP3 PUSH2 0x64A JUMP JUMPDEST SWAP2 POP PUSH2 0x5D6 DUP4 PUSH2 0x64A JUMP JUMPDEST SWAP3 POP DUP3 PUSH32 0xFFFFFFFFFFFFFFFFFFFFFFFFFFFFFFFFFFFFFFFFFFFFFFFFFFFFFFFFFFFFFFFF SUB DUP3 GT ISZERO PUSH2 0x60B JUMPI PUSH2 0x60A PUSH2 0x69D JUMP JUMPDEST JUMPDEST DUP3 DUP3 ADD SWAP1 POP SWAP3 SWAP2 POP POP JUMP JUMPDEST PUSH1 0x0 PUSH2 0x621 DUP3 PUSH2 0x64A JUMP JUMPDEST SWAP2 POP PUSH2 0x62C DUP4 PUSH2 0x64A JUMP JUMPDEST SWAP3 POP DUP3 DUP3 LT ISZERO PUSH2 0x63F JUMPI PUSH2 0x63E PUSH2 0x69D JUMP JUMPDEST JUMPDEST DUP3 DUP3 SUB SWAP1 POP SWAP3 SWAP2 POP POP JUMP JUMPDEST PUSH1 0x0 DUP2 SWAP1 POP SWAP2 SWAP1 POP JUMP JUMPDEST PUSH1 0x0 PUSH2 0x65F DUP3 PUSH2 0x64A JUMP JUMPDEST SWAP2 POP PUSH32 0xFFFFFFFFFFFFFFFFFFFFFFFFFFFFFFFFFFFFFFFFFFFFFFFFFFFFFFFFFFFFFFFF DUP3 EQ ISZERO PUSH2 0x692 JUMPI PUSH2 0x691 PUSH2 0x69D JUMP JUMPDEST JUMPDEST PUSH1 0x1 DUP3 ADD SWAP1 POP SWAP2 SWAP1 POP JUMP JUMPDEST PUSH32 0x4E487B7100000000000000000000000000000000000000000000000000000000 PUSH1 0x0 MSTORE PUSH1 0x11 PUSH1 0x4 MSTORE PUSH1 0x24 PUSH1 0x0 REVERT JUMPDEST PUSH32 0x4E487B7100000000000000000000000000000000000000000000000000000000 PUSH1 0x0 MSTORE PUSH1 0x31 PUSH1 0x4 MSTORE PUSH1 0x24 PUSH1 0x0 REVERT JUMPDEST PUSH32 0x4E487B7100000000000000000000000000000000000000000000000000000000 PUSH1 0x0 MSTORE PUSH1 0x32 PUSH1 0x4 MSTORE PUSH1 0x24 PUSH1 0x0 REVERT JUMPDEST PUSH1 0x0 DUP1 REVERT JUMPDEST PUSH32 0x496E646578206F7574206F6620626F756E640000000000000000000000000000 PUSH1 0x0 DUP3 ADD MSTORE POP JUMP JUMPDEST PUSH2 0x761 DUP2 PUSH2 0x64A JUMP JUMPDEST DUP2 EQ PUSH2 0x76C JUMPI PUSH1 0x0 DUP1 REVERT JUMPDEST POP JUMP INVALID LOG2 PUSH5 0x6970667358 0x22 SLT KECCAK256 PUSH20 0x6AC60B0EA4B4D3582826B53B8317355F7E0523C9 SGT REVERT PUSH26 0x29630C28782A288264736F6C6343000807003300000000000000 "
				},
				"gasEstimates": {
					"creation": {
						"codeDepositCost": "391400",
						"executionCost": "infinite",
						"totalCost": "infinite"
					},
					"external": {
						"deleteByIndex(uint256)": "infinite",
						"deleteByValue(uint256)": "infinite",
						"deleteValueByLasted(uint256)": "infinite",
						"insert()": "46612",
						"length()": "2468",
						"nomsFixed(uint256)": "infinite",
						"nums(uint256)": "infinite",
						"update(uint256,uint256)": "infinite"
					}
				},
				"methodIdentifiers": {
					"deleteByIndex(uint256)": "1e69607e",
					"deleteByValue(uint256)": "2c3e7e19",
					"deleteValueByLasted(uint256)": "cbc013a3",
					"insert()": "25f7b1de",
					"length()": "1f7b6d32",
					"nomsFixed(uint256)": "763085cb",
					"nums(uint256)": "fd1ee54c",
					"update(uint256,uint256)": "2fb565e8"
				}
			},
			"storageLayout": {
				"storage": [
					{
						"astId": 8,
						"contract": "contract/Array.sol:ArrayDemo",
						"label": "nums",
						"offset": 0,
						"slot": "0",
						"type": "t_array(t_uint256)dyn_storage"
					},
					{
						"astId": 16,
						"contract": "contract/Array.sol:ArrayDemo",
						"label": "nomsFixed",
						"offset": 0,
						"slot": "1",
						"type": "t_array(t_uint256)3_storage"
					}
				],
				"types": {
					"t_array(t_uint256)3_storage": {
						"base": "t_uint256",
						"encoding": "inplace",
						"label": "uint256[3]",
						"numberOfBytes": "96"
					},
					"t_array(t_uint256)dyn_storage": {
						"base": "t_uint256",
						"encoding": "dynamic_array",
						"label": "uint256[]",
						"numberOfBytes": "32"
					},
					"t_uint256": {
						"encoding": "inplace",
						"label": "uint256",
						"numberOfBytes": "32"
					}
				}
			},
			"userdoc": {
				"kind": "user",
				"methods": {},
				"version": 1
			}
		}
	}
}