{
	"contract/EnumDemo.sol": {
		"VehicleDemo": {
			"abi": [
				{
					"inputs": [],
					"name": "addOrder",
					"outputs": [],
					"stateMutability": "nonpayable",
					"type": "function"
				},
				{
					"inputs": [],
					"name": "getOrderStatus",
					"outputs": [
						{
							"internalType": "enum VehicleDemo.OrderStatus",
							"name": "",
							"type": "uint8"
						}
					],
					"stateMutability": "view",
					"type": "function"
				},
				{
					"inputs": [
						{
							"internalType": "uint256",
							"name": "",
							"type": "uint256"
						}
					],
					"name": "orders",
					"outputs": [
						{
							"internalType": "address",
							"name": "ownerAddr",
							"type": "address"
						},
						{
							"internalType": "enum VehicleDemo.OrderStatus",
							"name": "orderStatus",
							"type": "uint8"
						}
					],
					"stateMutability": "view",
					"type": "function"
				},
				{
					"inputs": [],
					"name": "resetOrderStatus",
					"outputs": [],
					"stateMutability": "nonpayable",
					"type": "function"
				},
				{
					"inputs": [],
					"name": "updateOrderStatus",
					"outputs": [],
					"stateMutability": "nonpayable",
					"type": "function"
				}
			],
			"devdoc": {
				"kind": "dev",
				"methods": {},
				"version": 1
			},
			"evm": {
				"assembly": "    /* \"contract/EnumDemo.sol\":62:975  contract VehicleDemo {... */\n  mstore(0x40, 0x80)\n  callvalue\n  dup1\n  iszero\n  tag_1\n  jumpi\n  0x00\n  dup1\n  revert\ntag_1:\n  pop\n  dataSize(sub_0)\n  dup1\n  dataOffset(sub_0)\n  0x00\n  codecopy\n  0x00\n  return\nstop\n\nsub_0: assembly {\n        /* \"contract/EnumDemo.sol\":62:975  contract VehicleDemo {... */\n      mstore(0x40, 0x80)\n      callvalue\n      dup1\n      iszero\n      tag_1\n      jumpi\n      0x00\n      dup1\n      revert\n    tag_1:\n      pop\n      jumpi(tag_2, lt(calldatasize, 0x04))\n      shr(0xe0, calldataload(0x00))\n      dup1\n      0x2035a264\n      eq\n      tag_3\n      jumpi\n      dup1\n      0xa85c38ef\n      eq\n      tag_4\n      jumpi\n      dup1\n      0xd81d26ae\n      eq\n      tag_5\n      jumpi\n      dup1\n      0xdfcc0ce8\n      eq\n      tag_6\n      jumpi\n      dup1\n      0xfe8542bd\n      eq\n      tag_7\n      jumpi\n    tag_2:\n      0x00\n      dup1\n      revert\n        /* \"contract/EnumDemo.sol\":368:462  function addOrder() external {... */\n    tag_3:\n      tag_8\n      tag_9\n      jump\t// in\n    tag_8:\n      stop\n        /* \"contract/EnumDemo.sol\":222:244  Order[] public  orders */\n    tag_4:\n      tag_10\n      0x04\n      dup1\n      calldatasize\n      sub\n      dup2\n      add\n      swap1\n      tag_11\n      swap2\n      swap1\n      tag_12\n      jump\t// in\n    tag_11:\n      tag_13\n      jump\t// in\n    tag_10:\n      mload(0x40)\n      tag_14\n      swap3\n      swap2\n      swap1\n      tag_15\n      jump\t// in\n    tag_14:\n      mload(0x40)\n      dup1\n      swap2\n      sub\n      swap1\n      return\n        /* \"contract/EnumDemo.sol\":661:807  function getOrderStatus() external view returns (OrderStatus) {... */\n    tag_5:\n      tag_16\n      tag_17\n      jump\t// in\n    tag_16:\n      mload(0x40)\n      tag_18\n      swap2\n      swap1\n      tag_19\n      jump\t// in\n    tag_18:\n      mload(0x40)\n      dup1\n      swap2\n      sub\n      swap1\n      return\n        /* \"contract/EnumDemo.sol\":850:971  function resetOrderStatus() external {... */\n    tag_6:\n      tag_20\n      tag_21\n      jump\t// in\n    tag_20:\n      stop\n        /* \"contract/EnumDemo.sol\":493:630  function updateOrderStatus() external {... */\n    tag_7:\n      tag_22\n      tag_23\n      jump\t// in\n    tag_22:\n      stop\n        /* \"contract/EnumDemo.sol\":368:462  function addOrder() external {... */\n    tag_9:\n        /* \"contract/EnumDemo.sol\":407:413  orders */\n      0x00\n        /* \"contract/EnumDemo.sol\":419:454  Order(msg.sender, OrderStatus.None) */\n      mload(0x40)\n      dup1\n      0x40\n      add\n      0x40\n      mstore\n      dup1\n        /* \"contract/EnumDemo.sol\":425:435  msg.sender */\n      caller\n        /* \"contract/EnumDemo.sol\":419:454  Order(msg.sender, OrderStatus.None) */\n      0xffffffffffffffffffffffffffffffffffffffff\n      and\n      dup2\n      mstore\n      0x20\n      add\n        /* \"contract/EnumDemo.sol\":437:453  OrderStatus.None */\n      0x00\n        /* \"contract/EnumDemo.sol\":419:454  Order(msg.sender, OrderStatus.None) */\n      0x05\n      dup2\n      gt\n      iszero\n      tag_25\n      jumpi\n      tag_26\n      tag_27\n      jump\t// in\n    tag_26:\n    tag_25:\n      dup2\n      mstore\n      pop\n        /* \"contract/EnumDemo.sol\":407:455  orders.push(Order(msg.sender, OrderStatus.None)) */\n      swap1\n      dup1\n      0x01\n      dup2\n      sload\n      add\n      dup1\n      dup3\n      sstore\n      dup1\n      swap2\n      pop\n      pop\n      0x01\n      swap1\n      sub\n      swap1\n      0x00\n      mstore\n      keccak256(0x00, 0x20)\n      add\n      0x00\n      swap1\n      swap2\n      swap1\n      swap2\n      swap1\n      swap2\n      pop\n      0x00\n      dup3\n      add\n      mload\n      dup2\n      0x00\n      add\n      exp(0x0100, 0x00)\n      dup2\n      sload\n      dup2\n      0xffffffffffffffffffffffffffffffffffffffff\n      mul\n      not\n      and\n      swap1\n      dup4\n      0xffffffffffffffffffffffffffffffffffffffff\n      and\n      mul\n      or\n      swap1\n      sstore\n      pop\n      0x20\n      dup3\n      add\n      mload\n      dup2\n      0x00\n      add\n      exp(0x0100, 0x14)\n      dup2\n      sload\n      dup2\n      0xff\n      mul\n      not\n      and\n      swap1\n      dup4\n      0x05\n      dup2\n      gt\n      iszero\n      tag_29\n      jumpi\n      tag_30\n      tag_27\n      jump\t// in\n    tag_30:\n    tag_29:\n      mul\n      or\n      swap1\n      sstore\n      pop\n      pop\n      pop\n        /* \"contract/EnumDemo.sol\":368:462  function addOrder() external {... */\n      jump\t// out\n        /* \"contract/EnumDemo.sol\":222:244  Order[] public  orders */\n    tag_13:\n      0x00\n      dup2\n      dup2\n      sload\n      dup2\n      lt\n      tag_31\n      jumpi\n      0x00\n      dup1\n      revert\n    tag_31:\n      swap1\n      0x00\n      mstore\n      keccak256(0x00, 0x20)\n      add\n      0x00\n      swap2\n      pop\n      swap1\n      pop\n      dup1\n      0x00\n      add\n      0x00\n      swap1\n      sload\n      swap1\n      0x0100\n      exp\n      swap1\n      div\n      0xffffffffffffffffffffffffffffffffffffffff\n      and\n      swap1\n      dup1\n      0x00\n      add\n      0x14\n      swap1\n      sload\n      swap1\n      0x0100\n      exp\n      swap1\n      div\n      0xff\n      and\n      swap1\n      pop\n      dup3\n      jump\t// out\n        /* \"contract/EnumDemo.sol\":661:807  function getOrderStatus() external view returns (OrderStatus) {... */\n    tag_17:\n        /* \"contract/EnumDemo.sol\":710:721  OrderStatus */\n      0x00\n        /* \"contract/EnumDemo.sol\":733:753  Order storage order0 */\n      dup1\n        /* \"contract/EnumDemo.sol\":756:762  orders */\n      0x00\n        /* \"contract/EnumDemo.sol\":763:764  0 */\n      dup1\n        /* \"contract/EnumDemo.sol\":756:765  orders[0] */\n      dup2\n      sload\n      dup2\n      lt\n      tag_34\n      jumpi\n      tag_35\n      tag_36\n      jump\t// in\n    tag_35:\n    tag_34:\n      swap1\n      0x00\n      mstore\n      keccak256(0x00, 0x20)\n      add\n        /* \"contract/EnumDemo.sol\":733:765  Order storage order0 = orders[0] */\n      swap1\n      pop\n        /* \"contract/EnumDemo.sol\":782:788  order0 */\n      dup1\n        /* \"contract/EnumDemo.sol\":782:800  order0.orderStatus */\n      0x00\n      add\n      0x14\n      swap1\n      sload\n      swap1\n      0x0100\n      exp\n      swap1\n      div\n      0xff\n      and\n        /* \"contract/EnumDemo.sol\":775:800  return order0.orderStatus */\n      swap2\n      pop\n      pop\n        /* \"contract/EnumDemo.sol\":661:807  function getOrderStatus() external view returns (OrderStatus) {... */\n      swap1\n      jump\t// out\n        /* \"contract/EnumDemo.sol\":850:971  function resetOrderStatus() external {... */\n    tag_21:\n        /* \"contract/EnumDemo.sol\":897:917  Order storage order0 */\n      0x00\n        /* \"contract/EnumDemo.sol\":920:926  orders */\n      dup1\n        /* \"contract/EnumDemo.sol\":927:928  0 */\n      0x00\n        /* \"contract/EnumDemo.sol\":920:929  orders[0] */\n      dup2\n      sload\n      dup2\n      lt\n      tag_39\n      jumpi\n      tag_40\n      tag_36\n      jump\t// in\n    tag_40:\n    tag_39:\n      swap1\n      0x00\n      mstore\n      keccak256(0x00, 0x20)\n      add\n        /* \"contract/EnumDemo.sol\":897:929  Order storage order0 = orders[0] */\n      swap1\n      pop\n        /* \"contract/EnumDemo.sol\":946:952  order0 */\n      dup1\n        /* \"contract/EnumDemo.sol\":946:964  order0.orderStatus */\n      0x00\n      add\n      0x14\n        /* \"contract/EnumDemo.sol\":939:964  delete order0.orderStatus */\n      0x0100\n      exp\n      dup2\n      sload\n      swap1\n      0xff\n      mul\n      not\n      and\n      swap1\n      sstore\n        /* \"contract/EnumDemo.sol\":887:971  {... */\n      pop\n        /* \"contract/EnumDemo.sol\":850:971  function resetOrderStatus() external {... */\n      jump\t// out\n        /* \"contract/EnumDemo.sol\":493:630  function updateOrderStatus() external {... */\n    tag_23:\n        /* \"contract/EnumDemo.sol\":541:561  Order storage order0 */\n      0x00\n        /* \"contract/EnumDemo.sol\":564:570  orders */\n      dup1\n        /* \"contract/EnumDemo.sol\":571:572  0 */\n      0x00\n        /* \"contract/EnumDemo.sol\":564:573  orders[0] */\n      dup2\n      sload\n      dup2\n      lt\n      tag_43\n      jumpi\n      tag_44\n      tag_36\n      jump\t// in\n    tag_44:\n    tag_43:\n      swap1\n      0x00\n      mstore\n      keccak256(0x00, 0x20)\n      add\n        /* \"contract/EnumDemo.sol\":541:573  Order storage order0 = orders[0] */\n      swap1\n      pop\n        /* \"contract/EnumDemo.sol\":604:623  OrderStatus.Pending */\n      0x01\n        /* \"contract/EnumDemo.sol\":583:589  order0 */\n      dup2\n        /* \"contract/EnumDemo.sol\":583:601  order0.orderStatus */\n      0x00\n      add\n      0x14\n        /* \"contract/EnumDemo.sol\":583:623  order0.orderStatus = OrderStatus.Pending */\n      0x0100\n      exp\n      dup2\n      sload\n      dup2\n      0xff\n      mul\n      not\n      and\n      swap1\n      dup4\n      0x05\n      dup2\n      gt\n      iszero\n      tag_46\n      jumpi\n      tag_47\n      tag_27\n      jump\t// in\n    tag_47:\n    tag_46:\n      mul\n      or\n      swap1\n      sstore\n      pop\n        /* \"contract/EnumDemo.sol\":531:630  {... */\n      pop\n        /* \"contract/EnumDemo.sol\":493:630  function updateOrderStatus() external {... */\n      jump\t// out\n        /* \"#utility.yul\":88:205   */\n    tag_49:\n        /* \"#utility.yul\":197:198   */\n      0x00\n        /* \"#utility.yul\":194:195   */\n      dup1\n        /* \"#utility.yul\":187:199   */\n      revert\n        /* \"#utility.yul\":334:411   */\n    tag_51:\n        /* \"#utility.yul\":371:378   */\n      0x00\n        /* \"#utility.yul\":400:405   */\n      dup2\n        /* \"#utility.yul\":389:405   */\n      swap1\n      pop\n        /* \"#utility.yul\":334:411   */\n      swap2\n      swap1\n      pop\n      jump\t// out\n        /* \"#utility.yul\":417:539   */\n    tag_52:\n        /* \"#utility.yul\":490:514   */\n      tag_67\n        /* \"#utility.yul\":508:513   */\n      dup2\n        /* \"#utility.yul\":490:514   */\n      tag_51\n      jump\t// in\n    tag_67:\n        /* \"#utility.yul\":483:488   */\n      dup2\n        /* \"#utility.yul\":480:515   */\n      eq\n        /* \"#utility.yul\":470:533   */\n      tag_68\n      jumpi\n        /* \"#utility.yul\":529:530   */\n      0x00\n        /* \"#utility.yul\":526:527   */\n      dup1\n        /* \"#utility.yul\":519:531   */\n      revert\n        /* \"#utility.yul\":470:533   */\n    tag_68:\n        /* \"#utility.yul\":417:539   */\n      pop\n      jump\t// out\n        /* \"#utility.yul\":545:684   */\n    tag_53:\n        /* \"#utility.yul\":591:596   */\n      0x00\n        /* \"#utility.yul\":629:635   */\n      dup2\n        /* \"#utility.yul\":616:636   */\n      calldataload\n        /* \"#utility.yul\":607:636   */\n      swap1\n      pop\n        /* \"#utility.yul\":645:678   */\n      tag_70\n        /* \"#utility.yul\":672:677   */\n      dup2\n        /* \"#utility.yul\":645:678   */\n      tag_52\n      jump\t// in\n    tag_70:\n        /* \"#utility.yul\":545:684   */\n      swap3\n      swap2\n      pop\n      pop\n      jump\t// out\n        /* \"#utility.yul\":690:1019   */\n    tag_12:\n        /* \"#utility.yul\":749:755   */\n      0x00\n        /* \"#utility.yul\":798:800   */\n      0x20\n        /* \"#utility.yul\":786:795   */\n      dup3\n        /* \"#utility.yul\":777:784   */\n      dup5\n        /* \"#utility.yul\":773:796   */\n      sub\n        /* \"#utility.yul\":769:801   */\n      slt\n        /* \"#utility.yul\":766:885   */\n      iszero\n      tag_72\n      jumpi\n        /* \"#utility.yul\":804:883   */\n      tag_73\n      tag_49\n      jump\t// in\n    tag_73:\n        /* \"#utility.yul\":766:885   */\n    tag_72:\n        /* \"#utility.yul\":924:925   */\n      0x00\n        /* \"#utility.yul\":949:1002   */\n      tag_74\n        /* \"#utility.yul\":994:1001   */\n      dup5\n        /* \"#utility.yul\":985:991   */\n      dup3\n        /* \"#utility.yul\":974:983   */\n      dup6\n        /* \"#utility.yul\":970:992   */\n      add\n        /* \"#utility.yul\":949:1002   */\n      tag_53\n      jump\t// in\n    tag_74:\n        /* \"#utility.yul\":939:1002   */\n      swap2\n      pop\n        /* \"#utility.yul\":895:1012   */\n      pop\n        /* \"#utility.yul\":690:1019   */\n      swap3\n      swap2\n      pop\n      pop\n      jump\t// out\n        /* \"#utility.yul\":1025:1151   */\n    tag_54:\n        /* \"#utility.yul\":1062:1069   */\n      0x00\n        /* \"#utility.yul\":1102:1144   */\n      0xffffffffffffffffffffffffffffffffffffffff\n        /* \"#utility.yul\":1095:1100   */\n      dup3\n        /* \"#utility.yul\":1091:1145   */\n      and\n        /* \"#utility.yul\":1080:1145   */\n      swap1\n      pop\n        /* \"#utility.yul\":1025:1151   */\n      swap2\n      swap1\n      pop\n      jump\t// out\n        /* \"#utility.yul\":1157:1253   */\n    tag_55:\n        /* \"#utility.yul\":1194:1201   */\n      0x00\n        /* \"#utility.yul\":1223:1247   */\n      tag_77\n        /* \"#utility.yul\":1241:1246   */\n      dup3\n        /* \"#utility.yul\":1223:1247   */\n      tag_54\n      jump\t// in\n    tag_77:\n        /* \"#utility.yul\":1212:1247   */\n      swap1\n      pop\n        /* \"#utility.yul\":1157:1253   */\n      swap2\n      swap1\n      pop\n      jump\t// out\n        /* \"#utility.yul\":1259:1377   */\n    tag_56:\n        /* \"#utility.yul\":1346:1370   */\n      tag_79\n        /* \"#utility.yul\":1364:1369   */\n      dup2\n        /* \"#utility.yul\":1346:1370   */\n      tag_55\n      jump\t// in\n    tag_79:\n        /* \"#utility.yul\":1341:1344   */\n      dup3\n        /* \"#utility.yul\":1334:1371   */\n      mstore\n        /* \"#utility.yul\":1259:1377   */\n      pop\n      pop\n      jump\t// out\n        /* \"#utility.yul\":1383:1563   */\n    tag_27:\n        /* \"#utility.yul\":1431:1508   */\n      0x4e487b7100000000000000000000000000000000000000000000000000000000\n        /* \"#utility.yul\":1428:1429   */\n      0x00\n        /* \"#utility.yul\":1421:1509   */\n      mstore\n        /* \"#utility.yul\":1528:1532   */\n      0x21\n        /* \"#utility.yul\":1525:1526   */\n      0x04\n        /* \"#utility.yul\":1518:1533   */\n      mstore\n        /* \"#utility.yul\":1552:1556   */\n      0x24\n        /* \"#utility.yul\":1549:1550   */\n      0x00\n        /* \"#utility.yul\":1542:1557   */\n      revert\n        /* \"#utility.yul\":1569:1687   */\n    tag_57:\n        /* \"#utility.yul\":1655:1656   */\n      0x06\n        /* \"#utility.yul\":1648:1653   */\n      dup2\n        /* \"#utility.yul\":1645:1657   */\n      lt\n        /* \"#utility.yul\":1635:1681   */\n      tag_82\n      jumpi\n        /* \"#utility.yul\":1661:1679   */\n      tag_83\n      tag_27\n      jump\t// in\n    tag_83:\n        /* \"#utility.yul\":1635:1681   */\n    tag_82:\n        /* \"#utility.yul\":1569:1687   */\n      pop\n      jump\t// out\n        /* \"#utility.yul\":1693:1830   */\n    tag_58:\n        /* \"#utility.yul\":1743:1750   */\n      0x00\n        /* \"#utility.yul\":1772:1777   */\n      dup2\n        /* \"#utility.yul\":1761:1777   */\n      swap1\n      pop\n        /* \"#utility.yul\":1778:1824   */\n      tag_85\n        /* \"#utility.yul\":1818:1823   */\n      dup3\n        /* \"#utility.yul\":1778:1824   */\n      tag_57\n      jump\t// in\n    tag_85:\n        /* \"#utility.yul\":1693:1830   */\n      swap2\n      swap1\n      pop\n      jump\t// out\n        /* \"#utility.yul\":1836:1973   */\n    tag_59:\n        /* \"#utility.yul\":1897:1906   */\n      0x00\n        /* \"#utility.yul\":1930:1967   */\n      tag_87\n        /* \"#utility.yul\":1961:1966   */\n      dup3\n        /* \"#utility.yul\":1930:1967   */\n      tag_58\n      jump\t// in\n    tag_87:\n        /* \"#utility.yul\":1917:1967   */\n      swap1\n      pop\n        /* \"#utility.yul\":1836:1973   */\n      swap2\n      swap1\n      pop\n      jump\t// out\n        /* \"#utility.yul\":1979:2132   */\n    tag_60:\n        /* \"#utility.yul\":2077:2125   */\n      tag_89\n        /* \"#utility.yul\":2119:2124   */\n      dup2\n        /* \"#utility.yul\":2077:2125   */\n      tag_59\n      jump\t// in\n    tag_89:\n        /* \"#utility.yul\":2072:2075   */\n      dup3\n        /* \"#utility.yul\":2065:2126   */\n      mstore\n        /* \"#utility.yul\":1979:2132   */\n      pop\n      pop\n      jump\t// out\n        /* \"#utility.yul\":2138:2492   */\n    tag_15:\n        /* \"#utility.yul\":2270:2274   */\n      0x00\n        /* \"#utility.yul\":2308:2310   */\n      0x40\n        /* \"#utility.yul\":2297:2306   */\n      dup3\n        /* \"#utility.yul\":2293:2311   */\n      add\n        /* \"#utility.yul\":2285:2311   */\n      swap1\n      pop\n        /* \"#utility.yul\":2321:2392   */\n      tag_91\n        /* \"#utility.yul\":2389:2390   */\n      0x00\n        /* \"#utility.yul\":2378:2387   */\n      dup4\n        /* \"#utility.yul\":2374:2391   */\n      add\n        /* \"#utility.yul\":2365:2371   */\n      dup6\n        /* \"#utility.yul\":2321:2392   */\n      tag_56\n      jump\t// in\n    tag_91:\n        /* \"#utility.yul\":2402:2485   */\n      tag_92\n        /* \"#utility.yul\":2481:2483   */\n      0x20\n        /* \"#utility.yul\":2470:2479   */\n      dup4\n        /* \"#utility.yul\":2466:2484   */\n      add\n        /* \"#utility.yul\":2457:2463   */\n      dup5\n        /* \"#utility.yul\":2402:2485   */\n      tag_60\n      jump\t// in\n    tag_92:\n        /* \"#utility.yul\":2138:2492   */\n      swap4\n      swap3\n      pop\n      pop\n      pop\n      jump\t// out\n        /* \"#utility.yul\":2498:2742   */\n    tag_19:\n        /* \"#utility.yul\":2602:2606   */\n      0x00\n        /* \"#utility.yul\":2640:2642   */\n      0x20\n        /* \"#utility.yul\":2629:2638   */\n      dup3\n        /* \"#utility.yul\":2625:2643   */\n      add\n        /* \"#utility.yul\":2617:2643   */\n      swap1\n      pop\n        /* \"#utility.yul\":2653:2735   */\n      tag_94\n        /* \"#utility.yul\":2732:2733   */\n      0x00\n        /* \"#utility.yul\":2721:2730   */\n      dup4\n        /* \"#utility.yul\":2717:2734   */\n      add\n        /* \"#utility.yul\":2708:2714   */\n      dup5\n        /* \"#utility.yul\":2653:2735   */\n      tag_60\n      jump\t// in\n    tag_94:\n        /* \"#utility.yul\":2498:2742   */\n      swap3\n      swap2\n      pop\n      pop\n      jump\t// out\n        /* \"#utility.yul\":2748:2928   */\n    tag_36:\n        /* \"#utility.yul\":2796:2873   */\n      0x4e487b7100000000000000000000000000000000000000000000000000000000\n        /* \"#utility.yul\":2793:2794   */\n      0x00\n        /* \"#utility.yul\":2786:2874   */\n      mstore\n        /* \"#utility.yul\":2893:2897   */\n      0x32\n        /* \"#utility.yul\":2890:2891   */\n      0x04\n        /* \"#utility.yul\":2883:2898   */\n      mstore\n        /* \"#utility.yul\":2917:2921   */\n      0x24\n        /* \"#utility.yul\":2914:2915   */\n      0x00\n        /* \"#utility.yul\":2907:2922   */\n      revert\n\n    auxdata: 0xa264697066735822122055f9704e6d83f1c9cb1b3bc7700e75467936462b444488bf7cc6d0384505000e64736f6c634300081a0033\n}\n",
				"bytecode": {
					"linkReferences": {},
					"object": "6080604052348015600e575f80fd5b506104608061001c5f395ff3fe608060405234801561000f575f80fd5b5060043610610055575f3560e01c80632035a26414610059578063a85c38ef14610063578063d81d26ae14610094578063dfcc0ce8146100b2578063fe8542bd146100bc575b5f80fd5b6100616100c6565b005b61007d600480360381019061007891906102e0565b61019d565b60405161008b9291906103bd565b60405180910390f35b61009c6101f2565b6040516100a991906103e4565b60405180910390f35b6100ba610228565b005b6100c461025c565b005b5f60405180604001604052803373ffffffffffffffffffffffffffffffffffffffff1681526020015f60058111156101015761010061034a565b5b815250908060018154018082558091505060019003905f5260205f20015f909190919091505f820151815f015f6101000a81548173ffffffffffffffffffffffffffffffffffffffff021916908373ffffffffffffffffffffffffffffffffffffffff1602179055506020820151815f0160146101000a81548160ff021916908360058111156101945761019361034a565b5b02179055505050565b5f81815481106101ab575f80fd5b905f5260205f20015f91509050805f015f9054906101000a900473ffffffffffffffffffffffffffffffffffffffff1690805f0160149054906101000a900460ff16905082565b5f805f8081548110610207576102066103fd565b5b905f5260205f20019050805f0160149054906101000a900460ff1691505090565b5f805f8154811061023c5761023b6103fd565b5b905f5260205f20019050805f0160146101000a81549060ff021916905550565b5f805f815481106102705761026f6103fd565b5b905f5260205f200190506001815f0160146101000a81548160ff021916908360058111156102a1576102a061034a565b5b021790555050565b5f80fd5b5f819050919050565b6102bf816102ad565b81146102c9575f80fd5b50565b5f813590506102da816102b6565b92915050565b5f602082840312156102f5576102f46102a9565b5b5f610302848285016102cc565b91505092915050565b5f73ffffffffffffffffffffffffffffffffffffffff82169050919050565b5f6103348261030b565b9050919050565b6103448161032a565b82525050565b7f4e487b71000000000000000000000000000000000000000000000000000000005f52602160045260245ffd5b600681106103885761038761034a565b5b50565b5f81905061039882610377565b919050565b5f6103a78261038b565b9050919050565b6103b78161039d565b82525050565b5f6040820190506103d05f83018561033b565b6103dd60208301846103ae565b9392505050565b5f6020820190506103f75f8301846103ae565b92915050565b7f4e487b71000000000000000000000000000000000000000000000000000000005f52603260045260245ffdfea264697066735822122055f9704e6d83f1c9cb1b3bc7700e75467936462b444488bf7cc6d0384505000e64736f6c634300081a0033",
					"opcodes": "PUSH1 0x80 PUSH1 0x40 MSTORE CALLVALUE DUP1 ISZERO PUSH1 0xE JUMPI PUSH0 DUP1 REVERT JUMPDEST POP PUSH2 0x460 DUP1 PUSH2 0x1C PUSH0 CODECOPY PUSH0 RETURN INVALID PUSH1 0x80 PUSH1 0x40 MSTORE CALLVALUE DUP1 ISZERO PUSH2 0xF JUMPI PUSH0 DUP1 REVERT JUMPDEST POP PUSH1 0x4 CALLDATASIZE LT PUSH2 0x55 JUMPI PUSH0 CALLDATALOAD PUSH1 0xE0 SHR DUP1 PUSH4 0x2035A264 EQ PUSH2 0x59 JUMPI DUP1 PUSH4 0xA85C38EF EQ PUSH2 0x63 JUMPI DUP1 PUSH4 0xD81D26AE EQ PUSH2 0x94 JUMPI DUP1 PUSH4 0xDFCC0CE8 EQ PUSH2 0xB2 JUMPI DUP1 PUSH4 0xFE8542BD EQ PUSH2 0xBC JUMPI JUMPDEST PUSH0 DUP1 REVERT JUMPDEST PUSH2 0x61 PUSH2 0xC6 JUMP JUMPDEST STOP JUMPDEST PUSH2 0x7D PUSH1 0x4 DUP1 CALLDATASIZE SUB DUP2 ADD SWAP1 PUSH2 0x78 SWAP2 SWAP1 PUSH2 0x2E0 JUMP JUMPDEST PUSH2 0x19D JUMP JUMPDEST PUSH1 0x40 MLOAD PUSH2 0x8B SWAP3 SWAP2 SWAP1 PUSH2 0x3BD JUMP JUMPDEST PUSH1 0x40 MLOAD DUP1 SWAP2 SUB SWAP1 RETURN JUMPDEST PUSH2 0x9C PUSH2 0x1F2 JUMP JUMPDEST PUSH1 0x40 MLOAD PUSH2 0xA9 SWAP2 SWAP1 PUSH2 0x3E4 JUMP JUMPDEST PUSH1 0x40 MLOAD DUP1 SWAP2 SUB SWAP1 RETURN JUMPDEST PUSH2 0xBA PUSH2 0x228 JUMP JUMPDEST STOP JUMPDEST PUSH2 0xC4 PUSH2 0x25C JUMP JUMPDEST STOP JUMPDEST PUSH0 PUSH1 0x40 MLOAD DUP1 PUSH1 0x40 ADD PUSH1 0x40 MSTORE DUP1 CALLER PUSH20 0xFFFFFFFFFFFFFFFFFFFFFFFFFFFFFFFFFFFFFFFF AND DUP2 MSTORE PUSH1 0x20 ADD PUSH0 PUSH1 0x5 DUP2 GT ISZERO PUSH2 0x101 JUMPI PUSH2 0x100 PUSH2 0x34A JUMP JUMPDEST JUMPDEST DUP2 MSTORE POP SWAP1 DUP1 PUSH1 0x1 DUP2 SLOAD ADD DUP1 DUP3 SSTORE DUP1 SWAP2 POP POP PUSH1 0x1 SWAP1 SUB SWAP1 PUSH0 MSTORE PUSH1 0x20 PUSH0 KECCAK256 ADD PUSH0 SWAP1 SWAP2 SWAP1 SWAP2 SWAP1 SWAP2 POP PUSH0 DUP3 ADD MLOAD DUP2 PUSH0 ADD PUSH0 PUSH2 0x100 EXP DUP2 SLOAD DUP2 PUSH20 0xFFFFFFFFFFFFFFFFFFFFFFFFFFFFFFFFFFFFFFFF MUL NOT AND SWAP1 DUP4 PUSH20 0xFFFFFFFFFFFFFFFFFFFFFFFFFFFFFFFFFFFFFFFF AND MUL OR SWAP1 SSTORE POP PUSH1 0x20 DUP3 ADD MLOAD DUP2 PUSH0 ADD PUSH1 0x14 PUSH2 0x100 EXP DUP2 SLOAD DUP2 PUSH1 0xFF MUL NOT AND SWAP1 DUP4 PUSH1 0x5 DUP2 GT ISZERO PUSH2 0x194 JUMPI PUSH2 0x193 PUSH2 0x34A JUMP JUMPDEST JUMPDEST MUL OR SWAP1 SSTORE POP POP POP JUMP JUMPDEST PUSH0 DUP2 DUP2 SLOAD DUP2 LT PUSH2 0x1AB JUMPI PUSH0 DUP1 REVERT JUMPDEST SWAP1 PUSH0 MSTORE PUSH1 0x20 PUSH0 KECCAK256 ADD PUSH0 SWAP2 POP SWAP1 POP DUP1 PUSH0 ADD PUSH0 SWAP1 SLOAD SWAP1 PUSH2 0x100 EXP SWAP1 DIV PUSH20 0xFFFFFFFFFFFFFFFFFFFFFFFFFFFFFFFFFFFFFFFF AND SWAP1 DUP1 PUSH0 ADD PUSH1 0x14 SWAP1 SLOAD SWAP1 PUSH2 0x100 EXP SWAP1 DIV PUSH1 0xFF AND SWAP1 POP DUP3 JUMP JUMPDEST PUSH0 DUP1 PUSH0 DUP1 DUP2 SLOAD DUP2 LT PUSH2 0x207 JUMPI PUSH2 0x206 PUSH2 0x3FD JUMP JUMPDEST JUMPDEST SWAP1 PUSH0 MSTORE PUSH1 0x20 PUSH0 KECCAK256 ADD SWAP1 POP DUP1 PUSH0 ADD PUSH1 0x14 SWAP1 SLOAD SWAP1 PUSH2 0x100 EXP SWAP1 DIV PUSH1 0xFF AND SWAP2 POP POP SWAP1 JUMP JUMPDEST PUSH0 DUP1 PUSH0 DUP2 SLOAD DUP2 LT PUSH2 0x23C JUMPI PUSH2 0x23B PUSH2 0x3FD JUMP JUMPDEST JUMPDEST SWAP1 PUSH0 MSTORE PUSH1 0x20 PUSH0 KECCAK256 ADD SWAP1 POP DUP1 PUSH0 ADD PUSH1 0x14 PUSH2 0x100 EXP DUP2 SLOAD SWAP1 PUSH1 0xFF MUL NOT AND SWAP1 SSTORE POP JUMP JUMPDEST PUSH0 DUP1 PUSH0 DUP2 SLOAD DUP2 LT PUSH2 0x270 JUMPI PUSH2 0x26F PUSH2 0x3FD JUMP JUMPDEST JUMPDEST SWAP1 PUSH0 MSTORE PUSH1 0x20 PUSH0 KECCAK256 ADD SWAP1 POP PUSH1 0x1 DUP2 PUSH0 ADD PUSH1 0x14 PUSH2 0x100 EXP DUP2 SLOAD DUP2 PUSH1 0xFF MUL NOT AND SWAP1 DUP4 PUSH1 0x5 DUP2 GT ISZERO PUSH2 0x2A1 JUMPI PUSH2 0x2A0 PUSH2 0x34A JUMP JUMPDEST JUMPDEST MUL OR SWAP1 SSTORE POP POP JUMP JUMPDEST PUSH0 DUP1 REVERT JUMPDEST PUSH0 DUP2 SWAP1 POP SWAP2 SWAP1 POP JUMP JUMPDEST PUSH2 0x2BF DUP2 PUSH2 0x2AD JUMP JUMPDEST DUP2 EQ PUSH2 0x2C9 JUMPI PUSH0 DUP1 REVERT JUMPDEST POP JUMP JUMPDEST PUSH0 DUP2 CALLDATALOAD SWAP1 POP PUSH2 0x2DA DUP2 PUSH2 0x2B6 JUMP JUMPDEST SWAP3 SWAP2 POP POP JUMP JUMPDEST PUSH0 PUSH1 0x20 DUP3 DUP5 SUB SLT ISZERO PUSH2 0x2F5 JUMPI PUSH2 0x2F4 PUSH2 0x2A9 JUMP JUMPDEST JUMPDEST PUSH0 PUSH2 0x302 DUP5 DUP3 DUP6 ADD PUSH2 0x2CC JUMP JUMPDEST SWAP2 POP POP SWAP3 SWAP2 POP POP JUMP JUMPDEST PUSH0 PUSH20 0xFFFFFFFFFFFFFFFFFFFFFFFFFFFFFFFFFFFFFFFF DUP3 AND SWAP1 POP SWAP2 SWAP1 POP JUMP JUMPDEST PUSH0 PUSH2 0x334 DUP3 PUSH2 0x30B JUMP JUMPDEST SWAP1 POP SWAP2 SWAP1 POP JUMP JUMPDEST PUSH2 0x344 DUP2 PUSH2 0x32A JUMP JUMPDEST DUP3 MSTORE POP POP JUMP JUMPDEST PUSH32 0x4E487B7100000000000000000000000000000000000000000000000000000000 PUSH0 MSTORE PUSH1 0x21 PUSH1 0x4 MSTORE PUSH1 0x24 PUSH0 REVERT JUMPDEST PUSH1 0x6 DUP2 LT PUSH2 0x388 JUMPI PUSH2 0x387 PUSH2 0x34A JUMP JUMPDEST JUMPDEST POP JUMP JUMPDEST PUSH0 DUP2 SWAP1 POP PUSH2 0x398 DUP3 PUSH2 0x377 JUMP JUMPDEST SWAP2 SWAP1 POP JUMP JUMPDEST PUSH0 PUSH2 0x3A7 DUP3 PUSH2 0x38B JUMP JUMPDEST SWAP1 POP SWAP2 SWAP1 POP JUMP JUMPDEST PUSH2 0x3B7 DUP2 PUSH2 0x39D JUMP JUMPDEST DUP3 MSTORE POP POP JUMP JUMPDEST PUSH0 PUSH1 0x40 DUP3 ADD SWAP1 POP PUSH2 0x3D0 PUSH0 DUP4 ADD DUP6 PUSH2 0x33B JUMP JUMPDEST PUSH2 0x3DD PUSH1 0x20 DUP4 ADD DUP5 PUSH2 0x3AE JUMP JUMPDEST SWAP4 SWAP3 POP POP POP JUMP JUMPDEST PUSH0 PUSH1 0x20 DUP3 ADD SWAP1 POP PUSH2 0x3F7 PUSH0 DUP4 ADD DUP5 PUSH2 0x3AE JUMP JUMPDEST SWAP3 SWAP2 POP POP JUMP JUMPDEST PUSH32 0x4E487B7100000000000000000000000000000000000000000000000000000000 PUSH0 MSTORE PUSH1 0x32 PUSH1 0x4 MSTORE PUSH1 0x24 PUSH0 REVERT INVALID LOG2 PUSH5 0x6970667358 0x22 SLT KECCAK256 SSTORE 0xF9 PUSH17 0x4E6D83F1C9CB1B3BC7700E75467936462B PREVRANDAO PREVRANDAO DUP9 0xBF PUSH29 0xC6D0384505000E64736F6C634300081A00330000000000000000000000 "
				},
				"gasEstimates": {
					"creation": {
						"codeDepositCost": "224000",
						"executionCost": "261",
						"totalCost": "224261"
					},
					"external": {
						"addOrder()": "73160",
						"getOrderStatus()": "4829",
						"orders(uint256)": "7356",
						"resetOrderStatus()": "26673",
						"updateOrderStatus()": "26740"
					}
				},
				"methodIdentifiers": {
					"addOrder()": "2035a264",
					"getOrderStatus()": "d81d26ae",
					"orders(uint256)": "a85c38ef",
					"resetOrderStatus()": "dfcc0ce8",
					"updateOrderStatus()": "fe8542bd"
				}
			},
			"storageLayout": {
				"storage": [
					{
						"astId": 12,
						"contract": "contract/EnumDemo.sol:VehicleDemo",
						"label": "orders",
						"offset": 0,
						"slot": "0",
						"type": "t_array(t_struct(Order)18_storage)dyn_storage"
					}
				],
				"types": {
					"t_address": {
						"encoding": "inplace",
						"label": "address",
						"numberOfBytes": "20"
					},
					"t_array(t_struct(Order)18_storage)dyn_storage": {
						"base": "t_struct(Order)18_storage",
						"encoding": "dynamic_array",
						"label": "struct VehicleDemo.Order[]",
						"numberOfBytes": "32"
					},
					"t_enum(OrderStatus)8": {
						"encoding": "inplace",
						"label": "enum VehicleDemo.OrderStatus",
						"numberOfBytes": "1"
					},
					"t_struct(Order)18_storage": {
						"encoding": "inplace",
						"label": "struct VehicleDemo.Order",
						"members": [
							{
								"astId": 14,
								"contract": "contract/EnumDemo.sol:VehicleDemo",
								"label": "ownerAddr",
								"offset": 0,
								"slot": "0",
								"type": "t_address"
							},
							{
								"astId": 17,
								"contract": "contract/EnumDemo.sol:VehicleDemo",
								"label": "orderStatus",
								"offset": 20,
								"slot": "0",
								"type": "t_enum(OrderStatus)8"
							}
						],
						"numberOfBytes": "32"
					}
				}
			},
			"userdoc": {
				"kind": "user",
				"methods": {},
				"version": 1
			}
		}
	}
}